ARM GAS  C:\Users\Elea\AppData\Local\Temp\ccp943mU.s 			page 1


   1              		.syntax unified
   2              		.cpu cortex-m0
   3              		.fpu softvfp
   4              		.eabi_attribute 20, 1
   5              		.eabi_attribute 21, 1
   6              		.eabi_attribute 23, 3
   7              		.eabi_attribute 24, 1
   8              		.eabi_attribute 25, 1
   9              		.eabi_attribute 26, 1
  10              		.eabi_attribute 30, 6
  11              		.eabi_attribute 34, 0
  12              		.eabi_attribute 18, 4
  13              		.thumb
  14              		.syntax unified
  15              		.file	"BLE.c"
  16              		.text
  17              	.Ltext0:
  18              		.cfi_sections	.debug_frame
  19              		.global	cyBle_initVar
  20              		.bss
  21              		.type	cyBle_initVar, %object
  22              		.size	cyBle_initVar, 1
  23              	cyBle_initVar:
  24 0000 00       		.space	1
  25              		.global	cyBle_stackMemoryRam
  26              		.section	.noinit,"aw",%progbits
  27              		.align	3
  28              		.type	cyBle_stackMemoryRam, %object
  29              		.size	cyBle_stackMemoryRam, 2784
  30              	cyBle_stackMemoryRam:
  31 0000 00000000 		.space	2784
  31      00000000 
  31      00000000 
  31      00000000 
  31      00000000 
  32              		.global	cyBle_discoveryParam
  33              		.data
  34              		.align	2
  35              		.type	cyBle_discoveryParam, %object
  36              		.size	cyBle_discoveryParam, 16
  37              	cyBle_discoveryParam:
  38 0000 2000     		.short	32
  39 0002 2003     		.short	800
  40 0004 00       		.byte	0
  41 0005 00       		.byte	0
  42 0006 00       		.byte	0
  43 0007 00       		.byte	0
  44 0008 00       		.byte	0
  45 0009 00       		.byte	0
  46 000a 50       		.byte	80
  47 000b A0       		.byte	-96
  48 000c 00       		.byte	0
  49 000d 07       		.byte	7
  50 000e 00       		.byte	0
  51 000f 00       		.space	1
  52              		.global	cyBle_discoveryData
  53              		.align	2
ARM GAS  C:\Users\Elea\AppData\Local\Temp\ccp943mU.s 			page 2


  54              		.type	cyBle_discoveryData, %object
  55              		.size	cyBle_discoveryData, 32
  56              	cyBle_discoveryData:
  57 0010 02       		.byte	2
  58 0011 01       		.byte	1
  59 0012 06       		.byte	6
  60 0013 0F       		.byte	15
  61 0014 09       		.byte	9
  62 0015 45       		.byte	69
  63 0016 6C       		.byte	108
  64 0017 65       		.byte	101
  65 0018 61       		.byte	97
  66 0019 4C       		.byte	76
  67 001a 69       		.byte	105
  68 001b 67       		.byte	103
  69 001c 68       		.byte	104
  70 001d 74       		.byte	116
  71 001e 39       		.byte	57
  72 001f 39       		.byte	57
  73 0020 39       		.byte	57
  74 0021 39       		.byte	57
  75 0022 39       		.byte	57
  76 0023 00       		.byte	0
  77 0024 00       		.byte	0
  78 0025 00       		.byte	0
  79 0026 00       		.byte	0
  80 0027 00       		.byte	0
  81 0028 00       		.byte	0
  82 0029 00       		.byte	0
  83 002a 00       		.byte	0
  84 002b 00       		.byte	0
  85 002c 00       		.byte	0
  86 002d 00       		.byte	0
  87 002e 00       		.byte	0
  88 002f 13       		.byte	19
  89              		.global	cyBle_scanRspData
  90              		.align	2
  91              		.type	cyBle_scanRspData, %object
  92              		.size	cyBle_scanRspData, 32
  93              	cyBle_scanRspData:
  94 0030 0F       		.byte	15
  95 0031 09       		.byte	9
  96 0032 45       		.byte	69
  97 0033 6C       		.byte	108
  98 0034 65       		.byte	101
  99 0035 61       		.byte	97
 100 0036 4C       		.byte	76
 101 0037 69       		.byte	105
 102 0038 67       		.byte	103
 103 0039 68       		.byte	104
 104 003a 74       		.byte	116
 105 003b 39       		.byte	57
 106 003c 39       		.byte	57
 107 003d 39       		.byte	57
 108 003e 39       		.byte	57
 109 003f 39       		.byte	57
 110 0040 02       		.byte	2
ARM GAS  C:\Users\Elea\AppData\Local\Temp\ccp943mU.s 			page 3


 111 0041 0A       		.byte	10
 112 0042 03       		.byte	3
 113 0043 03       		.byte	3
 114 0044 19       		.byte	25
 115 0045 40       		.byte	64
 116 0046 02       		.byte	2
 117 0047 00       		.byte	0
 118 0048 00       		.byte	0
 119 0049 00       		.byte	0
 120 004a 00       		.byte	0
 121 004b 00       		.byte	0
 122 004c 00       		.byte	0
 123 004d 00       		.byte	0
 124 004e 00       		.byte	0
 125 004f 17       		.byte	23
 126              		.global	cyBle_discoveryModeInfo
 127              		.align	2
 128              		.type	cyBle_discoveryModeInfo, %object
 129              		.size	cyBle_discoveryModeInfo, 20
 130              	cyBle_discoveryModeInfo:
 131 0050 02       		.byte	2
 132 0051 000000   		.space	3
 133 0054 00000000 		.word	cyBle_discoveryParam
 134 0058 00000000 		.word	cyBle_discoveryData
 135 005c 00000000 		.word	cyBle_scanRspData
 136 0060 0000     		.short	0
 137 0062 0000     		.space	2
 138              		.comm	CyBle_ApplCallback,4,4
 139              		.global	cyBle_deviceAddress
 140              		.align	2
 141              		.type	cyBle_deviceAddress, %object
 142              		.size	cyBle_deviceAddress, 7
 143              	cyBle_deviceAddress:
 144 0064 00       		.byte	0
 145 0065 00       		.byte	0
 146 0066 00       		.byte	0
 147 0067 50       		.byte	80
 148 0068 A0       		.byte	-96
 149 0069 00       		.byte	0
 150 006a 00       		.byte	0
 151              		.global	cyBle_sflashDeviceAddress
 152 006b 00       		.align	2
 153              		.type	cyBle_sflashDeviceAddress, %object
 154              		.size	cyBle_sflashDeviceAddress, 4
 155              	cyBle_sflashDeviceAddress:
 156 006c 00F2FF0F 		.word	268431872
 157              		.section	.text.CyBle_Init,"ax",%progbits
 158              		.align	2
 159              		.global	CyBle_Init
 160              		.code	16
 161              		.thumb_func
 162              		.type	CyBle_Init, %function
 163              	CyBle_Init:
 164              	.LFB2:
 165              		.file 1 "Generated_Source\\PSoC4\\BLE.c"
   1:Generated_Source\PSoC4/BLE.c **** /***************************************************************************//**
   2:Generated_Source\PSoC4/BLE.c **** * \file CYBLE.c
ARM GAS  C:\Users\Elea\AppData\Local\Temp\ccp943mU.s 			page 4


   3:Generated_Source\PSoC4/BLE.c **** * \version 3.40
   4:Generated_Source\PSoC4/BLE.c **** * 
   5:Generated_Source\PSoC4/BLE.c **** * \brief
   6:Generated_Source\PSoC4/BLE.c **** *  This file contains the source code for the Common APIs of the BLE Component.
   7:Generated_Source\PSoC4/BLE.c **** * 
   8:Generated_Source\PSoC4/BLE.c **** ********************************************************************************
   9:Generated_Source\PSoC4/BLE.c **** * \copyright
  10:Generated_Source\PSoC4/BLE.c **** * Copyright 2014-2016, Cypress Semiconductor Corporation.  All rights reserved.
  11:Generated_Source\PSoC4/BLE.c **** * You may use this file only in accordance with the license, terms, conditions,
  12:Generated_Source\PSoC4/BLE.c **** * disclaimers, and limitations in the end user license agreement accompanying
  13:Generated_Source\PSoC4/BLE.c **** * the software package with which this file was provided.
  14:Generated_Source\PSoC4/BLE.c **** *******************************************************************************/
  15:Generated_Source\PSoC4/BLE.c **** 
  16:Generated_Source\PSoC4/BLE.c **** #include "BLE_eventHandler.h"
  17:Generated_Source\PSoC4/BLE.c **** #include "BLE_HAL_PVT.h"
  18:Generated_Source\PSoC4/BLE.c **** #include <stdlib.h>
  19:Generated_Source\PSoC4/BLE.c **** 
  20:Generated_Source\PSoC4/BLE.c **** 
  21:Generated_Source\PSoC4/BLE.c **** /***************************************
  22:Generated_Source\PSoC4/BLE.c **** * Function Prototypes
  23:Generated_Source\PSoC4/BLE.c **** ***************************************/
  24:Generated_Source\PSoC4/BLE.c **** 
  25:Generated_Source\PSoC4/BLE.c **** #if(CYBLE_GATT_ROLE_SERVER)
  26:Generated_Source\PSoC4/BLE.c ****     #if(CYBLE_GAP_ROLE_PERIPHERAL)
  27:Generated_Source\PSoC4/BLE.c ****         static void CyBle_ChangeAdLocalName(const char8 name[], uint8 dest);
  28:Generated_Source\PSoC4/BLE.c ****     #endif /* (CYBLE_GAP_ROLE_PERIPHERAL) */
  29:Generated_Source\PSoC4/BLE.c **** #endif /* (CYBLE_GATT_ROLE_SERVER) */
  30:Generated_Source\PSoC4/BLE.c ****     
  31:Generated_Source\PSoC4/BLE.c **** 
  32:Generated_Source\PSoC4/BLE.c **** /***************************************
  33:Generated_Source\PSoC4/BLE.c **** * Global Variables
  34:Generated_Source\PSoC4/BLE.c **** ***************************************/
  35:Generated_Source\PSoC4/BLE.c **** 
  36:Generated_Source\PSoC4/BLE.c **** /* Indicates whether the BLE has been initialized. The variable is initialized to
  37:Generated_Source\PSoC4/BLE.c ****    0 and set to 1 the first time CyBle_Start() is called. This allows the component
  38:Generated_Source\PSoC4/BLE.c ****    to restart without reinitialization after the first call to the CyBle_Start() 
  39:Generated_Source\PSoC4/BLE.c ****    routine. If reinitialization of the component is required, the variable should 
  40:Generated_Source\PSoC4/BLE.c ****    be set to 0 before the CyBle_Start() routine is called. Alternatively, the BLE
  41:Generated_Source\PSoC4/BLE.c ****    can be reinitialized by calling the CyBle_Init() function.
  42:Generated_Source\PSoC4/BLE.c **** */
  43:Generated_Source\PSoC4/BLE.c **** uint8  cyBle_initVar = 0u;
  44:Generated_Source\PSoC4/BLE.c **** 
  45:Generated_Source\PSoC4/BLE.c **** /* Allocate RAM memory for stack. This buffer could be reused by application when 
  46:Generated_Source\PSoC4/BLE.c ****    BLE component is stopped. For export mode buffer is allocated in heap.
  47:Generated_Source\PSoC4/BLE.c **** */
  48:Generated_Source\PSoC4/BLE.c **** #if(CYBLE_SHARING_MODE_EXPORT)
  49:Generated_Source\PSoC4/BLE.c ****     
  50:Generated_Source\PSoC4/BLE.c **** uint8 *cyBle_stackMemoryRam = NULL;
  51:Generated_Source\PSoC4/BLE.c **** 
  52:Generated_Source\PSoC4/BLE.c **** #else
  53:Generated_Source\PSoC4/BLE.c **** 
  54:Generated_Source\PSoC4/BLE.c **** CYBLE_CYALIGNED_BEGIN CY_NOINIT uint8 cyBle_stackMemoryRam[CYBLE_STACK_RAM_SIZE] CYBLE_CYALIGNED_EN
  55:Generated_Source\PSoC4/BLE.c **** 
  56:Generated_Source\PSoC4/BLE.c **** #endif  /* CYBLE_SHARING_MODE_EXPORT */
  57:Generated_Source\PSoC4/BLE.c **** 
  58:Generated_Source\PSoC4/BLE.c **** #if(CYBLE_GAP_ROLE_PERIPHERAL || CYBLE_GAP_ROLE_BROADCASTER)
  59:Generated_Source\PSoC4/BLE.c **** 
ARM GAS  C:\Users\Elea\AppData\Local\Temp\ccp943mU.s 			page 5


  60:Generated_Source\PSoC4/BLE.c **** CYBLE_GAPP_DISC_PARAM_T cyBle_discoveryParam =
  61:Generated_Source\PSoC4/BLE.c **** {
  62:Generated_Source\PSoC4/BLE.c ****     0x0020u,    /* uint16 advertising_interval_min */
  63:Generated_Source\PSoC4/BLE.c ****     0x0320u,    /* uint16 advertising_interval_max */
  64:Generated_Source\PSoC4/BLE.c ****     CYBLE_GAPP_CONNECTABLE_UNDIRECTED_ADV, /* uint8 advertising_type */
  65:Generated_Source\PSoC4/BLE.c ****     0x00u,      /* uint8 own_addr_type */
  66:Generated_Source\PSoC4/BLE.c ****     0x00u,      /* uint8 direct_addr_type */
  67:Generated_Source\PSoC4/BLE.c ****     {0x00u, 0x00u, 0x00u, 0x50u, 0xA0u, 0x00u}, /* uint8* direct_addr */
  68:Generated_Source\PSoC4/BLE.c ****     0x07u,      /* uint8 advertising_channel_map */
  69:Generated_Source\PSoC4/BLE.c ****     0x00u,      /* uint8 advertising_filter_policy */
  70:Generated_Source\PSoC4/BLE.c **** };
  71:Generated_Source\PSoC4/BLE.c **** 
  72:Generated_Source\PSoC4/BLE.c **** CYBLE_GAPP_DISC_DATA_T cyBle_discoveryData =
  73:Generated_Source\PSoC4/BLE.c **** {
  74:Generated_Source\PSoC4/BLE.c ****     { 0x02u, 0x01u, 0x06u, 0x0Fu, 0x09u, 0x45u, 0x6Cu,
  75:Generated_Source\PSoC4/BLE.c ****     0x65u, 0x61u, 0x4Cu, 0x69u, 0x67u, 0x68u, 0x74u, 0x39u,
  76:Generated_Source\PSoC4/BLE.c ****     0x39u, 0x39u, 0x39u, 0x39u, 0x00u, 0x00u, 0x00u, 0x00u,
  77:Generated_Source\PSoC4/BLE.c ****     0x00u, 0x00u, 0x00u, 0x00u, 0x00u, 0x00u, 0x00u, 0x00u }, /* uint8 advertising_data[CYBLE_MAX_A
  78:Generated_Source\PSoC4/BLE.c ****     0x13u,      /* uint8 adv_data_length */
  79:Generated_Source\PSoC4/BLE.c **** };
  80:Generated_Source\PSoC4/BLE.c **** 
  81:Generated_Source\PSoC4/BLE.c **** CYBLE_GAPP_SCAN_RSP_DATA_T cyBle_scanRspData =
  82:Generated_Source\PSoC4/BLE.c **** {
  83:Generated_Source\PSoC4/BLE.c ****     { 0x0Fu, 0x09u, 0x45u, 0x6Cu, 0x65u, 0x61u, 0x4Cu,
  84:Generated_Source\PSoC4/BLE.c ****     0x69u, 0x67u, 0x68u, 0x74u, 0x39u, 0x39u, 0x39u, 0x39u,
  85:Generated_Source\PSoC4/BLE.c ****     0x39u, 0x02u, 0x0Au, 0x03u, 0x03u, 0x19u, 0x40u, 0x02u,
  86:Generated_Source\PSoC4/BLE.c ****     0x00u, 0x00u, 0x00u, 0x00u, 0x00u, 0x00u, 0x00u, 0x00u }, /* uint8 scan_rsp_data[CYBLE_MAX_SCAN
  87:Generated_Source\PSoC4/BLE.c ****     0x17u,      /* uint8 scan_rsp_data_length */
  88:Generated_Source\PSoC4/BLE.c **** };
  89:Generated_Source\PSoC4/BLE.c **** 
  90:Generated_Source\PSoC4/BLE.c **** /* This variable of type CYBLE_GAPP_DISC_MODE_INFO_T is present only when 
  91:Generated_Source\PSoC4/BLE.c ****    the BLE component is configured for Peripheral GAP role or Central and 
  92:Generated_Source\PSoC4/BLE.c ****    Peripheral GAP role. It contains the Advertisement settings and also the 
  93:Generated_Source\PSoC4/BLE.c ****    Advertisement and Scan response data parameters entered in the customizer.
  94:Generated_Source\PSoC4/BLE.c ****    This variable can be used by advanced users to change Advertisement settings,
  95:Generated_Source\PSoC4/BLE.c ****    Advertisement or Scan response data in runtime. 
  96:Generated_Source\PSoC4/BLE.c **** */
  97:Generated_Source\PSoC4/BLE.c **** CYBLE_GAPP_DISC_MODE_INFO_T cyBle_discoveryModeInfo =
  98:Generated_Source\PSoC4/BLE.c **** {
  99:Generated_Source\PSoC4/BLE.c ****     0x02u,      /* uint8 discMode */
 100:Generated_Source\PSoC4/BLE.c ****     &cyBle_discoveryParam,
 101:Generated_Source\PSoC4/BLE.c ****     &cyBle_discoveryData,
 102:Generated_Source\PSoC4/BLE.c ****     &cyBle_scanRspData,
 103:Generated_Source\PSoC4/BLE.c ****     0x0000u,    /* uint16 advTo */
 104:Generated_Source\PSoC4/BLE.c **** };
 105:Generated_Source\PSoC4/BLE.c **** 
 106:Generated_Source\PSoC4/BLE.c **** 
 107:Generated_Source\PSoC4/BLE.c **** #endif /* CYBLE_GAP_ROLE_PERIPHERAL || CYBLE_GAP_ROLE_BROADCASTER */
 108:Generated_Source\PSoC4/BLE.c **** 
 109:Generated_Source\PSoC4/BLE.c **** #if(CYBLE_GAP_ROLE_CENTRAL)
 110:Generated_Source\PSoC4/BLE.c ****     
 111:Generated_Source\PSoC4/BLE.c **** CYBLE_GAPC_CONN_PARAM_T cyBle_connectionParameters;
 112:Generated_Source\PSoC4/BLE.c **** 
 113:Generated_Source\PSoC4/BLE.c **** /* Connecting timeout is set to 30 seconds in CyBle_Init function. 
 114:Generated_Source\PSoC4/BLE.c ****    Not zero value starts timer in CyBle_GapcConnectDevice() API fucntion.
 115:Generated_Source\PSoC4/BLE.c **** */
 116:Generated_Source\PSoC4/BLE.c **** uint16 cyBle_connectingTimeout;
ARM GAS  C:\Users\Elea\AppData\Local\Temp\ccp943mU.s 			page 6


 117:Generated_Source\PSoC4/BLE.c ****     
 118:Generated_Source\PSoC4/BLE.c **** #endif /* CYBLE_GAP_ROLE_CENTRAL */
 119:Generated_Source\PSoC4/BLE.c **** 
 120:Generated_Source\PSoC4/BLE.c **** #if(CYBLE_GAP_ROLE_CENTRAL || CYBLE_GAP_ROLE_OBSERVER)
 121:Generated_Source\PSoC4/BLE.c ****     
 122:Generated_Source\PSoC4/BLE.c **** 
 123:Generated_Source\PSoC4/BLE.c ****     
 124:Generated_Source\PSoC4/BLE.c **** #endif /* CYBLE_GAP_ROLE_CENTRAL || CYBLE_GAP_ROLE_OBSERVER */
 125:Generated_Source\PSoC4/BLE.c **** 
 126:Generated_Source\PSoC4/BLE.c **** #if((CYBLE_GAP_ROLE_PERIPHERAL || CYBLE_GAP_ROLE_CENTRAL) && (CYBLE_BONDING_REQUIREMENT == CYBLE_BO
 127:Generated_Source\PSoC4/BLE.c **** 
 128:Generated_Source\PSoC4/BLE.c **** uint8 cyBle_peerBonding;
 129:Generated_Source\PSoC4/BLE.c **** uint8 cyBle_pendingFlashWrite;
 130:Generated_Source\PSoC4/BLE.c ****     
 131:Generated_Source\PSoC4/BLE.c **** #if(CYBLE_GATT_DB_CCCD_COUNT != 0u)
 132:Generated_Source\PSoC4/BLE.c ****     static uint8 cyBle_pendingFlashClearCccdHandle;
 133:Generated_Source\PSoC4/BLE.c **** #endif /* CYBLE_GATT_DB_CCCD_COUNT != 0u */
 134:Generated_Source\PSoC4/BLE.c ****     
 135:Generated_Source\PSoC4/BLE.c **** #endif  /* (CYBLE_BONDING_REQUIREMENT == CYBLE_BONDING_YES) */
 136:Generated_Source\PSoC4/BLE.c **** 
 137:Generated_Source\PSoC4/BLE.c **** CYBLE_CALLBACK_T CyBle_ApplCallback;
 138:Generated_Source\PSoC4/BLE.c **** CYBLE_GAP_BD_ADDR_T cyBle_deviceAddress = {{0x00u, 0x00u, 0x00u, 0x50u, 0xA0u, 0x00u}, 0x00u };
 139:Generated_Source\PSoC4/BLE.c **** CYBLE_GAP_BD_ADDR_T * cyBle_sflashDeviceAddress = CYBLE_SFLASH_DEVICE_ADDRESS_PTR;
 140:Generated_Source\PSoC4/BLE.c **** 
 141:Generated_Source\PSoC4/BLE.c **** 
 142:Generated_Source\PSoC4/BLE.c **** /******************************************************************************
 143:Generated_Source\PSoC4/BLE.c **** * Function Name: CyBle_Init
 144:Generated_Source\PSoC4/BLE.c **** ***************************************************************************//**
 145:Generated_Source\PSoC4/BLE.c **** *
 146:Generated_Source\PSoC4/BLE.c **** *   Initializes the component with the parameters set in the customizer.
 147:Generated_Source\PSoC4/BLE.c **** * 
 148:Generated_Source\PSoC4/BLE.c **** *  \return
 149:Generated_Source\PSoC4/BLE.c **** *   None
 150:Generated_Source\PSoC4/BLE.c **** * 
 151:Generated_Source\PSoC4/BLE.c **** ******************************************************************************/
 152:Generated_Source\PSoC4/BLE.c **** void CyBle_Init(void)
 153:Generated_Source\PSoC4/BLE.c **** {
 166              		.loc 1 153 0
 167              		.cfi_startproc
 168              		@ args = 0, pretend = 0, frame = 0
 169              		@ frame_needed = 1, uses_anonymous_args = 0
 170 0000 80B5     		push	{r7, lr}
 171              		.cfi_def_cfa_offset 8
 172              		.cfi_offset 7, -8
 173              		.cfi_offset 14, -4
 174 0002 00AF     		add	r7, sp, #0
 175              		.cfi_def_cfa_register 7
 154:Generated_Source\PSoC4/BLE.c ****     cyBle_eventHandlerFlag = 0u;
 176              		.loc 1 154 0
 177 0004 064B     		ldr	r3, .L2
 178 0006 0022     		movs	r2, #0
 179 0008 1A70     		strb	r2, [r3]
 155:Generated_Source\PSoC4/BLE.c ****     cyBle_busyStatus = CYBLE_STACK_STATE_FREE;
 180              		.loc 1 155 0
 181 000a 064B     		ldr	r3, .L2+4
 182 000c 0022     		movs	r2, #0
 183 000e 1A70     		strb	r2, [r3]
ARM GAS  C:\Users\Elea\AppData\Local\Temp\ccp943mU.s 			page 7


 156:Generated_Source\PSoC4/BLE.c **** 
 157:Generated_Source\PSoC4/BLE.c ****     #if(CYBLE_GAP_ROLE_PERIPHERAL || CYBLE_GAP_ROLE_BROADCASTER) 
 158:Generated_Source\PSoC4/BLE.c ****         cyBle_advertisingIntervalType = CYBLE_ADVERTISING_FAST; 
 184              		.loc 1 158 0
 185 0010 054B     		ldr	r3, .L2+8
 186 0012 0022     		movs	r2, #0
 187 0014 1A70     		strb	r2, [r3]
 159:Generated_Source\PSoC4/BLE.c ****     #endif /* (CYBLE_GAP_ROLE_PERIPHERAL || CYBLE_GAP_ROLE_BROADCASTER)  */
 160:Generated_Source\PSoC4/BLE.c ****     #if(CYBLE_GAP_ROLE_CENTRAL || CYBLE_GAP_ROLE_OBSERVER)
 161:Generated_Source\PSoC4/BLE.c ****         cyBle_scanningIntervalType = CYBLE_SCANNING_FAST; 
 162:Generated_Source\PSoC4/BLE.c ****     #endif /* (CYBLE_GAP_ROLE_CENTRAL || CYBLE_GAP_ROLE_OBSERVER) */
 163:Generated_Source\PSoC4/BLE.c ****         
 164:Generated_Source\PSoC4/BLE.c ****     /* Init default connection parameters. 
 165:Generated_Source\PSoC4/BLE.c ****        Application may change it before initiating a connection */
 166:Generated_Source\PSoC4/BLE.c ****     #if(CYBLE_GAP_ROLE_CENTRAL)
 167:Generated_Source\PSoC4/BLE.c ****         cyBle_connectionParameters.scanIntv = cyBle_discoveryInfo.scanIntv;
 168:Generated_Source\PSoC4/BLE.c ****         cyBle_connectionParameters.scanWindow = cyBle_discoveryInfo.scanWindow;
 169:Generated_Source\PSoC4/BLE.c ****         cyBle_connectionParameters.ownAddrType = cyBle_discoveryInfo.ownAddrType;
 170:Generated_Source\PSoC4/BLE.c ****         cyBle_connectionParameters.initiatorFilterPolicy = cyBle_discoveryInfo.scanFilterPolicy;
 171:Generated_Source\PSoC4/BLE.c ****         cyBle_connectionParameters.connIntvMin = CYBLE_GAPC_CONNECTION_INTERVAL_MIN;
 172:Generated_Source\PSoC4/BLE.c ****         cyBle_connectionParameters.connIntvMax = CYBLE_GAPC_CONNECTION_INTERVAL_MAX;
 173:Generated_Source\PSoC4/BLE.c ****         cyBle_connectionParameters.connLatency = CYBLE_GAPC_CONNECTION_SLAVE_LATENCY;
 174:Generated_Source\PSoC4/BLE.c ****         cyBle_connectionParameters.supervisionTO = CYBLE_GAPC_CONNECTION_TIME_OUT;
 175:Generated_Source\PSoC4/BLE.c ****         cyBle_connectionParameters.minCeLength = 0x0000u;
 176:Generated_Source\PSoC4/BLE.c ****         cyBle_connectionParameters.maxCeLength = 0xFFFFu;
 177:Generated_Source\PSoC4/BLE.c ****         
 178:Generated_Source\PSoC4/BLE.c ****         cyBle_connectingTimeout = CYBLE_GAPC_CONNECTING_TIMEOUT;
 179:Generated_Source\PSoC4/BLE.c ****     #endif /* CYBLE_GAP_ROLE_CENTRAL */
 180:Generated_Source\PSoC4/BLE.c **** 
 181:Generated_Source\PSoC4/BLE.c ****     CyBle_ServiceInit();
 188              		.loc 1 181 0
 189 0016 FFF7FEFF 		bl	CyBle_ServiceInit
 182:Generated_Source\PSoC4/BLE.c **** 
 183:Generated_Source\PSoC4/BLE.c ****     #if((CYBLE_GAP_ROLE_PERIPHERAL || CYBLE_GAP_ROLE_CENTRAL) && (CYBLE_BONDING_REQUIREMENT == CYBL
 184:Generated_Source\PSoC4/BLE.c ****         cyBle_pendingFlashWrite = 0u;
 185:Generated_Source\PSoC4/BLE.c ****         cyBle_peerBonding = CYBLE_GAP_BONDING_NONE;
 186:Generated_Source\PSoC4/BLE.c ****     #endif  /* (CYBLE_BONDING_REQUIREMENT == CYBLE_BONDING_YES) */
 187:Generated_Source\PSoC4/BLE.c **** 
 188:Generated_Source\PSoC4/BLE.c **** }
 190              		.loc 1 188 0
 191 001a C046     		nop
 192 001c BD46     		mov	sp, r7
 193              		@ sp needed
 194 001e 80BD     		pop	{r7, pc}
 195              	.L3:
 196              		.align	2
 197              	.L2:
 198 0020 00000000 		.word	cyBle_eventHandlerFlag
 199 0024 00000000 		.word	cyBle_busyStatus
 200 0028 00000000 		.word	cyBle_advertisingIntervalType
 201              		.cfi_endproc
 202              	.LFE2:
 203              		.size	CyBle_Init, .-CyBle_Init
 204              		.section	.text.CyBle_ServiceInit,"ax",%progbits
 205              		.align	2
 206              		.global	CyBle_ServiceInit
 207              		.code	16
ARM GAS  C:\Users\Elea\AppData\Local\Temp\ccp943mU.s 			page 8


 208              		.thumb_func
 209              		.type	CyBle_ServiceInit, %function
 210              	CyBle_ServiceInit:
 211              	.LFB3:
 189:Generated_Source\PSoC4/BLE.c **** 
 190:Generated_Source\PSoC4/BLE.c **** 
 191:Generated_Source\PSoC4/BLE.c **** /******************************************************************************
 192:Generated_Source\PSoC4/BLE.c **** * Function Name: CyBle_ServiceInit
 193:Generated_Source\PSoC4/BLE.c **** ***************************************************************************//**
 194:Generated_Source\PSoC4/BLE.c **** * 
 195:Generated_Source\PSoC4/BLE.c **** *  Initializes all included services.
 196:Generated_Source\PSoC4/BLE.c **** * 
 197:Generated_Source\PSoC4/BLE.c **** * \return
 198:Generated_Source\PSoC4/BLE.c **** *  None
 199:Generated_Source\PSoC4/BLE.c **** * 
 200:Generated_Source\PSoC4/BLE.c **** ******************************************************************************/
 201:Generated_Source\PSoC4/BLE.c **** void CyBle_ServiceInit(void)
 202:Generated_Source\PSoC4/BLE.c **** {
 212              		.loc 1 202 0
 213              		.cfi_startproc
 214              		@ args = 0, pretend = 0, frame = 0
 215              		@ frame_needed = 1, uses_anonymous_args = 0
 216 0000 80B5     		push	{r7, lr}
 217              		.cfi_def_cfa_offset 8
 218              		.cfi_offset 7, -8
 219              		.cfi_offset 14, -4
 220 0002 00AF     		add	r7, sp, #0
 221              		.cfi_def_cfa_register 7
 203:Generated_Source\PSoC4/BLE.c ****     #if(CYBLE_GATT_ROLE_CLIENT)
 204:Generated_Source\PSoC4/BLE.c ****         /* Check service range before clearing to support partial discovery */
 205:Generated_Source\PSoC4/BLE.c ****         if(cyBle_serverInfo[CYBLE_SRVI_GAP].range.startHandle == CYBLE_GATT_INVALID_ATTR_HANDLE_VAL
 206:Generated_Source\PSoC4/BLE.c ****         {
 207:Generated_Source\PSoC4/BLE.c ****             (void)memset(&cyBle_gapc, 0, sizeof(cyBle_gapc));
 208:Generated_Source\PSoC4/BLE.c ****         }
 209:Generated_Source\PSoC4/BLE.c ****         if(cyBle_serverInfo[CYBLE_SRVI_GATT].range.startHandle == CYBLE_GATT_INVALID_ATTR_HANDLE_VA
 210:Generated_Source\PSoC4/BLE.c ****         {
 211:Generated_Source\PSoC4/BLE.c ****             (void)memset(&cyBle_gattc, 0, sizeof(cyBle_gattc));
 212:Generated_Source\PSoC4/BLE.c ****         }
 213:Generated_Source\PSoC4/BLE.c ****     #endif /* CYBLE_GATT_ROLE_CLIENT */
 214:Generated_Source\PSoC4/BLE.c **** 
 215:Generated_Source\PSoC4/BLE.c ****    	#ifdef CYBLE_AIOS
 216:Generated_Source\PSoC4/BLE.c ****         CyBle_AiosInit();
 217:Generated_Source\PSoC4/BLE.c ****     #endif /* CYBLE_AIOS */
 218:Generated_Source\PSoC4/BLE.c **** 
 219:Generated_Source\PSoC4/BLE.c **** 	#ifdef CYBLE_ANCS
 220:Generated_Source\PSoC4/BLE.c ****         CyBle_AncsInit();
 221:Generated_Source\PSoC4/BLE.c ****     #endif /* CYBLE_ANCS */
 222:Generated_Source\PSoC4/BLE.c **** 	
 223:Generated_Source\PSoC4/BLE.c ****     #ifdef CYBLE_ANS
 224:Generated_Source\PSoC4/BLE.c ****         CyBle_AnsInit();
 225:Generated_Source\PSoC4/BLE.c ****     #endif /* CYBLE_ANS */
 226:Generated_Source\PSoC4/BLE.c ****     
 227:Generated_Source\PSoC4/BLE.c ****     #ifdef CYBLE_BAS
 228:Generated_Source\PSoC4/BLE.c ****         CyBle_BasInit();
 229:Generated_Source\PSoC4/BLE.c ****     #endif /* CYBLE_BAS */
 230:Generated_Source\PSoC4/BLE.c ****     
 231:Generated_Source\PSoC4/BLE.c ****     #ifdef CYBLE_BCS
ARM GAS  C:\Users\Elea\AppData\Local\Temp\ccp943mU.s 			page 9


 232:Generated_Source\PSoC4/BLE.c ****         CyBle_BcsInit();
 233:Generated_Source\PSoC4/BLE.c ****     #endif /* CYBLE_BCS */
 234:Generated_Source\PSoC4/BLE.c **** 
 235:Generated_Source\PSoC4/BLE.c ****     #ifdef CYBLE_BLS
 236:Generated_Source\PSoC4/BLE.c ****         CyBle_BlsInit();
 237:Generated_Source\PSoC4/BLE.c ****     #endif /* CYBLE_BLS */
 238:Generated_Source\PSoC4/BLE.c ****     
 239:Generated_Source\PSoC4/BLE.c ****     #ifdef CYBLE_BMS
 240:Generated_Source\PSoC4/BLE.c ****         CyBle_BmsInit();
 241:Generated_Source\PSoC4/BLE.c ****     #endif /* CYBLE_BMS */
 242:Generated_Source\PSoC4/BLE.c ****     
 243:Generated_Source\PSoC4/BLE.c ****     #ifdef CYBLE_CGMS
 244:Generated_Source\PSoC4/BLE.c ****         CyBle_CgmsInit();
 245:Generated_Source\PSoC4/BLE.c ****     #endif /* CYBLE_CGMS */
 246:Generated_Source\PSoC4/BLE.c **** 
 247:Generated_Source\PSoC4/BLE.c ****     #ifdef CYBLE_CPS
 248:Generated_Source\PSoC4/BLE.c ****         CyBle_CpsInit();
 249:Generated_Source\PSoC4/BLE.c ****     #endif /* CYBLE_CPS */
 250:Generated_Source\PSoC4/BLE.c **** 
 251:Generated_Source\PSoC4/BLE.c ****     #ifdef CYBLE_CSCS
 252:Generated_Source\PSoC4/BLE.c ****         CyBle_CscsInit();
 253:Generated_Source\PSoC4/BLE.c ****     #endif /* CYBLE_CSCS */
 254:Generated_Source\PSoC4/BLE.c ****     
 255:Generated_Source\PSoC4/BLE.c ****     #ifdef CYBLE_CTS
 256:Generated_Source\PSoC4/BLE.c ****         CyBle_CtsInit();
 257:Generated_Source\PSoC4/BLE.c ****     #endif /* CYBLE_CTS */
 258:Generated_Source\PSoC4/BLE.c **** 
 259:Generated_Source\PSoC4/BLE.c ****     #ifdef CYBLE_CUSTOM
 260:Generated_Source\PSoC4/BLE.c ****         CyBle_CustomInit();
 222              		.loc 1 260 0
 223 0004 FFF7FEFF 		bl	CyBle_CustomInit
 261:Generated_Source\PSoC4/BLE.c ****     #endif /* CYBLE_CUSTOM */
 262:Generated_Source\PSoC4/BLE.c **** 
 263:Generated_Source\PSoC4/BLE.c ****     #ifdef CYBLE_DIS
 264:Generated_Source\PSoC4/BLE.c ****         CyBle_DisInit();
 265:Generated_Source\PSoC4/BLE.c ****     #endif /* CYBLE_DIS */
 266:Generated_Source\PSoC4/BLE.c **** 
 267:Generated_Source\PSoC4/BLE.c ****     #ifdef CYBLE_ESS
 268:Generated_Source\PSoC4/BLE.c ****         CyBle_EssInit();
 269:Generated_Source\PSoC4/BLE.c ****     #endif /* CYBLE_ESS */
 270:Generated_Source\PSoC4/BLE.c ****     
 271:Generated_Source\PSoC4/BLE.c ****     #ifdef CYBLE_GLS
 272:Generated_Source\PSoC4/BLE.c ****         CyBle_GlsInit();
 273:Generated_Source\PSoC4/BLE.c ****     #endif /* CYBLE_GLS */
 274:Generated_Source\PSoC4/BLE.c ****     
 275:Generated_Source\PSoC4/BLE.c ****     #ifdef CYBLE_HIDS
 276:Generated_Source\PSoC4/BLE.c ****         CyBle_HidsInit();
 277:Generated_Source\PSoC4/BLE.c ****     #endif /* CYBLE_HIDS */
 278:Generated_Source\PSoC4/BLE.c **** 
 279:Generated_Source\PSoC4/BLE.c ****     #ifdef CYBLE_HPS
 280:Generated_Source\PSoC4/BLE.c ****         CyBle_HpsInit();
 281:Generated_Source\PSoC4/BLE.c ****     #endif /* CYBLE_HPS */
 282:Generated_Source\PSoC4/BLE.c **** 
 283:Generated_Source\PSoC4/BLE.c ****     #ifdef CYBLE_HRS
 284:Generated_Source\PSoC4/BLE.c ****         CyBle_HrsInit();
 285:Generated_Source\PSoC4/BLE.c ****     #endif /* CYBLE_HRS */
 286:Generated_Source\PSoC4/BLE.c ****     
ARM GAS  C:\Users\Elea\AppData\Local\Temp\ccp943mU.s 			page 10


 287:Generated_Source\PSoC4/BLE.c ****     #ifdef CYBLE_HTS
 288:Generated_Source\PSoC4/BLE.c ****         CyBle_HtsInit();
 289:Generated_Source\PSoC4/BLE.c ****     #endif /* CYBLE_RSCS */
 290:Generated_Source\PSoC4/BLE.c **** 
 291:Generated_Source\PSoC4/BLE.c ****     #ifdef CYBLE_IAS
 292:Generated_Source\PSoC4/BLE.c ****         CyBle_IasInit();
 293:Generated_Source\PSoC4/BLE.c ****     #endif /* CYBLE_IAS */
 294:Generated_Source\PSoC4/BLE.c **** 
 295:Generated_Source\PSoC4/BLE.c ****     #ifdef CYBLE_IPS
 296:Generated_Source\PSoC4/BLE.c ****         CyBle_IpsInit();
 297:Generated_Source\PSoC4/BLE.c ****     #endif /* CYBLE_IPS */
 298:Generated_Source\PSoC4/BLE.c ****     
 299:Generated_Source\PSoC4/BLE.c ****     #ifdef CYBLE_LLS
 300:Generated_Source\PSoC4/BLE.c ****         CyBle_LlsInit();
 301:Generated_Source\PSoC4/BLE.c ****     #endif /* CYBLE_LLS */
 302:Generated_Source\PSoC4/BLE.c **** 
 303:Generated_Source\PSoC4/BLE.c ****     #ifdef CYBLE_LNS
 304:Generated_Source\PSoC4/BLE.c ****         CyBle_LnsInit();
 305:Generated_Source\PSoC4/BLE.c ****     #endif /* CYBLE_LNS */
 306:Generated_Source\PSoC4/BLE.c ****     
 307:Generated_Source\PSoC4/BLE.c ****     #ifdef CYBLE_NDCS
 308:Generated_Source\PSoC4/BLE.c ****         CyBle_NdcsInit();
 309:Generated_Source\PSoC4/BLE.c ****     #endif /* CYBLE_NDCS */
 310:Generated_Source\PSoC4/BLE.c ****     
 311:Generated_Source\PSoC4/BLE.c ****     #ifdef CYBLE_PASS
 312:Generated_Source\PSoC4/BLE.c ****         CyBle_PassInit();
 313:Generated_Source\PSoC4/BLE.c ****     #endif /* CYBLE_PASS */
 314:Generated_Source\PSoC4/BLE.c ****     
 315:Generated_Source\PSoC4/BLE.c ****     #ifdef CYBLE_PLXS
 316:Generated_Source\PSoC4/BLE.c ****         CyBle_PlxsInit();
 317:Generated_Source\PSoC4/BLE.c ****     #endif /* CYBLE_PLXS */
 318:Generated_Source\PSoC4/BLE.c ****     
 319:Generated_Source\PSoC4/BLE.c ****     #ifdef CYBLE_RSCS
 320:Generated_Source\PSoC4/BLE.c ****         CyBle_RscsInit();
 321:Generated_Source\PSoC4/BLE.c ****     #endif /* CYBLE_RSCS */
 322:Generated_Source\PSoC4/BLE.c **** 
 323:Generated_Source\PSoC4/BLE.c ****     #ifdef CYBLE_RTUS
 324:Generated_Source\PSoC4/BLE.c ****         CyBle_RtusInit();
 325:Generated_Source\PSoC4/BLE.c ****     #endif /* CYBLE_RTUS */
 326:Generated_Source\PSoC4/BLE.c **** 
 327:Generated_Source\PSoC4/BLE.c ****     #ifdef CYBLE_SCPS
 328:Generated_Source\PSoC4/BLE.c ****         CyBle_ScpsInit();
 329:Generated_Source\PSoC4/BLE.c ****     #endif /* CYBLE_SCPS */
 330:Generated_Source\PSoC4/BLE.c ****     
 331:Generated_Source\PSoC4/BLE.c ****     #ifdef CYBLE_TPS
 332:Generated_Source\PSoC4/BLE.c ****         CyBle_TpsInit();
 333:Generated_Source\PSoC4/BLE.c ****     #endif /* CYBLE_TPS */
 334:Generated_Source\PSoC4/BLE.c ****     
 335:Generated_Source\PSoC4/BLE.c ****     #ifdef CYBLE_UDS
 336:Generated_Source\PSoC4/BLE.c ****         CyBle_UdsInit();
 337:Generated_Source\PSoC4/BLE.c ****     #endif /* CYBLE_UDS */
 338:Generated_Source\PSoC4/BLE.c **** 
 339:Generated_Source\PSoC4/BLE.c ****     #ifdef CYBLE_WPTS
 340:Generated_Source\PSoC4/BLE.c ****         CyBle_WptsInit();
 341:Generated_Source\PSoC4/BLE.c ****     #endif /* CYBLE_WPTS */
 342:Generated_Source\PSoC4/BLE.c **** 
 343:Generated_Source\PSoC4/BLE.c ****     #ifdef CYBLE_WSS
ARM GAS  C:\Users\Elea\AppData\Local\Temp\ccp943mU.s 			page 11


 344:Generated_Source\PSoC4/BLE.c ****         CyBle_WssInit();
 345:Generated_Source\PSoC4/BLE.c ****     #endif /* CYBLE_WSS */
 346:Generated_Source\PSoC4/BLE.c **** }
 224              		.loc 1 346 0
 225 0008 C046     		nop
 226 000a BD46     		mov	sp, r7
 227              		@ sp needed
 228 000c 80BD     		pop	{r7, pc}
 229              		.cfi_endproc
 230              	.LFE3:
 231              		.size	CyBle_ServiceInit, .-CyBle_ServiceInit
 232 000e C046     		.section	.rodata
 233              		.align	2
 234              	.LC0:
 235 0000 2400     		.short	36
 236 0002 03       		.byte	3
 237 0003 00       		.space	1
 238 0004 3000     		.short	48
 239 0006 01       		.byte	1
 240 0007 00       		.space	1
 241 0008 2800     		.short	40
 242 000a 02       		.byte	2
 243 000b 00       		.space	1
 244 000c 2400     		.short	36
 245 000e 01       		.byte	1
 246 000f 00       		.space	1
 247 0010 2400     		.short	36
 248 0012 01       		.byte	1
 249 0013 00       		.space	1
 250              		.section	.text.CyBle_Start,"ax",%progbits
 251              		.align	2
 252              		.global	CyBle_Start
 253              		.code	16
 254              		.thumb_func
 255              		.type	CyBle_Start, %function
 256              	CyBle_Start:
 257              	.LFB4:
 347:Generated_Source\PSoC4/BLE.c **** 
 348:Generated_Source\PSoC4/BLE.c **** 
 349:Generated_Source\PSoC4/BLE.c **** /******************************************************************************
 350:Generated_Source\PSoC4/BLE.c **** * Function Name: CyBle_Start
 351:Generated_Source\PSoC4/BLE.c **** ***************************************************************************//**
 352:Generated_Source\PSoC4/BLE.c **** * 
 353:Generated_Source\PSoC4/BLE.c **** *  This function initializes the BLE Stack, which consists of the BLE Stack 
 354:Generated_Source\PSoC4/BLE.c **** *  Manager, BLE Controller, and BLE Host modules. It takes care of initializing
 355:Generated_Source\PSoC4/BLE.c **** *  the Profile layer, schedulers, Timer and other platform related
 356:Generated_Source\PSoC4/BLE.c **** *  resources required for the BLE component. It also registers the callback 
 357:Generated_Source\PSoC4/BLE.c **** *  function for BLE events that will be registered in the BLE stack.
 358:Generated_Source\PSoC4/BLE.c **** * 
 359:Generated_Source\PSoC4/BLE.c **** *  Note that this function does not reset the BLE Stack.
 360:Generated_Source\PSoC4/BLE.c **** * 
 361:Generated_Source\PSoC4/BLE.c **** *  For HCI-Mode of operation, this function will not initialize the BLE Host 
 362:Generated_Source\PSoC4/BLE.c **** *  module.
 363:Generated_Source\PSoC4/BLE.c **** * 
 364:Generated_Source\PSoC4/BLE.c **** *  Calling this function results in the generation of CYBLE_EVT_STACK_ON event
 365:Generated_Source\PSoC4/BLE.c **** *  on successful initialization of the BLE Stack.
 366:Generated_Source\PSoC4/BLE.c **** * 
ARM GAS  C:\Users\Elea\AppData\Local\Temp\ccp943mU.s 			page 12


 367:Generated_Source\PSoC4/BLE.c **** *  \param callbackFunc: Event callback function to receive events from BLE stack.
 368:Generated_Source\PSoC4/BLE.c **** *   CYBLE_CALLBACK_T is a function pointer type.
 369:Generated_Source\PSoC4/BLE.c **** * 
 370:Generated_Source\PSoC4/BLE.c **** * \return
 371:Generated_Source\PSoC4/BLE.c **** *  CYBLE_API_RESULT_T : Return value indicates if the function succeeded or 
 372:Generated_Source\PSoC4/BLE.c **** *  failed. Following are the possible error codes.
 373:Generated_Source\PSoC4/BLE.c **** * 
 374:Generated_Source\PSoC4/BLE.c **** *   <table>
 375:Generated_Source\PSoC4/BLE.c **** *  	  <tr>
 376:Generated_Source\PSoC4/BLE.c **** *       <th>Error codes</th>
 377:Generated_Source\PSoC4/BLE.c **** *       <th>Description</th>
 378:Generated_Source\PSoC4/BLE.c **** *     </tr>
 379:Generated_Source\PSoC4/BLE.c **** *     <tr>
 380:Generated_Source\PSoC4/BLE.c **** *       <td>CYBLE_ERROR_OK</td>
 381:Generated_Source\PSoC4/BLE.c **** *       <td>On successful operation.</td>
 382:Generated_Source\PSoC4/BLE.c **** *     </tr>
 383:Generated_Source\PSoC4/BLE.c **** *     <tr>
 384:Generated_Source\PSoC4/BLE.c **** *       <td>CYBLE_ERROR_INVALID_PARAMETER</td>
 385:Generated_Source\PSoC4/BLE.c **** *       <td>On passing a NULL pointer to the function. 
 386:Generated_Source\PSoC4/BLE.c **** *		</td>
 387:Generated_Source\PSoC4/BLE.c **** *     </tr>
 388:Generated_Source\PSoC4/BLE.c **** *     <tr>
 389:Generated_Source\PSoC4/BLE.c **** *       <td>CYBLE_ERROR_REPEATED_ATTEMPTS</td>
 390:Generated_Source\PSoC4/BLE.c **** *       <td>On invoking this function more than once without calling CyBle_Shutdown() 
 391:Generated_Source\PSoC4/BLE.c **** *           function between calls to this function.</td>
 392:Generated_Source\PSoC4/BLE.c **** *     </tr>
 393:Generated_Source\PSoC4/BLE.c **** *     <tr>
 394:Generated_Source\PSoC4/BLE.c **** *       <td>CYBLE_ERROR_MEMORY_ALLOCATION_FAILED</td>
 395:Generated_Source\PSoC4/BLE.c **** *       <td>There is insufficient memory available.</td>
 396:Generated_Source\PSoC4/BLE.c **** *     </tr>
 397:Generated_Source\PSoC4/BLE.c **** *   </table>
 398:Generated_Source\PSoC4/BLE.c **** * 
 399:Generated_Source\PSoC4/BLE.c **** *  \globalvars
 400:Generated_Source\PSoC4/BLE.c **** *   The CyBle_initVar variable is used to indicate initial
 401:Generated_Source\PSoC4/BLE.c **** *   configuration of this component. The variable is initialized to zero (0u)
 402:Generated_Source\PSoC4/BLE.c **** *   and set to one (1u) the first time CyBle_Start() is called. This
 403:Generated_Source\PSoC4/BLE.c **** *   allows for component initialization without re-initialization in all
 404:Generated_Source\PSoC4/BLE.c **** *   subsequent calls to the CyBle_Start() routine.
 405:Generated_Source\PSoC4/BLE.c **** * 
 406:Generated_Source\PSoC4/BLE.c **** ******************************************************************************/
 407:Generated_Source\PSoC4/BLE.c **** CYBLE_API_RESULT_T CyBle_Start(CYBLE_CALLBACK_T callbackFunc)
 408:Generated_Source\PSoC4/BLE.c **** {
 258              		.loc 1 408 0
 259              		.cfi_startproc
 260              		@ args = 0, pretend = 0, frame = 64
 261              		@ frame_needed = 1, uses_anonymous_args = 0
 262 0000 B0B5     		push	{r4, r5, r7, lr}
 263              		.cfi_def_cfa_offset 16
 264              		.cfi_offset 4, -16
 265              		.cfi_offset 5, -12
 266              		.cfi_offset 7, -8
 267              		.cfi_offset 14, -4
 268 0002 94B0     		sub	sp, sp, #80
 269              		.cfi_def_cfa_offset 96
 270 0004 04AF     		add	r7, sp, #16
 271              		.cfi_def_cfa 7, 80
 272 0006 7860     		str	r0, [r7, #4]
ARM GAS  C:\Users\Elea\AppData\Local\Temp\ccp943mU.s 			page 13


 409:Generated_Source\PSoC4/BLE.c ****     CYBLE_API_RESULT_T apiResult = CYBLE_ERROR_OK;
 273              		.loc 1 409 0
 274 0008 3E23     		movs	r3, #62
 275 000a FB18     		adds	r3, r7, r3
 276 000c 0022     		movs	r2, #0
 277 000e 1A80     		strh	r2, [r3]
 410:Generated_Source\PSoC4/BLE.c ****     
 411:Generated_Source\PSoC4/BLE.c ****     #if(CYBLE_MODE_PROFILE)
 412:Generated_Source\PSoC4/BLE.c ****     
 413:Generated_Source\PSoC4/BLE.c ****     CYBLE_STK_APP_DATA_BUFF_T cyBle_stackDataBuff[CYBLE_STACK_APP_MIN_POOL] = 
 278              		.loc 1 413 0
 279 0010 2823     		movs	r3, #40
 280 0012 FA18     		adds	r2, r7, r3
 281 0014 3D4B     		ldr	r3, .L12
 282 0016 1000     		movs	r0, r2
 283 0018 1900     		movs	r1, r3
 284 001a 1423     		movs	r3, #20
 285 001c 1A00     		movs	r2, r3
 286 001e FFF7FEFF 		bl	memcpy
 414:Generated_Source\PSoC4/BLE.c ****     {
 415:Generated_Source\PSoC4/BLE.c ****         {CYBLE_GATT_MTU_PLUS_L2CAP_MEM_EXT, CYBLE_GATT_MTU_BUFF_COUNT + CYBLE_GATT_MAX_ATTR_BUFF_CO
 416:Generated_Source\PSoC4/BLE.c ****         {CYBLE_L2CAP_PSM_PLUS_L2CAP_MEM_EXT, CYBLE_L2CAP_PSM_COUNT},
 417:Generated_Source\PSoC4/BLE.c ****         {CYBLE_L2CAP_CBFC_PLUS_L2CAP_MEM_EXT, 2u * CYBLE_L2CAP_LOGICAL_CHANNEL_COUNT},
 418:Generated_Source\PSoC4/BLE.c ****         {CYBLE_L2CAP_MTU_PLUS_L2CAP_MEM_EXT, CYBLE_L2CAP_LOGICAL_CHANNEL_COUNT},
 419:Generated_Source\PSoC4/BLE.c ****         {CYBLE_L2CAP_MPS_PLUS_L2CAP_MEM_EXT, CYBLE_L2CAP_LOGICAL_CHANNEL_COUNT * (CYBLE_L2CAP_MTU_M
 420:Generated_Source\PSoC4/BLE.c ****     }; 
 421:Generated_Source\PSoC4/BLE.c **** 
 422:Generated_Source\PSoC4/BLE.c ****     #endif /* CYBLE_MODE_PROFILE */
 423:Generated_Source\PSoC4/BLE.c ****     
 424:Generated_Source\PSoC4/BLE.c ****     /* If not initialized then initialize all the required hardware and software */
 425:Generated_Source\PSoC4/BLE.c ****     if(cyBle_initVar == 0u)
 287              		.loc 1 425 0
 288 0022 3B4B     		ldr	r3, .L12+4
 289 0024 1B78     		ldrb	r3, [r3]
 290 0026 002B     		cmp	r3, #0
 291 0028 04D1     		bne	.L6
 426:Generated_Source\PSoC4/BLE.c ****     {
 427:Generated_Source\PSoC4/BLE.c ****         CyBle_Init();
 292              		.loc 1 427 0
 293 002a FFF7FEFF 		bl	CyBle_Init
 428:Generated_Source\PSoC4/BLE.c ****         cyBle_initVar = 1u;
 294              		.loc 1 428 0
 295 002e 384B     		ldr	r3, .L12+4
 296 0030 0122     		movs	r2, #1
 297 0032 1A70     		strb	r2, [r3]
 298              	.L6:
 429:Generated_Source\PSoC4/BLE.c ****     }
 430:Generated_Source\PSoC4/BLE.c ****     
 431:Generated_Source\PSoC4/BLE.c ****     if(callbackFunc != NULL)
 299              		.loc 1 431 0
 300 0034 7B68     		ldr	r3, [r7, #4]
 301 0036 002B     		cmp	r3, #0
 302 0038 5CD0     		beq	.L7
 432:Generated_Source\PSoC4/BLE.c ****     {
 433:Generated_Source\PSoC4/BLE.c ****         CyBle_ApplCallback = callbackFunc;
 303              		.loc 1 433 0
 304 003a 364B     		ldr	r3, .L12+8
ARM GAS  C:\Users\Elea\AppData\Local\Temp\ccp943mU.s 			page 14


 305 003c 7A68     		ldr	r2, [r7, #4]
 306 003e 1A60     		str	r2, [r3]
 434:Generated_Source\PSoC4/BLE.c ****         
 435:Generated_Source\PSoC4/BLE.c ****     #if(CYBLE_SHARING_MODE_EXPORT)
 436:Generated_Source\PSoC4/BLE.c ****         if(cyBle_stackMemoryRam == NULL)
 437:Generated_Source\PSoC4/BLE.c ****         {
 438:Generated_Source\PSoC4/BLE.c ****             cyBle_stackMemoryRam = (uint8 *)malloc(CYBLE_STACK_RAM_SIZE);
 439:Generated_Source\PSoC4/BLE.c ****             if(cyBle_stackMemoryRam == NULL)
 440:Generated_Source\PSoC4/BLE.c ****             {
 441:Generated_Source\PSoC4/BLE.c ****                 apiResult = CYBLE_ERROR_MEMORY_ALLOCATION_FAILED;
 442:Generated_Source\PSoC4/BLE.c ****             }
 443:Generated_Source\PSoC4/BLE.c ****         }
 444:Generated_Source\PSoC4/BLE.c ****     #endif /* CYBLE_SHARING_MODE_EXPORT */
 445:Generated_Source\PSoC4/BLE.c ****         if(apiResult == CYBLE_ERROR_OK)
 307              		.loc 1 445 0
 308 0040 3E23     		movs	r3, #62
 309 0042 FB18     		adds	r3, r7, r3
 310 0044 1B88     		ldrh	r3, [r3]
 311 0046 002B     		cmp	r3, #0
 312 0048 29D1     		bne	.L8
 313              	.LBB2:
 446:Generated_Source\PSoC4/BLE.c ****         {
 447:Generated_Source\PSoC4/BLE.c ****             CYBLE_DLE_CONFIG_PARAM_T dleConfigParams;
 448:Generated_Source\PSoC4/BLE.c ****             CYBLE_PRIVACY_1_2_CONFIG_PARAM_T privacyConfigParams;
 449:Generated_Source\PSoC4/BLE.c ****             CYBLE_STACK_CONFIG_PARAM_T stackConfig;
 450:Generated_Source\PSoC4/BLE.c ****             uint16 featureHeapReq;
 451:Generated_Source\PSoC4/BLE.c ****             
 452:Generated_Source\PSoC4/BLE.c ****             stackConfig.privacyConfig = &privacyConfigParams;
 314              		.loc 1 452 0
 315 004a 1023     		movs	r3, #16
 316 004c FB18     		adds	r3, r7, r3
 317 004e 1C22     		movs	r2, #28
 318 0050 BA18     		adds	r2, r7, r2
 319 0052 5A60     		str	r2, [r3, #4]
 453:Generated_Source\PSoC4/BLE.c ****             stackConfig.dleConfig = &dleConfigParams;
 320              		.loc 1 453 0
 321 0054 1023     		movs	r3, #16
 322 0056 FB18     		adds	r3, r7, r3
 323 0058 2022     		movs	r2, #32
 324 005a BA18     		adds	r2, r7, r2
 325 005c 1A60     		str	r2, [r3]
 454:Generated_Source\PSoC4/BLE.c ****             
 455:Generated_Source\PSoC4/BLE.c ****             /* Configure default BLE 4.1 features and enabled 4.2 features */
 456:Generated_Source\PSoC4/BLE.c ****             stackConfig.feature_mask = CYBLE_DLE_FEATURE | CYBLE_LL_PRIVACY_FEATURE | 
 326              		.loc 1 456 0
 327 005e 1023     		movs	r3, #16
 328 0060 FB18     		adds	r3, r7, r3
 329 0062 0022     		movs	r2, #0
 330 0064 1A81     		strh	r2, [r3, #8]
 457:Generated_Source\PSoC4/BLE.c ****                                        CYBLE_SECURE_CONN_FEATURE;
 458:Generated_Source\PSoC4/BLE.c **** 
 459:Generated_Source\PSoC4/BLE.c ****             /* Configure DLE */
 460:Generated_Source\PSoC4/BLE.c ****             dleConfigParams.dleMaxTxCapability = CYBLE_LL_MAX_TX_PAYLOAD_SIZE;
 331              		.loc 1 460 0
 332 0066 2023     		movs	r3, #32
 333 0068 FB18     		adds	r3, r7, r3
 334 006a 1B22     		movs	r2, #27
ARM GAS  C:\Users\Elea\AppData\Local\Temp\ccp943mU.s 			page 15


 335 006c 1A80     		strh	r2, [r3]
 461:Generated_Source\PSoC4/BLE.c ****             dleConfigParams.dleMaxRxCapability = CYBLE_LL_MAX_RX_PAYLOAD_SIZE;
 336              		.loc 1 461 0
 337 006e 2023     		movs	r3, #32
 338 0070 FB18     		adds	r3, r7, r3
 339 0072 1B22     		movs	r2, #27
 340 0074 5A80     		strh	r2, [r3, #2]
 462:Generated_Source\PSoC4/BLE.c ****             dleConfigParams.dleNumTxBuffer = CYBLE_LL_DEFAULT_NUM_ACL_TX_PACKETS;
 341              		.loc 1 462 0
 342 0076 2023     		movs	r3, #32
 343 0078 FB18     		adds	r3, r7, r3
 344 007a 0422     		movs	r2, #4
 345 007c 1A71     		strb	r2, [r3, #4]
 463:Generated_Source\PSoC4/BLE.c ****         #if(CYBLE_DLE_FEATURE_ENABLED)
 464:Generated_Source\PSoC4/BLE.c ****             CyBle_EnableDleFeature();              /* Enable DLE code in stack */
 465:Generated_Source\PSoC4/BLE.c ****         #endif /* CYBLE_DLE_FEATURE_ENABLED */
 466:Generated_Source\PSoC4/BLE.c ****         
 467:Generated_Source\PSoC4/BLE.c ****             /* Configure LL Privacy */
 468:Generated_Source\PSoC4/BLE.c ****             privacyConfigParams.resolvingListSize = CYBLE_MAX_RESOLVABLE_DEVICES;
 346              		.loc 1 468 0
 347 007e 1C23     		movs	r3, #28
 348 0080 FB18     		adds	r3, r7, r3
 349 0082 0022     		movs	r2, #0
 350 0084 1A70     		strb	r2, [r3]
 469:Generated_Source\PSoC4/BLE.c ****         #if(CYBLE_LL_PRIVACY_FEATURE_ENABLED)
 470:Generated_Source\PSoC4/BLE.c ****             CyBle_EnablePrivacyFeature();          /* Enable LL Privacy code in stack */
 471:Generated_Source\PSoC4/BLE.c ****         #endif /* CYBLE_LL_PRIVACY_FEATURE_ENABLED */
 472:Generated_Source\PSoC4/BLE.c **** 
 473:Generated_Source\PSoC4/BLE.c ****             apiResult = CyBle_StackSetFeatureConfig(&stackConfig, &featureHeapReq);
 351              		.loc 1 473 0
 352 0086 3E23     		movs	r3, #62
 353 0088 FC18     		adds	r4, r7, r3
 354 008a 0E23     		movs	r3, #14
 355 008c FA18     		adds	r2, r7, r3
 356 008e 1023     		movs	r3, #16
 357 0090 FB18     		adds	r3, r7, r3
 358 0092 1100     		movs	r1, r2
 359 0094 1800     		movs	r0, r3
 360 0096 FFF7FEFF 		bl	CyBle_StackSetFeatureConfig
 361 009a 0300     		movs	r3, r0
 362 009c 2380     		strh	r3, [r4]
 363              	.L8:
 364              	.LBE2:
 474:Generated_Source\PSoC4/BLE.c ****             }
 475:Generated_Source\PSoC4/BLE.c ****     
 476:Generated_Source\PSoC4/BLE.c ****         if(apiResult == CYBLE_ERROR_OK)
 365              		.loc 1 476 0
 366 009e 3E23     		movs	r3, #62
 367 00a0 FB18     		adds	r3, r7, r3
 368 00a2 1B88     		ldrh	r3, [r3]
 369 00a4 002B     		cmp	r3, #0
 370 00a6 29D1     		bne	.L10
 477:Generated_Source\PSoC4/BLE.c ****         {
 478:Generated_Source\PSoC4/BLE.c ****         
 479:Generated_Source\PSoC4/BLE.c ****         #if(CYBLE_MODE_PROFILE)
 480:Generated_Source\PSoC4/BLE.c ****             #if(CYBLE_BONDING_REQUIREMENT == CYBLE_BONDING_YES)
 481:Generated_Source\PSoC4/BLE.c ****                 apiResult = CyBle_StackInit(&CyBle_EventHandler, cyBle_stackMemoryRam, 
ARM GAS  C:\Users\Elea\AppData\Local\Temp\ccp943mU.s 			page 16


 482:Generated_Source\PSoC4/BLE.c ****                     CYBLE_STACK_RAM_SIZE - CYBLE_GATT_PREPARE_WRITE_BUFF_LEN, cyBle_stackDataBuff, 
 483:Generated_Source\PSoC4/BLE.c ****                     CYBLE_STACK_APP_MIN_POOL, cyBle_flashStorage.stackFlashptr, CYBLE_STACK_FLASH_S
 484:Generated_Source\PSoC4/BLE.c ****             #else
 485:Generated_Source\PSoC4/BLE.c ****                 apiResult = CyBle_StackInit(&CyBle_EventHandler, cyBle_stackMemoryRam, 
 371              		.loc 1 485 0
 372 00a8 3E23     		movs	r3, #62
 373 00aa FC18     		adds	r4, r7, r3
 374 00ac 2823     		movs	r3, #40
 375 00ae FD18     		adds	r5, r7, r3
 376 00b0 AE23     		movs	r3, #174
 377 00b2 1A01     		lsls	r2, r3, #4
 378 00b4 1849     		ldr	r1, .L12+12
 379 00b6 1948     		ldr	r0, .L12+16
 380 00b8 0023     		movs	r3, #0
 381 00ba 0293     		str	r3, [sp, #8]
 382 00bc 0023     		movs	r3, #0
 383 00be 0193     		str	r3, [sp, #4]
 384 00c0 0523     		movs	r3, #5
 385 00c2 0093     		str	r3, [sp]
 386 00c4 2B00     		movs	r3, r5
 387 00c6 FFF7FEFF 		bl	CyBle_StackInit
 388 00ca 0300     		movs	r3, r0
 389 00cc 2380     		strh	r3, [r4]
 486:Generated_Source\PSoC4/BLE.c ****                     CYBLE_STACK_RAM_SIZE - CYBLE_GATT_PREPARE_WRITE_BUFF_LEN, cyBle_stackDataBuff, 
 487:Generated_Source\PSoC4/BLE.c ****                     CYBLE_STACK_APP_MIN_POOL, NULL, 0u);
 488:Generated_Source\PSoC4/BLE.c ****             #endif  /* CYBLE_BONDING_REQUIREMENT == CYBLE_BONDING_YES */
 489:Generated_Source\PSoC4/BLE.c ****         #else /* HCI mode */
 490:Generated_Source\PSoC4/BLE.c ****             /* The following will perform preparation to use HCI over UART or over
 491:Generated_Source\PSoC4/BLE.c ****                software. But the following fucntions will not initialize the HCI
 492:Generated_Source\PSoC4/BLE.c ****                Transport. This will be done as part of Stack initialization, so
 493:Generated_Source\PSoC4/BLE.c ****                the functions should be called prior CyBle_StackInit().
 494:Generated_Source\PSoC4/BLE.c ****             */
 495:Generated_Source\PSoC4/BLE.c ****             #if (CYBLE_HCI_TYPE == CYBLE_HCI_OVER_UART)
 496:Generated_Source\PSoC4/BLE.c ****                 CyBle_HciUartTransportEnable();
 497:Generated_Source\PSoC4/BLE.c ****             #else
 498:Generated_Source\PSoC4/BLE.c ****                 CyBle_HciSoftTransportEnable();
 499:Generated_Source\PSoC4/BLE.c ****             #endif /* (CYBLE_HCI_TYPE == CYBLE_HCI_OVER_UART) */
 500:Generated_Source\PSoC4/BLE.c ****             /* This will initialize BLE stack for HCI mode operation */
 501:Generated_Source\PSoC4/BLE.c ****             apiResult = CyBle_StackInit(&CyBle_EventHandler, cyBle_stackMemoryRam, CYBLE_STACK_RAM_
 502:Generated_Source\PSoC4/BLE.c ****                 NULL, 0u, NULL, 0u);
 503:Generated_Source\PSoC4/BLE.c ****         #endif /* CYBLE_MODE_PROFILE */
 504:Generated_Source\PSoC4/BLE.c **** 
 505:Generated_Source\PSoC4/BLE.c ****             if(apiResult == CYBLE_ERROR_OK)
 390              		.loc 1 505 0
 391 00ce 3E23     		movs	r3, #62
 392 00d0 FB18     		adds	r3, r7, r3
 393 00d2 1B88     		ldrh	r3, [r3]
 394 00d4 002B     		cmp	r3, #0
 395 00d6 11D1     		bne	.L10
 506:Generated_Source\PSoC4/BLE.c ****             {
 507:Generated_Source\PSoC4/BLE.c ****                 CyBle_SetState(CYBLE_STATE_INITIALIZING);
 396              		.loc 1 507 0
 397 00d8 114B     		ldr	r3, .L12+20
 398 00da 0122     		movs	r2, #1
 399 00dc 1A70     		strb	r2, [r3]
 508:Generated_Source\PSoC4/BLE.c ****                 
 509:Generated_Source\PSoC4/BLE.c ****             #if (CYBLE_GATT_ROLE_CLIENT)
ARM GAS  C:\Users\Elea\AppData\Local\Temp\ccp943mU.s 			page 17


 510:Generated_Source\PSoC4/BLE.c ****                 CyBle_SetClientState(CYBLE_CLIENT_STATE_DISCONNECTED);
 511:Generated_Source\PSoC4/BLE.c ****             #endif /* CYBLE_GATT_ROLE_CLIENT */
 512:Generated_Source\PSoC4/BLE.c ****                 
 513:Generated_Source\PSoC4/BLE.c ****             #if(CYBLE_GATT_ROLE_SERVER)
 514:Generated_Source\PSoC4/BLE.c ****                 apiResult = CyBle_GattsDbRegister(cyBle_gattDB, CYBLE_GATT_DB_INDEX_COUNT, CYBLE_GA
 400              		.loc 1 514 0
 401 00de 3E23     		movs	r3, #62
 402 00e0 FC18     		adds	r4, r7, r3
 403 00e2 104B     		ldr	r3, .L12+24
 404 00e4 0F22     		movs	r2, #15
 405 00e6 2221     		movs	r1, #34
 406 00e8 1800     		movs	r0, r3
 407 00ea FFF7FEFF 		bl	CyBle_GattsDbRegister
 408 00ee 0300     		movs	r3, r0
 409 00f0 2380     		strh	r3, [r4]
 410 00f2 03E0     		b	.L10
 411              	.L7:
 515:Generated_Source\PSoC4/BLE.c ****             #endif /* CYBLE_GATT_ROLE_SERVER */
 516:Generated_Source\PSoC4/BLE.c ****             }
 517:Generated_Source\PSoC4/BLE.c ****         }
 518:Generated_Source\PSoC4/BLE.c ****     }
 519:Generated_Source\PSoC4/BLE.c ****     else
 520:Generated_Source\PSoC4/BLE.c ****     {
 521:Generated_Source\PSoC4/BLE.c ****         apiResult = CYBLE_ERROR_INVALID_PARAMETER;
 412              		.loc 1 521 0
 413 00f4 3E23     		movs	r3, #62
 414 00f6 FB18     		adds	r3, r7, r3
 415 00f8 0122     		movs	r2, #1
 416 00fa 1A80     		strh	r2, [r3]
 417              	.L10:
 522:Generated_Source\PSoC4/BLE.c ****     }
 523:Generated_Source\PSoC4/BLE.c **** 
 524:Generated_Source\PSoC4/BLE.c ****     return (apiResult);
 418              		.loc 1 524 0
 419 00fc 3E23     		movs	r3, #62
 420 00fe FB18     		adds	r3, r7, r3
 421 0100 1B88     		ldrh	r3, [r3]
 525:Generated_Source\PSoC4/BLE.c **** }
 422              		.loc 1 525 0
 423 0102 1800     		movs	r0, r3
 424 0104 BD46     		mov	sp, r7
 425 0106 10B0     		add	sp, sp, #64
 426              		@ sp needed
 427 0108 B0BD     		pop	{r4, r5, r7, pc}
 428              	.L13:
 429 010a C046     		.align	2
 430              	.L12:
 431 010c 00000000 		.word	.LC0
 432 0110 00000000 		.word	cyBle_initVar
 433 0114 00000000 		.word	CyBle_ApplCallback
 434 0118 00000000 		.word	cyBle_stackMemoryRam
 435 011c 00000000 		.word	CyBle_EventHandler
 436 0120 00000000 		.word	cyBle_state
 437 0124 00000000 		.word	cyBle_gattDB
 438              		.cfi_endproc
 439              	.LFE4:
 440              		.size	CyBle_Start, .-CyBle_Start
ARM GAS  C:\Users\Elea\AppData\Local\Temp\ccp943mU.s 			page 18


 441              		.section	.text.CyBle_Stop,"ax",%progbits
 442              		.align	2
 443              		.global	CyBle_Stop
 444              		.code	16
 445              		.thumb_func
 446              		.type	CyBle_Stop, %function
 447              	CyBle_Stop:
 448              	.LFB5:
 526:Generated_Source\PSoC4/BLE.c **** 
 527:Generated_Source\PSoC4/BLE.c **** 
 528:Generated_Source\PSoC4/BLE.c **** /******************************************************************************
 529:Generated_Source\PSoC4/BLE.c **** * Function Name: CyBle_Stop
 530:Generated_Source\PSoC4/BLE.c **** ***************************************************************************//**
 531:Generated_Source\PSoC4/BLE.c **** * 
 532:Generated_Source\PSoC4/BLE.c **** *  This function stops any ongoing operation in the BLE Stack and forces the 
 533:Generated_Source\PSoC4/BLE.c **** *  BLE Stack to shut down. The only function that can be called after calling
 534:Generated_Source\PSoC4/BLE.c **** *  this function is CyBle_Start(). 
 535:Generated_Source\PSoC4/BLE.c **** * 
 536:Generated_Source\PSoC4/BLE.c **** * \return
 537:Generated_Source\PSoC4/BLE.c **** *  None
 538:Generated_Source\PSoC4/BLE.c **** * 
 539:Generated_Source\PSoC4/BLE.c **** ******************************************************************************/
 540:Generated_Source\PSoC4/BLE.c **** void CyBle_Stop(void)
 541:Generated_Source\PSoC4/BLE.c **** {
 449              		.loc 1 541 0
 450              		.cfi_startproc
 451              		@ args = 0, pretend = 0, frame = 0
 452              		@ frame_needed = 1, uses_anonymous_args = 0
 453 0000 80B5     		push	{r7, lr}
 454              		.cfi_def_cfa_offset 8
 455              		.cfi_offset 7, -8
 456              		.cfi_offset 14, -4
 457 0002 00AF     		add	r7, sp, #0
 458              		.cfi_def_cfa_register 7
 542:Generated_Source\PSoC4/BLE.c ****     CyBle_Shutdown();                         /* Stop all ongoing activities */
 459              		.loc 1 542 0
 460 0004 FFF7FEFF 		bl	CyBle_Shutdown
 543:Generated_Source\PSoC4/BLE.c ****     CyBle_SetState(CYBLE_STATE_STOPPED);
 461              		.loc 1 543 0
 462 0008 024B     		ldr	r3, .L15
 463 000a 0022     		movs	r2, #0
 464 000c 1A70     		strb	r2, [r3]
 544:Generated_Source\PSoC4/BLE.c ****     #if(CYBLE_SHARING_MODE_EXPORT)
 545:Generated_Source\PSoC4/BLE.c ****         if(cyBle_stackMemoryRam != NULL)
 546:Generated_Source\PSoC4/BLE.c ****         {
 547:Generated_Source\PSoC4/BLE.c ****             free(cyBle_stackMemoryRam);
 548:Generated_Source\PSoC4/BLE.c ****         }
 549:Generated_Source\PSoC4/BLE.c ****     #endif /* CYBLE_SHARING_MODE_EXPORT */
 550:Generated_Source\PSoC4/BLE.c **** }
 465              		.loc 1 550 0
 466 000e C046     		nop
 467 0010 BD46     		mov	sp, r7
 468              		@ sp needed
 469 0012 80BD     		pop	{r7, pc}
 470              	.L16:
 471              		.align	2
 472              	.L15:
ARM GAS  C:\Users\Elea\AppData\Local\Temp\ccp943mU.s 			page 19


 473 0014 00000000 		.word	cyBle_state
 474              		.cfi_endproc
 475              	.LFE5:
 476              		.size	CyBle_Stop, .-CyBle_Stop
 477              		.section	.text.CyBle_GappStartAdvertisement,"ax",%progbits
 478              		.align	2
 479              		.global	CyBle_GappStartAdvertisement
 480              		.code	16
 481              		.thumb_func
 482              		.type	CyBle_GappStartAdvertisement, %function
 483              	CyBle_GappStartAdvertisement:
 484              	.LFB6:
 551:Generated_Source\PSoC4/BLE.c **** 
 552:Generated_Source\PSoC4/BLE.c **** 
 553:Generated_Source\PSoC4/BLE.c **** #if((CYBLE_GAP_ROLE_PERIPHERAL || CYBLE_GAP_ROLE_CENTRAL) && (CYBLE_BONDING_REQUIREMENT == CYBLE_BO
 554:Generated_Source\PSoC4/BLE.c **** 
 555:Generated_Source\PSoC4/BLE.c ****     
 556:Generated_Source\PSoC4/BLE.c **** /******************************************************************************
 557:Generated_Source\PSoC4/BLE.c **** * Function Name: CyBle_StoreBondingData
 558:Generated_Source\PSoC4/BLE.c **** ***************************************************************************//**
 559:Generated_Source\PSoC4/BLE.c **** * 
 560:Generated_Source\PSoC4/BLE.c **** *  This function writes the new bonding data from RAM to the dedicated Flash 
 561:Generated_Source\PSoC4/BLE.c **** *  location as defined by the component. It performs data comparing between RAM
 562:Generated_Source\PSoC4/BLE.c **** *  and Flash before writing to Flash. If there is no change between RAM and Flash
 563:Generated_Source\PSoC4/BLE.c **** *  data, then no write is performed. It writes only one flash row in one call.
 564:Generated_Source\PSoC4/BLE.c **** *  Application should keep calling this function till it return CYBLE_ERROR_OK. 
 565:Generated_Source\PSoC4/BLE.c **** *  This function is available only when Bonding requirement is selected in
 566:Generated_Source\PSoC4/BLE.c **** *  Security settings.    
 567:Generated_Source\PSoC4/BLE.c **** * 
 568:Generated_Source\PSoC4/BLE.c **** *  \param isForceWrite:  If value is set to 0, then stack will check if flash write 
 569:Generated_Source\PSoC4/BLE.c **** *                 is permissible. 
 570:Generated_Source\PSoC4/BLE.c **** *  
 571:Generated_Source\PSoC4/BLE.c **** * \return
 572:Generated_Source\PSoC4/BLE.c **** *  Return value is of type CYBLE_API_RESULT_T.
 573:Generated_Source\PSoC4/BLE.c **** *
 574:Generated_Source\PSoC4/BLE.c **** *   Errors codes                         | Description
 575:Generated_Source\PSoC4/BLE.c **** *   ----------------------------------   | ------------------------------------
 576:Generated_Source\PSoC4/BLE.c **** *   CYBLE_ERROR_OK                       | On successful operation
 577:Generated_Source\PSoC4/BLE.c **** *   CYBLE_ERROR_FLASH_WRITE_NOT_PERMITED | Flash Write is not complete
 578:Generated_Source\PSoC4/BLE.c **** *   CYBLE_ERROR_INVALID_PARAMETER        | Invalid input parameter  
 579:Generated_Source\PSoC4/BLE.c **** *   CYBLE_ERROR_FLASH_WRITE              | Error in flash Write	
 580:Generated_Source\PSoC4/BLE.c ****     
 581:Generated_Source\PSoC4/BLE.c **** *  \sideeffect
 582:Generated_Source\PSoC4/BLE.c **** *   For BLE devices with 128K of Flash memory this function will automatically 
 583:Generated_Source\PSoC4/BLE.c **** *   modify the clock settings for the device.
 584:Generated_Source\PSoC4/BLE.c **** *   Writing to flash requires changes to be done to the IMO (set to 48 MHz)
 585:Generated_Source\PSoC4/BLE.c **** *   and HFCLK (source set to IMO) settings. The configuration is restored before
 586:Generated_Source\PSoC4/BLE.c **** *   returning. This will impact the operation of most of the hardware in the
 587:Generated_Source\PSoC4/BLE.c **** *   device.
 588:Generated_Source\PSoC4/BLE.c **** * 
 589:Generated_Source\PSoC4/BLE.c **** *  \globalvars
 590:Generated_Source\PSoC4/BLE.c **** *   The cyBle_pendingFlashWrite variable is used to detect status
 591:Generated_Source\PSoC4/BLE.c **** *   of pending write to flash operation for stack data and CCCD.
 592:Generated_Source\PSoC4/BLE.c **** *   This function automatically clears pending bits after write operation 
 593:Generated_Source\PSoC4/BLE.c **** *   complete.
 594:Generated_Source\PSoC4/BLE.c **** *     
 595:Generated_Source\PSoC4/BLE.c **** ******************************************************************************/
ARM GAS  C:\Users\Elea\AppData\Local\Temp\ccp943mU.s 			page 20


 596:Generated_Source\PSoC4/BLE.c **** CYBLE_API_RESULT_T CyBle_StoreBondingData(uint8 isForceWrite)
 597:Generated_Source\PSoC4/BLE.c **** {
 598:Generated_Source\PSoC4/BLE.c ****     CYBLE_API_RESULT_T apiResult = CYBLE_ERROR_OK;
 599:Generated_Source\PSoC4/BLE.c ****     
 600:Generated_Source\PSoC4/BLE.c ****     /* Store Stack data */
 601:Generated_Source\PSoC4/BLE.c ****     if((cyBle_pendingFlashWrite & CYBLE_PENDING_STACK_FLASH_WRITE_BIT) != 0u)
 602:Generated_Source\PSoC4/BLE.c ****     {
 603:Generated_Source\PSoC4/BLE.c ****         apiResult = CyBle_StoreStackData(isForceWrite);
 604:Generated_Source\PSoC4/BLE.c ****         if(apiResult == CYBLE_ERROR_OK)
 605:Generated_Source\PSoC4/BLE.c ****         {
 606:Generated_Source\PSoC4/BLE.c ****             cyBle_pendingFlashWrite &= (uint8)~CYBLE_PENDING_STACK_FLASH_WRITE_BIT;
 607:Generated_Source\PSoC4/BLE.c ****             /* Change apiResult if there are more pending data to store */
 608:Generated_Source\PSoC4/BLE.c ****             if((cyBle_pendingFlashWrite & CYBLE_PENDING_CCCD_FLASH_WRITE_BIT) != 0u)
 609:Generated_Source\PSoC4/BLE.c ****             {
 610:Generated_Source\PSoC4/BLE.c ****                 apiResult = CYBLE_ERROR_FLASH_WRITE_NOT_PERMITED;
 611:Generated_Source\PSoC4/BLE.c ****             }
 612:Generated_Source\PSoC4/BLE.c ****         }
 613:Generated_Source\PSoC4/BLE.c ****     }
 614:Generated_Source\PSoC4/BLE.c **** #if(CYBLE_GATT_DB_CCCD_COUNT != 0u)
 615:Generated_Source\PSoC4/BLE.c ****     /* Store CCCD values */
 616:Generated_Source\PSoC4/BLE.c ****     if( ((apiResult == CYBLE_ERROR_OK) || (isForceWrite != 0u)) && 
 617:Generated_Source\PSoC4/BLE.c ****         ((cyBle_pendingFlashWrite & CYBLE_PENDING_CCCD_FLASH_WRITE_BIT) != 0u) &&
 618:Generated_Source\PSoC4/BLE.c ****         (cyBle_connHandle.bdHandle <= CYBLE_GAP_MAX_BONDED_DEVICE))
 619:Generated_Source\PSoC4/BLE.c ****     {
 620:Generated_Source\PSoC4/BLE.c ****         apiResult = CyBle_StoreAppData(cyBle_attValuesCCCD, cyBle_flashStorage.attValuesCCCDFlashMe
 621:Generated_Source\PSoC4/BLE.c ****                         cyBle_connHandle.bdHandle], CYBLE_GATT_DB_CCCD_COUNT, isForceWrite);
 622:Generated_Source\PSoC4/BLE.c ****         if(apiResult == CYBLE_ERROR_OK)
 623:Generated_Source\PSoC4/BLE.c ****         {
 624:Generated_Source\PSoC4/BLE.c ****             cyBle_pendingFlashWrite &= (uint8)~CYBLE_PENDING_CCCD_FLASH_WRITE_BIT;
 625:Generated_Source\PSoC4/BLE.c ****         }
 626:Generated_Source\PSoC4/BLE.c ****     }
 627:Generated_Source\PSoC4/BLE.c ****     /* Clear requested CCCD values */
 628:Generated_Source\PSoC4/BLE.c ****     if( ((apiResult == CYBLE_ERROR_OK) || (isForceWrite != 0u)) && 
 629:Generated_Source\PSoC4/BLE.c ****         ((cyBle_pendingFlashWrite & CYBLE_PENDING_CCCD_FLASH_CLEAR_MASK) != 0u) )
 630:Generated_Source\PSoC4/BLE.c ****     {
 631:Generated_Source\PSoC4/BLE.c ****         if((cyBle_pendingFlashWrite & CYBLE_PENDING_CCCD_FLASH_CLEAR_ALL_BIT) != 0u)
 632:Generated_Source\PSoC4/BLE.c ****         {
 633:Generated_Source\PSoC4/BLE.c ****             /* Remove cccd values for all bonded devices */
 634:Generated_Source\PSoC4/BLE.c ****             uint8 defaultValuesCCCD[CYBLE_GAP_MAX_BONDED_DEVICE + 1u][CYBLE_GATT_DB_CCCD_COUNT];
 635:Generated_Source\PSoC4/BLE.c ****             
 636:Generated_Source\PSoC4/BLE.c ****             (void)memset(defaultValuesCCCD, 0, sizeof(defaultValuesCCCD));
 637:Generated_Source\PSoC4/BLE.c **** 
 638:Generated_Source\PSoC4/BLE.c ****             apiResult = CyBle_StoreAppData((uint8 *)defaultValuesCCCD, 
 639:Generated_Source\PSoC4/BLE.c ****                 (const uint8 *)cyBle_flashStorage.attValuesCCCDFlashMemory, sizeof(defaultValuesCCC
 640:Generated_Source\PSoC4/BLE.c ****             if(apiResult == CYBLE_ERROR_OK)
 641:Generated_Source\PSoC4/BLE.c ****             {
 642:Generated_Source\PSoC4/BLE.c ****                 cyBle_pendingFlashWrite &= (uint8)~CYBLE_PENDING_CCCD_FLASH_CLEAR_ALL_BIT;
 643:Generated_Source\PSoC4/BLE.c ****             }
 644:Generated_Source\PSoC4/BLE.c ****         }
 645:Generated_Source\PSoC4/BLE.c ****         else /* Remove cccd values for particular device */
 646:Generated_Source\PSoC4/BLE.c ****         {
 647:Generated_Source\PSoC4/BLE.c ****             uint8 defaultValuesCCCD[CYBLE_GATT_DB_CCCD_COUNT] = {0u};
 648:Generated_Source\PSoC4/BLE.c ****             
 649:Generated_Source\PSoC4/BLE.c ****             apiResult = CyBle_StoreAppData(defaultValuesCCCD, cyBle_flashStorage.attValuesCCCDFlash
 650:Generated_Source\PSoC4/BLE.c ****                                     cyBle_pendingFlashClearCccdHandle], CYBLE_GATT_DB_CCCD_COUNT, i
 651:Generated_Source\PSoC4/BLE.c ****             if(apiResult == CYBLE_ERROR_OK)
 652:Generated_Source\PSoC4/BLE.c ****             {
ARM GAS  C:\Users\Elea\AppData\Local\Temp\ccp943mU.s 			page 21


 653:Generated_Source\PSoC4/BLE.c ****                 cyBle_pendingFlashWrite &= (uint8)~CYBLE_PENDING_CCCD_FLASH_CLEAR_BIT;
 654:Generated_Source\PSoC4/BLE.c ****             }
 655:Generated_Source\PSoC4/BLE.c ****         }
 656:Generated_Source\PSoC4/BLE.c ****     }
 657:Generated_Source\PSoC4/BLE.c **** #endif /* CYBLE_GATT_DB_CCCD_COUNT != 0u */
 658:Generated_Source\PSoC4/BLE.c ****     return(apiResult);
 659:Generated_Source\PSoC4/BLE.c **** }
 660:Generated_Source\PSoC4/BLE.c **** 
 661:Generated_Source\PSoC4/BLE.c **** 
 662:Generated_Source\PSoC4/BLE.c **** /******************************************************************************
 663:Generated_Source\PSoC4/BLE.c **** * Function Name: CyBle_GapRemoveBondedDevice
 664:Generated_Source\PSoC4/BLE.c **** ***************************************************************************//**
 665:Generated_Source\PSoC4/BLE.c **** * 
 666:Generated_Source\PSoC4/BLE.c **** *  This function marks the device untrusted. It removes the bonding information
 667:Generated_Source\PSoC4/BLE.c **** *  of the device including CCCD values. This function removes device from the
 668:Generated_Source\PSoC4/BLE.c **** *  white list also when autopopulate white list with bonded devices option is
 669:Generated_Source\PSoC4/BLE.c **** *  enabled.
 670:Generated_Source\PSoC4/BLE.c **** * 
 671:Generated_Source\PSoC4/BLE.c **** *  This function is available only when Bonding requirement is selected in
 672:Generated_Source\PSoC4/BLE.c **** *  Security settings.    
 673:Generated_Source\PSoC4/BLE.c **** *
 674:Generated_Source\PSoC4/BLE.c **** *  \param bdAddr: Pointer to peer device address, of type CYBLE_GAP_BD_ADDR_T.
 675:Generated_Source\PSoC4/BLE.c **** *                 If device address is set to 0, then all devices shall be
 676:Generated_Source\PSoC4/BLE.c **** *                 removed from trusted list and white list.
 677:Generated_Source\PSoC4/BLE.c **** *
 678:Generated_Source\PSoC4/BLE.c **** * \return
 679:Generated_Source\PSoC4/BLE.c **** *  CYBLE_API_RESULT_T : Return value indicates if the function succeeded or
 680:Generated_Source\PSoC4/BLE.c **** *  failed. Following are the possible error codes.
 681:Generated_Source\PSoC4/BLE.c **** *
 682:Generated_Source\PSoC4/BLE.c **** *   Errors codes                     | Description
 683:Generated_Source\PSoC4/BLE.c **** *   ---------------------------------| ------------------------------------
 684:Generated_Source\PSoC4/BLE.c **** *   CYBLE_ERROR_OK                   | On successful operation.
 685:Generated_Source\PSoC4/BLE.c **** *   CYBLE_ERROR_INVALID_PARAMETER    | On specifying NULL as input parameter for 'bdAddr'.
 686:Generated_Source\PSoC4/BLE.c **** *   CYBLE_ERROR_INVALID_OPERATION    | Whitelist is already in use or there is pending write to fla
 687:Generated_Source\PSoC4/BLE.c **** *   CYBLE_ERROR_NO_DEVICE_ENTITY     | Device does not exist in the bond list.
 688:Generated_Source\PSoC4/BLE.c **** *
 689:Generated_Source\PSoC4/BLE.c **** *  \globalvars
 690:Generated_Source\PSoC4/BLE.c **** *   The bdHandle is set in cyBle_pendingFlashWrite variable to indicate that
 691:Generated_Source\PSoC4/BLE.c **** *   data should be stored to flash by CyBle_StoreBondingData() afterwards. 
 692:Generated_Source\PSoC4/BLE.c **** *     
 693:Generated_Source\PSoC4/BLE.c **** ******************************************************************************/
 694:Generated_Source\PSoC4/BLE.c **** CYBLE_API_RESULT_T CyBle_GapRemoveBondedDevice(CYBLE_GAP_BD_ADDR_T* bdAddr)
 695:Generated_Source\PSoC4/BLE.c **** {
 696:Generated_Source\PSoC4/BLE.c ****     CYBLE_API_RESULT_T apiResult = CYBLE_ERROR_OK;
 697:Generated_Source\PSoC4/BLE.c ****     
 698:Generated_Source\PSoC4/BLE.c ****     if(cyBle_pendingFlashWrite == 0u)
 699:Generated_Source\PSoC4/BLE.c ****     {
 700:Generated_Source\PSoC4/BLE.c ****         
 701:Generated_Source\PSoC4/BLE.c ****     #if(CYBLE_GATT_DB_CCCD_COUNT != 0u)
 702:Generated_Source\PSoC4/BLE.c ****         /* Request to clear CCCD values which will be done by CyBle_StoreBondingData() */
 703:Generated_Source\PSoC4/BLE.c ****         uint8 bDevHandle;
 704:Generated_Source\PSoC4/BLE.c ****         CYBLE_GAP_BD_ADDR_T invalidBdAddr = {{0u,0u,0u,0u,0u,0u}, 0u};
 705:Generated_Source\PSoC4/BLE.c **** 
 706:Generated_Source\PSoC4/BLE.c ****         if(memcmp(((uint8 *) &(bdAddr->bdAddr)), ((uint8 *) &(invalidBdAddr.bdAddr)), CYBLE_GAP_BD_
 707:Generated_Source\PSoC4/BLE.c **** 	    {
 708:Generated_Source\PSoC4/BLE.c ****             /* Request to remove all bonded devices by CyBle_StoreBondingData() */
 709:Generated_Source\PSoC4/BLE.c ****             cyBle_pendingFlashWrite |= CYBLE_PENDING_CCCD_FLASH_CLEAR_ALL_BIT;
ARM GAS  C:\Users\Elea\AppData\Local\Temp\ccp943mU.s 			page 22


 710:Generated_Source\PSoC4/BLE.c ****         }
 711:Generated_Source\PSoC4/BLE.c ****         else
 712:Generated_Source\PSoC4/BLE.c ****         {
 713:Generated_Source\PSoC4/BLE.c ****             /* Get the BD handle from Address */
 714:Generated_Source\PSoC4/BLE.c ****             apiResult = CyBle_GapGetPeerBdHandle(&bDevHandle, bdAddr);
 715:Generated_Source\PSoC4/BLE.c ****             if(apiResult == CYBLE_ERROR_OK)
 716:Generated_Source\PSoC4/BLE.c ****             {
 717:Generated_Source\PSoC4/BLE.c ****                 /* Store BD handle to clear cccd values by CyBle_StoreBondingData() */
 718:Generated_Source\PSoC4/BLE.c ****                 cyBle_pendingFlashWrite |= CYBLE_PENDING_CCCD_FLASH_CLEAR_BIT;
 719:Generated_Source\PSoC4/BLE.c ****                 cyBle_pendingFlashClearCccdHandle = bDevHandle;
 720:Generated_Source\PSoC4/BLE.c ****             }
 721:Generated_Source\PSoC4/BLE.c ****         }
 722:Generated_Source\PSoC4/BLE.c ****     #endif /* CYBLE_GATT_DB_CCCD_COUNT != 0u */
 723:Generated_Source\PSoC4/BLE.c ****         if(apiResult == CYBLE_ERROR_OK)
 724:Generated_Source\PSoC4/BLE.c ****         {
 725:Generated_Source\PSoC4/BLE.c ****             apiResult = CyBle_GapRemoveDeviceFromWhiteList(bdAddr);
 726:Generated_Source\PSoC4/BLE.c ****         }
 727:Generated_Source\PSoC4/BLE.c ****     }
 728:Generated_Source\PSoC4/BLE.c ****     else
 729:Generated_Source\PSoC4/BLE.c ****     {
 730:Generated_Source\PSoC4/BLE.c ****         apiResult = CYBLE_ERROR_INVALID_OPERATION;
 731:Generated_Source\PSoC4/BLE.c ****     }
 732:Generated_Source\PSoC4/BLE.c ****     
 733:Generated_Source\PSoC4/BLE.c ****     return(apiResult);
 734:Generated_Source\PSoC4/BLE.c **** }
 735:Generated_Source\PSoC4/BLE.c **** 
 736:Generated_Source\PSoC4/BLE.c **** 
 737:Generated_Source\PSoC4/BLE.c **** #endif /* (CYBLE_GAP_ROLE_PERIPHERAL || CYBLE_GAP_ROLE_CENTRAL) && (CYBLE_BONDING_REQUIREMENT == CY
 738:Generated_Source\PSoC4/BLE.c **** 
 739:Generated_Source\PSoC4/BLE.c **** 
 740:Generated_Source\PSoC4/BLE.c **** #if(CYBLE_GAP_ROLE_PERIPHERAL || CYBLE_GAP_ROLE_BROADCASTER)
 741:Generated_Source\PSoC4/BLE.c **** 
 742:Generated_Source\PSoC4/BLE.c ****     /******************************************************************************
 743:Generated_Source\PSoC4/BLE.c ****     *  Function Name: CyBle_GappStartAdvertisement
 744:Generated_Source\PSoC4/BLE.c ****     ***************************************************************************//**
 745:Generated_Source\PSoC4/BLE.c ****     *     
 746:Generated_Source\PSoC4/BLE.c ****     *  This function is used to start the advertisement using the advertisement data 
 747:Generated_Source\PSoC4/BLE.c ****     *  set in the component customizer's GUI. After invoking this function, the 
 748:Generated_Source\PSoC4/BLE.c ****     *  device will be available for connection by the devices configured for GAP 
 749:Generated_Source\PSoC4/BLE.c ****     *  central role. It is only included if the device is configured for GAP 
 750:Generated_Source\PSoC4/BLE.c ****     *  Peripheral or GAP Peripheral + Central role.
 751:Generated_Source\PSoC4/BLE.c ****     *  
 752:Generated_Source\PSoC4/BLE.c ****     *  On start of advertisement, GAP Peripheral receives the
 753:Generated_Source\PSoC4/BLE.c ****     *  CYBLE_EVT_GAPP_ADVERTISEMENT_START_STOP event. The following events are 
 754:Generated_Source\PSoC4/BLE.c ****     *  possible on invoking this function:
 755:Generated_Source\PSoC4/BLE.c ****     *  
 756:Generated_Source\PSoC4/BLE.c ****     *  * CYBLE_EVT_GAP_DEVICE_CONNECTED - If the device connects to a GAP Central and 
 757:Generated_Source\PSoC4/BLE.c ****     *    Link Layer Privacy is disabled in component customizer.
 758:Generated_Source\PSoC4/BLE.c ****     *  * CYBLE_EVT_GAP_ENHANCE_CONN_COMPLETE - If the device connects to a GAP Central and 
 759:Generated_Source\PSoC4/BLE.c ****     *    Link Layer Privacy is enabled in component customizer.
 760:Generated_Source\PSoC4/BLE.c ****     *  * CYBLE_EVT_TIMEOUT: If no device in GAP Central mode connects to this 
 761:Generated_Source\PSoC4/BLE.c ****     *                       device within the specified timeout limit. Stack 
 762:Generated_Source\PSoC4/BLE.c ****     *                       automatically initiate stop advertising when Slow 
 763:Generated_Source\PSoC4/BLE.c ****     *                       advertising was initiated, or starts Slow advertising
 764:Generated_Source\PSoC4/BLE.c ****     *                       after Fast advertising timeout occur.
 765:Generated_Source\PSoC4/BLE.c ****     *  * CYBLE_EVT_GAPP_ADVERTISEMENT_START_STOP: If device started or stopped
 766:Generated_Source\PSoC4/BLE.c ****     *                                               advertising. Use CyBle_GetState()
ARM GAS  C:\Users\Elea\AppData\Local\Temp\ccp943mU.s 			page 23


 767:Generated_Source\PSoC4/BLE.c ****     *                                               to determine the state. Sequential 
 768:Generated_Source\PSoC4/BLE.c ****     *                                               advertising could be started when
 769:Generated_Source\PSoC4/BLE.c ****     *                                               CYBLE_STATE_DISCONNECTED state is
 770:Generated_Source\PSoC4/BLE.c ****     *                                               returned.
 771:Generated_Source\PSoC4/BLE.c ****     * 
 772:Generated_Source\PSoC4/BLE.c ****     *  \param advertisingIntervalType: Fast or slow advertising interval with timings
 773:Generated_Source\PSoC4/BLE.c ****     *                                 entered in Advertising settings section of the
 774:Generated_Source\PSoC4/BLE.c ****     *                                 customizer.
 775:Generated_Source\PSoC4/BLE.c ****     *  * CYBLE_ADVERTISING_FAST   0x00u
 776:Generated_Source\PSoC4/BLE.c ****     *  * CYBLE_ADVERTISING_SLOW   0x01u
 777:Generated_Source\PSoC4/BLE.c ****     *  * CYBLE_ADVERTISING_CUSTOM 0x02u
 778:Generated_Source\PSoC4/BLE.c ****     * 
 779:Generated_Source\PSoC4/BLE.c ****     * \return
 780:Generated_Source\PSoC4/BLE.c ****     *  CYBLE_API_RESULT_T : Return value indicates if the function succeeded or
 781:Generated_Source\PSoC4/BLE.c ****     *  failed. Following are the possible error codes.
 782:Generated_Source\PSoC4/BLE.c ****     * 
 783:Generated_Source\PSoC4/BLE.c ****     *   Errors codes                      |  Description
 784:Generated_Source\PSoC4/BLE.c ****     *   --------------------------------- |  --------------------------------
 785:Generated_Source\PSoC4/BLE.c ****     *   CYBLE_ERROR_OK                    |  On successful operation.
 786:Generated_Source\PSoC4/BLE.c ****     *   CYBLE_ERROR_INVALID_PARAMETER     |  On passing an invalid parameter.
 787:Generated_Source\PSoC4/BLE.c ****     *   CYBLE_ERROR_INVALID_STATE         |  On calling this function not in Disconnected state.
 788:Generated_Source\PSoC4/BLE.c ****     *
 789:Generated_Source\PSoC4/BLE.c ****     * 
 790:Generated_Source\PSoC4/BLE.c ****     *******************************************************************************/
 791:Generated_Source\PSoC4/BLE.c ****     CYBLE_API_RESULT_T CyBle_GappStartAdvertisement(uint8 advertisingIntervalType)
 792:Generated_Source\PSoC4/BLE.c ****     {
 485              		.loc 1 792 0
 486              		.cfi_startproc
 487              		@ args = 0, pretend = 0, frame = 16
 488              		@ frame_needed = 1, uses_anonymous_args = 0
 489 0000 90B5     		push	{r4, r7, lr}
 490              		.cfi_def_cfa_offset 12
 491              		.cfi_offset 4, -12
 492              		.cfi_offset 7, -8
 493              		.cfi_offset 14, -4
 494 0002 85B0     		sub	sp, sp, #20
 495              		.cfi_def_cfa_offset 32
 496 0004 00AF     		add	r7, sp, #0
 497              		.cfi_def_cfa_register 7
 498 0006 0200     		movs	r2, r0
 499 0008 FB1D     		adds	r3, r7, #7
 500 000a 1A70     		strb	r2, [r3]
 793:Generated_Source\PSoC4/BLE.c ****         CYBLE_API_RESULT_T apiResult;
 794:Generated_Source\PSoC4/BLE.c ****         
 795:Generated_Source\PSoC4/BLE.c ****         if(advertisingIntervalType > CYBLE_ADVERTISING_CUSTOM)
 501              		.loc 1 795 0
 502 000c FB1D     		adds	r3, r7, #7
 503 000e 1B78     		ldrb	r3, [r3]
 504 0010 022B     		cmp	r3, #2
 505 0012 04D9     		bls	.L18
 796:Generated_Source\PSoC4/BLE.c ****         {
 797:Generated_Source\PSoC4/BLE.c ****             apiResult = CYBLE_ERROR_INVALID_PARAMETER;
 506              		.loc 1 797 0
 507 0014 0E23     		movs	r3, #14
 508 0016 FB18     		adds	r3, r7, r3
 509 0018 0122     		movs	r2, #1
 510 001a 1A80     		strh	r2, [r3]
ARM GAS  C:\Users\Elea\AppData\Local\Temp\ccp943mU.s 			page 24


 511 001c 4BE0     		b	.L19
 512              	.L18:
 798:Generated_Source\PSoC4/BLE.c ****         }
 799:Generated_Source\PSoC4/BLE.c ****         else if((CYBLE_STATE_DISCONNECTED == CyBle_GetState()) && ((cyBle_eventHandlerFlag & CYBLE_
 513              		.loc 1 799 0
 514 001e 294B     		ldr	r3, .L25
 515 0020 1B78     		ldrb	r3, [r3]
 516 0022 042B     		cmp	r3, #4
 517 0024 42D1     		bne	.L20
 518              		.loc 1 799 0 is_stmt 0 discriminator 1
 519 0026 284B     		ldr	r3, .L25+4
 520 0028 1B78     		ldrb	r3, [r3]
 521 002a DBB2     		uxtb	r3, r3
 522 002c 1A00     		movs	r2, r3
 523 002e 0423     		movs	r3, #4
 524 0030 1340     		ands	r3, r2
 525 0032 3BD1     		bne	.L20
 800:Generated_Source\PSoC4/BLE.c ****         {   
 801:Generated_Source\PSoC4/BLE.c ****             if(advertisingIntervalType == CYBLE_ADVERTISING_FAST)
 526              		.loc 1 801 0 is_stmt 1
 527 0034 FB1D     		adds	r3, r7, #7
 528 0036 1B78     		ldrb	r3, [r3]
 529 0038 002B     		cmp	r3, #0
 530 003a 0CD1     		bne	.L21
 802:Generated_Source\PSoC4/BLE.c ****             {
 803:Generated_Source\PSoC4/BLE.c ****                 cyBle_discoveryModeInfo.advTo = CYBLE_FAST_ADV_TIMEOUT;
 531              		.loc 1 803 0
 532 003c 234B     		ldr	r3, .L25+8
 533 003e 0022     		movs	r2, #0
 534 0040 1A82     		strh	r2, [r3, #16]
 804:Generated_Source\PSoC4/BLE.c ****                 cyBle_discoveryModeInfo.advParam->advIntvMin = CYBLE_FAST_ADV_INT_MIN;
 535              		.loc 1 804 0
 536 0042 224B     		ldr	r3, .L25+8
 537 0044 5B68     		ldr	r3, [r3, #4]
 538 0046 2022     		movs	r2, #32
 539 0048 1A80     		strh	r2, [r3]
 805:Generated_Source\PSoC4/BLE.c ****                 cyBle_discoveryModeInfo.advParam->advIntvMax = CYBLE_FAST_ADV_INT_MAX;
 540              		.loc 1 805 0
 541 004a 204B     		ldr	r3, .L25+8
 542 004c 5B68     		ldr	r3, [r3, #4]
 543 004e C822     		movs	r2, #200
 544 0050 9200     		lsls	r2, r2, #2
 545 0052 5A80     		strh	r2, [r3, #2]
 546 0054 10E0     		b	.L22
 547              	.L21:
 806:Generated_Source\PSoC4/BLE.c ****             }
 807:Generated_Source\PSoC4/BLE.c ****             else if(advertisingIntervalType == CYBLE_ADVERTISING_SLOW)
 548              		.loc 1 807 0
 549 0056 FB1D     		adds	r3, r7, #7
 550 0058 1B78     		ldrb	r3, [r3]
 551 005a 012B     		cmp	r3, #1
 552 005c 0CD1     		bne	.L22
 808:Generated_Source\PSoC4/BLE.c ****             {
 809:Generated_Source\PSoC4/BLE.c ****                 cyBle_discoveryModeInfo.advTo = CYBLE_SLOW_ADV_TIMEOUT;
 553              		.loc 1 809 0
 554 005e 1B4B     		ldr	r3, .L25+8
 555 0060 9622     		movs	r2, #150
ARM GAS  C:\Users\Elea\AppData\Local\Temp\ccp943mU.s 			page 25


 556 0062 1A82     		strh	r2, [r3, #16]
 810:Generated_Source\PSoC4/BLE.c ****                 cyBle_discoveryModeInfo.advParam->advIntvMin = CYBLE_SLOW_ADV_INT_MIN;
 557              		.loc 1 810 0
 558 0064 194B     		ldr	r3, .L25+8
 559 0066 5B68     		ldr	r3, [r3, #4]
 560 0068 C822     		movs	r2, #200
 561 006a D200     		lsls	r2, r2, #3
 562 006c 1A80     		strh	r2, [r3]
 811:Generated_Source\PSoC4/BLE.c ****                 cyBle_discoveryModeInfo.advParam->advIntvMax = CYBLE_SLOW_ADV_INT_MAX;
 563              		.loc 1 811 0
 564 006e 174B     		ldr	r3, .L25+8
 565 0070 5B68     		ldr	r3, [r3, #4]
 566 0072 8022     		movs	r2, #128
 567 0074 D201     		lsls	r2, r2, #7
 568 0076 5A80     		strh	r2, [r3, #2]
 569              	.L22:
 812:Generated_Source\PSoC4/BLE.c ****             }       
 813:Generated_Source\PSoC4/BLE.c ****             else /* Do not update advertising intervals */
 814:Generated_Source\PSoC4/BLE.c ****             {
 815:Generated_Source\PSoC4/BLE.c ****             }
 816:Generated_Source\PSoC4/BLE.c ****             cyBle_advertisingIntervalType = advertisingIntervalType;
 570              		.loc 1 816 0
 571 0078 154B     		ldr	r3, .L25+12
 572 007a FA1D     		adds	r2, r7, #7
 573 007c 1278     		ldrb	r2, [r2]
 574 007e 1A70     		strb	r2, [r3]
 817:Generated_Source\PSoC4/BLE.c ****             apiResult = CyBle_GappEnterDiscoveryMode(&cyBle_discoveryModeInfo);
 575              		.loc 1 817 0
 576 0080 0E23     		movs	r3, #14
 577 0082 FC18     		adds	r4, r7, r3
 578 0084 114B     		ldr	r3, .L25+8
 579 0086 1800     		movs	r0, r3
 580 0088 FFF7FEFF 		bl	CyBle_GappEnterDiscoveryMode
 581 008c 0300     		movs	r3, r0
 582 008e 2380     		strh	r3, [r4]
 818:Generated_Source\PSoC4/BLE.c ****         
 819:Generated_Source\PSoC4/BLE.c ****             if(apiResult == CYBLE_ERROR_OK)
 583              		.loc 1 819 0
 584 0090 0E23     		movs	r3, #14
 585 0092 FB18     		adds	r3, r7, r3
 586 0094 1B88     		ldrh	r3, [r3]
 587 0096 002B     		cmp	r3, #0
 588 0098 0DD1     		bne	.L19
 820:Generated_Source\PSoC4/BLE.c ****             {
 821:Generated_Source\PSoC4/BLE.c ****                 cyBle_eventHandlerFlag |= CYBLE_START_FLAG;
 589              		.loc 1 821 0
 590 009a 0B4B     		ldr	r3, .L25+4
 591 009c 1B78     		ldrb	r3, [r3]
 592 009e DBB2     		uxtb	r3, r3
 593 00a0 0422     		movs	r2, #4
 594 00a2 1343     		orrs	r3, r2
 595 00a4 DAB2     		uxtb	r2, r3
 596 00a6 084B     		ldr	r3, .L25+4
 597 00a8 1A70     		strb	r2, [r3]
 819:Generated_Source\PSoC4/BLE.c ****             {
 598              		.loc 1 819 0
 599 00aa 04E0     		b	.L19
ARM GAS  C:\Users\Elea\AppData\Local\Temp\ccp943mU.s 			page 26


 600              	.L20:
 822:Generated_Source\PSoC4/BLE.c ****             }
 823:Generated_Source\PSoC4/BLE.c ****         }
 824:Generated_Source\PSoC4/BLE.c ****         else
 825:Generated_Source\PSoC4/BLE.c ****         {
 826:Generated_Source\PSoC4/BLE.c ****             apiResult = CYBLE_ERROR_INVALID_STATE;
 601              		.loc 1 826 0
 602 00ac 0E23     		movs	r3, #14
 603 00ae FB18     		adds	r3, r7, r3
 604 00b0 0422     		movs	r2, #4
 605 00b2 FF32     		adds	r2, r2, #255
 606 00b4 1A80     		strh	r2, [r3]
 607              	.L19:
 827:Generated_Source\PSoC4/BLE.c ****         }
 828:Generated_Source\PSoC4/BLE.c **** 
 829:Generated_Source\PSoC4/BLE.c ****         return (apiResult);
 608              		.loc 1 829 0
 609 00b6 0E23     		movs	r3, #14
 610 00b8 FB18     		adds	r3, r7, r3
 611 00ba 1B88     		ldrh	r3, [r3]
 830:Generated_Source\PSoC4/BLE.c ****     }
 612              		.loc 1 830 0
 613 00bc 1800     		movs	r0, r3
 614 00be BD46     		mov	sp, r7
 615 00c0 05B0     		add	sp, sp, #20
 616              		@ sp needed
 617 00c2 90BD     		pop	{r4, r7, pc}
 618              	.L26:
 619              		.align	2
 620              	.L25:
 621 00c4 00000000 		.word	cyBle_state
 622 00c8 00000000 		.word	cyBle_eventHandlerFlag
 623 00cc 00000000 		.word	cyBle_discoveryModeInfo
 624 00d0 00000000 		.word	cyBle_advertisingIntervalType
 625              		.cfi_endproc
 626              	.LFE6:
 627              		.size	CyBle_GappStartAdvertisement, .-CyBle_GappStartAdvertisement
 628              		.section	.text.CyBle_GappStopAdvertisement,"ax",%progbits
 629              		.align	2
 630              		.global	CyBle_GappStopAdvertisement
 631              		.code	16
 632              		.thumb_func
 633              		.type	CyBle_GappStopAdvertisement, %function
 634              	CyBle_GappStopAdvertisement:
 635              	.LFB7:
 831:Generated_Source\PSoC4/BLE.c **** 
 832:Generated_Source\PSoC4/BLE.c ****     
 833:Generated_Source\PSoC4/BLE.c ****     /******************************************************************************
 834:Generated_Source\PSoC4/BLE.c ****     * Function Name: CyBle_GappStopAdvertisement
 835:Generated_Source\PSoC4/BLE.c ****     ***************************************************************************//**
 836:Generated_Source\PSoC4/BLE.c ****     * 
 837:Generated_Source\PSoC4/BLE.c ****     *   This function can be used to exit from discovery mode. After the execution 
 838:Generated_Source\PSoC4/BLE.c ****     *   of this function, there will no longer be any advertisements. On stopping 
 839:Generated_Source\PSoC4/BLE.c ****     *   advertising, GAP Peripheral receives CYBLE_EVT_GAPP_ADVERTISEMENT_START_STOP
 840:Generated_Source\PSoC4/BLE.c ****     *   event. It is expected that the application layer tracks the function call 
 841:Generated_Source\PSoC4/BLE.c ****     *   performed before occurrence of this event as this event can occur on making 
 842:Generated_Source\PSoC4/BLE.c ****     *   a call to Cy_BleGappStartAdvertisement(), CyBle_GappEnterDiscoveryMode(), 
ARM GAS  C:\Users\Elea\AppData\Local\Temp\ccp943mU.s 			page 27


 843:Generated_Source\PSoC4/BLE.c ****     *   or CyBle_GappStartAdvertisement() functions as well.
 844:Generated_Source\PSoC4/BLE.c ****     *   
 845:Generated_Source\PSoC4/BLE.c ****     *   The following event occurs on invoking this function:
 846:Generated_Source\PSoC4/BLE.c ****     *   * CYBLE_EVT_GAPP_ADVERTISEMENT_START_STOP
 847:Generated_Source\PSoC4/BLE.c ****     * 
 848:Generated_Source\PSoC4/BLE.c ****     *  \return
 849:Generated_Source\PSoC4/BLE.c ****     *   None
 850:Generated_Source\PSoC4/BLE.c ****     * 
 851:Generated_Source\PSoC4/BLE.c ****     *******************************************************************************/
 852:Generated_Source\PSoC4/BLE.c ****     void CyBle_GappStopAdvertisement(void)
 853:Generated_Source\PSoC4/BLE.c ****     {
 636              		.loc 1 853 0
 637              		.cfi_startproc
 638              		@ args = 0, pretend = 0, frame = 0
 639              		@ frame_needed = 1, uses_anonymous_args = 0
 640 0000 80B5     		push	{r7, lr}
 641              		.cfi_def_cfa_offset 8
 642              		.cfi_offset 7, -8
 643              		.cfi_offset 14, -4
 644 0002 00AF     		add	r7, sp, #0
 645              		.cfi_def_cfa_register 7
 854:Generated_Source\PSoC4/BLE.c ****         CyBle_GappExitDiscoveryMode();
 646              		.loc 1 854 0
 647 0004 FFF7FEFF 		bl	CyBle_GappExitDiscoveryMode
 855:Generated_Source\PSoC4/BLE.c ****         cyBle_eventHandlerFlag |= CYBLE_STOP_FLAG;
 648              		.loc 1 855 0
 649 0008 054B     		ldr	r3, .L28
 650 000a 1B78     		ldrb	r3, [r3]
 651 000c DBB2     		uxtb	r3, r3
 652 000e 0822     		movs	r2, #8
 653 0010 1343     		orrs	r3, r2
 654 0012 DAB2     		uxtb	r2, r3
 655 0014 024B     		ldr	r3, .L28
 656 0016 1A70     		strb	r2, [r3]
 856:Generated_Source\PSoC4/BLE.c ****     }
 657              		.loc 1 856 0
 658 0018 C046     		nop
 659 001a BD46     		mov	sp, r7
 660              		@ sp needed
 661 001c 80BD     		pop	{r7, pc}
 662              	.L29:
 663 001e C046     		.align	2
 664              	.L28:
 665 0020 00000000 		.word	cyBle_eventHandlerFlag
 666              		.cfi_endproc
 667              	.LFE7:
 668              		.size	CyBle_GappStopAdvertisement, .-CyBle_GappStopAdvertisement
 669              		.section	.text.CyBle_ChangeAdDeviceAddress,"ax",%progbits
 670              		.align	2
 671              		.global	CyBle_ChangeAdDeviceAddress
 672              		.code	16
 673              		.thumb_func
 674              		.type	CyBle_ChangeAdDeviceAddress, %function
 675              	CyBle_ChangeAdDeviceAddress:
 676              	.LFB8:
 857:Generated_Source\PSoC4/BLE.c ****     
 858:Generated_Source\PSoC4/BLE.c ****     
ARM GAS  C:\Users\Elea\AppData\Local\Temp\ccp943mU.s 			page 28


 859:Generated_Source\PSoC4/BLE.c ****     /******************************************************************************
 860:Generated_Source\PSoC4/BLE.c ****     * Function Name: CyBle_ChangeAdDeviceAddress
 861:Generated_Source\PSoC4/BLE.c ****     ***************************************************************************//**
 862:Generated_Source\PSoC4/BLE.c ****     * 
 863:Generated_Source\PSoC4/BLE.c ****     *  This function is used to set the Bluetooth device address into the 
 864:Generated_Source\PSoC4/BLE.c ****     *  advertisement or scan response data structure.
 865:Generated_Source\PSoC4/BLE.c ****     * 
 866:Generated_Source\PSoC4/BLE.c ****     *  \param bdAddr: Bluetooth Device address. The variable is of type CYBLE_GAP_BD_ADDR_T
 867:Generated_Source\PSoC4/BLE.c ****     *  \param dest: 0 - selects advertisement structure, not zero value selects scan 
 868:Generated_Source\PSoC4/BLE.c ****     *               response structure.
 869:Generated_Source\PSoC4/BLE.c ****     * 
 870:Generated_Source\PSoC4/BLE.c ****     * \return
 871:Generated_Source\PSoC4/BLE.c ****     *  None
 872:Generated_Source\PSoC4/BLE.c ****     *  
 873:Generated_Source\PSoC4/BLE.c ****     *******************************************************************************/
 874:Generated_Source\PSoC4/BLE.c ****     void CyBle_ChangeAdDeviceAddress(const CYBLE_GAP_BD_ADDR_T* bdAddr, uint8 dest)
 875:Generated_Source\PSoC4/BLE.c ****     {
 677              		.loc 1 875 0
 678              		.cfi_startproc
 679              		@ args = 0, pretend = 0, frame = 16
 680              		@ frame_needed = 1, uses_anonymous_args = 0
 681 0000 80B5     		push	{r7, lr}
 682              		.cfi_def_cfa_offset 8
 683              		.cfi_offset 7, -8
 684              		.cfi_offset 14, -4
 685 0002 84B0     		sub	sp, sp, #16
 686              		.cfi_def_cfa_offset 24
 687 0004 00AF     		add	r7, sp, #0
 688              		.cfi_def_cfa_register 7
 689 0006 7860     		str	r0, [r7, #4]
 690 0008 0A00     		movs	r2, r1
 691 000a FB1C     		adds	r3, r7, #3
 692 000c 1A70     		strb	r2, [r3]
 876:Generated_Source\PSoC4/BLE.c ****         uint8 i;
 877:Generated_Source\PSoC4/BLE.c ****         uint8 *destBuffer = NULL;
 693              		.loc 1 877 0
 694 000e 0023     		movs	r3, #0
 695 0010 BB60     		str	r3, [r7, #8]
 878:Generated_Source\PSoC4/BLE.c ****         
 879:Generated_Source\PSoC4/BLE.c ****         if(dest == 0u)      /* Destination - advertising structure */
 880:Generated_Source\PSoC4/BLE.c ****         {
 881:Generated_Source\PSoC4/BLE.c ****             #ifdef CYBLE_ADV_PKT_INDEX_BLUETOOTH_DEVICE_ADDRESS
 882:Generated_Source\PSoC4/BLE.c ****                 destBuffer = &cyBle_discoveryData.advData[CYBLE_ADV_PKT_INDEX_BLUETOOTH_DEVICE_ADDR
 883:Generated_Source\PSoC4/BLE.c ****             #endif /* CYBLE_ADV_PKT_INDEX_BLUETOOTH_DEVICE_ADDRESS */
 884:Generated_Source\PSoC4/BLE.c ****         }
 885:Generated_Source\PSoC4/BLE.c ****         else                /* Destination - scan response structure */
 886:Generated_Source\PSoC4/BLE.c ****         {
 887:Generated_Source\PSoC4/BLE.c ****             #ifdef CYBLE_SCN_PKT_INDEX_BLUETOOTH_DEVICE_ADDRESS
 888:Generated_Source\PSoC4/BLE.c ****                 destBuffer = &cyBle_scanRspData.scanRspData[CYBLE_SCN_PKT_INDEX_BLUETOOTH_DEVICE_AD
 889:Generated_Source\PSoC4/BLE.c ****             #endif /* CYBLE_SCN_PKT_INDEX_BLUETOOTH_DEVICE_ADDRESS */    
 890:Generated_Source\PSoC4/BLE.c ****         }
 891:Generated_Source\PSoC4/BLE.c ****         
 892:Generated_Source\PSoC4/BLE.c ****         if(destBuffer != NULL)
 696              		.loc 1 892 0
 697 0012 BB68     		ldr	r3, [r7, #8]
 698 0014 002B     		cmp	r3, #0
 699 0016 20D0     		beq	.L34
ARM GAS  C:\Users\Elea\AppData\Local\Temp\ccp943mU.s 			page 29


 893:Generated_Source\PSoC4/BLE.c ****         {
 894:Generated_Source\PSoC4/BLE.c ****             /* Update Device Address type */
 895:Generated_Source\PSoC4/BLE.c ****             destBuffer[0u] = bdAddr->type;
 700              		.loc 1 895 0
 701 0018 7B68     		ldr	r3, [r7, #4]
 702 001a 9A79     		ldrb	r2, [r3, #6]
 703 001c BB68     		ldr	r3, [r7, #8]
 704 001e 1A70     		strb	r2, [r3]
 896:Generated_Source\PSoC4/BLE.c ****             
 897:Generated_Source\PSoC4/BLE.c ****             for(i = 0u; i < CYBLE_GAP_BD_ADDR_SIZE; i++)
 705              		.loc 1 897 0
 706 0020 0F23     		movs	r3, #15
 707 0022 FB18     		adds	r3, r7, r3
 708 0024 0022     		movs	r2, #0
 709 0026 1A70     		strb	r2, [r3]
 710 0028 12E0     		b	.L32
 711              	.L33:
 898:Generated_Source\PSoC4/BLE.c ****             {
 899:Generated_Source\PSoC4/BLE.c ****                 destBuffer[i + 1u] = bdAddr->bdAddr[i];
 712              		.loc 1 899 0 discriminator 3
 713 002a 0F23     		movs	r3, #15
 714 002c FB18     		adds	r3, r7, r3
 715 002e 1B78     		ldrb	r3, [r3]
 716 0030 0133     		adds	r3, r3, #1
 717 0032 BA68     		ldr	r2, [r7, #8]
 718 0034 D318     		adds	r3, r2, r3
 719 0036 0F22     		movs	r2, #15
 720 0038 BA18     		adds	r2, r7, r2
 721 003a 1278     		ldrb	r2, [r2]
 722 003c 7968     		ldr	r1, [r7, #4]
 723 003e 8A5C     		ldrb	r2, [r1, r2]
 724 0040 1A70     		strb	r2, [r3]
 897:Generated_Source\PSoC4/BLE.c ****             {
 725              		.loc 1 897 0 discriminator 3
 726 0042 0F23     		movs	r3, #15
 727 0044 FB18     		adds	r3, r7, r3
 728 0046 1A78     		ldrb	r2, [r3]
 729 0048 0F23     		movs	r3, #15
 730 004a FB18     		adds	r3, r7, r3
 731 004c 0132     		adds	r2, r2, #1
 732 004e 1A70     		strb	r2, [r3]
 733              	.L32:
 897:Generated_Source\PSoC4/BLE.c ****             {
 734              		.loc 1 897 0 is_stmt 0 discriminator 1
 735 0050 0F23     		movs	r3, #15
 736 0052 FB18     		adds	r3, r7, r3
 737 0054 1B78     		ldrb	r3, [r3]
 738 0056 052B     		cmp	r3, #5
 739 0058 E7D9     		bls	.L33
 740              	.L34:
 900:Generated_Source\PSoC4/BLE.c ****             }
 901:Generated_Source\PSoC4/BLE.c ****         }
 902:Generated_Source\PSoC4/BLE.c ****     }
 741              		.loc 1 902 0 is_stmt 1
 742 005a C046     		nop
 743 005c BD46     		mov	sp, r7
 744 005e 04B0     		add	sp, sp, #16
ARM GAS  C:\Users\Elea\AppData\Local\Temp\ccp943mU.s 			page 30


 745              		@ sp needed
 746 0060 80BD     		pop	{r7, pc}
 747              		.cfi_endproc
 748              	.LFE8:
 749              		.size	CyBle_ChangeAdDeviceAddress, .-CyBle_ChangeAdDeviceAddress
 750 0062 C046     		.section	.text.CyBle_ChangeAdLocalName,"ax",%progbits
 751              		.align	2
 752              		.code	16
 753              		.thumb_func
 754              		.type	CyBle_ChangeAdLocalName, %function
 755              	CyBle_ChangeAdLocalName:
 756              	.LFB9:
 903:Generated_Source\PSoC4/BLE.c ****   
 904:Generated_Source\PSoC4/BLE.c **** #endif /* CYBLE_GAP_ROLE_PERIPHERAL || CYBLE_GAP_ROLE_BROADCASTER */
 905:Generated_Source\PSoC4/BLE.c **** 
 906:Generated_Source\PSoC4/BLE.c **** 
 907:Generated_Source\PSoC4/BLE.c **** #if(CYBLE_GAP_ROLE_CENTRAL || CYBLE_GAP_ROLE_OBSERVER)
 908:Generated_Source\PSoC4/BLE.c **** 
 909:Generated_Source\PSoC4/BLE.c ****     /******************************************************************************
 910:Generated_Source\PSoC4/BLE.c ****     * Function Name: CyBle_GapcStartScan
 911:Generated_Source\PSoC4/BLE.c ****     ***************************************************************************//**
 912:Generated_Source\PSoC4/BLE.c ****     * 
 913:Generated_Source\PSoC4/BLE.c ****     *   This function is used for discovering GAP peripheral devices that are 
 914:Generated_Source\PSoC4/BLE.c ****     *   available for connection. It performs the scanning routine using the 
 915:Generated_Source\PSoC4/BLE.c ****     *   parameters entered in the component's customizer.
 916:Generated_Source\PSoC4/BLE.c ****     *   
 917:Generated_Source\PSoC4/BLE.c ****     *   As soon as the discovery operation starts, CYBLE_EVT_GAPC_SCAN_START_STOP 
 918:Generated_Source\PSoC4/BLE.c ****     *   event is generated. The CYBLE_EVT_GAPC_SCAN_PROGRESS_RESULT event is 
 919:Generated_Source\PSoC4/BLE.c ****     *   generated when a GAP peripheral device is located. There are three discovery
 920:Generated_Source\PSoC4/BLE.c ****     *   procedures can be selected in the customizer's GUI:
 921:Generated_Source\PSoC4/BLE.c ****     *   
 922:Generated_Source\PSoC4/BLE.c ****     *   * Observation procedure: A device performing the observer role receives only
 923:Generated_Source\PSoC4/BLE.c ****     *                            advertisement data from devices irrespective of 
 924:Generated_Source\PSoC4/BLE.c ****     *                            their discoverable mode settings. Advertisement 
 925:Generated_Source\PSoC4/BLE.c ****     *                            data received is provided by the event,      
 926:Generated_Source\PSoC4/BLE.c ****     *                            CYBLE_EVT_GAPC_SCAN_PROGRESS_RESULT. This procedure
 927:Generated_Source\PSoC4/BLE.c ****     *                            requires the scanType sub parameter to be passive
 928:Generated_Source\PSoC4/BLE.c ****     *                            scanning. 
 929:Generated_Source\PSoC4/BLE.c ****     *   
 930:Generated_Source\PSoC4/BLE.c ****     *   * Limited Discovery procedure: A device performing the limited discovery
 931:Generated_Source\PSoC4/BLE.c ****     *                                  procedure receives advertisement data and 
 932:Generated_Source\PSoC4/BLE.c ****     *                                  scan# response data from devices in the 
 933:Generated_Source\PSoC4/BLE.c ****     *                                  limited discoverable mode only. Received data
 934:Generated_Source\PSoC4/BLE.c ****     *                                  is provided by the event, 
 935:Generated_Source\PSoC4/BLE.c ****     *                                  CYBLE_EVT_GAPC_SCAN_PROGRESS_RESULT. This 
 936:Generated_Source\PSoC4/BLE.c ****     *                                  procedure requires the scanType sub-parameter 
 937:Generated_Source\PSoC4/BLE.c ****     *                                  to be active scanning.
 938:Generated_Source\PSoC4/BLE.c ****     *   
 939:Generated_Source\PSoC4/BLE.c ****     *   * General Discovery procedure: A device performing the general discovery 
 940:Generated_Source\PSoC4/BLE.c ****     *                                  procedure receives the advertisement data and
 941:Generated_Source\PSoC4/BLE.c ****     *                                  scan response data from devices in both 
 942:Generated_Source\PSoC4/BLE.c ****     *                                  limited discoverable mode and the general 
 943:Generated_Source\PSoC4/BLE.c ****     *                                  discoverable mode. Received data is provided
 944:Generated_Source\PSoC4/BLE.c ****     *                                  by the event,
 945:Generated_Source\PSoC4/BLE.c ****     *                                  CYBLE_EVT_GAPC_SCAN_PROGRESS_RESULT. This 
 946:Generated_Source\PSoC4/BLE.c ****     *                                  procedure requires the scanType sub-parameter
 947:Generated_Source\PSoC4/BLE.c ****     *                                  to be active scanning.
ARM GAS  C:\Users\Elea\AppData\Local\Temp\ccp943mU.s 			page 31


 948:Generated_Source\PSoC4/BLE.c ****     *   
 949:Generated_Source\PSoC4/BLE.c ****     *   Every Advertisement / Scan response packet received results in a new event, 
 950:Generated_Source\PSoC4/BLE.c ****     *   CYBLE_EVT_GAPC_SCAN_PROGRESS_RESULT.
 951:Generated_Source\PSoC4/BLE.c ****     *   If 'scanTo' sub-parameter is a non-zero value, then upon commencement of 
 952:Generated_Source\PSoC4/BLE.c ****     *   discovery procedure and elapsed time = 'scanTo', CYBLE_EVT_TIMEOUT event
 953:Generated_Source\PSoC4/BLE.c ****     *   is generated with the event parameter indicating CYBLE_GAP_SCAN_TO.
 954:Generated_Source\PSoC4/BLE.c ****     *   Possible generated events are:
 955:Generated_Source\PSoC4/BLE.c ****     *   * CYBLE_EVT_GAPC_SCAN_START_STOP: If a device started or stopped scanning. 
 956:Generated_Source\PSoC4/BLE.c ****     *                                     Use CyBle_GetState() to determine the 
 957:Generated_Source\PSoC4/BLE.c ****     *                                     state. Sequential scanning could be 
 958:Generated_Source\PSoC4/BLE.c ****     *                                     started when CYBLE_STATE_DISCONNECTED 
 959:Generated_Source\PSoC4/BLE.c ****     *                                     state is returned. 
 960:Generated_Source\PSoC4/BLE.c ****     *   * CYBLE_EVT_GAPC_SCAN_PROGRESS_RESULT 
 961:Generated_Source\PSoC4/BLE.c ****     *   * CYBLE_EVT_TIMEOUT (CYBLE_GAP_SCAN_TO)
 962:Generated_Source\PSoC4/BLE.c ****     * 
 963:Generated_Source\PSoC4/BLE.c ****     *   \param scanningIntervalType:  Fast or slow scanning interval with
 964:Generated_Source\PSoC4/BLE.c ****     *       timings entered in Scan settings section of the customizer.
 965:Generated_Source\PSoC4/BLE.c ****     * 	  * CYBLE_SCANNING_FAST   0x00u
 966:Generated_Source\PSoC4/BLE.c ****     * 	  * CYBLE_SCANNING_SLOW   0x01u
 967:Generated_Source\PSoC4/BLE.c ****     * 	  * CYBLE_SCANNING_CUSTOM 0x02u
 968:Generated_Source\PSoC4/BLE.c ****     * 
 969:Generated_Source\PSoC4/BLE.c ****     * \return
 970:Generated_Source\PSoC4/BLE.c ****     *  CYBLE_API_RESULT_T : Return value indicates if the function succeeded or
 971:Generated_Source\PSoC4/BLE.c ****     *  failed. Following are the possible error codes.
 972:Generated_Source\PSoC4/BLE.c ****     *
 973:Generated_Source\PSoC4/BLE.c ****     *   Errors codes                       | Description
 974:Generated_Source\PSoC4/BLE.c ****     *   ---------------------------------- | -----------------------------------
 975:Generated_Source\PSoC4/BLE.c ****     *   CYBLE_ERROR_OK                     | On successful operation.
 976:Generated_Source\PSoC4/BLE.c ****     *   CYBLE_ERROR_STACK_INTERNAL         | An error occurred in the BLE stack.
 977:Generated_Source\PSoC4/BLE.c ****     *   CYBLE_ERROR_INVALID_PARAMETER      | On passing an invalid parameter.
 978:Generated_Source\PSoC4/BLE.c ****     *  
 979:Generated_Source\PSoC4/BLE.c ****     *******************************************************************************/
 980:Generated_Source\PSoC4/BLE.c ****     CYBLE_API_RESULT_T CyBle_GapcStartScan(uint8 scanningIntervalType)
 981:Generated_Source\PSoC4/BLE.c ****     {
 982:Generated_Source\PSoC4/BLE.c ****         CYBLE_API_RESULT_T apiResult;
 983:Generated_Source\PSoC4/BLE.c **** 
 984:Generated_Source\PSoC4/BLE.c ****         if(scanningIntervalType > CYBLE_SCANNING_CUSTOM)
 985:Generated_Source\PSoC4/BLE.c ****         {
 986:Generated_Source\PSoC4/BLE.c ****             apiResult = CYBLE_ERROR_INVALID_PARAMETER;
 987:Generated_Source\PSoC4/BLE.c ****         }
 988:Generated_Source\PSoC4/BLE.c ****         else
 989:Generated_Source\PSoC4/BLE.c ****         {
 990:Generated_Source\PSoC4/BLE.c ****             if(scanningIntervalType == CYBLE_SCANNING_FAST)
 991:Generated_Source\PSoC4/BLE.c ****             {
 992:Generated_Source\PSoC4/BLE.c ****                 cyBle_discoveryInfo.scanTo = CYBLE_FAST_SCAN_TIMEOUT;
 993:Generated_Source\PSoC4/BLE.c ****                 cyBle_discoveryInfo.scanIntv = CYBLE_FAST_SCAN_INTERVAL;
 994:Generated_Source\PSoC4/BLE.c ****                 cyBle_discoveryInfo.scanWindow = CYBLE_FAST_SCAN_WINDOW;
 995:Generated_Source\PSoC4/BLE.c ****             }
 996:Generated_Source\PSoC4/BLE.c ****             else if(scanningIntervalType == CYBLE_SCANNING_SLOW)
 997:Generated_Source\PSoC4/BLE.c ****             {
 998:Generated_Source\PSoC4/BLE.c ****                 cyBle_discoveryInfo.scanTo = CYBLE_SLOW_SCAN_TIMEOUT;
 999:Generated_Source\PSoC4/BLE.c ****                 cyBle_discoveryInfo.scanIntv = CYBLE_SLOW_SCAN_INTERVAL;
1000:Generated_Source\PSoC4/BLE.c ****                 cyBle_discoveryInfo.scanWindow = CYBLE_SLOW_SCAN_WINDOW;
1001:Generated_Source\PSoC4/BLE.c ****             }       
1002:Generated_Source\PSoC4/BLE.c ****             else /* Do not update scanning intervals */
1003:Generated_Source\PSoC4/BLE.c ****             {
1004:Generated_Source\PSoC4/BLE.c ****             }
ARM GAS  C:\Users\Elea\AppData\Local\Temp\ccp943mU.s 			page 32


1005:Generated_Source\PSoC4/BLE.c ****             
1006:Generated_Source\PSoC4/BLE.c ****             cyBle_scanningIntervalType = scanningIntervalType;
1007:Generated_Source\PSoC4/BLE.c ****             apiResult = CyBle_GapcStartDiscovery(&cyBle_discoveryInfo);
1008:Generated_Source\PSoC4/BLE.c ****         
1009:Generated_Source\PSoC4/BLE.c ****             if(apiResult == CYBLE_ERROR_OK)
1010:Generated_Source\PSoC4/BLE.c ****             {
1011:Generated_Source\PSoC4/BLE.c ****                 cyBle_eventHandlerFlag |= CYBLE_START_FLAG;
1012:Generated_Source\PSoC4/BLE.c ****             }
1013:Generated_Source\PSoC4/BLE.c ****         }
1014:Generated_Source\PSoC4/BLE.c ****        
1015:Generated_Source\PSoC4/BLE.c ****         return (apiResult);
1016:Generated_Source\PSoC4/BLE.c ****     }
1017:Generated_Source\PSoC4/BLE.c ****     
1018:Generated_Source\PSoC4/BLE.c ****     
1019:Generated_Source\PSoC4/BLE.c ****     /******************************************************************************
1020:Generated_Source\PSoC4/BLE.c ****     * Function Name: CyBle_GapcStopScan
1021:Generated_Source\PSoC4/BLE.c ****     ***************************************************************************//**
1022:Generated_Source\PSoC4/BLE.c ****     * 
1023:Generated_Source\PSoC4/BLE.c ****     *   This function used to stop the discovery of devices. On stopping discovery
1024:Generated_Source\PSoC4/BLE.c ****     *   operation, CYBLE_EVT_GAPC_SCAN_START_STOP event is generated. Application
1025:Generated_Source\PSoC4/BLE.c ****     *   layer needs to keep track of the function call made before receiving this
1026:Generated_Source\PSoC4/BLE.c ****     *   event to associate this event with either the start or stop discovery
1027:Generated_Source\PSoC4/BLE.c ****     *   function.
1028:Generated_Source\PSoC4/BLE.c ****     * 
1029:Generated_Source\PSoC4/BLE.c ****     *   Possible events generated are:
1030:Generated_Source\PSoC4/BLE.c ****     *    * CYBLE_EVT_GAPC_SCAN_START_STOP
1031:Generated_Source\PSoC4/BLE.c ****     * 
1032:Generated_Source\PSoC4/BLE.c ****     *  \return
1033:Generated_Source\PSoC4/BLE.c ****     *   None
1034:Generated_Source\PSoC4/BLE.c ****     * 
1035:Generated_Source\PSoC4/BLE.c ****     *******************************************************************************/
1036:Generated_Source\PSoC4/BLE.c ****     void CyBle_GapcStopScan(void)
1037:Generated_Source\PSoC4/BLE.c ****     {
1038:Generated_Source\PSoC4/BLE.c ****         CyBle_GapcStopDiscovery();
1039:Generated_Source\PSoC4/BLE.c ****         
1040:Generated_Source\PSoC4/BLE.c ****         cyBle_eventHandlerFlag |= CYBLE_STOP_FLAG;
1041:Generated_Source\PSoC4/BLE.c ****     }
1042:Generated_Source\PSoC4/BLE.c **** 
1043:Generated_Source\PSoC4/BLE.c ****     
1044:Generated_Source\PSoC4/BLE.c **** #endif /* CYBLE_GAP_ROLE_CENTRAL || CYBLE_GAP_ROLE_OBSERVER */
1045:Generated_Source\PSoC4/BLE.c **** 
1046:Generated_Source\PSoC4/BLE.c **** 
1047:Generated_Source\PSoC4/BLE.c **** #if(CYBLE_GAP_ROLE_CENTRAL)
1048:Generated_Source\PSoC4/BLE.c **** 
1049:Generated_Source\PSoC4/BLE.c ****     /******************************************************************************
1050:Generated_Source\PSoC4/BLE.c ****     * Function Name: CyBle_GapcConnectDevice
1051:Generated_Source\PSoC4/BLE.c ****     ***************************************************************************//**
1052:Generated_Source\PSoC4/BLE.c ****     * 
1053:Generated_Source\PSoC4/BLE.c ****     *  This function is used to send a connection request to the remote device with
1054:Generated_Source\PSoC4/BLE.c ****     *  the connection parameters set in the component customizer. This function needs
1055:Generated_Source\PSoC4/BLE.c ****     *  to be called only once after the target device is discovered by 
1056:Generated_Source\PSoC4/BLE.c ****     *  CyBle_GapcStartScan() and further scanning has stopped. Scanning is 
1057:Generated_Source\PSoC4/BLE.c ****     *  successfully stopped on invoking CyBle_GapcStopScan() and then receiving the
1058:Generated_Source\PSoC4/BLE.c ****     *  event CYBLE_EVT_GAPC_SCAN_START_STOP with sub-parameter 'success' = 0x01u.
1059:Generated_Source\PSoC4/BLE.c ****     *  
1060:Generated_Source\PSoC4/BLE.c ****     *  On successful connection, the following events are generated at the GAP 
1061:Generated_Source\PSoC4/BLE.c ****     *  Central device (as well as the GAP Peripheral device), in the following order.
ARM GAS  C:\Users\Elea\AppData\Local\Temp\ccp943mU.s 			page 33


1062:Generated_Source\PSoC4/BLE.c ****     *  * CYBLE_EVT_GATT_CONNECT_IND
1063:Generated_Source\PSoC4/BLE.c ****     *  * CYBLE_EVT_GAP_DEVICE_CONNECTED - If the device connects to a GAP Central and 
1064:Generated_Source\PSoC4/BLE.c ****     *    Link Layer Privacy is disabled in component customizer.
1065:Generated_Source\PSoC4/BLE.c ****     *  * CYBLE_EVT_GAP_ENHANCE_CONN_COMPLETE - If the device connects to a GAP Central and 
1066:Generated_Source\PSoC4/BLE.c ****     *    Link Layer Privacy is enabled in component customizer.
1067:Generated_Source\PSoC4/BLE.c ****     *  * CYBLE_EVT_GAP_DEVICE_CONNECTED
1068:Generated_Source\PSoC4/BLE.c ****     *  
1069:Generated_Source\PSoC4/BLE.c ****     *  A procedure is considered to have timed out if a connection response packet is 
1070:Generated_Source\PSoC4/BLE.c ****     *  not received within time set by cyBle_connectingTimeout global variable
1071:Generated_Source\PSoC4/BLE.c ****     *  (30 seconds by default). CYBLE_EVT_TIMEOUT event with CYBLE_GENERIC_TO parameter
1072:Generated_Source\PSoC4/BLE.c ****     *  will indicate about connection procedure timeout. Connection will automatically
1073:Generated_Source\PSoC4/BLE.c ****     *  be canceled and state will be changed to CYBLE_STATE_DISCONNECTED.
1074:Generated_Source\PSoC4/BLE.c ****     * 
1075:Generated_Source\PSoC4/BLE.c ****     *  \param address: The device address of the remote device to connect to. 
1076:Generated_Source\PSoC4/BLE.c ****     *  
1077:Generated_Source\PSoC4/BLE.c ****     * \return
1078:Generated_Source\PSoC4/BLE.c ****     *  CYBLE_API_RESULT_T : Return value indicates if the function succeeded or 
1079:Generated_Source\PSoC4/BLE.c ****     *  failed. Following are the possible error codes.
1080:Generated_Source\PSoC4/BLE.c ****     *
1081:Generated_Source\PSoC4/BLE.c ****     *   Errors codes                       | Description
1082:Generated_Source\PSoC4/BLE.c ****     *   ------------                       | -----------
1083:Generated_Source\PSoC4/BLE.c ****     *   CYBLE_ERROR_OK                     | On successful operation.
1084:Generated_Source\PSoC4/BLE.c ****     *   CYBLE_ERROR_STACK_INTERNAL         | On error occurred in the BLE stack.
1085:Generated_Source\PSoC4/BLE.c ****     *   CYBLE_ERROR_INVALID_PARAMETER      | On passing an invalid parameter.
1086:Generated_Source\PSoC4/BLE.c ****     *   CYBLE_ERROR_INVALID_STATE          | On calling this function not in Disconnected state.
1087:Generated_Source\PSoC4/BLE.c ****     *  
1088:Generated_Source\PSoC4/BLE.c ****     ******************************************************************************/
1089:Generated_Source\PSoC4/BLE.c ****     CYBLE_API_RESULT_T CyBle_GapcConnectDevice(const CYBLE_GAP_BD_ADDR_T * address)
1090:Generated_Source\PSoC4/BLE.c ****     {
1091:Generated_Source\PSoC4/BLE.c ****         CYBLE_API_RESULT_T apiResult;
1092:Generated_Source\PSoC4/BLE.c ****         uint8 i;
1093:Generated_Source\PSoC4/BLE.c **** 
1094:Generated_Source\PSoC4/BLE.c ****         if(CyBle_GetState() != CYBLE_STATE_DISCONNECTED)
1095:Generated_Source\PSoC4/BLE.c ****         {
1096:Generated_Source\PSoC4/BLE.c ****             apiResult = CYBLE_ERROR_INVALID_STATE;
1097:Generated_Source\PSoC4/BLE.c ****         }
1098:Generated_Source\PSoC4/BLE.c ****         else if(address == NULL)
1099:Generated_Source\PSoC4/BLE.c ****         {
1100:Generated_Source\PSoC4/BLE.c ****             apiResult = CYBLE_ERROR_INVALID_PARAMETER;
1101:Generated_Source\PSoC4/BLE.c ****         }
1102:Generated_Source\PSoC4/BLE.c ****         else
1103:Generated_Source\PSoC4/BLE.c ****         {
1104:Generated_Source\PSoC4/BLE.c ****             for(i = 0u; i < CYBLE_GAP_BD_ADDR_SIZE; i++)
1105:Generated_Source\PSoC4/BLE.c ****             {
1106:Generated_Source\PSoC4/BLE.c ****                 cyBle_connectionParameters.peerBdAddr[i] = address->bdAddr[i];
1107:Generated_Source\PSoC4/BLE.c ****             }
1108:Generated_Source\PSoC4/BLE.c ****             cyBle_connectionParameters.peerAddrType = address -> type;
1109:Generated_Source\PSoC4/BLE.c ****             apiResult = CyBle_GapcInitConnection(&cyBle_connectionParameters);
1110:Generated_Source\PSoC4/BLE.c ****             
1111:Generated_Source\PSoC4/BLE.c ****             if(apiResult == CYBLE_ERROR_OK)
1112:Generated_Source\PSoC4/BLE.c ****             {
1113:Generated_Source\PSoC4/BLE.c ****                 CyBle_SetState(CYBLE_STATE_CONNECTING);
1114:Generated_Source\PSoC4/BLE.c ****                 if(cyBle_connectingTimeout != 0u)
1115:Generated_Source\PSoC4/BLE.c ****                 {
1116:Generated_Source\PSoC4/BLE.c ****                     (void)CyBle_StartTimer(cyBle_connectingTimeout);
1117:Generated_Source\PSoC4/BLE.c ****                 }
1118:Generated_Source\PSoC4/BLE.c ****             }
ARM GAS  C:\Users\Elea\AppData\Local\Temp\ccp943mU.s 			page 34


1119:Generated_Source\PSoC4/BLE.c ****         }
1120:Generated_Source\PSoC4/BLE.c ****         return (apiResult);
1121:Generated_Source\PSoC4/BLE.c ****     }
1122:Generated_Source\PSoC4/BLE.c ****     
1123:Generated_Source\PSoC4/BLE.c **** 
1124:Generated_Source\PSoC4/BLE.c ****     /******************************************************************************
1125:Generated_Source\PSoC4/BLE.c ****     * Function Name: CyBle_GapcCancelDeviceConnection
1126:Generated_Source\PSoC4/BLE.c ****     ***************************************************************************//**
1127:Generated_Source\PSoC4/BLE.c ****     * 
1128:Generated_Source\PSoC4/BLE.c ****     *  This function cancels a previously initiated connection with the remote 
1129:Generated_Source\PSoC4/BLE.c ****     *  device. It is a blocking function. No event is generated on calling this 
1130:Generated_Source\PSoC4/BLE.c ****     *  function. If the devices are already connected then this function should not
1131:Generated_Source\PSoC4/BLE.c ****     *  be used. If you intend to disconnect from an existing connection, the function
1132:Generated_Source\PSoC4/BLE.c ****     *  CyBle_GapDisconnect() should be used.
1133:Generated_Source\PSoC4/BLE.c ****     * 
1134:Generated_Source\PSoC4/BLE.c ****     * \return
1135:Generated_Source\PSoC4/BLE.c ****     *  CYBLE_API_RESULT_T : Return value indicates if the function succeeded or 
1136:Generated_Source\PSoC4/BLE.c ****     *  failed. Following are the possible error codes.
1137:Generated_Source\PSoC4/BLE.c ****     *
1138:Generated_Source\PSoC4/BLE.c ****     *   Errors codes                       | Description
1139:Generated_Source\PSoC4/BLE.c ****     *   ---------------------------------- | --------------------------------------
1140:Generated_Source\PSoC4/BLE.c ****     *   CYBLE_ERROR_OK                     | On successful operation.
1141:Generated_Source\PSoC4/BLE.c ****     *   CYBLE_ERROR_STACK_INTERNAL         | An error occurred in the BLE stack.
1142:Generated_Source\PSoC4/BLE.c ****     *   CYBLE_ERROR_INVALID_STATE          | On calling this function not in Connecting state.
1143:Generated_Source\PSoC4/BLE.c ****     *  
1144:Generated_Source\PSoC4/BLE.c ****     *******************************************************************************/
1145:Generated_Source\PSoC4/BLE.c ****     CYBLE_API_RESULT_T CyBle_GapcCancelDeviceConnection(void)
1146:Generated_Source\PSoC4/BLE.c ****     {
1147:Generated_Source\PSoC4/BLE.c ****         CYBLE_API_RESULT_T apiResult;
1148:Generated_Source\PSoC4/BLE.c ****         
1149:Generated_Source\PSoC4/BLE.c ****         if(CyBle_GetState() != CYBLE_STATE_CONNECTING)
1150:Generated_Source\PSoC4/BLE.c ****         {
1151:Generated_Source\PSoC4/BLE.c ****             apiResult = CYBLE_ERROR_INVALID_STATE;
1152:Generated_Source\PSoC4/BLE.c ****         }
1153:Generated_Source\PSoC4/BLE.c ****         else 
1154:Generated_Source\PSoC4/BLE.c ****         {
1155:Generated_Source\PSoC4/BLE.c ****             apiResult = CyBle_GapcCancelConnection();
1156:Generated_Source\PSoC4/BLE.c ****             
1157:Generated_Source\PSoC4/BLE.c ****             if(cyBle_connectingTimeout != 0u)
1158:Generated_Source\PSoC4/BLE.c ****             {
1159:Generated_Source\PSoC4/BLE.c ****                 (void)CyBle_StopTimer();
1160:Generated_Source\PSoC4/BLE.c ****             }
1161:Generated_Source\PSoC4/BLE.c **** 
1162:Generated_Source\PSoC4/BLE.c ****             if(apiResult == CYBLE_ERROR_OK)
1163:Generated_Source\PSoC4/BLE.c ****             {
1164:Generated_Source\PSoC4/BLE.c ****                 CyBle_SetState(CYBLE_STATE_DISCONNECTED);
1165:Generated_Source\PSoC4/BLE.c ****             }
1166:Generated_Source\PSoC4/BLE.c ****         }
1167:Generated_Source\PSoC4/BLE.c ****         return (apiResult);
1168:Generated_Source\PSoC4/BLE.c ****     }    
1169:Generated_Source\PSoC4/BLE.c **** 
1170:Generated_Source\PSoC4/BLE.c ****     
1171:Generated_Source\PSoC4/BLE.c **** #endif /* CYBLE_GAP_ROLE_CENTRAL */
1172:Generated_Source\PSoC4/BLE.c **** 
1173:Generated_Source\PSoC4/BLE.c **** 
1174:Generated_Source\PSoC4/BLE.c **** #if(CYBLE_GATT_ROLE_SERVER)
1175:Generated_Source\PSoC4/BLE.c **** 
ARM GAS  C:\Users\Elea\AppData\Local\Temp\ccp943mU.s 			page 35


1176:Generated_Source\PSoC4/BLE.c **** #if(CYBLE_GAP_ROLE_PERIPHERAL)
1177:Generated_Source\PSoC4/BLE.c **** 
1178:Generated_Source\PSoC4/BLE.c ****         /******************************************************************************
1179:Generated_Source\PSoC4/BLE.c ****         * Function Name: CyBle_ChangeAdLocalName
1180:Generated_Source\PSoC4/BLE.c ****         ***************************************************************************//**
1181:Generated_Source\PSoC4/BLE.c ****         *  This function is used to set the local device name in the advertisement or 
1182:Generated_Source\PSoC4/BLE.c ****         *  scan response data structure.
1183:Generated_Source\PSoC4/BLE.c ****         * 
1184:Generated_Source\PSoC4/BLE.c ****         *  \param name: The local device name string to be set in advertisement data 
1185:Generated_Source\PSoC4/BLE.c ****         *            structure.
1186:Generated_Source\PSoC4/BLE.c ****         *  \param dest: 0 - advertisement structure, not zero value selects scan response
1187:Generated_Source\PSoC4/BLE.c ****         *              structure.
1188:Generated_Source\PSoC4/BLE.c ****         * 
1189:Generated_Source\PSoC4/BLE.c ****         * \return
1190:Generated_Source\PSoC4/BLE.c ****         *  None
1191:Generated_Source\PSoC4/BLE.c ****         *  
1192:Generated_Source\PSoC4/BLE.c ****         *******************************************************************************/
1193:Generated_Source\PSoC4/BLE.c ****         static void CyBle_ChangeAdLocalName(const char8 name[], uint8 dest)
1194:Generated_Source\PSoC4/BLE.c ****         {
 757              		.loc 1 1194 0
 758              		.cfi_startproc
 759              		@ args = 0, pretend = 0, frame = 24
 760              		@ frame_needed = 1, uses_anonymous_args = 0
 761 0000 80B5     		push	{r7, lr}
 762              		.cfi_def_cfa_offset 8
 763              		.cfi_offset 7, -8
 764              		.cfi_offset 14, -4
 765 0002 86B0     		sub	sp, sp, #24
 766              		.cfi_def_cfa_offset 32
 767 0004 00AF     		add	r7, sp, #0
 768              		.cfi_def_cfa_register 7
 769 0006 7860     		str	r0, [r7, #4]
 770 0008 0A00     		movs	r2, r1
 771 000a FB1C     		adds	r3, r7, #3
 772 000c 1A70     		strb	r2, [r3]
1195:Generated_Source\PSoC4/BLE.c ****             uint8 i;
1196:Generated_Source\PSoC4/BLE.c ****             uint8 flag = 0u;
 773              		.loc 1 1196 0
 774 000e 1623     		movs	r3, #22
 775 0010 FB18     		adds	r3, r7, r3
 776 0012 0022     		movs	r2, #0
 777 0014 1A70     		strb	r2, [r3]
1197:Generated_Source\PSoC4/BLE.c ****             uint8 adLength = 0u;
 778              		.loc 1 1197 0
 779 0016 1523     		movs	r3, #21
 780 0018 FB18     		adds	r3, r7, r3
 781 001a 0022     		movs	r2, #0
 782 001c 1A70     		strb	r2, [r3]
1198:Generated_Source\PSoC4/BLE.c ****             uint8 byteCounter = 0u;
 783              		.loc 1 1198 0
 784 001e 1423     		movs	r3, #20
 785 0020 FB18     		adds	r3, r7, r3
 786 0022 0022     		movs	r2, #0
 787 0024 1A70     		strb	r2, [r3]
1199:Generated_Source\PSoC4/BLE.c ****             uint8 *destBuffer;
1200:Generated_Source\PSoC4/BLE.c ****             uint8 maxLength;
1201:Generated_Source\PSoC4/BLE.c ****             
ARM GAS  C:\Users\Elea\AppData\Local\Temp\ccp943mU.s 			page 36


1202:Generated_Source\PSoC4/BLE.c ****             if(dest == 0u)      /* Destination - advertising structure */
 788              		.loc 1 1202 0
 789 0026 FB1C     		adds	r3, r7, #3
 790 0028 1B78     		ldrb	r3, [r3]
 791 002a 002B     		cmp	r3, #0
 792 002c 07D1     		bne	.L36
1203:Generated_Source\PSoC4/BLE.c ****             {
1204:Generated_Source\PSoC4/BLE.c ****                 destBuffer = cyBle_discoveryData.advData;
 793              		.loc 1 1204 0
 794 002e 5C4B     		ldr	r3, .L53
 795 0030 3B61     		str	r3, [r7, #16]
1205:Generated_Source\PSoC4/BLE.c ****                 maxLength = cyBle_discoveryData.advDataLen;
 796              		.loc 1 1205 0
 797 0032 0F23     		movs	r3, #15
 798 0034 FB18     		adds	r3, r7, r3
 799 0036 5A4A     		ldr	r2, .L53
 800 0038 D27F     		ldrb	r2, [r2, #31]
 801 003a 1A70     		strb	r2, [r3]
 802 003c 3BE0     		b	.L38
 803              	.L36:
1206:Generated_Source\PSoC4/BLE.c ****             }
1207:Generated_Source\PSoC4/BLE.c ****             else                /* Destination - scan response structure */
1208:Generated_Source\PSoC4/BLE.c ****             {
1209:Generated_Source\PSoC4/BLE.c ****                 destBuffer = cyBle_scanRspData.scanRspData;
 804              		.loc 1 1209 0
 805 003e 594B     		ldr	r3, .L53+4
 806 0040 3B61     		str	r3, [r7, #16]
1210:Generated_Source\PSoC4/BLE.c ****                 maxLength = cyBle_scanRspData.scanRspDataLen;
 807              		.loc 1 1210 0
 808 0042 0F23     		movs	r3, #15
 809 0044 FB18     		adds	r3, r7, r3
 810 0046 574A     		ldr	r2, .L53+4
 811 0048 D27F     		ldrb	r2, [r2, #31]
 812 004a 1A70     		strb	r2, [r3]
1211:Generated_Source\PSoC4/BLE.c ****             }
1212:Generated_Source\PSoC4/BLE.c ****             
1213:Generated_Source\PSoC4/BLE.c ****             while((byteCounter < maxLength) && (flag == 0u))
 813              		.loc 1 1213 0
 814 004c 33E0     		b	.L38
 815              	.L44:
1214:Generated_Source\PSoC4/BLE.c ****             {
1215:Generated_Source\PSoC4/BLE.c ****                 adLength = destBuffer[byteCounter];
 816              		.loc 1 1215 0
 817 004e 1423     		movs	r3, #20
 818 0050 FB18     		adds	r3, r7, r3
 819 0052 1B78     		ldrb	r3, [r3]
 820 0054 3A69     		ldr	r2, [r7, #16]
 821 0056 D218     		adds	r2, r2, r3
 822 0058 1523     		movs	r3, #21
 823 005a FB18     		adds	r3, r7, r3
 824 005c 1278     		ldrb	r2, [r2]
 825 005e 1A70     		strb	r2, [r3]
1216:Generated_Source\PSoC4/BLE.c ****                 
1217:Generated_Source\PSoC4/BLE.c ****                 if(0u != adLength)
 826              		.loc 1 1217 0
 827 0060 1523     		movs	r3, #21
 828 0062 FB18     		adds	r3, r7, r3
ARM GAS  C:\Users\Elea\AppData\Local\Temp\ccp943mU.s 			page 37


 829 0064 1B78     		ldrb	r3, [r3]
 830 0066 002B     		cmp	r3, #0
 831 0068 33D0     		beq	.L51
1218:Generated_Source\PSoC4/BLE.c ****                 {
1219:Generated_Source\PSoC4/BLE.c ****                     /* Increment byte counter so it can point to AD type */
1220:Generated_Source\PSoC4/BLE.c ****                     byteCounter++;
 832              		.loc 1 1220 0
 833 006a 1423     		movs	r3, #20
 834 006c FB18     		adds	r3, r7, r3
 835 006e 1A78     		ldrb	r2, [r3]
 836 0070 1423     		movs	r3, #20
 837 0072 FB18     		adds	r3, r7, r3
 838 0074 0132     		adds	r2, r2, #1
 839 0076 1A70     		strb	r2, [r3]
1221:Generated_Source\PSoC4/BLE.c ****                     
1222:Generated_Source\PSoC4/BLE.c ****                     if((destBuffer[byteCounter] == CYBLE_SHORT_LOCAL_NAME) || 
 840              		.loc 1 1222 0
 841 0078 1423     		movs	r3, #20
 842 007a FB18     		adds	r3, r7, r3
 843 007c 1B78     		ldrb	r3, [r3]
 844 007e 3A69     		ldr	r2, [r7, #16]
 845 0080 D318     		adds	r3, r2, r3
 846 0082 1B78     		ldrb	r3, [r3]
 847 0084 082B     		cmp	r3, #8
 848 0086 07D0     		beq	.L40
1223:Generated_Source\PSoC4/BLE.c ****                        (destBuffer[byteCounter] == CYBLE_COMPLETE_LOCAL_NAME))
 849              		.loc 1 1223 0 discriminator 1
 850 0088 1423     		movs	r3, #20
 851 008a FB18     		adds	r3, r7, r3
 852 008c 1B78     		ldrb	r3, [r3]
 853 008e 3A69     		ldr	r2, [r7, #16]
 854 0090 D318     		adds	r3, r2, r3
 855 0092 1B78     		ldrb	r3, [r3]
1222:Generated_Source\PSoC4/BLE.c ****                        (destBuffer[byteCounter] == CYBLE_COMPLETE_LOCAL_NAME))
 856              		.loc 1 1222 0 discriminator 1
 857 0094 092B     		cmp	r3, #9
 858 0096 04D1     		bne	.L41
 859              	.L40:
1224:Generated_Source\PSoC4/BLE.c ****                     {
1225:Generated_Source\PSoC4/BLE.c ****                         /* Start of the Local Name AD type was fount. Set flag and exit the loop. *
1226:Generated_Source\PSoC4/BLE.c ****                         flag = 1u;
 860              		.loc 1 1226 0
 861 0098 1623     		movs	r3, #22
 862 009a FB18     		adds	r3, r7, r3
 863 009c 0122     		movs	r2, #1
 864 009e 1A70     		strb	r2, [r3]
 865 00a0 09E0     		b	.L38
 866              	.L41:
1227:Generated_Source\PSoC4/BLE.c ****                     }
1228:Generated_Source\PSoC4/BLE.c ****                     else
1229:Generated_Source\PSoC4/BLE.c ****                     {
1230:Generated_Source\PSoC4/BLE.c ****                         byteCounter += adLength;
 867              		.loc 1 1230 0
 868 00a2 1423     		movs	r3, #20
 869 00a4 FB18     		adds	r3, r7, r3
 870 00a6 1422     		movs	r2, #20
 871 00a8 B918     		adds	r1, r7, r2
ARM GAS  C:\Users\Elea\AppData\Local\Temp\ccp943mU.s 			page 38


 872 00aa 1522     		movs	r2, #21
 873 00ac BA18     		adds	r2, r7, r2
 874 00ae 0978     		ldrb	r1, [r1]
 875 00b0 1278     		ldrb	r2, [r2]
 876 00b2 8A18     		adds	r2, r1, r2
 877 00b4 1A70     		strb	r2, [r3]
 878              	.L38:
1213:Generated_Source\PSoC4/BLE.c ****             {
 879              		.loc 1 1213 0
 880 00b6 1423     		movs	r3, #20
 881 00b8 FA18     		adds	r2, r7, r3
 882 00ba 0F23     		movs	r3, #15
 883 00bc FB18     		adds	r3, r7, r3
 884 00be 1278     		ldrb	r2, [r2]
 885 00c0 1B78     		ldrb	r3, [r3]
 886 00c2 9A42     		cmp	r2, r3
 887 00c4 06D2     		bcs	.L43
1213:Generated_Source\PSoC4/BLE.c ****             {
 888              		.loc 1 1213 0 is_stmt 0 discriminator 1
 889 00c6 1623     		movs	r3, #22
 890 00c8 FB18     		adds	r3, r7, r3
 891 00ca 1B78     		ldrb	r3, [r3]
 892 00cc 002B     		cmp	r3, #0
 893 00ce BED0     		beq	.L44
 894 00d0 00E0     		b	.L43
 895              	.L51:
1231:Generated_Source\PSoC4/BLE.c ****                     }
1232:Generated_Source\PSoC4/BLE.c ****                 }
1233:Generated_Source\PSoC4/BLE.c ****                 else
1234:Generated_Source\PSoC4/BLE.c ****                 {
1235:Generated_Source\PSoC4/BLE.c ****                     /* The end of advertisement data structure was encountered though exit the loop
1236:Generated_Source\PSoC4/BLE.c ****                     break;
 896              		.loc 1 1236 0 is_stmt 1
 897 00d2 C046     		nop
 898              	.L43:
1237:Generated_Source\PSoC4/BLE.c ****                 }
1238:Generated_Source\PSoC4/BLE.c ****             }
1239:Generated_Source\PSoC4/BLE.c ****             
1240:Generated_Source\PSoC4/BLE.c ****             if(0u != flag)
 899              		.loc 1 1240 0
 900 00d4 1623     		movs	r3, #22
 901 00d6 FB18     		adds	r3, r7, r3
 902 00d8 1B78     		ldrb	r3, [r3]
 903 00da 002B     		cmp	r3, #0
 904 00dc 5BD0     		beq	.L52
1241:Generated_Source\PSoC4/BLE.c ****             {
1242:Generated_Source\PSoC4/BLE.c ****                 /* Reuse "adLength" to hold location of the last character of local name in 
1243:Generated_Source\PSoC4/BLE.c ****                    AD structure. */
1244:Generated_Source\PSoC4/BLE.c ****                 adLength += byteCounter;
 905              		.loc 1 1244 0
 906 00de 1523     		movs	r3, #21
 907 00e0 FB18     		adds	r3, r7, r3
 908 00e2 1522     		movs	r2, #21
 909 00e4 B918     		adds	r1, r7, r2
 910 00e6 1422     		movs	r2, #20
 911 00e8 BA18     		adds	r2, r7, r2
 912 00ea 0978     		ldrb	r1, [r1]
ARM GAS  C:\Users\Elea\AppData\Local\Temp\ccp943mU.s 			page 39


 913 00ec 1278     		ldrb	r2, [r2]
 914 00ee 8A18     		adds	r2, r1, r2
 915 00f0 1A70     		strb	r2, [r3]
1245:Generated_Source\PSoC4/BLE.c ****                 
1246:Generated_Source\PSoC4/BLE.c ****                 /* Increment byte counter to point to start of the local Name string */
1247:Generated_Source\PSoC4/BLE.c ****                 byteCounter++;
 916              		.loc 1 1247 0
 917 00f2 1423     		movs	r3, #20
 918 00f4 FB18     		adds	r3, r7, r3
 919 00f6 1A78     		ldrb	r2, [r3]
 920 00f8 1423     		movs	r3, #20
 921 00fa FB18     		adds	r3, r7, r3
 922 00fc 0132     		adds	r2, r2, #1
 923 00fe 1A70     		strb	r2, [r3]
1248:Generated_Source\PSoC4/BLE.c ****                 
1249:Generated_Source\PSoC4/BLE.c ****                 for(i = byteCounter; ((i < (adLength)) && (CYBLE_NULL_CHARCTER != name[i - byteCoun
 924              		.loc 1 1249 0
 925 0100 1723     		movs	r3, #23
 926 0102 FB18     		adds	r3, r7, r3
 927 0104 1422     		movs	r2, #20
 928 0106 BA18     		adds	r2, r7, r2
 929 0108 1278     		ldrb	r2, [r2]
 930 010a 1A70     		strb	r2, [r3]
 931 010c 17E0     		b	.L46
 932              	.L48:
1250:Generated_Source\PSoC4/BLE.c ****                 {
1251:Generated_Source\PSoC4/BLE.c ****                     destBuffer[i] = (uint8)name[i - byteCounter];
 933              		.loc 1 1251 0 discriminator 4
 934 010e 1723     		movs	r3, #23
 935 0110 FB18     		adds	r3, r7, r3
 936 0112 1B78     		ldrb	r3, [r3]
 937 0114 3A69     		ldr	r2, [r7, #16]
 938 0116 D318     		adds	r3, r2, r3
 939 0118 1722     		movs	r2, #23
 940 011a BA18     		adds	r2, r7, r2
 941 011c 1178     		ldrb	r1, [r2]
 942 011e 1422     		movs	r2, #20
 943 0120 BA18     		adds	r2, r7, r2
 944 0122 1278     		ldrb	r2, [r2]
 945 0124 8A1A     		subs	r2, r1, r2
 946 0126 1100     		movs	r1, r2
 947 0128 7A68     		ldr	r2, [r7, #4]
 948 012a 5218     		adds	r2, r2, r1
 949 012c 1278     		ldrb	r2, [r2]
 950 012e 1A70     		strb	r2, [r3]
1249:Generated_Source\PSoC4/BLE.c ****                 {
 951              		.loc 1 1249 0 discriminator 4
 952 0130 1723     		movs	r3, #23
 953 0132 FB18     		adds	r3, r7, r3
 954 0134 1A78     		ldrb	r2, [r3]
 955 0136 1723     		movs	r3, #23
 956 0138 FB18     		adds	r3, r7, r3
 957 013a 0132     		adds	r2, r2, #1
 958 013c 1A70     		strb	r2, [r3]
 959              	.L46:
1249:Generated_Source\PSoC4/BLE.c ****                 {
 960              		.loc 1 1249 0 is_stmt 0 discriminator 1
ARM GAS  C:\Users\Elea\AppData\Local\Temp\ccp943mU.s 			page 40


 961 013e 1723     		movs	r3, #23
 962 0140 FA18     		adds	r2, r7, r3
 963 0142 1523     		movs	r3, #21
 964 0144 FB18     		adds	r3, r7, r3
 965 0146 1278     		ldrb	r2, [r2]
 966 0148 1B78     		ldrb	r3, [r3]
 967 014a 9A42     		cmp	r2, r3
 968 014c 1BD2     		bcs	.L49
1249:Generated_Source\PSoC4/BLE.c ****                 {
 969              		.loc 1 1249 0 discriminator 3
 970 014e 1723     		movs	r3, #23
 971 0150 FB18     		adds	r3, r7, r3
 972 0152 1A78     		ldrb	r2, [r3]
 973 0154 1423     		movs	r3, #20
 974 0156 FB18     		adds	r3, r7, r3
 975 0158 1B78     		ldrb	r3, [r3]
 976 015a D31A     		subs	r3, r2, r3
 977 015c 1A00     		movs	r2, r3
 978 015e 7B68     		ldr	r3, [r7, #4]
 979 0160 9B18     		adds	r3, r3, r2
 980 0162 1B78     		ldrb	r3, [r3]
 981 0164 002B     		cmp	r3, #0
 982 0166 D2D1     		bne	.L48
1252:Generated_Source\PSoC4/BLE.c ****                 }
1253:Generated_Source\PSoC4/BLE.c ****                 
1254:Generated_Source\PSoC4/BLE.c ****                 /* This loop handles the case when new local name is shorted than old one.
1255:Generated_Source\PSoC4/BLE.c ****                    In this case all remaining characters should be null characters. */
1256:Generated_Source\PSoC4/BLE.c ****                 while(adLength > i)
 983              		.loc 1 1256 0 is_stmt 1
 984 0168 0DE0     		b	.L49
 985              	.L50:
1257:Generated_Source\PSoC4/BLE.c ****                 {
1258:Generated_Source\PSoC4/BLE.c ****                     /* Terminate string */
1259:Generated_Source\PSoC4/BLE.c ****                     destBuffer[i] = (uint8)CYBLE_NULL_CHARCTER;
 986              		.loc 1 1259 0
 987 016a 1723     		movs	r3, #23
 988 016c FB18     		adds	r3, r7, r3
 989 016e 1B78     		ldrb	r3, [r3]
 990 0170 3A69     		ldr	r2, [r7, #16]
 991 0172 D318     		adds	r3, r2, r3
 992 0174 0022     		movs	r2, #0
 993 0176 1A70     		strb	r2, [r3]
1260:Generated_Source\PSoC4/BLE.c ****                     i++;
 994              		.loc 1 1260 0
 995 0178 1723     		movs	r3, #23
 996 017a FB18     		adds	r3, r7, r3
 997 017c 1A78     		ldrb	r2, [r3]
 998 017e 1723     		movs	r3, #23
 999 0180 FB18     		adds	r3, r7, r3
 1000 0182 0132     		adds	r2, r2, #1
 1001 0184 1A70     		strb	r2, [r3]
 1002              	.L49:
1256:Generated_Source\PSoC4/BLE.c ****                 {
 1003              		.loc 1 1256 0
 1004 0186 1523     		movs	r3, #21
 1005 0188 FA18     		adds	r2, r7, r3
 1006 018a 1723     		movs	r3, #23
ARM GAS  C:\Users\Elea\AppData\Local\Temp\ccp943mU.s 			page 41


 1007 018c FB18     		adds	r3, r7, r3
 1008 018e 1278     		ldrb	r2, [r2]
 1009 0190 1B78     		ldrb	r3, [r3]
 1010 0192 9A42     		cmp	r2, r3
 1011 0194 E9D8     		bhi	.L50
 1012              	.L52:
1261:Generated_Source\PSoC4/BLE.c ****                 }
1262:Generated_Source\PSoC4/BLE.c ****             }
1263:Generated_Source\PSoC4/BLE.c ****         }
 1013              		.loc 1 1263 0
 1014 0196 C046     		nop
 1015 0198 BD46     		mov	sp, r7
 1016 019a 06B0     		add	sp, sp, #24
 1017              		@ sp needed
 1018 019c 80BD     		pop	{r7, pc}
 1019              	.L54:
 1020 019e C046     		.align	2
 1021              	.L53:
 1022 01a0 00000000 		.word	cyBle_discoveryData
 1023 01a4 00000000 		.word	cyBle_scanRspData
 1024              		.cfi_endproc
 1025              	.LFE9:
 1026              		.size	CyBle_ChangeAdLocalName, .-CyBle_ChangeAdLocalName
 1027              		.section	.text.CyBle_GapSetLocalName,"ax",%progbits
 1028              		.align	2
 1029              		.global	CyBle_GapSetLocalName
 1030              		.code	16
 1031              		.thumb_func
 1032              		.type	CyBle_GapSetLocalName, %function
 1033              	CyBle_GapSetLocalName:
 1034              	.LFB10:
1264:Generated_Source\PSoC4/BLE.c ****         
1265:Generated_Source\PSoC4/BLE.c **** #endif /* (CYBLE_GAP_ROLE_PERIPHERAL) */  
1266:Generated_Source\PSoC4/BLE.c ****     
1267:Generated_Source\PSoC4/BLE.c ****     
1268:Generated_Source\PSoC4/BLE.c ****     /******************************************************************************
1269:Generated_Source\PSoC4/BLE.c ****     * Function Name: CyBle_GapSetLocalName
1270:Generated_Source\PSoC4/BLE.c ****     ***************************************************************************//**
1271:Generated_Source\PSoC4/BLE.c ****     *  This function is used to set the local device name - a Characteristic of the 
1272:Generated_Source\PSoC4/BLE.c ****     *  GAP Service. If the characteristic length entered in the component customizer
1273:Generated_Source\PSoC4/BLE.c ****     *  is shorter than the string specified by the "name" parameter, the local device
1274:Generated_Source\PSoC4/BLE.c ****     *  name will be cut to the length specified in the customizer.
1275:Generated_Source\PSoC4/BLE.c ****     * 
1276:Generated_Source\PSoC4/BLE.c ****     *  \param name: The local device name string. The name string to be written as
1277:Generated_Source\PSoC4/BLE.c ****     *              the local device name. It represents a UTF-8 encoded User
1278:Generated_Source\PSoC4/BLE.c ****     *              Friendly Descriptive Name for the device. The length of the local
1279:Generated_Source\PSoC4/BLE.c ****     *              device string is entered into the component customizer and it can
1280:Generated_Source\PSoC4/BLE.c ****     *              be set to a value from 0 to 248 bytes. If the name contained in
1281:Generated_Source\PSoC4/BLE.c ****     *              the parameter is shorter than the length from the customizer, the
1282:Generated_Source\PSoC4/BLE.c ****     *              end of the name is indicated by a NULL octet (0x00).
1283:Generated_Source\PSoC4/BLE.c ****     * 
1284:Generated_Source\PSoC4/BLE.c ****     * \return
1285:Generated_Source\PSoC4/BLE.c ****     *  CYBLE_API_RESULT_T : Return value indicates if the function succeeded or 
1286:Generated_Source\PSoC4/BLE.c ****     *  failed. Following are the possible error codes.
1287:Generated_Source\PSoC4/BLE.c ****     *
1288:Generated_Source\PSoC4/BLE.c ****     *   Errors codes                       | Description
1289:Generated_Source\PSoC4/BLE.c ****     *   ------------                       | -----------
ARM GAS  C:\Users\Elea\AppData\Local\Temp\ccp943mU.s 			page 42


1290:Generated_Source\PSoC4/BLE.c ****     *   CYBLE_ERROR_OK                     | Function completed successfully.
1291:Generated_Source\PSoC4/BLE.c ****     *   CYBLE_ERROR_INVALID_PARAMETER      | On specifying NULL as input parameter
1292:Generated_Source\PSoC4/BLE.c ****     *  
1293:Generated_Source\PSoC4/BLE.c ****     *******************************************************************************/
1294:Generated_Source\PSoC4/BLE.c ****     CYBLE_API_RESULT_T CyBle_GapSetLocalName(const char8 name[])
1295:Generated_Source\PSoC4/BLE.c ****     {
 1035              		.loc 1 1295 0
 1036              		.cfi_startproc
 1037              		@ args = 0, pretend = 0, frame = 24
 1038              		@ frame_needed = 1, uses_anonymous_args = 0
 1039 0000 80B5     		push	{r7, lr}
 1040              		.cfi_def_cfa_offset 8
 1041              		.cfi_offset 7, -8
 1042              		.cfi_offset 14, -4
 1043 0002 86B0     		sub	sp, sp, #24
 1044              		.cfi_def_cfa_offset 32
 1045 0004 00AF     		add	r7, sp, #0
 1046              		.cfi_def_cfa_register 7
 1047 0006 7860     		str	r0, [r7, #4]
1296:Generated_Source\PSoC4/BLE.c ****         CYBLE_API_RESULT_T apiResult = CYBLE_ERROR_OK;
 1048              		.loc 1 1296 0
 1049 0008 1623     		movs	r3, #22
 1050 000a FB18     		adds	r3, r7, r3
 1051 000c 0022     		movs	r2, #0
 1052 000e 1A80     		strh	r2, [r3]
1297:Generated_Source\PSoC4/BLE.c ****         uint8 i;
1298:Generated_Source\PSoC4/BLE.c ****         char8 *ptr;
1299:Generated_Source\PSoC4/BLE.c ****         uint8 charLen;
1300:Generated_Source\PSoC4/BLE.c **** 
1301:Generated_Source\PSoC4/BLE.c ****         if(NULL != name)
 1053              		.loc 1 1301 0
 1054 0010 7B68     		ldr	r3, [r7, #4]
 1055 0012 002B     		cmp	r3, #0
 1056 0014 5CD0     		beq	.L56
1302:Generated_Source\PSoC4/BLE.c ****         {
1303:Generated_Source\PSoC4/BLE.c ****             /* Get the pointer to the Device Name characteristic  */
1304:Generated_Source\PSoC4/BLE.c ****             ptr = (char8 *) CYBLE_GATT_DB_ATTR_GET_ATTR_GEN_PTR(cyBle_gaps.deviceNameCharHandle);
 1057              		.loc 1 1304 0
 1058 0016 344B     		ldr	r3, .L63
 1059 0018 5B88     		ldrh	r3, [r3, #2]
 1060 001a 5A1E     		subs	r2, r3, #1
 1061 001c 3349     		ldr	r1, .L63+4
 1062 001e 1300     		movs	r3, r2
 1063 0020 9B00     		lsls	r3, r3, #2
 1064 0022 9B18     		adds	r3, r3, r2
 1065 0024 9B00     		lsls	r3, r3, #2
 1066 0026 CB18     		adds	r3, r1, r3
 1067 0028 1033     		adds	r3, r3, #16
 1068 002a 1B68     		ldr	r3, [r3]
 1069 002c 5B68     		ldr	r3, [r3, #4]
 1070 002e 3B61     		str	r3, [r7, #16]
1305:Generated_Source\PSoC4/BLE.c **** 
1306:Generated_Source\PSoC4/BLE.c ****             /* First need to get the maximum length of the characteristic data in the GATT
1307:Generated_Source\PSoC4/BLE.c ****                 database to make sure there is enough place for the data. The length
1308:Generated_Source\PSoC4/BLE.c ****                 can't be longer than 248, so only the LSB of 16 bit of length is to
1309:Generated_Source\PSoC4/BLE.c ****                 be used. */
1310:Generated_Source\PSoC4/BLE.c ****             charLen = (uint8)CYBLE_GATT_DB_ATTR_GET_ATTR_GEN_MAX_LEN(cyBle_gaps.deviceNameCharHandl
ARM GAS  C:\Users\Elea\AppData\Local\Temp\ccp943mU.s 			page 43


 1071              		.loc 1 1310 0
 1072 0030 2D4B     		ldr	r3, .L63
 1073 0032 5B88     		ldrh	r3, [r3, #2]
 1074 0034 5A1E     		subs	r2, r3, #1
 1075 0036 2D49     		ldr	r1, .L63+4
 1076 0038 1300     		movs	r3, r2
 1077 003a 9B00     		lsls	r3, r3, #2
 1078 003c 9B18     		adds	r3, r3, r2
 1079 003e 9B00     		lsls	r3, r3, #2
 1080 0040 CB18     		adds	r3, r1, r3
 1081 0042 0C33     		adds	r3, r3, #12
 1082 0044 1A88     		ldrh	r2, [r3]
 1083 0046 0F23     		movs	r3, #15
 1084 0048 FB18     		adds	r3, r7, r3
 1085 004a 1A70     		strb	r2, [r3]
1311:Generated_Source\PSoC4/BLE.c **** 
1312:Generated_Source\PSoC4/BLE.c ****             /* Copy name into characteristic */
1313:Generated_Source\PSoC4/BLE.c ****             for(i = 0u; ((i < charLen) && (CYBLE_NULL_CHARCTER != name[i])); i++)
 1086              		.loc 1 1313 0
 1087 004c 1523     		movs	r3, #21
 1088 004e FB18     		adds	r3, r7, r3
 1089 0050 0022     		movs	r2, #0
 1090 0052 1A70     		strb	r2, [r3]
 1091 0054 12E0     		b	.L57
 1092              	.L59:
1314:Generated_Source\PSoC4/BLE.c ****             {
1315:Generated_Source\PSoC4/BLE.c ****                 ptr[i] = name[i];
 1093              		.loc 1 1315 0 discriminator 4
 1094 0056 1523     		movs	r3, #21
 1095 0058 FB18     		adds	r3, r7, r3
 1096 005a 1B78     		ldrb	r3, [r3]
 1097 005c 3A69     		ldr	r2, [r7, #16]
 1098 005e D318     		adds	r3, r2, r3
 1099 0060 1522     		movs	r2, #21
 1100 0062 BA18     		adds	r2, r7, r2
 1101 0064 1278     		ldrb	r2, [r2]
 1102 0066 7968     		ldr	r1, [r7, #4]
 1103 0068 8A18     		adds	r2, r1, r2
 1104 006a 1278     		ldrb	r2, [r2]
 1105 006c 1A70     		strb	r2, [r3]
1313:Generated_Source\PSoC4/BLE.c ****             {
 1106              		.loc 1 1313 0 discriminator 4
 1107 006e 1523     		movs	r3, #21
 1108 0070 FB18     		adds	r3, r7, r3
 1109 0072 1A78     		ldrb	r2, [r3]
 1110 0074 1523     		movs	r3, #21
 1111 0076 FB18     		adds	r3, r7, r3
 1112 0078 0132     		adds	r2, r2, #1
 1113 007a 1A70     		strb	r2, [r3]
 1114              	.L57:
1313:Generated_Source\PSoC4/BLE.c ****             {
 1115              		.loc 1 1313 0 is_stmt 0 discriminator 1
 1116 007c 1523     		movs	r3, #21
 1117 007e FA18     		adds	r2, r7, r3
 1118 0080 0F23     		movs	r3, #15
 1119 0082 FB18     		adds	r3, r7, r3
 1120 0084 1278     		ldrb	r2, [r2]
ARM GAS  C:\Users\Elea\AppData\Local\Temp\ccp943mU.s 			page 44


 1121 0086 1B78     		ldrb	r3, [r3]
 1122 0088 9A42     		cmp	r2, r3
 1123 008a 07D2     		bcs	.L58
1313:Generated_Source\PSoC4/BLE.c ****             {
 1124              		.loc 1 1313 0 discriminator 3
 1125 008c 1523     		movs	r3, #21
 1126 008e FB18     		adds	r3, r7, r3
 1127 0090 1B78     		ldrb	r3, [r3]
 1128 0092 7A68     		ldr	r2, [r7, #4]
 1129 0094 D318     		adds	r3, r2, r3
 1130 0096 1B78     		ldrb	r3, [r3]
 1131 0098 002B     		cmp	r3, #0
 1132 009a DCD1     		bne	.L59
 1133              	.L58:
1316:Generated_Source\PSoC4/BLE.c ****             }
1317:Generated_Source\PSoC4/BLE.c **** 
1318:Generated_Source\PSoC4/BLE.c ****             if(i < charLen)
 1134              		.loc 1 1318 0 is_stmt 1
 1135 009c 1523     		movs	r3, #21
 1136 009e FA18     		adds	r2, r7, r3
 1137 00a0 0F23     		movs	r3, #15
 1138 00a2 FB18     		adds	r3, r7, r3
 1139 00a4 1278     		ldrb	r2, [r2]
 1140 00a6 1B78     		ldrb	r3, [r3]
 1141 00a8 9A42     		cmp	r2, r3
 1142 00aa 06D2     		bcs	.L60
1319:Generated_Source\PSoC4/BLE.c ****             {
1320:Generated_Source\PSoC4/BLE.c ****                 /* Terminate string */
1321:Generated_Source\PSoC4/BLE.c ****                 ptr[i] = CYBLE_NULL_CHARCTER;
 1143              		.loc 1 1321 0
 1144 00ac 1523     		movs	r3, #21
 1145 00ae FB18     		adds	r3, r7, r3
 1146 00b0 1B78     		ldrb	r3, [r3]
 1147 00b2 3A69     		ldr	r2, [r7, #16]
 1148 00b4 D318     		adds	r3, r2, r3
 1149 00b6 0022     		movs	r2, #0
 1150 00b8 1A70     		strb	r2, [r3]
 1151              	.L60:
1322:Generated_Source\PSoC4/BLE.c ****             }
1323:Generated_Source\PSoC4/BLE.c ****             
1324:Generated_Source\PSoC4/BLE.c ****             /* Set new actual length */
1325:Generated_Source\PSoC4/BLE.c ****             
1326:Generated_Source\PSoC4/BLE.c ****             /* Update device name in advertising and scan response structure */
1327:Generated_Source\PSoC4/BLE.c ****             #if(CYBLE_GAP_ROLE_PERIPHERAL)
1328:Generated_Source\PSoC4/BLE.c ****                 CyBle_ChangeAdLocalName(name, 0u);
 1152              		.loc 1 1328 0
 1153 00ba 7B68     		ldr	r3, [r7, #4]
 1154 00bc 0021     		movs	r1, #0
 1155 00be 1800     		movs	r0, r3
 1156 00c0 FFF7FEFF 		bl	CyBle_ChangeAdLocalName
1329:Generated_Source\PSoC4/BLE.c ****                 CyBle_ChangeAdLocalName(name, 1u);
 1157              		.loc 1 1329 0
 1158 00c4 7B68     		ldr	r3, [r7, #4]
 1159 00c6 0121     		movs	r1, #1
 1160 00c8 1800     		movs	r0, r3
 1161 00ca FFF7FEFF 		bl	CyBle_ChangeAdLocalName
 1162 00ce 03E0     		b	.L61
ARM GAS  C:\Users\Elea\AppData\Local\Temp\ccp943mU.s 			page 45


 1163              	.L56:
1330:Generated_Source\PSoC4/BLE.c ****             #endif /* (CYBLE_GAP_ROLE_PERIPHERAL) */
1331:Generated_Source\PSoC4/BLE.c ****         }
1332:Generated_Source\PSoC4/BLE.c ****         else
1333:Generated_Source\PSoC4/BLE.c ****         {
1334:Generated_Source\PSoC4/BLE.c ****             apiResult = CYBLE_ERROR_INVALID_PARAMETER;
 1164              		.loc 1 1334 0
 1165 00d0 1623     		movs	r3, #22
 1166 00d2 FB18     		adds	r3, r7, r3
 1167 00d4 0122     		movs	r2, #1
 1168 00d6 1A80     		strh	r2, [r3]
 1169              	.L61:
1335:Generated_Source\PSoC4/BLE.c ****         }
1336:Generated_Source\PSoC4/BLE.c ****         
1337:Generated_Source\PSoC4/BLE.c ****         return(apiResult);
 1170              		.loc 1 1337 0
 1171 00d8 1623     		movs	r3, #22
 1172 00da FB18     		adds	r3, r7, r3
 1173 00dc 1B88     		ldrh	r3, [r3]
1338:Generated_Source\PSoC4/BLE.c ****     }
 1174              		.loc 1 1338 0
 1175 00de 1800     		movs	r0, r3
 1176 00e0 BD46     		mov	sp, r7
 1177 00e2 06B0     		add	sp, sp, #24
 1178              		@ sp needed
 1179 00e4 80BD     		pop	{r7, pc}
 1180              	.L64:
 1181 00e6 C046     		.align	2
 1182              	.L63:
 1183 00e8 00000000 		.word	cyBle_gaps
 1184 00ec 00000000 		.word	cyBle_gattDB
 1185              		.cfi_endproc
 1186              	.LFE10:
 1187              		.size	CyBle_GapSetLocalName, .-CyBle_GapSetLocalName
 1188              		.section	.text.CyBle_GapGetLocalName,"ax",%progbits
 1189              		.align	2
 1190              		.global	CyBle_GapGetLocalName
 1191              		.code	16
 1192              		.thumb_func
 1193              		.type	CyBle_GapGetLocalName, %function
 1194              	CyBle_GapGetLocalName:
 1195              	.LFB11:
1339:Generated_Source\PSoC4/BLE.c **** 
1340:Generated_Source\PSoC4/BLE.c **** 
1341:Generated_Source\PSoC4/BLE.c ****     /******************************************************************************
1342:Generated_Source\PSoC4/BLE.c ****     * Function Name: CyBle_GapGetLocalName
1343:Generated_Source\PSoC4/BLE.c ****     ***************************************************************************//**
1344:Generated_Source\PSoC4/BLE.c ****     *  
1345:Generated_Source\PSoC4/BLE.c ****     *  This function is used to read the local device name - a Characteristic of the 
1346:Generated_Source\PSoC4/BLE.c ****     *  GAP Service.
1347:Generated_Source\PSoC4/BLE.c ****     * 
1348:Generated_Source\PSoC4/BLE.c ****     * \param name: The local device name string. Used to read the local name to the
1349:Generated_Source\PSoC4/BLE.c ****     *             given string array. It represents a UTF-8 encoded User Friendly 
1350:Generated_Source\PSoC4/BLE.c ****     *             Descriptive Name for the device. The length of the local device
1351:Generated_Source\PSoC4/BLE.c ****     *             string is entered into the component customizer and it can be set
1352:Generated_Source\PSoC4/BLE.c ****     *             to a value from 0 to 248 bytes. If the name contained in the
1353:Generated_Source\PSoC4/BLE.c ****     *             parameter is shorter than the length from the customizer, the end
ARM GAS  C:\Users\Elea\AppData\Local\Temp\ccp943mU.s 			page 46


1354:Generated_Source\PSoC4/BLE.c ****     *             of the name is indicated by a NULL octet (0x00).
1355:Generated_Source\PSoC4/BLE.c ****     * 
1356:Generated_Source\PSoC4/BLE.c ****     * \return
1357:Generated_Source\PSoC4/BLE.c ****     *  CYBLE_API_RESULT_T : Return value indicates if the function succeeded or 
1358:Generated_Source\PSoC4/BLE.c ****     *  failed. Following are the possible error codes.
1359:Generated_Source\PSoC4/BLE.c ****     *
1360:Generated_Source\PSoC4/BLE.c ****     *   Errors codes                       | Description
1361:Generated_Source\PSoC4/BLE.c ****     *   ------------                       | -----------
1362:Generated_Source\PSoC4/BLE.c ****     *   CYBLE_ERROR_OK                     | Function completed successfully.
1363:Generated_Source\PSoC4/BLE.c ****     *   CYBLE_ERROR_INVALID_PARAMETER      | On specifying NULL as input parameter
1364:Generated_Source\PSoC4/BLE.c ****     *
1365:Generated_Source\PSoC4/BLE.c ****     *******************************************************************************/
1366:Generated_Source\PSoC4/BLE.c ****     CYBLE_API_RESULT_T CyBle_GapGetLocalName(char8 name[])
1367:Generated_Source\PSoC4/BLE.c ****     {
 1196              		.loc 1 1367 0
 1197              		.cfi_startproc
 1198              		@ args = 0, pretend = 0, frame = 24
 1199              		@ frame_needed = 1, uses_anonymous_args = 0
 1200 0000 80B5     		push	{r7, lr}
 1201              		.cfi_def_cfa_offset 8
 1202              		.cfi_offset 7, -8
 1203              		.cfi_offset 14, -4
 1204 0002 86B0     		sub	sp, sp, #24
 1205              		.cfi_def_cfa_offset 32
 1206 0004 00AF     		add	r7, sp, #0
 1207              		.cfi_def_cfa_register 7
 1208 0006 7860     		str	r0, [r7, #4]
1368:Generated_Source\PSoC4/BLE.c ****         CYBLE_API_RESULT_T apiResult = CYBLE_ERROR_OK;
 1209              		.loc 1 1368 0
 1210 0008 1623     		movs	r3, #22
 1211 000a FB18     		adds	r3, r7, r3
 1212 000c 0022     		movs	r2, #0
 1213 000e 1A80     		strh	r2, [r3]
1369:Generated_Source\PSoC4/BLE.c ****         uint8 charLen;
1370:Generated_Source\PSoC4/BLE.c ****         uint8 i;
1371:Generated_Source\PSoC4/BLE.c ****         char8 *ptr;
1372:Generated_Source\PSoC4/BLE.c **** 
1373:Generated_Source\PSoC4/BLE.c ****         if(NULL != name)
 1214              		.loc 1 1373 0
 1215 0010 7B68     		ldr	r3, [r7, #4]
 1216 0012 002B     		cmp	r3, #0
 1217 0014 4BD0     		beq	.L66
1374:Generated_Source\PSoC4/BLE.c ****         {
1375:Generated_Source\PSoC4/BLE.c ****             /* Get the pointer to the Device Name characteristic  */
1376:Generated_Source\PSoC4/BLE.c ****             ptr = (char8 *) CYBLE_GATT_DB_ATTR_GET_ATTR_GEN_PTR(cyBle_gaps.deviceNameCharHandle);
 1218              		.loc 1 1376 0
 1219 0016 2B4B     		ldr	r3, .L72
 1220 0018 5B88     		ldrh	r3, [r3, #2]
 1221 001a 5A1E     		subs	r2, r3, #1
 1222 001c 2A49     		ldr	r1, .L72+4
 1223 001e 1300     		movs	r3, r2
 1224 0020 9B00     		lsls	r3, r3, #2
 1225 0022 9B18     		adds	r3, r3, r2
 1226 0024 9B00     		lsls	r3, r3, #2
 1227 0026 CB18     		adds	r3, r1, r3
 1228 0028 1033     		adds	r3, r3, #16
 1229 002a 1B68     		ldr	r3, [r3]
ARM GAS  C:\Users\Elea\AppData\Local\Temp\ccp943mU.s 			page 47


 1230 002c 5B68     		ldr	r3, [r3, #4]
 1231 002e 3B61     		str	r3, [r7, #16]
1377:Generated_Source\PSoC4/BLE.c **** 
1378:Generated_Source\PSoC4/BLE.c ****             /* First need to get the length of the characteristic data in the GATT
1379:Generated_Source\PSoC4/BLE.c ****                 database to make sure there is enough place for the data. The length
1380:Generated_Source\PSoC4/BLE.c ****                 can't be longer than 248, so only the LSB of 16 bit of length is to
1381:Generated_Source\PSoC4/BLE.c ****                 be used. */
1382:Generated_Source\PSoC4/BLE.c ****             charLen = (uint8)CYBLE_GATT_DB_ATTR_GET_ATTR_GEN_LEN(cyBle_gaps.deviceNameCharHandle);
 1232              		.loc 1 1382 0
 1233 0030 244B     		ldr	r3, .L72
 1234 0032 5B88     		ldrh	r3, [r3, #2]
 1235 0034 5A1E     		subs	r2, r3, #1
 1236 0036 2449     		ldr	r1, .L72+4
 1237 0038 1300     		movs	r3, r2
 1238 003a 9B00     		lsls	r3, r3, #2
 1239 003c 9B18     		adds	r3, r3, r2
 1240 003e 9B00     		lsls	r3, r3, #2
 1241 0040 CB18     		adds	r3, r1, r3
 1242 0042 1033     		adds	r3, r3, #16
 1243 0044 1B68     		ldr	r3, [r3]
 1244 0046 1A88     		ldrh	r2, [r3]
 1245 0048 0F23     		movs	r3, #15
 1246 004a FB18     		adds	r3, r7, r3
 1247 004c 1A70     		strb	r2, [r3]
1383:Generated_Source\PSoC4/BLE.c **** 
1384:Generated_Source\PSoC4/BLE.c ****             /* Copy name from characteristic */
1385:Generated_Source\PSoC4/BLE.c ****             for(i = 0u; ((i < charLen) && (CYBLE_NULL_CHARCTER != ptr[i])); i++)
 1248              		.loc 1 1385 0
 1249 004e 1523     		movs	r3, #21
 1250 0050 FB18     		adds	r3, r7, r3
 1251 0052 0022     		movs	r2, #0
 1252 0054 1A70     		strb	r2, [r3]
 1253 0056 12E0     		b	.L67
 1254              	.L69:
1386:Generated_Source\PSoC4/BLE.c ****             {
1387:Generated_Source\PSoC4/BLE.c ****                 name[i] = ptr[i];
 1255              		.loc 1 1387 0 discriminator 4
 1256 0058 1523     		movs	r3, #21
 1257 005a FB18     		adds	r3, r7, r3
 1258 005c 1B78     		ldrb	r3, [r3]
 1259 005e 7A68     		ldr	r2, [r7, #4]
 1260 0060 D318     		adds	r3, r2, r3
 1261 0062 1522     		movs	r2, #21
 1262 0064 BA18     		adds	r2, r7, r2
 1263 0066 1278     		ldrb	r2, [r2]
 1264 0068 3969     		ldr	r1, [r7, #16]
 1265 006a 8A18     		adds	r2, r1, r2
 1266 006c 1278     		ldrb	r2, [r2]
 1267 006e 1A70     		strb	r2, [r3]
1385:Generated_Source\PSoC4/BLE.c ****             {
 1268              		.loc 1 1385 0 discriminator 4
 1269 0070 1523     		movs	r3, #21
 1270 0072 FB18     		adds	r3, r7, r3
 1271 0074 1A78     		ldrb	r2, [r3]
 1272 0076 1523     		movs	r3, #21
 1273 0078 FB18     		adds	r3, r7, r3
 1274 007a 0132     		adds	r2, r2, #1
ARM GAS  C:\Users\Elea\AppData\Local\Temp\ccp943mU.s 			page 48


 1275 007c 1A70     		strb	r2, [r3]
 1276              	.L67:
1385:Generated_Source\PSoC4/BLE.c ****             {
 1277              		.loc 1 1385 0 is_stmt 0 discriminator 1
 1278 007e 1523     		movs	r3, #21
 1279 0080 FA18     		adds	r2, r7, r3
 1280 0082 0F23     		movs	r3, #15
 1281 0084 FB18     		adds	r3, r7, r3
 1282 0086 1278     		ldrb	r2, [r2]
 1283 0088 1B78     		ldrb	r3, [r3]
 1284 008a 9A42     		cmp	r2, r3
 1285 008c 07D2     		bcs	.L68
1385:Generated_Source\PSoC4/BLE.c ****             {
 1286              		.loc 1 1385 0 discriminator 3
 1287 008e 1523     		movs	r3, #21
 1288 0090 FB18     		adds	r3, r7, r3
 1289 0092 1B78     		ldrb	r3, [r3]
 1290 0094 3A69     		ldr	r2, [r7, #16]
 1291 0096 D318     		adds	r3, r2, r3
 1292 0098 1B78     		ldrb	r3, [r3]
 1293 009a 002B     		cmp	r3, #0
 1294 009c DCD1     		bne	.L69
 1295              	.L68:
1388:Generated_Source\PSoC4/BLE.c ****             }
1389:Generated_Source\PSoC4/BLE.c **** 
1390:Generated_Source\PSoC4/BLE.c ****             /* Terminate string */
1391:Generated_Source\PSoC4/BLE.c ****             name[i] = CYBLE_NULL_CHARCTER;
 1296              		.loc 1 1391 0 is_stmt 1
 1297 009e 1523     		movs	r3, #21
 1298 00a0 FB18     		adds	r3, r7, r3
 1299 00a2 1B78     		ldrb	r3, [r3]
 1300 00a4 7A68     		ldr	r2, [r7, #4]
 1301 00a6 D318     		adds	r3, r2, r3
 1302 00a8 0022     		movs	r2, #0
 1303 00aa 1A70     		strb	r2, [r3]
 1304 00ac 03E0     		b	.L70
 1305              	.L66:
1392:Generated_Source\PSoC4/BLE.c ****         }
1393:Generated_Source\PSoC4/BLE.c ****         else
1394:Generated_Source\PSoC4/BLE.c ****         {
1395:Generated_Source\PSoC4/BLE.c ****             apiResult = CYBLE_ERROR_INVALID_PARAMETER;
 1306              		.loc 1 1395 0
 1307 00ae 1623     		movs	r3, #22
 1308 00b0 FB18     		adds	r3, r7, r3
 1309 00b2 0122     		movs	r2, #1
 1310 00b4 1A80     		strh	r2, [r3]
 1311              	.L70:
1396:Generated_Source\PSoC4/BLE.c ****         }
1397:Generated_Source\PSoC4/BLE.c ****         
1398:Generated_Source\PSoC4/BLE.c ****         return(apiResult);
 1312              		.loc 1 1398 0
 1313 00b6 1623     		movs	r3, #22
 1314 00b8 FB18     		adds	r3, r7, r3
 1315 00ba 1B88     		ldrh	r3, [r3]
1399:Generated_Source\PSoC4/BLE.c ****     }
 1316              		.loc 1 1399 0
 1317 00bc 1800     		movs	r0, r3
ARM GAS  C:\Users\Elea\AppData\Local\Temp\ccp943mU.s 			page 49


 1318 00be BD46     		mov	sp, r7
 1319 00c0 06B0     		add	sp, sp, #24
 1320              		@ sp needed
 1321 00c2 80BD     		pop	{r7, pc}
 1322              	.L73:
 1323              		.align	2
 1324              	.L72:
 1325 00c4 00000000 		.word	cyBle_gaps
 1326 00c8 00000000 		.word	cyBle_gattDB
 1327              		.cfi_endproc
 1328              	.LFE11:
 1329              		.size	CyBle_GapGetLocalName, .-CyBle_GapGetLocalName
 1330              		.section	.text.CyBle_Get16ByPtr,"ax",%progbits
 1331              		.align	2
 1332              		.global	CyBle_Get16ByPtr
 1333              		.code	16
 1334              		.thumb_func
 1335              		.type	CyBle_Get16ByPtr, %function
 1336              	CyBle_Get16ByPtr:
 1337              	.LFB12:
1400:Generated_Source\PSoC4/BLE.c **** 
1401:Generated_Source\PSoC4/BLE.c **** #endif /* (CYBLE_GATT_ROLE_SERVER) */
1402:Generated_Source\PSoC4/BLE.c **** 
1403:Generated_Source\PSoC4/BLE.c **** 
1404:Generated_Source\PSoC4/BLE.c **** /******************************************************************************
1405:Generated_Source\PSoC4/BLE.c **** * Function Name: CyBle_Get16ByPtr
1406:Generated_Source\PSoC4/BLE.c **** ***************************************************************************//**
1407:Generated_Source\PSoC4/BLE.c **** * 
1408:Generated_Source\PSoC4/BLE.c **** *  Returns the two-bytes value by using a pointer to the LSB.
1409:Generated_Source\PSoC4/BLE.c **** * 
1410:Generated_Source\PSoC4/BLE.c **** *  \param ptr: Pointer to the LSB of two-bytes data (little endian).
1411:Generated_Source\PSoC4/BLE.c **** * 
1412:Generated_Source\PSoC4/BLE.c **** *  \return
1413:Generated_Source\PSoC4/BLE.c **** *  uint16: Two-bytes data.
1414:Generated_Source\PSoC4/BLE.c **** * 
1415:Generated_Source\PSoC4/BLE.c **** ******************************************************************************/
1416:Generated_Source\PSoC4/BLE.c **** uint16 CyBle_Get16ByPtr(const uint8 ptr[])
1417:Generated_Source\PSoC4/BLE.c **** {
 1338              		.loc 1 1417 0
 1339              		.cfi_startproc
 1340              		@ args = 0, pretend = 0, frame = 8
 1341              		@ frame_needed = 1, uses_anonymous_args = 0
 1342 0000 80B5     		push	{r7, lr}
 1343              		.cfi_def_cfa_offset 8
 1344              		.cfi_offset 7, -8
 1345              		.cfi_offset 14, -4
 1346 0002 82B0     		sub	sp, sp, #8
 1347              		.cfi_def_cfa_offset 16
 1348 0004 00AF     		add	r7, sp, #0
 1349              		.cfi_def_cfa_register 7
 1350 0006 7860     		str	r0, [r7, #4]
1418:Generated_Source\PSoC4/BLE.c ****     return ((uint16) ptr[0u] | ((uint16) (((uint16) ptr[1u]) << 8u)));
 1351              		.loc 1 1418 0
 1352 0008 7B68     		ldr	r3, [r7, #4]
 1353 000a 1B78     		ldrb	r3, [r3]
 1354 000c 9AB2     		uxth	r2, r3
 1355 000e 7B68     		ldr	r3, [r7, #4]
ARM GAS  C:\Users\Elea\AppData\Local\Temp\ccp943mU.s 			page 50


 1356 0010 0133     		adds	r3, r3, #1
 1357 0012 1B78     		ldrb	r3, [r3]
 1358 0014 9BB2     		uxth	r3, r3
 1359 0016 1B02     		lsls	r3, r3, #8
 1360 0018 9BB2     		uxth	r3, r3
 1361 001a 1343     		orrs	r3, r2
 1362 001c 9BB2     		uxth	r3, r3
1419:Generated_Source\PSoC4/BLE.c **** }
 1363              		.loc 1 1419 0
 1364 001e 1800     		movs	r0, r3
 1365 0020 BD46     		mov	sp, r7
 1366 0022 02B0     		add	sp, sp, #8
 1367              		@ sp needed
 1368 0024 80BD     		pop	{r7, pc}
 1369              		.cfi_endproc
 1370              	.LFE12:
 1371              		.size	CyBle_Get16ByPtr, .-CyBle_Get16ByPtr
 1372 0026 C046     		.section	.text.CyBle_Set16ByPtr,"ax",%progbits
 1373              		.align	2
 1374              		.global	CyBle_Set16ByPtr
 1375              		.code	16
 1376              		.thumb_func
 1377              		.type	CyBle_Set16ByPtr, %function
 1378              	CyBle_Set16ByPtr:
 1379              	.LFB13:
1420:Generated_Source\PSoC4/BLE.c **** 
1421:Generated_Source\PSoC4/BLE.c **** 
1422:Generated_Source\PSoC4/BLE.c **** /******************************************************************************
1423:Generated_Source\PSoC4/BLE.c **** * Function Name: CyBle_Set16ByPtr
1424:Generated_Source\PSoC4/BLE.c **** ***************************************************************************//**
1425:Generated_Source\PSoC4/BLE.c **** * 
1426:Generated_Source\PSoC4/BLE.c **** *  Sets the two-bytes value by using a pointer to the LSB.
1427:Generated_Source\PSoC4/BLE.c **** * 
1428:Generated_Source\PSoC4/BLE.c **** *  \param ptr:    Pointer to the LSB of two-bytes data (little endian).
1429:Generated_Source\PSoC4/BLE.c **** *  \param value:  Two-bytes data to be written.
1430:Generated_Source\PSoC4/BLE.c **** * 
1431:Generated_Source\PSoC4/BLE.c **** *  \return
1432:Generated_Source\PSoC4/BLE.c **** *  None
1433:Generated_Source\PSoC4/BLE.c **** * 
1434:Generated_Source\PSoC4/BLE.c **** ******************************************************************************/
1435:Generated_Source\PSoC4/BLE.c **** void CyBle_Set16ByPtr(uint8 ptr[], uint16 value)
1436:Generated_Source\PSoC4/BLE.c **** {
 1380              		.loc 1 1436 0
 1381              		.cfi_startproc
 1382              		@ args = 0, pretend = 0, frame = 8
 1383              		@ frame_needed = 1, uses_anonymous_args = 0
 1384 0000 80B5     		push	{r7, lr}
 1385              		.cfi_def_cfa_offset 8
 1386              		.cfi_offset 7, -8
 1387              		.cfi_offset 14, -4
 1388 0002 82B0     		sub	sp, sp, #8
 1389              		.cfi_def_cfa_offset 16
 1390 0004 00AF     		add	r7, sp, #0
 1391              		.cfi_def_cfa_register 7
 1392 0006 7860     		str	r0, [r7, #4]
 1393 0008 0A00     		movs	r2, r1
 1394 000a BB1C     		adds	r3, r7, #2
ARM GAS  C:\Users\Elea\AppData\Local\Temp\ccp943mU.s 			page 51


 1395 000c 1A80     		strh	r2, [r3]
1437:Generated_Source\PSoC4/BLE.c ****     ptr[0u] = (uint8) value;
 1396              		.loc 1 1437 0
 1397 000e BB1C     		adds	r3, r7, #2
 1398 0010 1B88     		ldrh	r3, [r3]
 1399 0012 DAB2     		uxtb	r2, r3
 1400 0014 7B68     		ldr	r3, [r7, #4]
 1401 0016 1A70     		strb	r2, [r3]
1438:Generated_Source\PSoC4/BLE.c ****     ptr[1u] = (uint8) (value >> 8u);
 1402              		.loc 1 1438 0
 1403 0018 7B68     		ldr	r3, [r7, #4]
 1404 001a 0133     		adds	r3, r3, #1
 1405 001c BA1C     		adds	r2, r7, #2
 1406 001e 1288     		ldrh	r2, [r2]
 1407 0020 120A     		lsrs	r2, r2, #8
 1408 0022 92B2     		uxth	r2, r2
 1409 0024 D2B2     		uxtb	r2, r2
 1410 0026 1A70     		strb	r2, [r3]
1439:Generated_Source\PSoC4/BLE.c **** }
 1411              		.loc 1 1439 0
 1412 0028 C046     		nop
 1413 002a BD46     		mov	sp, r7
 1414 002c 02B0     		add	sp, sp, #8
 1415              		@ sp needed
 1416 002e 80BD     		pop	{r7, pc}
 1417              		.cfi_endproc
 1418              	.LFE13:
 1419              		.size	CyBle_Set16ByPtr, .-CyBle_Set16ByPtr
 1420              		.text
 1421              	.Letext0:
 1422              		.file 2 "Generated_Source\\PSoC4\\cytypes.h"
 1423              		.file 3 "Generated_Source\\PSoC4\\BLE_Stack.h"
 1424              		.file 4 "Generated_Source\\PSoC4\\BLE_StackGap.h"
 1425              		.file 5 "Generated_Source\\PSoC4\\BLE_StackGatt.h"
 1426              		.file 6 "Generated_Source\\PSoC4\\BLE_StackGattDb.h"
 1427              		.file 7 "Generated_Source\\PSoC4\\BLE.h"
 1428              		.file 8 "Generated_Source\\PSoC4\\BLE_eventHandler.h"
 1429              		.file 9 "Generated_Source\\PSoC4\\BLE_gatt.h"
