ARM GAS  C:\Users\Alex\AppData\Local\Temp\cc6NPnDA.s 			page 1


   1              		.syntax unified
   2              		.cpu cortex-m0
   3              		.fpu softvfp
   4              		.eabi_attribute 20, 1
   5              		.eabi_attribute 21, 1
   6              		.eabi_attribute 23, 3
   7              		.eabi_attribute 24, 1
   8              		.eabi_attribute 25, 1
   9              		.eabi_attribute 26, 1
  10              		.eabi_attribute 30, 6
  11              		.eabi_attribute 34, 0
  12              		.eabi_attribute 18, 4
  13              		.thumb
  14              		.syntax unified
  15              		.file	"Buttons.c"
  16              		.text
  17              	.Ltext0:
  18              		.cfi_sections	.debug_frame
  19              		.section	.text.Buttons_SetDriveMode,"ax",%progbits
  20              		.align	2
  21              		.global	Buttons_SetDriveMode
  22              		.code	16
  23              		.thumb_func
  24              		.type	Buttons_SetDriveMode, %function
  25              	Buttons_SetDriveMode:
  26              	.LFB0:
  27              		.file 1 "Generated_Source\\PSoC4\\Buttons.c"
   1:Generated_Source\PSoC4/Buttons.c **** /*******************************************************************************
   2:Generated_Source\PSoC4/Buttons.c **** * File Name: Buttons.c  
   3:Generated_Source\PSoC4/Buttons.c **** * Version 2.20
   4:Generated_Source\PSoC4/Buttons.c **** *
   5:Generated_Source\PSoC4/Buttons.c **** * Description:
   6:Generated_Source\PSoC4/Buttons.c **** *  This file contains API to enable firmware control of a Pins component.
   7:Generated_Source\PSoC4/Buttons.c **** *
   8:Generated_Source\PSoC4/Buttons.c **** ********************************************************************************
   9:Generated_Source\PSoC4/Buttons.c **** * Copyright 2008-2015, Cypress Semiconductor Corporation.  All rights reserved.
  10:Generated_Source\PSoC4/Buttons.c **** * You may use this file only in accordance with the license, terms, conditions, 
  11:Generated_Source\PSoC4/Buttons.c **** * disclaimers, and limitations in the end user license agreement accompanying 
  12:Generated_Source\PSoC4/Buttons.c **** * the software package with which this file was provided.
  13:Generated_Source\PSoC4/Buttons.c **** *******************************************************************************/
  14:Generated_Source\PSoC4/Buttons.c **** 
  15:Generated_Source\PSoC4/Buttons.c **** #include "cytypes.h"
  16:Generated_Source\PSoC4/Buttons.c **** #include "Buttons.h"
  17:Generated_Source\PSoC4/Buttons.c **** 
  18:Generated_Source\PSoC4/Buttons.c **** 
  19:Generated_Source\PSoC4/Buttons.c **** #if defined(Buttons__PC)
  20:Generated_Source\PSoC4/Buttons.c ****     #define Buttons_SetP4PinDriveMode(shift, mode)  \
  21:Generated_Source\PSoC4/Buttons.c ****     do { \
  22:Generated_Source\PSoC4/Buttons.c ****         Buttons_PC =   (Buttons_PC & \
  23:Generated_Source\PSoC4/Buttons.c ****                                 (uint32)(~(uint32)(Buttons_DRIVE_MODE_IND_MASK << \
  24:Generated_Source\PSoC4/Buttons.c ****                                 (Buttons_DRIVE_MODE_BITS * (shift))))) | \
  25:Generated_Source\PSoC4/Buttons.c ****                                 (uint32)((uint32)(mode) << \
  26:Generated_Source\PSoC4/Buttons.c ****                                 (Buttons_DRIVE_MODE_BITS * (shift))); \
  27:Generated_Source\PSoC4/Buttons.c ****     } while (0)
  28:Generated_Source\PSoC4/Buttons.c **** #else
  29:Generated_Source\PSoC4/Buttons.c ****     #if (CY_PSOC4_4200L)
  30:Generated_Source\PSoC4/Buttons.c ****         #define Buttons_SetP4PinDriveMode(shift, mode)  \
ARM GAS  C:\Users\Alex\AppData\Local\Temp\cc6NPnDA.s 			page 2


  31:Generated_Source\PSoC4/Buttons.c ****         do { \
  32:Generated_Source\PSoC4/Buttons.c ****             Buttons_USBIO_CTRL_REG = (Buttons_USBIO_CTRL_REG & \
  33:Generated_Source\PSoC4/Buttons.c ****                                     (uint32)(~(uint32)(Buttons_DRIVE_MODE_IND_MASK << \
  34:Generated_Source\PSoC4/Buttons.c ****                                     (Buttons_DRIVE_MODE_BITS * (shift))))) | \
  35:Generated_Source\PSoC4/Buttons.c ****                                     (uint32)((uint32)(mode) << \
  36:Generated_Source\PSoC4/Buttons.c ****                                     (Buttons_DRIVE_MODE_BITS * (shift))); \
  37:Generated_Source\PSoC4/Buttons.c ****         } while (0)
  38:Generated_Source\PSoC4/Buttons.c ****     #endif
  39:Generated_Source\PSoC4/Buttons.c **** #endif
  40:Generated_Source\PSoC4/Buttons.c ****   
  41:Generated_Source\PSoC4/Buttons.c **** 
  42:Generated_Source\PSoC4/Buttons.c **** #if defined(Buttons__PC) || (CY_PSOC4_4200L) 
  43:Generated_Source\PSoC4/Buttons.c ****     /*******************************************************************************
  44:Generated_Source\PSoC4/Buttons.c ****     * Function Name: Buttons_SetDriveMode
  45:Generated_Source\PSoC4/Buttons.c ****     ****************************************************************************//**
  46:Generated_Source\PSoC4/Buttons.c ****     *
  47:Generated_Source\PSoC4/Buttons.c ****     * \brief Sets the drive mode for each of the Pins component's pins.
  48:Generated_Source\PSoC4/Buttons.c ****     * 
  49:Generated_Source\PSoC4/Buttons.c ****     * <b>Note</b> This affects all pins in the Pins component instance. Use the
  50:Generated_Source\PSoC4/Buttons.c ****     * Per-Pin APIs if you wish to control individual pin's drive modes.
  51:Generated_Source\PSoC4/Buttons.c ****     *
  52:Generated_Source\PSoC4/Buttons.c ****     * <b>Note</b> USBIOs have limited drive functionality. Refer to the Drive Mode
  53:Generated_Source\PSoC4/Buttons.c ****     * parameter for more information.
  54:Generated_Source\PSoC4/Buttons.c ****     *
  55:Generated_Source\PSoC4/Buttons.c ****     * \param mode
  56:Generated_Source\PSoC4/Buttons.c ****     *  Mode for the selected signals. Valid options are documented in 
  57:Generated_Source\PSoC4/Buttons.c ****     *  \ref driveMode.
  58:Generated_Source\PSoC4/Buttons.c ****     *
  59:Generated_Source\PSoC4/Buttons.c ****     * \return
  60:Generated_Source\PSoC4/Buttons.c ****     *  None
  61:Generated_Source\PSoC4/Buttons.c ****     *
  62:Generated_Source\PSoC4/Buttons.c ****     * \sideeffect
  63:Generated_Source\PSoC4/Buttons.c ****     *  If you use read-modify-write operations that are not atomic, the ISR can
  64:Generated_Source\PSoC4/Buttons.c ****     *  cause corruption of this function. An ISR that interrupts this function 
  65:Generated_Source\PSoC4/Buttons.c ****     *  and performs writes to the Pins component Drive Mode registers can cause 
  66:Generated_Source\PSoC4/Buttons.c ****     *  corrupted port data. To avoid this issue, you should either use the Per-Pin
  67:Generated_Source\PSoC4/Buttons.c ****     *  APIs (primary method) or disable interrupts around this function.
  68:Generated_Source\PSoC4/Buttons.c ****     *
  69:Generated_Source\PSoC4/Buttons.c ****     * \funcusage
  70:Generated_Source\PSoC4/Buttons.c ****     *  \snippet Buttons_SUT.c usage_Buttons_SetDriveMode
  71:Generated_Source\PSoC4/Buttons.c ****     *******************************************************************************/
  72:Generated_Source\PSoC4/Buttons.c ****     void Buttons_SetDriveMode(uint8 mode)
  73:Generated_Source\PSoC4/Buttons.c ****     {
  28              		.loc 1 73 0
  29              		.cfi_startproc
  30              		@ args = 0, pretend = 0, frame = 8
  31              		@ frame_needed = 1, uses_anonymous_args = 0
  32 0000 80B5     		push	{r7, lr}
  33              		.cfi_def_cfa_offset 8
  34              		.cfi_offset 7, -8
  35              		.cfi_offset 14, -4
  36 0002 82B0     		sub	sp, sp, #8
  37              		.cfi_def_cfa_offset 16
  38 0004 00AF     		add	r7, sp, #0
  39              		.cfi_def_cfa_register 7
  40 0006 0200     		movs	r2, r0
  41 0008 FB1D     		adds	r3, r7, #7
ARM GAS  C:\Users\Alex\AppData\Local\Temp\cc6NPnDA.s 			page 3


  42 000a 1A70     		strb	r2, [r3]
  74:Generated_Source\PSoC4/Buttons.c **** 		Buttons_SetP4PinDriveMode(Buttons__0__SHIFT, mode);
  43              		.loc 1 74 0
  44 000c 0B4B     		ldr	r3, .L2
  45 000e 0B4A     		ldr	r2, .L2
  46 0010 1268     		ldr	r2, [r2]
  47 0012 0B49     		ldr	r1, .L2+4
  48 0014 1140     		ands	r1, r2
  49 0016 FA1D     		adds	r2, r7, #7
  50 0018 1278     		ldrb	r2, [r2]
  51 001a 9201     		lsls	r2, r2, #6
  52 001c 0A43     		orrs	r2, r1
  53 001e 1A60     		str	r2, [r3]
  75:Generated_Source\PSoC4/Buttons.c **** 		Buttons_SetP4PinDriveMode(Buttons__1__SHIFT, mode);
  54              		.loc 1 75 0
  55 0020 064B     		ldr	r3, .L2
  56 0022 064A     		ldr	r2, .L2
  57 0024 1268     		ldr	r2, [r2]
  58 0026 0749     		ldr	r1, .L2+8
  59 0028 1140     		ands	r1, r2
  60 002a FA1D     		adds	r2, r7, #7
  61 002c 1278     		ldrb	r2, [r2]
  62 002e 5202     		lsls	r2, r2, #9
  63 0030 0A43     		orrs	r2, r1
  64 0032 1A60     		str	r2, [r3]
  76:Generated_Source\PSoC4/Buttons.c ****     }
  65              		.loc 1 76 0
  66 0034 C046     		nop
  67 0036 BD46     		mov	sp, r7
  68 0038 02B0     		add	sp, sp, #8
  69              		@ sp needed
  70 003a 80BD     		pop	{r7, pc}
  71              	.L3:
  72              		.align	2
  73              	.L2:
  74 003c 08020440 		.word	1074004488
  75 0040 3FFEFFFF 		.word	-449
  76 0044 FFF1FFFF 		.word	-3585
  77              		.cfi_endproc
  78              	.LFE0:
  79              		.size	Buttons_SetDriveMode, .-Buttons_SetDriveMode
  80              		.section	.text.Buttons_Write,"ax",%progbits
  81              		.align	2
  82              		.global	Buttons_Write
  83              		.code	16
  84              		.thumb_func
  85              		.type	Buttons_Write, %function
  86              	Buttons_Write:
  87              	.LFB1:
  77:Generated_Source\PSoC4/Buttons.c **** #endif
  78:Generated_Source\PSoC4/Buttons.c **** 
  79:Generated_Source\PSoC4/Buttons.c **** 
  80:Generated_Source\PSoC4/Buttons.c **** /*******************************************************************************
  81:Generated_Source\PSoC4/Buttons.c **** * Function Name: Buttons_Write
  82:Generated_Source\PSoC4/Buttons.c **** ****************************************************************************//**
  83:Generated_Source\PSoC4/Buttons.c **** *
  84:Generated_Source\PSoC4/Buttons.c **** * \brief Writes the value to the physical port (data output register), masking
ARM GAS  C:\Users\Alex\AppData\Local\Temp\cc6NPnDA.s 			page 4


  85:Generated_Source\PSoC4/Buttons.c **** *  and shifting the bits appropriately. 
  86:Generated_Source\PSoC4/Buttons.c **** *
  87:Generated_Source\PSoC4/Buttons.c **** * The data output register controls the signal applied to the physical pin in 
  88:Generated_Source\PSoC4/Buttons.c **** * conjunction with the drive mode parameter. This function avoids changing 
  89:Generated_Source\PSoC4/Buttons.c **** * other bits in the port by using the appropriate method (read-modify-write or
  90:Generated_Source\PSoC4/Buttons.c **** * bit banding).
  91:Generated_Source\PSoC4/Buttons.c **** *
  92:Generated_Source\PSoC4/Buttons.c **** * <b>Note</b> This function should not be used on a hardware digital output pin 
  93:Generated_Source\PSoC4/Buttons.c **** * as it is driven by the hardware signal attached to it.
  94:Generated_Source\PSoC4/Buttons.c **** *
  95:Generated_Source\PSoC4/Buttons.c **** * \param value
  96:Generated_Source\PSoC4/Buttons.c **** *  Value to write to the component instance.
  97:Generated_Source\PSoC4/Buttons.c **** *
  98:Generated_Source\PSoC4/Buttons.c **** * \return 
  99:Generated_Source\PSoC4/Buttons.c **** *  None 
 100:Generated_Source\PSoC4/Buttons.c **** *
 101:Generated_Source\PSoC4/Buttons.c **** * \sideeffect
 102:Generated_Source\PSoC4/Buttons.c **** *  If you use read-modify-write operations that are not atomic; the Interrupt 
 103:Generated_Source\PSoC4/Buttons.c **** *  Service Routines (ISR) can cause corruption of this function. An ISR that 
 104:Generated_Source\PSoC4/Buttons.c **** *  interrupts this function and performs writes to the Pins component data 
 105:Generated_Source\PSoC4/Buttons.c **** *  register can cause corrupted port data. To avoid this issue, you should 
 106:Generated_Source\PSoC4/Buttons.c **** *  either use the Per-Pin APIs (primary method) or disable interrupts around 
 107:Generated_Source\PSoC4/Buttons.c **** *  this function.
 108:Generated_Source\PSoC4/Buttons.c **** *
 109:Generated_Source\PSoC4/Buttons.c **** * \funcusage
 110:Generated_Source\PSoC4/Buttons.c **** *  \snippet Buttons_SUT.c usage_Buttons_Write
 111:Generated_Source\PSoC4/Buttons.c **** *******************************************************************************/
 112:Generated_Source\PSoC4/Buttons.c **** void Buttons_Write(uint8 value)
 113:Generated_Source\PSoC4/Buttons.c **** {
  88              		.loc 1 113 0
  89              		.cfi_startproc
  90              		@ args = 0, pretend = 0, frame = 16
  91              		@ frame_needed = 1, uses_anonymous_args = 0
  92 0000 80B5     		push	{r7, lr}
  93              		.cfi_def_cfa_offset 8
  94              		.cfi_offset 7, -8
  95              		.cfi_offset 14, -4
  96 0002 84B0     		sub	sp, sp, #16
  97              		.cfi_def_cfa_offset 24
  98 0004 00AF     		add	r7, sp, #0
  99              		.cfi_def_cfa_register 7
 100 0006 0200     		movs	r2, r0
 101 0008 FB1D     		adds	r3, r7, #7
 102 000a 1A70     		strb	r2, [r3]
 114:Generated_Source\PSoC4/Buttons.c ****     uint8 drVal = (uint8)(Buttons_DR & (uint8)(~Buttons_MASK));
 103              		.loc 1 114 0
 104 000c 0F4B     		ldr	r3, .L5
 105 000e 1B68     		ldr	r3, [r3]
 106 0010 DAB2     		uxtb	r2, r3
 107 0012 0F23     		movs	r3, #15
 108 0014 FB18     		adds	r3, r7, r3
 109 0016 0C21     		movs	r1, #12
 110 0018 8A43     		bics	r2, r1
 111 001a 1A70     		strb	r2, [r3]
 115:Generated_Source\PSoC4/Buttons.c ****     drVal = (drVal | ((uint8)(value << Buttons_SHIFT) & Buttons_MASK));
 112              		.loc 1 115 0
 113 001c FB1D     		adds	r3, r7, #7
ARM GAS  C:\Users\Alex\AppData\Local\Temp\cc6NPnDA.s 			page 5


 114 001e 1B78     		ldrb	r3, [r3]
 115 0020 9B00     		lsls	r3, r3, #2
 116 0022 DBB2     		uxtb	r3, r3
 117 0024 0C22     		movs	r2, #12
 118 0026 1340     		ands	r3, r2
 119 0028 D9B2     		uxtb	r1, r3
 120 002a 0F23     		movs	r3, #15
 121 002c FB18     		adds	r3, r7, r3
 122 002e 0F22     		movs	r2, #15
 123 0030 BA18     		adds	r2, r7, r2
 124 0032 1278     		ldrb	r2, [r2]
 125 0034 0A43     		orrs	r2, r1
 126 0036 1A70     		strb	r2, [r3]
 116:Generated_Source\PSoC4/Buttons.c ****     Buttons_DR = (uint32)drVal;
 127              		.loc 1 116 0
 128 0038 044B     		ldr	r3, .L5
 129 003a 0F22     		movs	r2, #15
 130 003c BA18     		adds	r2, r7, r2
 131 003e 1278     		ldrb	r2, [r2]
 132 0040 1A60     		str	r2, [r3]
 117:Generated_Source\PSoC4/Buttons.c **** }
 133              		.loc 1 117 0
 134 0042 C046     		nop
 135 0044 BD46     		mov	sp, r7
 136 0046 04B0     		add	sp, sp, #16
 137              		@ sp needed
 138 0048 80BD     		pop	{r7, pc}
 139              	.L6:
 140 004a C046     		.align	2
 141              	.L5:
 142 004c 00020440 		.word	1074004480
 143              		.cfi_endproc
 144              	.LFE1:
 145              		.size	Buttons_Write, .-Buttons_Write
 146              		.section	.text.Buttons_Read,"ax",%progbits
 147              		.align	2
 148              		.global	Buttons_Read
 149              		.code	16
 150              		.thumb_func
 151              		.type	Buttons_Read, %function
 152              	Buttons_Read:
 153              	.LFB2:
 118:Generated_Source\PSoC4/Buttons.c **** 
 119:Generated_Source\PSoC4/Buttons.c **** 
 120:Generated_Source\PSoC4/Buttons.c **** /*******************************************************************************
 121:Generated_Source\PSoC4/Buttons.c **** * Function Name: Buttons_Read
 122:Generated_Source\PSoC4/Buttons.c **** ****************************************************************************//**
 123:Generated_Source\PSoC4/Buttons.c **** *
 124:Generated_Source\PSoC4/Buttons.c **** * \brief Reads the associated physical port (pin status register) and masks 
 125:Generated_Source\PSoC4/Buttons.c **** *  the required bits according to the width and bit position of the component
 126:Generated_Source\PSoC4/Buttons.c **** *  instance. 
 127:Generated_Source\PSoC4/Buttons.c **** *
 128:Generated_Source\PSoC4/Buttons.c **** * The pin's status register returns the current logic level present on the 
 129:Generated_Source\PSoC4/Buttons.c **** * physical pin.
 130:Generated_Source\PSoC4/Buttons.c **** *
 131:Generated_Source\PSoC4/Buttons.c **** * \return 
 132:Generated_Source\PSoC4/Buttons.c **** *  The current value for the pins in the component as a right justified number.
ARM GAS  C:\Users\Alex\AppData\Local\Temp\cc6NPnDA.s 			page 6


 133:Generated_Source\PSoC4/Buttons.c **** *
 134:Generated_Source\PSoC4/Buttons.c **** * \funcusage
 135:Generated_Source\PSoC4/Buttons.c **** *  \snippet Buttons_SUT.c usage_Buttons_Read  
 136:Generated_Source\PSoC4/Buttons.c **** *******************************************************************************/
 137:Generated_Source\PSoC4/Buttons.c **** uint8 Buttons_Read(void)
 138:Generated_Source\PSoC4/Buttons.c **** {
 154              		.loc 1 138 0
 155              		.cfi_startproc
 156              		@ args = 0, pretend = 0, frame = 0
 157              		@ frame_needed = 1, uses_anonymous_args = 0
 158 0000 80B5     		push	{r7, lr}
 159              		.cfi_def_cfa_offset 8
 160              		.cfi_offset 7, -8
 161              		.cfi_offset 14, -4
 162 0002 00AF     		add	r7, sp, #0
 163              		.cfi_def_cfa_register 7
 139:Generated_Source\PSoC4/Buttons.c ****     return (uint8)((Buttons_PS & Buttons_MASK) >> Buttons_SHIFT);
 164              		.loc 1 139 0
 165 0004 044B     		ldr	r3, .L9
 166 0006 1B68     		ldr	r3, [r3]
 167 0008 0C22     		movs	r2, #12
 168 000a 1340     		ands	r3, r2
 169 000c 9B08     		lsrs	r3, r3, #2
 170 000e DBB2     		uxtb	r3, r3
 140:Generated_Source\PSoC4/Buttons.c **** }
 171              		.loc 1 140 0
 172 0010 1800     		movs	r0, r3
 173 0012 BD46     		mov	sp, r7
 174              		@ sp needed
 175 0014 80BD     		pop	{r7, pc}
 176              	.L10:
 177 0016 C046     		.align	2
 178              	.L9:
 179 0018 04020440 		.word	1074004484
 180              		.cfi_endproc
 181              	.LFE2:
 182              		.size	Buttons_Read, .-Buttons_Read
 183              		.section	.text.Buttons_ReadDataReg,"ax",%progbits
 184              		.align	2
 185              		.global	Buttons_ReadDataReg
 186              		.code	16
 187              		.thumb_func
 188              		.type	Buttons_ReadDataReg, %function
 189              	Buttons_ReadDataReg:
 190              	.LFB3:
 141:Generated_Source\PSoC4/Buttons.c **** 
 142:Generated_Source\PSoC4/Buttons.c **** 
 143:Generated_Source\PSoC4/Buttons.c **** /*******************************************************************************
 144:Generated_Source\PSoC4/Buttons.c **** * Function Name: Buttons_ReadDataReg
 145:Generated_Source\PSoC4/Buttons.c **** ****************************************************************************//**
 146:Generated_Source\PSoC4/Buttons.c **** *
 147:Generated_Source\PSoC4/Buttons.c **** * \brief Reads the associated physical port's data output register and masks 
 148:Generated_Source\PSoC4/Buttons.c **** *  the correct bits according to the width and bit position of the component 
 149:Generated_Source\PSoC4/Buttons.c **** *  instance. 
 150:Generated_Source\PSoC4/Buttons.c **** *
 151:Generated_Source\PSoC4/Buttons.c **** * The data output register controls the signal applied to the physical pin in 
 152:Generated_Source\PSoC4/Buttons.c **** * conjunction with the drive mode parameter. This is not the same as the 
ARM GAS  C:\Users\Alex\AppData\Local\Temp\cc6NPnDA.s 			page 7


 153:Generated_Source\PSoC4/Buttons.c **** * preferred Buttons_Read() API because the 
 154:Generated_Source\PSoC4/Buttons.c **** * Buttons_ReadDataReg() reads the data register instead of the status 
 155:Generated_Source\PSoC4/Buttons.c **** * register. For output pins this is a useful function to determine the value 
 156:Generated_Source\PSoC4/Buttons.c **** * just written to the pin.
 157:Generated_Source\PSoC4/Buttons.c **** *
 158:Generated_Source\PSoC4/Buttons.c **** * \return 
 159:Generated_Source\PSoC4/Buttons.c **** *  The current value of the data register masked and shifted into a right 
 160:Generated_Source\PSoC4/Buttons.c **** *  justified number for the component instance.
 161:Generated_Source\PSoC4/Buttons.c **** *
 162:Generated_Source\PSoC4/Buttons.c **** * \funcusage
 163:Generated_Source\PSoC4/Buttons.c **** *  \snippet Buttons_SUT.c usage_Buttons_ReadDataReg 
 164:Generated_Source\PSoC4/Buttons.c **** *******************************************************************************/
 165:Generated_Source\PSoC4/Buttons.c **** uint8 Buttons_ReadDataReg(void)
 166:Generated_Source\PSoC4/Buttons.c **** {
 191              		.loc 1 166 0
 192              		.cfi_startproc
 193              		@ args = 0, pretend = 0, frame = 0
 194              		@ frame_needed = 1, uses_anonymous_args = 0
 195 0000 80B5     		push	{r7, lr}
 196              		.cfi_def_cfa_offset 8
 197              		.cfi_offset 7, -8
 198              		.cfi_offset 14, -4
 199 0002 00AF     		add	r7, sp, #0
 200              		.cfi_def_cfa_register 7
 167:Generated_Source\PSoC4/Buttons.c ****     return (uint8)((Buttons_DR & Buttons_MASK) >> Buttons_SHIFT);
 201              		.loc 1 167 0
 202 0004 044B     		ldr	r3, .L13
 203 0006 1B68     		ldr	r3, [r3]
 204 0008 0C22     		movs	r2, #12
 205 000a 1340     		ands	r3, r2
 206 000c 9B08     		lsrs	r3, r3, #2
 207 000e DBB2     		uxtb	r3, r3
 168:Generated_Source\PSoC4/Buttons.c **** }
 208              		.loc 1 168 0
 209 0010 1800     		movs	r0, r3
 210 0012 BD46     		mov	sp, r7
 211              		@ sp needed
 212 0014 80BD     		pop	{r7, pc}
 213              	.L14:
 214 0016 C046     		.align	2
 215              	.L13:
 216 0018 00020440 		.word	1074004480
 217              		.cfi_endproc
 218              	.LFE3:
 219              		.size	Buttons_ReadDataReg, .-Buttons_ReadDataReg
 220              		.section	.text.Buttons_SetInterruptMode,"ax",%progbits
 221              		.align	2
 222              		.global	Buttons_SetInterruptMode
 223              		.code	16
 224              		.thumb_func
 225              		.type	Buttons_SetInterruptMode, %function
 226              	Buttons_SetInterruptMode:
 227              	.LFB4:
 169:Generated_Source\PSoC4/Buttons.c **** 
 170:Generated_Source\PSoC4/Buttons.c **** 
 171:Generated_Source\PSoC4/Buttons.c **** /*******************************************************************************
 172:Generated_Source\PSoC4/Buttons.c **** * Function Name: Buttons_SetInterruptMode
ARM GAS  C:\Users\Alex\AppData\Local\Temp\cc6NPnDA.s 			page 8


 173:Generated_Source\PSoC4/Buttons.c **** ****************************************************************************//**
 174:Generated_Source\PSoC4/Buttons.c **** *
 175:Generated_Source\PSoC4/Buttons.c **** * \brief Configures the interrupt mode for each of the Pins component's
 176:Generated_Source\PSoC4/Buttons.c **** *  pins. Alternatively you may set the interrupt mode for all the pins
 177:Generated_Source\PSoC4/Buttons.c **** *  specified in the Pins component.
 178:Generated_Source\PSoC4/Buttons.c **** *
 179:Generated_Source\PSoC4/Buttons.c **** *  <b>Note</b> The interrupt is port-wide and therefore any enabled pin
 180:Generated_Source\PSoC4/Buttons.c **** *  interrupt may trigger it.
 181:Generated_Source\PSoC4/Buttons.c **** *
 182:Generated_Source\PSoC4/Buttons.c **** * \param position
 183:Generated_Source\PSoC4/Buttons.c **** *  The pin position as listed in the Pins component. You may OR these to be 
 184:Generated_Source\PSoC4/Buttons.c **** *  able to configure the interrupt mode of multiple pins within a Pins 
 185:Generated_Source\PSoC4/Buttons.c **** *  component. Or you may use Buttons_INTR_ALL to configure the
 186:Generated_Source\PSoC4/Buttons.c **** *  interrupt mode of all the pins in the Pins component.       
 187:Generated_Source\PSoC4/Buttons.c **** *  - Buttons_0_INTR       (First pin in the list)
 188:Generated_Source\PSoC4/Buttons.c **** *  - Buttons_1_INTR       (Second pin in the list)
 189:Generated_Source\PSoC4/Buttons.c **** *  - ...
 190:Generated_Source\PSoC4/Buttons.c **** *  - Buttons_INTR_ALL     (All pins in Pins component)
 191:Generated_Source\PSoC4/Buttons.c **** *
 192:Generated_Source\PSoC4/Buttons.c **** * \param mode
 193:Generated_Source\PSoC4/Buttons.c **** *  Interrupt mode for the selected pins. Valid options are documented in
 194:Generated_Source\PSoC4/Buttons.c **** *  \ref intrMode.
 195:Generated_Source\PSoC4/Buttons.c **** *
 196:Generated_Source\PSoC4/Buttons.c **** * \return 
 197:Generated_Source\PSoC4/Buttons.c **** *  None
 198:Generated_Source\PSoC4/Buttons.c **** *  
 199:Generated_Source\PSoC4/Buttons.c **** * \sideeffect
 200:Generated_Source\PSoC4/Buttons.c **** *  It is recommended that the interrupt be disabled before calling this 
 201:Generated_Source\PSoC4/Buttons.c **** *  function to avoid unintended interrupt requests. Note that the interrupt
 202:Generated_Source\PSoC4/Buttons.c **** *  type is port wide, and therefore will trigger for any enabled pin on the 
 203:Generated_Source\PSoC4/Buttons.c **** *  port.
 204:Generated_Source\PSoC4/Buttons.c **** *
 205:Generated_Source\PSoC4/Buttons.c **** * \funcusage
 206:Generated_Source\PSoC4/Buttons.c **** *  \snippet Buttons_SUT.c usage_Buttons_SetInterruptMode
 207:Generated_Source\PSoC4/Buttons.c **** *******************************************************************************/
 208:Generated_Source\PSoC4/Buttons.c **** void Buttons_SetInterruptMode(uint16 position, uint16 mode)
 209:Generated_Source\PSoC4/Buttons.c **** {
 228              		.loc 1 209 0
 229              		.cfi_startproc
 230              		@ args = 0, pretend = 0, frame = 16
 231              		@ frame_needed = 1, uses_anonymous_args = 0
 232 0000 80B5     		push	{r7, lr}
 233              		.cfi_def_cfa_offset 8
 234              		.cfi_offset 7, -8
 235              		.cfi_offset 14, -4
 236 0002 84B0     		sub	sp, sp, #16
 237              		.cfi_def_cfa_offset 24
 238 0004 00AF     		add	r7, sp, #0
 239              		.cfi_def_cfa_register 7
 240 0006 0200     		movs	r2, r0
 241 0008 BB1D     		adds	r3, r7, #6
 242 000a 1A80     		strh	r2, [r3]
 243 000c 3B1D     		adds	r3, r7, #4
 244 000e 0A1C     		adds	r2, r1, #0
 245 0010 1A80     		strh	r2, [r3]
 210:Generated_Source\PSoC4/Buttons.c ****     uint32 intrCfg;
 211:Generated_Source\PSoC4/Buttons.c ****     
ARM GAS  C:\Users\Alex\AppData\Local\Temp\cc6NPnDA.s 			page 9


 212:Generated_Source\PSoC4/Buttons.c ****     intrCfg =  Buttons_INTCFG & (uint32)(~(uint32)position);
 246              		.loc 1 212 0
 247 0012 0B4B     		ldr	r3, .L16
 248 0014 1B68     		ldr	r3, [r3]
 249 0016 BA1D     		adds	r2, r7, #6
 250 0018 1288     		ldrh	r2, [r2]
 251 001a D243     		mvns	r2, r2
 252 001c 1340     		ands	r3, r2
 253 001e FB60     		str	r3, [r7, #12]
 213:Generated_Source\PSoC4/Buttons.c ****     Buttons_INTCFG = intrCfg | ((uint32)position & (uint32)mode);
 254              		.loc 1 213 0
 255 0020 074B     		ldr	r3, .L16
 256 0022 BA1D     		adds	r2, r7, #6
 257 0024 391D     		adds	r1, r7, #4
 258 0026 1288     		ldrh	r2, [r2]
 259 0028 0988     		ldrh	r1, [r1]
 260 002a 0A40     		ands	r2, r1
 261 002c 92B2     		uxth	r2, r2
 262 002e 1100     		movs	r1, r2
 263 0030 FA68     		ldr	r2, [r7, #12]
 264 0032 0A43     		orrs	r2, r1
 265 0034 1A60     		str	r2, [r3]
 214:Generated_Source\PSoC4/Buttons.c **** }
 266              		.loc 1 214 0
 267 0036 C046     		nop
 268 0038 BD46     		mov	sp, r7
 269 003a 04B0     		add	sp, sp, #16
 270              		@ sp needed
 271 003c 80BD     		pop	{r7, pc}
 272              	.L17:
 273 003e C046     		.align	2
 274              	.L16:
 275 0040 0C020440 		.word	1074004492
 276              		.cfi_endproc
 277              	.LFE4:
 278              		.size	Buttons_SetInterruptMode, .-Buttons_SetInterruptMode
 279              		.section	.text.Buttons_ClearInterrupt,"ax",%progbits
 280              		.align	2
 281              		.global	Buttons_ClearInterrupt
 282              		.code	16
 283              		.thumb_func
 284              		.type	Buttons_ClearInterrupt, %function
 285              	Buttons_ClearInterrupt:
 286              	.LFB5:
 215:Generated_Source\PSoC4/Buttons.c **** 
 216:Generated_Source\PSoC4/Buttons.c **** 
 217:Generated_Source\PSoC4/Buttons.c **** /*******************************************************************************
 218:Generated_Source\PSoC4/Buttons.c **** * Function Name: Buttons_ClearInterrupt
 219:Generated_Source\PSoC4/Buttons.c **** ****************************************************************************//**
 220:Generated_Source\PSoC4/Buttons.c **** *
 221:Generated_Source\PSoC4/Buttons.c **** * \brief Clears any active interrupts attached with the component and returns 
 222:Generated_Source\PSoC4/Buttons.c **** *  the value of the interrupt status register allowing determination of which
 223:Generated_Source\PSoC4/Buttons.c **** *  pins generated an interrupt event.
 224:Generated_Source\PSoC4/Buttons.c **** *
 225:Generated_Source\PSoC4/Buttons.c **** * \return 
 226:Generated_Source\PSoC4/Buttons.c **** *  The right-shifted current value of the interrupt status register. Each pin 
 227:Generated_Source\PSoC4/Buttons.c **** *  has one bit set if it generated an interrupt event. For example, bit 0 is 
ARM GAS  C:\Users\Alex\AppData\Local\Temp\cc6NPnDA.s 			page 10


 228:Generated_Source\PSoC4/Buttons.c **** *  for pin 0 and bit 1 is for pin 1 of the Pins component.
 229:Generated_Source\PSoC4/Buttons.c **** *  
 230:Generated_Source\PSoC4/Buttons.c **** * \sideeffect
 231:Generated_Source\PSoC4/Buttons.c **** *  Clears all bits of the physical port's interrupt status register, not just
 232:Generated_Source\PSoC4/Buttons.c **** *  those associated with the Pins component.
 233:Generated_Source\PSoC4/Buttons.c **** *
 234:Generated_Source\PSoC4/Buttons.c **** * \funcusage
 235:Generated_Source\PSoC4/Buttons.c **** *  \snippet Buttons_SUT.c usage_Buttons_ClearInterrupt
 236:Generated_Source\PSoC4/Buttons.c **** *******************************************************************************/
 237:Generated_Source\PSoC4/Buttons.c **** uint8 Buttons_ClearInterrupt(void)
 238:Generated_Source\PSoC4/Buttons.c **** {
 287              		.loc 1 238 0
 288              		.cfi_startproc
 289              		@ args = 0, pretend = 0, frame = 8
 290              		@ frame_needed = 1, uses_anonymous_args = 0
 291 0000 80B5     		push	{r7, lr}
 292              		.cfi_def_cfa_offset 8
 293              		.cfi_offset 7, -8
 294              		.cfi_offset 14, -4
 295 0002 82B0     		sub	sp, sp, #8
 296              		.cfi_def_cfa_offset 16
 297 0004 00AF     		add	r7, sp, #0
 298              		.cfi_def_cfa_register 7
 239:Generated_Source\PSoC4/Buttons.c **** 	uint8 maskedStatus = (uint8)(Buttons_INTSTAT & Buttons_MASK);
 299              		.loc 1 239 0
 300 0006 094B     		ldr	r3, .L20
 301 0008 1B68     		ldr	r3, [r3]
 302 000a DAB2     		uxtb	r2, r3
 303 000c FB1D     		adds	r3, r7, #7
 304 000e 0C21     		movs	r1, #12
 305 0010 0A40     		ands	r2, r1
 306 0012 1A70     		strb	r2, [r3]
 240:Generated_Source\PSoC4/Buttons.c **** 	Buttons_INTSTAT = maskedStatus;
 307              		.loc 1 240 0
 308 0014 054B     		ldr	r3, .L20
 309 0016 FA1D     		adds	r2, r7, #7
 310 0018 1278     		ldrb	r2, [r2]
 311 001a 1A60     		str	r2, [r3]
 241:Generated_Source\PSoC4/Buttons.c ****     return maskedStatus >> Buttons_SHIFT;
 312              		.loc 1 241 0
 313 001c FB1D     		adds	r3, r7, #7
 314 001e 1B78     		ldrb	r3, [r3]
 315 0020 9B08     		lsrs	r3, r3, #2
 316 0022 DBB2     		uxtb	r3, r3
 242:Generated_Source\PSoC4/Buttons.c **** }
 317              		.loc 1 242 0
 318 0024 1800     		movs	r0, r3
 319 0026 BD46     		mov	sp, r7
 320 0028 02B0     		add	sp, sp, #8
 321              		@ sp needed
 322 002a 80BD     		pop	{r7, pc}
 323              	.L21:
 324              		.align	2
 325              	.L20:
 326 002c 10020440 		.word	1074004496
 327              		.cfi_endproc
 328              	.LFE5:
ARM GAS  C:\Users\Alex\AppData\Local\Temp\cc6NPnDA.s 			page 11


 329              		.size	Buttons_ClearInterrupt, .-Buttons_ClearInterrupt
 330              		.text
 331              	.Letext0:
 332              		.file 2 "Generated_Source\\PSoC4\\cytypes.h"
