ARM GAS  C:\Users\Elea\AppData\Local\Temp\ccN5GIm5.s 			page 1


   1              		.syntax unified
   2              		.cpu cortex-m0
   3              		.fpu softvfp
   4              		.eabi_attribute 20, 1
   5              		.eabi_attribute 21, 1
   6              		.eabi_attribute 23, 3
   7              		.eabi_attribute 24, 1
   8              		.eabi_attribute 25, 1
   9              		.eabi_attribute 26, 1
  10              		.eabi_attribute 30, 6
  11              		.eabi_attribute 34, 0
  12              		.eabi_attribute 18, 4
  13              		.thumb
  14              		.syntax unified
  15              		.file	"Clock_2.c"
  16              		.text
  17              	.Ltext0:
  18              		.cfi_sections	.debug_frame
  19              		.section	.text.Clock_2_StartEx,"ax",%progbits
  20              		.align	2
  21              		.global	Clock_2_StartEx
  22              		.code	16
  23              		.thumb_func
  24              		.type	Clock_2_StartEx, %function
  25              	Clock_2_StartEx:
  26              	.LFB0:
  27              		.file 1 "Generated_Source\\PSoC4\\Clock_2.c"
   1:Generated_Source\PSoC4/Clock_2.c **** /*******************************************************************************
   2:Generated_Source\PSoC4/Clock_2.c **** * File Name: Clock_2.c
   3:Generated_Source\PSoC4/Clock_2.c **** * Version 2.20
   4:Generated_Source\PSoC4/Clock_2.c **** *
   5:Generated_Source\PSoC4/Clock_2.c **** *  Description:
   6:Generated_Source\PSoC4/Clock_2.c **** *   Provides system API for the clocking, interrupts and watchdog timer.
   7:Generated_Source\PSoC4/Clock_2.c **** *
   8:Generated_Source\PSoC4/Clock_2.c **** *  Note:
   9:Generated_Source\PSoC4/Clock_2.c **** *   Documentation of the API's in this file is located in the
  10:Generated_Source\PSoC4/Clock_2.c **** *   System Reference Guide provided with PSoC Creator.
  11:Generated_Source\PSoC4/Clock_2.c **** *
  12:Generated_Source\PSoC4/Clock_2.c **** ********************************************************************************
  13:Generated_Source\PSoC4/Clock_2.c **** * Copyright 2008-2012, Cypress Semiconductor Corporation.  All rights reserved.
  14:Generated_Source\PSoC4/Clock_2.c **** * You may use this file only in accordance with the license, terms, conditions,
  15:Generated_Source\PSoC4/Clock_2.c **** * disclaimers, and limitations in the end user license agreement accompanying
  16:Generated_Source\PSoC4/Clock_2.c **** * the software package with which this file was provided.
  17:Generated_Source\PSoC4/Clock_2.c **** *******************************************************************************/
  18:Generated_Source\PSoC4/Clock_2.c **** 
  19:Generated_Source\PSoC4/Clock_2.c **** #include <cydevice_trm.h>
  20:Generated_Source\PSoC4/Clock_2.c **** #include "Clock_2.h"
  21:Generated_Source\PSoC4/Clock_2.c **** 
  22:Generated_Source\PSoC4/Clock_2.c **** #if defined CYREG_PERI_DIV_CMD
  23:Generated_Source\PSoC4/Clock_2.c **** 
  24:Generated_Source\PSoC4/Clock_2.c **** /*******************************************************************************
  25:Generated_Source\PSoC4/Clock_2.c **** * Function Name: Clock_2_StartEx
  26:Generated_Source\PSoC4/Clock_2.c **** ********************************************************************************
  27:Generated_Source\PSoC4/Clock_2.c **** *
  28:Generated_Source\PSoC4/Clock_2.c **** * Summary:
  29:Generated_Source\PSoC4/Clock_2.c **** *  Starts the clock, aligned to the specified running clock.
  30:Generated_Source\PSoC4/Clock_2.c **** *
ARM GAS  C:\Users\Elea\AppData\Local\Temp\ccN5GIm5.s 			page 2


  31:Generated_Source\PSoC4/Clock_2.c **** * Parameters:
  32:Generated_Source\PSoC4/Clock_2.c **** *  alignClkDiv:  The divider to which phase alignment is performed when the
  33:Generated_Source\PSoC4/Clock_2.c **** *    clock is started.
  34:Generated_Source\PSoC4/Clock_2.c **** *
  35:Generated_Source\PSoC4/Clock_2.c **** * Returns:
  36:Generated_Source\PSoC4/Clock_2.c **** *  None
  37:Generated_Source\PSoC4/Clock_2.c **** *
  38:Generated_Source\PSoC4/Clock_2.c **** *******************************************************************************/
  39:Generated_Source\PSoC4/Clock_2.c **** void Clock_2_StartEx(uint32 alignClkDiv)
  40:Generated_Source\PSoC4/Clock_2.c **** {
  28              		.loc 1 40 0
  29              		.cfi_startproc
  30              		@ args = 0, pretend = 0, frame = 8
  31              		@ frame_needed = 1, uses_anonymous_args = 0
  32 0000 80B5     		push	{r7, lr}
  33              		.cfi_def_cfa_offset 8
  34              		.cfi_offset 7, -8
  35              		.cfi_offset 14, -4
  36 0002 82B0     		sub	sp, sp, #8
  37              		.cfi_def_cfa_offset 16
  38 0004 00AF     		add	r7, sp, #0
  39              		.cfi_def_cfa_register 7
  40 0006 7860     		str	r0, [r7, #4]
  41:Generated_Source\PSoC4/Clock_2.c ****     /* Make sure any previous start command has finished. */
  42:Generated_Source\PSoC4/Clock_2.c ****     while((Clock_2_CMD_REG & Clock_2_CMD_ENABLE_MASK) != 0u)
  41              		.loc 1 42 0
  42 0008 C046     		nop
  43              	.L2:
  44              		.loc 1 42 0 is_stmt 0 discriminator 1
  45 000a 074B     		ldr	r3, .L3
  46 000c 1B68     		ldr	r3, [r3]
  47 000e 002B     		cmp	r3, #0
  48 0010 FBDB     		blt	.L2
  43:Generated_Source\PSoC4/Clock_2.c ****     {
  44:Generated_Source\PSoC4/Clock_2.c ****     }
  45:Generated_Source\PSoC4/Clock_2.c ****     
  46:Generated_Source\PSoC4/Clock_2.c ****     /* Specify the target divider and it's alignment divider, and enable. */
  47:Generated_Source\PSoC4/Clock_2.c ****     Clock_2_CMD_REG =
  49              		.loc 1 47 0 is_stmt 1
  50 0012 054B     		ldr	r3, .L3
  48:Generated_Source\PSoC4/Clock_2.c ****         ((uint32)Clock_2__DIV_ID << Clock_2_CMD_DIV_SHIFT)|
  49:Generated_Source\PSoC4/Clock_2.c ****         (alignClkDiv << Clock_2_CMD_PA_DIV_SHIFT) |
  51              		.loc 1 49 0
  52 0014 7A68     		ldr	r2, [r7, #4]
  53 0016 1202     		lsls	r2, r2, #8
  54 0018 0449     		ldr	r1, .L3+4
  55 001a 0A43     		orrs	r2, r1
  47:Generated_Source\PSoC4/Clock_2.c ****         ((uint32)Clock_2__DIV_ID << Clock_2_CMD_DIV_SHIFT)|
  56              		.loc 1 47 0
  57 001c 1A60     		str	r2, [r3]
  50:Generated_Source\PSoC4/Clock_2.c ****         (uint32)Clock_2_CMD_ENABLE_MASK;
  51:Generated_Source\PSoC4/Clock_2.c **** }
  58              		.loc 1 51 0
  59 001e C046     		nop
  60 0020 BD46     		mov	sp, r7
  61 0022 02B0     		add	sp, sp, #8
  62              		@ sp needed
ARM GAS  C:\Users\Elea\AppData\Local\Temp\ccN5GIm5.s 			page 3


  63 0024 80BD     		pop	{r7, pc}
  64              	.L4:
  65 0026 C046     		.align	2
  66              	.L3:
  67 0028 00000140 		.word	1073807360
  68 002c 40000080 		.word	-2147483584
  69              		.cfi_endproc
  70              	.LFE0:
  71              		.size	Clock_2_StartEx, .-Clock_2_StartEx
  72              		.section	.text.Clock_2_Stop,"ax",%progbits
  73              		.align	2
  74              		.global	Clock_2_Stop
  75              		.code	16
  76              		.thumb_func
  77              		.type	Clock_2_Stop, %function
  78              	Clock_2_Stop:
  79              	.LFB1:
  52:Generated_Source\PSoC4/Clock_2.c **** 
  53:Generated_Source\PSoC4/Clock_2.c **** #else
  54:Generated_Source\PSoC4/Clock_2.c **** 
  55:Generated_Source\PSoC4/Clock_2.c **** /*******************************************************************************
  56:Generated_Source\PSoC4/Clock_2.c **** * Function Name: Clock_2_Start
  57:Generated_Source\PSoC4/Clock_2.c **** ********************************************************************************
  58:Generated_Source\PSoC4/Clock_2.c **** *
  59:Generated_Source\PSoC4/Clock_2.c **** * Summary:
  60:Generated_Source\PSoC4/Clock_2.c **** *  Starts the clock.
  61:Generated_Source\PSoC4/Clock_2.c **** *
  62:Generated_Source\PSoC4/Clock_2.c **** * Parameters:
  63:Generated_Source\PSoC4/Clock_2.c **** *  None
  64:Generated_Source\PSoC4/Clock_2.c **** *
  65:Generated_Source\PSoC4/Clock_2.c **** * Returns:
  66:Generated_Source\PSoC4/Clock_2.c **** *  None
  67:Generated_Source\PSoC4/Clock_2.c **** *
  68:Generated_Source\PSoC4/Clock_2.c **** *******************************************************************************/
  69:Generated_Source\PSoC4/Clock_2.c **** 
  70:Generated_Source\PSoC4/Clock_2.c **** void Clock_2_Start(void)
  71:Generated_Source\PSoC4/Clock_2.c **** {
  72:Generated_Source\PSoC4/Clock_2.c ****     /* Set the bit to enable the clock. */
  73:Generated_Source\PSoC4/Clock_2.c ****     Clock_2_ENABLE_REG |= Clock_2__ENABLE_MASK;
  74:Generated_Source\PSoC4/Clock_2.c **** }
  75:Generated_Source\PSoC4/Clock_2.c **** 
  76:Generated_Source\PSoC4/Clock_2.c **** #endif /* CYREG_PERI_DIV_CMD */
  77:Generated_Source\PSoC4/Clock_2.c **** 
  78:Generated_Source\PSoC4/Clock_2.c **** 
  79:Generated_Source\PSoC4/Clock_2.c **** /*******************************************************************************
  80:Generated_Source\PSoC4/Clock_2.c **** * Function Name: Clock_2_Stop
  81:Generated_Source\PSoC4/Clock_2.c **** ********************************************************************************
  82:Generated_Source\PSoC4/Clock_2.c **** *
  83:Generated_Source\PSoC4/Clock_2.c **** * Summary:
  84:Generated_Source\PSoC4/Clock_2.c **** *  Stops the clock and returns immediately. This API does not require the
  85:Generated_Source\PSoC4/Clock_2.c **** *  source clock to be running but may return before the hardware is actually
  86:Generated_Source\PSoC4/Clock_2.c **** *  disabled.
  87:Generated_Source\PSoC4/Clock_2.c **** *
  88:Generated_Source\PSoC4/Clock_2.c **** * Parameters:
  89:Generated_Source\PSoC4/Clock_2.c **** *  None
  90:Generated_Source\PSoC4/Clock_2.c **** *
  91:Generated_Source\PSoC4/Clock_2.c **** * Returns:
ARM GAS  C:\Users\Elea\AppData\Local\Temp\ccN5GIm5.s 			page 4


  92:Generated_Source\PSoC4/Clock_2.c **** *  None
  93:Generated_Source\PSoC4/Clock_2.c **** *
  94:Generated_Source\PSoC4/Clock_2.c **** *******************************************************************************/
  95:Generated_Source\PSoC4/Clock_2.c **** void Clock_2_Stop(void)
  96:Generated_Source\PSoC4/Clock_2.c **** {
  80              		.loc 1 96 0
  81              		.cfi_startproc
  82              		@ args = 0, pretend = 0, frame = 0
  83              		@ frame_needed = 1, uses_anonymous_args = 0
  84 0000 80B5     		push	{r7, lr}
  85              		.cfi_def_cfa_offset 8
  86              		.cfi_offset 7, -8
  87              		.cfi_offset 14, -4
  88 0002 00AF     		add	r7, sp, #0
  89              		.cfi_def_cfa_register 7
  97:Generated_Source\PSoC4/Clock_2.c **** #if defined CYREG_PERI_DIV_CMD
  98:Generated_Source\PSoC4/Clock_2.c **** 
  99:Generated_Source\PSoC4/Clock_2.c ****     /* Make sure any previous start command has finished. */
 100:Generated_Source\PSoC4/Clock_2.c ****     while((Clock_2_CMD_REG & Clock_2_CMD_ENABLE_MASK) != 0u)
  90              		.loc 1 100 0
  91 0004 C046     		nop
  92              	.L6:
  93              		.loc 1 100 0 is_stmt 0 discriminator 1
  94 0006 054B     		ldr	r3, .L7
  95 0008 1B68     		ldr	r3, [r3]
  96 000a 002B     		cmp	r3, #0
  97 000c FBDB     		blt	.L6
 101:Generated_Source\PSoC4/Clock_2.c ****     {
 102:Generated_Source\PSoC4/Clock_2.c ****     }
 103:Generated_Source\PSoC4/Clock_2.c ****     
 104:Generated_Source\PSoC4/Clock_2.c ****     /* Specify the target divider and it's alignment divider, and disable. */
 105:Generated_Source\PSoC4/Clock_2.c ****     Clock_2_CMD_REG =
  98              		.loc 1 105 0 is_stmt 1
  99 000e 034B     		ldr	r3, .L7
 100 0010 034A     		ldr	r2, .L7+4
 101 0012 1A60     		str	r2, [r3]
 106:Generated_Source\PSoC4/Clock_2.c ****         ((uint32)Clock_2__DIV_ID << Clock_2_CMD_DIV_SHIFT)|
 107:Generated_Source\PSoC4/Clock_2.c ****         ((uint32)Clock_2_CMD_DISABLE_MASK);
 108:Generated_Source\PSoC4/Clock_2.c **** 
 109:Generated_Source\PSoC4/Clock_2.c **** #else
 110:Generated_Source\PSoC4/Clock_2.c **** 
 111:Generated_Source\PSoC4/Clock_2.c ****     /* Clear the bit to disable the clock. */
 112:Generated_Source\PSoC4/Clock_2.c ****     Clock_2_ENABLE_REG &= (uint32)(~Clock_2__ENABLE_MASK);
 113:Generated_Source\PSoC4/Clock_2.c ****     
 114:Generated_Source\PSoC4/Clock_2.c **** #endif /* CYREG_PERI_DIV_CMD */
 115:Generated_Source\PSoC4/Clock_2.c **** }
 102              		.loc 1 115 0
 103 0014 C046     		nop
 104 0016 BD46     		mov	sp, r7
 105              		@ sp needed
 106 0018 80BD     		pop	{r7, pc}
 107              	.L8:
 108 001a C046     		.align	2
 109              	.L7:
 110 001c 00000140 		.word	1073807360
 111 0020 40000040 		.word	1073741888
 112              		.cfi_endproc
ARM GAS  C:\Users\Elea\AppData\Local\Temp\ccN5GIm5.s 			page 5


 113              	.LFE1:
 114              		.size	Clock_2_Stop, .-Clock_2_Stop
 115              		.section	.text.Clock_2_SetFractionalDividerRegister,"ax",%progbits
 116              		.align	2
 117              		.global	Clock_2_SetFractionalDividerRegister
 118              		.code	16
 119              		.thumb_func
 120              		.type	Clock_2_SetFractionalDividerRegister, %function
 121              	Clock_2_SetFractionalDividerRegister:
 122              	.LFB2:
 116:Generated_Source\PSoC4/Clock_2.c **** 
 117:Generated_Source\PSoC4/Clock_2.c **** 
 118:Generated_Source\PSoC4/Clock_2.c **** /*******************************************************************************
 119:Generated_Source\PSoC4/Clock_2.c **** * Function Name: Clock_2_SetFractionalDividerRegister
 120:Generated_Source\PSoC4/Clock_2.c **** ********************************************************************************
 121:Generated_Source\PSoC4/Clock_2.c **** *
 122:Generated_Source\PSoC4/Clock_2.c **** * Summary:
 123:Generated_Source\PSoC4/Clock_2.c **** *  Modifies the clock divider and the fractional divider.
 124:Generated_Source\PSoC4/Clock_2.c **** *
 125:Generated_Source\PSoC4/Clock_2.c **** * Parameters:
 126:Generated_Source\PSoC4/Clock_2.c **** *  clkDivider:  Divider register value (0-65535). This value is NOT the
 127:Generated_Source\PSoC4/Clock_2.c **** *    divider; the clock hardware divides by clkDivider plus one. For example,
 128:Generated_Source\PSoC4/Clock_2.c **** *    to divide the clock by 2, this parameter should be set to 1.
 129:Generated_Source\PSoC4/Clock_2.c **** *  fracDivider:  Fractional Divider register value (0-31).
 130:Generated_Source\PSoC4/Clock_2.c **** * Returns:
 131:Generated_Source\PSoC4/Clock_2.c **** *  None
 132:Generated_Source\PSoC4/Clock_2.c **** *
 133:Generated_Source\PSoC4/Clock_2.c **** *******************************************************************************/
 134:Generated_Source\PSoC4/Clock_2.c **** void Clock_2_SetFractionalDividerRegister(uint16 clkDivider, uint8 clkFractional)
 135:Generated_Source\PSoC4/Clock_2.c **** {
 123              		.loc 1 135 0
 124              		.cfi_startproc
 125              		@ args = 0, pretend = 0, frame = 16
 126              		@ frame_needed = 1, uses_anonymous_args = 0
 127 0000 80B5     		push	{r7, lr}
 128              		.cfi_def_cfa_offset 8
 129              		.cfi_offset 7, -8
 130              		.cfi_offset 14, -4
 131 0002 84B0     		sub	sp, sp, #16
 132              		.cfi_def_cfa_offset 24
 133 0004 00AF     		add	r7, sp, #0
 134              		.cfi_def_cfa_register 7
 135 0006 0200     		movs	r2, r0
 136 0008 BB1D     		adds	r3, r7, #6
 137 000a 1A80     		strh	r2, [r3]
 138 000c 7B1D     		adds	r3, r7, #5
 139 000e 0A1C     		adds	r2, r1, #0
 140 0010 1A70     		strb	r2, [r3]
 136:Generated_Source\PSoC4/Clock_2.c ****     uint32 maskVal;
 137:Generated_Source\PSoC4/Clock_2.c ****     uint32 regVal;
 138:Generated_Source\PSoC4/Clock_2.c ****     
 139:Generated_Source\PSoC4/Clock_2.c **** #if defined (Clock_2__FRAC_MASK) || defined (CYREG_PERI_DIV_CMD)
 140:Generated_Source\PSoC4/Clock_2.c ****     
 141:Generated_Source\PSoC4/Clock_2.c **** 	/* get all but divider bits */
 142:Generated_Source\PSoC4/Clock_2.c ****     maskVal = Clock_2_DIV_REG & 
 141              		.loc 1 142 0
 142 0012 0C4B     		ldr	r3, .L10
ARM GAS  C:\Users\Elea\AppData\Local\Temp\ccN5GIm5.s 			page 6


 143 0014 1B68     		ldr	r3, [r3]
 144 0016 0722     		movs	r2, #7
 145 0018 1340     		ands	r3, r2
 146 001a FB60     		str	r3, [r7, #12]
 143:Generated_Source\PSoC4/Clock_2.c ****                     (uint32)(~(uint32)(Clock_2_DIV_INT_MASK | Clock_2_DIV_FRAC_MASK)); 
 144:Generated_Source\PSoC4/Clock_2.c **** 	/* combine mask and new divider vals into 32-bit value */
 145:Generated_Source\PSoC4/Clock_2.c ****     regVal = maskVal |
 146:Generated_Source\PSoC4/Clock_2.c ****         ((uint32)((uint32)clkDivider <<  Clock_2_DIV_INT_SHIFT) & Clock_2_DIV_INT_MASK) |
 147              		.loc 1 146 0
 148 001c BB1D     		adds	r3, r7, #6
 149 001e 1B88     		ldrh	r3, [r3]
 150 0020 1A02     		lsls	r2, r3, #8
 145:Generated_Source\PSoC4/Clock_2.c ****         ((uint32)((uint32)clkDivider <<  Clock_2_DIV_INT_SHIFT) & Clock_2_DIV_INT_MASK) |
 151              		.loc 1 145 0
 152 0022 FB68     		ldr	r3, [r7, #12]
 153 0024 1A43     		orrs	r2, r3
 147:Generated_Source\PSoC4/Clock_2.c ****         ((uint32)((uint32)clkFractional << Clock_2_DIV_FRAC_SHIFT) & Clock_2_DIV_FRAC_MASK);
 154              		.loc 1 147 0
 155 0026 7B1D     		adds	r3, r7, #5
 156 0028 1B78     		ldrb	r3, [r3]
 157 002a DB00     		lsls	r3, r3, #3
 158 002c FF21     		movs	r1, #255
 159 002e 0B40     		ands	r3, r1
 145:Generated_Source\PSoC4/Clock_2.c ****         ((uint32)((uint32)clkDivider <<  Clock_2_DIV_INT_SHIFT) & Clock_2_DIV_INT_MASK) |
 160              		.loc 1 145 0
 161 0030 1343     		orrs	r3, r2
 162 0032 BB60     		str	r3, [r7, #8]
 148:Generated_Source\PSoC4/Clock_2.c ****     
 149:Generated_Source\PSoC4/Clock_2.c **** #else
 150:Generated_Source\PSoC4/Clock_2.c ****     /* get all but integer divider bits */
 151:Generated_Source\PSoC4/Clock_2.c ****     maskVal = Clock_2_DIV_REG & (uint32)(~(uint32)Clock_2__DIVIDER_MASK);
 152:Generated_Source\PSoC4/Clock_2.c ****     /* combine mask and new divider val into 32-bit value */
 153:Generated_Source\PSoC4/Clock_2.c ****     regVal = clkDivider | maskVal;
 154:Generated_Source\PSoC4/Clock_2.c ****     
 155:Generated_Source\PSoC4/Clock_2.c **** #endif /* Clock_2__FRAC_MASK || CYREG_PERI_DIV_CMD */
 156:Generated_Source\PSoC4/Clock_2.c **** 
 157:Generated_Source\PSoC4/Clock_2.c ****     Clock_2_DIV_REG = regVal;
 163              		.loc 1 157 0
 164 0034 034B     		ldr	r3, .L10
 165 0036 BA68     		ldr	r2, [r7, #8]
 166 0038 1A60     		str	r2, [r3]
 158:Generated_Source\PSoC4/Clock_2.c **** }
 167              		.loc 1 158 0
 168 003a C046     		nop
 169 003c BD46     		mov	sp, r7
 170 003e 04B0     		add	sp, sp, #16
 171              		@ sp needed
 172 0040 80BD     		pop	{r7, pc}
 173              	.L11:
 174 0042 C046     		.align	2
 175              	.L10:
 176 0044 00030140 		.word	1073808128
 177              		.cfi_endproc
 178              	.LFE2:
 179              		.size	Clock_2_SetFractionalDividerRegister, .-Clock_2_SetFractionalDividerRegister
 180              		.section	.text.Clock_2_GetDividerRegister,"ax",%progbits
 181              		.align	2
ARM GAS  C:\Users\Elea\AppData\Local\Temp\ccN5GIm5.s 			page 7


 182              		.global	Clock_2_GetDividerRegister
 183              		.code	16
 184              		.thumb_func
 185              		.type	Clock_2_GetDividerRegister, %function
 186              	Clock_2_GetDividerRegister:
 187              	.LFB3:
 159:Generated_Source\PSoC4/Clock_2.c **** 
 160:Generated_Source\PSoC4/Clock_2.c **** 
 161:Generated_Source\PSoC4/Clock_2.c **** /*******************************************************************************
 162:Generated_Source\PSoC4/Clock_2.c **** * Function Name: Clock_2_GetDividerRegister
 163:Generated_Source\PSoC4/Clock_2.c **** ********************************************************************************
 164:Generated_Source\PSoC4/Clock_2.c **** *
 165:Generated_Source\PSoC4/Clock_2.c **** * Summary:
 166:Generated_Source\PSoC4/Clock_2.c **** *  Gets the clock divider register value.
 167:Generated_Source\PSoC4/Clock_2.c **** *
 168:Generated_Source\PSoC4/Clock_2.c **** * Parameters:
 169:Generated_Source\PSoC4/Clock_2.c **** *  None
 170:Generated_Source\PSoC4/Clock_2.c **** *
 171:Generated_Source\PSoC4/Clock_2.c **** * Returns:
 172:Generated_Source\PSoC4/Clock_2.c **** *  Divide value of the clock minus 1. For example, if the clock is set to
 173:Generated_Source\PSoC4/Clock_2.c **** *  divide by 2, the return value will be 1.
 174:Generated_Source\PSoC4/Clock_2.c **** *
 175:Generated_Source\PSoC4/Clock_2.c **** *******************************************************************************/
 176:Generated_Source\PSoC4/Clock_2.c **** uint16 Clock_2_GetDividerRegister(void)
 177:Generated_Source\PSoC4/Clock_2.c **** {
 188              		.loc 1 177 0
 189              		.cfi_startproc
 190              		@ args = 0, pretend = 0, frame = 0
 191              		@ frame_needed = 1, uses_anonymous_args = 0
 192 0000 80B5     		push	{r7, lr}
 193              		.cfi_def_cfa_offset 8
 194              		.cfi_offset 7, -8
 195              		.cfi_offset 14, -4
 196 0002 00AF     		add	r7, sp, #0
 197              		.cfi_def_cfa_register 7
 178:Generated_Source\PSoC4/Clock_2.c ****     return (uint16)((Clock_2_DIV_REG & Clock_2_DIV_INT_MASK)
 198              		.loc 1 178 0
 199 0004 044B     		ldr	r3, .L14
 200 0006 1B68     		ldr	r3, [r3]
 201 0008 FF22     		movs	r2, #255
 202 000a 9343     		bics	r3, r2
 179:Generated_Source\PSoC4/Clock_2.c ****         >> Clock_2_DIV_INT_SHIFT);
 203              		.loc 1 179 0
 204 000c 1B0A     		lsrs	r3, r3, #8
 178:Generated_Source\PSoC4/Clock_2.c ****     return (uint16)((Clock_2_DIV_REG & Clock_2_DIV_INT_MASK)
 205              		.loc 1 178 0
 206 000e 9BB2     		uxth	r3, r3
 180:Generated_Source\PSoC4/Clock_2.c **** }
 207              		.loc 1 180 0
 208 0010 1800     		movs	r0, r3
 209 0012 BD46     		mov	sp, r7
 210              		@ sp needed
 211 0014 80BD     		pop	{r7, pc}
 212              	.L15:
 213 0016 C046     		.align	2
 214              	.L14:
 215 0018 00030140 		.word	1073808128
ARM GAS  C:\Users\Elea\AppData\Local\Temp\ccN5GIm5.s 			page 8


 216              		.cfi_endproc
 217              	.LFE3:
 218              		.size	Clock_2_GetDividerRegister, .-Clock_2_GetDividerRegister
 219              		.section	.text.Clock_2_GetFractionalDividerRegister,"ax",%progbits
 220              		.align	2
 221              		.global	Clock_2_GetFractionalDividerRegister
 222              		.code	16
 223              		.thumb_func
 224              		.type	Clock_2_GetFractionalDividerRegister, %function
 225              	Clock_2_GetFractionalDividerRegister:
 226              	.LFB4:
 181:Generated_Source\PSoC4/Clock_2.c **** 
 182:Generated_Source\PSoC4/Clock_2.c **** 
 183:Generated_Source\PSoC4/Clock_2.c **** /*******************************************************************************
 184:Generated_Source\PSoC4/Clock_2.c **** * Function Name: Clock_2_GetFractionalDividerRegister
 185:Generated_Source\PSoC4/Clock_2.c **** ********************************************************************************
 186:Generated_Source\PSoC4/Clock_2.c **** *
 187:Generated_Source\PSoC4/Clock_2.c **** * Summary:
 188:Generated_Source\PSoC4/Clock_2.c **** *  Gets the clock fractional divider register value.
 189:Generated_Source\PSoC4/Clock_2.c **** *
 190:Generated_Source\PSoC4/Clock_2.c **** * Parameters:
 191:Generated_Source\PSoC4/Clock_2.c **** *  None
 192:Generated_Source\PSoC4/Clock_2.c **** *
 193:Generated_Source\PSoC4/Clock_2.c **** * Returns:
 194:Generated_Source\PSoC4/Clock_2.c **** *  Fractional Divide value of the clock
 195:Generated_Source\PSoC4/Clock_2.c **** *  0 if the fractional divider is not in use.
 196:Generated_Source\PSoC4/Clock_2.c **** *
 197:Generated_Source\PSoC4/Clock_2.c **** *******************************************************************************/
 198:Generated_Source\PSoC4/Clock_2.c **** uint8 Clock_2_GetFractionalDividerRegister(void)
 199:Generated_Source\PSoC4/Clock_2.c **** {
 227              		.loc 1 199 0
 228              		.cfi_startproc
 229              		@ args = 0, pretend = 0, frame = 0
 230              		@ frame_needed = 1, uses_anonymous_args = 0
 231 0000 80B5     		push	{r7, lr}
 232              		.cfi_def_cfa_offset 8
 233              		.cfi_offset 7, -8
 234              		.cfi_offset 14, -4
 235 0002 00AF     		add	r7, sp, #0
 236              		.cfi_def_cfa_register 7
 200:Generated_Source\PSoC4/Clock_2.c **** #if defined (Clock_2__FRAC_MASK)
 201:Generated_Source\PSoC4/Clock_2.c ****     /* return fractional divider bits */
 202:Generated_Source\PSoC4/Clock_2.c ****     return (uint8)((Clock_2_DIV_REG & Clock_2_DIV_FRAC_MASK)
 203:Generated_Source\PSoC4/Clock_2.c ****         >> Clock_2_DIV_FRAC_SHIFT);
 204:Generated_Source\PSoC4/Clock_2.c **** #else
 205:Generated_Source\PSoC4/Clock_2.c ****     return 0u;
 237              		.loc 1 205 0
 238 0004 0023     		movs	r3, #0
 206:Generated_Source\PSoC4/Clock_2.c **** #endif /* Clock_2__FRAC_MASK */
 207:Generated_Source\PSoC4/Clock_2.c **** }
 239              		.loc 1 207 0
 240 0006 1800     		movs	r0, r3
 241 0008 BD46     		mov	sp, r7
 242              		@ sp needed
 243 000a 80BD     		pop	{r7, pc}
 244              		.cfi_endproc
 245              	.LFE4:
ARM GAS  C:\Users\Elea\AppData\Local\Temp\ccN5GIm5.s 			page 9


 246              		.size	Clock_2_GetFractionalDividerRegister, .-Clock_2_GetFractionalDividerRegister
 247              		.text
 248              	.Letext0:
 249              		.file 2 "Generated_Source\\PSoC4/cytypes.h"
