ARM GAS  C:\Users\ELEASO~1\AppData\Local\Temp\ccqlvzPP.s 			page 1


   1              		.syntax unified
   2              		.cpu cortex-m0
   3              		.fpu softvfp
   4              		.eabi_attribute 20, 1
   5              		.eabi_attribute 21, 1
   6              		.eabi_attribute 23, 3
   7              		.eabi_attribute 24, 1
   8              		.eabi_attribute 25, 1
   9              		.eabi_attribute 26, 1
  10              		.eabi_attribute 30, 6
  11              		.eabi_attribute 34, 0
  12              		.eabi_attribute 18, 4
  13              		.thumb
  14              		.syntax unified
  15              		.file	"CyLFClk.c"
  16              		.text
  17              	.Ltext0:
  18              		.cfi_sections	.debug_frame
  19              		.section	.text.CySysClkWcoSetHighPowerMode,"ax",%progbits
  20              		.align	2
  21              		.code	16
  22              		.thumb_func
  23              		.type	CySysClkWcoSetHighPowerMode, %function
  24              	CySysClkWcoSetHighPowerMode:
  25              	.LFB0:
  26              		.file 1 "Generated_Source\\PSoC4\\CyLFClk.h"
   1:Generated_Source\PSoC4/CyLFClk.h **** /***************************************************************************//**
   2:Generated_Source\PSoC4/CyLFClk.h **** * \file .h
   3:Generated_Source\PSoC4/CyLFClk.h **** * \version 1.20
   4:Generated_Source\PSoC4/CyLFClk.h **** *
   5:Generated_Source\PSoC4/CyLFClk.h **** * \brief
   6:Generated_Source\PSoC4/CyLFClk.h **** *  This file provides the source code to API for the lfclk and wdt.
   7:Generated_Source\PSoC4/CyLFClk.h **** *
   8:Generated_Source\PSoC4/CyLFClk.h **** ********************************************************************************
   9:Generated_Source\PSoC4/CyLFClk.h **** * \copyright
  10:Generated_Source\PSoC4/CyLFClk.h **** * Copyright 2008-2017, Cypress Semiconductor Corporation.  All rights reserved.
  11:Generated_Source\PSoC4/CyLFClk.h **** * You may use this file only in accordance with the license, terms, conditions,
  12:Generated_Source\PSoC4/CyLFClk.h **** * disclaimers, and limitations in the end user license agreement accompanying
  13:Generated_Source\PSoC4/CyLFClk.h **** * the software package with which this file was provided.
  14:Generated_Source\PSoC4/CyLFClk.h **** *******************************************************************************/
  15:Generated_Source\PSoC4/CyLFClk.h **** 
  16:Generated_Source\PSoC4/CyLFClk.h **** 
  17:Generated_Source\PSoC4/CyLFClk.h **** #if !defined(CY_LFCLK_CYLIB_H)
  18:Generated_Source\PSoC4/CyLFClk.h **** #define CY_LFCLK_CYLIB_H
  19:Generated_Source\PSoC4/CyLFClk.h **** 
  20:Generated_Source\PSoC4/CyLFClk.h **** #include "cytypes.h"
  21:Generated_Source\PSoC4/CyLFClk.h **** #include "cydevice_trm.h"
  22:Generated_Source\PSoC4/CyLFClk.h **** 
  23:Generated_Source\PSoC4/CyLFClk.h **** #define CY_IP_WCO_WDT_EN           (-1 == 1)
  24:Generated_Source\PSoC4/CyLFClk.h **** 
  25:Generated_Source\PSoC4/CyLFClk.h **** typedef enum
  26:Generated_Source\PSoC4/CyLFClk.h **** {
  27:Generated_Source\PSoC4/CyLFClk.h ****     CY_SYS_TIMER_WAIT = 0u,
  28:Generated_Source\PSoC4/CyLFClk.h ****     CY_SYS_TIMER_INTERRUPT = 1u
  29:Generated_Source\PSoC4/CyLFClk.h **** } cy_sys_timer_delaytype_enum;
  30:Generated_Source\PSoC4/CyLFClk.h **** 
  31:Generated_Source\PSoC4/CyLFClk.h **** 
ARM GAS  C:\Users\ELEASO~1\AppData\Local\Temp\ccqlvzPP.s 			page 2


  32:Generated_Source\PSoC4/CyLFClk.h **** /***************************************
  33:Generated_Source\PSoC4/CyLFClk.h **** *    Function Prototypes
  34:Generated_Source\PSoC4/CyLFClk.h **** ***************************************/
  35:Generated_Source\PSoC4/CyLFClk.h **** /**
  36:Generated_Source\PSoC4/CyLFClk.h **** * \addtogroup group_general
  37:Generated_Source\PSoC4/CyLFClk.h **** * @{
  38:Generated_Source\PSoC4/CyLFClk.h **** */
  39:Generated_Source\PSoC4/CyLFClk.h **** /* Clocks API */
  40:Generated_Source\PSoC4/CyLFClk.h **** void CySysClkIloStart(void);
  41:Generated_Source\PSoC4/CyLFClk.h **** void CySysClkIloStop(void);
  42:Generated_Source\PSoC4/CyLFClk.h **** /** @} general */
  43:Generated_Source\PSoC4/CyLFClk.h **** 
  44:Generated_Source\PSoC4/CyLFClk.h **** /**
  45:Generated_Source\PSoC4/CyLFClk.h **** * \addtogroup group_compensate
  46:Generated_Source\PSoC4/CyLFClk.h **** * @{
  47:Generated_Source\PSoC4/CyLFClk.h **** */
  48:Generated_Source\PSoC4/CyLFClk.h **** cystatus CySysClkIloCompensate(uint32 desiredDelay, uint32 *compensatedCycles);
  49:Generated_Source\PSoC4/CyLFClk.h **** void CySysClkIloStartMeasurement(void);
  50:Generated_Source\PSoC4/CyLFClk.h **** void CySysClkIloStopMeasurement(void);
  51:Generated_Source\PSoC4/CyLFClk.h **** /** @} compensate */
  52:Generated_Source\PSoC4/CyLFClk.h **** 
  53:Generated_Source\PSoC4/CyLFClk.h **** #if(CY_IP_SRSSV2 && (!CY_IP_CPUSS))
  54:Generated_Source\PSoC4/CyLFClk.h ****     /**
  55:Generated_Source\PSoC4/CyLFClk.h ****     * \addtogroup group_compensate
  56:Generated_Source\PSoC4/CyLFClk.h ****     * @{
  57:Generated_Source\PSoC4/CyLFClk.h ****     */
  58:Generated_Source\PSoC4/CyLFClk.h ****     cystatus CySysClkIloTrim(uint32 mode, int32 *iloAccuracyInPPT);
  59:Generated_Source\PSoC4/CyLFClk.h ****     cystatus CySysClkIloRestoreFactoryTrim(void);
  60:Generated_Source\PSoC4/CyLFClk.h ****     /** @} compensate */
  61:Generated_Source\PSoC4/CyLFClk.h ****     cystatus CySysClkIloUpdateTrimReg(int32* iloAccuracyInPPT);
  62:Generated_Source\PSoC4/CyLFClk.h **** #endif /* (CY_IP_SRSSV2 && (!CY_IP_CPUSS)) */
  63:Generated_Source\PSoC4/CyLFClk.h **** 
  64:Generated_Source\PSoC4/CyLFClk.h **** #if(CY_IP_SRSSV2 && CY_IP_WCO)
  65:Generated_Source\PSoC4/CyLFClk.h ****     /**
  66:Generated_Source\PSoC4/CyLFClk.h ****     * \addtogroup group_general
  67:Generated_Source\PSoC4/CyLFClk.h ****     * @{
  68:Generated_Source\PSoC4/CyLFClk.h ****     */
  69:Generated_Source\PSoC4/CyLFClk.h ****     void CySysClkSetLfclkSource(uint32 source);
  70:Generated_Source\PSoC4/CyLFClk.h ****     /** @} group_general */
  71:Generated_Source\PSoC4/CyLFClk.h **** #endif /* (CY_IP_SRSSV2 && CY_IP_WCO) */
  72:Generated_Source\PSoC4/CyLFClk.h **** 
  73:Generated_Source\PSoC4/CyLFClk.h **** #if (CY_IP_WCO)
  74:Generated_Source\PSoC4/CyLFClk.h ****     /**
  75:Generated_Source\PSoC4/CyLFClk.h ****     * \addtogroup group_wco
  76:Generated_Source\PSoC4/CyLFClk.h ****     * @{
  77:Generated_Source\PSoC4/CyLFClk.h ****     */
  78:Generated_Source\PSoC4/CyLFClk.h ****     void   CySysClkWcoStart(void);
  79:Generated_Source\PSoC4/CyLFClk.h ****     void   CySysClkWcoStop(void);
  80:Generated_Source\PSoC4/CyLFClk.h ****     uint32 CySysClkWcoSetPowerMode(uint32 mode);
  81:Generated_Source\PSoC4/CyLFClk.h ****     void CySysClkWcoClockOutSelect(uint32 clockSel);
  82:Generated_Source\PSoC4/CyLFClk.h ****     /** @} wco */
  83:Generated_Source\PSoC4/CyLFClk.h **** 
  84:Generated_Source\PSoC4/CyLFClk.h ****     uint32 CySysClkWcoEnabled(void);
  85:Generated_Source\PSoC4/CyLFClk.h **** 
  86:Generated_Source\PSoC4/CyLFClk.h **** #endif /* (CY_IP_WCO) */
  87:Generated_Source\PSoC4/CyLFClk.h **** 
  88:Generated_Source\PSoC4/CyLFClk.h **** typedef void (*cyWdtCallback)(void);
ARM GAS  C:\Users\ELEASO~1\AppData\Local\Temp\ccqlvzPP.s 			page 3


  89:Generated_Source\PSoC4/CyLFClk.h **** 
  90:Generated_Source\PSoC4/CyLFClk.h **** #if (CY_IP_SRSSLT && CY_IP_WCO && CY_IP_WCO_WDT_EN)
  91:Generated_Source\PSoC4/CyLFClk.h **** 
  92:Generated_Source\PSoC4/CyLFClk.h ****     typedef void (*cyTimerCallback)(void);
  93:Generated_Source\PSoC4/CyLFClk.h **** #endif /* (CY_IP_SRSSLT && CY_IP_WCO && CY_IP_WCO_WDT_EN) */
  94:Generated_Source\PSoC4/CyLFClk.h **** 
  95:Generated_Source\PSoC4/CyLFClk.h **** #if(CY_IP_SRSSV2)
  96:Generated_Source\PSoC4/CyLFClk.h ****     /**
  97:Generated_Source\PSoC4/CyLFClk.h ****     * \addtogroup group_wdtsrssv2
  98:Generated_Source\PSoC4/CyLFClk.h ****     * @{
  99:Generated_Source\PSoC4/CyLFClk.h ****     */
 100:Generated_Source\PSoC4/CyLFClk.h ****     /* WDT API */
 101:Generated_Source\PSoC4/CyLFClk.h ****     void   CySysWdtLock(void);
 102:Generated_Source\PSoC4/CyLFClk.h ****     void   CySysWdtUnlock(void);
 103:Generated_Source\PSoC4/CyLFClk.h ****     void   CySysWdtSetMode(uint32 counterNum, uint32 mode);
 104:Generated_Source\PSoC4/CyLFClk.h ****     uint32 CySysWdtGetMode(uint32 counterNum);
 105:Generated_Source\PSoC4/CyLFClk.h ****     uint32 CySysWdtGetEnabledStatus(uint32 counterNum);
 106:Generated_Source\PSoC4/CyLFClk.h ****     void   CySysWdtSetClearOnMatch(uint32 counterNum, uint32 enable);
 107:Generated_Source\PSoC4/CyLFClk.h ****     uint32 CySysWdtGetClearOnMatch(uint32 counterNum);
 108:Generated_Source\PSoC4/CyLFClk.h ****     void   CySysWdtEnable(uint32 counterMask);
 109:Generated_Source\PSoC4/CyLFClk.h ****     void   CySysWdtDisable(uint32 counterMask);
 110:Generated_Source\PSoC4/CyLFClk.h ****     void   CySysWdtSetCascade(uint32 cascadeMask);
 111:Generated_Source\PSoC4/CyLFClk.h ****     uint32 CySysWdtGetCascade(void);
 112:Generated_Source\PSoC4/CyLFClk.h ****     void   CySysWdtSetMatch(uint32 counterNum, uint32 match);
 113:Generated_Source\PSoC4/CyLFClk.h ****     void   CySysWdtSetToggleBit(uint32 bits);
 114:Generated_Source\PSoC4/CyLFClk.h ****     uint32 CySysWdtGetToggleBit(void);
 115:Generated_Source\PSoC4/CyLFClk.h ****     uint32 CySysWdtGetMatch(uint32 counterNum);
 116:Generated_Source\PSoC4/CyLFClk.h ****     uint32 CySysWdtGetCount(uint32 counterNum);
 117:Generated_Source\PSoC4/CyLFClk.h ****     uint32 CySysWdtGetInterruptSource(void);
 118:Generated_Source\PSoC4/CyLFClk.h ****     void   CySysWdtClearInterrupt(uint32 counterMask);
 119:Generated_Source\PSoC4/CyLFClk.h ****     void   CySysWdtResetCounters(uint32 countersMask);
 120:Generated_Source\PSoC4/CyLFClk.h ****     cyWdtCallback  CySysWdtSetInterruptCallback(uint32 counterNum, cyWdtCallback function);
 121:Generated_Source\PSoC4/CyLFClk.h ****     cyWdtCallback  CySysWdtGetInterruptCallback(uint32 counterNum);
 122:Generated_Source\PSoC4/CyLFClk.h ****     void   CySysTimerDelay(uint32 counterNum, cy_sys_timer_delaytype_enum delayType, uint32 delay);
 123:Generated_Source\PSoC4/CyLFClk.h ****     void   CySysTimerDelayUntilMatch(uint32 counterNum, cy_sys_timer_delaytype_enum delayType, uint
 124:Generated_Source\PSoC4/CyLFClk.h ****     void   CySysWatchdogFeed(uint32 counterNum);
 125:Generated_Source\PSoC4/CyLFClk.h ****     void   CySysWdtEnableCounterIsr(uint32 counterNum);
 126:Generated_Source\PSoC4/CyLFClk.h ****     void   CySysWdtDisableCounterIsr(uint32 counterNum);
 127:Generated_Source\PSoC4/CyLFClk.h ****     void   CySysWdtIsr(void);
 128:Generated_Source\PSoC4/CyLFClk.h ****     /** @} wdtsrssv2 */
 129:Generated_Source\PSoC4/CyLFClk.h **** #else
 130:Generated_Source\PSoC4/CyLFClk.h ****     /**
 131:Generated_Source\PSoC4/CyLFClk.h ****     * \addtogroup group_wdtsrsslite
 132:Generated_Source\PSoC4/CyLFClk.h ****     * @{
 133:Generated_Source\PSoC4/CyLFClk.h ****     */
 134:Generated_Source\PSoC4/CyLFClk.h ****     /* WDT API */
 135:Generated_Source\PSoC4/CyLFClk.h ****     uint32 CySysWdtGetEnabledStatus(void);
 136:Generated_Source\PSoC4/CyLFClk.h ****     void   CySysWdtEnable(void);
 137:Generated_Source\PSoC4/CyLFClk.h ****     void   CySysWdtDisable(void);
 138:Generated_Source\PSoC4/CyLFClk.h ****     void   CySysWdtSetMatch(uint32 match);
 139:Generated_Source\PSoC4/CyLFClk.h ****     uint32 CySysWdtGetMatch(void);
 140:Generated_Source\PSoC4/CyLFClk.h ****     uint32 CySysWdtGetCount(void);
 141:Generated_Source\PSoC4/CyLFClk.h ****     void   CySysWdtSetIgnoreBits(uint32 bitsNum);
 142:Generated_Source\PSoC4/CyLFClk.h ****     uint32 CySysWdtGetIgnoreBits(void);
 143:Generated_Source\PSoC4/CyLFClk.h ****     void   CySysWdtClearInterrupt(void);
 144:Generated_Source\PSoC4/CyLFClk.h ****     void   CySysWdtMaskInterrupt(void);
 145:Generated_Source\PSoC4/CyLFClk.h ****     void   CySysWdtUnmaskInterrupt(void);
ARM GAS  C:\Users\ELEASO~1\AppData\Local\Temp\ccqlvzPP.s 			page 4


 146:Generated_Source\PSoC4/CyLFClk.h ****     cyWdtCallback CySysWdtSetInterruptCallback(cyWdtCallback function);
 147:Generated_Source\PSoC4/CyLFClk.h ****     cyWdtCallback CySysWdtGetInterruptCallback(void);
 148:Generated_Source\PSoC4/CyLFClk.h ****     void   CySysWdtIsr(void);
 149:Generated_Source\PSoC4/CyLFClk.h ****     /** @} wdtsrsslite*/
 150:Generated_Source\PSoC4/CyLFClk.h **** #endif  /* (CY_IP_SRSSV2) */
 151:Generated_Source\PSoC4/CyLFClk.h **** 
 152:Generated_Source\PSoC4/CyLFClk.h **** 
 153:Generated_Source\PSoC4/CyLFClk.h **** #if(CY_IP_SRSSLT && CY_IP_WCO && CY_IP_WCO_WDT_EN)
 154:Generated_Source\PSoC4/CyLFClk.h ****     /**
 155:Generated_Source\PSoC4/CyLFClk.h ****     * \addtogroup group_deepsleepwdt
 156:Generated_Source\PSoC4/CyLFClk.h ****     * @{
 157:Generated_Source\PSoC4/CyLFClk.h ****     */
 158:Generated_Source\PSoC4/CyLFClk.h ****     /* WCO WDT APIs */
 159:Generated_Source\PSoC4/CyLFClk.h ****     void   CySysClkSetTimerSource(uint32 source);
 160:Generated_Source\PSoC4/CyLFClk.h ****     void   CySysTimerSetMode(uint32 counterNum, uint32 mode);
 161:Generated_Source\PSoC4/CyLFClk.h ****     uint32 CySysTimerGetMode(uint32 counterNum);
 162:Generated_Source\PSoC4/CyLFClk.h ****     uint32 CySysTimerGetEnabledStatus(uint32 counterNum);
 163:Generated_Source\PSoC4/CyLFClk.h ****     void   CySysTimerSetClearOnMatch(uint32 counterNum, uint32 enable);
 164:Generated_Source\PSoC4/CyLFClk.h ****     uint32 CySysTimerGetClearOnMatch(uint32 counterNum);
 165:Generated_Source\PSoC4/CyLFClk.h ****     void   CySysTimerEnable(uint32 counterMask);
 166:Generated_Source\PSoC4/CyLFClk.h ****     void   CySysTimerDisable(uint32 counterMask);
 167:Generated_Source\PSoC4/CyLFClk.h ****     void   CySysTimerSetCascade(uint32 cascadeMask);
 168:Generated_Source\PSoC4/CyLFClk.h ****     uint32 CySysTimerGetCascade(void);
 169:Generated_Source\PSoC4/CyLFClk.h ****     void   CySysTimerSetMatch(uint32 counterNum, uint32 match);
 170:Generated_Source\PSoC4/CyLFClk.h ****     void   CySysTimerSetToggleBit(uint32 bits);
 171:Generated_Source\PSoC4/CyLFClk.h ****     uint32 CySysTimerGetToggleBit(void);
 172:Generated_Source\PSoC4/CyLFClk.h ****     uint32 CySysTimerGetMatch(uint32 counterNum);
 173:Generated_Source\PSoC4/CyLFClk.h ****     uint32 CySysTimerGetCount(uint32 counterNum);
 174:Generated_Source\PSoC4/CyLFClk.h ****     uint32 CySysTimerGetInterruptSource(void);
 175:Generated_Source\PSoC4/CyLFClk.h ****     void   CySysTimerClearInterrupt(uint32 counterMask);
 176:Generated_Source\PSoC4/CyLFClk.h ****     cyTimerCallback CySysTimerSetInterruptCallback(uint32 counterNum, cyTimerCallback function);
 177:Generated_Source\PSoC4/CyLFClk.h ****     cyTimerCallback CySysTimerGetInterruptCallback(uint32 counterNum);
 178:Generated_Source\PSoC4/CyLFClk.h ****     void   CySysTimerDelay(uint32 counterNum, cy_sys_timer_delaytype_enum delayType, uint32 delay);
 179:Generated_Source\PSoC4/CyLFClk.h ****     void   CySysTimerDelayUntilMatch(uint32 counterNum, cy_sys_timer_delaytype_enum delayType, uint
 180:Generated_Source\PSoC4/CyLFClk.h ****     void   CySysTimerResetCounters(uint32 countersMask);
 181:Generated_Source\PSoC4/CyLFClk.h ****     void   CySysTimerEnableIsr(uint32 counterNum);
 182:Generated_Source\PSoC4/CyLFClk.h ****     void   CySysTimerDisableIsr(uint32 counterNum);
 183:Generated_Source\PSoC4/CyLFClk.h ****     void   CySysTimerIsr(void);
 184:Generated_Source\PSoC4/CyLFClk.h ****     /** @} deepsleepwdt */
 185:Generated_Source\PSoC4/CyLFClk.h **** #endif /* (CY_IP_SRSSLT && CY_IP_WCO && CY_IP_WCO_WDT_EN) */
 186:Generated_Source\PSoC4/CyLFClk.h **** 
 187:Generated_Source\PSoC4/CyLFClk.h **** 
 188:Generated_Source\PSoC4/CyLFClk.h **** /*******************************************************************************
 189:Generated_Source\PSoC4/CyLFClk.h **** * API Constants
 190:Generated_Source\PSoC4/CyLFClk.h **** *******************************************************************************/
 191:Generated_Source\PSoC4/CyLFClk.h **** #define CY_SYS_UINT16_MAX_VAL    (0xFFFFu)
 192:Generated_Source\PSoC4/CyLFClk.h **** 
 193:Generated_Source\PSoC4/CyLFClk.h **** 
 194:Generated_Source\PSoC4/CyLFClk.h **** /*******************************************************************************
 195:Generated_Source\PSoC4/CyLFClk.h **** * Clock API Constants
 196:Generated_Source\PSoC4/CyLFClk.h **** *******************************************************************************/
 197:Generated_Source\PSoC4/CyLFClk.h **** 
 198:Generated_Source\PSoC4/CyLFClk.h **** /* CySysClkIloStart()/CySysClkIloStop() - implementation definitions */
 199:Generated_Source\PSoC4/CyLFClk.h **** #define CY_SYS_CLK_ILO_CONFIG_ENABLE                    ((uint32)(( uint32 )0x01u << 31u))
 200:Generated_Source\PSoC4/CyLFClk.h **** #define CY_SYS_CLK_DFT_SELECT_DEFAULT_MASK              ((uint32)(( uint32 )0x0fu << 8u ))
 201:Generated_Source\PSoC4/CyLFClk.h **** 
 202:Generated_Source\PSoC4/CyLFClk.h **** /* CySysClkIloCompensate() - one ILO clock in uS multiplied on thousand */
ARM GAS  C:\Users\ELEASO~1\AppData\Local\Temp\ccqlvzPP.s 			page 5


 203:Generated_Source\PSoC4/CyLFClk.h **** #if (CY_IP_SRSSV2)
 204:Generated_Source\PSoC4/CyLFClk.h ****     #define CY_SYS_CLK_ILO_PERIOD_PPH                   ((uint32) (0x0C35u))
 205:Generated_Source\PSoC4/CyLFClk.h **** #else
 206:Generated_Source\PSoC4/CyLFClk.h ****     #define CY_SYS_CLK_ILO_PERIOD_PPH                   ((uint32) (0x09C4u))
 207:Generated_Source\PSoC4/CyLFClk.h **** #endif /* (CY_IP_SRSSV2) */
 208:Generated_Source\PSoC4/CyLFClk.h **** 
 209:Generated_Source\PSoC4/CyLFClk.h **** /* CySysClkIloCompensate() - implementation definitions */
 210:Generated_Source\PSoC4/CyLFClk.h **** #define CY_SYS_CLK_ILO_CALIBR_COMPLETE_MASK             ((uint32)(( uint32 )0x01u << 31u))
 211:Generated_Source\PSoC4/CyLFClk.h **** #define CY_SYS_CLK_ILO_DFT_LSB_MASK                     ((uint32)(0x00000FFFu))
 212:Generated_Source\PSoC4/CyLFClk.h **** #define CY_SYS_CLK_TRIM_OR_COMP_STARTED                 (1u)
 213:Generated_Source\PSoC4/CyLFClk.h **** #define CY_SYS_CLK_TRIM_OR_COMP_FINISHED                (0u)
 214:Generated_Source\PSoC4/CyLFClk.h **** #define CY_SYS_CLK_COEF_PHUNDRED                        ((uint32) (0x64u))
 215:Generated_Source\PSoC4/CyLFClk.h **** #define CY_SYS_CLK_HALF_OF_CLOCK                        ((uint32) ((uint32) CY_SYS_CLK_ILO_PERIOD_P
 216:Generated_Source\PSoC4/CyLFClk.h **** 
 217:Generated_Source\PSoC4/CyLFClk.h **** /* CySysClkIloCompensate() - maximum value of desiredDelay argument */
 218:Generated_Source\PSoC4/CyLFClk.h **** #if (CY_IP_SRSSV2)
 219:Generated_Source\PSoC4/CyLFClk.h ****     #define CY_SYS_CLK_MAX_DELAY_US                     ((uint32) (0xEE6B2800u))
 220:Generated_Source\PSoC4/CyLFClk.h ****     #define CY_SYS_CLK_ILO_PERIOD                       ((uint32) (0x1Fu))
 221:Generated_Source\PSoC4/CyLFClk.h ****     #define CY_SYS_CLK_ILO_FREQ_2MSB                    ((uint32) 5u)
 222:Generated_Source\PSoC4/CyLFClk.h **** #else
 223:Generated_Source\PSoC4/CyLFClk.h ****     #define CY_SYS_CLK_MAX_DELAY_US                     ((uint32) (0x1E8480u))
 224:Generated_Source\PSoC4/CyLFClk.h ****     #define CY_SYS_CLK_ILO_FREQ_2MSB                    ((uint32) (0x28u ))
 225:Generated_Source\PSoC4/CyLFClk.h **** 
 226:Generated_Source\PSoC4/CyLFClk.h ****     /**********************************************************************************
 227:Generated_Source\PSoC4/CyLFClk.h ****     * CySysClkIloCompensate() - value to walk over oversamling in calculations with 
 228:Generated_Source\PSoC4/CyLFClk.h ****     * srsslite. The oversample can be obtained when ilo frequency in equal 80 KHz and
 229:Generated_Source\PSoC4/CyLFClk.h ****     * desired clocks are 80 000 clocks.
 230:Generated_Source\PSoC4/CyLFClk.h ****     **********************************************************************************/
 231:Generated_Source\PSoC4/CyLFClk.h ****     #define CY_SYS_CLK_MAX_LITE_NUMBER                     ((uint32) 53600u)
 232:Generated_Source\PSoC4/CyLFClk.h **** #endif /* (CY_IP_SRSSV2) */
 233:Generated_Source\PSoC4/CyLFClk.h **** 
 234:Generated_Source\PSoC4/CyLFClk.h **** #define CY_SYS_CLK_ILO_FREQ_3LSB                       ((uint32) (0x3E8u))
 235:Generated_Source\PSoC4/CyLFClk.h **** #define CY_SYS_CLK_DELAY_COUNTS_LIMIT                  ((uint32) (0xD160u))
 236:Generated_Source\PSoC4/CyLFClk.h **** #define CY_SYS_CLK_MIN_DELAY_US                        ((uint32) (0x64u))
 237:Generated_Source\PSoC4/CyLFClk.h **** 
 238:Generated_Source\PSoC4/CyLFClk.h **** /* CySysClkSetLfclkSource() - parameter definitions */
 239:Generated_Source\PSoC4/CyLFClk.h **** #if (CY_IP_SRSSV2 && CY_IP_WCO)
 240:Generated_Source\PSoC4/CyLFClk.h **** 
 241:Generated_Source\PSoC4/CyLFClk.h ****     /** Internal Low Frequency (32 kHz) Oscillator (ILO) */
 242:Generated_Source\PSoC4/CyLFClk.h ****     #define CY_SYS_CLK_LFCLK_SRC_ILO                    (0u)
 243:Generated_Source\PSoC4/CyLFClk.h **** 
 244:Generated_Source\PSoC4/CyLFClk.h ****     /** Low Frequency Watch Crystal Oscillator (WCO) */
 245:Generated_Source\PSoC4/CyLFClk.h ****     #define CY_SYS_CLK_LFCLK_SRC_WCO                    ((uint32)(( uint32 )0x01u << 30u))
 246:Generated_Source\PSoC4/CyLFClk.h **** #endif /* (CY_IP_SRSSV2 && CY_IP_WCO) */
 247:Generated_Source\PSoC4/CyLFClk.h **** 
 248:Generated_Source\PSoC4/CyLFClk.h **** 
 249:Generated_Source\PSoC4/CyLFClk.h **** #if (CY_IP_WCO)
 250:Generated_Source\PSoC4/CyLFClk.h **** 
 251:Generated_Source\PSoC4/CyLFClk.h ****     /* CySysClkSetLfclkSource() - implementation definitions */
 252:Generated_Source\PSoC4/CyLFClk.h ****     #define CY_SYS_CLK_LFCLK_SEL_MASK                   ((uint32)(( uint32 )0x03u << 30u))
 253:Generated_Source\PSoC4/CyLFClk.h **** #endif /* (CY_IP_WCO) */
 254:Generated_Source\PSoC4/CyLFClk.h **** 
 255:Generated_Source\PSoC4/CyLFClk.h **** /* CySysClkSetTimerSource() - implementation definitions */
 256:Generated_Source\PSoC4/CyLFClk.h **** #if (CY_IP_SRSSLT && CY_IP_WCO && CY_IP_WCO_WDT_EN)
 257:Generated_Source\PSoC4/CyLFClk.h ****     #define CY_SYS_CLK_TIMER_SEL_MASK                   ((uint32)(( uint32 )0x03u << 30u))
 258:Generated_Source\PSoC4/CyLFClk.h **** #endif /* (CY_IP_SRSSLT && CY_IP_WCO && CY_IP_WCO_WDT_EN) */
 259:Generated_Source\PSoC4/CyLFClk.h **** 
ARM GAS  C:\Users\ELEASO~1\AppData\Local\Temp\ccqlvzPP.s 			page 6


 260:Generated_Source\PSoC4/CyLFClk.h **** /* CySysClkSetTimerSource() - parameter definitions */
 261:Generated_Source\PSoC4/CyLFClk.h **** #if (CY_IP_SRSSLT && CY_IP_WCO && CY_IP_WCO_WDT_EN)
 262:Generated_Source\PSoC4/CyLFClk.h **** 
 263:Generated_Source\PSoC4/CyLFClk.h ****     /** Internal Low Frequency (32 kHz) Oscillator (ILO) */
 264:Generated_Source\PSoC4/CyLFClk.h ****     #define CY_SYS_CLK_TIMER_SRC_ILO                (0u)
 265:Generated_Source\PSoC4/CyLFClk.h **** 
 266:Generated_Source\PSoC4/CyLFClk.h ****     /** Low Frequency Watch Crystal Oscillator (WCO) */
 267:Generated_Source\PSoC4/CyLFClk.h ****     #define CY_SYS_CLK_TIMER_SRC_WCO                ((uint32)(( uint32 )0x01u << 30u))
 268:Generated_Source\PSoC4/CyLFClk.h **** #endif /* (CY_IP_SRSSLT && CY_IP_WCO && CY_IP_WCO_WDT_EN) */
 269:Generated_Source\PSoC4/CyLFClk.h **** 
 270:Generated_Source\PSoC4/CyLFClk.h **** /* CySysClkWcoClockOutSelect() - parameter definitions */
 271:Generated_Source\PSoC4/CyLFClk.h **** #if (CY_IP_WCO)
 272:Generated_Source\PSoC4/CyLFClk.h **** 
 273:Generated_Source\PSoC4/CyLFClk.h ****     /** Selects External crystal as WCO’s clock source */
 274:Generated_Source\PSoC4/CyLFClk.h ****     #define CY_SYS_CLK_WCO_SEL_CRYSTAL                  (1u)
 275:Generated_Source\PSoC4/CyLFClk.h **** 
 276:Generated_Source\PSoC4/CyLFClk.h ****     /** Selects External clock input on wco_in pin as WCO’s clock source */
 277:Generated_Source\PSoC4/CyLFClk.h ****     #define CY_SYS_CLK_WCO_SEL_PIN                      (0u)
 278:Generated_Source\PSoC4/CyLFClk.h **** #endif /* (CY_IP_WCO) */
 279:Generated_Source\PSoC4/CyLFClk.h **** 
 280:Generated_Source\PSoC4/CyLFClk.h **** /* CySysClkWcoClockOutSelect() - implementation definitions */
 281:Generated_Source\PSoC4/CyLFClk.h **** #if (CY_IP_WCO)
 282:Generated_Source\PSoC4/CyLFClk.h ****     #define CY_SYS_CLK_WCO_SELECT_PIN_MASK              ((uint32)(( uint32 )0x01u << 2u))
 283:Generated_Source\PSoC4/CyLFClk.h ****     #define CY_SYS_CLK_WCO_SELECT_PIN_OFFSET            ((uint32) 0x02u)
 284:Generated_Source\PSoC4/CyLFClk.h **** #endif /* (CY_IP_WCO) */
 285:Generated_Source\PSoC4/CyLFClk.h **** 
 286:Generated_Source\PSoC4/CyLFClk.h **** /* CySysClkIloRestoreFactoryTrim() - implementation definitions */
 287:Generated_Source\PSoC4/CyLFClk.h **** #if (CY_IP_SRSSV2 && CY_IP_WCO && (!CY_IP_CPUSS))
 288:Generated_Source\PSoC4/CyLFClk.h ****     #define CY_SYS_CLK_ILO_TRIM_DEFAULT_VALUE           ((uint8 )(0xF0u))
 289:Generated_Source\PSoC4/CyLFClk.h ****     #define CY_SYS_CLK_ILO_TRIM_DEFAULT_MASK            ((uint32)((uint32)0x01u << 3u))
 290:Generated_Source\PSoC4/CyLFClk.h ****     #define CY_SYS_CLK_ILO_TRIM_MASK                    ((uint32)(0x0Fu))
 291:Generated_Source\PSoC4/CyLFClk.h **** #endif /* (CY_IP_SRSSV2 && CY_IP_WCO && (!CY_IP_CPUSS)) */
 292:Generated_Source\PSoC4/CyLFClk.h **** 
 293:Generated_Source\PSoC4/CyLFClk.h **** /* CySysIloTrim() - parameter definitions and macros*/
 294:Generated_Source\PSoC4/CyLFClk.h **** #if (CY_IP_SRSSV2 && CY_IP_WCO && (!CY_IP_CPUSS))
 295:Generated_Source\PSoC4/CyLFClk.h ****     #define CY_SYS_CLK_BLOCKING                         (0u)
 296:Generated_Source\PSoC4/CyLFClk.h ****     #define CY_SYS_CLK_NON_BLOCKING                     (1u)
 297:Generated_Source\PSoC4/CyLFClk.h ****     #define CY_SYS_CLK_PERTHOUSAND                      ((uint32) 0x000003E8u )
 298:Generated_Source\PSoC4/CyLFClk.h ****     #define CY_SYS_CLK_ABS_MACRO(x)                     ((0 > (x)) ? (-(x)) : (x))
 299:Generated_Source\PSoC4/CyLFClk.h ****     #define CY_SYS_CLK_ERROR_RANGE                      ((uint32) 0x38u)
 300:Generated_Source\PSoC4/CyLFClk.h ****     #define CY_SYS_CLK_TIMEOUT                          ((uint8 ) 0x05u)
 301:Generated_Source\PSoC4/CyLFClk.h **** 
 302:Generated_Source\PSoC4/CyLFClk.h ****     /* ILO error step is 7,37 % error range */
 303:Generated_Source\PSoC4/CyLFClk.h ****     #define CY_SYS_CLK_ERROR_STEP                       (( int32) 0x02E1u)
 304:Generated_Source\PSoC4/CyLFClk.h ****     #define CY_SYS_CLK_ERROR_COEF                       ((uint32) 0x0Au)
 305:Generated_Source\PSoC4/CyLFClk.h **** #endif /* (CY_IP_SRSSV2 && CY_IP_WCO && (!CY_IP_CPUSS)) */
 306:Generated_Source\PSoC4/CyLFClk.h **** 
 307:Generated_Source\PSoC4/CyLFClk.h **** #if (CY_IP_WCO)
 308:Generated_Source\PSoC4/CyLFClk.h **** 
 309:Generated_Source\PSoC4/CyLFClk.h ****     /* WCO Configuration Register */
 310:Generated_Source\PSoC4/CyLFClk.h ****     #define CY_SYS_CLK_WCO_CONFIG_LPM_EN                (( uint32 )(( uint32 )0x01u <<  0u))
 311:Generated_Source\PSoC4/CyLFClk.h ****     #define CY_SYS_CLK_WCO_CONFIG_LPM_AUTO              (( uint32 )(( uint32 )0x01u <<  1u))
 312:Generated_Source\PSoC4/CyLFClk.h ****     #define CY_SYS_CLK_WCO_CONFIG_LPM_ENABLE            (( uint32 )(( uint32 )0x01u << 31u))
 313:Generated_Source\PSoC4/CyLFClk.h **** 
 314:Generated_Source\PSoC4/CyLFClk.h ****     /* WCO Status Register */
 315:Generated_Source\PSoC4/CyLFClk.h ****     #define CY_SYS_CLK_WCO_STATUS_OUT_BLNK_A            (( uint32 )(( uint32 )0x01u <<  0u))
 316:Generated_Source\PSoC4/CyLFClk.h **** 
ARM GAS  C:\Users\ELEASO~1\AppData\Local\Temp\ccqlvzPP.s 			page 7


 317:Generated_Source\PSoC4/CyLFClk.h ****     /* WCO Trim Register */
 318:Generated_Source\PSoC4/CyLFClk.h ****     #define CY_SYS_CLK_WCO_TRIM_XGM_MASK                (( uint32 ) 0x07u)
 319:Generated_Source\PSoC4/CyLFClk.h ****     #define CY_SYS_CLK_WCO_TRIM_XGM_SHIFT               (( uint32 ) 0x00u)
 320:Generated_Source\PSoC4/CyLFClk.h **** 
 321:Generated_Source\PSoC4/CyLFClk.h ****     #define CY_SYS_CLK_WCO_TRIM_XGM_3370NA              (( uint32 ) 0x00u)
 322:Generated_Source\PSoC4/CyLFClk.h ****     #define CY_SYS_CLK_WCO_TRIM_XGM_2620NA              (( uint32 ) 0x01u)
 323:Generated_Source\PSoC4/CyLFClk.h ****     #define CY_SYS_CLK_WCO_TRIM_XGM_2250NA              (( uint32 ) 0x02u)
 324:Generated_Source\PSoC4/CyLFClk.h ****     #define CY_SYS_CLK_WCO_TRIM_XGM_1500NA              (( uint32 ) 0x03u)
 325:Generated_Source\PSoC4/CyLFClk.h ****     #define CY_SYS_CLK_WCO_TRIM_XGM_1870NA              (( uint32 ) 0x04u)
 326:Generated_Source\PSoC4/CyLFClk.h ****     #define CY_SYS_CLK_WCO_TRIM_XGM_1120NA              (( uint32 ) 0x05u)
 327:Generated_Source\PSoC4/CyLFClk.h ****     #define CY_SYS_CLK_WCO_TRIM_XGM_750NA               (( uint32 ) 0x06u)
 328:Generated_Source\PSoC4/CyLFClk.h ****     #define CY_SYS_CLK_WCO_TRIM_XGM_0NA                 (( uint32 ) 0x07u)
 329:Generated_Source\PSoC4/CyLFClk.h **** 
 330:Generated_Source\PSoC4/CyLFClk.h ****     #define CY_SYS_CLK_WCO_TRIM_GM_MASK                 (( uint32 )(( uint32 )0x03u << 4u))
 331:Generated_Source\PSoC4/CyLFClk.h ****     #define CY_SYS_CLK_WCO_TRIM_GM_SHIFT                (( uint32 ) 0x04u)
 332:Generated_Source\PSoC4/CyLFClk.h ****     #define CY_SYS_CLK_WCO_TRIM_GM_HPM                  (( uint32 ) 0x01u)
 333:Generated_Source\PSoC4/CyLFClk.h ****     #define CY_SYS_CLK_WCO_TRIM_GM_LPM                  (( uint32 ) 0x02u)
 334:Generated_Source\PSoC4/CyLFClk.h **** #endif  /* (CY_IP_WCO) */
 335:Generated_Source\PSoC4/CyLFClk.h **** 
 336:Generated_Source\PSoC4/CyLFClk.h **** 
 337:Generated_Source\PSoC4/CyLFClk.h **** /*******************************************************************************
 338:Generated_Source\PSoC4/CyLFClk.h **** * WDT API Constants
 339:Generated_Source\PSoC4/CyLFClk.h **** *******************************************************************************/
 340:Generated_Source\PSoC4/CyLFClk.h **** #if(CY_IP_SRSSV2)
 341:Generated_Source\PSoC4/CyLFClk.h **** 
 342:Generated_Source\PSoC4/CyLFClk.h ****     #define CY_SYS_WDT_MODE_NONE                (0u)
 343:Generated_Source\PSoC4/CyLFClk.h ****     #define CY_SYS_WDT_MODE_INT                 (1u)
 344:Generated_Source\PSoC4/CyLFClk.h ****     #define CY_SYS_WDT_MODE_RESET               (2u)
 345:Generated_Source\PSoC4/CyLFClk.h ****     #define CY_SYS_WDT_MODE_INT_RESET           (3u)
 346:Generated_Source\PSoC4/CyLFClk.h **** 
 347:Generated_Source\PSoC4/CyLFClk.h ****     #define CY_SYS_WDT_COUNTER0_MASK            ((uint32)((uint32)0x01u))           /**< Counter 0 
 348:Generated_Source\PSoC4/CyLFClk.h ****     #define CY_SYS_WDT_COUNTER1_MASK            ((uint32)((uint32)0x01u << 8u))     /**< Counter 1 
 349:Generated_Source\PSoC4/CyLFClk.h ****     #define CY_SYS_WDT_COUNTER2_MASK            ((uint32)((uint32)0x01u << 16u))    /**< Counter 2 
 350:Generated_Source\PSoC4/CyLFClk.h **** 
 351:Generated_Source\PSoC4/CyLFClk.h ****     #define CY_SYS_WDT_CASCADE_NONE             ((uint32)0x00u)             /**< Neither */
 352:Generated_Source\PSoC4/CyLFClk.h ****     #define CY_SYS_WDT_CASCADE_01               ((uint32)0x01u << 3u)       /**< Cascade 01 */
 353:Generated_Source\PSoC4/CyLFClk.h ****     #define CY_SYS_WDT_CASCADE_12               ((uint32)0x01u << 11u)      /**< Cascade 12 */
 354:Generated_Source\PSoC4/CyLFClk.h **** 
 355:Generated_Source\PSoC4/CyLFClk.h ****     #define CY_SYS_WDT_COUNTER0_INT             ((uint32)0x01u << 2u)
 356:Generated_Source\PSoC4/CyLFClk.h ****     #define CY_SYS_WDT_COUNTER1_INT             ((uint32)0x01u << 10u)
 357:Generated_Source\PSoC4/CyLFClk.h ****     #define CY_SYS_WDT_COUNTER2_INT             ((uint32)0x01u << 18u)
 358:Generated_Source\PSoC4/CyLFClk.h **** 
 359:Generated_Source\PSoC4/CyLFClk.h ****     #define CY_SYS_WDT_COUNTER0_RESET           ((uint32)0x01u << 3u)       /**< Counter 0 */
 360:Generated_Source\PSoC4/CyLFClk.h ****     #define CY_SYS_WDT_COUNTER1_RESET           ((uint32)0x01u << 11u)      /**< Counter 1 */
 361:Generated_Source\PSoC4/CyLFClk.h ****     #define CY_SYS_WDT_COUNTER2_RESET           ((uint32)0x01u << 19u)      /**< Counter 2 */
 362:Generated_Source\PSoC4/CyLFClk.h **** 
 363:Generated_Source\PSoC4/CyLFClk.h ****     #define CY_SYS_WDT_COUNTERS_RESET           (CY_SYS_WDT_COUNTER0_RESET |\
 364:Generated_Source\PSoC4/CyLFClk.h ****                                                  CY_SYS_WDT_COUNTER1_RESET |\
 365:Generated_Source\PSoC4/CyLFClk.h ****                                                  CY_SYS_WDT_COUNTER2_RESET)
 366:Generated_Source\PSoC4/CyLFClk.h **** 
 367:Generated_Source\PSoC4/CyLFClk.h ****     #define CY_SYS_WDT_COUNTER0                 (0x00u)
 368:Generated_Source\PSoC4/CyLFClk.h ****     #define CY_SYS_WDT_COUNTER1                 (0x01u)
 369:Generated_Source\PSoC4/CyLFClk.h ****     #define CY_SYS_WDT_COUNTER2                 (0x02u)
 370:Generated_Source\PSoC4/CyLFClk.h **** 
 371:Generated_Source\PSoC4/CyLFClk.h ****     #define CY_SYS_WDT_COUNTER0_OFFSET          (0x00u)
 372:Generated_Source\PSoC4/CyLFClk.h ****     #define CY_SYS_WDT_COUNTER1_OFFSET          (0x02u)
 373:Generated_Source\PSoC4/CyLFClk.h ****     #define CY_SYS_WDT_COUNTER2_OFFSET          (0x04u)
ARM GAS  C:\Users\ELEASO~1\AppData\Local\Temp\ccqlvzPP.s 			page 8


 374:Generated_Source\PSoC4/CyLFClk.h **** 
 375:Generated_Source\PSoC4/CyLFClk.h ****     #define CY_SYS_WDT_MODE_MASK                ((uint32)(0x03u))
 376:Generated_Source\PSoC4/CyLFClk.h **** 
 377:Generated_Source\PSoC4/CyLFClk.h ****     #define CY_SYS_WDT_CONFIG_BITS2_MASK        (uint32)(0x1Fu)
 378:Generated_Source\PSoC4/CyLFClk.h ****     #define CY_SYS_WDT_CONFIG_BITS2_POS         (uint32)(24u)
 379:Generated_Source\PSoC4/CyLFClk.h ****     #define CY_SYS_WDT_LOWER_16BITS_MASK        (uint32)(0x0000FFFFu)
 380:Generated_Source\PSoC4/CyLFClk.h ****     #define CY_SYS_WDT_HIGHER_16BITS_MASK       (uint32)(0xFFFF0000u)
 381:Generated_Source\PSoC4/CyLFClk.h ****     #define CY_SYS_WDT_COUNTERS_MAX             (0x03u)
 382:Generated_Source\PSoC4/CyLFClk.h ****     #define CY_SYS_WDT_CNT_SHIFT                (0x08u)
 383:Generated_Source\PSoC4/CyLFClk.h ****     #define CY_SYS_WDT_CNT_MATCH_CLR_SHIFT      (0x02u)
 384:Generated_Source\PSoC4/CyLFClk.h ****     #define CY_SYS_WDT_CNT_STTS_SHIFT           (0x01u)
 385:Generated_Source\PSoC4/CyLFClk.h ****     #define CY_SYS_WDT_CNT_MATCH_SHIFT          (0x10u)
 386:Generated_Source\PSoC4/CyLFClk.h **** 
 387:Generated_Source\PSoC4/CyLFClk.h ****     #define CY_SYS_WDT_CLK_LOCK_BITS_MASK       ((uint32)0x03u << 14u)
 388:Generated_Source\PSoC4/CyLFClk.h ****     #define CY_SYS_WDT_CLK_LOCK_BIT0            ((uint32)0x01u << 14u)
 389:Generated_Source\PSoC4/CyLFClk.h ****     #define CY_SYS_WDT_CLK_LOCK_BIT1            ((uint32)0x01u << 15u)
 390:Generated_Source\PSoC4/CyLFClk.h **** 
 391:Generated_Source\PSoC4/CyLFClk.h ****     #define CY_WDT_NUM_OF_WDT                   (3u)
 392:Generated_Source\PSoC4/CyLFClk.h ****     #define CY_WDT_NUM_OF_CALLBACKS             (3u)
 393:Generated_Source\PSoC4/CyLFClk.h **** 
 394:Generated_Source\PSoC4/CyLFClk.h ****     #else
 395:Generated_Source\PSoC4/CyLFClk.h ****         #define CY_WDT_NUM_OF_WDT               (1u)
 396:Generated_Source\PSoC4/CyLFClk.h ****         #define CY_WDT_NUM_OF_CALLBACKS         (3u)
 397:Generated_Source\PSoC4/CyLFClk.h ****         #define CY_SYS_WDT_KEY                  ((uint32)(0xACED8865u))
 398:Generated_Source\PSoC4/CyLFClk.h ****         #define CY_SYS_WDT_MATCH_MASK           ((uint32)(0x0000FFFFu))
 399:Generated_Source\PSoC4/CyLFClk.h ****         #define CY_SYS_WDT_IGNORE_BITS_MASK     ((uint32)(0x000F0000u))
 400:Generated_Source\PSoC4/CyLFClk.h ****         #define CY_SYS_WDT_IGNORE_BITS_SHIFT    ((uint32)(16u))
 401:Generated_Source\PSoC4/CyLFClk.h ****         #define CY_SYS_WDT_LOWER_BIT_MASK       ((uint32)(0x00000001u))
 402:Generated_Source\PSoC4/CyLFClk.h **** 
 403:Generated_Source\PSoC4/CyLFClk.h ****         #define CY_SYS_WDT_COUNTER0             (0x00u)
 404:Generated_Source\PSoC4/CyLFClk.h **** 
 405:Generated_Source\PSoC4/CyLFClk.h **** #endif /* (CY_IP_SRSSV2) */
 406:Generated_Source\PSoC4/CyLFClk.h **** 
 407:Generated_Source\PSoC4/CyLFClk.h **** #if (CY_IP_SRSSV2 && CY_IP_WCO)
 408:Generated_Source\PSoC4/CyLFClk.h ****     #define CY_SYS_WDT_1LFCLK_ILO_DELAY_US    ((uint16)( 67u))
 409:Generated_Source\PSoC4/CyLFClk.h ****     #define CY_SYS_WDT_3LFCLK_ILO_DELAY_US    ((uint16)(201u))
 410:Generated_Source\PSoC4/CyLFClk.h ****     #define CY_SYS_WDT_1LFCLK_WCO_DELAY_US    ((uint16)( 31u))
 411:Generated_Source\PSoC4/CyLFClk.h ****     #define CY_SYS_WDT_3LFCLK_WCO_DELAY_US    ((uint16)( 93u))
 412:Generated_Source\PSoC4/CyLFClk.h **** 
 413:Generated_Source\PSoC4/CyLFClk.h ****     #define CY_SYS_WDT_1LFCLK_DELAY_US      \
 414:Generated_Source\PSoC4/CyLFClk.h ****         ((CY_SYS_CLK_LFCLK_SRC_ILO == (CY_SYS_WDT_CONFIG_REG & CY_SYS_CLK_LFCLK_SEL_MASK)) ? \
 415:Generated_Source\PSoC4/CyLFClk.h ****                                             (CY_SYS_WDT_1LFCLK_ILO_DELAY_US) : \
 416:Generated_Source\PSoC4/CyLFClk.h ****                                             (CY_SYS_WDT_1LFCLK_WCO_DELAY_US))
 417:Generated_Source\PSoC4/CyLFClk.h **** 
 418:Generated_Source\PSoC4/CyLFClk.h ****     #define CY_SYS_WDT_3LFCLK_DELAY_US      \
 419:Generated_Source\PSoC4/CyLFClk.h ****         ((CY_SYS_CLK_LFCLK_SRC_ILO == (CY_SYS_WDT_CONFIG_REG & CY_SYS_CLK_LFCLK_SEL_MASK)) ? \
 420:Generated_Source\PSoC4/CyLFClk.h ****                                             (CY_SYS_WDT_3LFCLK_ILO_DELAY_US) : \
 421:Generated_Source\PSoC4/CyLFClk.h ****                                             (CY_SYS_WDT_3LFCLK_WCO_DELAY_US))
 422:Generated_Source\PSoC4/CyLFClk.h ****     #else
 423:Generated_Source\PSoC4/CyLFClk.h ****         #define CY_SYS_WDT_1LFCLK_DELAY_US      ((uint16)  (67u))
 424:Generated_Source\PSoC4/CyLFClk.h ****         #define CY_SYS_WDT_3LFCLK_DELAY_US      ((uint16) (201u))
 425:Generated_Source\PSoC4/CyLFClk.h **** #endif /* (CY_IP_SRSSV2 && CY_IP_WCO) */
 426:Generated_Source\PSoC4/CyLFClk.h **** 
 427:Generated_Source\PSoC4/CyLFClk.h **** #if (CY_IP_SRSSLT && CY_IP_WCO && CY_IP_WCO_WDT_EN)
 428:Generated_Source\PSoC4/CyLFClk.h **** 
 429:Generated_Source\PSoC4/CyLFClk.h ****     #define CY_SYS_TIMER_MODE_NONE              (0u)
 430:Generated_Source\PSoC4/CyLFClk.h ****     #define CY_SYS_TIMER_MODE_INT               (1u)
ARM GAS  C:\Users\ELEASO~1\AppData\Local\Temp\ccqlvzPP.s 			page 9


 431:Generated_Source\PSoC4/CyLFClk.h **** 
 432:Generated_Source\PSoC4/CyLFClk.h ****     #define CY_SYS_TIMER0_MASK                  ((uint32)((uint32)0x01u))           /**< Counter 0 
 433:Generated_Source\PSoC4/CyLFClk.h ****     #define CY_SYS_TIMER1_MASK                  ((uint32)((uint32)0x01u << 8u))     /**< Counter 1 
 434:Generated_Source\PSoC4/CyLFClk.h ****     #define CY_SYS_TIMER2_MASK                  ((uint32)((uint32)0x01u << 16u))    /**< Counter 2 
 435:Generated_Source\PSoC4/CyLFClk.h **** 
 436:Generated_Source\PSoC4/CyLFClk.h ****     #define CY_SYS_TIMER0_RESET                 ((uint32)0x01u << 3u)       /**< Counter 0 */
 437:Generated_Source\PSoC4/CyLFClk.h ****     #define CY_SYS_TIMER1_RESET                 ((uint32)0x01u << 11u)      /**< Counter 1 */
 438:Generated_Source\PSoC4/CyLFClk.h ****     #define CY_SYS_TIMER2_RESET                 ((uint32)0x01u << 19u)      /**< Counter 2 */
 439:Generated_Source\PSoC4/CyLFClk.h **** 
 440:Generated_Source\PSoC4/CyLFClk.h ****     #define CY_SYS_TIMER_RESET                  (CY_SYS_TIMER0_RESET |\
 441:Generated_Source\PSoC4/CyLFClk.h ****                                                  CY_SYS_TIMER1_RESET |\
 442:Generated_Source\PSoC4/CyLFClk.h ****                                                  CY_SYS_TIMER2_RESET)
 443:Generated_Source\PSoC4/CyLFClk.h **** 
 444:Generated_Source\PSoC4/CyLFClk.h ****     #define CY_SYS_TIMER_CASCADE_NONE           ((uint32)0x00u)             /**< Neither */
 445:Generated_Source\PSoC4/CyLFClk.h ****     #define CY_SYS_TIMER_CASCADE_01             ((uint32)0x01u << 3u)       /**< Cascade 01 */
 446:Generated_Source\PSoC4/CyLFClk.h ****     #define CY_SYS_TIMER_CASCADE_12             ((uint32)0x01u << 11u)      /**< Cascade 12 */
 447:Generated_Source\PSoC4/CyLFClk.h **** 
 448:Generated_Source\PSoC4/CyLFClk.h ****     #define CY_SYS_TIMER0_INT                   ((uint32)0x01u << 2u)
 449:Generated_Source\PSoC4/CyLFClk.h ****     #define CY_SYS_TIMER1_INT                   ((uint32)0x01u << 10u)
 450:Generated_Source\PSoC4/CyLFClk.h ****     #define CY_SYS_TIMER2_INT                   ((uint32)0x01u << 18u)
 451:Generated_Source\PSoC4/CyLFClk.h **** 
 452:Generated_Source\PSoC4/CyLFClk.h ****     #define CY_SYS_TIMER0                       (0x00u)
 453:Generated_Source\PSoC4/CyLFClk.h ****     #define CY_SYS_TIMER1                       (0x01u)
 454:Generated_Source\PSoC4/CyLFClk.h ****     #define CY_SYS_TIMER2                       (0x02u)
 455:Generated_Source\PSoC4/CyLFClk.h **** 
 456:Generated_Source\PSoC4/CyLFClk.h ****     #define CY_SYS_TIMER_MODE_MASK              ((uint32)(0x01u))
 457:Generated_Source\PSoC4/CyLFClk.h **** 
 458:Generated_Source\PSoC4/CyLFClk.h ****     #define CY_SYS_TIMER_CONFIG_BITS2_MASK      (uint32)(0x1Fu)
 459:Generated_Source\PSoC4/CyLFClk.h ****     #define CY_SYS_TIMER_CONFIG_BITS2_POS       (uint32)(24u)
 460:Generated_Source\PSoC4/CyLFClk.h ****     #define CY_SYS_TIMER_LOWER_16BITS_MASK      (uint32)(0x0000FFFFu)
 461:Generated_Source\PSoC4/CyLFClk.h ****     #define CY_SYS_TIMER_HIGHER_16BITS_MASK     (uint32)(0xFFFF0000u)
 462:Generated_Source\PSoC4/CyLFClk.h ****     #define CY_SYS_TIMER_COUNTERS_MAX           (0x03u)
 463:Generated_Source\PSoC4/CyLFClk.h ****     #define CY_SYS_TIMER_CNT_SHIFT              (0x08u)
 464:Generated_Source\PSoC4/CyLFClk.h ****     #define CY_SYS_TIMER_CNT_MATCH_CLR_SHIFT    (0x02u)
 465:Generated_Source\PSoC4/CyLFClk.h ****     #define CY_SYS_TIMER_CNT_STTS_SHIFT         (0x01u)
 466:Generated_Source\PSoC4/CyLFClk.h ****     #define CY_SYS_TIMER_CNT_MATCH_SHIFT        (0x10u)
 467:Generated_Source\PSoC4/CyLFClk.h **** 
 468:Generated_Source\PSoC4/CyLFClk.h ****     #define CY_SYS_NUM_OF_TIMERS                (3u)
 469:Generated_Source\PSoC4/CyLFClk.h **** 
 470:Generated_Source\PSoC4/CyLFClk.h ****     #define CY_SYS_SET_NEW_TIMER_SOURCE_ILO     ((uint16)(0x02u))
 471:Generated_Source\PSoC4/CyLFClk.h ****     #define CY_SYS_SET_NEW_TIMER_SOURCE_WCO     ((uint16)(0x01u))
 472:Generated_Source\PSoC4/CyLFClk.h ****     #define CY_SYS_WCO_WDT_CLKEN_RESET_MASK     ((uint32)(0x03u))
 473:Generated_Source\PSoC4/CyLFClk.h **** 
 474:Generated_Source\PSoC4/CyLFClk.h ****     #define CY_SYS_TIMER_1ILO_DELAY_US          ((uint16)( 67u))
 475:Generated_Source\PSoC4/CyLFClk.h ****     #define CY_SYS_TIMER_4ILO_DELAY_US          ((uint16)(268u))
 476:Generated_Source\PSoC4/CyLFClk.h ****     #define CY_SYS_TIMER_3ILO_DELAY_US          ((uint16)(201u))
 477:Generated_Source\PSoC4/CyLFClk.h **** 
 478:Generated_Source\PSoC4/CyLFClk.h ****     #define CY_SYS_TIMER_1WCO_DELAY_US          ((uint16)( 31u))
 479:Generated_Source\PSoC4/CyLFClk.h ****     #define CY_SYS_TIMER_4WCO_DELAY_US          ((uint16)(124u))
 480:Generated_Source\PSoC4/CyLFClk.h ****     #define CY_SYS_TIMER_3WCO_DELAY_US          ((uint16)( 93u))
 481:Generated_Source\PSoC4/CyLFClk.h **** 
 482:Generated_Source\PSoC4/CyLFClk.h ****     #define CY_SYS_1TIMER_DELAY_US      \
 483:Generated_Source\PSoC4/CyLFClk.h ****         ((CY_SYS_CLK_TIMER_SRC_ILO == (CY_SYS_WCO_WDT_CONFIG_REG & CY_SYS_CLK_TIMER_SEL_MASK)) ? \
 484:Generated_Source\PSoC4/CyLFClk.h ****                                             (CY_SYS_TIMER_1ILO_DELAY_US) : \
 485:Generated_Source\PSoC4/CyLFClk.h ****                                             (CY_SYS_TIMER_1WCO_DELAY_US))
 486:Generated_Source\PSoC4/CyLFClk.h **** 
 487:Generated_Source\PSoC4/CyLFClk.h ****     #define CY_SYS_4TIMER_DELAY_US      \
ARM GAS  C:\Users\ELEASO~1\AppData\Local\Temp\ccqlvzPP.s 			page 10


 488:Generated_Source\PSoC4/CyLFClk.h ****         ((CY_SYS_CLK_TIMER_SRC_ILO == (CY_SYS_WCO_WDT_CONFIG_REG & CY_SYS_CLK_TIMER_SEL_MASK)) ? \
 489:Generated_Source\PSoC4/CyLFClk.h ****                                             (CY_SYS_TIMER_4WCO_DELAY_US) : \
 490:Generated_Source\PSoC4/CyLFClk.h ****                                             (CY_SYS_TIMER_4ILO_DELAY_US))
 491:Generated_Source\PSoC4/CyLFClk.h **** 
 492:Generated_Source\PSoC4/CyLFClk.h ****     #define CY_SYS_3TIMER_DELAY_US      \
 493:Generated_Source\PSoC4/CyLFClk.h ****         ((CY_SYS_CLK_TIMER_SRC_ILO == (CY_SYS_WCO_WDT_CONFIG_REG & CY_SYS_CLK_TIMER_SEL_MASK)) ? \
 494:Generated_Source\PSoC4/CyLFClk.h ****                                             (CY_SYS_TIMER_3ILO_DELAY_US) : \
 495:Generated_Source\PSoC4/CyLFClk.h ****                                             (CY_SYS_TIMER_3WCO_DELAY_US))
 496:Generated_Source\PSoC4/CyLFClk.h **** 
 497:Generated_Source\PSoC4/CyLFClk.h ****     #define CY_SYS_SET_CURRENT_TIMER_SOURCE_BIT      \
 498:Generated_Source\PSoC4/CyLFClk.h ****         ((CY_SYS_CLK_TIMER_SRC_ILO == (CY_SYS_WCO_WDT_CONFIG_REG & CY_SYS_CLK_TIMER_SEL_MASK)) ? \
 499:Generated_Source\PSoC4/CyLFClk.h ****                                             (CY_SYS_SET_NEW_TIMER_SOURCE_ILO) : \
 500:Generated_Source\PSoC4/CyLFClk.h ****                                             (CY_SYS_SET_NEW_TIMER_SOURCE_WCO))
 501:Generated_Source\PSoC4/CyLFClk.h **** 
 502:Generated_Source\PSoC4/CyLFClk.h **** #endif /* (CY_IP_SRSSLT && CY_IP_WCO && CY_IP_WCO_WDT_EN) */
 503:Generated_Source\PSoC4/CyLFClk.h **** 
 504:Generated_Source\PSoC4/CyLFClk.h **** /* CySysClkWcoSetPowerMode() */
 505:Generated_Source\PSoC4/CyLFClk.h **** #define CY_SYS_CLK_WCO_HPM                              (0x0u)     /**< WCO High power mode */
 506:Generated_Source\PSoC4/CyLFClk.h **** 
 507:Generated_Source\PSoC4/CyLFClk.h **** #if(CY_IP_BLESS)
 508:Generated_Source\PSoC4/CyLFClk.h ****     #define CY_SYS_CLK_WCO_LPM                          (0x1u)     /**< WCO Low power mode */
 509:Generated_Source\PSoC4/CyLFClk.h **** #endif /* (CY_IP_BLESS) */
 510:Generated_Source\PSoC4/CyLFClk.h **** 
 511:Generated_Source\PSoC4/CyLFClk.h **** 
 512:Generated_Source\PSoC4/CyLFClk.h **** /*******************************************************************************
 513:Generated_Source\PSoC4/CyLFClk.h **** *       Trim Registers Constants 
 514:Generated_Source\PSoC4/CyLFClk.h **** ********************************************************************************/
 515:Generated_Source\PSoC4/CyLFClk.h **** #define CY_SYS_CLK_SYS_CLK_DEVIDER                  ((uint32)0x0Au)
 516:Generated_Source\PSoC4/CyLFClk.h **** #define CY_SYS_CLK_SEL_ILO_DFT_SOURCE               ((uint32)0x00000100u)
 517:Generated_Source\PSoC4/CyLFClk.h **** #define CY_SYS_CLK_FOURBITS_MAX                     (( int32)0x0f)
 518:Generated_Source\PSoC4/CyLFClk.h **** #define CY_SYS_CLK_HALF_OF_STEP                     (( int32)((uint32) CY_SYS_CLK_ERROR_STEP >> 1u)
 519:Generated_Source\PSoC4/CyLFClk.h **** 
 520:Generated_Source\PSoC4/CyLFClk.h **** #if(CY_IP_SRSSV2)
 521:Generated_Source\PSoC4/CyLFClk.h ****     #define CY_SYS_CLK_ILO_DESIRED_FREQ_HZ          (32000u)
 522:Generated_Source\PSoC4/CyLFClk.h ****     #define CY_SYS_CLK_DFT_SELSIZE                  ((uint32) 0x3F)
 523:Generated_Source\PSoC4/CyLFClk.h **** #else
 524:Generated_Source\PSoC4/CyLFClk.h ****     #define CY_SYS_CLK_ILO_DESIRED_FREQ_HZ          (40000u)
 525:Generated_Source\PSoC4/CyLFClk.h ****     #define CY_SYS_CLK_DFT_SELSIZE                  ((uint32) 0x0F)
 526:Generated_Source\PSoC4/CyLFClk.h **** #endif /* (CY_IP_SRSSV2) */
 527:Generated_Source\PSoC4/CyLFClk.h **** 
 528:Generated_Source\PSoC4/CyLFClk.h **** #define CY_SYS_TST_DDFT_CTRL_REG_DEFAULT_MASK    ((uint32)((CY_SYS_CLK_DFT_SELSIZE << 8u) | (CY_SYS
 529:Generated_Source\PSoC4/CyLFClk.h **** #define CY_SYS_TST_DDFT_SELECT_CLK1              ((uint32) ((uint32) CYDEV_DFT_SELECT_CLK1 << 8u))
 530:Generated_Source\PSoC4/CyLFClk.h **** #define CY_SYS_TST_DDFT_CTRL_REG_SEL2_CLK1       ((uint32) (CY_SYS_TST_DDFT_SELECT_CLK1 | CYDEV_DFT
 531:Generated_Source\PSoC4/CyLFClk.h **** 
 532:Generated_Source\PSoC4/CyLFClk.h **** 
 533:Generated_Source\PSoC4/CyLFClk.h **** /*******************************************************************************
 534:Generated_Source\PSoC4/CyLFClk.h **** *       Trim Registers 
 535:Generated_Source\PSoC4/CyLFClk.h **** ********************************************************************************/
 536:Generated_Source\PSoC4/CyLFClk.h **** /* DFT TST Control Register*/
 537:Generated_Source\PSoC4/CyLFClk.h **** #define CY_SYS_TST_DDFT_CTRL_REG                         (*(reg32*) CYREG_TST_DDFT_CTRL)
 538:Generated_Source\PSoC4/CyLFClk.h **** #define CY_SYS_CNT_CTRL_PTR                              ( (reg32*) CYREG_TST_DDFT_CTRL)
 539:Generated_Source\PSoC4/CyLFClk.h **** 
 540:Generated_Source\PSoC4/CyLFClk.h **** /* DFT TST Counter 1 Register*/
 541:Generated_Source\PSoC4/CyLFClk.h **** #define CY_SYS_CNT_REG1_REG                              (*(reg32*) CYREG_TST_TRIM_CNTR1)
 542:Generated_Source\PSoC4/CyLFClk.h **** #define CY_SYS_CNT_REG1_PTR                              ( (reg32*) CYREG_TST_TRIM_CNTR1)
 543:Generated_Source\PSoC4/CyLFClk.h **** 
 544:Generated_Source\PSoC4/CyLFClk.h **** /* DFT TST Counter 2 Register*/
ARM GAS  C:\Users\ELEASO~1\AppData\Local\Temp\ccqlvzPP.s 			page 11


 545:Generated_Source\PSoC4/CyLFClk.h **** #define CY_SYS_CNT_REG2_REG                              (*(reg32*) CYREG_TST_TRIM_CNTR2)
 546:Generated_Source\PSoC4/CyLFClk.h **** #define CY_SYS_CNT_REG2_PTR                              ( (reg32*) CYREG_TST_TRIM_CNTR2)
 547:Generated_Source\PSoC4/CyLFClk.h **** 
 548:Generated_Source\PSoC4/CyLFClk.h **** /* DFT Muxes Configuration Register*/
 549:Generated_Source\PSoC4/CyLFClk.h **** #define CY_SYS_CLK_DFT_REG                               (*(reg32*) CYREG_CLK_DFT_SELECT)
 550:Generated_Source\PSoC4/CyLFClk.h **** #define CY_SYS_CLK_DFT_PTR                               ( (reg32*) CYREG_CLK_DFT_SELECT)
 551:Generated_Source\PSoC4/CyLFClk.h **** 
 552:Generated_Source\PSoC4/CyLFClk.h **** /* ILO Configuration Register*/
 553:Generated_Source\PSoC4/CyLFClk.h **** #define CY_SYS_CLK_ILO_CONFIG_REG                        (*(reg32 *) CYREG_CLK_ILO_CONFIG)
 554:Generated_Source\PSoC4/CyLFClk.h **** #define CY_SYS_CLK_ILO_CONFIG_PTR                        ( (reg32 *) CYREG_CLK_ILO_CONFIG)
 555:Generated_Source\PSoC4/CyLFClk.h **** 
 556:Generated_Source\PSoC4/CyLFClk.h **** /* ILO Trim Register*/
 557:Generated_Source\PSoC4/CyLFClk.h **** #if(CY_IP_SRSSV2 && CY_IP_WCO)
 558:Generated_Source\PSoC4/CyLFClk.h ****     #define CY_SYS_CLK_ILO_TRIM_REG                      (*(reg32 *) CYREG_CLK_ILO_TRIM)
 559:Generated_Source\PSoC4/CyLFClk.h ****     #define CY_SYS_CLK_ILO_TRIM_PTR                      ( (reg32 *) CYREG_CLK_ILO_TRIM)
 560:Generated_Source\PSoC4/CyLFClk.h **** #endif  /* (CY_IP_SRSSV2) && CY_IP_WCO*/
 561:Generated_Source\PSoC4/CyLFClk.h **** 
 562:Generated_Source\PSoC4/CyLFClk.h **** #if (CY_IP_WCO)
 563:Generated_Source\PSoC4/CyLFClk.h ****     #if (CY_IP_BLESS)
 564:Generated_Source\PSoC4/CyLFClk.h **** 
 565:Generated_Source\PSoC4/CyLFClk.h ****         /* WCO Status Register */
 566:Generated_Source\PSoC4/CyLFClk.h ****         #define CY_SYS_CLK_WCO_STATUS_REG               (*(reg32 *) CYREG_BLE_BLESS_WCO_STATUS)
 567:Generated_Source\PSoC4/CyLFClk.h ****         #define CY_SYS_CLK_WCO_STATUS_PTR               ( (reg32 *) CYREG_BLE_BLESS_WCO_STATUS)
 568:Generated_Source\PSoC4/CyLFClk.h **** 
 569:Generated_Source\PSoC4/CyLFClk.h ****         /* WCO Configuration Register */
 570:Generated_Source\PSoC4/CyLFClk.h ****         #define CY_SYS_CLK_WCO_CONFIG_REG               (*(reg32 *) CYREG_BLE_BLESS_WCO_CONFIG)
 571:Generated_Source\PSoC4/CyLFClk.h ****         #define CY_SYS_CLK_WCO_CONFIG_PTR               ( (reg32 *) CYREG_BLE_BLESS_WCO_CONFIG)
 572:Generated_Source\PSoC4/CyLFClk.h **** 
 573:Generated_Source\PSoC4/CyLFClk.h ****         /* WCO Trim Register */
 574:Generated_Source\PSoC4/CyLFClk.h ****         #define CY_SYS_CLK_WCO_TRIM_REG                 (*(reg32 *) CYREG_BLE_BLESS_WCO_TRIM)
 575:Generated_Source\PSoC4/CyLFClk.h ****         #define CY_SYS_CLK_WCO_TRIM_PTR                 ( (reg32 *) CYREG_BLE_BLESS_WCO_TRIM)
 576:Generated_Source\PSoC4/CyLFClk.h ****     #else
 577:Generated_Source\PSoC4/CyLFClk.h **** 
 578:Generated_Source\PSoC4/CyLFClk.h ****         /* WCO Status Register */
 579:Generated_Source\PSoC4/CyLFClk.h ****         #define CY_SYS_CLK_WCO_STATUS_REG               (*(reg32 *) CYREG_WCO_STATUS)
 580:Generated_Source\PSoC4/CyLFClk.h ****         #define CY_SYS_CLK_WCO_STATUS_PTR               ( (reg32 *) CYREG_WCO_STATUS)
 581:Generated_Source\PSoC4/CyLFClk.h **** 
 582:Generated_Source\PSoC4/CyLFClk.h ****         /* WCO Configuration Register */
 583:Generated_Source\PSoC4/CyLFClk.h ****         #define CY_SYS_CLK_WCO_CONFIG_REG               (*(reg32 *) CYREG_WCO_CONFIG)
 584:Generated_Source\PSoC4/CyLFClk.h ****         #define CY_SYS_CLK_WCO_CONFIG_PTR               ( (reg32 *) CYREG_WCO_CONFIG)
 585:Generated_Source\PSoC4/CyLFClk.h **** 
 586:Generated_Source\PSoC4/CyLFClk.h ****         /* WCO Trim Register */
 587:Generated_Source\PSoC4/CyLFClk.h ****         #define CY_SYS_CLK_WCO_TRIM_REG                 (*(reg32 *) CYREG_WCO_TRIM)
 588:Generated_Source\PSoC4/CyLFClk.h ****         #define CY_SYS_CLK_WCO_TRIM_PTR                 ( (reg32 *) CYREG_WCO_TRIM)
 589:Generated_Source\PSoC4/CyLFClk.h ****     #endif /* (CY_IP_BLESS) */
 590:Generated_Source\PSoC4/CyLFClk.h **** #endif  /* (CY_IP_WCO) */
 591:Generated_Source\PSoC4/CyLFClk.h **** 
 592:Generated_Source\PSoC4/CyLFClk.h **** 
 593:Generated_Source\PSoC4/CyLFClk.h **** /*******************************************************************************
 594:Generated_Source\PSoC4/CyLFClk.h **** * WDT API Registers
 595:Generated_Source\PSoC4/CyLFClk.h **** *******************************************************************************/
 596:Generated_Source\PSoC4/CyLFClk.h **** #if(CY_IP_SRSSV2)
 597:Generated_Source\PSoC4/CyLFClk.h ****     #define CY_SYS_WDT_CTRLOW_REG               (*(reg32 *) CYREG_WDT_CTRLOW)
 598:Generated_Source\PSoC4/CyLFClk.h ****     #define CY_SYS_WDT_CTRLOW_PTR               ( (reg32 *) CYREG_WDT_CTRLOW)
 599:Generated_Source\PSoC4/CyLFClk.h **** 
 600:Generated_Source\PSoC4/CyLFClk.h ****     #define CY_SYS_WDT_CTRHIGH_REG              (*(reg32 *) CYREG_WDT_CTRHIGH)
 601:Generated_Source\PSoC4/CyLFClk.h ****     #define CY_SYS_WDT_CTRHIGH_PTR              ( (reg32 *) CYREG_WDT_CTRHIGH)
ARM GAS  C:\Users\ELEASO~1\AppData\Local\Temp\ccqlvzPP.s 			page 12


 602:Generated_Source\PSoC4/CyLFClk.h **** 
 603:Generated_Source\PSoC4/CyLFClk.h ****     #define CY_SYS_WDT_MATCH_REG                (*(reg32 *) CYREG_WDT_MATCH)
 604:Generated_Source\PSoC4/CyLFClk.h ****     #define CY_SYS_WDT_MATCH_PTR                ( (reg32 *) CYREG_WDT_MATCH)
 605:Generated_Source\PSoC4/CyLFClk.h **** 
 606:Generated_Source\PSoC4/CyLFClk.h ****     #define CY_SYS_WDT_CONFIG_REG               (*(reg32 *) CYREG_WDT_CONFIG)
 607:Generated_Source\PSoC4/CyLFClk.h ****     #define CY_SYS_WDT_CONFIG_PTR               ( (reg32 *) CYREG_WDT_CONFIG)
 608:Generated_Source\PSoC4/CyLFClk.h **** 
 609:Generated_Source\PSoC4/CyLFClk.h ****     #define CY_SYS_WDT_CONTROL_REG              (*(reg32 *) CYREG_WDT_CONTROL)
 610:Generated_Source\PSoC4/CyLFClk.h ****     #define CY_SYS_WDT_CONTROL_PTR              ( (reg32 *) CYREG_WDT_CONTROL)
 611:Generated_Source\PSoC4/CyLFClk.h **** #else
 612:Generated_Source\PSoC4/CyLFClk.h ****     #define CY_SYS_WDT_DISABLE_KEY_REG          (*(reg32 *) CYREG_WDT_DISABLE_KEY)
 613:Generated_Source\PSoC4/CyLFClk.h ****     #define CY_SYS_WDT_DISABLE_KEY_PTR          ( (reg32 *) CYREG_WDT_DISABLE_KEY)
 614:Generated_Source\PSoC4/CyLFClk.h **** 
 615:Generated_Source\PSoC4/CyLFClk.h ****     #define CY_SYS_WDT_MATCH_REG                (*(reg32 *) CYREG_WDT_MATCH)
 616:Generated_Source\PSoC4/CyLFClk.h ****     #define CY_SYS_WDT_MATCH_PTR                ( (reg32 *) CYREG_WDT_MATCH)
 617:Generated_Source\PSoC4/CyLFClk.h **** 
 618:Generated_Source\PSoC4/CyLFClk.h ****     #define CY_SYS_WDT_COUNTER_REG              (*(reg32 *) CYREG_WDT_COUNTER)
 619:Generated_Source\PSoC4/CyLFClk.h ****     #define CY_SYS_WDT_COUNTER_PTR              ( (reg32 *) CYREG_WDT_COUNTER)
 620:Generated_Source\PSoC4/CyLFClk.h **** 
 621:Generated_Source\PSoC4/CyLFClk.h ****     #define CY_SYS_SRSS_INTR_REG                (*(reg32 *) CYREG_SRSS_INTR)
 622:Generated_Source\PSoC4/CyLFClk.h ****     #define CY_SYS_SRSS_INTR_PTR                ( (reg32 *) CYREG_SRSS_INTR)
 623:Generated_Source\PSoC4/CyLFClk.h **** 
 624:Generated_Source\PSoC4/CyLFClk.h ****     #define CY_SYS_SRSS_INTR_MASK_REG           (*(reg32 *) CYREG_SRSS_INTR_MASK)
 625:Generated_Source\PSoC4/CyLFClk.h ****     #define CY_SYS_SRSS_INTR_MASK_PTR           ( (reg32 *) CYREG_SRSS_INTR_MASK)
 626:Generated_Source\PSoC4/CyLFClk.h **** #endif  /* (CY_IP_SRSSV2) */
 627:Generated_Source\PSoC4/CyLFClk.h **** 
 628:Generated_Source\PSoC4/CyLFClk.h **** #if (CY_IP_SRSSLT && CY_IP_WCO && CY_IP_WCO_WDT_EN)
 629:Generated_Source\PSoC4/CyLFClk.h ****     #define CY_SYS_WCO_WDT_CTRLOW_REG           (*(reg32 *) CYREG_WCO_WDT_CTRLOW)
 630:Generated_Source\PSoC4/CyLFClk.h ****     #define CY_SYS_WCO_WDT_CTRLOW_PTR           ( (reg32 *) CYREG_WCO_WDT_CTRLOW)
 631:Generated_Source\PSoC4/CyLFClk.h **** 
 632:Generated_Source\PSoC4/CyLFClk.h ****     #define CY_SYS_WCO_WDT_CTRHIGH_REG          (*(reg32 *) CYREG_WCO_WDT_CTRHIGH)
 633:Generated_Source\PSoC4/CyLFClk.h ****     #define CY_SYS_WCO_WDT_CTRHIGH_PTR          ( (reg32 *) CYREG_WCO_WDT_CTRHIGH)
 634:Generated_Source\PSoC4/CyLFClk.h **** 
 635:Generated_Source\PSoC4/CyLFClk.h ****     #define CY_SYS_WCO_WDT_MATCH_REG            (*(reg32 *) CYREG_WCO_WDT_MATCH)
 636:Generated_Source\PSoC4/CyLFClk.h ****     #define CY_SYS_WCO_WDT_MATCH_PTR            ( (reg32 *) CYREG_WCO_WDT_MATCH)
 637:Generated_Source\PSoC4/CyLFClk.h **** 
 638:Generated_Source\PSoC4/CyLFClk.h ****     #define CY_SYS_WCO_WDT_CONFIG_REG           (*(reg32 *) CYREG_WCO_WDT_CONFIG)
 639:Generated_Source\PSoC4/CyLFClk.h ****     #define CY_SYS_WCO_WDT_CONFIG_PTR           ( (reg32 *) CYREG_WCO_WDT_CONFIG)
 640:Generated_Source\PSoC4/CyLFClk.h **** 
 641:Generated_Source\PSoC4/CyLFClk.h ****     #define CY_SYS_WCO_WDT_CONTROL_REG          (*(reg32 *) CYREG_WCO_WDT_CONTROL)
 642:Generated_Source\PSoC4/CyLFClk.h ****     #define CY_SYS_WCO_WDT_CONTROL_PTR          ( (reg32 *) CYREG_WCO_WDT_CONTROL)
 643:Generated_Source\PSoC4/CyLFClk.h **** 
 644:Generated_Source\PSoC4/CyLFClk.h ****     #define CY_SYS_WCO_WDT_CLKEN_REG            (*(reg32 *) CYREG_WCO_WDT_CLKEN)
 645:Generated_Source\PSoC4/CyLFClk.h ****     #define CY_SYS_WCO_WDT_CLKEN_PTR            ( (reg32 *) CYREG_WCO_WDT_CLKEN)
 646:Generated_Source\PSoC4/CyLFClk.h **** #endif /* (CY_IP_SRSSLT && CY_IP_WCO && CY_IP_WCO_WDT_EN) */
 647:Generated_Source\PSoC4/CyLFClk.h **** 
 648:Generated_Source\PSoC4/CyLFClk.h **** #if (CY_IP_WCO)
 649:Generated_Source\PSoC4/CyLFClk.h **** 
 650:Generated_Source\PSoC4/CyLFClk.h ****     /*******************************************************************************
 651:Generated_Source\PSoC4/CyLFClk.h ****     * Function Name: CySysClkWcoSetHighPowerMode
 652:Generated_Source\PSoC4/CyLFClk.h ****     ********************************************************************************
 653:Generated_Source\PSoC4/CyLFClk.h ****     *
 654:Generated_Source\PSoC4/CyLFClk.h ****     * Summary:
 655:Generated_Source\PSoC4/CyLFClk.h ****     *  Sets the high power mode for the 32 KHz WCO.
 656:Generated_Source\PSoC4/CyLFClk.h ****     *
 657:Generated_Source\PSoC4/CyLFClk.h ****     *******************************************************************************/
 658:Generated_Source\PSoC4/CyLFClk.h ****     static CY_INLINE void CySysClkWcoSetHighPowerMode(void)
ARM GAS  C:\Users\ELEASO~1\AppData\Local\Temp\ccqlvzPP.s 			page 13


 659:Generated_Source\PSoC4/CyLFClk.h ****     {
  27              		.loc 1 659 0
  28              		.cfi_startproc
  29              		@ args = 0, pretend = 0, frame = 0
  30              		@ frame_needed = 1, uses_anonymous_args = 0
  31 0000 80B5     		push	{r7, lr}
  32              		.cfi_def_cfa_offset 8
  33              		.cfi_offset 7, -8
  34              		.cfi_offset 14, -4
  35 0002 00AF     		add	r7, sp, #0
  36              		.cfi_def_cfa_register 7
 660:Generated_Source\PSoC4/CyLFClk.h ****         /* Switch off low power mode for WCO */
 661:Generated_Source\PSoC4/CyLFClk.h ****         CY_SYS_CLK_WCO_CONFIG_REG &= (uint32) ~CY_SYS_CLK_WCO_CONFIG_LPM_EN;
  37              		.loc 1 661 0
  38 0004 0F4B     		ldr	r3, .L2
  39 0006 0F4A     		ldr	r2, .L2
  40 0008 1268     		ldr	r2, [r2]
  41 000a 0121     		movs	r1, #1
  42 000c 8A43     		bics	r2, r1
  43 000e 1A60     		str	r2, [r3]
 662:Generated_Source\PSoC4/CyLFClk.h **** 
 663:Generated_Source\PSoC4/CyLFClk.h ****         /* Switch off auto low power mode in WCO */
 664:Generated_Source\PSoC4/CyLFClk.h ****         CY_SYS_CLK_WCO_CONFIG_REG &= ((uint32)~CY_SYS_CLK_WCO_CONFIG_LPM_AUTO);
  44              		.loc 1 664 0
  45 0010 0C4B     		ldr	r3, .L2
  46 0012 0C4A     		ldr	r2, .L2
  47 0014 1268     		ldr	r2, [r2]
  48 0016 0221     		movs	r1, #2
  49 0018 8A43     		bics	r2, r1
  50 001a 1A60     		str	r2, [r3]
 665:Generated_Source\PSoC4/CyLFClk.h **** 
 666:Generated_Source\PSoC4/CyLFClk.h ****         /* Restore WCO trim register HPM settings */
 667:Generated_Source\PSoC4/CyLFClk.h ****         CY_SYS_CLK_WCO_TRIM_REG = (CY_SYS_CLK_WCO_TRIM_REG & (uint32)(~CY_SYS_CLK_WCO_TRIM_GM_MASK)
  51              		.loc 1 667 0
  52 001c 0A4B     		ldr	r3, .L2+4
  53 001e 0A4A     		ldr	r2, .L2+4
  54 0020 1268     		ldr	r2, [r2]
  55 0022 3021     		movs	r1, #48
  56 0024 8A43     		bics	r2, r1
 668:Generated_Source\PSoC4/CyLFClk.h ****                     | (uint32)(CY_SYS_CLK_WCO_TRIM_GM_HPM << CY_SYS_CLK_WCO_TRIM_GM_SHIFT);
  57              		.loc 1 668 0
  58 0026 1021     		movs	r1, #16
  59 0028 0A43     		orrs	r2, r1
 667:Generated_Source\PSoC4/CyLFClk.h ****                     | (uint32)(CY_SYS_CLK_WCO_TRIM_GM_HPM << CY_SYS_CLK_WCO_TRIM_GM_SHIFT);
  60              		.loc 1 667 0
  61 002a 1A60     		str	r2, [r3]
 669:Generated_Source\PSoC4/CyLFClk.h ****         CY_SYS_CLK_WCO_TRIM_REG = (CY_SYS_CLK_WCO_TRIM_REG & (uint32)(~CY_SYS_CLK_WCO_TRIM_XGM_MASK
  62              		.loc 1 669 0
  63 002c 064B     		ldr	r3, .L2+4
  64 002e 064A     		ldr	r2, .L2+4
  65 0030 1268     		ldr	r2, [r2]
  66 0032 0721     		movs	r1, #7
  67 0034 8A43     		bics	r2, r1
 670:Generated_Source\PSoC4/CyLFClk.h ****                     | (uint32)(CY_SYS_CLK_WCO_TRIM_XGM_2620NA << CY_SYS_CLK_WCO_TRIM_XGM_SHIFT);
  68              		.loc 1 670 0
  69 0036 0121     		movs	r1, #1
  70 0038 0A43     		orrs	r2, r1
ARM GAS  C:\Users\ELEASO~1\AppData\Local\Temp\ccqlvzPP.s 			page 14


 669:Generated_Source\PSoC4/CyLFClk.h ****         CY_SYS_CLK_WCO_TRIM_REG = (CY_SYS_CLK_WCO_TRIM_REG & (uint32)(~CY_SYS_CLK_WCO_TRIM_XGM_MASK
  71              		.loc 1 669 0
  72 003a 1A60     		str	r2, [r3]
 671:Generated_Source\PSoC4/CyLFClk.h ****     }
  73              		.loc 1 671 0
  74 003c C046     		nop
  75 003e BD46     		mov	sp, r7
  76              		@ sp needed
  77 0040 80BD     		pop	{r7, pc}
  78              	.L3:
  79 0042 C046     		.align	2
  80              	.L2:
  81 0044 00F02E40 		.word	1076817920
  82 0048 00FF2E40 		.word	1076821760
  83              		.cfi_endproc
  84              	.LFE0:
  85              		.size	CySysClkWcoSetHighPowerMode, .-CySysClkWcoSetHighPowerMode
  86              		.section	.text.CySysClkWcoSetLowPowerMode,"ax",%progbits
  87              		.align	2
  88              		.code	16
  89              		.thumb_func
  90              		.type	CySysClkWcoSetLowPowerMode, %function
  91              	CySysClkWcoSetLowPowerMode:
  92              	.LFB1:
 672:Generated_Source\PSoC4/CyLFClk.h **** 
 673:Generated_Source\PSoC4/CyLFClk.h ****     #if(CY_IP_BLESS)
 674:Generated_Source\PSoC4/CyLFClk.h ****         /*******************************************************************************
 675:Generated_Source\PSoC4/CyLFClk.h ****         * Function Name: CySysClkWcoSetLowPowerMode
 676:Generated_Source\PSoC4/CyLFClk.h ****         ********************************************************************************
 677:Generated_Source\PSoC4/CyLFClk.h ****         *
 678:Generated_Source\PSoC4/CyLFClk.h ****         * Summary:
 679:Generated_Source\PSoC4/CyLFClk.h ****         *  Sets the low power mode for the 32 KHz WCO.
 680:Generated_Source\PSoC4/CyLFClk.h ****         *
 681:Generated_Source\PSoC4/CyLFClk.h ****         *  Note LPM available only for PSoC 4100 BLE / PSoC4 4200 BLE
 682:Generated_Source\PSoC4/CyLFClk.h ****         *******************************************************************************/
 683:Generated_Source\PSoC4/CyLFClk.h ****         static CY_INLINE void CySysClkWcoSetLowPowerMode(void)
 684:Generated_Source\PSoC4/CyLFClk.h ****         {
  93              		.loc 1 684 0
  94              		.cfi_startproc
  95              		@ args = 0, pretend = 0, frame = 0
  96              		@ frame_needed = 1, uses_anonymous_args = 0
  97 0000 80B5     		push	{r7, lr}
  98              		.cfi_def_cfa_offset 8
  99              		.cfi_offset 7, -8
 100              		.cfi_offset 14, -4
 101 0002 00AF     		add	r7, sp, #0
 102              		.cfi_def_cfa_register 7
 685:Generated_Source\PSoC4/CyLFClk.h ****             /* Switch off auto low power mode in WCO */
 686:Generated_Source\PSoC4/CyLFClk.h ****             CY_SYS_CLK_WCO_CONFIG_REG &= ((uint32)~CY_SYS_CLK_WCO_CONFIG_LPM_AUTO);
 103              		.loc 1 686 0
 104 0004 0F4B     		ldr	r3, .L5
 105 0006 0F4A     		ldr	r2, .L5
 106 0008 1268     		ldr	r2, [r2]
 107 000a 0221     		movs	r1, #2
 108 000c 8A43     		bics	r2, r1
 109 000e 1A60     		str	r2, [r3]
 687:Generated_Source\PSoC4/CyLFClk.h **** 
ARM GAS  C:\Users\ELEASO~1\AppData\Local\Temp\ccqlvzPP.s 			page 15


 688:Generated_Source\PSoC4/CyLFClk.h ****             /* Change WCO trim register settings to LPM */
 689:Generated_Source\PSoC4/CyLFClk.h ****             CY_SYS_CLK_WCO_TRIM_REG = (CY_SYS_CLK_WCO_TRIM_REG & (uint32)(~CY_SYS_CLK_WCO_TRIM_XGM_
 110              		.loc 1 689 0
 111 0010 0D4B     		ldr	r3, .L5+4
 112 0012 0D4A     		ldr	r2, .L5+4
 113 0014 1268     		ldr	r2, [r2]
 114 0016 0721     		movs	r1, #7
 115 0018 8A43     		bics	r2, r1
 690:Generated_Source\PSoC4/CyLFClk.h ****                         | (uint32)(CY_SYS_CLK_WCO_TRIM_XGM_2250NA << CY_SYS_CLK_WCO_TRIM_XGM_SHIFT)
 116              		.loc 1 690 0
 117 001a 0221     		movs	r1, #2
 118 001c 0A43     		orrs	r2, r1
 689:Generated_Source\PSoC4/CyLFClk.h ****                         | (uint32)(CY_SYS_CLK_WCO_TRIM_XGM_2250NA << CY_SYS_CLK_WCO_TRIM_XGM_SHIFT)
 119              		.loc 1 689 0
 120 001e 1A60     		str	r2, [r3]
 691:Generated_Source\PSoC4/CyLFClk.h ****             CY_SYS_CLK_WCO_TRIM_REG = (CY_SYS_CLK_WCO_TRIM_REG & (uint32)(~CY_SYS_CLK_WCO_TRIM_GM_M
 121              		.loc 1 691 0
 122 0020 094B     		ldr	r3, .L5+4
 123 0022 094A     		ldr	r2, .L5+4
 124 0024 1268     		ldr	r2, [r2]
 125 0026 3021     		movs	r1, #48
 126 0028 8A43     		bics	r2, r1
 692:Generated_Source\PSoC4/CyLFClk.h ****                         | (uint32)(CY_SYS_CLK_WCO_TRIM_GM_LPM << CY_SYS_CLK_WCO_TRIM_GM_SHIFT);
 127              		.loc 1 692 0
 128 002a 2021     		movs	r1, #32
 129 002c 0A43     		orrs	r2, r1
 691:Generated_Source\PSoC4/CyLFClk.h ****             CY_SYS_CLK_WCO_TRIM_REG = (CY_SYS_CLK_WCO_TRIM_REG & (uint32)(~CY_SYS_CLK_WCO_TRIM_GM_M
 130              		.loc 1 691 0
 131 002e 1A60     		str	r2, [r3]
 693:Generated_Source\PSoC4/CyLFClk.h **** 
 694:Generated_Source\PSoC4/CyLFClk.h ****             /* Switch on low power mode for WCO */
 695:Generated_Source\PSoC4/CyLFClk.h ****             CY_SYS_CLK_WCO_CONFIG_REG |= CY_SYS_CLK_WCO_CONFIG_LPM_EN;
 132              		.loc 1 695 0
 133 0030 044B     		ldr	r3, .L5
 134 0032 044A     		ldr	r2, .L5
 135 0034 1268     		ldr	r2, [r2]
 136 0036 0121     		movs	r1, #1
 137 0038 0A43     		orrs	r2, r1
 138 003a 1A60     		str	r2, [r3]
 696:Generated_Source\PSoC4/CyLFClk.h ****         }
 139              		.loc 1 696 0
 140 003c C046     		nop
 141 003e BD46     		mov	sp, r7
 142              		@ sp needed
 143 0040 80BD     		pop	{r7, pc}
 144              	.L6:
 145 0042 C046     		.align	2
 146              	.L5:
 147 0044 00F02E40 		.word	1076817920
 148 0048 00FF2E40 		.word	1076821760
 149              		.cfi_endproc
 150              	.LFE1:
 151              		.size	CySysClkWcoSetLowPowerMode, .-CySysClkWcoSetLowPowerMode
 152              		.data
 153              		.align	1
 154              		.type	defaultIloTrimRegValue, %object
 155              		.size	defaultIloTrimRegValue, 2
ARM GAS  C:\Users\ELEASO~1\AppData\Local\Temp\ccqlvzPP.s 			page 16


 156              	defaultIloTrimRegValue:
 157 0000 F000     		.short	240
 158              		.bss
 159              		.align	2
 160              	lfclkPosedgeWdtCounter0Enabled:
 161 0000 00000000 		.space	4
 162              		.align	2
 163              	lfclkPosedgeWdtCounter0Mode:
 164 0004 00000000 		.space	4
 165              		.align	2
 166              	disableServicedIsr:
 167 0008 00000000 		.space	4
 168              		.data
 169 0002 0000     		.align	2
 170              		.type	wdtIsrMask, %object
 171              		.size	wdtIsrMask, 4
 172              	wdtIsrMask:
 173 0004 04040400 		.word	263172
 174              		.section	.rodata
 175              		.align	2
 176              		.type	counterIntMaskTbl, %object
 177              		.size	counterIntMaskTbl, 12
 178              	counterIntMaskTbl:
 179 0000 04000000 		.word	4
 180 0004 00040000 		.word	1024
 181 0008 00000400 		.word	262144
 182              		.bss
 183              		.align	2
 184              	cySysWdtCallback:
 185 000c 00000000 		.space	12
 185      00000000 
 185      00000000 
 186              		.section	.text.CySysClkIloStart,"ax",%progbits
 187              		.align	2
 188              		.global	CySysClkIloStart
 189              		.code	16
 190              		.thumb_func
 191              		.type	CySysClkIloStart, %function
 192              	CySysClkIloStart:
 193              	.LFB2:
 194              		.file 2 "Generated_Source\\PSoC4\\CyLFClk.c"
   1:Generated_Source\PSoC4/CyLFClk.c **** /***************************************************************************//**
   2:Generated_Source\PSoC4/CyLFClk.c **** * \file .c
   3:Generated_Source\PSoC4/CyLFClk.c **** * \version 1.20
   4:Generated_Source\PSoC4/CyLFClk.c **** *
   5:Generated_Source\PSoC4/CyLFClk.c **** * \brief
   6:Generated_Source\PSoC4/CyLFClk.c **** *  This file provides the source code for configuring watchdog timers WDTs, 
   7:Generated_Source\PSoC4/CyLFClk.c **** *  low frequency clocks (LFCLK) and the Real-time Clock (RTC) component in
   8:Generated_Source\PSoC4/CyLFClk.c **** *  PSoC Creator for the PSoC 4 families.
   9:Generated_Source\PSoC4/CyLFClk.c **** *
  10:Generated_Source\PSoC4/CyLFClk.c **** ********************************************************************************
  11:Generated_Source\PSoC4/CyLFClk.c **** * \copyright
  12:Generated_Source\PSoC4/CyLFClk.c **** * Copyright 2008-2017, Cypress Semiconductor Corporation.  All rights reserved.
  13:Generated_Source\PSoC4/CyLFClk.c **** * You may use this file only in accordance with the license, terms, conditions,
  14:Generated_Source\PSoC4/CyLFClk.c **** * disclaimers, and limitations in the end user license agreement accompanying
  15:Generated_Source\PSoC4/CyLFClk.c **** * the software package with which this file was provided.
  16:Generated_Source\PSoC4/CyLFClk.c **** *******************************************************************************/
ARM GAS  C:\Users\ELEASO~1\AppData\Local\Temp\ccqlvzPP.s 			page 17


  17:Generated_Source\PSoC4/CyLFClk.c **** 
  18:Generated_Source\PSoC4/CyLFClk.c **** 
  19:Generated_Source\PSoC4/CyLFClk.c **** #include "CyLFClk.h"
  20:Generated_Source\PSoC4/CyLFClk.c **** #include "CyLib.h"
  21:Generated_Source\PSoC4/CyLFClk.c **** 
  22:Generated_Source\PSoC4/CyLFClk.c **** #if (CY_IP_WCO && CY_IP_SRSSV2)
  23:Generated_Source\PSoC4/CyLFClk.c ****     static uint32 CySysClkGetLfclkSource(void);
  24:Generated_Source\PSoC4/CyLFClk.c **** #endif /* (CY_IP_WCO && CY_IP_SRSSV2) */
  25:Generated_Source\PSoC4/CyLFClk.c **** 
  26:Generated_Source\PSoC4/CyLFClk.c **** 
  27:Generated_Source\PSoC4/CyLFClk.c **** #if(CY_IP_SRSSV2 && (!CY_IP_CPUSS))
  28:Generated_Source\PSoC4/CyLFClk.c ****     /* Default Ilo Trim Register value for ILO trimming*/
  29:Generated_Source\PSoC4/CyLFClk.c ****     static volatile uint16 defaultIloTrimRegValue = CY_SYS_CLK_ILO_TRIM_DEFAULT_VALUE;
  30:Generated_Source\PSoC4/CyLFClk.c **** #endif /* (CY_IP_SRSSV2 && (!CY_IP_CPUSS)) */
  31:Generated_Source\PSoC4/CyLFClk.c **** 
  32:Generated_Source\PSoC4/CyLFClk.c **** #if(CY_IP_SRSSV2)
  33:Generated_Source\PSoC4/CyLFClk.c ****     /* CySysClkLfclkPosedgeCatch() / CySysClkLfclkPosedgeRestore() */
  34:Generated_Source\PSoC4/CyLFClk.c ****     static uint32 lfclkPosedgeWdtCounter0Enabled = 0u;
  35:Generated_Source\PSoC4/CyLFClk.c ****     static uint32 lfclkPosedgeWdtCounter0Mode    = CY_SYS_WDT_MODE_NONE;
  36:Generated_Source\PSoC4/CyLFClk.c **** 
  37:Generated_Source\PSoC4/CyLFClk.c ****     static volatile uint32 disableServicedIsr = 0uL;
  38:Generated_Source\PSoC4/CyLFClk.c ****     static volatile uint32 wdtIsrMask = CY_SYS_WDT_COUNTER0_INT |\
  39:Generated_Source\PSoC4/CyLFClk.c ****                                         CY_SYS_WDT_COUNTER1_INT |\
  40:Generated_Source\PSoC4/CyLFClk.c ****                                         CY_SYS_WDT_COUNTER2_INT;
  41:Generated_Source\PSoC4/CyLFClk.c **** 
  42:Generated_Source\PSoC4/CyLFClk.c ****     static const uint32 counterIntMaskTbl[CY_WDT_NUM_OF_WDT] = {CY_SYS_WDT_COUNTER0_INT,
  43:Generated_Source\PSoC4/CyLFClk.c ****                                                                 CY_SYS_WDT_COUNTER1_INT,
  44:Generated_Source\PSoC4/CyLFClk.c ****                                                                 CY_SYS_WDT_COUNTER2_INT};
  45:Generated_Source\PSoC4/CyLFClk.c **** 
  46:Generated_Source\PSoC4/CyLFClk.c ****     static void CySysClkLfclkPosedgeCatch(void);
  47:Generated_Source\PSoC4/CyLFClk.c ****     static void CySysClkLfclkPosedgeRestore(void);
  48:Generated_Source\PSoC4/CyLFClk.c **** 
  49:Generated_Source\PSoC4/CyLFClk.c ****     static uint32 CySysWdtLocked(void);
  50:Generated_Source\PSoC4/CyLFClk.c ****     static uint32 CySysClkIloEnabled(void);
  51:Generated_Source\PSoC4/CyLFClk.c **** #endif /* (CY_IP_SRSSV2) */
  52:Generated_Source\PSoC4/CyLFClk.c **** 
  53:Generated_Source\PSoC4/CyLFClk.c **** #if (CY_IP_SRSSLT && CY_IP_WCO && CY_IP_WCO_WDT_EN)
  54:Generated_Source\PSoC4/CyLFClk.c ****     static uint32 CySysClkGetTimerSource(void);
  55:Generated_Source\PSoC4/CyLFClk.c ****     static volatile uint32 disableTimerServicedIsr = 0uL;
  56:Generated_Source\PSoC4/CyLFClk.c ****     static volatile uint32 timerIsrMask = CY_SYS_TIMER0_INT |\
  57:Generated_Source\PSoC4/CyLFClk.c ****                                           CY_SYS_TIMER1_INT |\
  58:Generated_Source\PSoC4/CyLFClk.c ****                                           CY_SYS_TIMER2_INT;
  59:Generated_Source\PSoC4/CyLFClk.c **** 
  60:Generated_Source\PSoC4/CyLFClk.c ****     static const uint32 counterTimerIntMaskTbl[CY_SYS_NUM_OF_TIMERS] = {CY_SYS_TIMER0_INT,
  61:Generated_Source\PSoC4/CyLFClk.c ****                                                                         CY_SYS_TIMER1_INT,
  62:Generated_Source\PSoC4/CyLFClk.c ****                                                                         CY_SYS_TIMER2_INT};
  63:Generated_Source\PSoC4/CyLFClk.c **** 
  64:Generated_Source\PSoC4/CyLFClk.c ****     static cyTimerCallback cySysTimerCallback[CY_SYS_NUM_OF_TIMERS] = {(void *)0, (void *)0, (void 
  65:Generated_Source\PSoC4/CyLFClk.c **** #endif /* (CY_IP_SRSSLT && CY_IP_WCO && CY_IP_WCO_DWT_EN) */
  66:Generated_Source\PSoC4/CyLFClk.c **** 
  67:Generated_Source\PSoC4/CyLFClk.c **** #if(CY_IP_SRSSV2)
  68:Generated_Source\PSoC4/CyLFClk.c ****     static cyWdtCallback cySysWdtCallback[CY_WDT_NUM_OF_WDT] = {(void *)0, (void *)0, (void *)0};
  69:Generated_Source\PSoC4/CyLFClk.c **** #else
  70:Generated_Source\PSoC4/CyLFClk.c ****     static cyWdtCallback cySysWdtCallback = (void *)0;
  71:Generated_Source\PSoC4/CyLFClk.c **** #endif /* (CY_IP_SRSSV2) */
  72:Generated_Source\PSoC4/CyLFClk.c **** 
  73:Generated_Source\PSoC4/CyLFClk.c **** 
ARM GAS  C:\Users\ELEASO~1\AppData\Local\Temp\ccqlvzPP.s 			page 18


  74:Generated_Source\PSoC4/CyLFClk.c **** /*******************************************************************************
  75:Generated_Source\PSoC4/CyLFClk.c **** * Function Name: CySysClkIloStart
  76:Generated_Source\PSoC4/CyLFClk.c **** ****************************************************************************//**
  77:Generated_Source\PSoC4/CyLFClk.c **** * \brief
  78:Generated_Source\PSoC4/CyLFClk.c **** *  Enables ILO.
  79:Generated_Source\PSoC4/CyLFClk.c **** *
  80:Generated_Source\PSoC4/CyLFClk.c **** *  Refer to the device datasheet for the ILO startup time.
  81:Generated_Source\PSoC4/CyLFClk.c **** *
  82:Generated_Source\PSoC4/CyLFClk.c **** *******************************************************************************/
  83:Generated_Source\PSoC4/CyLFClk.c **** void CySysClkIloStart(void)
  84:Generated_Source\PSoC4/CyLFClk.c **** {
 195              		.loc 2 84 0
 196              		.cfi_startproc
 197              		@ args = 0, pretend = 0, frame = 0
 198              		@ frame_needed = 1, uses_anonymous_args = 0
 199 0000 80B5     		push	{r7, lr}
 200              		.cfi_def_cfa_offset 8
 201              		.cfi_offset 7, -8
 202              		.cfi_offset 14, -4
 203 0002 00AF     		add	r7, sp, #0
 204              		.cfi_def_cfa_register 7
  85:Generated_Source\PSoC4/CyLFClk.c ****     CY_SYS_CLK_ILO_CONFIG_REG |= CY_SYS_CLK_ILO_CONFIG_ENABLE;
 205              		.loc 2 85 0
 206 0004 044B     		ldr	r3, .L8
 207 0006 044A     		ldr	r2, .L8
 208 0008 1268     		ldr	r2, [r2]
 209 000a 8021     		movs	r1, #128
 210 000c 0906     		lsls	r1, r1, #24
 211 000e 0A43     		orrs	r2, r1
 212 0010 1A60     		str	r2, [r3]
  86:Generated_Source\PSoC4/CyLFClk.c **** }
 213              		.loc 2 86 0
 214 0012 C046     		nop
 215 0014 BD46     		mov	sp, r7
 216              		@ sp needed
 217 0016 80BD     		pop	{r7, pc}
 218              	.L9:
 219              		.align	2
 220              	.L8:
 221 0018 04010B40 		.word	1074462980
 222              		.cfi_endproc
 223              	.LFE2:
 224              		.size	CySysClkIloStart, .-CySysClkIloStart
 225              		.section	.text.CySysClkIloStop,"ax",%progbits
 226              		.align	2
 227              		.global	CySysClkIloStop
 228              		.code	16
 229              		.thumb_func
 230              		.type	CySysClkIloStop, %function
 231              	CySysClkIloStop:
 232              	.LFB3:
  87:Generated_Source\PSoC4/CyLFClk.c **** 
  88:Generated_Source\PSoC4/CyLFClk.c **** 
  89:Generated_Source\PSoC4/CyLFClk.c **** /*******************************************************************************
  90:Generated_Source\PSoC4/CyLFClk.c **** * Function Name: CySysClkIloStop
  91:Generated_Source\PSoC4/CyLFClk.c **** ****************************************************************************//**
  92:Generated_Source\PSoC4/CyLFClk.c **** * \brief
ARM GAS  C:\Users\ELEASO~1\AppData\Local\Temp\ccqlvzPP.s 			page 19


  93:Generated_Source\PSoC4/CyLFClk.c **** *  Disables the ILO.
  94:Generated_Source\PSoC4/CyLFClk.c **** *
  95:Generated_Source\PSoC4/CyLFClk.c **** *  This function has no effect if WDT is locked (CySysWdtLock() is
  96:Generated_Source\PSoC4/CyLFClk.c **** *  called). Call CySysWdtUnlock() to unlock WDT and stop ILO.
  97:Generated_Source\PSoC4/CyLFClk.c **** *
  98:Generated_Source\PSoC4/CyLFClk.c **** *  PSoC 4100 / PSoC 4200: Note that ILO is required for WDT's operation.
  99:Generated_Source\PSoC4/CyLFClk.c **** *
 100:Generated_Source\PSoC4/CyLFClk.c **** *  PSoC 4100 BLE / PSoC 4200 BLE / PSoC 4200L / PSoC 4100M / 
 101:Generated_Source\PSoC4/CyLFClk.c **** *  PSoC 4200M:
 102:Generated_Source\PSoC4/CyLFClk.c **** *  Stopping ILO affects the peripheral clocked by LFCLK, if
 103:Generated_Source\PSoC4/CyLFClk.c **** *  LFCLK is configured to be sourced by ILO.
 104:Generated_Source\PSoC4/CyLFClk.c **** *
 105:Generated_Source\PSoC4/CyLFClk.c **** *  If the ILO is disabled, all blocks run by ILO will stop functioning.
 106:Generated_Source\PSoC4/CyLFClk.c **** *
 107:Generated_Source\PSoC4/CyLFClk.c **** *******************************************************************************/
 108:Generated_Source\PSoC4/CyLFClk.c **** void CySysClkIloStop(void)
 109:Generated_Source\PSoC4/CyLFClk.c **** {
 233              		.loc 2 109 0
 234              		.cfi_startproc
 235              		@ args = 0, pretend = 0, frame = 8
 236              		@ frame_needed = 1, uses_anonymous_args = 0
 237 0000 90B5     		push	{r4, r7, lr}
 238              		.cfi_def_cfa_offset 12
 239              		.cfi_offset 4, -12
 240              		.cfi_offset 7, -8
 241              		.cfi_offset 14, -4
 242 0002 83B0     		sub	sp, sp, #12
 243              		.cfi_def_cfa_offset 24
 244 0004 00AF     		add	r7, sp, #0
 245              		.cfi_def_cfa_register 7
 110:Generated_Source\PSoC4/CyLFClk.c ****     #if(CY_IP_SRSSV2)
 111:Generated_Source\PSoC4/CyLFClk.c ****         uint8  interruptState;
 112:Generated_Source\PSoC4/CyLFClk.c **** 
 113:Generated_Source\PSoC4/CyLFClk.c ****         /* Do nothing if WDT is locked or ILO is disabled */
 114:Generated_Source\PSoC4/CyLFClk.c ****         if (0u == CySysWdtLocked())
 246              		.loc 2 114 0
 247 0006 FFF7FEFF 		bl	CySysWdtLocked
 248 000a 031E     		subs	r3, r0, #0
 249 000c 22D1     		bne	.L13
 115:Generated_Source\PSoC4/CyLFClk.c ****         {
 116:Generated_Source\PSoC4/CyLFClk.c ****             if (0u != CySysClkIloEnabled())
 250              		.loc 2 116 0
 251 000e FFF7FEFF 		bl	CySysClkIloEnabled
 252 0012 031E     		subs	r3, r0, #0
 253 0014 1ED0     		beq	.L13
 117:Generated_Source\PSoC4/CyLFClk.c ****             {
 118:Generated_Source\PSoC4/CyLFClk.c **** 
 119:Generated_Source\PSoC4/CyLFClk.c ****             #if (CY_IP_WCO)
 120:Generated_Source\PSoC4/CyLFClk.c ****                 if (CY_SYS_CLK_LFCLK_SRC_ILO == CySysClkGetLfclkSource())
 254              		.loc 2 120 0
 255 0016 FFF7FEFF 		bl	CySysClkGetLfclkSource
 256 001a 031E     		subs	r3, r0, #0
 257 001c 14D1     		bne	.L12
 121:Generated_Source\PSoC4/CyLFClk.c ****                 {
 122:Generated_Source\PSoC4/CyLFClk.c ****             #endif /* (CY_IP_WCO) */
 123:Generated_Source\PSoC4/CyLFClk.c **** 
 124:Generated_Source\PSoC4/CyLFClk.c ****                 interruptState = CyEnterCriticalSection();
ARM GAS  C:\Users\ELEASO~1\AppData\Local\Temp\ccqlvzPP.s 			page 20


 258              		.loc 2 124 0
 259 001e FC1D     		adds	r4, r7, #7
 260 0020 FFF7FEFF 		bl	CyEnterCriticalSection
 261 0024 0300     		movs	r3, r0
 262 0026 2370     		strb	r3, [r4]
 125:Generated_Source\PSoC4/CyLFClk.c ****                 CySysClkLfclkPosedgeCatch();
 263              		.loc 2 125 0
 264 0028 FFF7FEFF 		bl	CySysClkLfclkPosedgeCatch
 126:Generated_Source\PSoC4/CyLFClk.c ****                 CY_SYS_CLK_ILO_CONFIG_REG &= (uint32) ( ~(uint32)CY_SYS_CLK_ILO_CONFIG_ENABLE);
 265              		.loc 2 126 0
 266 002c 0B4B     		ldr	r3, .L14
 267 002e 0B4A     		ldr	r2, .L14
 268 0030 1268     		ldr	r2, [r2]
 269 0032 5200     		lsls	r2, r2, #1
 270 0034 5208     		lsrs	r2, r2, #1
 271 0036 1A60     		str	r2, [r3]
 127:Generated_Source\PSoC4/CyLFClk.c ****                 CySysClkLfclkPosedgeRestore();
 272              		.loc 2 127 0
 273 0038 FFF7FEFF 		bl	CySysClkLfclkPosedgeRestore
 128:Generated_Source\PSoC4/CyLFClk.c ****                 CyExitCriticalSection(interruptState);
 274              		.loc 2 128 0
 275 003c FB1D     		adds	r3, r7, #7
 276 003e 1B78     		ldrb	r3, [r3]
 277 0040 1800     		movs	r0, r3
 278 0042 FFF7FEFF 		bl	CyExitCriticalSection
 129:Generated_Source\PSoC4/CyLFClk.c **** 
 130:Generated_Source\PSoC4/CyLFClk.c ****             #if (CY_IP_WCO)
 131:Generated_Source\PSoC4/CyLFClk.c ****                 }
 132:Generated_Source\PSoC4/CyLFClk.c ****                 else /* Safe to disable - shortened pulse does not impact peripheral */
 133:Generated_Source\PSoC4/CyLFClk.c ****                 {
 134:Generated_Source\PSoC4/CyLFClk.c ****                     CY_SYS_CLK_ILO_CONFIG_REG &= (uint32) ( ~(uint32)CY_SYS_CLK_ILO_CONFIG_ENABLE);
 135:Generated_Source\PSoC4/CyLFClk.c ****                 }
 136:Generated_Source\PSoC4/CyLFClk.c ****             #endif /* (CY_IP_WCO) */
 137:Generated_Source\PSoC4/CyLFClk.c **** 
 138:Generated_Source\PSoC4/CyLFClk.c ****             }
 139:Generated_Source\PSoC4/CyLFClk.c ****         }
 140:Generated_Source\PSoC4/CyLFClk.c ****     #else
 141:Generated_Source\PSoC4/CyLFClk.c ****         CY_SYS_CLK_ILO_CONFIG_REG &= ( uint32 ) ( ~( uint32 )CY_SYS_CLK_ILO_CONFIG_ENABLE);
 142:Generated_Source\PSoC4/CyLFClk.c ****     #endif /* (CY_IP_SRSSV2) */
 143:Generated_Source\PSoC4/CyLFClk.c **** }
 279              		.loc 2 143 0
 280 0046 05E0     		b	.L13
 281              	.L12:
 134:Generated_Source\PSoC4/CyLFClk.c ****                 }
 282              		.loc 2 134 0
 283 0048 044B     		ldr	r3, .L14
 284 004a 044A     		ldr	r2, .L14
 285 004c 1268     		ldr	r2, [r2]
 286 004e 5200     		lsls	r2, r2, #1
 287 0050 5208     		lsrs	r2, r2, #1
 288 0052 1A60     		str	r2, [r3]
 289              	.L13:
 290              		.loc 2 143 0
 291 0054 C046     		nop
 292 0056 BD46     		mov	sp, r7
 293 0058 03B0     		add	sp, sp, #12
 294              		@ sp needed
ARM GAS  C:\Users\ELEASO~1\AppData\Local\Temp\ccqlvzPP.s 			page 21


 295 005a 90BD     		pop	{r4, r7, pc}
 296              	.L15:
 297              		.align	2
 298              	.L14:
 299 005c 04010B40 		.word	1074462980
 300              		.cfi_endproc
 301              	.LFE3:
 302              		.size	CySysClkIloStop, .-CySysClkIloStop
 303              		.section	.text.CySysClkIloStartMeasurement,"ax",%progbits
 304              		.align	2
 305              		.global	CySysClkIloStartMeasurement
 306              		.code	16
 307              		.thumb_func
 308              		.type	CySysClkIloStartMeasurement, %function
 309              	CySysClkIloStartMeasurement:
 310              	.LFB4:
 144:Generated_Source\PSoC4/CyLFClk.c **** 
 145:Generated_Source\PSoC4/CyLFClk.c **** 
 146:Generated_Source\PSoC4/CyLFClk.c **** /******************************************************************************
 147:Generated_Source\PSoC4/CyLFClk.c **** * Function Name: CySysClkIloStartMeasurement
 148:Generated_Source\PSoC4/CyLFClk.c **** ***************************************************************************//**
 149:Generated_Source\PSoC4/CyLFClk.c **** * \brief
 150:Generated_Source\PSoC4/CyLFClk.c **** * Starts the ILO accuracy measurement.
 151:Generated_Source\PSoC4/CyLFClk.c **** *
 152:Generated_Source\PSoC4/CyLFClk.c **** * This function is non-blocking and needs to be called before using the 
 153:Generated_Source\PSoC4/CyLFClk.c **** * CySysClkIloTrim() and CySysClkIloCompensate() API.
 154:Generated_Source\PSoC4/CyLFClk.c **** *
 155:Generated_Source\PSoC4/CyLFClk.c **** * This API configures measurement counters to be sourced by SysClk (Counter 1)
 156:Generated_Source\PSoC4/CyLFClk.c **** * and ILO (Counter 2). 
 157:Generated_Source\PSoC4/CyLFClk.c **** *
 158:Generated_Source\PSoC4/CyLFClk.c **** * \note SysClk should be sourced by IMO. Otherwise CySysClkIloTrim() and 
 159:Generated_Source\PSoC4/CyLFClk.c **** * CySysClkIloCompensate() API can give incorrect results.
 160:Generated_Source\PSoC4/CyLFClk.c **** *
 161:Generated_Source\PSoC4/CyLFClk.c **** * In addition, this API stores the factory ILO trim settings on the first call 
 162:Generated_Source\PSoC4/CyLFClk.c **** * after reset. This stored factory setting is used by the 
 163:Generated_Source\PSoC4/CyLFClk.c **** * CySysClkIloRestoreFactoryTrim() API to restore the ILO factory trim. 
 164:Generated_Source\PSoC4/CyLFClk.c **** * Hence, it is important to call this API before restoring the ILO 
 165:Generated_Source\PSoC4/CyLFClk.c **** * factory trim settings.
 166:Generated_Source\PSoC4/CyLFClk.c **** *
 167:Generated_Source\PSoC4/CyLFClk.c **** ******************************************************************************/
 168:Generated_Source\PSoC4/CyLFClk.c **** void CySysClkIloStartMeasurement(void)
 169:Generated_Source\PSoC4/CyLFClk.c **** {
 311              		.loc 2 169 0
 312              		.cfi_startproc
 313              		@ args = 0, pretend = 0, frame = 0
 314              		@ frame_needed = 1, uses_anonymous_args = 0
 315 0000 80B5     		push	{r7, lr}
 316              		.cfi_def_cfa_offset 8
 317              		.cfi_offset 7, -8
 318              		.cfi_offset 14, -4
 319 0002 00AF     		add	r7, sp, #0
 320              		.cfi_def_cfa_register 7
 170:Generated_Source\PSoC4/CyLFClk.c **** #if(CY_IP_SRSSV2 && (!CY_IP_CPUSS))
 171:Generated_Source\PSoC4/CyLFClk.c ****     static uint8 iloTrimTrig = 0u;
 172:Generated_Source\PSoC4/CyLFClk.c **** 
 173:Generated_Source\PSoC4/CyLFClk.c ****     /* Write default ILO trim value while ILO starting ( Cypress ID 225244 )*/
 174:Generated_Source\PSoC4/CyLFClk.c ****     if (0u == iloTrimTrig)
ARM GAS  C:\Users\ELEASO~1\AppData\Local\Temp\ccqlvzPP.s 			page 22


 321              		.loc 2 174 0
 322 0004 114B     		ldr	r3, .L18
 323 0006 1B78     		ldrb	r3, [r3]
 324 0008 002B     		cmp	r3, #0
 325 000a 0BD1     		bne	.L17
 175:Generated_Source\PSoC4/CyLFClk.c ****     {
 176:Generated_Source\PSoC4/CyLFClk.c ****         defaultIloTrimRegValue = ((uint8)(CY_SYS_CLK_ILO_TRIM_REG & CY_SYS_CLK_ILO_TRIM_MASK));
 326              		.loc 2 176 0
 327 000c 104B     		ldr	r3, .L18+4
 328 000e 1B68     		ldr	r3, [r3]
 329 0010 DBB2     		uxtb	r3, r3
 330 0012 9BB2     		uxth	r3, r3
 331 0014 0F22     		movs	r2, #15
 332 0016 1340     		ands	r3, r2
 333 0018 9AB2     		uxth	r2, r3
 334 001a 0E4B     		ldr	r3, .L18+8
 335 001c 1A80     		strh	r2, [r3]
 177:Generated_Source\PSoC4/CyLFClk.c ****         iloTrimTrig = 1u;
 336              		.loc 2 177 0
 337 001e 0B4B     		ldr	r3, .L18
 338 0020 0122     		movs	r2, #1
 339 0022 1A70     		strb	r2, [r3]
 340              	.L17:
 178:Generated_Source\PSoC4/CyLFClk.c ****     }
 179:Generated_Source\PSoC4/CyLFClk.c **** #endif /* (CY_IP_SRSSV2 && (!CY_IP_CPUSS)) */
 180:Generated_Source\PSoC4/CyLFClk.c **** 
 181:Generated_Source\PSoC4/CyLFClk.c ****     /* Configure measurement counters to source by SysClk (Counter 1) and ILO (Counter 2)*/
 182:Generated_Source\PSoC4/CyLFClk.c ****     CY_SYS_CLK_DFT_REG = (CY_SYS_CLK_DFT_REG & (uint32) ~CY_SYS_CLK_DFT_SELECT_DEFAULT_MASK) |
 341              		.loc 2 182 0
 342 0024 0C4B     		ldr	r3, .L18+12
 343 0026 0C4A     		ldr	r2, .L18+12
 344 0028 1268     		ldr	r2, [r2]
 345 002a 0C49     		ldr	r1, .L18+16
 346 002c 0A40     		ands	r2, r1
 347 002e 8021     		movs	r1, #128
 348 0030 4900     		lsls	r1, r1, #1
 349 0032 0A43     		orrs	r2, r1
 350 0034 1A60     		str	r2, [r3]
 183:Generated_Source\PSoC4/CyLFClk.c ****                             CY_SYS_CLK_SEL_ILO_DFT_SOURCE; 
 184:Generated_Source\PSoC4/CyLFClk.c **** 
 185:Generated_Source\PSoC4/CyLFClk.c ****     CY_SYS_TST_DDFT_CTRL_REG = (CY_SYS_TST_DDFT_CTRL_REG & (uint32) ~ CY_SYS_TST_DDFT_CTRL_REG_DEFA
 351              		.loc 2 185 0
 352 0036 0A4B     		ldr	r3, .L18+20
 353 0038 094A     		ldr	r2, .L18+20
 354 003a 1268     		ldr	r2, [r2]
 355 003c 0949     		ldr	r1, .L18+24
 356 003e 0A40     		ands	r2, r1
 357 0040 0949     		ldr	r1, .L18+28
 358 0042 0A43     		orrs	r2, r1
 359 0044 1A60     		str	r2, [r3]
 186:Generated_Source\PSoC4/CyLFClk.c ****                             CY_SYS_TST_DDFT_CTRL_REG_SEL2_CLK1;
 187:Generated_Source\PSoC4/CyLFClk.c **** }
 360              		.loc 2 187 0
 361 0046 C046     		nop
 362 0048 BD46     		mov	sp, r7
 363              		@ sp needed
 364 004a 80BD     		pop	{r7, pc}
ARM GAS  C:\Users\ELEASO~1\AppData\Local\Temp\ccqlvzPP.s 			page 23


 365              	.L19:
 366              		.align	2
 367              	.L18:
 368 004c 18000000 		.word	iloTrimTrig.4867
 369 0050 24FF0B40 		.word	1074528036
 370 0054 00000000 		.word	defaultIloTrimRegValue
 371 0058 10010B40 		.word	1074462992
 372 005c FFF0FFFF 		.word	-3841
 373 0060 08000340 		.word	1073938440
 374 0064 C0C0FFFF 		.word	-16192
 375 0068 0A0B0000 		.word	2826
 376              		.cfi_endproc
 377              	.LFE4:
 378              		.size	CySysClkIloStartMeasurement, .-CySysClkIloStartMeasurement
 379              		.section	.text.CySysClkIloStopMeasurement,"ax",%progbits
 380              		.align	2
 381              		.global	CySysClkIloStopMeasurement
 382              		.code	16
 383              		.thumb_func
 384              		.type	CySysClkIloStopMeasurement, %function
 385              	CySysClkIloStopMeasurement:
 386              	.LFB5:
 188:Generated_Source\PSoC4/CyLFClk.c **** 
 189:Generated_Source\PSoC4/CyLFClk.c **** 
 190:Generated_Source\PSoC4/CyLFClk.c **** /******************************************************************************
 191:Generated_Source\PSoC4/CyLFClk.c **** * Function Name: CySysClkIloStopMeasurement
 192:Generated_Source\PSoC4/CyLFClk.c **** ***************************************************************************//**
 193:Generated_Source\PSoC4/CyLFClk.c **** * \brief
 194:Generated_Source\PSoC4/CyLFClk.c **** * Stops the ILO accuracy measurement.
 195:Generated_Source\PSoC4/CyLFClk.c **** *
 196:Generated_Source\PSoC4/CyLFClk.c **** * Calling this function immediately stops the the ILO frequency measurement.
 197:Generated_Source\PSoC4/CyLFClk.c **** * This function should be called before placing the device to deepsleep, if 
 198:Generated_Source\PSoC4/CyLFClk.c **** * CySysClkIloStartMeasurement() API was called before. 
 199:Generated_Source\PSoC4/CyLFClk.c **** *
 200:Generated_Source\PSoC4/CyLFClk.c **** ******************************************************************************/
 201:Generated_Source\PSoC4/CyLFClk.c **** void CySysClkIloStopMeasurement(void)
 202:Generated_Source\PSoC4/CyLFClk.c **** {
 387              		.loc 2 202 0
 388              		.cfi_startproc
 389              		@ args = 0, pretend = 0, frame = 0
 390              		@ frame_needed = 1, uses_anonymous_args = 0
 391 0000 80B5     		push	{r7, lr}
 392              		.cfi_def_cfa_offset 8
 393              		.cfi_offset 7, -8
 394              		.cfi_offset 14, -4
 395 0002 00AF     		add	r7, sp, #0
 396              		.cfi_def_cfa_register 7
 203:Generated_Source\PSoC4/CyLFClk.c ****     /* Set default configurations in 11...8 DFT register bits to zero */
 204:Generated_Source\PSoC4/CyLFClk.c ****     CY_SYS_CLK_DFT_REG &= ~CY_SYS_CLK_DFT_SELECT_DEFAULT_MASK;
 397              		.loc 2 204 0
 398 0004 044B     		ldr	r3, .L21
 399 0006 044A     		ldr	r2, .L21
 400 0008 1268     		ldr	r2, [r2]
 401 000a 0449     		ldr	r1, .L21+4
 402 000c 0A40     		ands	r2, r1
 403 000e 1A60     		str	r2, [r3]
 205:Generated_Source\PSoC4/CyLFClk.c ****     #if(CY_IP_SRSSLT)
ARM GAS  C:\Users\ELEASO~1\AppData\Local\Temp\ccqlvzPP.s 			page 24


 206:Generated_Source\PSoC4/CyLFClk.c ****         CY_SYS_TST_DDFT_CTRL_REG &= ((uint32) CY_SYS_TST_DDFT_CTRL_REG_DEFAULT_MASK);
 207:Generated_Source\PSoC4/CyLFClk.c ****     #endif /* (CY_IP_SRSSLT) */
 208:Generated_Source\PSoC4/CyLFClk.c **** }
 404              		.loc 2 208 0
 405 0010 C046     		nop
 406 0012 BD46     		mov	sp, r7
 407              		@ sp needed
 408 0014 80BD     		pop	{r7, pc}
 409              	.L22:
 410 0016 C046     		.align	2
 411              	.L21:
 412 0018 10010B40 		.word	1074462992
 413 001c FFF0FFFF 		.word	-3841
 414              		.cfi_endproc
 415              	.LFE5:
 416              		.size	CySysClkIloStopMeasurement, .-CySysClkIloStopMeasurement
 417              		.global	__aeabi_uidiv
 418              		.section	.text.CySysClkIloCompensate,"ax",%progbits
 419              		.align	2
 420              		.global	CySysClkIloCompensate
 421              		.code	16
 422              		.thumb_func
 423              		.type	CySysClkIloCompensate, %function
 424              	CySysClkIloCompensate:
 425              	.LFB6:
 209:Generated_Source\PSoC4/CyLFClk.c **** 
 210:Generated_Source\PSoC4/CyLFClk.c **** 
 211:Generated_Source\PSoC4/CyLFClk.c **** /******************************************************************************
 212:Generated_Source\PSoC4/CyLFClk.c **** * Function Name: CySysClkIloCompensate
 213:Generated_Source\PSoC4/CyLFClk.c **** ***************************************************************************//**
 214:Generated_Source\PSoC4/CyLFClk.c **** * \brief
 215:Generated_Source\PSoC4/CyLFClk.c **** * This API measures the current ILO accuracy.
 216:Generated_Source\PSoC4/CyLFClk.c **** *
 217:Generated_Source\PSoC4/CyLFClk.c **** * Basing on the measured frequency the required number of ILO cycles for a 
 218:Generated_Source\PSoC4/CyLFClk.c **** * given delay (in microseconds) is obtained. The desired delay that needs to 
 219:Generated_Source\PSoC4/CyLFClk.c **** * be compensated is passed through the desiredDelay parameter. The compensated 
 220:Generated_Source\PSoC4/CyLFClk.c **** * cycle count is returned through the compesatedCycles pointer.
 221:Generated_Source\PSoC4/CyLFClk.c **** * The compensated ILO cycles can then be used to define the WDT period value, 
 222:Generated_Source\PSoC4/CyLFClk.c **** * effectively compensating for the ILO inaccuracy and allowing a more 
 223:Generated_Source\PSoC4/CyLFClk.c **** * accurate WDT interrupt generation.
 224:Generated_Source\PSoC4/CyLFClk.c **** *
 225:Generated_Source\PSoC4/CyLFClk.c **** * CySysClkIloStartMeasurement() API should be called prior to calling this API. 
 226:Generated_Source\PSoC4/CyLFClk.c **** *
 227:Generated_Source\PSoC4/CyLFClk.c **** * \note SysClk should be sourced by IMO. Otherwise CySysClkIloTrim() and 
 228:Generated_Source\PSoC4/CyLFClk.c **** * CySysClkIloCompensate() API can give incorrect results.
 229:Generated_Source\PSoC4/CyLFClk.c **** *
 230:Generated_Source\PSoC4/CyLFClk.c **** * \note If the System clock frequency is changed in runtime, the CyDelayFreq() 
 231:Generated_Source\PSoC4/CyLFClk.c **** * with the appropriate parameter (Frequency of bus clock in Hertz) should be 
 232:Generated_Source\PSoC4/CyLFClk.c **** * called before calling a next CySysClkIloCompensate().
 233:Generated_Source\PSoC4/CyLFClk.c **** *
 234:Generated_Source\PSoC4/CyLFClk.c **** * \warning Do not enter deep sleep mode until the function returns CYRET_SUCCESS.
 235:Generated_Source\PSoC4/CyLFClk.c **** *
 236:Generated_Source\PSoC4/CyLFClk.c **** * \param desiredDelay Required delay in microseconds.
 237:Generated_Source\PSoC4/CyLFClk.c **** *
 238:Generated_Source\PSoC4/CyLFClk.c **** * \param *compensatedCycles The pointer to the variable in which the required
 239:Generated_Source\PSoC4/CyLFClk.c **** * number of ILO cycles for the given delay will be returned.
 240:Generated_Source\PSoC4/CyLFClk.c **** *
ARM GAS  C:\Users\ELEASO~1\AppData\Local\Temp\ccqlvzPP.s 			page 25


 241:Generated_Source\PSoC4/CyLFClk.c **** * \details
 242:Generated_Source\PSoC4/CyLFClk.c **** * The value returned in *compensatedCycles pointer is not valid until the 
 243:Generated_Source\PSoC4/CyLFClk.c **** * function returns CYRET_SUCCESS.
 244:Generated_Source\PSoC4/CyLFClk.c **** *
 245:Generated_Source\PSoC4/CyLFClk.c **** * The desiredDelay parameter value should be in next range: <br>From 100 to 
 246:Generated_Source\PSoC4/CyLFClk.c **** * 2 000 000 microseconds for PSoC 4000 / PSoC 4000S / PSoC 4100S / PSoC Analog 
 247:Generated_Source\PSoC4/CyLFClk.c **** * Coprocessor devices.<br>From 100 to 4 000 000 000 microseconds for 
 248:Generated_Source\PSoC4/CyLFClk.c **** * PSoC 4100 / PSoC 4200 / PSoC 4100 BLE / PSoC 4200 BLE / PRoC BLE /
 249:Generated_Source\PSoC4/CyLFClk.c **** * PSoC 4200L / PSoC 4100M /PSoC 4200M devices.
 250:Generated_Source\PSoC4/CyLFClk.c **** *
 251:Generated_Source\PSoC4/CyLFClk.c **** * \return CYRET_SUCCESS - The compensation process is complete and the 
 252:Generated_Source\PSoC4/CyLFClk.c **** * compensated cycles value is returned in the compensatedCycles pointer.
 253:Generated_Source\PSoC4/CyLFClk.c **** *
 254:Generated_Source\PSoC4/CyLFClk.c **** * \return CYRET_STARTED - Indicates measurement is in progress. It is 
 255:Generated_Source\PSoC4/CyLFClk.c **** * strongly recommended to do not make pauses between API calling. The 
 256:Generated_Source\PSoC4/CyLFClk.c **** * function should be called repeatedly until the API returns CYRET_SUCCESS.
 257:Generated_Source\PSoC4/CyLFClk.c **** *
 258:Generated_Source\PSoC4/CyLFClk.c **** * \return CYRET_INVALID_STATE - Indicates that measurement not started. 
 259:Generated_Source\PSoC4/CyLFClk.c **** * The user should call CySysClkIloStartMeasurement() API before calling 
 260:Generated_Source\PSoC4/CyLFClk.c **** * this API.
 261:Generated_Source\PSoC4/CyLFClk.c **** *
 262:Generated_Source\PSoC4/CyLFClk.c **** * \note For a correct WDT or DeepSleep Timers functioning with ILO compensating 
 263:Generated_Source\PSoC4/CyLFClk.c **** * the CySysClkIloCompensate() should be called before WDT or DeepSleep Timers 
 264:Generated_Source\PSoC4/CyLFClk.c **** * enabling.
 265:Generated_Source\PSoC4/CyLFClk.c **** *
 266:Generated_Source\PSoC4/CyLFClk.c **** *******************************************************************************/
 267:Generated_Source\PSoC4/CyLFClk.c **** cystatus CySysClkIloCompensate(uint32 desiredDelay , uint32* compensatedCycles)
 268:Generated_Source\PSoC4/CyLFClk.c **** {
 426              		.loc 2 268 0
 427              		.cfi_startproc
 428              		@ args = 0, pretend = 0, frame = 24
 429              		@ frame_needed = 1, uses_anonymous_args = 0
 430 0000 90B5     		push	{r4, r7, lr}
 431              		.cfi_def_cfa_offset 12
 432              		.cfi_offset 4, -12
 433              		.cfi_offset 7, -8
 434              		.cfi_offset 14, -4
 435 0002 87B0     		sub	sp, sp, #28
 436              		.cfi_def_cfa_offset 40
 437 0004 00AF     		add	r7, sp, #0
 438              		.cfi_def_cfa_register 7
 439 0006 7860     		str	r0, [r7, #4]
 440 0008 3960     		str	r1, [r7]
 269:Generated_Source\PSoC4/CyLFClk.c ****     uint32 iloCompensatedCycles;
 270:Generated_Source\PSoC4/CyLFClk.c ****     uint32 desiredDelayInCounts;
 271:Generated_Source\PSoC4/CyLFClk.c ****     static uint32 compensateRunningStatus = CY_SYS_CLK_TRIM_OR_COMP_FINISHED;
 272:Generated_Source\PSoC4/CyLFClk.c ****     uint32 checkStatus;
 273:Generated_Source\PSoC4/CyLFClk.c ****     cystatus returnStatus;
 274:Generated_Source\PSoC4/CyLFClk.c **** 
 275:Generated_Source\PSoC4/CyLFClk.c ****     checkStatus = (uint32) (CY_SYS_CLK_DFT_REG & (uint32) CY_SYS_TST_DDFT_CTRL_REG_DEFAULT_MASK);
 441              		.loc 2 275 0
 442 000a 474B     		ldr	r3, .L35
 443 000c 1B68     		ldr	r3, [r3]
 444 000e 474A     		ldr	r2, .L35+4
 445 0010 1340     		ands	r3, r2
 446 0012 FB60     		str	r3, [r7, #12]
 276:Generated_Source\PSoC4/CyLFClk.c **** 
ARM GAS  C:\Users\ELEASO~1\AppData\Local\Temp\ccqlvzPP.s 			page 26


 277:Generated_Source\PSoC4/CyLFClk.c ****     /* Check if CySysStartMeasurement was called before */
 278:Generated_Source\PSoC4/CyLFClk.c ****     if((checkStatus == CY_SYS_CLK_SEL_ILO_DFT_SOURCE) && 
 447              		.loc 2 278 0
 448 0014 FA68     		ldr	r2, [r7, #12]
 449 0016 8023     		movs	r3, #128
 450 0018 5B00     		lsls	r3, r3, #1
 451 001a 9A42     		cmp	r2, r3
 452 001c 00D0     		beq	.LCB333
 453 001e 7CE0     		b	.L24	@long jump
 454              	.LCB333:
 279:Generated_Source\PSoC4/CyLFClk.c ****        (CY_SYS_TST_DDFT_CTRL_REG == CY_SYS_TST_DDFT_CTRL_REG_SEL2_CLK1) &&
 455              		.loc 2 279 0 discriminator 1
 456 0020 434B     		ldr	r3, .L35+8
 457 0022 1B68     		ldr	r3, [r3]
 278:Generated_Source\PSoC4/CyLFClk.c ****        (CY_SYS_TST_DDFT_CTRL_REG == CY_SYS_TST_DDFT_CTRL_REG_SEL2_CLK1) &&
 458              		.loc 2 278 0 discriminator 1
 459 0024 434A     		ldr	r2, .L35+12
 460 0026 9342     		cmp	r3, r2
 461 0028 00D0     		beq	.LCB338
 462 002a 76E0     		b	.L24	@long jump
 463              	.LCB338:
 464              		.loc 2 279 0
 465 002c 7B68     		ldr	r3, [r7, #4]
 466 002e 424A     		ldr	r2, .L35+16
 467 0030 9342     		cmp	r3, r2
 468 0032 00D9     		bls	.LCB342
 469 0034 71E0     		b	.L24	@long jump
 470              	.LCB342:
 280:Generated_Source\PSoC4/CyLFClk.c ****        (CY_SYS_CLK_MAX_DELAY_US >= desiredDelay) &&
 471              		.loc 2 280 0
 472 0036 7B68     		ldr	r3, [r7, #4]
 473 0038 632B     		cmp	r3, #99
 474 003a 6ED9     		bls	.L24
 281:Generated_Source\PSoC4/CyLFClk.c ****        (CY_SYS_CLK_MIN_DELAY_US <= desiredDelay) &&
 475              		.loc 2 281 0
 476 003c 3B68     		ldr	r3, [r7]
 477 003e 002B     		cmp	r3, #0
 478 0040 6BD0     		beq	.L24
 282:Generated_Source\PSoC4/CyLFClk.c ****        (compensatedCycles !=  NULL))
 283:Generated_Source\PSoC4/CyLFClk.c ****     {
 284:Generated_Source\PSoC4/CyLFClk.c ****         if(CY_SYS_CLK_TRIM_OR_COMP_FINISHED != compensateRunningStatus)
 479              		.loc 2 284 0
 480 0042 3E4B     		ldr	r3, .L35+20
 481 0044 1B68     		ldr	r3, [r3]
 482 0046 002B     		cmp	r3, #0
 483 0048 5CD0     		beq	.L25
 285:Generated_Source\PSoC4/CyLFClk.c ****         {
 286:Generated_Source\PSoC4/CyLFClk.c ****             /* Wait until counter 1 stopped counting and after it calculate compensated cycles */
 287:Generated_Source\PSoC4/CyLFClk.c ****             if(0u != (CY_SYS_CNT_REG1_REG & CY_SYS_CLK_ILO_CALIBR_COMPLETE_MASK))
 484              		.loc 2 287 0
 485 004a 3D4B     		ldr	r3, .L35+24
 486 004c 1B68     		ldr	r3, [r3]
 487 004e 002B     		cmp	r3, #0
 488 0050 55DA     		bge	.L26
 288:Generated_Source\PSoC4/CyLFClk.c ****             {
 289:Generated_Source\PSoC4/CyLFClk.c ****                 if (0u != CY_SYS_CNT_REG2_REG)
 489              		.loc 2 289 0
ARM GAS  C:\Users\ELEASO~1\AppData\Local\Temp\ccqlvzPP.s 			page 27


 490 0052 3C4B     		ldr	r3, .L35+28
 491 0054 1B68     		ldr	r3, [r3]
 492 0056 002B     		cmp	r3, #0
 493 0058 4ED0     		beq	.L27
 290:Generated_Source\PSoC4/CyLFClk.c ****                 {
 291:Generated_Source\PSoC4/CyLFClk.c ****                     /* Calculate required number of ILO cycles for given delay */
 292:Generated_Source\PSoC4/CyLFClk.c ****                     #if(CY_IP_SRSSV2)
 293:Generated_Source\PSoC4/CyLFClk.c ****                         if (CY_SYS_CLK_DELAY_COUNTS_LIMIT < desiredDelay)
 494              		.loc 2 293 0
 495 005a 7B68     		ldr	r3, [r7, #4]
 496 005c 3A4A     		ldr	r2, .L35+32
 497 005e 9342     		cmp	r3, r2
 498 0060 1ED9     		bls	.L28
 294:Generated_Source\PSoC4/CyLFClk.c ****                         {
 295:Generated_Source\PSoC4/CyLFClk.c ****                             desiredDelayInCounts = (desiredDelay / CY_SYS_CLK_ILO_PERIOD);
 499              		.loc 2 295 0
 500 0062 7B68     		ldr	r3, [r7, #4]
 501 0064 1F21     		movs	r1, #31
 502 0066 1800     		movs	r0, r3
 503 0068 FFF7FEFF 		bl	__aeabi_uidiv
 504 006c 0300     		movs	r3, r0
 505 006e BB60     		str	r3, [r7, #8]
 296:Generated_Source\PSoC4/CyLFClk.c ****                             iloCompensatedCycles = 
 297:Generated_Source\PSoC4/CyLFClk.c ****                             (((CY_SYS_CNT_REG2_REG * cydelayFreqHz) / (cydelayFreqHz >> CY_SYS_CLK_
 506              		.loc 2 297 0
 507 0070 344B     		ldr	r3, .L35+28
 508 0072 1A68     		ldr	r2, [r3]
 509 0074 354B     		ldr	r3, .L35+36
 510 0076 1B68     		ldr	r3, [r3]
 511 0078 5A43     		muls	r2, r3
 512 007a 344B     		ldr	r3, .L35+36
 513 007c 1B68     		ldr	r3, [r3]
 514 007e 9B0A     		lsrs	r3, r3, #10
 515 0080 1900     		movs	r1, r3
 516 0082 1000     		movs	r0, r2
 517 0084 FFF7FEFF 		bl	__aeabi_uidiv
 518 0088 0300     		movs	r3, r0
 519 008a 5C09     		lsrs	r4, r3, #5
 298:Generated_Source\PSoC4/CyLFClk.c ****                                 CY_SYS_CLK_ILO_FREQ_2MSB) * (desiredDelayInCounts / CY_SYS_CLK_ILO_
 520              		.loc 2 298 0
 521 008c BA68     		ldr	r2, [r7, #8]
 522 008e FA23     		movs	r3, #250
 523 0090 9900     		lsls	r1, r3, #2
 524 0092 1000     		movs	r0, r2
 525 0094 FFF7FEFF 		bl	__aeabi_uidiv
 526 0098 0300     		movs	r3, r0
 296:Generated_Source\PSoC4/CyLFClk.c ****                             iloCompensatedCycles = 
 527              		.loc 2 296 0
 528 009a 6343     		muls	r3, r4
 529 009c 7B61     		str	r3, [r7, #20]
 530 009e 22E0     		b	.L29
 531              	.L28:
 299:Generated_Source\PSoC4/CyLFClk.c ****                         }
 300:Generated_Source\PSoC4/CyLFClk.c ****                         else
 301:Generated_Source\PSoC4/CyLFClk.c ****                         {
 302:Generated_Source\PSoC4/CyLFClk.c ****                             desiredDelayInCounts = ((desiredDelay * CY_SYS_CLK_COEF_PHUNDRED) + 
 532              		.loc 2 302 0
ARM GAS  C:\Users\ELEASO~1\AppData\Local\Temp\ccqlvzPP.s 			page 28


 533 00a0 7B68     		ldr	r3, [r7, #4]
 534 00a2 6422     		movs	r2, #100
 535 00a4 5343     		muls	r3, r2
 536 00a6 2A4A     		ldr	r2, .L35+40
 537 00a8 9446     		mov	ip, r2
 538 00aa 6344     		add	r3, r3, ip
 539 00ac 2949     		ldr	r1, .L35+44
 540 00ae 1800     		movs	r0, r3
 541 00b0 FFF7FEFF 		bl	__aeabi_uidiv
 542 00b4 0300     		movs	r3, r0
 543 00b6 BB60     		str	r3, [r7, #8]
 303:Generated_Source\PSoC4/CyLFClk.c ****                                                      CY_SYS_CLK_HALF_OF_CLOCK) / CY_SYS_CLK_ILO_PER
 304:Generated_Source\PSoC4/CyLFClk.c **** 
 305:Generated_Source\PSoC4/CyLFClk.c ****                             iloCompensatedCycles = (((CY_SYS_CNT_REG2_REG * cydelayFreqHz) / 
 544              		.loc 2 305 0
 545 00b8 224B     		ldr	r3, .L35+28
 546 00ba 1A68     		ldr	r2, [r3]
 547 00bc 234B     		ldr	r3, .L35+36
 548 00be 1B68     		ldr	r3, [r3]
 549 00c0 5A43     		muls	r2, r3
 306:Generated_Source\PSoC4/CyLFClk.c ****                                                      (cydelayFreqHz >> CY_SYS_CLK_SYS_CLK_DEVIDER))
 550              		.loc 2 306 0
 551 00c2 224B     		ldr	r3, .L35+36
 552 00c4 1B68     		ldr	r3, [r3]
 553 00c6 9B0A     		lsrs	r3, r3, #10
 305:Generated_Source\PSoC4/CyLFClk.c ****                                                      (cydelayFreqHz >> CY_SYS_CLK_SYS_CLK_DEVIDER))
 554              		.loc 2 305 0
 555 00c8 1900     		movs	r1, r3
 556 00ca 1000     		movs	r0, r2
 557 00cc FFF7FEFF 		bl	__aeabi_uidiv
 558 00d0 0300     		movs	r3, r0
 559 00d2 1A00     		movs	r2, r3
 560              		.loc 2 306 0
 561 00d4 BB68     		ldr	r3, [r7, #8]
 562 00d6 5A43     		muls	r2, r3
 305:Generated_Source\PSoC4/CyLFClk.c ****                                                      (cydelayFreqHz >> CY_SYS_CLK_SYS_CLK_DEVIDER))
 563              		.loc 2 305 0
 564 00d8 FA23     		movs	r3, #250
 565 00da D901     		lsls	r1, r3, #7
 566 00dc 1000     		movs	r0, r2
 567 00de FFF7FEFF 		bl	__aeabi_uidiv
 568 00e2 0300     		movs	r3, r0
 569 00e4 7B61     		str	r3, [r7, #20]
 570              	.L29:
 307:Generated_Source\PSoC4/CyLFClk.c ****                                                      desiredDelayInCounts) / CY_SYS_CLK_ILO_DESIRED
 308:Generated_Source\PSoC4/CyLFClk.c ****                         }
 309:Generated_Source\PSoC4/CyLFClk.c ****                     #else /* (CY_IP_SRSSLT) */
 310:Generated_Source\PSoC4/CyLFClk.c ****                         desiredDelayInCounts = ((desiredDelay * CY_SYS_CLK_COEF_PHUNDRED) + CY_SYS_
 311:Generated_Source\PSoC4/CyLFClk.c ****                                                                                            CY_SYS_C
 312:Generated_Source\PSoC4/CyLFClk.c ****                         if(CY_SYS_CLK_MAX_LITE_NUMBER < desiredDelayInCounts)
 313:Generated_Source\PSoC4/CyLFClk.c ****                         {
 314:Generated_Source\PSoC4/CyLFClk.c ****                             iloCompensatedCycles = (((CY_SYS_CNT_REG2_REG * cydelayFreqHz) / (cydel
 315:Generated_Source\PSoC4/CyLFClk.c ****                                                    CY_SYS_CLK_SYS_CLK_DEVIDER)) / CY_SYS_CLK_ILO_FR
 316:Generated_Source\PSoC4/CyLFClk.c ****                                                    (desiredDelayInCounts / CY_SYS_CLK_ILO_FREQ_3LSB
 317:Generated_Source\PSoC4/CyLFClk.c ****                         }
 318:Generated_Source\PSoC4/CyLFClk.c ****                         else
 319:Generated_Source\PSoC4/CyLFClk.c ****                         {
ARM GAS  C:\Users\ELEASO~1\AppData\Local\Temp\ccqlvzPP.s 			page 29


 320:Generated_Source\PSoC4/CyLFClk.c ****                             iloCompensatedCycles = (((CY_SYS_CNT_REG2_REG * cydelayFreqHz) / 
 321:Generated_Source\PSoC4/CyLFClk.c ****                                                      (cydelayFreqHz >> CY_SYS_CLK_SYS_CLK_DEVIDER))
 322:Generated_Source\PSoC4/CyLFClk.c ****                                                      desiredDelayInCounts) / CY_SYS_CLK_ILO_DESIRED
 323:Generated_Source\PSoC4/CyLFClk.c ****                         }
 324:Generated_Source\PSoC4/CyLFClk.c ****                     #endif /* (CY_IP_SRSSV2) */
 325:Generated_Source\PSoC4/CyLFClk.c **** 
 326:Generated_Source\PSoC4/CyLFClk.c ****                     *compensatedCycles = iloCompensatedCycles;
 571              		.loc 2 326 0
 572 00e6 3B68     		ldr	r3, [r7]
 573 00e8 7A69     		ldr	r2, [r7, #20]
 574 00ea 1A60     		str	r2, [r3]
 327:Generated_Source\PSoC4/CyLFClk.c ****                     compensateRunningStatus = CY_SYS_CLK_TRIM_OR_COMP_FINISHED;
 575              		.loc 2 327 0
 576 00ec 134B     		ldr	r3, .L35+20
 577 00ee 0022     		movs	r2, #0
 578 00f0 1A60     		str	r2, [r3]
 328:Generated_Source\PSoC4/CyLFClk.c ****                     returnStatus = CYRET_SUCCESS;
 579              		.loc 2 328 0
 580 00f2 0023     		movs	r3, #0
 581 00f4 3B61     		str	r3, [r7, #16]
 284:Generated_Source\PSoC4/CyLFClk.c ****         {
 582              		.loc 2 284 0
 583 00f6 12E0     		b	.L33
 584              	.L27:
 329:Generated_Source\PSoC4/CyLFClk.c ****                 }
 330:Generated_Source\PSoC4/CyLFClk.c ****                 else
 331:Generated_Source\PSoC4/CyLFClk.c ****                 {
 332:Generated_Source\PSoC4/CyLFClk.c ****                     returnStatus  = CYRET_INVALID_STATE;
 585              		.loc 2 332 0
 586 00f8 1123     		movs	r3, #17
 587 00fa 3B61     		str	r3, [r7, #16]
 284:Generated_Source\PSoC4/CyLFClk.c ****         {
 588              		.loc 2 284 0
 589 00fc 0FE0     		b	.L33
 590              	.L26:
 333:Generated_Source\PSoC4/CyLFClk.c ****                 }
 334:Generated_Source\PSoC4/CyLFClk.c ****             }
 335:Generated_Source\PSoC4/CyLFClk.c ****             else
 336:Generated_Source\PSoC4/CyLFClk.c ****             {
 337:Generated_Source\PSoC4/CyLFClk.c ****                 returnStatus = CYRET_STARTED;
 591              		.loc 2 337 0
 592 00fe 0723     		movs	r3, #7
 593 0100 3B61     		str	r3, [r7, #16]
 284:Generated_Source\PSoC4/CyLFClk.c ****         {
 594              		.loc 2 284 0
 595 0102 0CE0     		b	.L33
 596              	.L25:
 338:Generated_Source\PSoC4/CyLFClk.c ****             }
 339:Generated_Source\PSoC4/CyLFClk.c ****         }
 340:Generated_Source\PSoC4/CyLFClk.c ****         else
 341:Generated_Source\PSoC4/CyLFClk.c ****         {
 342:Generated_Source\PSoC4/CyLFClk.c ****             /* Reload CNTR 1 count value for next measurement cycle*/
 343:Generated_Source\PSoC4/CyLFClk.c ****             CY_SYS_CNT_REG1_REG = (cydelayFreqHz >> CY_SYS_CLK_SYS_CLK_DEVIDER);
 597              		.loc 2 343 0
 598 0104 0E4A     		ldr	r2, .L35+24
 599 0106 114B     		ldr	r3, .L35+36
 600 0108 1B68     		ldr	r3, [r3]
ARM GAS  C:\Users\ELEASO~1\AppData\Local\Temp\ccqlvzPP.s 			page 30


 601 010a 9B0A     		lsrs	r3, r3, #10
 602 010c 1360     		str	r3, [r2]
 344:Generated_Source\PSoC4/CyLFClk.c ****             compensateRunningStatus = CY_SYS_CLK_TRIM_OR_COMP_STARTED;
 603              		.loc 2 344 0
 604 010e 0B4B     		ldr	r3, .L35+20
 605 0110 0122     		movs	r2, #1
 606 0112 1A60     		str	r2, [r3]
 345:Generated_Source\PSoC4/CyLFClk.c ****             returnStatus = CYRET_STARTED;
 607              		.loc 2 345 0
 608 0114 0723     		movs	r3, #7
 609 0116 3B61     		str	r3, [r7, #16]
 284:Generated_Source\PSoC4/CyLFClk.c ****         {
 610              		.loc 2 284 0
 611 0118 01E0     		b	.L33
 612              	.L24:
 346:Generated_Source\PSoC4/CyLFClk.c ****         }
 347:Generated_Source\PSoC4/CyLFClk.c ****     }
 348:Generated_Source\PSoC4/CyLFClk.c ****     else
 349:Generated_Source\PSoC4/CyLFClk.c ****     {
 350:Generated_Source\PSoC4/CyLFClk.c ****         returnStatus = CYRET_INVALID_STATE;
 613              		.loc 2 350 0
 614 011a 1123     		movs	r3, #17
 615 011c 3B61     		str	r3, [r7, #16]
 616              	.L33:
 351:Generated_Source\PSoC4/CyLFClk.c ****     }
 352:Generated_Source\PSoC4/CyLFClk.c **** 
 353:Generated_Source\PSoC4/CyLFClk.c ****     return (returnStatus);
 617              		.loc 2 353 0
 618 011e 3B69     		ldr	r3, [r7, #16]
 354:Generated_Source\PSoC4/CyLFClk.c **** }
 619              		.loc 2 354 0
 620 0120 1800     		movs	r0, r3
 621 0122 BD46     		mov	sp, r7
 622 0124 07B0     		add	sp, sp, #28
 623              		@ sp needed
 624 0126 90BD     		pop	{r4, r7, pc}
 625              	.L36:
 626              		.align	2
 627              	.L35:
 628 0128 10010B40 		.word	1074462992
 629 012c 3F3F0000 		.word	16191
 630 0130 08000340 		.word	1073938440
 631 0134 0A0B0000 		.word	2826
 632 0138 00286BEE 		.word	-294967296
 633 013c 1C000000 		.word	compensateRunningStatus.4877
 634 0140 18000340 		.word	1073938456
 635 0144 1C000340 		.word	1073938460
 636 0148 60D10000 		.word	53600
 637 014c 00000000 		.word	cydelayFreqHz
 638 0150 0D030000 		.word	781
 639 0154 350C0000 		.word	3125
 640              		.cfi_endproc
 641              	.LFE6:
 642              		.size	CySysClkIloCompensate, .-CySysClkIloCompensate
 643              		.section	.text.CySysClkIloEnabled,"ax",%progbits
 644              		.align	2
 645              		.code	16
ARM GAS  C:\Users\ELEASO~1\AppData\Local\Temp\ccqlvzPP.s 			page 31


 646              		.thumb_func
 647              		.type	CySysClkIloEnabled, %function
 648              	CySysClkIloEnabled:
 649              	.LFB7:
 355:Generated_Source\PSoC4/CyLFClk.c **** 
 356:Generated_Source\PSoC4/CyLFClk.c **** 
 357:Generated_Source\PSoC4/CyLFClk.c **** #if(CY_IP_SRSSV2)
 358:Generated_Source\PSoC4/CyLFClk.c ****     /*******************************************************************************
 359:Generated_Source\PSoC4/CyLFClk.c ****     * Function Name: CySysClkIloEnabled
 360:Generated_Source\PSoC4/CyLFClk.c ****     ****************************************************************************//**
 361:Generated_Source\PSoC4/CyLFClk.c ****     *
 362:Generated_Source\PSoC4/CyLFClk.c ****     * \internal
 363:Generated_Source\PSoC4/CyLFClk.c ****     * Reports the ILO enable state.
 364:Generated_Source\PSoC4/CyLFClk.c ****     *
 365:Generated_Source\PSoC4/CyLFClk.c ****     * \return
 366:Generated_Source\PSoC4/CyLFClk.c ****     * 1 if ILO is enabled, and 0 if ILO is disabled.
 367:Generated_Source\PSoC4/CyLFClk.c ****     *
 368:Generated_Source\PSoC4/CyLFClk.c ****     * \endinternal
 369:Generated_Source\PSoC4/CyLFClk.c ****     ********************************************************************************/
 370:Generated_Source\PSoC4/CyLFClk.c ****     static uint32 CySysClkIloEnabled(void)
 371:Generated_Source\PSoC4/CyLFClk.c ****     {
 650              		.loc 2 371 0
 651              		.cfi_startproc
 652              		@ args = 0, pretend = 0, frame = 0
 653              		@ frame_needed = 1, uses_anonymous_args = 0
 654 0000 80B5     		push	{r7, lr}
 655              		.cfi_def_cfa_offset 8
 656              		.cfi_offset 7, -8
 657              		.cfi_offset 14, -4
 658 0002 00AF     		add	r7, sp, #0
 659              		.cfi_def_cfa_register 7
 372:Generated_Source\PSoC4/CyLFClk.c ****         /* Prohibits writing to WDT registers and ILO/WCO registers when not equal to 0 */
 373:Generated_Source\PSoC4/CyLFClk.c ****         return ((0u != (CY_SYS_CLK_ILO_CONFIG_REG & (uint32)(CY_SYS_CLK_ILO_CONFIG_ENABLE))) ?
 660              		.loc 2 373 0
 661 0004 044B     		ldr	r3, .L41
 662 0006 1B68     		ldr	r3, [r3]
 374:Generated_Source\PSoC4/CyLFClk.c ****             (uint32) 1u :
 663              		.loc 2 374 0
 664 0008 002B     		cmp	r3, #0
 665 000a 01DA     		bge	.L38
 666              		.loc 2 374 0 is_stmt 0 discriminator 1
 667 000c 0123     		movs	r3, #1
 373:Generated_Source\PSoC4/CyLFClk.c ****             (uint32) 1u :
 668              		.loc 2 373 0 is_stmt 1 discriminator 1
 669 000e 00E0     		b	.L40
 670              	.L38:
 671              		.loc 2 374 0 discriminator 2
 672 0010 0023     		movs	r3, #0
 673              	.L40:
 375:Generated_Source\PSoC4/CyLFClk.c ****             (uint32) 0u);
 376:Generated_Source\PSoC4/CyLFClk.c ****     }
 674              		.loc 2 376 0 discriminator 1
 675 0012 1800     		movs	r0, r3
 676 0014 BD46     		mov	sp, r7
 677              		@ sp needed
 678 0016 80BD     		pop	{r7, pc}
 679              	.L42:
ARM GAS  C:\Users\ELEASO~1\AppData\Local\Temp\ccqlvzPP.s 			page 32


 680              		.align	2
 681              	.L41:
 682 0018 04010B40 		.word	1074462980
 683              		.cfi_endproc
 684              	.LFE7:
 685              		.size	CySysClkIloEnabled, .-CySysClkIloEnabled
 686              		.section	.text.CySysClkIloTrim,"ax",%progbits
 687              		.align	2
 688              		.global	CySysClkIloTrim
 689              		.code	16
 690              		.thumb_func
 691              		.type	CySysClkIloTrim, %function
 692              	CySysClkIloTrim:
 693              	.LFB8:
 377:Generated_Source\PSoC4/CyLFClk.c **** #endif /* (CY_IP_SRSSV2) */
 378:Generated_Source\PSoC4/CyLFClk.c **** 
 379:Generated_Source\PSoC4/CyLFClk.c **** 
 380:Generated_Source\PSoC4/CyLFClk.c **** #if(CY_IP_SRSSV2 && (!CY_IP_CPUSS))
 381:Generated_Source\PSoC4/CyLFClk.c **** /********************************************************************************
 382:Generated_Source\PSoC4/CyLFClk.c **** * Function Name: CySysClkIloTrim
 383:Generated_Source\PSoC4/CyLFClk.c **** *****************************************************************************//**
 384:Generated_Source\PSoC4/CyLFClk.c **** * \brief
 385:Generated_Source\PSoC4/CyLFClk.c **** * The API trims the ILO frequency to +/- 10% accuracy range using accurate 
 386:Generated_Source\PSoC4/CyLFClk.c **** * SysClk.
 387:Generated_Source\PSoC4/CyLFClk.c **** *
 388:Generated_Source\PSoC4/CyLFClk.c **** * The API can be blocking or non-blocking depending on the value of the mode 
 389:Generated_Source\PSoC4/CyLFClk.c **** * parameter passed. The accuracy of ILO after trimming in parts per thousand 
 390:Generated_Source\PSoC4/CyLFClk.c **** * is returned through the iloAccuracyInPPT pointer. A positive number indicates 
 391:Generated_Source\PSoC4/CyLFClk.c **** * that the ILO is running fast and a negative number indicates that the ILO is 
 392:Generated_Source\PSoC4/CyLFClk.c **** * running slowly. This error is relative to the error in the reference clock 
 393:Generated_Source\PSoC4/CyLFClk.c **** * (SysClk), so the absolute error will be higher and depends on the accuracy 
 394:Generated_Source\PSoC4/CyLFClk.c **** * of the reference.
 395:Generated_Source\PSoC4/CyLFClk.c **** *
 396:Generated_Source\PSoC4/CyLFClk.c **** * The CySysClkIloStartMeasurement() API should be called prior to calling this 
 397:Generated_Source\PSoC4/CyLFClk.c **** * API. Otherwise it will return CYRET_INVALID_STATE as the measurement was not 
 398:Generated_Source\PSoC4/CyLFClk.c **** * started.
 399:Generated_Source\PSoC4/CyLFClk.c **** *
 400:Generated_Source\PSoC4/CyLFClk.c **** * \note SysClk should be sourced by IMO. Otherwise CySysClkIloTrim() and 
 401:Generated_Source\PSoC4/CyLFClk.c **** * CySysClkIloCompensate() API can give incorrect results.
 402:Generated_Source\PSoC4/CyLFClk.c **** *
 403:Generated_Source\PSoC4/CyLFClk.c **** * \note If System clock frequency is changed in runtime, the CyDelayFreq() 
 404:Generated_Source\PSoC4/CyLFClk.c **** * with the appropriate parameter (Frequency of bus clock in Hertz) should be 
 405:Generated_Source\PSoC4/CyLFClk.c **** * called before next CySysClkIloCompensate() usage.
 406:Generated_Source\PSoC4/CyLFClk.c **** *
 407:Generated_Source\PSoC4/CyLFClk.c **** * \warning Do not enter deep sleep mode until the function returns CYRET_SUCCESS
 408:Generated_Source\PSoC4/CyLFClk.c **** * or CYRET_TIMEOUT.
 409:Generated_Source\PSoC4/CyLFClk.c **** *
 410:Generated_Source\PSoC4/CyLFClk.c **** * Available for all PSoC 4 devices with ILO trim capability. This excludes 
 411:Generated_Source\PSoC4/CyLFClk.c **** * PSoC 4000 / PSoC 4100 / PSoC 4200 / PSoC 4000S / PSoC 4100S / PSoC
 412:Generated_Source\PSoC4/CyLFClk.c **** * Analog Coprocessor devices.
 413:Generated_Source\PSoC4/CyLFClk.c **** *
 414:Generated_Source\PSoC4/CyLFClk.c **** * \param mode
 415:Generated_Source\PSoC4/CyLFClk.c **** *  CY_SYS_CLK_BLOCKING -  The function does not return until the ILO is 
 416:Generated_Source\PSoC4/CyLFClk.c **** * within +/-10% accuracy range or time out has occurred.<br>
 417:Generated_Source\PSoC4/CyLFClk.c **** * CY_SYS_CLK_NON_BLOCKING - The function returns immediately after 
 418:Generated_Source\PSoC4/CyLFClk.c **** * performing a single iteration of the trim process. The function should be 
 419:Generated_Source\PSoC4/CyLFClk.c **** * called repeatedly until the trimming is completed successfully.
ARM GAS  C:\Users\ELEASO~1\AppData\Local\Temp\ccqlvzPP.s 			page 33


 420:Generated_Source\PSoC4/CyLFClk.c **** *
 421:Generated_Source\PSoC4/CyLFClk.c **** * \param *iloAccuracyInPPT Pointer to an integer in which the trimmed ILO 
 422:Generated_Source\PSoC4/CyLFClk.c **** * accuracy will be returned.
 423:Generated_Source\PSoC4/CyLFClk.c **** *
 424:Generated_Source\PSoC4/CyLFClk.c **** * \details The value returned in *iloAccuracyInPPT pointer is not valid 
 425:Generated_Source\PSoC4/CyLFClk.c **** * until the function returns CYRET_SUCCESS. ILO accuracy in PPT is given by:
 426:Generated_Source\PSoC4/CyLFClk.c **** *
 427:Generated_Source\PSoC4/CyLFClk.c **** * IloAccuracyInPPT = ((MeasuredIloFreq - DesiredIloFreq) * 
 428:Generated_Source\PSoC4/CyLFClk.c **** * CY_SYS_CLK_PERTHOUSAND) / DesiredIloFreq);
 429:Generated_Source\PSoC4/CyLFClk.c **** *
 430:Generated_Source\PSoC4/CyLFClk.c **** * DesiredIloFreq  = 32000, CY_SYS_CLK_PERTHOUSAND = 1000;
 431:Generated_Source\PSoC4/CyLFClk.c **** *
 432:Generated_Source\PSoC4/CyLFClk.c **** * \return CYRET_SUCCESS - Indicates trimming is complete. This value indicates 
 433:Generated_Source\PSoC4/CyLFClk.c **** * trimming is successful and iloAccuracyInPPT is within +/- 10%.
 434:Generated_Source\PSoC4/CyLFClk.c **** *
 435:Generated_Source\PSoC4/CyLFClk.c **** * \return CYRET_STARTED - Indicates measurement is in progress. This is applicable 
 436:Generated_Source\PSoC4/CyLFClk.c **** * only for non-blocking mode.
 437:Generated_Source\PSoC4/CyLFClk.c **** *
 438:Generated_Source\PSoC4/CyLFClk.c **** * \return CYRET_INVALID_STATE - Indicates trimming was unsuccessful. You should 
 439:Generated_Source\PSoC4/CyLFClk.c **** * call CySysClkIloStartMeasurement() before calling this API.
 440:Generated_Source\PSoC4/CyLFClk.c **** *
 441:Generated_Source\PSoC4/CyLFClk.c **** * \return CYRET_TIMEOUT - Indicates trimming was unsuccessful. This is applicable 
 442:Generated_Source\PSoC4/CyLFClk.c **** * only for blocking mode. Timeout means the trimming was tried 5 times without 
 443:Generated_Source\PSoC4/CyLFClk.c **** * success (i.e. ILO accuracy > +/- 10%). The user can call the API again for 
 444:Generated_Source\PSoC4/CyLFClk.c **** * another try or wait for some time before calling it again (to let the system 
 445:Generated_Source\PSoC4/CyLFClk.c **** * to settle to another operating point change in temperature etc.) and continue 
 446:Generated_Source\PSoC4/CyLFClk.c **** * using the previous trim value till the next call.
 447:Generated_Source\PSoC4/CyLFClk.c **** *
 448:Generated_Source\PSoC4/CyLFClk.c **** **********************************************************************************/
 449:Generated_Source\PSoC4/CyLFClk.c **** cystatus CySysClkIloTrim(uint32 mode, int32* iloAccuracyInPPT)
 450:Generated_Source\PSoC4/CyLFClk.c **** {
 694              		.loc 2 450 0
 695              		.cfi_startproc
 696              		@ args = 0, pretend = 0, frame = 24
 697              		@ frame_needed = 1, uses_anonymous_args = 0
 698 0000 80B5     		push	{r7, lr}
 699              		.cfi_def_cfa_offset 8
 700              		.cfi_offset 7, -8
 701              		.cfi_offset 14, -4
 702 0002 86B0     		sub	sp, sp, #24
 703              		.cfi_def_cfa_offset 32
 704 0004 00AF     		add	r7, sp, #0
 705              		.cfi_def_cfa_register 7
 706 0006 7860     		str	r0, [r7, #4]
 707 0008 3960     		str	r1, [r7]
 451:Generated_Source\PSoC4/CyLFClk.c ****     uint32 timeOutClocks = CY_SYS_CLK_TIMEOUT;
 708              		.loc 2 451 0
 709 000a 0523     		movs	r3, #5
 710 000c 7B61     		str	r3, [r7, #20]
 452:Generated_Source\PSoC4/CyLFClk.c ****     uint32 waitUntilCntr1Stops;
 453:Generated_Source\PSoC4/CyLFClk.c ****     static uint32 trimRunningStatus = CY_SYS_CLK_TRIM_OR_COMP_FINISHED;
 454:Generated_Source\PSoC4/CyLFClk.c ****     uint32 checkStatus;
 455:Generated_Source\PSoC4/CyLFClk.c ****     cystatus returnStatus;
 456:Generated_Source\PSoC4/CyLFClk.c **** 
 457:Generated_Source\PSoC4/CyLFClk.c ****     checkStatus = (uint32) (CY_SYS_CLK_DFT_REG & (uint32) CY_SYS_TST_DDFT_CTRL_REG_DEFAULT_MASK);
 711              		.loc 2 457 0
 712 000e 3E4B     		ldr	r3, .L61
ARM GAS  C:\Users\ELEASO~1\AppData\Local\Temp\ccqlvzPP.s 			page 34


 713 0010 1B68     		ldr	r3, [r3]
 714 0012 3E4A     		ldr	r2, .L61+4
 715 0014 1340     		ands	r3, r2
 716 0016 BB60     		str	r3, [r7, #8]
 458:Generated_Source\PSoC4/CyLFClk.c **** 
 459:Generated_Source\PSoC4/CyLFClk.c ****     /* Check if DFT and CTRL registers were configures in CySysStartMeasurement*/
 460:Generated_Source\PSoC4/CyLFClk.c ****     if((checkStatus == CY_SYS_CLK_SEL_ILO_DFT_SOURCE) &&
 717              		.loc 2 460 0
 718 0018 BA68     		ldr	r2, [r7, #8]
 719 001a 8023     		movs	r3, #128
 720 001c 5B00     		lsls	r3, r3, #1
 721 001e 9A42     		cmp	r2, r3
 722 0020 00D0     		beq	.LCB565
 723 0022 69E0     		b	.L44	@long jump
 724              	.LCB565:
 461:Generated_Source\PSoC4/CyLFClk.c ****        (CY_SYS_TST_DDFT_CTRL_REG == CY_SYS_TST_DDFT_CTRL_REG_SEL2_CLK1) &&
 725              		.loc 2 461 0 discriminator 1
 726 0024 3A4B     		ldr	r3, .L61+8
 727 0026 1B68     		ldr	r3, [r3]
 460:Generated_Source\PSoC4/CyLFClk.c ****        (CY_SYS_TST_DDFT_CTRL_REG == CY_SYS_TST_DDFT_CTRL_REG_SEL2_CLK1) &&
 728              		.loc 2 460 0 discriminator 1
 729 0028 3A4A     		ldr	r2, .L61+12
 730 002a 9342     		cmp	r3, r2
 731 002c 00D0     		beq	.LCB570
 732 002e 63E0     		b	.L44	@long jump
 733              	.LCB570:
 734              		.loc 2 461 0
 735 0030 3B68     		ldr	r3, [r7]
 736 0032 002B     		cmp	r3, #0
 737 0034 60D0     		beq	.L44
 462:Generated_Source\PSoC4/CyLFClk.c ****        (iloAccuracyInPPT != NULL))
 463:Generated_Source\PSoC4/CyLFClk.c ****     {
 464:Generated_Source\PSoC4/CyLFClk.c ****         if(CY_SYS_CLK_BLOCKING == mode)
 738              		.loc 2 464 0
 739 0036 7B68     		ldr	r3, [r7, #4]
 740 0038 002B     		cmp	r3, #0
 741 003a 3DD1     		bne	.L45
 465:Generated_Source\PSoC4/CyLFClk.c ****         {
 466:Generated_Source\PSoC4/CyLFClk.c ****             waitUntilCntr1Stops = cydelayFreqHz >> CY_SYS_CLK_SYS_CLK_DEVIDER;
 742              		.loc 2 466 0
 743 003c 364B     		ldr	r3, .L61+16
 744 003e 1B68     		ldr	r3, [r3]
 745 0040 9B0A     		lsrs	r3, r3, #10
 746 0042 3B61     		str	r3, [r7, #16]
 747              	.L50:
 467:Generated_Source\PSoC4/CyLFClk.c ****             do
 468:Generated_Source\PSoC4/CyLFClk.c ****             {
 469:Generated_Source\PSoC4/CyLFClk.c ****                 /* Reload CNTR 1 count value for measuring cycle*/
 470:Generated_Source\PSoC4/CyLFClk.c ****                 CY_SYS_CNT_REG1_REG = cydelayFreqHz >> CY_SYS_CLK_SYS_CLK_DEVIDER; 
 748              		.loc 2 470 0
 749 0044 354A     		ldr	r2, .L61+20
 750 0046 344B     		ldr	r3, .L61+16
 751 0048 1B68     		ldr	r3, [r3]
 752 004a 9B0A     		lsrs	r3, r3, #10
 753 004c 1360     		str	r3, [r2]
 471:Generated_Source\PSoC4/CyLFClk.c **** 
 472:Generated_Source\PSoC4/CyLFClk.c ****                 /* Wait until counter CNTR 1 will finish down-counting */
ARM GAS  C:\Users\ELEASO~1\AppData\Local\Temp\ccqlvzPP.s 			page 35


 473:Generated_Source\PSoC4/CyLFClk.c ****                 while (0u == (CY_SYS_CNT_REG1_REG & CY_SYS_CLK_ILO_CALIBR_COMPLETE_MASK))
 754              		.loc 2 473 0
 755 004e 05E0     		b	.L46
 756              	.L48:
 474:Generated_Source\PSoC4/CyLFClk.c ****                 {
 475:Generated_Source\PSoC4/CyLFClk.c ****                     waitUntilCntr1Stops--;
 757              		.loc 2 475 0
 758 0050 3B69     		ldr	r3, [r7, #16]
 759 0052 013B     		subs	r3, r3, #1
 760 0054 3B61     		str	r3, [r7, #16]
 476:Generated_Source\PSoC4/CyLFClk.c ****                     if (0u == waitUntilCntr1Stops)
 761              		.loc 2 476 0
 762 0056 3B69     		ldr	r3, [r7, #16]
 763 0058 002B     		cmp	r3, #0
 764 005a 04D0     		beq	.L60
 765              	.L46:
 473:Generated_Source\PSoC4/CyLFClk.c ****                 {
 766              		.loc 2 473 0
 767 005c 2F4B     		ldr	r3, .L61+20
 768 005e 1B68     		ldr	r3, [r3]
 769 0060 002B     		cmp	r3, #0
 770 0062 F5DA     		bge	.L48
 771 0064 00E0     		b	.L47
 772              	.L60:
 477:Generated_Source\PSoC4/CyLFClk.c ****                     {
 478:Generated_Source\PSoC4/CyLFClk.c ****                         break;
 773              		.loc 2 478 0
 774 0066 C046     		nop
 775              	.L47:
 479:Generated_Source\PSoC4/CyLFClk.c ****                     }
 480:Generated_Source\PSoC4/CyLFClk.c ****                 }
 481:Generated_Source\PSoC4/CyLFClk.c ****                 trimRunningStatus = CySysClkIloUpdateTrimReg(iloAccuracyInPPT);
 776              		.loc 2 481 0
 777 0068 3B68     		ldr	r3, [r7]
 778 006a 1800     		movs	r0, r3
 779 006c FFF7FEFF 		bl	CySysClkIloUpdateTrimReg
 780 0070 0200     		movs	r2, r0
 781 0072 2B4B     		ldr	r3, .L61+24
 782 0074 1A60     		str	r2, [r3]
 482:Generated_Source\PSoC4/CyLFClk.c ****                 timeOutClocks--;
 783              		.loc 2 482 0
 784 0076 7B69     		ldr	r3, [r7, #20]
 785 0078 013B     		subs	r3, r3, #1
 786 007a 7B61     		str	r3, [r7, #20]
 483:Generated_Source\PSoC4/CyLFClk.c **** 
 484:Generated_Source\PSoC4/CyLFClk.c ****             /* Untill ILO accuracy will be in range less than +/- 10% or timeout occurs*/
 485:Generated_Source\PSoC4/CyLFClk.c ****             } while((CYRET_SUCCESS != trimRunningStatus) && 
 787              		.loc 2 485 0
 788 007c 284B     		ldr	r3, .L61+24
 789 007e 1B68     		ldr	r3, [r3]
 486:Generated_Source\PSoC4/CyLFClk.c ****               (CYRET_INVALID_STATE != trimRunningStatus) && 
 487:Generated_Source\PSoC4/CyLFClk.c ****                                (0u != timeOutClocks));
 790              		.loc 2 487 0
 791 0080 002B     		cmp	r3, #0
 792 0082 06D0     		beq	.L49
 486:Generated_Source\PSoC4/CyLFClk.c ****               (CYRET_INVALID_STATE != trimRunningStatus) && 
 793              		.loc 2 486 0
ARM GAS  C:\Users\ELEASO~1\AppData\Local\Temp\ccqlvzPP.s 			page 36


 794 0084 264B     		ldr	r3, .L61+24
 795 0086 1B68     		ldr	r3, [r3]
 485:Generated_Source\PSoC4/CyLFClk.c ****               (CYRET_INVALID_STATE != trimRunningStatus) && 
 796              		.loc 2 485 0
 797 0088 112B     		cmp	r3, #17
 798 008a 02D0     		beq	.L49
 486:Generated_Source\PSoC4/CyLFClk.c ****               (CYRET_INVALID_STATE != trimRunningStatus) && 
 799              		.loc 2 486 0
 800 008c 7B69     		ldr	r3, [r7, #20]
 801 008e 002B     		cmp	r3, #0
 802 0090 D8D1     		bne	.L50
 803              	.L49:
 488:Generated_Source\PSoC4/CyLFClk.c **** 
 489:Generated_Source\PSoC4/CyLFClk.c ****             if (CYRET_SUCCESS == trimRunningStatus)
 804              		.loc 2 489 0
 805 0092 234B     		ldr	r3, .L61+24
 806 0094 1B68     		ldr	r3, [r3]
 807 0096 002B     		cmp	r3, #0
 808 0098 02D1     		bne	.L51
 490:Generated_Source\PSoC4/CyLFClk.c ****             {
 491:Generated_Source\PSoC4/CyLFClk.c ****                 returnStatus = CYRET_SUCCESS;
 809              		.loc 2 491 0
 810 009a 0023     		movs	r3, #0
 811 009c FB60     		str	r3, [r7, #12]
 464:Generated_Source\PSoC4/CyLFClk.c ****         {
 812              		.loc 2 464 0
 813 009e 2DE0     		b	.L58
 814              	.L51:
 492:Generated_Source\PSoC4/CyLFClk.c ****             }
 493:Generated_Source\PSoC4/CyLFClk.c ****             else
 494:Generated_Source\PSoC4/CyLFClk.c ****             {
 495:Generated_Source\PSoC4/CyLFClk.c ****                 if(0u == timeOutClocks)
 815              		.loc 2 495 0
 816 00a0 7B69     		ldr	r3, [r7, #20]
 817 00a2 002B     		cmp	r3, #0
 818 00a4 05D1     		bne	.L53
 496:Generated_Source\PSoC4/CyLFClk.c ****                 {
 497:Generated_Source\PSoC4/CyLFClk.c ****                     trimRunningStatus = CY_SYS_CLK_TRIM_OR_COMP_FINISHED;
 819              		.loc 2 497 0
 820 00a6 1E4B     		ldr	r3, .L61+24
 821 00a8 0022     		movs	r2, #0
 822 00aa 1A60     		str	r2, [r3]
 498:Generated_Source\PSoC4/CyLFClk.c ****                     returnStatus = CYRET_TIMEOUT;
 823              		.loc 2 498 0
 824 00ac 1023     		movs	r3, #16
 825 00ae FB60     		str	r3, [r7, #12]
 464:Generated_Source\PSoC4/CyLFClk.c ****         {
 826              		.loc 2 464 0
 827 00b0 24E0     		b	.L58
 828              	.L53:
 499:Generated_Source\PSoC4/CyLFClk.c ****                 }
 500:Generated_Source\PSoC4/CyLFClk.c ****                 else
 501:Generated_Source\PSoC4/CyLFClk.c ****                 {
 502:Generated_Source\PSoC4/CyLFClk.c ****                     returnStatus = CYRET_INVALID_STATE;
 829              		.loc 2 502 0
 830 00b2 1123     		movs	r3, #17
 831 00b4 FB60     		str	r3, [r7, #12]
ARM GAS  C:\Users\ELEASO~1\AppData\Local\Temp\ccqlvzPP.s 			page 37


 464:Generated_Source\PSoC4/CyLFClk.c ****         {
 832              		.loc 2 464 0
 833 00b6 21E0     		b	.L58
 834              	.L45:
 503:Generated_Source\PSoC4/CyLFClk.c ****                 }
 504:Generated_Source\PSoC4/CyLFClk.c ****             }
 505:Generated_Source\PSoC4/CyLFClk.c ****         }
 506:Generated_Source\PSoC4/CyLFClk.c ****         /* Non - blocking mode */
 507:Generated_Source\PSoC4/CyLFClk.c ****         else
 508:Generated_Source\PSoC4/CyLFClk.c ****         {
 509:Generated_Source\PSoC4/CyLFClk.c ****             if (CY_SYS_CLK_TRIM_OR_COMP_FINISHED != trimRunningStatus)
 835              		.loc 2 509 0
 836 00b8 194B     		ldr	r3, .L61+24
 837 00ba 1B68     		ldr	r3, [r3]
 838 00bc 002B     		cmp	r3, #0
 839 00be 10D0     		beq	.L55
 510:Generated_Source\PSoC4/CyLFClk.c ****             {
 511:Generated_Source\PSoC4/CyLFClk.c ****                 /* Checking if the counter CNTR 1 finished down-counting */
 512:Generated_Source\PSoC4/CyLFClk.c ****                 if(0u != (CY_SYS_CNT_REG1_REG & CY_SYS_CLK_ILO_CALIBR_COMPLETE_MASK))
 840              		.loc 2 512 0
 841 00c0 164B     		ldr	r3, .L61+20
 842 00c2 1B68     		ldr	r3, [r3]
 843 00c4 002B     		cmp	r3, #0
 844 00c6 09DA     		bge	.L56
 513:Generated_Source\PSoC4/CyLFClk.c ****                 {
 514:Generated_Source\PSoC4/CyLFClk.c ****                     returnStatus = CySysClkIloUpdateTrimReg(iloAccuracyInPPT);
 845              		.loc 2 514 0
 846 00c8 3B68     		ldr	r3, [r7]
 847 00ca 1800     		movs	r0, r3
 848 00cc FFF7FEFF 		bl	CySysClkIloUpdateTrimReg
 849 00d0 0300     		movs	r3, r0
 850 00d2 FB60     		str	r3, [r7, #12]
 515:Generated_Source\PSoC4/CyLFClk.c ****                     trimRunningStatus = CY_SYS_CLK_TRIM_OR_COMP_FINISHED;
 851              		.loc 2 515 0
 852 00d4 124B     		ldr	r3, .L61+24
 853 00d6 0022     		movs	r2, #0
 854 00d8 1A60     		str	r2, [r3]
 464:Generated_Source\PSoC4/CyLFClk.c ****         {
 855              		.loc 2 464 0
 856 00da 0FE0     		b	.L58
 857              	.L56:
 516:Generated_Source\PSoC4/CyLFClk.c ****                 }
 517:Generated_Source\PSoC4/CyLFClk.c ****                 else
 518:Generated_Source\PSoC4/CyLFClk.c ****                 {
 519:Generated_Source\PSoC4/CyLFClk.c ****                     returnStatus = CYRET_STARTED;
 858              		.loc 2 519 0
 859 00dc 0723     		movs	r3, #7
 860 00de FB60     		str	r3, [r7, #12]
 464:Generated_Source\PSoC4/CyLFClk.c ****         {
 861              		.loc 2 464 0
 862 00e0 0CE0     		b	.L58
 863              	.L55:
 520:Generated_Source\PSoC4/CyLFClk.c ****                 }
 521:Generated_Source\PSoC4/CyLFClk.c ****             }
 522:Generated_Source\PSoC4/CyLFClk.c ****             else
 523:Generated_Source\PSoC4/CyLFClk.c ****             {
 524:Generated_Source\PSoC4/CyLFClk.c ****                 /* Reload CNTR 1 count value for next measuring */
ARM GAS  C:\Users\ELEASO~1\AppData\Local\Temp\ccqlvzPP.s 			page 38


 525:Generated_Source\PSoC4/CyLFClk.c ****                 CY_SYS_CNT_REG1_REG = cydelayFreqHz >> CY_SYS_CLK_SYS_CLK_DEVIDER;
 864              		.loc 2 525 0
 865 00e2 0E4A     		ldr	r2, .L61+20
 866 00e4 0C4B     		ldr	r3, .L61+16
 867 00e6 1B68     		ldr	r3, [r3]
 868 00e8 9B0A     		lsrs	r3, r3, #10
 869 00ea 1360     		str	r3, [r2]
 526:Generated_Source\PSoC4/CyLFClk.c ****                 trimRunningStatus = CY_SYS_CLK_TRIM_OR_COMP_STARTED;
 870              		.loc 2 526 0
 871 00ec 0C4B     		ldr	r3, .L61+24
 872 00ee 0122     		movs	r2, #1
 873 00f0 1A60     		str	r2, [r3]
 527:Generated_Source\PSoC4/CyLFClk.c ****                 returnStatus = CYRET_STARTED;
 874              		.loc 2 527 0
 875 00f2 0723     		movs	r3, #7
 876 00f4 FB60     		str	r3, [r7, #12]
 464:Generated_Source\PSoC4/CyLFClk.c ****         {
 877              		.loc 2 464 0
 878 00f6 01E0     		b	.L58
 879              	.L44:
 528:Generated_Source\PSoC4/CyLFClk.c ****             }
 529:Generated_Source\PSoC4/CyLFClk.c ****         }
 530:Generated_Source\PSoC4/CyLFClk.c ****     }
 531:Generated_Source\PSoC4/CyLFClk.c ****     else
 532:Generated_Source\PSoC4/CyLFClk.c ****     {
 533:Generated_Source\PSoC4/CyLFClk.c ****         returnStatus = CYRET_INVALID_STATE;
 880              		.loc 2 533 0
 881 00f8 1123     		movs	r3, #17
 882 00fa FB60     		str	r3, [r7, #12]
 883              	.L58:
 534:Generated_Source\PSoC4/CyLFClk.c ****     }
 535:Generated_Source\PSoC4/CyLFClk.c **** 
 536:Generated_Source\PSoC4/CyLFClk.c ****     return (returnStatus);
 884              		.loc 2 536 0
 885 00fc FB68     		ldr	r3, [r7, #12]
 537:Generated_Source\PSoC4/CyLFClk.c **** }
 886              		.loc 2 537 0
 887 00fe 1800     		movs	r0, r3
 888 0100 BD46     		mov	sp, r7
 889 0102 06B0     		add	sp, sp, #24
 890              		@ sp needed
 891 0104 80BD     		pop	{r7, pc}
 892              	.L62:
 893 0106 C046     		.align	2
 894              	.L61:
 895 0108 10010B40 		.word	1074462992
 896 010c 3F3F0000 		.word	16191
 897 0110 08000340 		.word	1073938440
 898 0114 0A0B0000 		.word	2826
 899 0118 00000000 		.word	cydelayFreqHz
 900 011c 18000340 		.word	1073938456
 901 0120 20000000 		.word	trimRunningStatus.4889
 902              		.cfi_endproc
 903              	.LFE8:
 904              		.size	CySysClkIloTrim, .-CySysClkIloTrim
 905              		.global	__aeabi_idiv
 906              		.section	.text.CySysClkIloUpdateTrimReg,"ax",%progbits
ARM GAS  C:\Users\ELEASO~1\AppData\Local\Temp\ccqlvzPP.s 			page 39


 907              		.align	2
 908              		.global	CySysClkIloUpdateTrimReg
 909              		.code	16
 910              		.thumb_func
 911              		.type	CySysClkIloUpdateTrimReg, %function
 912              	CySysClkIloUpdateTrimReg:
 913              	.LFB9:
 538:Generated_Source\PSoC4/CyLFClk.c **** 
 539:Generated_Source\PSoC4/CyLFClk.c **** 
 540:Generated_Source\PSoC4/CyLFClk.c **** /********************************************************************************
 541:Generated_Source\PSoC4/CyLFClk.c **** * Function Name: CySysClkIloUpdateTrimReg
 542:Generated_Source\PSoC4/CyLFClk.c **** *********************************************************************************
 543:Generated_Source\PSoC4/CyLFClk.c **** *
 544:Generated_Source\PSoC4/CyLFClk.c **** * \internal
 545:Generated_Source\PSoC4/CyLFClk.c **** * Function calculates ILO accuracy and check is error range is higher than 
 546:Generated_Source\PSoC4/CyLFClk.c **** * +/- 10%. If Measured frequency is higher than +/- 10% function updates 
 547:Generated_Source\PSoC4/CyLFClk.c **** * ILO Trim register.
 548:Generated_Source\PSoC4/CyLFClk.c **** *
 549:Generated_Source\PSoC4/CyLFClk.c **** * \param
 550:Generated_Source\PSoC4/CyLFClk.c **** * iloAccuracyInPPT Pointer to an integer in which the trimmed ILO 
 551:Generated_Source\PSoC4/CyLFClk.c **** * accuracy will be returned. The value returned in this pointer is not valid 
 552:Generated_Source\PSoC4/CyLFClk.c **** * until the function returns CYRET_SUCCESS. If ILO frequency error is lower 
 553:Generated_Source\PSoC4/CyLFClk.c **** * than +/- 10% then the value returned in this pointer will be updated.
 554:Generated_Source\PSoC4/CyLFClk.c **** *
 555:Generated_Source\PSoC4/CyLFClk.c **** * \return CYRET_SUCCESS - Indicates that ILO frequency error is lower than 
 556:Generated_Source\PSoC4/CyLFClk.c **** * +/- 10% and no actions are required.
 557:Generated_Source\PSoC4/CyLFClk.c **** *
 558:Generated_Source\PSoC4/CyLFClk.c **** * \return  CYRET_STARTED - Indicates that ILO frequency error is higher than 
 559:Generated_Source\PSoC4/CyLFClk.c **** * +/- 10% and ILO Trim register was updated.
 560:Generated_Source\PSoC4/CyLFClk.c **** *
 561:Generated_Source\PSoC4/CyLFClk.c **** * \return CYRET_INVALID_STATE - Indicates trimming was unsuccessful.
 562:Generated_Source\PSoC4/CyLFClk.c **** *
 563:Generated_Source\PSoC4/CyLFClk.c **** * Post #1 - To obtain 10% ILO accuracy the calculated accuracy should be equal 
 564:Generated_Source\PSoC4/CyLFClk.c **** * CY_SYS_CLK_ERROR_RANGE = 5.6%. Error value should take to account IMO error of 
 565:Generated_Source\PSoC4/CyLFClk.c **** * +/-2% (+/-0.64kHz), trim step of 2.36kHz (+/-1.18kHz) and error while ILO 
 566:Generated_Source\PSoC4/CyLFClk.c **** * frequency measuring.
 567:Generated_Source\PSoC4/CyLFClk.c **** *
 568:Generated_Source\PSoC4/CyLFClk.c **** * \endinternal
 569:Generated_Source\PSoC4/CyLFClk.c **** *
 570:Generated_Source\PSoC4/CyLFClk.c **** **********************************************************************************/
 571:Generated_Source\PSoC4/CyLFClk.c **** cystatus CySysClkIloUpdateTrimReg(int32* iloAccuracyInPPT)
 572:Generated_Source\PSoC4/CyLFClk.c **** {
 914              		.loc 2 572 0
 915              		.cfi_startproc
 916              		@ args = 0, pretend = 0, frame = 32
 917              		@ frame_needed = 1, uses_anonymous_args = 0
 918 0000 80B5     		push	{r7, lr}
 919              		.cfi_def_cfa_offset 8
 920              		.cfi_offset 7, -8
 921              		.cfi_offset 14, -4
 922 0002 88B0     		sub	sp, sp, #32
 923              		.cfi_def_cfa_offset 40
 924 0004 00AF     		add	r7, sp, #0
 925              		.cfi_def_cfa_register 7
 926 0006 7860     		str	r0, [r7, #4]
 573:Generated_Source\PSoC4/CyLFClk.c ****     uint32 measuredIloFreq;
 574:Generated_Source\PSoC4/CyLFClk.c ****     uint32 currentIloTrimValue;
ARM GAS  C:\Users\ELEASO~1\AppData\Local\Temp\ccqlvzPP.s 			page 40


 575:Generated_Source\PSoC4/CyLFClk.c ****     int32 iloAccuracyValue;
 576:Generated_Source\PSoC4/CyLFClk.c ****     int32 trimStep;
 577:Generated_Source\PSoC4/CyLFClk.c ****     cystatus errorRangeStatus;
 578:Generated_Source\PSoC4/CyLFClk.c **** 
 579:Generated_Source\PSoC4/CyLFClk.c ****     if(0u != CY_SYS_CNT_REG2_REG)
 927              		.loc 2 579 0
 928 0008 374B     		ldr	r3, .L73
 929 000a 1B68     		ldr	r3, [r3]
 930 000c 002B     		cmp	r3, #0
 931 000e 64D0     		beq	.L64
 580:Generated_Source\PSoC4/CyLFClk.c ****     {
 581:Generated_Source\PSoC4/CyLFClk.c ****         measuredIloFreq = (CY_SYS_CNT_REG2_REG * cydelayFreqHz) / (cydelayFreqHz >> CY_SYS_CLK_SYS_
 932              		.loc 2 581 0
 933 0010 354B     		ldr	r3, .L73
 934 0012 1A68     		ldr	r2, [r3]
 935 0014 354B     		ldr	r3, .L73+4
 936 0016 1B68     		ldr	r3, [r3]
 937 0018 5A43     		muls	r2, r3
 938 001a 344B     		ldr	r3, .L73+4
 939 001c 1B68     		ldr	r3, [r3]
 940 001e 9B0A     		lsrs	r3, r3, #10
 941 0020 1900     		movs	r1, r3
 942 0022 1000     		movs	r0, r2
 943 0024 FFF7FEFF 		bl	__aeabi_uidiv
 944 0028 0300     		movs	r3, r0
 945 002a 7B61     		str	r3, [r7, #20]
 582:Generated_Source\PSoC4/CyLFClk.c **** 
 583:Generated_Source\PSoC4/CyLFClk.c ****         /* Calculate value of error in PPT according to formula - 
 584:Generated_Source\PSoC4/CyLFClk.c ****         *       ((measuredIlofrequency - iloDesired frequency) * 1000 / iloDesired frequency) */
 585:Generated_Source\PSoC4/CyLFClk.c ****         iloAccuracyValue = (((int32) measuredIloFreq - (int32) CY_SYS_CLK_ILO_DESIRED_FREQ_HZ) * \
 946              		.loc 2 585 0
 947 002c 7B69     		ldr	r3, [r7, #20]
 948 002e 304A     		ldr	r2, .L73+8
 949 0030 9446     		mov	ip, r2
 950 0032 6344     		add	r3, r3, ip
 951 0034 FA22     		movs	r2, #250
 952 0036 9200     		lsls	r2, r2, #2
 953 0038 5A43     		muls	r2, r3
 954 003a FA23     		movs	r3, #250
 955 003c D901     		lsls	r1, r3, #7
 956 003e 1000     		movs	r0, r2
 957 0040 FFF7FEFF 		bl	__aeabi_idiv
 958 0044 0300     		movs	r3, r0
 959 0046 3B61     		str	r3, [r7, #16]
 586:Generated_Source\PSoC4/CyLFClk.c ****                             ((int32) CY_SYS_CLK_PERTHOUSAND)) / ((int32) CY_SYS_CLK_ILO_DESIRED_FRE
 587:Generated_Source\PSoC4/CyLFClk.c **** 
 588:Generated_Source\PSoC4/CyLFClk.c ****         /* Check if ILO accuracy is more than +/- CY_SYS_CLK_ERROR_RANGE. See post #1 of API descri
 589:Generated_Source\PSoC4/CyLFClk.c ****         if(CY_SYS_CLK_ERROR_RANGE < (uint32) (CY_SYS_CLK_ABS_MACRO(iloAccuracyValue)))
 960              		.loc 2 589 0
 961 0048 3B69     		ldr	r3, [r7, #16]
 962 004a DA17     		asrs	r2, r3, #31
 963 004c 9B18     		adds	r3, r3, r2
 964 004e 5340     		eors	r3, r2
 965 0050 382B     		cmp	r3, #56
 966 0052 3CD9     		bls	.L65
 590:Generated_Source\PSoC4/CyLFClk.c ****         {
 591:Generated_Source\PSoC4/CyLFClk.c ****             if (0 < iloAccuracyValue)
ARM GAS  C:\Users\ELEASO~1\AppData\Local\Temp\ccqlvzPP.s 			page 41


 967              		.loc 2 591 0
 968 0054 3B69     		ldr	r3, [r7, #16]
 969 0056 002B     		cmp	r3, #0
 970 0058 0DDD     		ble	.L66
 592:Generated_Source\PSoC4/CyLFClk.c ****             {
 593:Generated_Source\PSoC4/CyLFClk.c ****                 trimStep = (int32) (((iloAccuracyValue * (int32) CY_SYS_CLK_ERROR_COEF) + 
 971              		.loc 2 593 0
 972 005a 3A69     		ldr	r2, [r7, #16]
 973 005c 1300     		movs	r3, r2
 974 005e 9B00     		lsls	r3, r3, #2
 975 0060 9B18     		adds	r3, r3, r2
 976 0062 5B00     		lsls	r3, r3, #1
 977 0064 7133     		adds	r3, r3, #113
 978 0066 FF33     		adds	r3, r3, #255
 979 0068 2249     		ldr	r1, .L73+12
 980 006a 1800     		movs	r0, r3
 981 006c FFF7FEFF 		bl	__aeabi_idiv
 982 0070 0300     		movs	r3, r0
 983 0072 FB61     		str	r3, [r7, #28]
 984 0074 0CE0     		b	.L67
 985              	.L66:
 594:Generated_Source\PSoC4/CyLFClk.c ****                 CY_SYS_CLK_HALF_OF_STEP) / CY_SYS_CLK_ERROR_STEP);
 595:Generated_Source\PSoC4/CyLFClk.c ****             }
 596:Generated_Source\PSoC4/CyLFClk.c ****             else
 597:Generated_Source\PSoC4/CyLFClk.c ****             {
 598:Generated_Source\PSoC4/CyLFClk.c ****                 trimStep = (int32) (((iloAccuracyValue * (int32) CY_SYS_CLK_ERROR_COEF) - 
 986              		.loc 2 598 0
 987 0076 3A69     		ldr	r2, [r7, #16]
 988 0078 1300     		movs	r3, r2
 989 007a 9B00     		lsls	r3, r3, #2
 990 007c 9B18     		adds	r3, r3, r2
 991 007e 5B00     		lsls	r3, r3, #1
 992 0080 713B     		subs	r3, r3, #113
 993 0082 FF3B     		subs	r3, r3, #255
 994 0084 1B49     		ldr	r1, .L73+12
 995 0086 1800     		movs	r0, r3
 996 0088 FFF7FEFF 		bl	__aeabi_idiv
 997 008c 0300     		movs	r3, r0
 998 008e FB61     		str	r3, [r7, #28]
 999              	.L67:
 599:Generated_Source\PSoC4/CyLFClk.c ****                 CY_SYS_CLK_HALF_OF_STEP) / CY_SYS_CLK_ERROR_STEP);
 600:Generated_Source\PSoC4/CyLFClk.c ****             }
 601:Generated_Source\PSoC4/CyLFClk.c ****             currentIloTrimValue = (CY_SYS_CLK_ILO_TRIM_REG & CY_SYS_CLK_ILO_TRIM_MASK);
 1000              		.loc 2 601 0
 1001 0090 194B     		ldr	r3, .L73+16
 1002 0092 1B68     		ldr	r3, [r3]
 1003 0094 0F22     		movs	r2, #15
 1004 0096 1340     		ands	r3, r2
 1005 0098 FB60     		str	r3, [r7, #12]
 602:Generated_Source\PSoC4/CyLFClk.c ****             trimStep = (int32) currentIloTrimValue - trimStep;
 1006              		.loc 2 602 0
 1007 009a FA68     		ldr	r2, [r7, #12]
 1008 009c FB69     		ldr	r3, [r7, #28]
 1009 009e D31A     		subs	r3, r2, r3
 1010 00a0 FB61     		str	r3, [r7, #28]
 603:Generated_Source\PSoC4/CyLFClk.c **** 
 604:Generated_Source\PSoC4/CyLFClk.c ****             if(trimStep > CY_SYS_CLK_FOURBITS_MAX)
ARM GAS  C:\Users\ELEASO~1\AppData\Local\Temp\ccqlvzPP.s 			page 42


 1011              		.loc 2 604 0
 1012 00a2 FB69     		ldr	r3, [r7, #28]
 1013 00a4 0F2B     		cmp	r3, #15
 1014 00a6 01DD     		ble	.L68
 605:Generated_Source\PSoC4/CyLFClk.c ****             {
 606:Generated_Source\PSoC4/CyLFClk.c ****                 trimStep = CY_SYS_CLK_FOURBITS_MAX;
 1015              		.loc 2 606 0
 1016 00a8 0F23     		movs	r3, #15
 1017 00aa FB61     		str	r3, [r7, #28]
 1018              	.L68:
 607:Generated_Source\PSoC4/CyLFClk.c ****             }
 608:Generated_Source\PSoC4/CyLFClk.c ****             if(trimStep < 0)
 1019              		.loc 2 608 0
 1020 00ac FB69     		ldr	r3, [r7, #28]
 1021 00ae 002B     		cmp	r3, #0
 1022 00b0 01DA     		bge	.L69
 609:Generated_Source\PSoC4/CyLFClk.c ****             {
 610:Generated_Source\PSoC4/CyLFClk.c ****                 trimStep = 0;
 1023              		.loc 2 610 0
 1024 00b2 0023     		movs	r3, #0
 1025 00b4 FB61     		str	r3, [r7, #28]
 1026              	.L69:
 611:Generated_Source\PSoC4/CyLFClk.c ****             }
 612:Generated_Source\PSoC4/CyLFClk.c ****             CY_SYS_CLK_ILO_TRIM_REG = (CY_SYS_CLK_ILO_TRIM_REG & (uint32)(~CY_SYS_CLK_ILO_TRIM_MASK
 1027              		.loc 2 612 0
 1028 00b6 104B     		ldr	r3, .L73+16
 1029 00b8 0F4A     		ldr	r2, .L73+16
 1030 00ba 1268     		ldr	r2, [r2]
 1031 00bc 0F21     		movs	r1, #15
 1032 00be 8A43     		bics	r2, r1
 1033 00c0 1100     		movs	r1, r2
 613:Generated_Source\PSoC4/CyLFClk.c ****                                                                  ((uint32) trimStep);
 1034              		.loc 2 613 0
 1035 00c2 FA69     		ldr	r2, [r7, #28]
 612:Generated_Source\PSoC4/CyLFClk.c ****                                                                  ((uint32) trimStep);
 1036              		.loc 2 612 0
 1037 00c4 0A43     		orrs	r2, r1
 1038 00c6 1A60     		str	r2, [r3]
 614:Generated_Source\PSoC4/CyLFClk.c ****             errorRangeStatus = CYRET_STARTED;
 1039              		.loc 2 614 0
 1040 00c8 0723     		movs	r3, #7
 1041 00ca BB61     		str	r3, [r7, #24]
 1042 00cc 07E0     		b	.L71
 1043              	.L65:
 615:Generated_Source\PSoC4/CyLFClk.c ****         } /* Else return success because error is in +/- 10% range*/
 616:Generated_Source\PSoC4/CyLFClk.c ****         else
 617:Generated_Source\PSoC4/CyLFClk.c ****         {
 618:Generated_Source\PSoC4/CyLFClk.c ****             /* Write trimmed ILO accuracy through pointer. */
 619:Generated_Source\PSoC4/CyLFClk.c ****             *iloAccuracyInPPT = iloAccuracyValue;
 1044              		.loc 2 619 0
 1045 00ce 7B68     		ldr	r3, [r7, #4]
 1046 00d0 3A69     		ldr	r2, [r7, #16]
 1047 00d2 1A60     		str	r2, [r3]
 620:Generated_Source\PSoC4/CyLFClk.c ****             errorRangeStatus = CYRET_SUCCESS;
 1048              		.loc 2 620 0
 1049 00d4 0023     		movs	r3, #0
 1050 00d6 BB61     		str	r3, [r7, #24]
ARM GAS  C:\Users\ELEASO~1\AppData\Local\Temp\ccqlvzPP.s 			page 43


 1051 00d8 01E0     		b	.L71
 1052              	.L64:
 621:Generated_Source\PSoC4/CyLFClk.c ****         }
 622:Generated_Source\PSoC4/CyLFClk.c ****     }
 623:Generated_Source\PSoC4/CyLFClk.c ****     else
 624:Generated_Source\PSoC4/CyLFClk.c ****     {
 625:Generated_Source\PSoC4/CyLFClk.c ****         errorRangeStatus = CYRET_INVALID_STATE;
 1053              		.loc 2 625 0
 1054 00da 1123     		movs	r3, #17
 1055 00dc BB61     		str	r3, [r7, #24]
 1056              	.L71:
 626:Generated_Source\PSoC4/CyLFClk.c ****     }
 627:Generated_Source\PSoC4/CyLFClk.c **** return (errorRangeStatus);
 1057              		.loc 2 627 0
 1058 00de BB69     		ldr	r3, [r7, #24]
 628:Generated_Source\PSoC4/CyLFClk.c **** }
 1059              		.loc 2 628 0
 1060 00e0 1800     		movs	r0, r3
 1061 00e2 BD46     		mov	sp, r7
 1062 00e4 08B0     		add	sp, sp, #32
 1063              		@ sp needed
 1064 00e6 80BD     		pop	{r7, pc}
 1065              	.L74:
 1066              		.align	2
 1067              	.L73:
 1068 00e8 1C000340 		.word	1073938460
 1069 00ec 00000000 		.word	cydelayFreqHz
 1070 00f0 0083FFFF 		.word	-32000
 1071 00f4 E1020000 		.word	737
 1072 00f8 24FF0B40 		.word	1074528036
 1073              		.cfi_endproc
 1074              	.LFE9:
 1075              		.size	CySysClkIloUpdateTrimReg, .-CySysClkIloUpdateTrimReg
 1076              		.section	.text.CySysClkIloRestoreFactoryTrim,"ax",%progbits
 1077              		.align	2
 1078              		.global	CySysClkIloRestoreFactoryTrim
 1079              		.code	16
 1080              		.thumb_func
 1081              		.type	CySysClkIloRestoreFactoryTrim, %function
 1082              	CySysClkIloRestoreFactoryTrim:
 1083              	.LFB10:
 629:Generated_Source\PSoC4/CyLFClk.c **** 
 630:Generated_Source\PSoC4/CyLFClk.c **** 
 631:Generated_Source\PSoC4/CyLFClk.c **** /*******************************************************************************
 632:Generated_Source\PSoC4/CyLFClk.c **** * Function Name: CySysClkIloRestoreFactoryTrim
 633:Generated_Source\PSoC4/CyLFClk.c **** ****************************************************************************//**
 634:Generated_Source\PSoC4/CyLFClk.c **** * \brief
 635:Generated_Source\PSoC4/CyLFClk.c **** * Restores the ILO Trim Register to factory value.
 636:Generated_Source\PSoC4/CyLFClk.c **** *
 637:Generated_Source\PSoC4/CyLFClk.c **** * The CySysClkIloStartMeasurement() API should be called prior to 
 638:Generated_Source\PSoC4/CyLFClk.c **** * calling this API. Otherwise CYRET_UNKNOWN will be returned.
 639:Generated_Source\PSoC4/CyLFClk.c **** *
 640:Generated_Source\PSoC4/CyLFClk.c **** * Available for all PSoC 4 devices except for PSoC 4000 / PSoC 4100 / PSoC 4200 
 641:Generated_Source\PSoC4/CyLFClk.c **** * / PSoC 4000S / PSoC 4100S / PSoC Analog Coprocessor devices.
 642:Generated_Source\PSoC4/CyLFClk.c **** *
 643:Generated_Source\PSoC4/CyLFClk.c **** * \return CYRET_SUCCESS - Operation was successful. 
 644:Generated_Source\PSoC4/CyLFClk.c **** * \return CYRET_UNKNOWN - CySysClkIloStartMeasurement() was not called 
ARM GAS  C:\Users\ELEASO~1\AppData\Local\Temp\ccqlvzPP.s 			page 44


 645:Generated_Source\PSoC4/CyLFClk.c **** * before this API. Hence the trim value cannot be updated.
 646:Generated_Source\PSoC4/CyLFClk.c **** *
 647:Generated_Source\PSoC4/CyLFClk.c **** ******************************************************************************/
 648:Generated_Source\PSoC4/CyLFClk.c **** cystatus CySysClkIloRestoreFactoryTrim(void)
 649:Generated_Source\PSoC4/CyLFClk.c **** {
 1084              		.loc 2 649 0
 1085              		.cfi_startproc
 1086              		@ args = 0, pretend = 0, frame = 8
 1087              		@ frame_needed = 1, uses_anonymous_args = 0
 1088 0000 80B5     		push	{r7, lr}
 1089              		.cfi_def_cfa_offset 8
 1090              		.cfi_offset 7, -8
 1091              		.cfi_offset 14, -4
 1092 0002 82B0     		sub	sp, sp, #8
 1093              		.cfi_def_cfa_offset 16
 1094 0004 00AF     		add	r7, sp, #0
 1095              		.cfi_def_cfa_register 7
 650:Generated_Source\PSoC4/CyLFClk.c ****     cystatus returnStatus = CYRET_SUCCESS;
 1096              		.loc 2 650 0
 1097 0006 0023     		movs	r3, #0
 1098 0008 7B60     		str	r3, [r7, #4]
 651:Generated_Source\PSoC4/CyLFClk.c **** 
 652:Generated_Source\PSoC4/CyLFClk.c ****     /* Check was defaultIloTrimRegValue modified in CySysClkIloStartMeasurement */
 653:Generated_Source\PSoC4/CyLFClk.c ****     if(CY_SYS_CLK_ILO_TRIM_DEFAULT_VALUE != defaultIloTrimRegValue)
 1099              		.loc 2 653 0
 1100 000a 0E4B     		ldr	r3, .L79
 1101 000c 1B88     		ldrh	r3, [r3]
 1102 000e 9BB2     		uxth	r3, r3
 1103 0010 F02B     		cmp	r3, #240
 1104 0012 0ED0     		beq	.L76
 654:Generated_Source\PSoC4/CyLFClk.c ****         {
 655:Generated_Source\PSoC4/CyLFClk.c ****             CY_SYS_CLK_ILO_TRIM_REG = ((CY_SYS_CLK_ILO_TRIM_REG & (uint32)(~CY_SYS_CLK_ILO_TRIM_MAS
 1105              		.loc 2 655 0
 1106 0014 0C4B     		ldr	r3, .L79+4
 1107 0016 0C4A     		ldr	r2, .L79+4
 1108 0018 1268     		ldr	r2, [r2]
 1109 001a 0F21     		movs	r1, #15
 1110 001c 8A43     		bics	r2, r1
 1111 001e 1100     		movs	r1, r2
 656:Generated_Source\PSoC4/CyLFClk.c ****                                        (defaultIloTrimRegValue & CY_SYS_CLK_ILO_TRIM_MASK));
 1112              		.loc 2 656 0
 1113 0020 084A     		ldr	r2, .L79
 1114 0022 1288     		ldrh	r2, [r2]
 1115 0024 92B2     		uxth	r2, r2
 1116 0026 1000     		movs	r0, r2
 1117 0028 0F22     		movs	r2, #15
 1118 002a 0240     		ands	r2, r0
 655:Generated_Source\PSoC4/CyLFClk.c ****                                        (defaultIloTrimRegValue & CY_SYS_CLK_ILO_TRIM_MASK));
 1119              		.loc 2 655 0
 1120 002c 0A43     		orrs	r2, r1
 1121 002e 1A60     		str	r2, [r3]
 1122 0030 02E0     		b	.L77
 1123              	.L76:
 657:Generated_Source\PSoC4/CyLFClk.c ****         }
 658:Generated_Source\PSoC4/CyLFClk.c ****         else
 659:Generated_Source\PSoC4/CyLFClk.c ****         {
 660:Generated_Source\PSoC4/CyLFClk.c ****             returnStatus = CYRET_UNKNOWN;
ARM GAS  C:\Users\ELEASO~1\AppData\Local\Temp\ccqlvzPP.s 			page 45


 1124              		.loc 2 660 0
 1125 0032 0123     		movs	r3, #1
 1126 0034 5B42     		rsbs	r3, r3, #0
 1127 0036 7B60     		str	r3, [r7, #4]
 1128              	.L77:
 661:Generated_Source\PSoC4/CyLFClk.c ****         }
 662:Generated_Source\PSoC4/CyLFClk.c **** 
 663:Generated_Source\PSoC4/CyLFClk.c ****         return (returnStatus);
 1129              		.loc 2 663 0
 1130 0038 7B68     		ldr	r3, [r7, #4]
 664:Generated_Source\PSoC4/CyLFClk.c **** }
 1131              		.loc 2 664 0
 1132 003a 1800     		movs	r0, r3
 1133 003c BD46     		mov	sp, r7
 1134 003e 02B0     		add	sp, sp, #8
 1135              		@ sp needed
 1136 0040 80BD     		pop	{r7, pc}
 1137              	.L80:
 1138 0042 C046     		.align	2
 1139              	.L79:
 1140 0044 00000000 		.word	defaultIloTrimRegValue
 1141 0048 24FF0B40 		.word	1074528036
 1142              		.cfi_endproc
 1143              	.LFE10:
 1144              		.size	CySysClkIloRestoreFactoryTrim, .-CySysClkIloRestoreFactoryTrim
 1145              		.section	.text.CySysClkGetLfclkSource,"ax",%progbits
 1146              		.align	2
 1147              		.code	16
 1148              		.thumb_func
 1149              		.type	CySysClkGetLfclkSource, %function
 1150              	CySysClkGetLfclkSource:
 1151              	.LFB11:
 665:Generated_Source\PSoC4/CyLFClk.c **** #endif /* (CY_IP_SRSSV2 && (!CY_IP_CPUSS)) */
 666:Generated_Source\PSoC4/CyLFClk.c **** 
 667:Generated_Source\PSoC4/CyLFClk.c **** 
 668:Generated_Source\PSoC4/CyLFClk.c **** #if (CY_IP_WCO && CY_IP_SRSSV2)
 669:Generated_Source\PSoC4/CyLFClk.c ****     /*******************************************************************************
 670:Generated_Source\PSoC4/CyLFClk.c ****     * Function Name: CySysClkGetLfclkSource
 671:Generated_Source\PSoC4/CyLFClk.c ****     ********************************************************************************
 672:Generated_Source\PSoC4/CyLFClk.c ****     *
 673:Generated_Source\PSoC4/CyLFClk.c ****     * \internal
 674:Generated_Source\PSoC4/CyLFClk.c ****     *  Gets the clock source for the LFCLK clock.
 675:Generated_Source\PSoC4/CyLFClk.c ****     *  The function is applicable only for PSoC 4100 BLE / PSoC 4200 BLE / 
 676:Generated_Source\PSoC4/CyLFClk.c ****     *  PSoC 4100M / PSoC 4200M / PSoC 4200L.
 677:Generated_Source\PSoC4/CyLFClk.c ****     *
 678:Generated_Source\PSoC4/CyLFClk.c ****     * \return The LFCLK source:
 679:Generated_Source\PSoC4/CyLFClk.c ****     * CY_SYS_CLK_LFCLK_SRC_ILO Internal Low Frequency (32 kHz) Oscillator (ILO)
 680:Generated_Source\PSoC4/CyLFClk.c ****     * CY_SYS_CLK_LFCLK_SRC_WCO Low Frequency Watch Crystal Oscillator (WCO)
 681:Generated_Source\PSoC4/CyLFClk.c ****     *
 682:Generated_Source\PSoC4/CyLFClk.c ****     * \endinternal
 683:Generated_Source\PSoC4/CyLFClk.c ****     *
 684:Generated_Source\PSoC4/CyLFClk.c ****     *******************************************************************************/
 685:Generated_Source\PSoC4/CyLFClk.c ****     static uint32 CySysClkGetLfclkSource(void)
 686:Generated_Source\PSoC4/CyLFClk.c ****     {
 1152              		.loc 2 686 0
 1153              		.cfi_startproc
 1154              		@ args = 0, pretend = 0, frame = 8
ARM GAS  C:\Users\ELEASO~1\AppData\Local\Temp\ccqlvzPP.s 			page 46


 1155              		@ frame_needed = 1, uses_anonymous_args = 0
 1156 0000 80B5     		push	{r7, lr}
 1157              		.cfi_def_cfa_offset 8
 1158              		.cfi_offset 7, -8
 1159              		.cfi_offset 14, -4
 1160 0002 82B0     		sub	sp, sp, #8
 1161              		.cfi_def_cfa_offset 16
 1162 0004 00AF     		add	r7, sp, #0
 1163              		.cfi_def_cfa_register 7
 687:Generated_Source\PSoC4/CyLFClk.c ****         uint32 lfclkSource;
 688:Generated_Source\PSoC4/CyLFClk.c ****         lfclkSource = CY_SYS_WDT_CONFIG_REG & CY_SYS_CLK_LFCLK_SEL_MASK;
 1164              		.loc 2 688 0
 1165 0006 054B     		ldr	r3, .L83
 1166 0008 1B68     		ldr	r3, [r3]
 1167 000a 9B0F     		lsrs	r3, r3, #30
 1168 000c 9B07     		lsls	r3, r3, #30
 1169 000e 7B60     		str	r3, [r7, #4]
 689:Generated_Source\PSoC4/CyLFClk.c ****         return (lfclkSource);
 1170              		.loc 2 689 0
 1171 0010 7B68     		ldr	r3, [r7, #4]
 690:Generated_Source\PSoC4/CyLFClk.c ****     }
 1172              		.loc 2 690 0
 1173 0012 1800     		movs	r0, r3
 1174 0014 BD46     		mov	sp, r7
 1175 0016 02B0     		add	sp, sp, #8
 1176              		@ sp needed
 1177 0018 80BD     		pop	{r7, pc}
 1178              	.L84:
 1179 001a C046     		.align	2
 1180              	.L83:
 1181 001c 0C020B40 		.word	1074463244
 1182              		.cfi_endproc
 1183              	.LFE11:
 1184              		.size	CySysClkGetLfclkSource, .-CySysClkGetLfclkSource
 1185              		.section	.text.CySysClkSetLfclkSource,"ax",%progbits
 1186              		.align	2
 1187              		.global	CySysClkSetLfclkSource
 1188              		.code	16
 1189              		.thumb_func
 1190              		.type	CySysClkSetLfclkSource, %function
 1191              	CySysClkSetLfclkSource:
 1192              	.LFB12:
 691:Generated_Source\PSoC4/CyLFClk.c **** 
 692:Generated_Source\PSoC4/CyLFClk.c **** 
 693:Generated_Source\PSoC4/CyLFClk.c ****     /*******************************************************************************
 694:Generated_Source\PSoC4/CyLFClk.c ****     * Function Name: CySysClkSetLfclkSource
 695:Generated_Source\PSoC4/CyLFClk.c ****     ****************************************************************************//**
 696:Generated_Source\PSoC4/CyLFClk.c ****     * \brief
 697:Generated_Source\PSoC4/CyLFClk.c ****     *  Sets the clock source for the LFCLK clock.
 698:Generated_Source\PSoC4/CyLFClk.c ****     *
 699:Generated_Source\PSoC4/CyLFClk.c ****     * The switch between LFCLK sources must be done between the positive edges of
 700:Generated_Source\PSoC4/CyLFClk.c ****     * LFCLK, because the glitch risk is around the LFCLK positive edge. To ensure
 701:Generated_Source\PSoC4/CyLFClk.c ****     * that the switch can be done safely, the WDT counter value is read until it
 702:Generated_Source\PSoC4/CyLFClk.c ****     * changes.
 703:Generated_Source\PSoC4/CyLFClk.c ****     *
 704:Generated_Source\PSoC4/CyLFClk.c ****     * That means that the positive edge just finished and the switch is performed.
 705:Generated_Source\PSoC4/CyLFClk.c ****     * The enabled WDT counter is used for that purpose. If no counters are enabled,
ARM GAS  C:\Users\ELEASO~1\AppData\Local\Temp\ccqlvzPP.s 			page 47


 706:Generated_Source\PSoC4/CyLFClk.c ****     * counter 0 is enabled. And after the LFCLK source is switched, counter 0
 707:Generated_Source\PSoC4/CyLFClk.c ****     * configuration is restored.
 708:Generated_Source\PSoC4/CyLFClk.c ****     *
 709:Generated_Source\PSoC4/CyLFClk.c ****     *  The function is applicable only for devices with more than one source for 
 710:Generated_Source\PSoC4/CyLFClk.c ****     * LFCLK - PSoC 4100 BLE / PSoC 4200 BLE / PRoC BLE / PSoC 4100M / PSoC 4200M / 
 711:Generated_Source\PSoC4/CyLFClk.c ****     * PSoC 4200L.
 712:Generated_Source\PSoC4/CyLFClk.c ****     *
 713:Generated_Source\PSoC4/CyLFClk.c ****     * \note For PSoC 4000S / PSoC 4100S / PSoC Analog Coprocessor devices LFCLK can
 714:Generated_Source\PSoC4/CyLFClk.c ****     * only be sourced from ILO even though WCO is available.
 715:Generated_Source\PSoC4/CyLFClk.c ****     *
 716:Generated_Source\PSoC4/CyLFClk.c ****     * \param
 717:Generated_Source\PSoC4/CyLFClk.c ****     * source
 718:Generated_Source\PSoC4/CyLFClk.c ****     * CY_SYS_CLK_LFCLK_SRC_ILO - Internal Low Frequency (32 kHz) 
 719:Generated_Source\PSoC4/CyLFClk.c ****     * Oscillator (ILO).<br>
 720:Generated_Source\PSoC4/CyLFClk.c ****     * CY_SYS_CLK_LFCLK_SRC_WCO - Low Frequency Watch Crystal Oscillator (WCO).
 721:Generated_Source\PSoC4/CyLFClk.c ****     *
 722:Generated_Source\PSoC4/CyLFClk.c ****     * \details
 723:Generated_Source\PSoC4/CyLFClk.c ****     * This function has no effect if WDT is locked (CySysWdtLock() is called). 
 724:Generated_Source\PSoC4/CyLFClk.c ****     * Call CySysWdtUnlock() to unlock WDT.
 725:Generated_Source\PSoC4/CyLFClk.c ****     *
 726:Generated_Source\PSoC4/CyLFClk.c ****     * Both the current source and the new source must be running and stable before
 727:Generated_Source\PSoC4/CyLFClk.c ****     * calling this function.
 728:Generated_Source\PSoC4/CyLFClk.c ****     *
 729:Generated_Source\PSoC4/CyLFClk.c ****     * Changing the LFCLK clock source may change the LFCLK clock frequency and
 730:Generated_Source\PSoC4/CyLFClk.c ****     * affect the functionality that uses this clock. For example, watchdog timer
 731:Generated_Source\PSoC4/CyLFClk.c ****     * "uses this clock" or "this clock uses" (WDT) is clocked by LFCLK.
 732:Generated_Source\PSoC4/CyLFClk.c ****     *
 733:Generated_Source\PSoC4/CyLFClk.c ****     *******************************************************************************/
 734:Generated_Source\PSoC4/CyLFClk.c ****     void CySysClkSetLfclkSource(uint32 source)
 735:Generated_Source\PSoC4/CyLFClk.c ****     {
 1193              		.loc 2 735 0
 1194              		.cfi_startproc
 1195              		@ args = 0, pretend = 0, frame = 16
 1196              		@ frame_needed = 1, uses_anonymous_args = 0
 1197 0000 90B5     		push	{r4, r7, lr}
 1198              		.cfi_def_cfa_offset 12
 1199              		.cfi_offset 4, -12
 1200              		.cfi_offset 7, -8
 1201              		.cfi_offset 14, -4
 1202 0002 85B0     		sub	sp, sp, #20
 1203              		.cfi_def_cfa_offset 32
 1204 0004 00AF     		add	r7, sp, #0
 1205              		.cfi_def_cfa_register 7
 1206 0006 7860     		str	r0, [r7, #4]
 736:Generated_Source\PSoC4/CyLFClk.c ****         uint8  interruptState;
 737:Generated_Source\PSoC4/CyLFClk.c **** 
 738:Generated_Source\PSoC4/CyLFClk.c ****         if (CySysClkGetLfclkSource() != source)
 1207              		.loc 2 738 0
 1208 0008 FFF7FEFF 		bl	CySysClkGetLfclkSource
 1209 000c 0200     		movs	r2, r0
 1210 000e 7B68     		ldr	r3, [r7, #4]
 1211 0010 9A42     		cmp	r2, r3
 1212 0012 19D0     		beq	.L87
 739:Generated_Source\PSoC4/CyLFClk.c ****         {
 740:Generated_Source\PSoC4/CyLFClk.c ****             interruptState = CyEnterCriticalSection();
 1213              		.loc 2 740 0
 1214 0014 0F23     		movs	r3, #15
ARM GAS  C:\Users\ELEASO~1\AppData\Local\Temp\ccqlvzPP.s 			page 48


 1215 0016 FC18     		adds	r4, r7, r3
 1216 0018 FFF7FEFF 		bl	CyEnterCriticalSection
 1217 001c 0300     		movs	r3, r0
 1218 001e 2370     		strb	r3, [r4]
 741:Generated_Source\PSoC4/CyLFClk.c ****             CySysClkLfclkPosedgeCatch();
 1219              		.loc 2 741 0
 1220 0020 FFF7FEFF 		bl	CySysClkLfclkPosedgeCatch
 742:Generated_Source\PSoC4/CyLFClk.c ****             CY_SYS_WDT_CONFIG_REG = (CY_SYS_WDT_CONFIG_REG & (uint32)(~CY_SYS_CLK_LFCLK_SEL_MASK)) 
 1221              		.loc 2 742 0
 1222 0024 0A4B     		ldr	r3, .L88
 1223 0026 0A4A     		ldr	r2, .L88
 1224 0028 1268     		ldr	r2, [r2]
 1225 002a 9200     		lsls	r2, r2, #2
 1226 002c 9108     		lsrs	r1, r2, #2
 743:Generated_Source\PSoC4/CyLFClk.c ****                                     (source & CY_SYS_CLK_LFCLK_SEL_MASK);
 1227              		.loc 2 743 0
 1228 002e 7A68     		ldr	r2, [r7, #4]
 1229 0030 920F     		lsrs	r2, r2, #30
 1230 0032 9207     		lsls	r2, r2, #30
 742:Generated_Source\PSoC4/CyLFClk.c ****             CY_SYS_WDT_CONFIG_REG = (CY_SYS_WDT_CONFIG_REG & (uint32)(~CY_SYS_CLK_LFCLK_SEL_MASK)) 
 1231              		.loc 2 742 0
 1232 0034 0A43     		orrs	r2, r1
 1233 0036 1A60     		str	r2, [r3]
 744:Generated_Source\PSoC4/CyLFClk.c ****             CySysClkLfclkPosedgeRestore();
 1234              		.loc 2 744 0
 1235 0038 FFF7FEFF 		bl	CySysClkLfclkPosedgeRestore
 745:Generated_Source\PSoC4/CyLFClk.c ****             CyExitCriticalSection(interruptState);
 1236              		.loc 2 745 0
 1237 003c 0F23     		movs	r3, #15
 1238 003e FB18     		adds	r3, r7, r3
 1239 0040 1B78     		ldrb	r3, [r3]
 1240 0042 1800     		movs	r0, r3
 1241 0044 FFF7FEFF 		bl	CyExitCriticalSection
 1242              	.L87:
 746:Generated_Source\PSoC4/CyLFClk.c ****         }
 747:Generated_Source\PSoC4/CyLFClk.c ****     }
 1243              		.loc 2 747 0
 1244 0048 C046     		nop
 1245 004a BD46     		mov	sp, r7
 1246 004c 05B0     		add	sp, sp, #20
 1247              		@ sp needed
 1248 004e 90BD     		pop	{r4, r7, pc}
 1249              	.L89:
 1250              		.align	2
 1251              	.L88:
 1252 0050 0C020B40 		.word	1074463244
 1253              		.cfi_endproc
 1254              	.LFE12:
 1255              		.size	CySysClkSetLfclkSource, .-CySysClkSetLfclkSource
 1256              		.section	.text.CySysClkWcoStart,"ax",%progbits
 1257              		.align	2
 1258              		.global	CySysClkWcoStart
 1259              		.code	16
 1260              		.thumb_func
 1261              		.type	CySysClkWcoStart, %function
 1262              	CySysClkWcoStart:
 1263              	.LFB13:
ARM GAS  C:\Users\ELEASO~1\AppData\Local\Temp\ccqlvzPP.s 			page 49


 748:Generated_Source\PSoC4/CyLFClk.c **** #endif /* (CY_IP_WCO && CY_IP_SRSSV2) */
 749:Generated_Source\PSoC4/CyLFClk.c **** 
 750:Generated_Source\PSoC4/CyLFClk.c **** 
 751:Generated_Source\PSoC4/CyLFClk.c **** #if (CY_IP_WCO)
 752:Generated_Source\PSoC4/CyLFClk.c ****     /*******************************************************************************
 753:Generated_Source\PSoC4/CyLFClk.c ****     * Function Name: CySysClkWcoStart
 754:Generated_Source\PSoC4/CyLFClk.c ****     ****************************************************************************//**
 755:Generated_Source\PSoC4/CyLFClk.c ****     * \brief
 756:Generated_Source\PSoC4/CyLFClk.c ****     *  Enables Watch Crystal Oscillator (WCO).
 757:Generated_Source\PSoC4/CyLFClk.c ****     * 
 758:Generated_Source\PSoC4/CyLFClk.c ****     * This API enables WCO which is used as a source for LFCLK. Similar to ILO, 
 759:Generated_Source\PSoC4/CyLFClk.c ****     * WCO is also available in all modes except Hibernate and Stop modes.
 760:Generated_Source\PSoC4/CyLFClk.c ****     * \note In PSoC 4000S / PSoC 4100S / PSoC Analog Coprocessor devices
 761:Generated_Source\PSoC4/CyLFClk.c ****     * WCO cannot be a source for the LFCLK. 
 762:Generated_Source\PSoC4/CyLFClk.c ****     *
 763:Generated_Source\PSoC4/CyLFClk.c ****     *  WCO is always enabled in High Power Mode (HPM). Refer to the device
 764:Generated_Source\PSoC4/CyLFClk.c ****     *  datasheet for the  WCO startup time. Once WCO becomes stable it can be
 765:Generated_Source\PSoC4/CyLFClk.c ****     *  switched to Low Power Mode (LPM). Note that oscillator can be unstable
 766:Generated_Source\PSoC4/CyLFClk.c ****     *  during a switch and hence its output should not be used at that moment.
 767:Generated_Source\PSoC4/CyLFClk.c ****     *
 768:Generated_Source\PSoC4/CyLFClk.c ****     *  The CySysClkWcoSetPowerMode() function configures the WCO power mode.
 769:Generated_Source\PSoC4/CyLFClk.c ****     *
 770:Generated_Source\PSoC4/CyLFClk.c ****     *******************************************************************************/
 771:Generated_Source\PSoC4/CyLFClk.c ****     void CySysClkWcoStart(void)
 772:Generated_Source\PSoC4/CyLFClk.c ****     {
 1264              		.loc 2 772 0
 1265              		.cfi_startproc
 1266              		@ args = 0, pretend = 0, frame = 0
 1267              		@ frame_needed = 1, uses_anonymous_args = 0
 1268 0000 80B5     		push	{r7, lr}
 1269              		.cfi_def_cfa_offset 8
 1270              		.cfi_offset 7, -8
 1271              		.cfi_offset 14, -4
 1272 0002 00AF     		add	r7, sp, #0
 1273              		.cfi_def_cfa_register 7
 773:Generated_Source\PSoC4/CyLFClk.c ****         CySysClkWcoSetHighPowerMode();
 1274              		.loc 2 773 0
 1275 0004 FFF7FEFF 		bl	CySysClkWcoSetHighPowerMode
 774:Generated_Source\PSoC4/CyLFClk.c ****         CY_SYS_CLK_WCO_CONFIG_REG |= CY_SYS_CLK_WCO_CONFIG_LPM_ENABLE;
 1276              		.loc 2 774 0
 1277 0008 044B     		ldr	r3, .L91
 1278 000a 044A     		ldr	r2, .L91
 1279 000c 1268     		ldr	r2, [r2]
 1280 000e 8021     		movs	r1, #128
 1281 0010 0906     		lsls	r1, r1, #24
 1282 0012 0A43     		orrs	r2, r1
 1283 0014 1A60     		str	r2, [r3]
 775:Generated_Source\PSoC4/CyLFClk.c ****     }
 1284              		.loc 2 775 0
 1285 0016 C046     		nop
 1286 0018 BD46     		mov	sp, r7
 1287              		@ sp needed
 1288 001a 80BD     		pop	{r7, pc}
 1289              	.L92:
 1290              		.align	2
 1291              	.L91:
 1292 001c 00F02E40 		.word	1076817920
ARM GAS  C:\Users\ELEASO~1\AppData\Local\Temp\ccqlvzPP.s 			page 50


 1293              		.cfi_endproc
 1294              	.LFE13:
 1295              		.size	CySysClkWcoStart, .-CySysClkWcoStart
 1296              		.section	.text.CySysClkWcoStop,"ax",%progbits
 1297              		.align	2
 1298              		.global	CySysClkWcoStop
 1299              		.code	16
 1300              		.thumb_func
 1301              		.type	CySysClkWcoStop, %function
 1302              	CySysClkWcoStop:
 1303              	.LFB14:
 776:Generated_Source\PSoC4/CyLFClk.c **** 
 777:Generated_Source\PSoC4/CyLFClk.c **** 
 778:Generated_Source\PSoC4/CyLFClk.c ****     /*******************************************************************************
 779:Generated_Source\PSoC4/CyLFClk.c ****     * Function Name: CySysClkWcoStop
 780:Generated_Source\PSoC4/CyLFClk.c ****     ****************************************************************************//**
 781:Generated_Source\PSoC4/CyLFClk.c ****     * \brief
 782:Generated_Source\PSoC4/CyLFClk.c ****     * Disables the 32 KHz Crystal Oscillator.
 783:Generated_Source\PSoC4/CyLFClk.c ****     *
 784:Generated_Source\PSoC4/CyLFClk.c ****     * API switch of WCO.
 785:Generated_Source\PSoC4/CyLFClk.c ****     * \note PSoC 4100S / PSoC Analog Coprocessor: WCO is required for DeepSleep 
 786:Generated_Source\PSoC4/CyLFClk.c ****     * Timer's operation.
 787:Generated_Source\PSoC4/CyLFClk.c ****     *
 788:Generated_Source\PSoC4/CyLFClk.c ****     *******************************************************************************/
 789:Generated_Source\PSoC4/CyLFClk.c ****     void  CySysClkWcoStop(void)
 790:Generated_Source\PSoC4/CyLFClk.c ****     {
 1304              		.loc 2 790 0
 1305              		.cfi_startproc
 1306              		@ args = 0, pretend = 0, frame = 8
 1307              		@ frame_needed = 1, uses_anonymous_args = 0
 1308 0000 90B5     		push	{r4, r7, lr}
 1309              		.cfi_def_cfa_offset 12
 1310              		.cfi_offset 4, -12
 1311              		.cfi_offset 7, -8
 1312              		.cfi_offset 14, -4
 1313 0002 83B0     		sub	sp, sp, #12
 1314              		.cfi_def_cfa_offset 24
 1315 0004 00AF     		add	r7, sp, #0
 1316              		.cfi_def_cfa_register 7
 791:Generated_Source\PSoC4/CyLFClk.c ****         #if (CY_IP_SRSSV2)
 792:Generated_Source\PSoC4/CyLFClk.c ****             uint8  interruptState;
 793:Generated_Source\PSoC4/CyLFClk.c ****         #endif /* (CY_IP_SRSSV2) */
 794:Generated_Source\PSoC4/CyLFClk.c **** 
 795:Generated_Source\PSoC4/CyLFClk.c ****         if (0u != CySysClkWcoEnabled())
 1317              		.loc 2 795 0
 1318 0006 FFF7FEFF 		bl	CySysClkWcoEnabled
 1319 000a 031E     		subs	r3, r0, #0
 1320 000c 21D0     		beq	.L96
 796:Generated_Source\PSoC4/CyLFClk.c ****         {
 797:Generated_Source\PSoC4/CyLFClk.c ****             #if (CY_IP_SRSSV2)
 798:Generated_Source\PSoC4/CyLFClk.c ****                 if (CY_SYS_CLK_LFCLK_SRC_WCO == CySysClkGetLfclkSource())
 1321              		.loc 2 798 0
 1322 000e FFF7FEFF 		bl	CySysClkGetLfclkSource
 1323 0012 0200     		movs	r2, r0
 1324 0014 8023     		movs	r3, #128
 1325 0016 DB05     		lsls	r3, r3, #23
 1326 0018 9A42     		cmp	r2, r3
ARM GAS  C:\Users\ELEASO~1\AppData\Local\Temp\ccqlvzPP.s 			page 51


 1327 001a 14D1     		bne	.L95
 799:Generated_Source\PSoC4/CyLFClk.c ****                 {
 800:Generated_Source\PSoC4/CyLFClk.c ****                     interruptState = CyEnterCriticalSection();
 1328              		.loc 2 800 0
 1329 001c FC1D     		adds	r4, r7, #7
 1330 001e FFF7FEFF 		bl	CyEnterCriticalSection
 1331 0022 0300     		movs	r3, r0
 1332 0024 2370     		strb	r3, [r4]
 801:Generated_Source\PSoC4/CyLFClk.c ****                     CySysClkLfclkPosedgeCatch();
 1333              		.loc 2 801 0
 1334 0026 FFF7FEFF 		bl	CySysClkLfclkPosedgeCatch
 802:Generated_Source\PSoC4/CyLFClk.c ****                     CY_SYS_CLK_WCO_CONFIG_REG &= (uint32) ~CY_SYS_CLK_WCO_CONFIG_LPM_ENABLE;
 1335              		.loc 2 802 0
 1336 002a 0C4B     		ldr	r3, .L97
 1337 002c 0B4A     		ldr	r2, .L97
 1338 002e 1268     		ldr	r2, [r2]
 1339 0030 5200     		lsls	r2, r2, #1
 1340 0032 5208     		lsrs	r2, r2, #1
 1341 0034 1A60     		str	r2, [r3]
 803:Generated_Source\PSoC4/CyLFClk.c ****                     CySysClkLfclkPosedgeRestore();
 1342              		.loc 2 803 0
 1343 0036 FFF7FEFF 		bl	CySysClkLfclkPosedgeRestore
 804:Generated_Source\PSoC4/CyLFClk.c ****                     CyExitCriticalSection(interruptState);
 1344              		.loc 2 804 0
 1345 003a FB1D     		adds	r3, r7, #7
 1346 003c 1B78     		ldrb	r3, [r3]
 1347 003e 1800     		movs	r0, r3
 1348 0040 FFF7FEFF 		bl	CyExitCriticalSection
 805:Generated_Source\PSoC4/CyLFClk.c ****                 }
 806:Generated_Source\PSoC4/CyLFClk.c ****                 else /* Safe to disable - shortened pulse does not impact peripheral */
 807:Generated_Source\PSoC4/CyLFClk.c ****             #endif /* (CY_IP_SRSSV2) */
 808:Generated_Source\PSoC4/CyLFClk.c ****             {
 809:Generated_Source\PSoC4/CyLFClk.c ****                 CY_SYS_CLK_WCO_CONFIG_REG &= (uint32) ~CY_SYS_CLK_WCO_CONFIG_LPM_ENABLE;
 810:Generated_Source\PSoC4/CyLFClk.c ****             }
 811:Generated_Source\PSoC4/CyLFClk.c ****         } /* Otherwise do nothing. WCO configuration cannot be changed. */
 812:Generated_Source\PSoC4/CyLFClk.c ****     }
 1349              		.loc 2 812 0
 1350 0044 05E0     		b	.L96
 1351              	.L95:
 809:Generated_Source\PSoC4/CyLFClk.c ****             }
 1352              		.loc 2 809 0
 1353 0046 054B     		ldr	r3, .L97
 1354 0048 044A     		ldr	r2, .L97
 1355 004a 1268     		ldr	r2, [r2]
 1356 004c 5200     		lsls	r2, r2, #1
 1357 004e 5208     		lsrs	r2, r2, #1
 1358 0050 1A60     		str	r2, [r3]
 1359              	.L96:
 1360              		.loc 2 812 0
 1361 0052 C046     		nop
 1362 0054 BD46     		mov	sp, r7
 1363 0056 03B0     		add	sp, sp, #12
 1364              		@ sp needed
 1365 0058 90BD     		pop	{r4, r7, pc}
 1366              	.L98:
 1367 005a C046     		.align	2
 1368              	.L97:
ARM GAS  C:\Users\ELEASO~1\AppData\Local\Temp\ccqlvzPP.s 			page 52


 1369 005c 00F02E40 		.word	1076817920
 1370              		.cfi_endproc
 1371              	.LFE14:
 1372              		.size	CySysClkWcoStop, .-CySysClkWcoStop
 1373              		.section	.text.CySysClkWcoEnabled,"ax",%progbits
 1374              		.align	2
 1375              		.global	CySysClkWcoEnabled
 1376              		.code	16
 1377              		.thumb_func
 1378              		.type	CySysClkWcoEnabled, %function
 1379              	CySysClkWcoEnabled:
 1380              	.LFB15:
 813:Generated_Source\PSoC4/CyLFClk.c **** 
 814:Generated_Source\PSoC4/CyLFClk.c **** 
 815:Generated_Source\PSoC4/CyLFClk.c ****     /*******************************************************************************
 816:Generated_Source\PSoC4/CyLFClk.c ****     * Function Name: CySysClkWcoEnabled
 817:Generated_Source\PSoC4/CyLFClk.c ****     ****************************************************************************//**
 818:Generated_Source\PSoC4/CyLFClk.c ****     * \internal Reports the WCO enable state.
 819:Generated_Source\PSoC4/CyLFClk.c ****     *
 820:Generated_Source\PSoC4/CyLFClk.c ****     * \return 1 if WCO is enabled
 821:Generated_Source\PSoC4/CyLFClk.c ****     * \return 0 if WCO is disabled.
 822:Generated_Source\PSoC4/CyLFClk.c ****     * \endinternal
 823:Generated_Source\PSoC4/CyLFClk.c ****     *******************************************************************************/
 824:Generated_Source\PSoC4/CyLFClk.c ****     uint32 CySysClkWcoEnabled(void)
 825:Generated_Source\PSoC4/CyLFClk.c ****     {
 1381              		.loc 2 825 0
 1382              		.cfi_startproc
 1383              		@ args = 0, pretend = 0, frame = 0
 1384              		@ frame_needed = 1, uses_anonymous_args = 0
 1385 0000 80B5     		push	{r7, lr}
 1386              		.cfi_def_cfa_offset 8
 1387              		.cfi_offset 7, -8
 1388              		.cfi_offset 14, -4
 1389 0002 00AF     		add	r7, sp, #0
 1390              		.cfi_def_cfa_register 7
 826:Generated_Source\PSoC4/CyLFClk.c ****         return ((0u != (CY_SYS_CLK_WCO_CONFIG_REG & (uint32)(CY_SYS_CLK_WCO_CONFIG_LPM_ENABLE))) ?
 1391              		.loc 2 826 0
 1392 0004 044B     		ldr	r3, .L103
 1393 0006 1B68     		ldr	r3, [r3]
 827:Generated_Source\PSoC4/CyLFClk.c ****                 (uint32) 1u :
 1394              		.loc 2 827 0
 1395 0008 002B     		cmp	r3, #0
 1396 000a 01DA     		bge	.L100
 1397              		.loc 2 827 0 is_stmt 0 discriminator 1
 1398 000c 0123     		movs	r3, #1
 826:Generated_Source\PSoC4/CyLFClk.c ****         return ((0u != (CY_SYS_CLK_WCO_CONFIG_REG & (uint32)(CY_SYS_CLK_WCO_CONFIG_LPM_ENABLE))) ?
 1399              		.loc 2 826 0 is_stmt 1 discriminator 1
 1400 000e 00E0     		b	.L102
 1401              	.L100:
 1402              		.loc 2 827 0 discriminator 2
 1403 0010 0023     		movs	r3, #0
 1404              	.L102:
 828:Generated_Source\PSoC4/CyLFClk.c ****                 (uint32) 0u);
 829:Generated_Source\PSoC4/CyLFClk.c ****     }
 1405              		.loc 2 829 0 discriminator 1
 1406 0012 1800     		movs	r0, r3
 1407 0014 BD46     		mov	sp, r7
ARM GAS  C:\Users\ELEASO~1\AppData\Local\Temp\ccqlvzPP.s 			page 53


 1408              		@ sp needed
 1409 0016 80BD     		pop	{r7, pc}
 1410              	.L104:
 1411              		.align	2
 1412              	.L103:
 1413 0018 00F02E40 		.word	1076817920
 1414              		.cfi_endproc
 1415              	.LFE15:
 1416              		.size	CySysClkWcoEnabled, .-CySysClkWcoEnabled
 1417              		.section	.text.CySysClkWcoSetPowerMode,"ax",%progbits
 1418              		.align	2
 1419              		.global	CySysClkWcoSetPowerMode
 1420              		.code	16
 1421              		.thumb_func
 1422              		.type	CySysClkWcoSetPowerMode, %function
 1423              	CySysClkWcoSetPowerMode:
 1424              	.LFB16:
 830:Generated_Source\PSoC4/CyLFClk.c **** 
 831:Generated_Source\PSoC4/CyLFClk.c **** 
 832:Generated_Source\PSoC4/CyLFClk.c ****     /*******************************************************************************
 833:Generated_Source\PSoC4/CyLFClk.c ****     * Function Name: CySysClkWcoSetPowerMode
 834:Generated_Source\PSoC4/CyLFClk.c ****     ****************************************************************************//**
 835:Generated_Source\PSoC4/CyLFClk.c ****     * \brief
 836:Generated_Source\PSoC4/CyLFClk.c ****     * Sets the power mode for the 32 KHz WCO.
 837:Generated_Source\PSoC4/CyLFClk.c ****     *
 838:Generated_Source\PSoC4/CyLFClk.c ****     * By default (if this function is not called), the WCO is in High power mode 
 839:Generated_Source\PSoC4/CyLFClk.c ****     * during Active and device's low power modes
 840:Generated_Source\PSoC4/CyLFClk.c ****     *
 841:Generated_Source\PSoC4/CyLFClk.c ****     * \param mode
 842:Generated_Source\PSoC4/CyLFClk.c ****     * CY_SYS_CLK_WCO_HPM - The High Power mode.<br>
 843:Generated_Source\PSoC4/CyLFClk.c ****     * CY_SYS_CLK_WCO_LPM - The Low Power mode.
 844:Generated_Source\PSoC4/CyLFClk.c ****     *
 845:Generated_Source\PSoC4/CyLFClk.c ****     * \return A previous power mode. The same as the parameters.
 846:Generated_Source\PSoC4/CyLFClk.c ****     *
 847:Generated_Source\PSoC4/CyLFClk.c ****     * \note
 848:Generated_Source\PSoC4/CyLFClk.c ****     * The WCO Low Power mode is applicable for PSoC 4100 BLE / PSoC 4200 BLE devices.
 849:Generated_Source\PSoC4/CyLFClk.c ****     *
 850:Generated_Source\PSoC4/CyLFClk.c ****     *******************************************************************************/
 851:Generated_Source\PSoC4/CyLFClk.c ****     uint32 CySysClkWcoSetPowerMode(uint32 mode)
 852:Generated_Source\PSoC4/CyLFClk.c ****     {
 1425              		.loc 2 852 0
 1426              		.cfi_startproc
 1427              		@ args = 0, pretend = 0, frame = 16
 1428              		@ frame_needed = 1, uses_anonymous_args = 0
 1429 0000 80B5     		push	{r7, lr}
 1430              		.cfi_def_cfa_offset 8
 1431              		.cfi_offset 7, -8
 1432              		.cfi_offset 14, -4
 1433 0002 84B0     		sub	sp, sp, #16
 1434              		.cfi_def_cfa_offset 24
 1435 0004 00AF     		add	r7, sp, #0
 1436              		.cfi_def_cfa_register 7
 1437 0006 7860     		str	r0, [r7, #4]
 853:Generated_Source\PSoC4/CyLFClk.c ****         uint32 powerModeStatus;
 854:Generated_Source\PSoC4/CyLFClk.c **** 
 855:Generated_Source\PSoC4/CyLFClk.c ****         powerModeStatus = CY_SYS_CLK_WCO_CONFIG_REG & CY_SYS_CLK_WCO_CONFIG_LPM_EN;
 1438              		.loc 2 855 0
ARM GAS  C:\Users\ELEASO~1\AppData\Local\Temp\ccqlvzPP.s 			page 54


 1439 0008 0C4B     		ldr	r3, .L112
 1440 000a 1B68     		ldr	r3, [r3]
 1441 000c 0122     		movs	r2, #1
 1442 000e 1340     		ands	r3, r2
 1443 0010 FB60     		str	r3, [r7, #12]
 856:Generated_Source\PSoC4/CyLFClk.c **** 
 857:Generated_Source\PSoC4/CyLFClk.c ****         switch(mode)
 1444              		.loc 2 857 0
 1445 0012 7B68     		ldr	r3, [r7, #4]
 1446 0014 002B     		cmp	r3, #0
 1447 0016 02D0     		beq	.L107
 1448 0018 012B     		cmp	r3, #1
 1449 001a 03D0     		beq	.L108
 1450 001c 05E0     		b	.L111
 1451              	.L107:
 858:Generated_Source\PSoC4/CyLFClk.c ****         {
 859:Generated_Source\PSoC4/CyLFClk.c ****         case CY_SYS_CLK_WCO_HPM:
 860:Generated_Source\PSoC4/CyLFClk.c ****                 CySysClkWcoSetHighPowerMode();
 1452              		.loc 2 860 0
 1453 001e FFF7FEFF 		bl	CySysClkWcoSetHighPowerMode
 861:Generated_Source\PSoC4/CyLFClk.c ****             break;
 1454              		.loc 2 861 0
 1455 0022 06E0     		b	.L109
 1456              	.L108:
 862:Generated_Source\PSoC4/CyLFClk.c **** 
 863:Generated_Source\PSoC4/CyLFClk.c ****         #if(CY_IP_BLESS)
 864:Generated_Source\PSoC4/CyLFClk.c ****             case CY_SYS_CLK_WCO_LPM:
 865:Generated_Source\PSoC4/CyLFClk.c ****                     CySysClkWcoSetLowPowerMode();
 1457              		.loc 2 865 0
 1458 0024 FFF7FEFF 		bl	CySysClkWcoSetLowPowerMode
 866:Generated_Source\PSoC4/CyLFClk.c ****                 break;
 1459              		.loc 2 866 0
 1460 0028 03E0     		b	.L109
 1461              	.L111:
 867:Generated_Source\PSoC4/CyLFClk.c ****         #endif /* (CY_IP_BLESS) */
 868:Generated_Source\PSoC4/CyLFClk.c **** 
 869:Generated_Source\PSoC4/CyLFClk.c ****         default:
 870:Generated_Source\PSoC4/CyLFClk.c ****             CYASSERT(0u != 0u);
 1462              		.loc 2 870 0
 1463 002a 0020     		movs	r0, #0
 1464 002c FFF7FEFF 		bl	CyHalt
 871:Generated_Source\PSoC4/CyLFClk.c ****             break;
 1465              		.loc 2 871 0
 1466 0030 C046     		nop
 1467              	.L109:
 872:Generated_Source\PSoC4/CyLFClk.c ****         }
 873:Generated_Source\PSoC4/CyLFClk.c **** 
 874:Generated_Source\PSoC4/CyLFClk.c ****         return (powerModeStatus);
 1468              		.loc 2 874 0
 1469 0032 FB68     		ldr	r3, [r7, #12]
 875:Generated_Source\PSoC4/CyLFClk.c ****     }
 1470              		.loc 2 875 0
 1471 0034 1800     		movs	r0, r3
 1472 0036 BD46     		mov	sp, r7
 1473 0038 04B0     		add	sp, sp, #16
 1474              		@ sp needed
 1475 003a 80BD     		pop	{r7, pc}
ARM GAS  C:\Users\ELEASO~1\AppData\Local\Temp\ccqlvzPP.s 			page 55


 1476              	.L113:
 1477              		.align	2
 1478              	.L112:
 1479 003c 00F02E40 		.word	1076817920
 1480              		.cfi_endproc
 1481              	.LFE16:
 1482              		.size	CySysClkWcoSetPowerMode, .-CySysClkWcoSetPowerMode
 1483              		.section	.text.CySysClkWcoClockOutSelect,"ax",%progbits
 1484              		.align	2
 1485              		.global	CySysClkWcoClockOutSelect
 1486              		.code	16
 1487              		.thumb_func
 1488              		.type	CySysClkWcoClockOutSelect, %function
 1489              	CySysClkWcoClockOutSelect:
 1490              	.LFB17:
 876:Generated_Source\PSoC4/CyLFClk.c **** 
 877:Generated_Source\PSoC4/CyLFClk.c **** 
 878:Generated_Source\PSoC4/CyLFClk.c ****     /*******************************************************************************
 879:Generated_Source\PSoC4/CyLFClk.c ****     * Function Name: CySysClkWcoClockOutSelect
 880:Generated_Source\PSoC4/CyLFClk.c ****     ****************************************************************************//**
 881:Generated_Source\PSoC4/CyLFClk.c ****     * \brief
 882:Generated_Source\PSoC4/CyLFClk.c ****     * Selects the WCO block output source.
 883:Generated_Source\PSoC4/CyLFClk.c ****     *
 884:Generated_Source\PSoC4/CyLFClk.c ****     * In addition to generating 32.768 kHz clock from external crystals, WCO 
 885:Generated_Source\PSoC4/CyLFClk.c ****     * can be sourced by external clock source using wco_out pin. The API help to
 886:Generated_Source\PSoC4/CyLFClk.c ****     * lets you select between the sources: External crystal or external pin.
 887:Generated_Source\PSoC4/CyLFClk.c ****     *
 888:Generated_Source\PSoC4/CyLFClk.c ****     * If you want to use external pin to drive WCO the next procedure is required:
 889:Generated_Source\PSoC4/CyLFClk.c ****     * <br> 1) Disable the WCO.
 890:Generated_Source\PSoC4/CyLFClk.c ****     * <br> 2) Drive the wco_out pin to an external signal source.
 891:Generated_Source\PSoC4/CyLFClk.c ****     * <br> 3) Call CySysClkWcoClockOutSelect(CY_SYS_CLK_WCO_SEL_PIN).
 892:Generated_Source\PSoC4/CyLFClk.c ****     * <br> 4) Enable the WCO and wait for 15 us before clocking the XO pad at the high 
 893:Generated_Source\PSoC4/CyLFClk.c ****     * potential. Let's assume you are using the 1.6v clock amplitude, then the
 894:Generated_Source\PSoC4/CyLFClk.c ****     * sequence would start at 1.6v, then 0v, then 1.6v etc at a chosen frequency.
 895:Generated_Source\PSoC4/CyLFClk.c ****     *
 896:Generated_Source\PSoC4/CyLFClk.c ****     * If you want to use WCO after using an external pin source:
 897:Generated_Source\PSoC4/CyLFClk.c ****     * <br> 1) Disable the WCO.
 898:Generated_Source\PSoC4/CyLFClk.c ****     * <br> 2) Drive off wco_out pin with external signal source.
 899:Generated_Source\PSoC4/CyLFClk.c ****     * <br> 3) Call CySysClkWcoClockOutSelect(CY_SYS_CLK_WCO_SEL_CRYSTAL).
 900:Generated_Source\PSoC4/CyLFClk.c ****     * <br> 4) Enable the WCO.
 901:Generated_Source\PSoC4/CyLFClk.c ****     *
 902:Generated_Source\PSoC4/CyLFClk.c ****     * \warning 
 903:Generated_Source\PSoC4/CyLFClk.c ****     * Do not use the oscillator output clock prior to a 15uS delay in your system.
 904:Generated_Source\PSoC4/CyLFClk.c ****     * There are no limitations on the external clock frequency.
 905:Generated_Source\PSoC4/CyLFClk.c ****     * \warning 
 906:Generated_Source\PSoC4/CyLFClk.c ****     * When external clock source was selected to drive WCO block the IMO can be 
 907:Generated_Source\PSoC4/CyLFClk.c ****     * trimmed only when external clock source period is equal to WCO external
