ARM GAS  C:\Users\ELEASO~1\AppData\Local\Temp\ccWHKYqp.s 			page 1


   1              		.syntax unified
   2              		.cpu cortex-m0
   3              		.fpu softvfp
   4              		.eabi_attribute 20, 1
   5              		.eabi_attribute 21, 1
   6              		.eabi_attribute 23, 3
   7              		.eabi_attribute 24, 1
   8              		.eabi_attribute 25, 1
   9              		.eabi_attribute 26, 1
  10              		.eabi_attribute 30, 6
  11              		.eabi_attribute 34, 0
  12              		.eabi_attribute 18, 4
  13              		.thumb
  14              		.syntax unified
  15              		.file	"EnoPWR.c"
  16              		.text
  17              	.Ltext0:
  18              		.cfi_sections	.debug_frame
  19              		.section	.text.EnoPWR_SetDriveMode,"ax",%progbits
  20              		.align	2
  21              		.global	EnoPWR_SetDriveMode
  22              		.code	16
  23              		.thumb_func
  24              		.type	EnoPWR_SetDriveMode, %function
  25              	EnoPWR_SetDriveMode:
  26              	.LFB0:
  27              		.file 1 "Generated_Source\\PSoC4\\EnoPWR.c"
   1:Generated_Source\PSoC4/EnoPWR.c **** /*******************************************************************************
   2:Generated_Source\PSoC4/EnoPWR.c **** * File Name: EnoPWR.c  
   3:Generated_Source\PSoC4/EnoPWR.c **** * Version 2.20
   4:Generated_Source\PSoC4/EnoPWR.c **** *
   5:Generated_Source\PSoC4/EnoPWR.c **** * Description:
   6:Generated_Source\PSoC4/EnoPWR.c **** *  This file contains API to enable firmware control of a Pins component.
   7:Generated_Source\PSoC4/EnoPWR.c **** *
   8:Generated_Source\PSoC4/EnoPWR.c **** ********************************************************************************
   9:Generated_Source\PSoC4/EnoPWR.c **** * Copyright 2008-2015, Cypress Semiconductor Corporation.  All rights reserved.
  10:Generated_Source\PSoC4/EnoPWR.c **** * You may use this file only in accordance with the license, terms, conditions, 
  11:Generated_Source\PSoC4/EnoPWR.c **** * disclaimers, and limitations in the end user license agreement accompanying 
  12:Generated_Source\PSoC4/EnoPWR.c **** * the software package with which this file was provided.
  13:Generated_Source\PSoC4/EnoPWR.c **** *******************************************************************************/
  14:Generated_Source\PSoC4/EnoPWR.c **** 
  15:Generated_Source\PSoC4/EnoPWR.c **** #include "cytypes.h"
  16:Generated_Source\PSoC4/EnoPWR.c **** #include "EnoPWR.h"
  17:Generated_Source\PSoC4/EnoPWR.c **** 
  18:Generated_Source\PSoC4/EnoPWR.c **** 
  19:Generated_Source\PSoC4/EnoPWR.c **** #if defined(EnoPWR__PC)
  20:Generated_Source\PSoC4/EnoPWR.c ****     #define EnoPWR_SetP4PinDriveMode(shift, mode)  \
  21:Generated_Source\PSoC4/EnoPWR.c ****     do { \
  22:Generated_Source\PSoC4/EnoPWR.c ****         EnoPWR_PC =   (EnoPWR_PC & \
  23:Generated_Source\PSoC4/EnoPWR.c ****                                 (uint32)(~(uint32)(EnoPWR_DRIVE_MODE_IND_MASK << \
  24:Generated_Source\PSoC4/EnoPWR.c ****                                 (EnoPWR_DRIVE_MODE_BITS * (shift))))) | \
  25:Generated_Source\PSoC4/EnoPWR.c ****                                 (uint32)((uint32)(mode) << \
  26:Generated_Source\PSoC4/EnoPWR.c ****                                 (EnoPWR_DRIVE_MODE_BITS * (shift))); \
  27:Generated_Source\PSoC4/EnoPWR.c ****     } while (0)
  28:Generated_Source\PSoC4/EnoPWR.c **** #else
  29:Generated_Source\PSoC4/EnoPWR.c ****     #if (CY_PSOC4_4200L)
  30:Generated_Source\PSoC4/EnoPWR.c ****         #define EnoPWR_SetP4PinDriveMode(shift, mode)  \
ARM GAS  C:\Users\ELEASO~1\AppData\Local\Temp\ccWHKYqp.s 			page 2


  31:Generated_Source\PSoC4/EnoPWR.c ****         do { \
  32:Generated_Source\PSoC4/EnoPWR.c ****             EnoPWR_USBIO_CTRL_REG = (EnoPWR_USBIO_CTRL_REG & \
  33:Generated_Source\PSoC4/EnoPWR.c ****                                     (uint32)(~(uint32)(EnoPWR_DRIVE_MODE_IND_MASK << \
  34:Generated_Source\PSoC4/EnoPWR.c ****                                     (EnoPWR_DRIVE_MODE_BITS * (shift))))) | \
  35:Generated_Source\PSoC4/EnoPWR.c ****                                     (uint32)((uint32)(mode) << \
  36:Generated_Source\PSoC4/EnoPWR.c ****                                     (EnoPWR_DRIVE_MODE_BITS * (shift))); \
  37:Generated_Source\PSoC4/EnoPWR.c ****         } while (0)
  38:Generated_Source\PSoC4/EnoPWR.c ****     #endif
  39:Generated_Source\PSoC4/EnoPWR.c **** #endif
  40:Generated_Source\PSoC4/EnoPWR.c ****   
  41:Generated_Source\PSoC4/EnoPWR.c **** 
  42:Generated_Source\PSoC4/EnoPWR.c **** #if defined(EnoPWR__PC) || (CY_PSOC4_4200L) 
  43:Generated_Source\PSoC4/EnoPWR.c ****     /*******************************************************************************
  44:Generated_Source\PSoC4/EnoPWR.c ****     * Function Name: EnoPWR_SetDriveMode
  45:Generated_Source\PSoC4/EnoPWR.c ****     ****************************************************************************//**
  46:Generated_Source\PSoC4/EnoPWR.c ****     *
  47:Generated_Source\PSoC4/EnoPWR.c ****     * \brief Sets the drive mode for each of the Pins component's pins.
  48:Generated_Source\PSoC4/EnoPWR.c ****     * 
  49:Generated_Source\PSoC4/EnoPWR.c ****     * <b>Note</b> This affects all pins in the Pins component instance. Use the
  50:Generated_Source\PSoC4/EnoPWR.c ****     * Per-Pin APIs if you wish to control individual pin's drive modes.
  51:Generated_Source\PSoC4/EnoPWR.c ****     *
  52:Generated_Source\PSoC4/EnoPWR.c ****     * <b>Note</b> USBIOs have limited drive functionality. Refer to the Drive Mode
  53:Generated_Source\PSoC4/EnoPWR.c ****     * parameter for more information.
  54:Generated_Source\PSoC4/EnoPWR.c ****     *
  55:Generated_Source\PSoC4/EnoPWR.c ****     * \param mode
  56:Generated_Source\PSoC4/EnoPWR.c ****     *  Mode for the selected signals. Valid options are documented in 
  57:Generated_Source\PSoC4/EnoPWR.c ****     *  \ref driveMode.
  58:Generated_Source\PSoC4/EnoPWR.c ****     *
  59:Generated_Source\PSoC4/EnoPWR.c ****     * \return
  60:Generated_Source\PSoC4/EnoPWR.c ****     *  None
  61:Generated_Source\PSoC4/EnoPWR.c ****     *
  62:Generated_Source\PSoC4/EnoPWR.c ****     * \sideeffect
  63:Generated_Source\PSoC4/EnoPWR.c ****     *  If you use read-modify-write operations that are not atomic, the ISR can
  64:Generated_Source\PSoC4/EnoPWR.c ****     *  cause corruption of this function. An ISR that interrupts this function 
  65:Generated_Source\PSoC4/EnoPWR.c ****     *  and performs writes to the Pins component Drive Mode registers can cause 
  66:Generated_Source\PSoC4/EnoPWR.c ****     *  corrupted port data. To avoid this issue, you should either use the Per-Pin
  67:Generated_Source\PSoC4/EnoPWR.c ****     *  APIs (primary method) or disable interrupts around this function.
  68:Generated_Source\PSoC4/EnoPWR.c ****     *
  69:Generated_Source\PSoC4/EnoPWR.c ****     * \funcusage
  70:Generated_Source\PSoC4/EnoPWR.c ****     *  \snippet EnoPWR_SUT.c usage_EnoPWR_SetDriveMode
  71:Generated_Source\PSoC4/EnoPWR.c ****     *******************************************************************************/
  72:Generated_Source\PSoC4/EnoPWR.c ****     void EnoPWR_SetDriveMode(uint8 mode)
  73:Generated_Source\PSoC4/EnoPWR.c ****     {
  28              		.loc 1 73 0
  29              		.cfi_startproc
  30              		@ args = 0, pretend = 0, frame = 8
  31              		@ frame_needed = 1, uses_anonymous_args = 0
  32 0000 80B5     		push	{r7, lr}
  33              		.cfi_def_cfa_offset 8
  34              		.cfi_offset 7, -8
  35              		.cfi_offset 14, -4
  36 0002 82B0     		sub	sp, sp, #8
  37              		.cfi_def_cfa_offset 16
  38 0004 00AF     		add	r7, sp, #0
  39              		.cfi_def_cfa_register 7
  40 0006 0200     		movs	r2, r0
  41 0008 FB1D     		adds	r3, r7, #7
ARM GAS  C:\Users\ELEASO~1\AppData\Local\Temp\ccWHKYqp.s 			page 3


  42 000a 1A70     		strb	r2, [r3]
  74:Generated_Source\PSoC4/EnoPWR.c **** 		EnoPWR_SetP4PinDriveMode(EnoPWR__0__SHIFT, mode);
  43              		.loc 1 74 0
  44 000c 064B     		ldr	r3, .L2
  45 000e 064A     		ldr	r2, .L2
  46 0010 1268     		ldr	r2, [r2]
  47 0012 0649     		ldr	r1, .L2+4
  48 0014 1140     		ands	r1, r2
  49 0016 FA1D     		adds	r2, r7, #7
  50 0018 1278     		ldrb	r2, [r2]
  51 001a 5205     		lsls	r2, r2, #21
  52 001c 0A43     		orrs	r2, r1
  53 001e 1A60     		str	r2, [r3]
  75:Generated_Source\PSoC4/EnoPWR.c ****     }
  54              		.loc 1 75 0
  55 0020 C046     		nop
  56 0022 BD46     		mov	sp, r7
  57 0024 02B0     		add	sp, sp, #8
  58              		@ sp needed
  59 0026 80BD     		pop	{r7, pc}
  60              	.L3:
  61              		.align	2
  62              	.L2:
  63 0028 08030440 		.word	1074004744
  64 002c FFFF1FFF 		.word	-14680065
  65              		.cfi_endproc
  66              	.LFE0:
  67              		.size	EnoPWR_SetDriveMode, .-EnoPWR_SetDriveMode
  68              		.section	.text.EnoPWR_Write,"ax",%progbits
  69              		.align	2
  70              		.global	EnoPWR_Write
  71              		.code	16
  72              		.thumb_func
  73              		.type	EnoPWR_Write, %function
  74              	EnoPWR_Write:
  75              	.LFB1:
  76:Generated_Source\PSoC4/EnoPWR.c **** #endif
  77:Generated_Source\PSoC4/EnoPWR.c **** 
  78:Generated_Source\PSoC4/EnoPWR.c **** 
  79:Generated_Source\PSoC4/EnoPWR.c **** /*******************************************************************************
  80:Generated_Source\PSoC4/EnoPWR.c **** * Function Name: EnoPWR_Write
  81:Generated_Source\PSoC4/EnoPWR.c **** ****************************************************************************//**
  82:Generated_Source\PSoC4/EnoPWR.c **** *
  83:Generated_Source\PSoC4/EnoPWR.c **** * \brief Writes the value to the physical port (data output register), masking
  84:Generated_Source\PSoC4/EnoPWR.c **** *  and shifting the bits appropriately. 
  85:Generated_Source\PSoC4/EnoPWR.c **** *
  86:Generated_Source\PSoC4/EnoPWR.c **** * The data output register controls the signal applied to the physical pin in 
  87:Generated_Source\PSoC4/EnoPWR.c **** * conjunction with the drive mode parameter. This function avoids changing 
  88:Generated_Source\PSoC4/EnoPWR.c **** * other bits in the port by using the appropriate method (read-modify-write or
  89:Generated_Source\PSoC4/EnoPWR.c **** * bit banding).
  90:Generated_Source\PSoC4/EnoPWR.c **** *
  91:Generated_Source\PSoC4/EnoPWR.c **** * <b>Note</b> This function should not be used on a hardware digital output pin 
  92:Generated_Source\PSoC4/EnoPWR.c **** * as it is driven by the hardware signal attached to it.
  93:Generated_Source\PSoC4/EnoPWR.c **** *
  94:Generated_Source\PSoC4/EnoPWR.c **** * \param value
  95:Generated_Source\PSoC4/EnoPWR.c **** *  Value to write to the component instance.
  96:Generated_Source\PSoC4/EnoPWR.c **** *
ARM GAS  C:\Users\ELEASO~1\AppData\Local\Temp\ccWHKYqp.s 			page 4


  97:Generated_Source\PSoC4/EnoPWR.c **** * \return 
  98:Generated_Source\PSoC4/EnoPWR.c **** *  None 
  99:Generated_Source\PSoC4/EnoPWR.c **** *
 100:Generated_Source\PSoC4/EnoPWR.c **** * \sideeffect
 101:Generated_Source\PSoC4/EnoPWR.c **** *  If you use read-modify-write operations that are not atomic; the Interrupt 
 102:Generated_Source\PSoC4/EnoPWR.c **** *  Service Routines (ISR) can cause corruption of this function. An ISR that 
 103:Generated_Source\PSoC4/EnoPWR.c **** *  interrupts this function and performs writes to the Pins component data 
 104:Generated_Source\PSoC4/EnoPWR.c **** *  register can cause corrupted port data. To avoid this issue, you should 
 105:Generated_Source\PSoC4/EnoPWR.c **** *  either use the Per-Pin APIs (primary method) or disable interrupts around 
 106:Generated_Source\PSoC4/EnoPWR.c **** *  this function.
 107:Generated_Source\PSoC4/EnoPWR.c **** *
 108:Generated_Source\PSoC4/EnoPWR.c **** * \funcusage
 109:Generated_Source\PSoC4/EnoPWR.c **** *  \snippet EnoPWR_SUT.c usage_EnoPWR_Write
 110:Generated_Source\PSoC4/EnoPWR.c **** *******************************************************************************/
 111:Generated_Source\PSoC4/EnoPWR.c **** void EnoPWR_Write(uint8 value)
 112:Generated_Source\PSoC4/EnoPWR.c **** {
  76              		.loc 1 112 0
  77              		.cfi_startproc
  78              		@ args = 0, pretend = 0, frame = 16
  79              		@ frame_needed = 1, uses_anonymous_args = 0
  80 0000 80B5     		push	{r7, lr}
  81              		.cfi_def_cfa_offset 8
  82              		.cfi_offset 7, -8
  83              		.cfi_offset 14, -4
  84 0002 84B0     		sub	sp, sp, #16
  85              		.cfi_def_cfa_offset 24
  86 0004 00AF     		add	r7, sp, #0
  87              		.cfi_def_cfa_register 7
  88 0006 0200     		movs	r2, r0
  89 0008 FB1D     		adds	r3, r7, #7
  90 000a 1A70     		strb	r2, [r3]
 113:Generated_Source\PSoC4/EnoPWR.c ****     uint8 drVal = (uint8)(EnoPWR_DR & (uint8)(~EnoPWR_MASK));
  91              		.loc 1 113 0
  92 000c 0D4B     		ldr	r3, .L5
  93 000e 1B68     		ldr	r3, [r3]
  94 0010 DAB2     		uxtb	r2, r3
  95 0012 0F23     		movs	r3, #15
  96 0014 FB18     		adds	r3, r7, r3
  97 0016 7F21     		movs	r1, #127
  98 0018 0A40     		ands	r2, r1
  99 001a 1A70     		strb	r2, [r3]
 114:Generated_Source\PSoC4/EnoPWR.c ****     drVal = (drVal | ((uint8)(value << EnoPWR_SHIFT) & EnoPWR_MASK));
 100              		.loc 1 114 0
 101 001c FB1D     		adds	r3, r7, #7
 102 001e 1B78     		ldrb	r3, [r3]
 103 0020 DB01     		lsls	r3, r3, #7
 104 0022 D9B2     		uxtb	r1, r3
 105 0024 0F23     		movs	r3, #15
 106 0026 FB18     		adds	r3, r7, r3
 107 0028 0F22     		movs	r2, #15
 108 002a BA18     		adds	r2, r7, r2
 109 002c 1278     		ldrb	r2, [r2]
 110 002e 0A43     		orrs	r2, r1
 111 0030 1A70     		strb	r2, [r3]
 115:Generated_Source\PSoC4/EnoPWR.c ****     EnoPWR_DR = (uint32)drVal;
 112              		.loc 1 115 0
 113 0032 044B     		ldr	r3, .L5
ARM GAS  C:\Users\ELEASO~1\AppData\Local\Temp\ccWHKYqp.s 			page 5


 114 0034 0F22     		movs	r2, #15
 115 0036 BA18     		adds	r2, r7, r2
 116 0038 1278     		ldrb	r2, [r2]
 117 003a 1A60     		str	r2, [r3]
 116:Generated_Source\PSoC4/EnoPWR.c **** }
 118              		.loc 1 116 0
 119 003c C046     		nop
 120 003e BD46     		mov	sp, r7
 121 0040 04B0     		add	sp, sp, #16
 122              		@ sp needed
 123 0042 80BD     		pop	{r7, pc}
 124              	.L6:
 125              		.align	2
 126              	.L5:
 127 0044 00030440 		.word	1074004736
 128              		.cfi_endproc
 129              	.LFE1:
 130              		.size	EnoPWR_Write, .-EnoPWR_Write
 131              		.section	.text.EnoPWR_Read,"ax",%progbits
 132              		.align	2
 133              		.global	EnoPWR_Read
 134              		.code	16
 135              		.thumb_func
 136              		.type	EnoPWR_Read, %function
 137              	EnoPWR_Read:
 138              	.LFB2:
 117:Generated_Source\PSoC4/EnoPWR.c **** 
 118:Generated_Source\PSoC4/EnoPWR.c **** 
 119:Generated_Source\PSoC4/EnoPWR.c **** /*******************************************************************************
 120:Generated_Source\PSoC4/EnoPWR.c **** * Function Name: EnoPWR_Read
 121:Generated_Source\PSoC4/EnoPWR.c **** ****************************************************************************//**
 122:Generated_Source\PSoC4/EnoPWR.c **** *
 123:Generated_Source\PSoC4/EnoPWR.c **** * \brief Reads the associated physical port (pin status register) and masks 
 124:Generated_Source\PSoC4/EnoPWR.c **** *  the required bits according to the width and bit position of the component
 125:Generated_Source\PSoC4/EnoPWR.c **** *  instance. 
 126:Generated_Source\PSoC4/EnoPWR.c **** *
 127:Generated_Source\PSoC4/EnoPWR.c **** * The pin's status register returns the current logic level present on the 
 128:Generated_Source\PSoC4/EnoPWR.c **** * physical pin.
 129:Generated_Source\PSoC4/EnoPWR.c **** *
 130:Generated_Source\PSoC4/EnoPWR.c **** * \return 
 131:Generated_Source\PSoC4/EnoPWR.c **** *  The current value for the pins in the component as a right justified number.
 132:Generated_Source\PSoC4/EnoPWR.c **** *
 133:Generated_Source\PSoC4/EnoPWR.c **** * \funcusage
 134:Generated_Source\PSoC4/EnoPWR.c **** *  \snippet EnoPWR_SUT.c usage_EnoPWR_Read  
 135:Generated_Source\PSoC4/EnoPWR.c **** *******************************************************************************/
 136:Generated_Source\PSoC4/EnoPWR.c **** uint8 EnoPWR_Read(void)
 137:Generated_Source\PSoC4/EnoPWR.c **** {
 139              		.loc 1 137 0
 140              		.cfi_startproc
 141              		@ args = 0, pretend = 0, frame = 0
 142              		@ frame_needed = 1, uses_anonymous_args = 0
 143 0000 80B5     		push	{r7, lr}
 144              		.cfi_def_cfa_offset 8
 145              		.cfi_offset 7, -8
 146              		.cfi_offset 14, -4
 147 0002 00AF     		add	r7, sp, #0
 148              		.cfi_def_cfa_register 7
ARM GAS  C:\Users\ELEASO~1\AppData\Local\Temp\ccWHKYqp.s 			page 6


 138:Generated_Source\PSoC4/EnoPWR.c ****     return (uint8)((EnoPWR_PS & EnoPWR_MASK) >> EnoPWR_SHIFT);
 149              		.loc 1 138 0
 150 0004 044B     		ldr	r3, .L9
 151 0006 1B68     		ldr	r3, [r3]
 152 0008 8022     		movs	r2, #128
 153 000a 1340     		ands	r3, r2
 154 000c DB09     		lsrs	r3, r3, #7
 155 000e DBB2     		uxtb	r3, r3
 139:Generated_Source\PSoC4/EnoPWR.c **** }
 156              		.loc 1 139 0
 157 0010 1800     		movs	r0, r3
 158 0012 BD46     		mov	sp, r7
 159              		@ sp needed
 160 0014 80BD     		pop	{r7, pc}
 161              	.L10:
 162 0016 C046     		.align	2
 163              	.L9:
 164 0018 04030440 		.word	1074004740
 165              		.cfi_endproc
 166              	.LFE2:
 167              		.size	EnoPWR_Read, .-EnoPWR_Read
 168              		.section	.text.EnoPWR_ReadDataReg,"ax",%progbits
 169              		.align	2
 170              		.global	EnoPWR_ReadDataReg
 171              		.code	16
 172              		.thumb_func
 173              		.type	EnoPWR_ReadDataReg, %function
 174              	EnoPWR_ReadDataReg:
 175              	.LFB3:
 140:Generated_Source\PSoC4/EnoPWR.c **** 
 141:Generated_Source\PSoC4/EnoPWR.c **** 
 142:Generated_Source\PSoC4/EnoPWR.c **** /*******************************************************************************
 143:Generated_Source\PSoC4/EnoPWR.c **** * Function Name: EnoPWR_ReadDataReg
 144:Generated_Source\PSoC4/EnoPWR.c **** ****************************************************************************//**
 145:Generated_Source\PSoC4/EnoPWR.c **** *
 146:Generated_Source\PSoC4/EnoPWR.c **** * \brief Reads the associated physical port's data output register and masks 
 147:Generated_Source\PSoC4/EnoPWR.c **** *  the correct bits according to the width and bit position of the component 
 148:Generated_Source\PSoC4/EnoPWR.c **** *  instance. 
 149:Generated_Source\PSoC4/EnoPWR.c **** *
 150:Generated_Source\PSoC4/EnoPWR.c **** * The data output register controls the signal applied to the physical pin in 
 151:Generated_Source\PSoC4/EnoPWR.c **** * conjunction with the drive mode parameter. This is not the same as the 
 152:Generated_Source\PSoC4/EnoPWR.c **** * preferred EnoPWR_Read() API because the 
 153:Generated_Source\PSoC4/EnoPWR.c **** * EnoPWR_ReadDataReg() reads the data register instead of the status 
 154:Generated_Source\PSoC4/EnoPWR.c **** * register. For output pins this is a useful function to determine the value 
 155:Generated_Source\PSoC4/EnoPWR.c **** * just written to the pin.
 156:Generated_Source\PSoC4/EnoPWR.c **** *
 157:Generated_Source\PSoC4/EnoPWR.c **** * \return 
 158:Generated_Source\PSoC4/EnoPWR.c **** *  The current value of the data register masked and shifted into a right 
 159:Generated_Source\PSoC4/EnoPWR.c **** *  justified number for the component instance.
 160:Generated_Source\PSoC4/EnoPWR.c **** *
 161:Generated_Source\PSoC4/EnoPWR.c **** * \funcusage
 162:Generated_Source\PSoC4/EnoPWR.c **** *  \snippet EnoPWR_SUT.c usage_EnoPWR_ReadDataReg 
 163:Generated_Source\PSoC4/EnoPWR.c **** *******************************************************************************/
 164:Generated_Source\PSoC4/EnoPWR.c **** uint8 EnoPWR_ReadDataReg(void)
 165:Generated_Source\PSoC4/EnoPWR.c **** {
 176              		.loc 1 165 0
 177              		.cfi_startproc
ARM GAS  C:\Users\ELEASO~1\AppData\Local\Temp\ccWHKYqp.s 			page 7


 178              		@ args = 0, pretend = 0, frame = 0
 179              		@ frame_needed = 1, uses_anonymous_args = 0
 180 0000 80B5     		push	{r7, lr}
 181              		.cfi_def_cfa_offset 8
 182              		.cfi_offset 7, -8
 183              		.cfi_offset 14, -4
 184 0002 00AF     		add	r7, sp, #0
 185              		.cfi_def_cfa_register 7
 166:Generated_Source\PSoC4/EnoPWR.c ****     return (uint8)((EnoPWR_DR & EnoPWR_MASK) >> EnoPWR_SHIFT);
 186              		.loc 1 166 0
 187 0004 044B     		ldr	r3, .L13
 188 0006 1B68     		ldr	r3, [r3]
 189 0008 8022     		movs	r2, #128
 190 000a 1340     		ands	r3, r2
 191 000c DB09     		lsrs	r3, r3, #7
 192 000e DBB2     		uxtb	r3, r3
 167:Generated_Source\PSoC4/EnoPWR.c **** }
 193              		.loc 1 167 0
 194 0010 1800     		movs	r0, r3
 195 0012 BD46     		mov	sp, r7
 196              		@ sp needed
 197 0014 80BD     		pop	{r7, pc}
 198              	.L14:
 199 0016 C046     		.align	2
 200              	.L13:
 201 0018 00030440 		.word	1074004736
 202              		.cfi_endproc
 203              	.LFE3:
 204              		.size	EnoPWR_ReadDataReg, .-EnoPWR_ReadDataReg
 205              		.section	.text.EnoPWR_SetInterruptMode,"ax",%progbits
 206              		.align	2
 207              		.global	EnoPWR_SetInterruptMode
 208              		.code	16
 209              		.thumb_func
 210              		.type	EnoPWR_SetInterruptMode, %function
 211              	EnoPWR_SetInterruptMode:
 212              	.LFB4:
 168:Generated_Source\PSoC4/EnoPWR.c **** 
 169:Generated_Source\PSoC4/EnoPWR.c **** 
 170:Generated_Source\PSoC4/EnoPWR.c **** /*******************************************************************************
 171:Generated_Source\PSoC4/EnoPWR.c **** * Function Name: EnoPWR_SetInterruptMode
 172:Generated_Source\PSoC4/EnoPWR.c **** ****************************************************************************//**
 173:Generated_Source\PSoC4/EnoPWR.c **** *
 174:Generated_Source\PSoC4/EnoPWR.c **** * \brief Configures the interrupt mode for each of the Pins component's
 175:Generated_Source\PSoC4/EnoPWR.c **** *  pins. Alternatively you may set the interrupt mode for all the pins
 176:Generated_Source\PSoC4/EnoPWR.c **** *  specified in the Pins component.
 177:Generated_Source\PSoC4/EnoPWR.c **** *
 178:Generated_Source\PSoC4/EnoPWR.c **** *  <b>Note</b> The interrupt is port-wide and therefore any enabled pin
 179:Generated_Source\PSoC4/EnoPWR.c **** *  interrupt may trigger it.
 180:Generated_Source\PSoC4/EnoPWR.c **** *
 181:Generated_Source\PSoC4/EnoPWR.c **** * \param position
 182:Generated_Source\PSoC4/EnoPWR.c **** *  The pin position as listed in the Pins component. You may OR these to be 
 183:Generated_Source\PSoC4/EnoPWR.c **** *  able to configure the interrupt mode of multiple pins within a Pins 
 184:Generated_Source\PSoC4/EnoPWR.c **** *  component. Or you may use EnoPWR_INTR_ALL to configure the
 185:Generated_Source\PSoC4/EnoPWR.c **** *  interrupt mode of all the pins in the Pins component.       
 186:Generated_Source\PSoC4/EnoPWR.c **** *  - EnoPWR_0_INTR       (First pin in the list)
 187:Generated_Source\PSoC4/EnoPWR.c **** *  - EnoPWR_1_INTR       (Second pin in the list)
ARM GAS  C:\Users\ELEASO~1\AppData\Local\Temp\ccWHKYqp.s 			page 8


 188:Generated_Source\PSoC4/EnoPWR.c **** *  - ...
 189:Generated_Source\PSoC4/EnoPWR.c **** *  - EnoPWR_INTR_ALL     (All pins in Pins component)
 190:Generated_Source\PSoC4/EnoPWR.c **** *
 191:Generated_Source\PSoC4/EnoPWR.c **** * \param mode
 192:Generated_Source\PSoC4/EnoPWR.c **** *  Interrupt mode for the selected pins. Valid options are documented in
 193:Generated_Source\PSoC4/EnoPWR.c **** *  \ref intrMode.
 194:Generated_Source\PSoC4/EnoPWR.c **** *
 195:Generated_Source\PSoC4/EnoPWR.c **** * \return 
 196:Generated_Source\PSoC4/EnoPWR.c **** *  None
 197:Generated_Source\PSoC4/EnoPWR.c **** *  
 198:Generated_Source\PSoC4/EnoPWR.c **** * \sideeffect
 199:Generated_Source\PSoC4/EnoPWR.c **** *  It is recommended that the interrupt be disabled before calling this 
 200:Generated_Source\PSoC4/EnoPWR.c **** *  function to avoid unintended interrupt requests. Note that the interrupt
 201:Generated_Source\PSoC4/EnoPWR.c **** *  type is port wide, and therefore will trigger for any enabled pin on the 
 202:Generated_Source\PSoC4/EnoPWR.c **** *  port.
 203:Generated_Source\PSoC4/EnoPWR.c **** *
 204:Generated_Source\PSoC4/EnoPWR.c **** * \funcusage
 205:Generated_Source\PSoC4/EnoPWR.c **** *  \snippet EnoPWR_SUT.c usage_EnoPWR_SetInterruptMode
 206:Generated_Source\PSoC4/EnoPWR.c **** *******************************************************************************/
 207:Generated_Source\PSoC4/EnoPWR.c **** void EnoPWR_SetInterruptMode(uint16 position, uint16 mode)
 208:Generated_Source\PSoC4/EnoPWR.c **** {
 213              		.loc 1 208 0
 214              		.cfi_startproc
 215              		@ args = 0, pretend = 0, frame = 16
 216              		@ frame_needed = 1, uses_anonymous_args = 0
 217 0000 80B5     		push	{r7, lr}
 218              		.cfi_def_cfa_offset 8
 219              		.cfi_offset 7, -8
 220              		.cfi_offset 14, -4
 221 0002 84B0     		sub	sp, sp, #16
 222              		.cfi_def_cfa_offset 24
 223 0004 00AF     		add	r7, sp, #0
 224              		.cfi_def_cfa_register 7
 225 0006 0200     		movs	r2, r0
 226 0008 BB1D     		adds	r3, r7, #6
 227 000a 1A80     		strh	r2, [r3]
 228 000c 3B1D     		adds	r3, r7, #4
 229 000e 0A1C     		adds	r2, r1, #0
 230 0010 1A80     		strh	r2, [r3]
 209:Generated_Source\PSoC4/EnoPWR.c ****     uint32 intrCfg;
 210:Generated_Source\PSoC4/EnoPWR.c ****     
 211:Generated_Source\PSoC4/EnoPWR.c ****     intrCfg =  EnoPWR_INTCFG & (uint32)(~(uint32)position);
 231              		.loc 1 211 0
 232 0012 0B4B     		ldr	r3, .L16
 233 0014 1B68     		ldr	r3, [r3]
 234 0016 BA1D     		adds	r2, r7, #6
 235 0018 1288     		ldrh	r2, [r2]
 236 001a D243     		mvns	r2, r2
 237 001c 1340     		ands	r3, r2
 238 001e FB60     		str	r3, [r7, #12]
 212:Generated_Source\PSoC4/EnoPWR.c ****     EnoPWR_INTCFG = intrCfg | ((uint32)position & (uint32)mode);
 239              		.loc 1 212 0
 240 0020 074B     		ldr	r3, .L16
 241 0022 BA1D     		adds	r2, r7, #6
 242 0024 391D     		adds	r1, r7, #4
 243 0026 1288     		ldrh	r2, [r2]
 244 0028 0988     		ldrh	r1, [r1]
ARM GAS  C:\Users\ELEASO~1\AppData\Local\Temp\ccWHKYqp.s 			page 9


 245 002a 0A40     		ands	r2, r1
 246 002c 92B2     		uxth	r2, r2
 247 002e 1100     		movs	r1, r2
 248 0030 FA68     		ldr	r2, [r7, #12]
 249 0032 0A43     		orrs	r2, r1
 250 0034 1A60     		str	r2, [r3]
 213:Generated_Source\PSoC4/EnoPWR.c **** }
 251              		.loc 1 213 0
 252 0036 C046     		nop
 253 0038 BD46     		mov	sp, r7
 254 003a 04B0     		add	sp, sp, #16
 255              		@ sp needed
 256 003c 80BD     		pop	{r7, pc}
 257              	.L17:
 258 003e C046     		.align	2
 259              	.L16:
 260 0040 0C030440 		.word	1074004748
 261              		.cfi_endproc
 262              	.LFE4:
 263              		.size	EnoPWR_SetInterruptMode, .-EnoPWR_SetInterruptMode
 264              		.section	.text.EnoPWR_ClearInterrupt,"ax",%progbits
 265              		.align	2
 266              		.global	EnoPWR_ClearInterrupt
 267              		.code	16
 268              		.thumb_func
 269              		.type	EnoPWR_ClearInterrupt, %function
 270              	EnoPWR_ClearInterrupt:
 271              	.LFB5:
 214:Generated_Source\PSoC4/EnoPWR.c **** 
 215:Generated_Source\PSoC4/EnoPWR.c **** 
 216:Generated_Source\PSoC4/EnoPWR.c **** /*******************************************************************************
 217:Generated_Source\PSoC4/EnoPWR.c **** * Function Name: EnoPWR_ClearInterrupt
 218:Generated_Source\PSoC4/EnoPWR.c **** ****************************************************************************//**
 219:Generated_Source\PSoC4/EnoPWR.c **** *
 220:Generated_Source\PSoC4/EnoPWR.c **** * \brief Clears any active interrupts attached with the component and returns 
 221:Generated_Source\PSoC4/EnoPWR.c **** *  the value of the interrupt status register allowing determination of which
 222:Generated_Source\PSoC4/EnoPWR.c **** *  pins generated an interrupt event.
 223:Generated_Source\PSoC4/EnoPWR.c **** *
 224:Generated_Source\PSoC4/EnoPWR.c **** * \return 
 225:Generated_Source\PSoC4/EnoPWR.c **** *  The right-shifted current value of the interrupt status register. Each pin 
 226:Generated_Source\PSoC4/EnoPWR.c **** *  has one bit set if it generated an interrupt event. For example, bit 0 is 
 227:Generated_Source\PSoC4/EnoPWR.c **** *  for pin 0 and bit 1 is for pin 1 of the Pins component.
 228:Generated_Source\PSoC4/EnoPWR.c **** *  
 229:Generated_Source\PSoC4/EnoPWR.c **** * \sideeffect
 230:Generated_Source\PSoC4/EnoPWR.c **** *  Clears all bits of the physical port's interrupt status register, not just
 231:Generated_Source\PSoC4/EnoPWR.c **** *  those associated with the Pins component.
 232:Generated_Source\PSoC4/EnoPWR.c **** *
 233:Generated_Source\PSoC4/EnoPWR.c **** * \funcusage
 234:Generated_Source\PSoC4/EnoPWR.c **** *  \snippet EnoPWR_SUT.c usage_EnoPWR_ClearInterrupt
 235:Generated_Source\PSoC4/EnoPWR.c **** *******************************************************************************/
 236:Generated_Source\PSoC4/EnoPWR.c **** uint8 EnoPWR_ClearInterrupt(void)
 237:Generated_Source\PSoC4/EnoPWR.c **** {
 272              		.loc 1 237 0
 273              		.cfi_startproc
 274              		@ args = 0, pretend = 0, frame = 8
 275              		@ frame_needed = 1, uses_anonymous_args = 0
 276 0000 80B5     		push	{r7, lr}
ARM GAS  C:\Users\ELEASO~1\AppData\Local\Temp\ccWHKYqp.s 			page 10


 277              		.cfi_def_cfa_offset 8
 278              		.cfi_offset 7, -8
 279              		.cfi_offset 14, -4
 280 0002 82B0     		sub	sp, sp, #8
 281              		.cfi_def_cfa_offset 16
 282 0004 00AF     		add	r7, sp, #0
 283              		.cfi_def_cfa_register 7
 238:Generated_Source\PSoC4/EnoPWR.c **** 	uint8 maskedStatus = (uint8)(EnoPWR_INTSTAT & EnoPWR_MASK);
 284              		.loc 1 238 0
 285 0006 094B     		ldr	r3, .L20
 286 0008 1B68     		ldr	r3, [r3]
 287 000a DAB2     		uxtb	r2, r3
 288 000c FB1D     		adds	r3, r7, #7
 289 000e 7F21     		movs	r1, #127
 290 0010 8A43     		bics	r2, r1
 291 0012 1A70     		strb	r2, [r3]
 239:Generated_Source\PSoC4/EnoPWR.c **** 	EnoPWR_INTSTAT = maskedStatus;
 292              		.loc 1 239 0
 293 0014 054B     		ldr	r3, .L20
 294 0016 FA1D     		adds	r2, r7, #7
 295 0018 1278     		ldrb	r2, [r2]
 296 001a 1A60     		str	r2, [r3]
 240:Generated_Source\PSoC4/EnoPWR.c ****     return maskedStatus >> EnoPWR_SHIFT;
 297              		.loc 1 240 0
 298 001c FB1D     		adds	r3, r7, #7
 299 001e 1B78     		ldrb	r3, [r3]
 300 0020 DB09     		lsrs	r3, r3, #7
 301 0022 DBB2     		uxtb	r3, r3
 241:Generated_Source\PSoC4/EnoPWR.c **** }
 302              		.loc 1 241 0
 303 0024 1800     		movs	r0, r3
 304 0026 BD46     		mov	sp, r7
 305 0028 02B0     		add	sp, sp, #8
 306              		@ sp needed
 307 002a 80BD     		pop	{r7, pc}
 308              	.L21:
 309              		.align	2
 310              	.L20:
 311 002c 10030440 		.word	1074004752
 312              		.cfi_endproc
 313              	.LFE5:
 314              		.size	EnoPWR_ClearInterrupt, .-EnoPWR_ClearInterrupt
 315              		.text
 316              	.Letext0:
 317              		.file 2 "Generated_Source\\PSoC4\\cytypes.h"
