ARM GAS  C:\Users\ELEASO~1\AppData\Local\Temp\ccxias3I.s 			page 1


   1              		.syntax unified
   2              		.cpu cortex-m0
   3              		.fpu softvfp
   4              		.eabi_attribute 20, 1
   5              		.eabi_attribute 21, 1
   6              		.eabi_attribute 23, 3
   7              		.eabi_attribute 24, 1
   8              		.eabi_attribute 25, 1
   9              		.eabi_attribute 26, 1
  10              		.eabi_attribute 30, 6
  11              		.eabi_attribute 34, 0
  12              		.eabi_attribute 18, 4
  13              		.thumb
  14              		.syntax unified
  15              		.file	"EnoUART_SPI_UART.c"
  16              		.text
  17              	.Ltext0:
  18              		.cfi_sections	.debug_frame
  19              		.section	.text.EnoUART_SpiUartReadRxData,"ax",%progbits
  20              		.align	2
  21              		.global	EnoUART_SpiUartReadRxData
  22              		.code	16
  23              		.thumb_func
  24              		.type	EnoUART_SpiUartReadRxData, %function
  25              	EnoUART_SpiUartReadRxData:
  26              	.LFB2:
  27              		.file 1 "Generated_Source\\PSoC4\\EnoUART_SPI_UART.c"
   1:Generated_Source\PSoC4/EnoUART_SPI_UART.c **** /***************************************************************************//**
   2:Generated_Source\PSoC4/EnoUART_SPI_UART.c **** * \file EnoUART_SPI_UART.c
   3:Generated_Source\PSoC4/EnoUART_SPI_UART.c **** * \version 4.0
   4:Generated_Source\PSoC4/EnoUART_SPI_UART.c **** *
   5:Generated_Source\PSoC4/EnoUART_SPI_UART.c **** * \brief
   6:Generated_Source\PSoC4/EnoUART_SPI_UART.c **** *  This file provides the source code to the API for the SCB Component in
   7:Generated_Source\PSoC4/EnoUART_SPI_UART.c **** *  SPI and UART modes.
   8:Generated_Source\PSoC4/EnoUART_SPI_UART.c **** *
   9:Generated_Source\PSoC4/EnoUART_SPI_UART.c **** * Note:
  10:Generated_Source\PSoC4/EnoUART_SPI_UART.c **** *
  11:Generated_Source\PSoC4/EnoUART_SPI_UART.c **** *******************************************************************************
  12:Generated_Source\PSoC4/EnoUART_SPI_UART.c **** * \copyright
  13:Generated_Source\PSoC4/EnoUART_SPI_UART.c **** * Copyright 2013-2017, Cypress Semiconductor Corporation.  All rights reserved.
  14:Generated_Source\PSoC4/EnoUART_SPI_UART.c **** * You may use this file only in accordance with the license, terms, conditions,
  15:Generated_Source\PSoC4/EnoUART_SPI_UART.c **** * disclaimers, and limitations in the end user license agreement accompanying
  16:Generated_Source\PSoC4/EnoUART_SPI_UART.c **** * the software package with which this file was provided.
  17:Generated_Source\PSoC4/EnoUART_SPI_UART.c **** *******************************************************************************/
  18:Generated_Source\PSoC4/EnoUART_SPI_UART.c **** 
  19:Generated_Source\PSoC4/EnoUART_SPI_UART.c **** #include "EnoUART_PVT.h"
  20:Generated_Source\PSoC4/EnoUART_SPI_UART.c **** #include "EnoUART_SPI_UART_PVT.h"
  21:Generated_Source\PSoC4/EnoUART_SPI_UART.c **** 
  22:Generated_Source\PSoC4/EnoUART_SPI_UART.c **** /***************************************
  23:Generated_Source\PSoC4/EnoUART_SPI_UART.c **** *        SPI/UART Private Vars
  24:Generated_Source\PSoC4/EnoUART_SPI_UART.c **** ***************************************/
  25:Generated_Source\PSoC4/EnoUART_SPI_UART.c **** 
  26:Generated_Source\PSoC4/EnoUART_SPI_UART.c **** #if(EnoUART_INTERNAL_RX_SW_BUFFER_CONST)
  27:Generated_Source\PSoC4/EnoUART_SPI_UART.c ****     /* Start index to put data into the software receive buffer.*/
  28:Generated_Source\PSoC4/EnoUART_SPI_UART.c ****     volatile uint32 EnoUART_rxBufferHead;
  29:Generated_Source\PSoC4/EnoUART_SPI_UART.c ****     /* Start index to get data from the software receive buffer.*/
  30:Generated_Source\PSoC4/EnoUART_SPI_UART.c ****     volatile uint32 EnoUART_rxBufferTail;
ARM GAS  C:\Users\ELEASO~1\AppData\Local\Temp\ccxias3I.s 			page 2


  31:Generated_Source\PSoC4/EnoUART_SPI_UART.c ****     /**
  32:Generated_Source\PSoC4/EnoUART_SPI_UART.c ****     * \addtogroup group_globals
  33:Generated_Source\PSoC4/EnoUART_SPI_UART.c ****     * \{
  34:Generated_Source\PSoC4/EnoUART_SPI_UART.c ****     */
  35:Generated_Source\PSoC4/EnoUART_SPI_UART.c ****     /** Sets when internal software receive buffer overflow
  36:Generated_Source\PSoC4/EnoUART_SPI_UART.c ****     *  was occurred.
  37:Generated_Source\PSoC4/EnoUART_SPI_UART.c ****     */
  38:Generated_Source\PSoC4/EnoUART_SPI_UART.c ****     volatile uint8  EnoUART_rxBufferOverflow;
  39:Generated_Source\PSoC4/EnoUART_SPI_UART.c ****     /** \} globals */
  40:Generated_Source\PSoC4/EnoUART_SPI_UART.c **** #endif /* (EnoUART_INTERNAL_RX_SW_BUFFER_CONST) */
  41:Generated_Source\PSoC4/EnoUART_SPI_UART.c **** 
  42:Generated_Source\PSoC4/EnoUART_SPI_UART.c **** #if(EnoUART_INTERNAL_TX_SW_BUFFER_CONST)
  43:Generated_Source\PSoC4/EnoUART_SPI_UART.c ****     /* Start index to put data into the software transmit buffer.*/
  44:Generated_Source\PSoC4/EnoUART_SPI_UART.c ****     volatile uint32 EnoUART_txBufferHead;
  45:Generated_Source\PSoC4/EnoUART_SPI_UART.c ****     /* Start index to get data from the software transmit buffer.*/
  46:Generated_Source\PSoC4/EnoUART_SPI_UART.c ****     volatile uint32 EnoUART_txBufferTail;
  47:Generated_Source\PSoC4/EnoUART_SPI_UART.c **** #endif /* (EnoUART_INTERNAL_TX_SW_BUFFER_CONST) */
  48:Generated_Source\PSoC4/EnoUART_SPI_UART.c **** 
  49:Generated_Source\PSoC4/EnoUART_SPI_UART.c **** #if(EnoUART_INTERNAL_RX_SW_BUFFER)
  50:Generated_Source\PSoC4/EnoUART_SPI_UART.c ****     /* Add one element to the buffer to receive full packet. One byte in receive buffer is always e
  51:Generated_Source\PSoC4/EnoUART_SPI_UART.c ****     volatile uint8 EnoUART_rxBufferInternal[EnoUART_INTERNAL_RX_BUFFER_SIZE];
  52:Generated_Source\PSoC4/EnoUART_SPI_UART.c **** #endif /* (EnoUART_INTERNAL_RX_SW_BUFFER) */
  53:Generated_Source\PSoC4/EnoUART_SPI_UART.c **** 
  54:Generated_Source\PSoC4/EnoUART_SPI_UART.c **** #if(EnoUART_INTERNAL_TX_SW_BUFFER)
  55:Generated_Source\PSoC4/EnoUART_SPI_UART.c ****     volatile uint8 EnoUART_txBufferInternal[EnoUART_TX_BUFFER_SIZE];
  56:Generated_Source\PSoC4/EnoUART_SPI_UART.c **** #endif /* (EnoUART_INTERNAL_TX_SW_BUFFER) */
  57:Generated_Source\PSoC4/EnoUART_SPI_UART.c **** 
  58:Generated_Source\PSoC4/EnoUART_SPI_UART.c **** 
  59:Generated_Source\PSoC4/EnoUART_SPI_UART.c **** #if(EnoUART_RX_DIRECTION)
  60:Generated_Source\PSoC4/EnoUART_SPI_UART.c ****     /*******************************************************************************
  61:Generated_Source\PSoC4/EnoUART_SPI_UART.c ****     * Function Name: EnoUART_SpiUartReadRxData
  62:Generated_Source\PSoC4/EnoUART_SPI_UART.c ****     ****************************************************************************//**
  63:Generated_Source\PSoC4/EnoUART_SPI_UART.c ****     *
  64:Generated_Source\PSoC4/EnoUART_SPI_UART.c ****     *  Retrieves the next data element from the receive buffer.
  65:Generated_Source\PSoC4/EnoUART_SPI_UART.c ****     *   - RX software buffer is disabled: Returns data element retrieved from
  66:Generated_Source\PSoC4/EnoUART_SPI_UART.c ****     *     RX FIFO. Undefined data will be returned if the RX FIFO is empty.
  67:Generated_Source\PSoC4/EnoUART_SPI_UART.c ****     *   - RX software buffer is enabled: Returns data element from the software
  68:Generated_Source\PSoC4/EnoUART_SPI_UART.c ****     *     receive buffer. Zero value is returned if the software receive buffer
  69:Generated_Source\PSoC4/EnoUART_SPI_UART.c ****     *     is empty.
  70:Generated_Source\PSoC4/EnoUART_SPI_UART.c ****     *
  71:Generated_Source\PSoC4/EnoUART_SPI_UART.c ****     * \return
  72:Generated_Source\PSoC4/EnoUART_SPI_UART.c ****     *  Next data element from the receive buffer. 
  73:Generated_Source\PSoC4/EnoUART_SPI_UART.c ****     *  The amount of data bits to be received depends on RX data bits selection 
  74:Generated_Source\PSoC4/EnoUART_SPI_UART.c ****     *  (the data bit counting starts from LSB of return value).
  75:Generated_Source\PSoC4/EnoUART_SPI_UART.c ****     *
  76:Generated_Source\PSoC4/EnoUART_SPI_UART.c ****     * \globalvars
  77:Generated_Source\PSoC4/EnoUART_SPI_UART.c ****     *  EnoUART_rxBufferHead - the start index to put data into the 
  78:Generated_Source\PSoC4/EnoUART_SPI_UART.c ****     *  software receive buffer.
  79:Generated_Source\PSoC4/EnoUART_SPI_UART.c ****     *  EnoUART_rxBufferTail - the start index to get data from the 
  80:Generated_Source\PSoC4/EnoUART_SPI_UART.c ****     *  software receive buffer.
  81:Generated_Source\PSoC4/EnoUART_SPI_UART.c ****     *
  82:Generated_Source\PSoC4/EnoUART_SPI_UART.c ****     *******************************************************************************/
  83:Generated_Source\PSoC4/EnoUART_SPI_UART.c ****     uint32 EnoUART_SpiUartReadRxData(void)
  84:Generated_Source\PSoC4/EnoUART_SPI_UART.c ****     {
  28              		.loc 1 84 0
  29              		.cfi_startproc
  30              		@ args = 0, pretend = 0, frame = 8
ARM GAS  C:\Users\ELEASO~1\AppData\Local\Temp\ccxias3I.s 			page 3


  31              		@ frame_needed = 1, uses_anonymous_args = 0
  32 0000 80B5     		push	{r7, lr}
  33              		.cfi_def_cfa_offset 8
  34              		.cfi_offset 7, -8
  35              		.cfi_offset 14, -4
  36 0002 82B0     		sub	sp, sp, #8
  37              		.cfi_def_cfa_offset 16
  38 0004 00AF     		add	r7, sp, #0
  39              		.cfi_def_cfa_register 7
  85:Generated_Source\PSoC4/EnoUART_SPI_UART.c ****         uint32 rxData = 0u;
  40              		.loc 1 85 0
  41 0006 0023     		movs	r3, #0
  42 0008 7B60     		str	r3, [r7, #4]
  86:Generated_Source\PSoC4/EnoUART_SPI_UART.c **** 
  87:Generated_Source\PSoC4/EnoUART_SPI_UART.c ****     #if (EnoUART_INTERNAL_RX_SW_BUFFER_CONST)
  88:Generated_Source\PSoC4/EnoUART_SPI_UART.c ****         uint32 locTail;
  89:Generated_Source\PSoC4/EnoUART_SPI_UART.c ****     #endif /* (EnoUART_INTERNAL_RX_SW_BUFFER_CONST) */
  90:Generated_Source\PSoC4/EnoUART_SPI_UART.c **** 
  91:Generated_Source\PSoC4/EnoUART_SPI_UART.c ****         #if (EnoUART_CHECK_RX_SW_BUFFER)
  92:Generated_Source\PSoC4/EnoUART_SPI_UART.c ****         {
  93:Generated_Source\PSoC4/EnoUART_SPI_UART.c ****             if (EnoUART_rxBufferHead != EnoUART_rxBufferTail)
  94:Generated_Source\PSoC4/EnoUART_SPI_UART.c ****             {
  95:Generated_Source\PSoC4/EnoUART_SPI_UART.c ****                 /* There is data in RX software buffer */
  96:Generated_Source\PSoC4/EnoUART_SPI_UART.c **** 
  97:Generated_Source\PSoC4/EnoUART_SPI_UART.c ****                 /* Calculate index to read from */
  98:Generated_Source\PSoC4/EnoUART_SPI_UART.c ****                 locTail = (EnoUART_rxBufferTail + 1u);
  99:Generated_Source\PSoC4/EnoUART_SPI_UART.c **** 
 100:Generated_Source\PSoC4/EnoUART_SPI_UART.c ****                 if (EnoUART_INTERNAL_RX_BUFFER_SIZE == locTail)
 101:Generated_Source\PSoC4/EnoUART_SPI_UART.c ****                 {
 102:Generated_Source\PSoC4/EnoUART_SPI_UART.c ****                     locTail = 0u;
 103:Generated_Source\PSoC4/EnoUART_SPI_UART.c ****                 }
 104:Generated_Source\PSoC4/EnoUART_SPI_UART.c **** 
 105:Generated_Source\PSoC4/EnoUART_SPI_UART.c ****                 /* Get data from RX software buffer */
 106:Generated_Source\PSoC4/EnoUART_SPI_UART.c ****                 rxData = EnoUART_GetWordFromRxBuffer(locTail);
 107:Generated_Source\PSoC4/EnoUART_SPI_UART.c **** 
 108:Generated_Source\PSoC4/EnoUART_SPI_UART.c ****                 /* Change index in the buffer */
 109:Generated_Source\PSoC4/EnoUART_SPI_UART.c ****                 EnoUART_rxBufferTail = locTail;
 110:Generated_Source\PSoC4/EnoUART_SPI_UART.c **** 
 111:Generated_Source\PSoC4/EnoUART_SPI_UART.c ****                 #if (EnoUART_CHECK_UART_RTS_CONTROL_FLOW)
 112:Generated_Source\PSoC4/EnoUART_SPI_UART.c ****                 {
 113:Generated_Source\PSoC4/EnoUART_SPI_UART.c ****                     /* Check if RX Not Empty is disabled in the interrupt */
 114:Generated_Source\PSoC4/EnoUART_SPI_UART.c ****                     if (0u == (EnoUART_INTR_RX_MASK_REG & EnoUART_INTR_RX_NOT_EMPTY))
 115:Generated_Source\PSoC4/EnoUART_SPI_UART.c ****                     {
 116:Generated_Source\PSoC4/EnoUART_SPI_UART.c ****                         /* Enable RX Not Empty interrupt source to continue
 117:Generated_Source\PSoC4/EnoUART_SPI_UART.c ****                         * receiving data into software buffer.
 118:Generated_Source\PSoC4/EnoUART_SPI_UART.c ****                         */
 119:Generated_Source\PSoC4/EnoUART_SPI_UART.c ****                         EnoUART_INTR_RX_MASK_REG |= EnoUART_INTR_RX_NOT_EMPTY;
 120:Generated_Source\PSoC4/EnoUART_SPI_UART.c ****                     }
 121:Generated_Source\PSoC4/EnoUART_SPI_UART.c ****                 }
 122:Generated_Source\PSoC4/EnoUART_SPI_UART.c ****                 #endif
 123:Generated_Source\PSoC4/EnoUART_SPI_UART.c **** 
 124:Generated_Source\PSoC4/EnoUART_SPI_UART.c ****             }
 125:Generated_Source\PSoC4/EnoUART_SPI_UART.c ****         }
 126:Generated_Source\PSoC4/EnoUART_SPI_UART.c ****         #else
 127:Generated_Source\PSoC4/EnoUART_SPI_UART.c ****         {
 128:Generated_Source\PSoC4/EnoUART_SPI_UART.c ****             /* Read data from RX FIFO */
 129:Generated_Source\PSoC4/EnoUART_SPI_UART.c ****             rxData = EnoUART_RX_FIFO_RD_REG;
ARM GAS  C:\Users\ELEASO~1\AppData\Local\Temp\ccxias3I.s 			page 4


  43              		.loc 1 129 0
  44 000a 044B     		ldr	r3, .L3
  45 000c 1B68     		ldr	r3, [r3]
  46 000e 7B60     		str	r3, [r7, #4]
 130:Generated_Source\PSoC4/EnoUART_SPI_UART.c ****         }
 131:Generated_Source\PSoC4/EnoUART_SPI_UART.c ****         #endif
 132:Generated_Source\PSoC4/EnoUART_SPI_UART.c **** 
 133:Generated_Source\PSoC4/EnoUART_SPI_UART.c ****         return (rxData);
  47              		.loc 1 133 0
  48 0010 7B68     		ldr	r3, [r7, #4]
 134:Generated_Source\PSoC4/EnoUART_SPI_UART.c ****     }
  49              		.loc 1 134 0
  50 0012 1800     		movs	r0, r3
  51 0014 BD46     		mov	sp, r7
  52 0016 02B0     		add	sp, sp, #8
  53              		@ sp needed
  54 0018 80BD     		pop	{r7, pc}
  55              	.L4:
  56 001a C046     		.align	2
  57              	.L3:
  58 001c 40032540 		.word	1076167488
  59              		.cfi_endproc
  60              	.LFE2:
  61              		.size	EnoUART_SpiUartReadRxData, .-EnoUART_SpiUartReadRxData
  62              		.section	.text.EnoUART_SpiUartGetRxBufferSize,"ax",%progbits
  63              		.align	2
  64              		.global	EnoUART_SpiUartGetRxBufferSize
  65              		.code	16
  66              		.thumb_func
  67              		.type	EnoUART_SpiUartGetRxBufferSize, %function
  68              	EnoUART_SpiUartGetRxBufferSize:
  69              	.LFB3:
 135:Generated_Source\PSoC4/EnoUART_SPI_UART.c **** 
 136:Generated_Source\PSoC4/EnoUART_SPI_UART.c **** 
 137:Generated_Source\PSoC4/EnoUART_SPI_UART.c ****     /*******************************************************************************
 138:Generated_Source\PSoC4/EnoUART_SPI_UART.c ****     * Function Name: EnoUART_SpiUartGetRxBufferSize
 139:Generated_Source\PSoC4/EnoUART_SPI_UART.c ****     ****************************************************************************//**
 140:Generated_Source\PSoC4/EnoUART_SPI_UART.c ****     *
 141:Generated_Source\PSoC4/EnoUART_SPI_UART.c ****     *  Returns the number of received data elements in the receive buffer.
 142:Generated_Source\PSoC4/EnoUART_SPI_UART.c ****     *   - RX software buffer disabled: returns the number of used entries in
 143:Generated_Source\PSoC4/EnoUART_SPI_UART.c ****     *     RX FIFO.
 144:Generated_Source\PSoC4/EnoUART_SPI_UART.c ****     *   - RX software buffer enabled: returns the number of elements which were
 145:Generated_Source\PSoC4/EnoUART_SPI_UART.c ****     *     placed in the receive buffer. This does not include the hardware RX FIFO.
 146:Generated_Source\PSoC4/EnoUART_SPI_UART.c ****     *
 147:Generated_Source\PSoC4/EnoUART_SPI_UART.c ****     * \return
 148:Generated_Source\PSoC4/EnoUART_SPI_UART.c ****     *  Number of received data elements.
 149:Generated_Source\PSoC4/EnoUART_SPI_UART.c ****     *
 150:Generated_Source\PSoC4/EnoUART_SPI_UART.c ****     * \globalvars
 151:Generated_Source\PSoC4/EnoUART_SPI_UART.c ****     *  EnoUART_rxBufferHead - the start index to put data into the 
 152:Generated_Source\PSoC4/EnoUART_SPI_UART.c ****     *  software receive buffer.
 153:Generated_Source\PSoC4/EnoUART_SPI_UART.c ****     *  EnoUART_rxBufferTail - the start index to get data from the 
 154:Generated_Source\PSoC4/EnoUART_SPI_UART.c ****     *  software receive buffer.
 155:Generated_Source\PSoC4/EnoUART_SPI_UART.c ****     *
 156:Generated_Source\PSoC4/EnoUART_SPI_UART.c ****     *******************************************************************************/
 157:Generated_Source\PSoC4/EnoUART_SPI_UART.c ****     uint32 EnoUART_SpiUartGetRxBufferSize(void)
 158:Generated_Source\PSoC4/EnoUART_SPI_UART.c ****     {
  70              		.loc 1 158 0
ARM GAS  C:\Users\ELEASO~1\AppData\Local\Temp\ccxias3I.s 			page 5


  71              		.cfi_startproc
  72              		@ args = 0, pretend = 0, frame = 8
  73              		@ frame_needed = 1, uses_anonymous_args = 0
  74 0000 80B5     		push	{r7, lr}
  75              		.cfi_def_cfa_offset 8
  76              		.cfi_offset 7, -8
  77              		.cfi_offset 14, -4
  78 0002 82B0     		sub	sp, sp, #8
  79              		.cfi_def_cfa_offset 16
  80 0004 00AF     		add	r7, sp, #0
  81              		.cfi_def_cfa_register 7
 159:Generated_Source\PSoC4/EnoUART_SPI_UART.c ****         uint32 size;
 160:Generated_Source\PSoC4/EnoUART_SPI_UART.c ****     #if (EnoUART_INTERNAL_RX_SW_BUFFER_CONST)
 161:Generated_Source\PSoC4/EnoUART_SPI_UART.c ****         uint32 locHead;
 162:Generated_Source\PSoC4/EnoUART_SPI_UART.c ****     #endif /* (EnoUART_INTERNAL_RX_SW_BUFFER_CONST) */
 163:Generated_Source\PSoC4/EnoUART_SPI_UART.c **** 
 164:Generated_Source\PSoC4/EnoUART_SPI_UART.c ****         #if (EnoUART_CHECK_RX_SW_BUFFER)
 165:Generated_Source\PSoC4/EnoUART_SPI_UART.c ****         {
 166:Generated_Source\PSoC4/EnoUART_SPI_UART.c ****             locHead = EnoUART_rxBufferHead;
 167:Generated_Source\PSoC4/EnoUART_SPI_UART.c **** 
 168:Generated_Source\PSoC4/EnoUART_SPI_UART.c ****             if(locHead >= EnoUART_rxBufferTail)
 169:Generated_Source\PSoC4/EnoUART_SPI_UART.c ****             {
 170:Generated_Source\PSoC4/EnoUART_SPI_UART.c ****                 size = (locHead - EnoUART_rxBufferTail);
 171:Generated_Source\PSoC4/EnoUART_SPI_UART.c ****             }
 172:Generated_Source\PSoC4/EnoUART_SPI_UART.c ****             else
 173:Generated_Source\PSoC4/EnoUART_SPI_UART.c ****             {
 174:Generated_Source\PSoC4/EnoUART_SPI_UART.c ****                 size = (locHead + (EnoUART_INTERNAL_RX_BUFFER_SIZE - EnoUART_rxBufferTail));
 175:Generated_Source\PSoC4/EnoUART_SPI_UART.c ****             }
 176:Generated_Source\PSoC4/EnoUART_SPI_UART.c ****         }
 177:Generated_Source\PSoC4/EnoUART_SPI_UART.c ****         #else
 178:Generated_Source\PSoC4/EnoUART_SPI_UART.c ****         {
 179:Generated_Source\PSoC4/EnoUART_SPI_UART.c ****             size = EnoUART_GET_RX_FIFO_ENTRIES;
  82              		.loc 1 179 0
  83 0006 054B     		ldr	r3, .L7
  84 0008 1B68     		ldr	r3, [r3]
  85 000a 1F22     		movs	r2, #31
  86 000c 1340     		ands	r3, r2
  87 000e 7B60     		str	r3, [r7, #4]
 180:Generated_Source\PSoC4/EnoUART_SPI_UART.c ****         }
 181:Generated_Source\PSoC4/EnoUART_SPI_UART.c ****         #endif
 182:Generated_Source\PSoC4/EnoUART_SPI_UART.c **** 
 183:Generated_Source\PSoC4/EnoUART_SPI_UART.c ****         return (size);
  88              		.loc 1 183 0
  89 0010 7B68     		ldr	r3, [r7, #4]
 184:Generated_Source\PSoC4/EnoUART_SPI_UART.c ****     }
  90              		.loc 1 184 0
  91 0012 1800     		movs	r0, r3
  92 0014 BD46     		mov	sp, r7
  93 0016 02B0     		add	sp, sp, #8
  94              		@ sp needed
  95 0018 80BD     		pop	{r7, pc}
  96              	.L8:
  97 001a C046     		.align	2
  98              	.L7:
  99 001c 08032540 		.word	1076167432
 100              		.cfi_endproc
 101              	.LFE3:
ARM GAS  C:\Users\ELEASO~1\AppData\Local\Temp\ccxias3I.s 			page 6


 102              		.size	EnoUART_SpiUartGetRxBufferSize, .-EnoUART_SpiUartGetRxBufferSize
 103              		.section	.text.EnoUART_SpiUartClearRxBuffer,"ax",%progbits
 104              		.align	2
 105              		.global	EnoUART_SpiUartClearRxBuffer
 106              		.code	16
 107              		.thumb_func
 108              		.type	EnoUART_SpiUartClearRxBuffer, %function
 109              	EnoUART_SpiUartClearRxBuffer:
 110              	.LFB4:
 185:Generated_Source\PSoC4/EnoUART_SPI_UART.c **** 
 186:Generated_Source\PSoC4/EnoUART_SPI_UART.c **** 
 187:Generated_Source\PSoC4/EnoUART_SPI_UART.c ****     /*******************************************************************************
 188:Generated_Source\PSoC4/EnoUART_SPI_UART.c ****     * Function Name: EnoUART_SpiUartClearRxBuffer
 189:Generated_Source\PSoC4/EnoUART_SPI_UART.c ****     ****************************************************************************//**
 190:Generated_Source\PSoC4/EnoUART_SPI_UART.c ****     *
 191:Generated_Source\PSoC4/EnoUART_SPI_UART.c ****     *  Clears the receive buffer and RX FIFO.
 192:Generated_Source\PSoC4/EnoUART_SPI_UART.c ****     *
 193:Generated_Source\PSoC4/EnoUART_SPI_UART.c ****     * \globalvars
 194:Generated_Source\PSoC4/EnoUART_SPI_UART.c ****     *  EnoUART_rxBufferHead - the start index to put data into the 
 195:Generated_Source\PSoC4/EnoUART_SPI_UART.c ****     *  software receive buffer.
 196:Generated_Source\PSoC4/EnoUART_SPI_UART.c ****     *  EnoUART_rxBufferTail - the start index to get data from the 
 197:Generated_Source\PSoC4/EnoUART_SPI_UART.c ****     *  software receive buffer.
 198:Generated_Source\PSoC4/EnoUART_SPI_UART.c ****     *
 199:Generated_Source\PSoC4/EnoUART_SPI_UART.c ****     *******************************************************************************/
 200:Generated_Source\PSoC4/EnoUART_SPI_UART.c ****     void EnoUART_SpiUartClearRxBuffer(void)
 201:Generated_Source\PSoC4/EnoUART_SPI_UART.c ****     {
 111              		.loc 1 201 0
 112              		.cfi_startproc
 113              		@ args = 0, pretend = 0, frame = 0
 114              		@ frame_needed = 1, uses_anonymous_args = 0
 115 0000 80B5     		push	{r7, lr}
 116              		.cfi_def_cfa_offset 8
 117              		.cfi_offset 7, -8
 118              		.cfi_offset 14, -4
 119 0002 00AF     		add	r7, sp, #0
 120              		.cfi_def_cfa_register 7
 202:Generated_Source\PSoC4/EnoUART_SPI_UART.c ****         #if (EnoUART_CHECK_RX_SW_BUFFER)
 203:Generated_Source\PSoC4/EnoUART_SPI_UART.c ****         {
 204:Generated_Source\PSoC4/EnoUART_SPI_UART.c ****             /* Lock from component interruption */
 205:Generated_Source\PSoC4/EnoUART_SPI_UART.c ****             EnoUART_DisableInt();
 206:Generated_Source\PSoC4/EnoUART_SPI_UART.c **** 
 207:Generated_Source\PSoC4/EnoUART_SPI_UART.c ****             /* Flush RX software buffer */
 208:Generated_Source\PSoC4/EnoUART_SPI_UART.c ****             EnoUART_rxBufferHead = EnoUART_rxBufferTail;
 209:Generated_Source\PSoC4/EnoUART_SPI_UART.c ****             EnoUART_rxBufferOverflow = 0u;
 210:Generated_Source\PSoC4/EnoUART_SPI_UART.c **** 
 211:Generated_Source\PSoC4/EnoUART_SPI_UART.c ****             EnoUART_CLEAR_RX_FIFO;
 212:Generated_Source\PSoC4/EnoUART_SPI_UART.c ****             EnoUART_ClearRxInterruptSource(EnoUART_INTR_RX_ALL);
 213:Generated_Source\PSoC4/EnoUART_SPI_UART.c **** 
 214:Generated_Source\PSoC4/EnoUART_SPI_UART.c ****             #if (EnoUART_CHECK_UART_RTS_CONTROL_FLOW)
 215:Generated_Source\PSoC4/EnoUART_SPI_UART.c ****             {
 216:Generated_Source\PSoC4/EnoUART_SPI_UART.c ****                 /* Enable RX Not Empty interrupt source to continue receiving
 217:Generated_Source\PSoC4/EnoUART_SPI_UART.c ****                 * data into software buffer.
 218:Generated_Source\PSoC4/EnoUART_SPI_UART.c ****                 */
 219:Generated_Source\PSoC4/EnoUART_SPI_UART.c ****                 EnoUART_INTR_RX_MASK_REG |= EnoUART_INTR_RX_NOT_EMPTY;
 220:Generated_Source\PSoC4/EnoUART_SPI_UART.c ****             }
 221:Generated_Source\PSoC4/EnoUART_SPI_UART.c ****             #endif
 222:Generated_Source\PSoC4/EnoUART_SPI_UART.c ****             
ARM GAS  C:\Users\ELEASO~1\AppData\Local\Temp\ccxias3I.s 			page 7


 223:Generated_Source\PSoC4/EnoUART_SPI_UART.c ****             /* Release lock */
 224:Generated_Source\PSoC4/EnoUART_SPI_UART.c ****             EnoUART_EnableInt();
 225:Generated_Source\PSoC4/EnoUART_SPI_UART.c ****         }
 226:Generated_Source\PSoC4/EnoUART_SPI_UART.c ****         #else
 227:Generated_Source\PSoC4/EnoUART_SPI_UART.c ****         {
 228:Generated_Source\PSoC4/EnoUART_SPI_UART.c ****             EnoUART_CLEAR_RX_FIFO;
 121              		.loc 1 228 0
 122 0004 074B     		ldr	r3, .L10
 123 0006 074A     		ldr	r2, .L10
 124 0008 1268     		ldr	r2, [r2]
 125 000a 8021     		movs	r1, #128
 126 000c 4902     		lsls	r1, r1, #9
 127 000e 0A43     		orrs	r2, r1
 128 0010 1A60     		str	r2, [r3]
 129 0012 044B     		ldr	r3, .L10
 130 0014 034A     		ldr	r2, .L10
 131 0016 1268     		ldr	r2, [r2]
 132 0018 0349     		ldr	r1, .L10+4
 133 001a 0A40     		ands	r2, r1
 134 001c 1A60     		str	r2, [r3]
 229:Generated_Source\PSoC4/EnoUART_SPI_UART.c ****         }
 230:Generated_Source\PSoC4/EnoUART_SPI_UART.c ****         #endif
 231:Generated_Source\PSoC4/EnoUART_SPI_UART.c ****     }
 135              		.loc 1 231 0
 136 001e C046     		nop
 137 0020 BD46     		mov	sp, r7
 138              		@ sp needed
 139 0022 80BD     		pop	{r7, pc}
 140              	.L11:
 141              		.align	2
 142              	.L10:
 143 0024 04032540 		.word	1076167428
 144 0028 FFFFFEFF 		.word	-65537
 145              		.cfi_endproc
 146              	.LFE4:
 147              		.size	EnoUART_SpiUartClearRxBuffer, .-EnoUART_SpiUartClearRxBuffer
 148              		.section	.text.EnoUART_SpiUartWriteTxData,"ax",%progbits
 149              		.align	2
 150              		.global	EnoUART_SpiUartWriteTxData
 151              		.code	16
 152              		.thumb_func
 153              		.type	EnoUART_SpiUartWriteTxData, %function
 154              	EnoUART_SpiUartWriteTxData:
 155              	.LFB5:
 232:Generated_Source\PSoC4/EnoUART_SPI_UART.c **** 
 233:Generated_Source\PSoC4/EnoUART_SPI_UART.c **** #endif /* (EnoUART_RX_DIRECTION) */
 234:Generated_Source\PSoC4/EnoUART_SPI_UART.c **** 
 235:Generated_Source\PSoC4/EnoUART_SPI_UART.c **** 
 236:Generated_Source\PSoC4/EnoUART_SPI_UART.c **** #if(EnoUART_TX_DIRECTION)
 237:Generated_Source\PSoC4/EnoUART_SPI_UART.c ****     /*******************************************************************************
 238:Generated_Source\PSoC4/EnoUART_SPI_UART.c ****     * Function Name: EnoUART_SpiUartWriteTxData
 239:Generated_Source\PSoC4/EnoUART_SPI_UART.c ****     ****************************************************************************//**
 240:Generated_Source\PSoC4/EnoUART_SPI_UART.c ****     *
 241:Generated_Source\PSoC4/EnoUART_SPI_UART.c ****     *  Places a data entry into the transmit buffer to be sent at the next available
 242:Generated_Source\PSoC4/EnoUART_SPI_UART.c ****     *  bus time.
 243:Generated_Source\PSoC4/EnoUART_SPI_UART.c ****     *  This function is blocking and waits until there is space available to put the
 244:Generated_Source\PSoC4/EnoUART_SPI_UART.c ****     *  requested data in the transmit buffer.
ARM GAS  C:\Users\ELEASO~1\AppData\Local\Temp\ccxias3I.s 			page 8


 245:Generated_Source\PSoC4/EnoUART_SPI_UART.c ****     *
 246:Generated_Source\PSoC4/EnoUART_SPI_UART.c ****     *  \param txDataByte: the data to be transmitted.
 247:Generated_Source\PSoC4/EnoUART_SPI_UART.c ****     *   The amount of data bits to be transmitted depends on TX data bits selection 
 248:Generated_Source\PSoC4/EnoUART_SPI_UART.c ****     *   (the data bit counting starts from LSB of txDataByte).
 249:Generated_Source\PSoC4/EnoUART_SPI_UART.c ****     *
 250:Generated_Source\PSoC4/EnoUART_SPI_UART.c ****     * \globalvars
 251:Generated_Source\PSoC4/EnoUART_SPI_UART.c ****     *  EnoUART_txBufferHead - the start index to put data into the 
 252:Generated_Source\PSoC4/EnoUART_SPI_UART.c ****     *  software transmit buffer.
 253:Generated_Source\PSoC4/EnoUART_SPI_UART.c ****     *  EnoUART_txBufferTail - start index to get data from the software
 254:Generated_Source\PSoC4/EnoUART_SPI_UART.c ****     *  transmit buffer.
 255:Generated_Source\PSoC4/EnoUART_SPI_UART.c ****     *
 256:Generated_Source\PSoC4/EnoUART_SPI_UART.c ****     *******************************************************************************/
 257:Generated_Source\PSoC4/EnoUART_SPI_UART.c ****     void EnoUART_SpiUartWriteTxData(uint32 txData)
 258:Generated_Source\PSoC4/EnoUART_SPI_UART.c ****     {
 156              		.loc 1 258 0
 157              		.cfi_startproc
 158              		@ args = 0, pretend = 0, frame = 8
 159              		@ frame_needed = 1, uses_anonymous_args = 0
 160 0000 80B5     		push	{r7, lr}
 161              		.cfi_def_cfa_offset 8
 162              		.cfi_offset 7, -8
 163              		.cfi_offset 14, -4
 164 0002 82B0     		sub	sp, sp, #8
 165              		.cfi_def_cfa_offset 16
 166 0004 00AF     		add	r7, sp, #0
 167              		.cfi_def_cfa_register 7
 168 0006 7860     		str	r0, [r7, #4]
 259:Generated_Source\PSoC4/EnoUART_SPI_UART.c ****     #if (EnoUART_INTERNAL_TX_SW_BUFFER_CONST)
 260:Generated_Source\PSoC4/EnoUART_SPI_UART.c ****         uint32 locHead;
 261:Generated_Source\PSoC4/EnoUART_SPI_UART.c ****     #endif /* (EnoUART_INTERNAL_TX_SW_BUFFER_CONST) */
 262:Generated_Source\PSoC4/EnoUART_SPI_UART.c **** 
 263:Generated_Source\PSoC4/EnoUART_SPI_UART.c ****         #if (EnoUART_CHECK_TX_SW_BUFFER)
 264:Generated_Source\PSoC4/EnoUART_SPI_UART.c ****         {
 265:Generated_Source\PSoC4/EnoUART_SPI_UART.c ****             /* Put data directly into the TX FIFO */
 266:Generated_Source\PSoC4/EnoUART_SPI_UART.c ****             if ((EnoUART_txBufferHead == EnoUART_txBufferTail) &&
 267:Generated_Source\PSoC4/EnoUART_SPI_UART.c ****                 (EnoUART_SPI_UART_FIFO_SIZE != EnoUART_GET_TX_FIFO_ENTRIES))
 268:Generated_Source\PSoC4/EnoUART_SPI_UART.c ****             {
 269:Generated_Source\PSoC4/EnoUART_SPI_UART.c ****                 /* TX software buffer is empty: put data directly in TX FIFO */
 270:Generated_Source\PSoC4/EnoUART_SPI_UART.c ****                 EnoUART_TX_FIFO_WR_REG = txData;
 271:Generated_Source\PSoC4/EnoUART_SPI_UART.c ****             }
 272:Generated_Source\PSoC4/EnoUART_SPI_UART.c ****             /* Put data into TX software buffer */
 273:Generated_Source\PSoC4/EnoUART_SPI_UART.c ****             else
 274:Generated_Source\PSoC4/EnoUART_SPI_UART.c ****             {
 275:Generated_Source\PSoC4/EnoUART_SPI_UART.c ****                 /* Head index to put data */
 276:Generated_Source\PSoC4/EnoUART_SPI_UART.c ****                 locHead = (EnoUART_txBufferHead + 1u);
 277:Generated_Source\PSoC4/EnoUART_SPI_UART.c **** 
 278:Generated_Source\PSoC4/EnoUART_SPI_UART.c ****                 /* Adjust TX software buffer index */
 279:Generated_Source\PSoC4/EnoUART_SPI_UART.c ****                 if (EnoUART_TX_BUFFER_SIZE == locHead)
 280:Generated_Source\PSoC4/EnoUART_SPI_UART.c ****                 {
 281:Generated_Source\PSoC4/EnoUART_SPI_UART.c ****                     locHead = 0u;
 282:Generated_Source\PSoC4/EnoUART_SPI_UART.c ****                 }
 283:Generated_Source\PSoC4/EnoUART_SPI_UART.c **** 
 284:Generated_Source\PSoC4/EnoUART_SPI_UART.c ****                 /* Wait for space in TX software buffer */
 285:Generated_Source\PSoC4/EnoUART_SPI_UART.c ****                 while (locHead == EnoUART_txBufferTail)
 286:Generated_Source\PSoC4/EnoUART_SPI_UART.c ****                 {
 287:Generated_Source\PSoC4/EnoUART_SPI_UART.c ****                 }
 288:Generated_Source\PSoC4/EnoUART_SPI_UART.c **** 
ARM GAS  C:\Users\ELEASO~1\AppData\Local\Temp\ccxias3I.s 			page 9


 289:Generated_Source\PSoC4/EnoUART_SPI_UART.c ****                 /* TX software buffer has at least one room */
 290:Generated_Source\PSoC4/EnoUART_SPI_UART.c **** 
 291:Generated_Source\PSoC4/EnoUART_SPI_UART.c ****                 /* Clear old status of INTR_TX_NOT_FULL. It sets at the end of transfer when TX FIF
 292:Generated_Source\PSoC4/EnoUART_SPI_UART.c ****                 EnoUART_ClearTxInterruptSource(EnoUART_INTR_TX_NOT_FULL);
 293:Generated_Source\PSoC4/EnoUART_SPI_UART.c **** 
 294:Generated_Source\PSoC4/EnoUART_SPI_UART.c ****                 EnoUART_PutWordInTxBuffer(locHead, txData);
 295:Generated_Source\PSoC4/EnoUART_SPI_UART.c **** 
 296:Generated_Source\PSoC4/EnoUART_SPI_UART.c ****                 EnoUART_txBufferHead = locHead;
 297:Generated_Source\PSoC4/EnoUART_SPI_UART.c **** 
 298:Generated_Source\PSoC4/EnoUART_SPI_UART.c ****                 /* Check if TX Not Full is disabled in interrupt */
 299:Generated_Source\PSoC4/EnoUART_SPI_UART.c ****                 if (0u == (EnoUART_INTR_TX_MASK_REG & EnoUART_INTR_TX_NOT_FULL))
 300:Generated_Source\PSoC4/EnoUART_SPI_UART.c ****                 {
 301:Generated_Source\PSoC4/EnoUART_SPI_UART.c ****                     /* Enable TX Not Full interrupt source to transmit from software buffer */
 302:Generated_Source\PSoC4/EnoUART_SPI_UART.c ****                     EnoUART_INTR_TX_MASK_REG |= (uint32) EnoUART_INTR_TX_NOT_FULL;
 303:Generated_Source\PSoC4/EnoUART_SPI_UART.c ****                 }
 304:Generated_Source\PSoC4/EnoUART_SPI_UART.c ****             }
 305:Generated_Source\PSoC4/EnoUART_SPI_UART.c ****         }
 306:Generated_Source\PSoC4/EnoUART_SPI_UART.c ****         #else
 307:Generated_Source\PSoC4/EnoUART_SPI_UART.c ****         {
 308:Generated_Source\PSoC4/EnoUART_SPI_UART.c ****             /* Wait until TX FIFO has space to put data element */
 309:Generated_Source\PSoC4/EnoUART_SPI_UART.c ****             while (EnoUART_SPI_UART_FIFO_SIZE == EnoUART_GET_TX_FIFO_ENTRIES)
 169              		.loc 1 309 0
 170 0008 C046     		nop
 171              	.L13:
 172              		.loc 1 309 0 is_stmt 0 discriminator 1
 173 000a 064B     		ldr	r3, .L14
 174 000c 1B68     		ldr	r3, [r3]
 175 000e 1F22     		movs	r2, #31
 176 0010 1340     		ands	r3, r2
 177 0012 082B     		cmp	r3, #8
 178 0014 F9D0     		beq	.L13
 310:Generated_Source\PSoC4/EnoUART_SPI_UART.c ****             {
 311:Generated_Source\PSoC4/EnoUART_SPI_UART.c ****             }
 312:Generated_Source\PSoC4/EnoUART_SPI_UART.c **** 
 313:Generated_Source\PSoC4/EnoUART_SPI_UART.c ****             EnoUART_TX_FIFO_WR_REG = txData;
 179              		.loc 1 313 0 is_stmt 1
 180 0016 044B     		ldr	r3, .L14+4
 181 0018 7A68     		ldr	r2, [r7, #4]
 182 001a 1A60     		str	r2, [r3]
 314:Generated_Source\PSoC4/EnoUART_SPI_UART.c ****         }
 315:Generated_Source\PSoC4/EnoUART_SPI_UART.c ****         #endif
 316:Generated_Source\PSoC4/EnoUART_SPI_UART.c ****     }
 183              		.loc 1 316 0
 184 001c C046     		nop
 185 001e BD46     		mov	sp, r7
 186 0020 02B0     		add	sp, sp, #8
 187              		@ sp needed
 188 0022 80BD     		pop	{r7, pc}
 189              	.L15:
 190              		.align	2
 191              	.L14:
 192 0024 08022540 		.word	1076167176
 193 0028 40022540 		.word	1076167232
 194              		.cfi_endproc
 195              	.LFE5:
 196              		.size	EnoUART_SpiUartWriteTxData, .-EnoUART_SpiUartWriteTxData
 197              		.section	.text.EnoUART_SpiUartPutArray,"ax",%progbits
ARM GAS  C:\Users\ELEASO~1\AppData\Local\Temp\ccxias3I.s 			page 10


 198              		.align	2
 199              		.global	EnoUART_SpiUartPutArray
 200              		.code	16
 201              		.thumb_func
 202              		.type	EnoUART_SpiUartPutArray, %function
 203              	EnoUART_SpiUartPutArray:
 204              	.LFB6:
 317:Generated_Source\PSoC4/EnoUART_SPI_UART.c **** 
 318:Generated_Source\PSoC4/EnoUART_SPI_UART.c **** 
 319:Generated_Source\PSoC4/EnoUART_SPI_UART.c ****     /*******************************************************************************
 320:Generated_Source\PSoC4/EnoUART_SPI_UART.c ****     * Function Name: EnoUART_SpiUartPutArray
 321:Generated_Source\PSoC4/EnoUART_SPI_UART.c ****     ****************************************************************************//**
 322:Generated_Source\PSoC4/EnoUART_SPI_UART.c ****     *
 323:Generated_Source\PSoC4/EnoUART_SPI_UART.c ****     *  Places an array of data into the transmit buffer to be sent.
 324:Generated_Source\PSoC4/EnoUART_SPI_UART.c ****     *  This function is blocking and waits until there is a space available to put
 325:Generated_Source\PSoC4/EnoUART_SPI_UART.c ****     *  all the requested data in the transmit buffer. The array size can be greater
 326:Generated_Source\PSoC4/EnoUART_SPI_UART.c ****     *  than transmit buffer size.
 327:Generated_Source\PSoC4/EnoUART_SPI_UART.c ****     *
 328:Generated_Source\PSoC4/EnoUART_SPI_UART.c ****     * \param wrBuf: pointer to an array of data to be placed in transmit buffer. 
 329:Generated_Source\PSoC4/EnoUART_SPI_UART.c ****     *  The width of the data to be transmitted depends on TX data width selection 
 330:Generated_Source\PSoC4/EnoUART_SPI_UART.c ****     *  (the data bit counting starts from LSB for each array element).
 331:Generated_Source\PSoC4/EnoUART_SPI_UART.c ****     * \param count: number of data elements to be placed in the transmit buffer.
 332:Generated_Source\PSoC4/EnoUART_SPI_UART.c ****     *
 333:Generated_Source\PSoC4/EnoUART_SPI_UART.c ****     * \globalvars
 334:Generated_Source\PSoC4/EnoUART_SPI_UART.c ****     *  EnoUART_txBufferHead - the start index to put data into the 
 335:Generated_Source\PSoC4/EnoUART_SPI_UART.c ****     *  software transmit buffer.
 336:Generated_Source\PSoC4/EnoUART_SPI_UART.c ****     *  EnoUART_txBufferTail - start index to get data from the software
 337:Generated_Source\PSoC4/EnoUART_SPI_UART.c ****     *  transmit buffer.
 338:Generated_Source\PSoC4/EnoUART_SPI_UART.c ****     *
 339:Generated_Source\PSoC4/EnoUART_SPI_UART.c ****     *******************************************************************************/
 340:Generated_Source\PSoC4/EnoUART_SPI_UART.c ****     void EnoUART_SpiUartPutArray(const uint8 wrBuf[], uint32 count)
 341:Generated_Source\PSoC4/EnoUART_SPI_UART.c ****     {
 205              		.loc 1 341 0
 206              		.cfi_startproc
 207              		@ args = 0, pretend = 0, frame = 16
 208              		@ frame_needed = 1, uses_anonymous_args = 0
 209 0000 80B5     		push	{r7, lr}
 210              		.cfi_def_cfa_offset 8
 211              		.cfi_offset 7, -8
 212              		.cfi_offset 14, -4
 213 0002 84B0     		sub	sp, sp, #16
 214              		.cfi_def_cfa_offset 24
 215 0004 00AF     		add	r7, sp, #0
 216              		.cfi_def_cfa_register 7
 217 0006 7860     		str	r0, [r7, #4]
 218 0008 3960     		str	r1, [r7]
 342:Generated_Source\PSoC4/EnoUART_SPI_UART.c ****         uint32 i;
 343:Generated_Source\PSoC4/EnoUART_SPI_UART.c **** 
 344:Generated_Source\PSoC4/EnoUART_SPI_UART.c ****         for (i=0u; i < count; i++)
 219              		.loc 1 344 0
 220 000a 0023     		movs	r3, #0
 221 000c FB60     		str	r3, [r7, #12]
 222 000e 09E0     		b	.L17
 223              	.L18:
 345:Generated_Source\PSoC4/EnoUART_SPI_UART.c ****         {
 346:Generated_Source\PSoC4/EnoUART_SPI_UART.c ****             EnoUART_SpiUartWriteTxData((uint32) wrBuf[i]);
 224              		.loc 1 346 0 discriminator 3
ARM GAS  C:\Users\ELEASO~1\AppData\Local\Temp\ccxias3I.s 			page 11


 225 0010 7A68     		ldr	r2, [r7, #4]
 226 0012 FB68     		ldr	r3, [r7, #12]
 227 0014 D318     		adds	r3, r2, r3
 228 0016 1B78     		ldrb	r3, [r3]
 229 0018 1800     		movs	r0, r3
 230 001a FFF7FEFF 		bl	EnoUART_SpiUartWriteTxData
 344:Generated_Source\PSoC4/EnoUART_SPI_UART.c ****         {
 231              		.loc 1 344 0 discriminator 3
 232 001e FB68     		ldr	r3, [r7, #12]
 233 0020 0133     		adds	r3, r3, #1
 234 0022 FB60     		str	r3, [r7, #12]
 235              	.L17:
 344:Generated_Source\PSoC4/EnoUART_SPI_UART.c ****         {
 236              		.loc 1 344 0 is_stmt 0 discriminator 1
 237 0024 FA68     		ldr	r2, [r7, #12]
 238 0026 3B68     		ldr	r3, [r7]
 239 0028 9A42     		cmp	r2, r3
 240 002a F1D3     		bcc	.L18
 347:Generated_Source\PSoC4/EnoUART_SPI_UART.c ****         }
 348:Generated_Source\PSoC4/EnoUART_SPI_UART.c ****     }
 241              		.loc 1 348 0 is_stmt 1
 242 002c C046     		nop
 243 002e BD46     		mov	sp, r7
 244 0030 04B0     		add	sp, sp, #16
 245              		@ sp needed
 246 0032 80BD     		pop	{r7, pc}
 247              		.cfi_endproc
 248              	.LFE6:
 249              		.size	EnoUART_SpiUartPutArray, .-EnoUART_SpiUartPutArray
 250              		.section	.text.EnoUART_SpiUartGetTxBufferSize,"ax",%progbits
 251              		.align	2
 252              		.global	EnoUART_SpiUartGetTxBufferSize
 253              		.code	16
 254              		.thumb_func
 255              		.type	EnoUART_SpiUartGetTxBufferSize, %function
 256              	EnoUART_SpiUartGetTxBufferSize:
 257              	.LFB7:
 349:Generated_Source\PSoC4/EnoUART_SPI_UART.c **** 
 350:Generated_Source\PSoC4/EnoUART_SPI_UART.c **** 
 351:Generated_Source\PSoC4/EnoUART_SPI_UART.c ****     /*******************************************************************************
 352:Generated_Source\PSoC4/EnoUART_SPI_UART.c ****     * Function Name: EnoUART_SpiUartGetTxBufferSize
 353:Generated_Source\PSoC4/EnoUART_SPI_UART.c ****     ****************************************************************************//**
 354:Generated_Source\PSoC4/EnoUART_SPI_UART.c ****     *
 355:Generated_Source\PSoC4/EnoUART_SPI_UART.c ****     *  Returns the number of elements currently in the transmit buffer.
 356:Generated_Source\PSoC4/EnoUART_SPI_UART.c ****     *   - TX software buffer is disabled: returns the number of used entries in
 357:Generated_Source\PSoC4/EnoUART_SPI_UART.c ****     *     TX FIFO.
 358:Generated_Source\PSoC4/EnoUART_SPI_UART.c ****     *   - TX software buffer is enabled: returns the number of elements currently
 359:Generated_Source\PSoC4/EnoUART_SPI_UART.c ****     *     used in the transmit buffer. This number does not include used entries in
 360:Generated_Source\PSoC4/EnoUART_SPI_UART.c ****     *     the TX FIFO. The transmit buffer size is zero until the TX FIFO is
 361:Generated_Source\PSoC4/EnoUART_SPI_UART.c ****     *     not full.
 362:Generated_Source\PSoC4/EnoUART_SPI_UART.c ****     *
 363:Generated_Source\PSoC4/EnoUART_SPI_UART.c ****     * \return
 364:Generated_Source\PSoC4/EnoUART_SPI_UART.c ****     *  Number of data elements ready to transmit.
 365:Generated_Source\PSoC4/EnoUART_SPI_UART.c ****     *
 366:Generated_Source\PSoC4/EnoUART_SPI_UART.c ****     * \globalvars
 367:Generated_Source\PSoC4/EnoUART_SPI_UART.c ****     *  EnoUART_txBufferHead - the start index to put data into the 
 368:Generated_Source\PSoC4/EnoUART_SPI_UART.c ****     *  software transmit buffer.
ARM GAS  C:\Users\ELEASO~1\AppData\Local\Temp\ccxias3I.s 			page 12


 369:Generated_Source\PSoC4/EnoUART_SPI_UART.c ****     *  EnoUART_txBufferTail - start index to get data from the software
 370:Generated_Source\PSoC4/EnoUART_SPI_UART.c ****     *  transmit buffer.
 371:Generated_Source\PSoC4/EnoUART_SPI_UART.c ****     *
 372:Generated_Source\PSoC4/EnoUART_SPI_UART.c ****     *******************************************************************************/
 373:Generated_Source\PSoC4/EnoUART_SPI_UART.c ****     uint32 EnoUART_SpiUartGetTxBufferSize(void)
 374:Generated_Source\PSoC4/EnoUART_SPI_UART.c ****     {
 258              		.loc 1 374 0
 259              		.cfi_startproc
 260              		@ args = 0, pretend = 0, frame = 8
 261              		@ frame_needed = 1, uses_anonymous_args = 0
 262 0000 80B5     		push	{r7, lr}
 263              		.cfi_def_cfa_offset 8
 264              		.cfi_offset 7, -8
 265              		.cfi_offset 14, -4
 266 0002 82B0     		sub	sp, sp, #8
 267              		.cfi_def_cfa_offset 16
 268 0004 00AF     		add	r7, sp, #0
 269              		.cfi_def_cfa_register 7
 375:Generated_Source\PSoC4/EnoUART_SPI_UART.c ****         uint32 size;
 376:Generated_Source\PSoC4/EnoUART_SPI_UART.c ****     #if (EnoUART_INTERNAL_TX_SW_BUFFER_CONST)
 377:Generated_Source\PSoC4/EnoUART_SPI_UART.c ****         uint32 locTail;
 378:Generated_Source\PSoC4/EnoUART_SPI_UART.c ****     #endif /* (EnoUART_INTERNAL_TX_SW_BUFFER_CONST) */
 379:Generated_Source\PSoC4/EnoUART_SPI_UART.c **** 
 380:Generated_Source\PSoC4/EnoUART_SPI_UART.c ****         #if (EnoUART_CHECK_TX_SW_BUFFER)
 381:Generated_Source\PSoC4/EnoUART_SPI_UART.c ****         {
 382:Generated_Source\PSoC4/EnoUART_SPI_UART.c ****             /* Get current Tail index */
 383:Generated_Source\PSoC4/EnoUART_SPI_UART.c ****             locTail = EnoUART_txBufferTail;
 384:Generated_Source\PSoC4/EnoUART_SPI_UART.c **** 
 385:Generated_Source\PSoC4/EnoUART_SPI_UART.c ****             if (EnoUART_txBufferHead >= locTail)
 386:Generated_Source\PSoC4/EnoUART_SPI_UART.c ****             {
 387:Generated_Source\PSoC4/EnoUART_SPI_UART.c ****                 size = (EnoUART_txBufferHead - locTail);
 388:Generated_Source\PSoC4/EnoUART_SPI_UART.c ****             }
 389:Generated_Source\PSoC4/EnoUART_SPI_UART.c ****             else
 390:Generated_Source\PSoC4/EnoUART_SPI_UART.c ****             {
 391:Generated_Source\PSoC4/EnoUART_SPI_UART.c ****                 size = (EnoUART_txBufferHead + (EnoUART_TX_BUFFER_SIZE - locTail));
 392:Generated_Source\PSoC4/EnoUART_SPI_UART.c ****             }
 393:Generated_Source\PSoC4/EnoUART_SPI_UART.c ****         }
 394:Generated_Source\PSoC4/EnoUART_SPI_UART.c ****         #else
 395:Generated_Source\PSoC4/EnoUART_SPI_UART.c ****         {
 396:Generated_Source\PSoC4/EnoUART_SPI_UART.c ****             size = EnoUART_GET_TX_FIFO_ENTRIES;
 270              		.loc 1 396 0
 271 0006 054B     		ldr	r3, .L21
 272 0008 1B68     		ldr	r3, [r3]
 273 000a 1F22     		movs	r2, #31
 274 000c 1340     		ands	r3, r2
 275 000e 7B60     		str	r3, [r7, #4]
 397:Generated_Source\PSoC4/EnoUART_SPI_UART.c ****         }
 398:Generated_Source\PSoC4/EnoUART_SPI_UART.c ****         #endif
 399:Generated_Source\PSoC4/EnoUART_SPI_UART.c **** 
 400:Generated_Source\PSoC4/EnoUART_SPI_UART.c ****         return (size);
 276              		.loc 1 400 0
 277 0010 7B68     		ldr	r3, [r7, #4]
 401:Generated_Source\PSoC4/EnoUART_SPI_UART.c ****     }
 278              		.loc 1 401 0
 279 0012 1800     		movs	r0, r3
 280 0014 BD46     		mov	sp, r7
 281 0016 02B0     		add	sp, sp, #8
ARM GAS  C:\Users\ELEASO~1\AppData\Local\Temp\ccxias3I.s 			page 13


 282              		@ sp needed
 283 0018 80BD     		pop	{r7, pc}
 284              	.L22:
 285 001a C046     		.align	2
 286              	.L21:
 287 001c 08022540 		.word	1076167176
 288              		.cfi_endproc
 289              	.LFE7:
 290              		.size	EnoUART_SpiUartGetTxBufferSize, .-EnoUART_SpiUartGetTxBufferSize
 291              		.section	.text.EnoUART_SpiUartClearTxBuffer,"ax",%progbits
 292              		.align	2
 293              		.global	EnoUART_SpiUartClearTxBuffer
 294              		.code	16
 295              		.thumb_func
 296              		.type	EnoUART_SpiUartClearTxBuffer, %function
 297              	EnoUART_SpiUartClearTxBuffer:
 298              	.LFB8:
 402:Generated_Source\PSoC4/EnoUART_SPI_UART.c **** 
 403:Generated_Source\PSoC4/EnoUART_SPI_UART.c **** 
 404:Generated_Source\PSoC4/EnoUART_SPI_UART.c ****     /*******************************************************************************
 405:Generated_Source\PSoC4/EnoUART_SPI_UART.c ****     * Function Name: EnoUART_SpiUartClearTxBuffer
 406:Generated_Source\PSoC4/EnoUART_SPI_UART.c ****     ****************************************************************************//**
 407:Generated_Source\PSoC4/EnoUART_SPI_UART.c ****     *
 408:Generated_Source\PSoC4/EnoUART_SPI_UART.c ****     *  Clears the transmit buffer and TX FIFO.
 409:Generated_Source\PSoC4/EnoUART_SPI_UART.c ****     *
 410:Generated_Source\PSoC4/EnoUART_SPI_UART.c ****     * \globalvars
 411:Generated_Source\PSoC4/EnoUART_SPI_UART.c ****     *  EnoUART_txBufferHead - the start index to put data into the 
 412:Generated_Source\PSoC4/EnoUART_SPI_UART.c ****     *  software transmit buffer.
 413:Generated_Source\PSoC4/EnoUART_SPI_UART.c ****     *  EnoUART_txBufferTail - start index to get data from the software
 414:Generated_Source\PSoC4/EnoUART_SPI_UART.c ****     *  transmit buffer.
 415:Generated_Source\PSoC4/EnoUART_SPI_UART.c ****     *
 416:Generated_Source\PSoC4/EnoUART_SPI_UART.c ****     *******************************************************************************/
 417:Generated_Source\PSoC4/EnoUART_SPI_UART.c ****     void EnoUART_SpiUartClearTxBuffer(void)
 418:Generated_Source\PSoC4/EnoUART_SPI_UART.c ****     {
 299              		.loc 1 418 0
 300              		.cfi_startproc
 301              		@ args = 0, pretend = 0, frame = 0
 302              		@ frame_needed = 1, uses_anonymous_args = 0
 303 0000 80B5     		push	{r7, lr}
 304              		.cfi_def_cfa_offset 8
 305              		.cfi_offset 7, -8
 306              		.cfi_offset 14, -4
 307 0002 00AF     		add	r7, sp, #0
 308              		.cfi_def_cfa_register 7
 419:Generated_Source\PSoC4/EnoUART_SPI_UART.c ****         #if (EnoUART_CHECK_TX_SW_BUFFER)
 420:Generated_Source\PSoC4/EnoUART_SPI_UART.c ****         {
 421:Generated_Source\PSoC4/EnoUART_SPI_UART.c ****             /* Lock from component interruption */
 422:Generated_Source\PSoC4/EnoUART_SPI_UART.c ****             EnoUART_DisableInt();
 423:Generated_Source\PSoC4/EnoUART_SPI_UART.c **** 
 424:Generated_Source\PSoC4/EnoUART_SPI_UART.c ****             /* Flush TX software buffer */
 425:Generated_Source\PSoC4/EnoUART_SPI_UART.c ****             EnoUART_txBufferHead = EnoUART_txBufferTail;
 426:Generated_Source\PSoC4/EnoUART_SPI_UART.c **** 
 427:Generated_Source\PSoC4/EnoUART_SPI_UART.c ****             EnoUART_INTR_TX_MASK_REG &= (uint32) ~EnoUART_INTR_TX_NOT_FULL;
 428:Generated_Source\PSoC4/EnoUART_SPI_UART.c ****             EnoUART_CLEAR_TX_FIFO;
 429:Generated_Source\PSoC4/EnoUART_SPI_UART.c ****             EnoUART_ClearTxInterruptSource(EnoUART_INTR_TX_ALL);
 430:Generated_Source\PSoC4/EnoUART_SPI_UART.c **** 
 431:Generated_Source\PSoC4/EnoUART_SPI_UART.c ****             /* Release lock */
ARM GAS  C:\Users\ELEASO~1\AppData\Local\Temp\ccxias3I.s 			page 14


 432:Generated_Source\PSoC4/EnoUART_SPI_UART.c ****             EnoUART_EnableInt();
 433:Generated_Source\PSoC4/EnoUART_SPI_UART.c ****         }
 434:Generated_Source\PSoC4/EnoUART_SPI_UART.c ****         #else
 435:Generated_Source\PSoC4/EnoUART_SPI_UART.c ****         {
 436:Generated_Source\PSoC4/EnoUART_SPI_UART.c ****             EnoUART_CLEAR_TX_FIFO;
 309              		.loc 1 436 0
 310 0004 074B     		ldr	r3, .L24
 311 0006 074A     		ldr	r2, .L24
 312 0008 1268     		ldr	r2, [r2]
 313 000a 8021     		movs	r1, #128
 314 000c 4902     		lsls	r1, r1, #9
 315 000e 0A43     		orrs	r2, r1
 316 0010 1A60     		str	r2, [r3]
 317 0012 044B     		ldr	r3, .L24
 318 0014 034A     		ldr	r2, .L24
 319 0016 1268     		ldr	r2, [r2]
 320 0018 0349     		ldr	r1, .L24+4
 321 001a 0A40     		ands	r2, r1
 322 001c 1A60     		str	r2, [r3]
 437:Generated_Source\PSoC4/EnoUART_SPI_UART.c ****         }
 438:Generated_Source\PSoC4/EnoUART_SPI_UART.c ****         #endif
 439:Generated_Source\PSoC4/EnoUART_SPI_UART.c ****     }
 323              		.loc 1 439 0
 324 001e C046     		nop
 325 0020 BD46     		mov	sp, r7
 326              		@ sp needed
 327 0022 80BD     		pop	{r7, pc}
 328              	.L25:
 329              		.align	2
 330              	.L24:
 331 0024 04022540 		.word	1076167172
 332 0028 FFFFFEFF 		.word	-65537
 333              		.cfi_endproc
 334              	.LFE8:
 335              		.size	EnoUART_SpiUartClearTxBuffer, .-EnoUART_SpiUartClearTxBuffer
 336              		.section	.text.EnoUART_SpiUartDisableIntRx,"ax",%progbits
 337              		.align	2
 338              		.global	EnoUART_SpiUartDisableIntRx
 339              		.code	16
 340              		.thumb_func
 341              		.type	EnoUART_SpiUartDisableIntRx, %function
 342              	EnoUART_SpiUartDisableIntRx:
 343              	.LFB9:
 440:Generated_Source\PSoC4/EnoUART_SPI_UART.c **** 
 441:Generated_Source\PSoC4/EnoUART_SPI_UART.c **** #endif /* (EnoUART_TX_DIRECTION) */
 442:Generated_Source\PSoC4/EnoUART_SPI_UART.c **** 
 443:Generated_Source\PSoC4/EnoUART_SPI_UART.c **** 
 444:Generated_Source\PSoC4/EnoUART_SPI_UART.c **** /*******************************************************************************
 445:Generated_Source\PSoC4/EnoUART_SPI_UART.c **** * Function Name: EnoUART_SpiUartDisableIntRx
 446:Generated_Source\PSoC4/EnoUART_SPI_UART.c **** ****************************************************************************//**
 447:Generated_Source\PSoC4/EnoUART_SPI_UART.c **** *
 448:Generated_Source\PSoC4/EnoUART_SPI_UART.c **** *  Disables the RX interrupt sources.
 449:Generated_Source\PSoC4/EnoUART_SPI_UART.c **** *
 450:Generated_Source\PSoC4/EnoUART_SPI_UART.c **** *  \return
 451:Generated_Source\PSoC4/EnoUART_SPI_UART.c **** *   Returns the RX interrupt sources enabled before the function call.
 452:Generated_Source\PSoC4/EnoUART_SPI_UART.c **** *
 453:Generated_Source\PSoC4/EnoUART_SPI_UART.c **** *******************************************************************************/
ARM GAS  C:\Users\ELEASO~1\AppData\Local\Temp\ccxias3I.s 			page 15


 454:Generated_Source\PSoC4/EnoUART_SPI_UART.c **** uint32 EnoUART_SpiUartDisableIntRx(void)
 455:Generated_Source\PSoC4/EnoUART_SPI_UART.c **** {
 344              		.loc 1 455 0
 345              		.cfi_startproc
 346              		@ args = 0, pretend = 0, frame = 8
 347              		@ frame_needed = 1, uses_anonymous_args = 0
 348 0000 80B5     		push	{r7, lr}
 349              		.cfi_def_cfa_offset 8
 350              		.cfi_offset 7, -8
 351              		.cfi_offset 14, -4
 352 0002 82B0     		sub	sp, sp, #8
 353              		.cfi_def_cfa_offset 16
 354 0004 00AF     		add	r7, sp, #0
 355              		.cfi_def_cfa_register 7
 456:Generated_Source\PSoC4/EnoUART_SPI_UART.c ****     uint32 intSource;
 457:Generated_Source\PSoC4/EnoUART_SPI_UART.c **** 
 458:Generated_Source\PSoC4/EnoUART_SPI_UART.c ****     intSource = EnoUART_GetRxInterruptMode();
 356              		.loc 1 458 0
 357 0006 054B     		ldr	r3, .L28
 358 0008 1B68     		ldr	r3, [r3]
 359 000a 7B60     		str	r3, [r7, #4]
 459:Generated_Source\PSoC4/EnoUART_SPI_UART.c **** 
 460:Generated_Source\PSoC4/EnoUART_SPI_UART.c ****     EnoUART_SetRxInterruptMode(EnoUART_NO_INTR_SOURCES);
 360              		.loc 1 460 0
 361 000c 034B     		ldr	r3, .L28
 362 000e 0022     		movs	r2, #0
 363 0010 1A60     		str	r2, [r3]
 461:Generated_Source\PSoC4/EnoUART_SPI_UART.c **** 
 462:Generated_Source\PSoC4/EnoUART_SPI_UART.c ****     return (intSource);
 364              		.loc 1 462 0
 365 0012 7B68     		ldr	r3, [r7, #4]
 463:Generated_Source\PSoC4/EnoUART_SPI_UART.c **** }
 366              		.loc 1 463 0
 367 0014 1800     		movs	r0, r3
 368 0016 BD46     		mov	sp, r7
 369 0018 02B0     		add	sp, sp, #8
 370              		@ sp needed
 371 001a 80BD     		pop	{r7, pc}
 372              	.L29:
 373              		.align	2
 374              	.L28:
 375 001c C80F2540 		.word	1076170696
 376              		.cfi_endproc
 377              	.LFE9:
 378              		.size	EnoUART_SpiUartDisableIntRx, .-EnoUART_SpiUartDisableIntRx
 379              		.section	.text.EnoUART_SpiUartDisableIntTx,"ax",%progbits
 380              		.align	2
 381              		.global	EnoUART_SpiUartDisableIntTx
 382              		.code	16
 383              		.thumb_func
 384              		.type	EnoUART_SpiUartDisableIntTx, %function
 385              	EnoUART_SpiUartDisableIntTx:
 386              	.LFB10:
 464:Generated_Source\PSoC4/EnoUART_SPI_UART.c **** 
 465:Generated_Source\PSoC4/EnoUART_SPI_UART.c **** 
 466:Generated_Source\PSoC4/EnoUART_SPI_UART.c **** /*******************************************************************************
 467:Generated_Source\PSoC4/EnoUART_SPI_UART.c **** * Function Name: EnoUART_SpiUartDisableIntTx
ARM GAS  C:\Users\ELEASO~1\AppData\Local\Temp\ccxias3I.s 			page 16


 468:Generated_Source\PSoC4/EnoUART_SPI_UART.c **** ****************************************************************************//**
 469:Generated_Source\PSoC4/EnoUART_SPI_UART.c **** *
 470:Generated_Source\PSoC4/EnoUART_SPI_UART.c **** *  Disables TX interrupt sources.
 471:Generated_Source\PSoC4/EnoUART_SPI_UART.c **** *
 472:Generated_Source\PSoC4/EnoUART_SPI_UART.c **** *  \return
 473:Generated_Source\PSoC4/EnoUART_SPI_UART.c **** *   Returns TX interrupt sources enabled before function call.
 474:Generated_Source\PSoC4/EnoUART_SPI_UART.c **** *
 475:Generated_Source\PSoC4/EnoUART_SPI_UART.c **** *******************************************************************************/
 476:Generated_Source\PSoC4/EnoUART_SPI_UART.c **** uint32 EnoUART_SpiUartDisableIntTx(void)
 477:Generated_Source\PSoC4/EnoUART_SPI_UART.c **** {
 387              		.loc 1 477 0
 388              		.cfi_startproc
 389              		@ args = 0, pretend = 0, frame = 8
 390              		@ frame_needed = 1, uses_anonymous_args = 0
 391 0000 80B5     		push	{r7, lr}
 392              		.cfi_def_cfa_offset 8
 393              		.cfi_offset 7, -8
 394              		.cfi_offset 14, -4
 395 0002 82B0     		sub	sp, sp, #8
 396              		.cfi_def_cfa_offset 16
 397 0004 00AF     		add	r7, sp, #0
 398              		.cfi_def_cfa_register 7
 478:Generated_Source\PSoC4/EnoUART_SPI_UART.c ****     uint32 intSourceMask;
 479:Generated_Source\PSoC4/EnoUART_SPI_UART.c **** 
 480:Generated_Source\PSoC4/EnoUART_SPI_UART.c ****     intSourceMask = EnoUART_GetTxInterruptMode();
 399              		.loc 1 480 0
 400 0006 054B     		ldr	r3, .L32
 401 0008 1B68     		ldr	r3, [r3]
 402 000a 7B60     		str	r3, [r7, #4]
 481:Generated_Source\PSoC4/EnoUART_SPI_UART.c **** 
 482:Generated_Source\PSoC4/EnoUART_SPI_UART.c ****     EnoUART_SetTxInterruptMode(EnoUART_NO_INTR_SOURCES);
 403              		.loc 1 482 0
 404 000c 034B     		ldr	r3, .L32
 405 000e 0022     		movs	r2, #0
 406 0010 1A60     		str	r2, [r3]
 483:Generated_Source\PSoC4/EnoUART_SPI_UART.c **** 
 484:Generated_Source\PSoC4/EnoUART_SPI_UART.c ****     return (intSourceMask);
 407              		.loc 1 484 0
 408 0012 7B68     		ldr	r3, [r7, #4]
 485:Generated_Source\PSoC4/EnoUART_SPI_UART.c **** }
 409              		.loc 1 485 0
 410 0014 1800     		movs	r0, r3
 411 0016 BD46     		mov	sp, r7
 412 0018 02B0     		add	sp, sp, #8
 413              		@ sp needed
 414 001a 80BD     		pop	{r7, pc}
 415              	.L33:
 416              		.align	2
 417              	.L32:
 418 001c 880F2540 		.word	1076170632
 419              		.cfi_endproc
 420              	.LFE10:
 421              		.size	EnoUART_SpiUartDisableIntTx, .-EnoUART_SpiUartDisableIntTx
 422              		.text
 423              	.Letext0:
 424              		.file 2 "Generated_Source\\PSoC4/cytypes.h"
