ARM GAS  C:\Users\Alex\AppData\Local\Temp\ccO66uyN.s 			page 1


   1              		.syntax unified
   2              		.cpu cortex-m0
   3              		.fpu softvfp
   4              		.eabi_attribute 20, 1
   5              		.eabi_attribute 21, 1
   6              		.eabi_attribute 23, 3
   7              		.eabi_attribute 24, 1
   8              		.eabi_attribute 25, 1
   9              		.eabi_attribute 26, 1
  10              		.eabi_attribute 30, 6
  11              		.eabi_attribute 34, 0
  12              		.eabi_attribute 18, 4
  13              		.thumb
  14              		.syntax unified
  15              		.file	"INT_Buttons.c"
  16              		.text
  17              	.Ltext0:
  18              		.cfi_sections	.debug_frame
  19              		.section	.text.INT_Buttons_Start,"ax",%progbits
  20              		.align	2
  21              		.global	INT_Buttons_Start
  22              		.code	16
  23              		.thumb_func
  24              		.type	INT_Buttons_Start, %function
  25              	INT_Buttons_Start:
  26              	.LFB2:
  27              		.file 1 "Generated_Source\\PSoC4\\INT_Buttons.c"
   1:Generated_Source\PSoC4/INT_Buttons.c **** /*******************************************************************************
   2:Generated_Source\PSoC4/INT_Buttons.c **** * File Name: INT_Buttons.c  
   3:Generated_Source\PSoC4/INT_Buttons.c **** * Version 1.70
   4:Generated_Source\PSoC4/INT_Buttons.c **** *
   5:Generated_Source\PSoC4/INT_Buttons.c **** *  Description:
   6:Generated_Source\PSoC4/INT_Buttons.c **** *   API for controlling the state of an interrupt.
   7:Generated_Source\PSoC4/INT_Buttons.c **** *
   8:Generated_Source\PSoC4/INT_Buttons.c **** *
   9:Generated_Source\PSoC4/INT_Buttons.c **** *  Note:
  10:Generated_Source\PSoC4/INT_Buttons.c **** *
  11:Generated_Source\PSoC4/INT_Buttons.c **** ********************************************************************************
  12:Generated_Source\PSoC4/INT_Buttons.c **** * Copyright 2008-2015, Cypress Semiconductor Corporation.  All rights reserved.
  13:Generated_Source\PSoC4/INT_Buttons.c **** * You may use this file only in accordance with the license, terms, conditions, 
  14:Generated_Source\PSoC4/INT_Buttons.c **** * disclaimers, and limitations in the end user license agreement accompanying 
  15:Generated_Source\PSoC4/INT_Buttons.c **** * the software package with which this file was provided.
  16:Generated_Source\PSoC4/INT_Buttons.c **** *******************************************************************************/
  17:Generated_Source\PSoC4/INT_Buttons.c **** 
  18:Generated_Source\PSoC4/INT_Buttons.c **** 
  19:Generated_Source\PSoC4/INT_Buttons.c **** #include <cydevice_trm.h>
  20:Generated_Source\PSoC4/INT_Buttons.c **** #include <CyLib.h>
  21:Generated_Source\PSoC4/INT_Buttons.c **** #include <INT_Buttons.h>
  22:Generated_Source\PSoC4/INT_Buttons.c **** #include "cyapicallbacks.h"
  23:Generated_Source\PSoC4/INT_Buttons.c **** 
  24:Generated_Source\PSoC4/INT_Buttons.c **** #if !defined(INT_Buttons__REMOVED) /* Check for removal by optimization */
  25:Generated_Source\PSoC4/INT_Buttons.c **** 
  26:Generated_Source\PSoC4/INT_Buttons.c **** /*******************************************************************************
  27:Generated_Source\PSoC4/INT_Buttons.c **** *  Place your includes, defines and code here 
  28:Generated_Source\PSoC4/INT_Buttons.c **** ********************************************************************************/
  29:Generated_Source\PSoC4/INT_Buttons.c **** /* `#START INT_Buttons_intc` */
  30:Generated_Source\PSoC4/INT_Buttons.c **** 
ARM GAS  C:\Users\Alex\AppData\Local\Temp\ccO66uyN.s 			page 2


  31:Generated_Source\PSoC4/INT_Buttons.c **** /* `#END` */
  32:Generated_Source\PSoC4/INT_Buttons.c **** 
  33:Generated_Source\PSoC4/INT_Buttons.c **** extern cyisraddress CyRamVectors[CYINT_IRQ_BASE + CY_NUM_INTERRUPTS];
  34:Generated_Source\PSoC4/INT_Buttons.c **** 
  35:Generated_Source\PSoC4/INT_Buttons.c **** /* Declared in startup, used to set unused interrupts to. */
  36:Generated_Source\PSoC4/INT_Buttons.c **** CY_ISR_PROTO(IntDefaultHandler);
  37:Generated_Source\PSoC4/INT_Buttons.c **** 
  38:Generated_Source\PSoC4/INT_Buttons.c **** 
  39:Generated_Source\PSoC4/INT_Buttons.c **** /*******************************************************************************
  40:Generated_Source\PSoC4/INT_Buttons.c **** * Function Name: INT_Buttons_Start
  41:Generated_Source\PSoC4/INT_Buttons.c **** ********************************************************************************
  42:Generated_Source\PSoC4/INT_Buttons.c **** *
  43:Generated_Source\PSoC4/INT_Buttons.c **** * Summary:
  44:Generated_Source\PSoC4/INT_Buttons.c **** *  Set up the interrupt and enable it. This function disables the interrupt, 
  45:Generated_Source\PSoC4/INT_Buttons.c **** *  sets the default interrupt vector, sets the priority from the value in the
  46:Generated_Source\PSoC4/INT_Buttons.c **** *  Design Wide Resources Interrupt Editor, then enables the interrupt to the 
  47:Generated_Source\PSoC4/INT_Buttons.c **** *  interrupt controller.
  48:Generated_Source\PSoC4/INT_Buttons.c **** *
  49:Generated_Source\PSoC4/INT_Buttons.c **** * Parameters:  
  50:Generated_Source\PSoC4/INT_Buttons.c **** *   None
  51:Generated_Source\PSoC4/INT_Buttons.c **** *
  52:Generated_Source\PSoC4/INT_Buttons.c **** * Return:
  53:Generated_Source\PSoC4/INT_Buttons.c **** *   None
  54:Generated_Source\PSoC4/INT_Buttons.c **** *
  55:Generated_Source\PSoC4/INT_Buttons.c **** *******************************************************************************/
  56:Generated_Source\PSoC4/INT_Buttons.c **** void INT_Buttons_Start(void)
  57:Generated_Source\PSoC4/INT_Buttons.c **** {
  28              		.loc 1 57 0
  29              		.cfi_startproc
  30              		@ args = 0, pretend = 0, frame = 0
  31              		@ frame_needed = 1, uses_anonymous_args = 0
  32 0000 80B5     		push	{r7, lr}
  33              		.cfi_def_cfa_offset 8
  34              		.cfi_offset 7, -8
  35              		.cfi_offset 14, -4
  36 0002 00AF     		add	r7, sp, #0
  37              		.cfi_def_cfa_register 7
  58:Generated_Source\PSoC4/INT_Buttons.c ****     /* For all we know the interrupt is active. */
  59:Generated_Source\PSoC4/INT_Buttons.c ****     INT_Buttons_Disable();
  38              		.loc 1 59 0
  39 0004 FFF7FEFF 		bl	INT_Buttons_Disable
  60:Generated_Source\PSoC4/INT_Buttons.c **** 
  61:Generated_Source\PSoC4/INT_Buttons.c ****     /* Set the ISR to point to the INT_Buttons Interrupt. */
  62:Generated_Source\PSoC4/INT_Buttons.c ****     INT_Buttons_SetVector(&INT_Buttons_Interrupt);
  40              		.loc 1 62 0
  41 0008 054B     		ldr	r3, .L2
  42 000a 1800     		movs	r0, r3
  43 000c FFF7FEFF 		bl	INT_Buttons_SetVector
  63:Generated_Source\PSoC4/INT_Buttons.c **** 
  64:Generated_Source\PSoC4/INT_Buttons.c ****     /* Set the priority. */
  65:Generated_Source\PSoC4/INT_Buttons.c ****     INT_Buttons_SetPriority((uint8)INT_Buttons_INTC_PRIOR_NUMBER);
  44              		.loc 1 65 0
  45 0010 0320     		movs	r0, #3
  46 0012 FFF7FEFF 		bl	INT_Buttons_SetPriority
  66:Generated_Source\PSoC4/INT_Buttons.c **** 
  67:Generated_Source\PSoC4/INT_Buttons.c ****     /* Enable it. */
  68:Generated_Source\PSoC4/INT_Buttons.c ****     INT_Buttons_Enable();
ARM GAS  C:\Users\Alex\AppData\Local\Temp\ccO66uyN.s 			page 3


  47              		.loc 1 68 0
  48 0016 FFF7FEFF 		bl	INT_Buttons_Enable
  69:Generated_Source\PSoC4/INT_Buttons.c **** }
  49              		.loc 1 69 0
  50 001a C046     		nop
  51 001c BD46     		mov	sp, r7
  52              		@ sp needed
  53 001e 80BD     		pop	{r7, pc}
  54              	.L3:
  55              		.align	2
  56              	.L2:
  57 0020 00000000 		.word	INT_Buttons_Interrupt
  58              		.cfi_endproc
  59              	.LFE2:
  60              		.size	INT_Buttons_Start, .-INT_Buttons_Start
  61              		.section	.text.INT_Buttons_StartEx,"ax",%progbits
  62              		.align	2
  63              		.global	INT_Buttons_StartEx
  64              		.code	16
  65              		.thumb_func
  66              		.type	INT_Buttons_StartEx, %function
  67              	INT_Buttons_StartEx:
  68              	.LFB3:
  70:Generated_Source\PSoC4/INT_Buttons.c **** 
  71:Generated_Source\PSoC4/INT_Buttons.c **** 
  72:Generated_Source\PSoC4/INT_Buttons.c **** /*******************************************************************************
  73:Generated_Source\PSoC4/INT_Buttons.c **** * Function Name: INT_Buttons_StartEx
  74:Generated_Source\PSoC4/INT_Buttons.c **** ********************************************************************************
  75:Generated_Source\PSoC4/INT_Buttons.c **** *
  76:Generated_Source\PSoC4/INT_Buttons.c **** * Summary:
  77:Generated_Source\PSoC4/INT_Buttons.c **** *  Sets up the interrupt and enables it. This function disables the interrupt,
  78:Generated_Source\PSoC4/INT_Buttons.c **** *  sets the interrupt vector based on the address passed in, sets the priority 
  79:Generated_Source\PSoC4/INT_Buttons.c **** *  from the value in the Design Wide Resources Interrupt Editor, then enables 
  80:Generated_Source\PSoC4/INT_Buttons.c **** *  the interrupt to the interrupt controller.
  81:Generated_Source\PSoC4/INT_Buttons.c **** *  
  82:Generated_Source\PSoC4/INT_Buttons.c **** *  When defining ISR functions, the CY_ISR and CY_ISR_PROTO macros should be 
  83:Generated_Source\PSoC4/INT_Buttons.c **** *  used to provide consistent definition across compilers:
  84:Generated_Source\PSoC4/INT_Buttons.c **** *  
  85:Generated_Source\PSoC4/INT_Buttons.c **** *  Function definition example:
  86:Generated_Source\PSoC4/INT_Buttons.c **** *   CY_ISR(MyISR)
  87:Generated_Source\PSoC4/INT_Buttons.c **** *   {
  88:Generated_Source\PSoC4/INT_Buttons.c **** *   }
  89:Generated_Source\PSoC4/INT_Buttons.c **** *   Function prototype example:
  90:Generated_Source\PSoC4/INT_Buttons.c **** *   CY_ISR_PROTO(MyISR);
  91:Generated_Source\PSoC4/INT_Buttons.c **** *
  92:Generated_Source\PSoC4/INT_Buttons.c **** * Parameters:  
  93:Generated_Source\PSoC4/INT_Buttons.c **** *   address: Address of the ISR to set in the interrupt vector table.
  94:Generated_Source\PSoC4/INT_Buttons.c **** *
  95:Generated_Source\PSoC4/INT_Buttons.c **** * Return:
  96:Generated_Source\PSoC4/INT_Buttons.c **** *   None
  97:Generated_Source\PSoC4/INT_Buttons.c **** *
  98:Generated_Source\PSoC4/INT_Buttons.c **** *******************************************************************************/
  99:Generated_Source\PSoC4/INT_Buttons.c **** void INT_Buttons_StartEx(cyisraddress address)
 100:Generated_Source\PSoC4/INT_Buttons.c **** {
  69              		.loc 1 100 0
  70              		.cfi_startproc
  71              		@ args = 0, pretend = 0, frame = 8
ARM GAS  C:\Users\Alex\AppData\Local\Temp\ccO66uyN.s 			page 4


  72              		@ frame_needed = 1, uses_anonymous_args = 0
  73 0000 80B5     		push	{r7, lr}
  74              		.cfi_def_cfa_offset 8
  75              		.cfi_offset 7, -8
  76              		.cfi_offset 14, -4
  77 0002 82B0     		sub	sp, sp, #8
  78              		.cfi_def_cfa_offset 16
  79 0004 00AF     		add	r7, sp, #0
  80              		.cfi_def_cfa_register 7
  81 0006 7860     		str	r0, [r7, #4]
 101:Generated_Source\PSoC4/INT_Buttons.c ****     /* For all we know the interrupt is active. */
 102:Generated_Source\PSoC4/INT_Buttons.c ****     INT_Buttons_Disable();
  82              		.loc 1 102 0
  83 0008 FFF7FEFF 		bl	INT_Buttons_Disable
 103:Generated_Source\PSoC4/INT_Buttons.c **** 
 104:Generated_Source\PSoC4/INT_Buttons.c ****     /* Set the ISR to point to the INT_Buttons Interrupt. */
 105:Generated_Source\PSoC4/INT_Buttons.c ****     INT_Buttons_SetVector(address);
  84              		.loc 1 105 0
  85 000c 7B68     		ldr	r3, [r7, #4]
  86 000e 1800     		movs	r0, r3
  87 0010 FFF7FEFF 		bl	INT_Buttons_SetVector
 106:Generated_Source\PSoC4/INT_Buttons.c **** 
 107:Generated_Source\PSoC4/INT_Buttons.c ****     /* Set the priority. */
 108:Generated_Source\PSoC4/INT_Buttons.c ****     INT_Buttons_SetPriority((uint8)INT_Buttons_INTC_PRIOR_NUMBER);
  88              		.loc 1 108 0
  89 0014 0320     		movs	r0, #3
  90 0016 FFF7FEFF 		bl	INT_Buttons_SetPriority
 109:Generated_Source\PSoC4/INT_Buttons.c **** 
 110:Generated_Source\PSoC4/INT_Buttons.c ****     /* Enable it. */
 111:Generated_Source\PSoC4/INT_Buttons.c ****     INT_Buttons_Enable();
  91              		.loc 1 111 0
  92 001a FFF7FEFF 		bl	INT_Buttons_Enable
 112:Generated_Source\PSoC4/INT_Buttons.c **** }
  93              		.loc 1 112 0
  94 001e C046     		nop
  95 0020 BD46     		mov	sp, r7
  96 0022 02B0     		add	sp, sp, #8
  97              		@ sp needed
  98 0024 80BD     		pop	{r7, pc}
  99              		.cfi_endproc
 100              	.LFE3:
 101              		.size	INT_Buttons_StartEx, .-INT_Buttons_StartEx
 102 0026 C046     		.section	.text.INT_Buttons_Stop,"ax",%progbits
 103              		.align	2
 104              		.global	INT_Buttons_Stop
 105              		.code	16
 106              		.thumb_func
 107              		.type	INT_Buttons_Stop, %function
 108              	INT_Buttons_Stop:
 109              	.LFB4:
 113:Generated_Source\PSoC4/INT_Buttons.c **** 
 114:Generated_Source\PSoC4/INT_Buttons.c **** 
 115:Generated_Source\PSoC4/INT_Buttons.c **** /*******************************************************************************
 116:Generated_Source\PSoC4/INT_Buttons.c **** * Function Name: INT_Buttons_Stop
 117:Generated_Source\PSoC4/INT_Buttons.c **** ********************************************************************************
 118:Generated_Source\PSoC4/INT_Buttons.c **** *
 119:Generated_Source\PSoC4/INT_Buttons.c **** * Summary:
ARM GAS  C:\Users\Alex\AppData\Local\Temp\ccO66uyN.s 			page 5


 120:Generated_Source\PSoC4/INT_Buttons.c **** *   Disables and removes the interrupt.
 121:Generated_Source\PSoC4/INT_Buttons.c **** *
 122:Generated_Source\PSoC4/INT_Buttons.c **** * Parameters:  
 123:Generated_Source\PSoC4/INT_Buttons.c **** *   None
 124:Generated_Source\PSoC4/INT_Buttons.c **** *
 125:Generated_Source\PSoC4/INT_Buttons.c **** * Return:
 126:Generated_Source\PSoC4/INT_Buttons.c **** *   None
 127:Generated_Source\PSoC4/INT_Buttons.c **** *
 128:Generated_Source\PSoC4/INT_Buttons.c **** *******************************************************************************/
 129:Generated_Source\PSoC4/INT_Buttons.c **** void INT_Buttons_Stop(void)
 130:Generated_Source\PSoC4/INT_Buttons.c **** {
 110              		.loc 1 130 0
 111              		.cfi_startproc
 112              		@ args = 0, pretend = 0, frame = 0
 113              		@ frame_needed = 1, uses_anonymous_args = 0
 114 0000 80B5     		push	{r7, lr}
 115              		.cfi_def_cfa_offset 8
 116              		.cfi_offset 7, -8
 117              		.cfi_offset 14, -4
 118 0002 00AF     		add	r7, sp, #0
 119              		.cfi_def_cfa_register 7
 131:Generated_Source\PSoC4/INT_Buttons.c ****     /* Disable this interrupt. */
 132:Generated_Source\PSoC4/INT_Buttons.c ****     INT_Buttons_Disable();
 120              		.loc 1 132 0
 121 0004 FFF7FEFF 		bl	INT_Buttons_Disable
 133:Generated_Source\PSoC4/INT_Buttons.c **** 
 134:Generated_Source\PSoC4/INT_Buttons.c ****     /* Set the ISR to point to the passive one. */
 135:Generated_Source\PSoC4/INT_Buttons.c ****     INT_Buttons_SetVector(&IntDefaultHandler);
 122              		.loc 1 135 0
 123 0008 034B     		ldr	r3, .L6
 124 000a 1800     		movs	r0, r3
 125 000c FFF7FEFF 		bl	INT_Buttons_SetVector
 136:Generated_Source\PSoC4/INT_Buttons.c **** }
 126              		.loc 1 136 0
 127 0010 C046     		nop
 128 0012 BD46     		mov	sp, r7
 129              		@ sp needed
 130 0014 80BD     		pop	{r7, pc}
 131              	.L7:
 132 0016 C046     		.align	2
 133              	.L6:
 134 0018 00000000 		.word	IntDefaultHandler
 135              		.cfi_endproc
 136              	.LFE4:
 137              		.size	INT_Buttons_Stop, .-INT_Buttons_Stop
 138              		.section	.text.INT_Buttons_Interrupt,"ax",%progbits
 139              		.align	2
 140              		.global	INT_Buttons_Interrupt
 141              		.code	16
 142              		.thumb_func
 143              		.type	INT_Buttons_Interrupt, %function
 144              	INT_Buttons_Interrupt:
 145              	.LFB5:
 137:Generated_Source\PSoC4/INT_Buttons.c **** 
 138:Generated_Source\PSoC4/INT_Buttons.c **** 
 139:Generated_Source\PSoC4/INT_Buttons.c **** /*******************************************************************************
 140:Generated_Source\PSoC4/INT_Buttons.c **** * Function Name: INT_Buttons_Interrupt
ARM GAS  C:\Users\Alex\AppData\Local\Temp\ccO66uyN.s 			page 6


 141:Generated_Source\PSoC4/INT_Buttons.c **** ********************************************************************************
 142:Generated_Source\PSoC4/INT_Buttons.c **** *
 143:Generated_Source\PSoC4/INT_Buttons.c **** * Summary:
 144:Generated_Source\PSoC4/INT_Buttons.c **** *   The default Interrupt Service Routine for INT_Buttons.
 145:Generated_Source\PSoC4/INT_Buttons.c **** *
 146:Generated_Source\PSoC4/INT_Buttons.c **** *   Add custom code between the START and END comments to keep the next version
 147:Generated_Source\PSoC4/INT_Buttons.c **** *   of this file from over-writing your code.
 148:Generated_Source\PSoC4/INT_Buttons.c **** *
 149:Generated_Source\PSoC4/INT_Buttons.c **** *   Note You may use either the default ISR by using this API, or you may define
 150:Generated_Source\PSoC4/INT_Buttons.c **** *   your own separate ISR through ISR_StartEx().
 151:Generated_Source\PSoC4/INT_Buttons.c **** *
 152:Generated_Source\PSoC4/INT_Buttons.c **** * Parameters:  
 153:Generated_Source\PSoC4/INT_Buttons.c **** *   None
 154:Generated_Source\PSoC4/INT_Buttons.c **** *
 155:Generated_Source\PSoC4/INT_Buttons.c **** * Return:
 156:Generated_Source\PSoC4/INT_Buttons.c **** *   None
 157:Generated_Source\PSoC4/INT_Buttons.c **** *
 158:Generated_Source\PSoC4/INT_Buttons.c **** *******************************************************************************/
 159:Generated_Source\PSoC4/INT_Buttons.c **** CY_ISR(INT_Buttons_Interrupt)
 160:Generated_Source\PSoC4/INT_Buttons.c **** {
 146              		.loc 1 160 0
 147              		.cfi_startproc
 148              		@ args = 0, pretend = 0, frame = 0
 149              		@ frame_needed = 1, uses_anonymous_args = 0
 150 0000 80B5     		push	{r7, lr}
 151              		.cfi_def_cfa_offset 8
 152              		.cfi_offset 7, -8
 153              		.cfi_offset 14, -4
 154 0002 00AF     		add	r7, sp, #0
 155              		.cfi_def_cfa_register 7
 161:Generated_Source\PSoC4/INT_Buttons.c ****     #ifdef INT_Buttons_INTERRUPT_INTERRUPT_CALLBACK
 162:Generated_Source\PSoC4/INT_Buttons.c ****         INT_Buttons_Interrupt_InterruptCallback();
 163:Generated_Source\PSoC4/INT_Buttons.c ****     #endif /* INT_Buttons_INTERRUPT_INTERRUPT_CALLBACK */ 
 164:Generated_Source\PSoC4/INT_Buttons.c **** 
 165:Generated_Source\PSoC4/INT_Buttons.c ****     /*  Place your Interrupt code here. */
 166:Generated_Source\PSoC4/INT_Buttons.c ****     /* `#START INT_Buttons_Interrupt` */
 167:Generated_Source\PSoC4/INT_Buttons.c **** 
 168:Generated_Source\PSoC4/INT_Buttons.c ****     /* `#END` */
 169:Generated_Source\PSoC4/INT_Buttons.c **** }
 156              		.loc 1 169 0
 157 0004 C046     		nop
 158 0006 BD46     		mov	sp, r7
 159              		@ sp needed
 160 0008 80BD     		pop	{r7, pc}
 161              		.cfi_endproc
 162              	.LFE5:
 163              		.size	INT_Buttons_Interrupt, .-INT_Buttons_Interrupt
 164              		.section	.text.INT_Buttons_SetVector,"ax",%progbits
 165              		.align	2
 166              		.global	INT_Buttons_SetVector
 167              		.code	16
 168              		.thumb_func
 169              		.type	INT_Buttons_SetVector, %function
 170              	INT_Buttons_SetVector:
 171              	.LFB6:
 170:Generated_Source\PSoC4/INT_Buttons.c **** 
 171:Generated_Source\PSoC4/INT_Buttons.c **** 
ARM GAS  C:\Users\Alex\AppData\Local\Temp\ccO66uyN.s 			page 7


 172:Generated_Source\PSoC4/INT_Buttons.c **** /*******************************************************************************
 173:Generated_Source\PSoC4/INT_Buttons.c **** * Function Name: INT_Buttons_SetVector
 174:Generated_Source\PSoC4/INT_Buttons.c **** ********************************************************************************
 175:Generated_Source\PSoC4/INT_Buttons.c **** *
 176:Generated_Source\PSoC4/INT_Buttons.c **** * Summary:
 177:Generated_Source\PSoC4/INT_Buttons.c **** *   Change the ISR vector for the Interrupt. Note calling INT_Buttons_Start
 178:Generated_Source\PSoC4/INT_Buttons.c **** *   will override any effect this method would have had. To set the vector 
 179:Generated_Source\PSoC4/INT_Buttons.c **** *   before the component has been started use INT_Buttons_StartEx instead.
 180:Generated_Source\PSoC4/INT_Buttons.c **** * 
 181:Generated_Source\PSoC4/INT_Buttons.c **** *   When defining ISR functions, the CY_ISR and CY_ISR_PROTO macros should be 
 182:Generated_Source\PSoC4/INT_Buttons.c **** *   used to provide consistent definition across compilers:
 183:Generated_Source\PSoC4/INT_Buttons.c **** *
 184:Generated_Source\PSoC4/INT_Buttons.c **** *   Function definition example:
 185:Generated_Source\PSoC4/INT_Buttons.c **** *   CY_ISR(MyISR)
 186:Generated_Source\PSoC4/INT_Buttons.c **** *   {
 187:Generated_Source\PSoC4/INT_Buttons.c **** *   }
 188:Generated_Source\PSoC4/INT_Buttons.c **** *
 189:Generated_Source\PSoC4/INT_Buttons.c **** *   Function prototype example:
 190:Generated_Source\PSoC4/INT_Buttons.c **** *     CY_ISR_PROTO(MyISR);
 191:Generated_Source\PSoC4/INT_Buttons.c **** *
 192:Generated_Source\PSoC4/INT_Buttons.c **** * Parameters:
 193:Generated_Source\PSoC4/INT_Buttons.c **** *   address: Address of the ISR to set in the interrupt vector table.
 194:Generated_Source\PSoC4/INT_Buttons.c **** *
 195:Generated_Source\PSoC4/INT_Buttons.c **** * Return:
 196:Generated_Source\PSoC4/INT_Buttons.c **** *   None
 197:Generated_Source\PSoC4/INT_Buttons.c **** *
 198:Generated_Source\PSoC4/INT_Buttons.c **** *******************************************************************************/
 199:Generated_Source\PSoC4/INT_Buttons.c **** void INT_Buttons_SetVector(cyisraddress address)
 200:Generated_Source\PSoC4/INT_Buttons.c **** {
 172              		.loc 1 200 0
 173              		.cfi_startproc
 174              		@ args = 0, pretend = 0, frame = 8
 175              		@ frame_needed = 1, uses_anonymous_args = 0
 176 0000 80B5     		push	{r7, lr}
 177              		.cfi_def_cfa_offset 8
 178              		.cfi_offset 7, -8
 179              		.cfi_offset 14, -4
 180 0002 82B0     		sub	sp, sp, #8
 181              		.cfi_def_cfa_offset 16
 182 0004 00AF     		add	r7, sp, #0
 183              		.cfi_def_cfa_register 7
 184 0006 7860     		str	r0, [r7, #4]
 201:Generated_Source\PSoC4/INT_Buttons.c ****     CyRamVectors[CYINT_IRQ_BASE + INT_Buttons__INTC_NUMBER] = address;
 185              		.loc 1 201 0
 186 0008 034B     		ldr	r3, .L10
 187 000a 7A68     		ldr	r2, [r7, #4]
 188 000c 9A64     		str	r2, [r3, #72]
 202:Generated_Source\PSoC4/INT_Buttons.c **** }
 189              		.loc 1 202 0
 190 000e C046     		nop
 191 0010 BD46     		mov	sp, r7
 192 0012 02B0     		add	sp, sp, #8
 193              		@ sp needed
 194 0014 80BD     		pop	{r7, pc}
 195              	.L11:
 196 0016 C046     		.align	2
 197              	.L10:
ARM GAS  C:\Users\Alex\AppData\Local\Temp\ccO66uyN.s 			page 8


 198 0018 00000000 		.word	CyRamVectors
 199              		.cfi_endproc
 200              	.LFE6:
 201              		.size	INT_Buttons_SetVector, .-INT_Buttons_SetVector
 202              		.section	.text.INT_Buttons_GetVector,"ax",%progbits
 203              		.align	2
 204              		.global	INT_Buttons_GetVector
 205              		.code	16
 206              		.thumb_func
 207              		.type	INT_Buttons_GetVector, %function
 208              	INT_Buttons_GetVector:
 209              	.LFB7:
 203:Generated_Source\PSoC4/INT_Buttons.c **** 
 204:Generated_Source\PSoC4/INT_Buttons.c **** 
 205:Generated_Source\PSoC4/INT_Buttons.c **** /*******************************************************************************
 206:Generated_Source\PSoC4/INT_Buttons.c **** * Function Name: INT_Buttons_GetVector
 207:Generated_Source\PSoC4/INT_Buttons.c **** ********************************************************************************
 208:Generated_Source\PSoC4/INT_Buttons.c **** *
 209:Generated_Source\PSoC4/INT_Buttons.c **** * Summary:
 210:Generated_Source\PSoC4/INT_Buttons.c **** *   Gets the "address" of the current ISR vector for the Interrupt.
 211:Generated_Source\PSoC4/INT_Buttons.c **** *
 212:Generated_Source\PSoC4/INT_Buttons.c **** * Parameters:
 213:Generated_Source\PSoC4/INT_Buttons.c **** *   None
 214:Generated_Source\PSoC4/INT_Buttons.c **** *
 215:Generated_Source\PSoC4/INT_Buttons.c **** * Return:
 216:Generated_Source\PSoC4/INT_Buttons.c **** *   Address of the ISR in the interrupt vector table.
 217:Generated_Source\PSoC4/INT_Buttons.c **** *
 218:Generated_Source\PSoC4/INT_Buttons.c **** *******************************************************************************/
 219:Generated_Source\PSoC4/INT_Buttons.c **** cyisraddress INT_Buttons_GetVector(void)
 220:Generated_Source\PSoC4/INT_Buttons.c **** {
 210              		.loc 1 220 0
 211              		.cfi_startproc
 212              		@ args = 0, pretend = 0, frame = 0
 213              		@ frame_needed = 1, uses_anonymous_args = 0
 214 0000 80B5     		push	{r7, lr}
 215              		.cfi_def_cfa_offset 8
 216              		.cfi_offset 7, -8
 217              		.cfi_offset 14, -4
 218 0002 00AF     		add	r7, sp, #0
 219              		.cfi_def_cfa_register 7
 221:Generated_Source\PSoC4/INT_Buttons.c ****     return CyRamVectors[CYINT_IRQ_BASE + INT_Buttons__INTC_NUMBER];
 220              		.loc 1 221 0
 221 0004 024B     		ldr	r3, .L14
 222 0006 9B6C     		ldr	r3, [r3, #72]
 222:Generated_Source\PSoC4/INT_Buttons.c **** }
 223              		.loc 1 222 0
 224 0008 1800     		movs	r0, r3
 225 000a BD46     		mov	sp, r7
 226              		@ sp needed
 227 000c 80BD     		pop	{r7, pc}
 228              	.L15:
 229 000e C046     		.align	2
 230              	.L14:
 231 0010 00000000 		.word	CyRamVectors
 232              		.cfi_endproc
 233              	.LFE7:
 234              		.size	INT_Buttons_GetVector, .-INT_Buttons_GetVector
ARM GAS  C:\Users\Alex\AppData\Local\Temp\ccO66uyN.s 			page 9


 235              		.section	.text.INT_Buttons_SetPriority,"ax",%progbits
 236              		.align	2
 237              		.global	INT_Buttons_SetPriority
 238              		.code	16
 239              		.thumb_func
 240              		.type	INT_Buttons_SetPriority, %function
 241              	INT_Buttons_SetPriority:
 242              	.LFB8:
 223:Generated_Source\PSoC4/INT_Buttons.c **** 
 224:Generated_Source\PSoC4/INT_Buttons.c **** 
 225:Generated_Source\PSoC4/INT_Buttons.c **** /*******************************************************************************
 226:Generated_Source\PSoC4/INT_Buttons.c **** * Function Name: INT_Buttons_SetPriority
 227:Generated_Source\PSoC4/INT_Buttons.c **** ********************************************************************************
 228:Generated_Source\PSoC4/INT_Buttons.c **** *
 229:Generated_Source\PSoC4/INT_Buttons.c **** * Summary:
 230:Generated_Source\PSoC4/INT_Buttons.c **** *   Sets the Priority of the Interrupt. 
 231:Generated_Source\PSoC4/INT_Buttons.c **** *
 232:Generated_Source\PSoC4/INT_Buttons.c **** *   Note calling INT_Buttons_Start or INT_Buttons_StartEx will 
 233:Generated_Source\PSoC4/INT_Buttons.c **** *   override any effect this API would have had. This API should only be called
 234:Generated_Source\PSoC4/INT_Buttons.c **** *   after INT_Buttons_Start or INT_Buttons_StartEx has been called. 
 235:Generated_Source\PSoC4/INT_Buttons.c **** *   To set the initial priority for the component, use the Design-Wide Resources
 236:Generated_Source\PSoC4/INT_Buttons.c **** *   Interrupt Editor.
 237:Generated_Source\PSoC4/INT_Buttons.c **** *
 238:Generated_Source\PSoC4/INT_Buttons.c **** *   Note This API has no effect on Non-maskable interrupt NMI).
 239:Generated_Source\PSoC4/INT_Buttons.c **** *
 240:Generated_Source\PSoC4/INT_Buttons.c **** * Parameters:
 241:Generated_Source\PSoC4/INT_Buttons.c **** *   priority: Priority of the interrupt, 0 being the highest priority
 242:Generated_Source\PSoC4/INT_Buttons.c **** *             PSoC 3 and PSoC 5LP: Priority is from 0 to 7.
 243:Generated_Source\PSoC4/INT_Buttons.c **** *             PSoC 4: Priority is from 0 to 3.
 244:Generated_Source\PSoC4/INT_Buttons.c **** *
 245:Generated_Source\PSoC4/INT_Buttons.c **** * Return:
 246:Generated_Source\PSoC4/INT_Buttons.c **** *   None
 247:Generated_Source\PSoC4/INT_Buttons.c **** *
 248:Generated_Source\PSoC4/INT_Buttons.c **** *******************************************************************************/
 249:Generated_Source\PSoC4/INT_Buttons.c **** void INT_Buttons_SetPriority(uint8 priority)
 250:Generated_Source\PSoC4/INT_Buttons.c **** {
 243              		.loc 1 250 0
 244              		.cfi_startproc
 245              		@ args = 0, pretend = 0, frame = 16
 246              		@ frame_needed = 1, uses_anonymous_args = 0
 247 0000 90B5     		push	{r4, r7, lr}
 248              		.cfi_def_cfa_offset 12
 249              		.cfi_offset 4, -12
 250              		.cfi_offset 7, -8
 251              		.cfi_offset 14, -4
 252 0002 85B0     		sub	sp, sp, #20
 253              		.cfi_def_cfa_offset 32
 254 0004 00AF     		add	r7, sp, #0
 255              		.cfi_def_cfa_register 7
 256 0006 0200     		movs	r2, r0
 257 0008 FB1D     		adds	r3, r7, #7
 258 000a 1A70     		strb	r2, [r3]
 251:Generated_Source\PSoC4/INT_Buttons.c **** 	uint8 interruptState;
 252:Generated_Source\PSoC4/INT_Buttons.c ****     uint32 priorityOffset = ((INT_Buttons__INTC_NUMBER % 4u) * 8u) + 6u;
 259              		.loc 1 252 0
 260 000c 1623     		movs	r3, #22
 261 000e FB60     		str	r3, [r7, #12]
ARM GAS  C:\Users\Alex\AppData\Local\Temp\ccO66uyN.s 			page 10


 253:Generated_Source\PSoC4/INT_Buttons.c ****     
 254:Generated_Source\PSoC4/INT_Buttons.c **** 	interruptState = CyEnterCriticalSection();
 262              		.loc 1 254 0
 263 0010 0B23     		movs	r3, #11
 264 0012 FC18     		adds	r4, r7, r3
 265 0014 FFF7FEFF 		bl	CyEnterCriticalSection
 266 0018 0300     		movs	r3, r0
 267 001a 2370     		strb	r3, [r4]
 255:Generated_Source\PSoC4/INT_Buttons.c ****     *INT_Buttons_INTC_PRIOR = (*INT_Buttons_INTC_PRIOR & (uint32)(~INT_Buttons__INTC_PRIOR_MASK)) |
 268              		.loc 1 255 0
 269 001c 0A4B     		ldr	r3, .L17
 270 001e 0A4A     		ldr	r2, .L17
 271 0020 1268     		ldr	r2, [r2]
 272 0022 0A49     		ldr	r1, .L17+4
 273 0024 1140     		ands	r1, r2
 256:Generated_Source\PSoC4/INT_Buttons.c ****                                     ((uint32)priority << priorityOffset);
 274              		.loc 1 256 0
 275 0026 FA1D     		adds	r2, r7, #7
 276 0028 1078     		ldrb	r0, [r2]
 277 002a FA68     		ldr	r2, [r7, #12]
 278 002c 9040     		lsls	r0, r0, r2
 279 002e 0200     		movs	r2, r0
 255:Generated_Source\PSoC4/INT_Buttons.c ****     *INT_Buttons_INTC_PRIOR = (*INT_Buttons_INTC_PRIOR & (uint32)(~INT_Buttons__INTC_PRIOR_MASK)) |
 280              		.loc 1 255 0
 281 0030 0A43     		orrs	r2, r1
 282 0032 1A60     		str	r2, [r3]
 257:Generated_Source\PSoC4/INT_Buttons.c **** 	CyExitCriticalSection(interruptState);
 283              		.loc 1 257 0
 284 0034 0B23     		movs	r3, #11
 285 0036 FB18     		adds	r3, r7, r3
 286 0038 1B78     		ldrb	r3, [r3]
 287 003a 1800     		movs	r0, r3
 288 003c FFF7FEFF 		bl	CyExitCriticalSection
 258:Generated_Source\PSoC4/INT_Buttons.c **** }
 289              		.loc 1 258 0
 290 0040 C046     		nop
 291 0042 BD46     		mov	sp, r7
 292 0044 05B0     		add	sp, sp, #20
 293              		@ sp needed
 294 0046 90BD     		pop	{r4, r7, pc}
 295              	.L18:
 296              		.align	2
 297              	.L17:
 298 0048 00E400E0 		.word	-536812544
 299 004c FFFF3FFF 		.word	-12582913
 300              		.cfi_endproc
 301              	.LFE8:
 302              		.size	INT_Buttons_SetPriority, .-INT_Buttons_SetPriority
 303              		.section	.text.INT_Buttons_GetPriority,"ax",%progbits
 304              		.align	2
 305              		.global	INT_Buttons_GetPriority
 306              		.code	16
 307              		.thumb_func
 308              		.type	INT_Buttons_GetPriority, %function
 309              	INT_Buttons_GetPriority:
 310              	.LFB9:
 259:Generated_Source\PSoC4/INT_Buttons.c **** 
ARM GAS  C:\Users\Alex\AppData\Local\Temp\ccO66uyN.s 			page 11


 260:Generated_Source\PSoC4/INT_Buttons.c **** 
 261:Generated_Source\PSoC4/INT_Buttons.c **** /*******************************************************************************
 262:Generated_Source\PSoC4/INT_Buttons.c **** * Function Name: INT_Buttons_GetPriority
 263:Generated_Source\PSoC4/INT_Buttons.c **** ********************************************************************************
 264:Generated_Source\PSoC4/INT_Buttons.c **** *
 265:Generated_Source\PSoC4/INT_Buttons.c **** * Summary:
 266:Generated_Source\PSoC4/INT_Buttons.c **** *   Gets the Priority of the Interrupt.
 267:Generated_Source\PSoC4/INT_Buttons.c **** *
 268:Generated_Source\PSoC4/INT_Buttons.c **** * Parameters:
 269:Generated_Source\PSoC4/INT_Buttons.c **** *   None
 270:Generated_Source\PSoC4/INT_Buttons.c **** *
 271:Generated_Source\PSoC4/INT_Buttons.c **** * Return:
 272:Generated_Source\PSoC4/INT_Buttons.c **** *   Priority of the interrupt, 0 being the highest priority
 273:Generated_Source\PSoC4/INT_Buttons.c **** *    PSoC 3 and PSoC 5LP: Priority is from 0 to 7.
 274:Generated_Source\PSoC4/INT_Buttons.c **** *    PSoC 4: Priority is from 0 to 3.
 275:Generated_Source\PSoC4/INT_Buttons.c **** *
 276:Generated_Source\PSoC4/INT_Buttons.c **** *******************************************************************************/
 277:Generated_Source\PSoC4/INT_Buttons.c **** uint8 INT_Buttons_GetPriority(void)
 278:Generated_Source\PSoC4/INT_Buttons.c **** {
 311              		.loc 1 278 0
 312              		.cfi_startproc
 313              		@ args = 0, pretend = 0, frame = 8
 314              		@ frame_needed = 1, uses_anonymous_args = 0
 315 0000 80B5     		push	{r7, lr}
 316              		.cfi_def_cfa_offset 8
 317              		.cfi_offset 7, -8
 318              		.cfi_offset 14, -4
 319 0002 82B0     		sub	sp, sp, #8
 320              		.cfi_def_cfa_offset 16
 321 0004 00AF     		add	r7, sp, #0
 322              		.cfi_def_cfa_register 7
 279:Generated_Source\PSoC4/INT_Buttons.c ****     uint32 priority;
 280:Generated_Source\PSoC4/INT_Buttons.c **** 	uint32 priorityOffset = ((INT_Buttons__INTC_NUMBER % 4u) * 8u) + 6u;
 323              		.loc 1 280 0
 324 0006 1623     		movs	r3, #22
 325 0008 7B60     		str	r3, [r7, #4]
 281:Generated_Source\PSoC4/INT_Buttons.c **** 
 282:Generated_Source\PSoC4/INT_Buttons.c ****     priority = (*INT_Buttons_INTC_PRIOR & INT_Buttons__INTC_PRIOR_MASK) >> priorityOffset;
 326              		.loc 1 282 0
 327 000a 074B     		ldr	r3, .L21
 328 000c 1A68     		ldr	r2, [r3]
 329 000e C023     		movs	r3, #192
 330 0010 1B04     		lsls	r3, r3, #16
 331 0012 1A40     		ands	r2, r3
 332 0014 7B68     		ldr	r3, [r7, #4]
 333 0016 DA40     		lsrs	r2, r2, r3
 334 0018 1300     		movs	r3, r2
 335 001a 3B60     		str	r3, [r7]
 283:Generated_Source\PSoC4/INT_Buttons.c **** 
 284:Generated_Source\PSoC4/INT_Buttons.c ****     return (uint8)priority;
 336              		.loc 1 284 0
 337 001c 3B68     		ldr	r3, [r7]
 338 001e DBB2     		uxtb	r3, r3
 285:Generated_Source\PSoC4/INT_Buttons.c **** }
 339              		.loc 1 285 0
 340 0020 1800     		movs	r0, r3
 341 0022 BD46     		mov	sp, r7
ARM GAS  C:\Users\Alex\AppData\Local\Temp\ccO66uyN.s 			page 12


 342 0024 02B0     		add	sp, sp, #8
 343              		@ sp needed
 344 0026 80BD     		pop	{r7, pc}
 345              	.L22:
 346              		.align	2
 347              	.L21:
 348 0028 00E400E0 		.word	-536812544
 349              		.cfi_endproc
 350              	.LFE9:
 351              		.size	INT_Buttons_GetPriority, .-INT_Buttons_GetPriority
 352              		.section	.text.INT_Buttons_Enable,"ax",%progbits
 353              		.align	2
 354              		.global	INT_Buttons_Enable
 355              		.code	16
 356              		.thumb_func
 357              		.type	INT_Buttons_Enable, %function
 358              	INT_Buttons_Enable:
 359              	.LFB10:
 286:Generated_Source\PSoC4/INT_Buttons.c **** 
 287:Generated_Source\PSoC4/INT_Buttons.c **** 
 288:Generated_Source\PSoC4/INT_Buttons.c **** /*******************************************************************************
 289:Generated_Source\PSoC4/INT_Buttons.c **** * Function Name: INT_Buttons_Enable
 290:Generated_Source\PSoC4/INT_Buttons.c **** ********************************************************************************
 291:Generated_Source\PSoC4/INT_Buttons.c **** *
 292:Generated_Source\PSoC4/INT_Buttons.c **** * Summary:
 293:Generated_Source\PSoC4/INT_Buttons.c **** *   Enables the interrupt to the interrupt controller. Do not call this function
 294:Generated_Source\PSoC4/INT_Buttons.c **** *   unless ISR_Start() has been called or the functionality of the ISR_Start() 
 295:Generated_Source\PSoC4/INT_Buttons.c **** *   function, which sets the vector and the priority, has been called.
 296:Generated_Source\PSoC4/INT_Buttons.c **** *
 297:Generated_Source\PSoC4/INT_Buttons.c **** * Parameters:
 298:Generated_Source\PSoC4/INT_Buttons.c **** *   None
 299:Generated_Source\PSoC4/INT_Buttons.c **** *
 300:Generated_Source\PSoC4/INT_Buttons.c **** * Return:
 301:Generated_Source\PSoC4/INT_Buttons.c **** *   None
 302:Generated_Source\PSoC4/INT_Buttons.c **** *
 303:Generated_Source\PSoC4/INT_Buttons.c **** *******************************************************************************/
 304:Generated_Source\PSoC4/INT_Buttons.c **** void INT_Buttons_Enable(void)
 305:Generated_Source\PSoC4/INT_Buttons.c **** {
 360              		.loc 1 305 0
 361              		.cfi_startproc
 362              		@ args = 0, pretend = 0, frame = 0
 363              		@ frame_needed = 1, uses_anonymous_args = 0
 364 0000 80B5     		push	{r7, lr}
 365              		.cfi_def_cfa_offset 8
 366              		.cfi_offset 7, -8
 367              		.cfi_offset 14, -4
 368 0002 00AF     		add	r7, sp, #0
 369              		.cfi_def_cfa_register 7
 306:Generated_Source\PSoC4/INT_Buttons.c ****     /* Enable the general interrupt. */
 307:Generated_Source\PSoC4/INT_Buttons.c ****     *INT_Buttons_INTC_SET_EN = INT_Buttons__INTC_MASK;
 370              		.loc 1 307 0
 371 0004 024B     		ldr	r3, .L24
 372 0006 0422     		movs	r2, #4
 373 0008 1A60     		str	r2, [r3]
 308:Generated_Source\PSoC4/INT_Buttons.c **** }
 374              		.loc 1 308 0
 375 000a C046     		nop
ARM GAS  C:\Users\Alex\AppData\Local\Temp\ccO66uyN.s 			page 13


 376 000c BD46     		mov	sp, r7
 377              		@ sp needed
 378 000e 80BD     		pop	{r7, pc}
 379              	.L25:
 380              		.align	2
 381              	.L24:
 382 0010 00E100E0 		.word	-536813312
 383              		.cfi_endproc
 384              	.LFE10:
 385              		.size	INT_Buttons_Enable, .-INT_Buttons_Enable
 386              		.section	.text.INT_Buttons_GetState,"ax",%progbits
 387              		.align	2
 388              		.global	INT_Buttons_GetState
 389              		.code	16
 390              		.thumb_func
 391              		.type	INT_Buttons_GetState, %function
 392              	INT_Buttons_GetState:
 393              	.LFB11:
 309:Generated_Source\PSoC4/INT_Buttons.c **** 
 310:Generated_Source\PSoC4/INT_Buttons.c **** 
 311:Generated_Source\PSoC4/INT_Buttons.c **** /*******************************************************************************
 312:Generated_Source\PSoC4/INT_Buttons.c **** * Function Name: INT_Buttons_GetState
 313:Generated_Source\PSoC4/INT_Buttons.c **** ********************************************************************************
 314:Generated_Source\PSoC4/INT_Buttons.c **** *
 315:Generated_Source\PSoC4/INT_Buttons.c **** * Summary:
 316:Generated_Source\PSoC4/INT_Buttons.c **** *   Gets the state (enabled, disabled) of the Interrupt.
 317:Generated_Source\PSoC4/INT_Buttons.c **** *
 318:Generated_Source\PSoC4/INT_Buttons.c **** * Parameters:
 319:Generated_Source\PSoC4/INT_Buttons.c **** *   None
 320:Generated_Source\PSoC4/INT_Buttons.c **** *
 321:Generated_Source\PSoC4/INT_Buttons.c **** * Return:
 322:Generated_Source\PSoC4/INT_Buttons.c **** *   1 if enabled, 0 if disabled.
 323:Generated_Source\PSoC4/INT_Buttons.c **** *
 324:Generated_Source\PSoC4/INT_Buttons.c **** *******************************************************************************/
 325:Generated_Source\PSoC4/INT_Buttons.c **** uint8 INT_Buttons_GetState(void)
 326:Generated_Source\PSoC4/INT_Buttons.c **** {
 394              		.loc 1 326 0
 395              		.cfi_startproc
 396              		@ args = 0, pretend = 0, frame = 0
 397              		@ frame_needed = 1, uses_anonymous_args = 0
 398 0000 80B5     		push	{r7, lr}
 399              		.cfi_def_cfa_offset 8
 400              		.cfi_offset 7, -8
 401              		.cfi_offset 14, -4
 402 0002 00AF     		add	r7, sp, #0
 403              		.cfi_def_cfa_register 7
 327:Generated_Source\PSoC4/INT_Buttons.c ****     /* Get the state of the general interrupt. */
 328:Generated_Source\PSoC4/INT_Buttons.c ****     return ((*INT_Buttons_INTC_SET_EN & (uint32)INT_Buttons__INTC_MASK) != 0u) ? 1u:0u;
 404              		.loc 1 328 0
 405 0004 054B     		ldr	r3, .L30
 406 0006 1B68     		ldr	r3, [r3]
 407 0008 0422     		movs	r2, #4
 408 000a 1340     		ands	r3, r2
 409 000c 01D0     		beq	.L27
 410              		.loc 1 328 0 is_stmt 0 discriminator 1
 411 000e 0123     		movs	r3, #1
 412 0010 00E0     		b	.L28
ARM GAS  C:\Users\Alex\AppData\Local\Temp\ccO66uyN.s 			page 14


 413              	.L27:
 414              		.loc 1 328 0 discriminator 2
 415 0012 0023     		movs	r3, #0
 416              	.L28:
 329:Generated_Source\PSoC4/INT_Buttons.c **** }
 417              		.loc 1 329 0 is_stmt 1 discriminator 4
 418 0014 1800     		movs	r0, r3
 419 0016 BD46     		mov	sp, r7
 420              		@ sp needed
 421 0018 80BD     		pop	{r7, pc}
 422              	.L31:
 423 001a C046     		.align	2
 424              	.L30:
 425 001c 00E100E0 		.word	-536813312
 426              		.cfi_endproc
 427              	.LFE11:
 428              		.size	INT_Buttons_GetState, .-INT_Buttons_GetState
 429              		.section	.text.INT_Buttons_Disable,"ax",%progbits
 430              		.align	2
 431              		.global	INT_Buttons_Disable
 432              		.code	16
 433              		.thumb_func
 434              		.type	INT_Buttons_Disable, %function
 435              	INT_Buttons_Disable:
 436              	.LFB12:
 330:Generated_Source\PSoC4/INT_Buttons.c **** 
 331:Generated_Source\PSoC4/INT_Buttons.c **** 
 332:Generated_Source\PSoC4/INT_Buttons.c **** /*******************************************************************************
 333:Generated_Source\PSoC4/INT_Buttons.c **** * Function Name: INT_Buttons_Disable
 334:Generated_Source\PSoC4/INT_Buttons.c **** ********************************************************************************
 335:Generated_Source\PSoC4/INT_Buttons.c **** *
 336:Generated_Source\PSoC4/INT_Buttons.c **** * Summary:
 337:Generated_Source\PSoC4/INT_Buttons.c **** *   Disables the Interrupt in the interrupt controller.
 338:Generated_Source\PSoC4/INT_Buttons.c **** *
 339:Generated_Source\PSoC4/INT_Buttons.c **** * Parameters:
 340:Generated_Source\PSoC4/INT_Buttons.c **** *   None
 341:Generated_Source\PSoC4/INT_Buttons.c **** *
 342:Generated_Source\PSoC4/INT_Buttons.c **** * Return:
 343:Generated_Source\PSoC4/INT_Buttons.c **** *   None
 344:Generated_Source\PSoC4/INT_Buttons.c **** *
 345:Generated_Source\PSoC4/INT_Buttons.c **** *******************************************************************************/
 346:Generated_Source\PSoC4/INT_Buttons.c **** void INT_Buttons_Disable(void)
 347:Generated_Source\PSoC4/INT_Buttons.c **** {
 437              		.loc 1 347 0
 438              		.cfi_startproc
 439              		@ args = 0, pretend = 0, frame = 0
 440              		@ frame_needed = 1, uses_anonymous_args = 0
 441 0000 80B5     		push	{r7, lr}
 442              		.cfi_def_cfa_offset 8
 443              		.cfi_offset 7, -8
 444              		.cfi_offset 14, -4
 445 0002 00AF     		add	r7, sp, #0
 446              		.cfi_def_cfa_register 7
 348:Generated_Source\PSoC4/INT_Buttons.c ****     /* Disable the general interrupt. */
 349:Generated_Source\PSoC4/INT_Buttons.c ****     *INT_Buttons_INTC_CLR_EN = INT_Buttons__INTC_MASK;
 447              		.loc 1 349 0
 448 0004 024B     		ldr	r3, .L33
ARM GAS  C:\Users\Alex\AppData\Local\Temp\ccO66uyN.s 			page 15


 449 0006 0422     		movs	r2, #4
 450 0008 1A60     		str	r2, [r3]
 350:Generated_Source\PSoC4/INT_Buttons.c **** }
 451              		.loc 1 350 0
 452 000a C046     		nop
 453 000c BD46     		mov	sp, r7
 454              		@ sp needed
 455 000e 80BD     		pop	{r7, pc}
 456              	.L34:
 457              		.align	2
 458              	.L33:
 459 0010 80E100E0 		.word	-536813184
 460              		.cfi_endproc
 461              	.LFE12:
 462              		.size	INT_Buttons_Disable, .-INT_Buttons_Disable
 463              		.section	.text.INT_Buttons_SetPending,"ax",%progbits
 464              		.align	2
 465              		.global	INT_Buttons_SetPending
 466              		.code	16
 467              		.thumb_func
 468              		.type	INT_Buttons_SetPending, %function
 469              	INT_Buttons_SetPending:
 470              	.LFB13:
 351:Generated_Source\PSoC4/INT_Buttons.c **** 
 352:Generated_Source\PSoC4/INT_Buttons.c **** 
 353:Generated_Source\PSoC4/INT_Buttons.c **** /*******************************************************************************
 354:Generated_Source\PSoC4/INT_Buttons.c **** * Function Name: INT_Buttons_SetPending
 355:Generated_Source\PSoC4/INT_Buttons.c **** ********************************************************************************
 356:Generated_Source\PSoC4/INT_Buttons.c **** *
 357:Generated_Source\PSoC4/INT_Buttons.c **** * Summary:
 358:Generated_Source\PSoC4/INT_Buttons.c **** *   Causes the Interrupt to enter the pending state, a software method of
 359:Generated_Source\PSoC4/INT_Buttons.c **** *   generating the interrupt.
 360:Generated_Source\PSoC4/INT_Buttons.c **** *
 361:Generated_Source\PSoC4/INT_Buttons.c **** * Parameters:
 362:Generated_Source\PSoC4/INT_Buttons.c **** *   None
 363:Generated_Source\PSoC4/INT_Buttons.c **** *
 364:Generated_Source\PSoC4/INT_Buttons.c **** * Return:
 365:Generated_Source\PSoC4/INT_Buttons.c **** *   None
 366:Generated_Source\PSoC4/INT_Buttons.c **** *
 367:Generated_Source\PSoC4/INT_Buttons.c **** * Side Effects:
 368:Generated_Source\PSoC4/INT_Buttons.c **** *   If interrupts are enabled and the interrupt is set up properly, the ISR is
 369:Generated_Source\PSoC4/INT_Buttons.c **** *   entered (depending on the priority of this interrupt and other pending 
 370:Generated_Source\PSoC4/INT_Buttons.c **** *   interrupts).
 371:Generated_Source\PSoC4/INT_Buttons.c **** *
 372:Generated_Source\PSoC4/INT_Buttons.c **** *******************************************************************************/
 373:Generated_Source\PSoC4/INT_Buttons.c **** void INT_Buttons_SetPending(void)
 374:Generated_Source\PSoC4/INT_Buttons.c **** {
 471              		.loc 1 374 0
 472              		.cfi_startproc
 473              		@ args = 0, pretend = 0, frame = 0
 474              		@ frame_needed = 1, uses_anonymous_args = 0
 475 0000 80B5     		push	{r7, lr}
 476              		.cfi_def_cfa_offset 8
 477              		.cfi_offset 7, -8
 478              		.cfi_offset 14, -4
 479 0002 00AF     		add	r7, sp, #0
 480              		.cfi_def_cfa_register 7
ARM GAS  C:\Users\Alex\AppData\Local\Temp\ccO66uyN.s 			page 16


 375:Generated_Source\PSoC4/INT_Buttons.c ****     *INT_Buttons_INTC_SET_PD = INT_Buttons__INTC_MASK;
 481              		.loc 1 375 0
 482 0004 024B     		ldr	r3, .L36
 483 0006 0422     		movs	r2, #4
 484 0008 1A60     		str	r2, [r3]
 376:Generated_Source\PSoC4/INT_Buttons.c **** }
 485              		.loc 1 376 0
 486 000a C046     		nop
 487 000c BD46     		mov	sp, r7
 488              		@ sp needed
 489 000e 80BD     		pop	{r7, pc}
 490              	.L37:
 491              		.align	2
 492              	.L36:
 493 0010 00E200E0 		.word	-536813056
 494              		.cfi_endproc
 495              	.LFE13:
 496              		.size	INT_Buttons_SetPending, .-INT_Buttons_SetPending
 497              		.section	.text.INT_Buttons_ClearPending,"ax",%progbits
 498              		.align	2
 499              		.global	INT_Buttons_ClearPending
 500              		.code	16
 501              		.thumb_func
 502              		.type	INT_Buttons_ClearPending, %function
 503              	INT_Buttons_ClearPending:
 504              	.LFB14:
 377:Generated_Source\PSoC4/INT_Buttons.c **** 
 378:Generated_Source\PSoC4/INT_Buttons.c **** 
 379:Generated_Source\PSoC4/INT_Buttons.c **** /*******************************************************************************
 380:Generated_Source\PSoC4/INT_Buttons.c **** * Function Name: INT_Buttons_ClearPending
 381:Generated_Source\PSoC4/INT_Buttons.c **** ********************************************************************************
 382:Generated_Source\PSoC4/INT_Buttons.c **** *
 383:Generated_Source\PSoC4/INT_Buttons.c **** * Summary:
 384:Generated_Source\PSoC4/INT_Buttons.c **** *   Clears a pending interrupt in the interrupt controller.
 385:Generated_Source\PSoC4/INT_Buttons.c **** *
 386:Generated_Source\PSoC4/INT_Buttons.c **** *   Note Some interrupt sources are clear-on-read and require the block 
 387:Generated_Source\PSoC4/INT_Buttons.c **** *   interrupt/status register to be read/cleared with the appropriate block API 
 388:Generated_Source\PSoC4/INT_Buttons.c **** *   (GPIO, UART, and so on). Otherwise the ISR will continue to remain in 
 389:Generated_Source\PSoC4/INT_Buttons.c **** *   pending state even though the interrupt itself is cleared using this API.
 390:Generated_Source\PSoC4/INT_Buttons.c **** *
 391:Generated_Source\PSoC4/INT_Buttons.c **** * Parameters:
 392:Generated_Source\PSoC4/INT_Buttons.c **** *   None
 393:Generated_Source\PSoC4/INT_Buttons.c **** *
 394:Generated_Source\PSoC4/INT_Buttons.c **** * Return:
 395:Generated_Source\PSoC4/INT_Buttons.c **** *   None
 396:Generated_Source\PSoC4/INT_Buttons.c **** *
 397:Generated_Source\PSoC4/INT_Buttons.c **** *******************************************************************************/
 398:Generated_Source\PSoC4/INT_Buttons.c **** void INT_Buttons_ClearPending(void)
 399:Generated_Source\PSoC4/INT_Buttons.c **** {
 505              		.loc 1 399 0
 506              		.cfi_startproc
 507              		@ args = 0, pretend = 0, frame = 0
 508              		@ frame_needed = 1, uses_anonymous_args = 0
 509 0000 80B5     		push	{r7, lr}
 510              		.cfi_def_cfa_offset 8
 511              		.cfi_offset 7, -8
 512              		.cfi_offset 14, -4
ARM GAS  C:\Users\Alex\AppData\Local\Temp\ccO66uyN.s 			page 17


 513 0002 00AF     		add	r7, sp, #0
 514              		.cfi_def_cfa_register 7
 400:Generated_Source\PSoC4/INT_Buttons.c ****     *INT_Buttons_INTC_CLR_PD = INT_Buttons__INTC_MASK;
 515              		.loc 1 400 0
 516 0004 024B     		ldr	r3, .L39
 517 0006 0422     		movs	r2, #4
 518 0008 1A60     		str	r2, [r3]
 401:Generated_Source\PSoC4/INT_Buttons.c **** }
 519              		.loc 1 401 0
 520 000a C046     		nop
 521 000c BD46     		mov	sp, r7
 522              		@ sp needed
 523 000e 80BD     		pop	{r7, pc}
 524              	.L40:
 525              		.align	2
 526              	.L39:
 527 0010 80E200E0 		.word	-536812928
 528              		.cfi_endproc
 529              	.LFE14:
 530              		.size	INT_Buttons_ClearPending, .-INT_Buttons_ClearPending
 531              		.text
 532              	.Letext0:
 533              		.file 2 "Generated_Source\\PSoC4/cytypes.h"
