ARM GAS  C:\Users\ELEASO~1\AppData\Local\Temp\cckUdMaf.s 			page 1


   1              		.syntax unified
   2              		.cpu cortex-m0
   3              		.fpu softvfp
   4              		.eabi_attribute 20, 1
   5              		.eabi_attribute 21, 1
   6              		.eabi_attribute 23, 3
   7              		.eabi_attribute 24, 1
   8              		.eabi_attribute 25, 1
   9              		.eabi_attribute 26, 1
  10              		.eabi_attribute 30, 6
  11              		.eabi_attribute 34, 0
  12              		.eabi_attribute 18, 4
  13              		.thumb
  14              		.syntax unified
  15              		.file	"IsrEnoUART.c"
  16              		.text
  17              	.Ltext0:
  18              		.cfi_sections	.debug_frame
  19              		.section	.text.IsrEnoUART_Start,"ax",%progbits
  20              		.align	2
  21              		.global	IsrEnoUART_Start
  22              		.code	16
  23              		.thumb_func
  24              		.type	IsrEnoUART_Start, %function
  25              	IsrEnoUART_Start:
  26              	.LFB2:
  27              		.file 1 "Generated_Source\\PSoC4\\IsrEnoUART.c"
   1:Generated_Source\PSoC4/IsrEnoUART.c **** /*******************************************************************************
   2:Generated_Source\PSoC4/IsrEnoUART.c **** * File Name: IsrEnoUART.c  
   3:Generated_Source\PSoC4/IsrEnoUART.c **** * Version 1.70
   4:Generated_Source\PSoC4/IsrEnoUART.c **** *
   5:Generated_Source\PSoC4/IsrEnoUART.c **** *  Description:
   6:Generated_Source\PSoC4/IsrEnoUART.c **** *   API for controlling the state of an interrupt.
   7:Generated_Source\PSoC4/IsrEnoUART.c **** *
   8:Generated_Source\PSoC4/IsrEnoUART.c **** *
   9:Generated_Source\PSoC4/IsrEnoUART.c **** *  Note:
  10:Generated_Source\PSoC4/IsrEnoUART.c **** *
  11:Generated_Source\PSoC4/IsrEnoUART.c **** ********************************************************************************
  12:Generated_Source\PSoC4/IsrEnoUART.c **** * Copyright 2008-2015, Cypress Semiconductor Corporation.  All rights reserved.
  13:Generated_Source\PSoC4/IsrEnoUART.c **** * You may use this file only in accordance with the license, terms, conditions, 
  14:Generated_Source\PSoC4/IsrEnoUART.c **** * disclaimers, and limitations in the end user license agreement accompanying 
  15:Generated_Source\PSoC4/IsrEnoUART.c **** * the software package with which this file was provided.
  16:Generated_Source\PSoC4/IsrEnoUART.c **** *******************************************************************************/
  17:Generated_Source\PSoC4/IsrEnoUART.c **** 
  18:Generated_Source\PSoC4/IsrEnoUART.c **** 
  19:Generated_Source\PSoC4/IsrEnoUART.c **** #include <cydevice_trm.h>
  20:Generated_Source\PSoC4/IsrEnoUART.c **** #include <CyLib.h>
  21:Generated_Source\PSoC4/IsrEnoUART.c **** #include <IsrEnoUART.h>
  22:Generated_Source\PSoC4/IsrEnoUART.c **** #include "cyapicallbacks.h"
  23:Generated_Source\PSoC4/IsrEnoUART.c **** 
  24:Generated_Source\PSoC4/IsrEnoUART.c **** #if !defined(IsrEnoUART__REMOVED) /* Check for removal by optimization */
  25:Generated_Source\PSoC4/IsrEnoUART.c **** 
  26:Generated_Source\PSoC4/IsrEnoUART.c **** /*******************************************************************************
  27:Generated_Source\PSoC4/IsrEnoUART.c **** *  Place your includes, defines and code here 
  28:Generated_Source\PSoC4/IsrEnoUART.c **** ********************************************************************************/
  29:Generated_Source\PSoC4/IsrEnoUART.c **** /* `#START IsrEnoUART_intc` */
  30:Generated_Source\PSoC4/IsrEnoUART.c **** 
ARM GAS  C:\Users\ELEASO~1\AppData\Local\Temp\cckUdMaf.s 			page 2


  31:Generated_Source\PSoC4/IsrEnoUART.c **** /* `#END` */
  32:Generated_Source\PSoC4/IsrEnoUART.c **** 
  33:Generated_Source\PSoC4/IsrEnoUART.c **** extern cyisraddress CyRamVectors[CYINT_IRQ_BASE + CY_NUM_INTERRUPTS];
  34:Generated_Source\PSoC4/IsrEnoUART.c **** 
  35:Generated_Source\PSoC4/IsrEnoUART.c **** /* Declared in startup, used to set unused interrupts to. */
  36:Generated_Source\PSoC4/IsrEnoUART.c **** CY_ISR_PROTO(IntDefaultHandler);
  37:Generated_Source\PSoC4/IsrEnoUART.c **** 
  38:Generated_Source\PSoC4/IsrEnoUART.c **** 
  39:Generated_Source\PSoC4/IsrEnoUART.c **** /*******************************************************************************
  40:Generated_Source\PSoC4/IsrEnoUART.c **** * Function Name: IsrEnoUART_Start
  41:Generated_Source\PSoC4/IsrEnoUART.c **** ********************************************************************************
  42:Generated_Source\PSoC4/IsrEnoUART.c **** *
  43:Generated_Source\PSoC4/IsrEnoUART.c **** * Summary:
  44:Generated_Source\PSoC4/IsrEnoUART.c **** *  Set up the interrupt and enable it. This function disables the interrupt, 
  45:Generated_Source\PSoC4/IsrEnoUART.c **** *  sets the default interrupt vector, sets the priority from the value in the
  46:Generated_Source\PSoC4/IsrEnoUART.c **** *  Design Wide Resources Interrupt Editor, then enables the interrupt to the 
  47:Generated_Source\PSoC4/IsrEnoUART.c **** *  interrupt controller.
  48:Generated_Source\PSoC4/IsrEnoUART.c **** *
  49:Generated_Source\PSoC4/IsrEnoUART.c **** * Parameters:  
  50:Generated_Source\PSoC4/IsrEnoUART.c **** *   None
  51:Generated_Source\PSoC4/IsrEnoUART.c **** *
  52:Generated_Source\PSoC4/IsrEnoUART.c **** * Return:
  53:Generated_Source\PSoC4/IsrEnoUART.c **** *   None
  54:Generated_Source\PSoC4/IsrEnoUART.c **** *
  55:Generated_Source\PSoC4/IsrEnoUART.c **** *******************************************************************************/
  56:Generated_Source\PSoC4/IsrEnoUART.c **** void IsrEnoUART_Start(void)
  57:Generated_Source\PSoC4/IsrEnoUART.c **** {
  28              		.loc 1 57 0
  29              		.cfi_startproc
  30              		@ args = 0, pretend = 0, frame = 0
  31              		@ frame_needed = 1, uses_anonymous_args = 0
  32 0000 80B5     		push	{r7, lr}
  33              		.cfi_def_cfa_offset 8
  34              		.cfi_offset 7, -8
  35              		.cfi_offset 14, -4
  36 0002 00AF     		add	r7, sp, #0
  37              		.cfi_def_cfa_register 7
  58:Generated_Source\PSoC4/IsrEnoUART.c ****     /* For all we know the interrupt is active. */
  59:Generated_Source\PSoC4/IsrEnoUART.c ****     IsrEnoUART_Disable();
  38              		.loc 1 59 0
  39 0004 FFF7FEFF 		bl	IsrEnoUART_Disable
  60:Generated_Source\PSoC4/IsrEnoUART.c **** 
  61:Generated_Source\PSoC4/IsrEnoUART.c ****     /* Set the ISR to point to the IsrEnoUART Interrupt. */
  62:Generated_Source\PSoC4/IsrEnoUART.c ****     IsrEnoUART_SetVector(&IsrEnoUART_Interrupt);
  40              		.loc 1 62 0
  41 0008 054B     		ldr	r3, .L2
  42 000a 1800     		movs	r0, r3
  43 000c FFF7FEFF 		bl	IsrEnoUART_SetVector
  63:Generated_Source\PSoC4/IsrEnoUART.c **** 
  64:Generated_Source\PSoC4/IsrEnoUART.c ****     /* Set the priority. */
  65:Generated_Source\PSoC4/IsrEnoUART.c ****     IsrEnoUART_SetPriority((uint8)IsrEnoUART_INTC_PRIOR_NUMBER);
  44              		.loc 1 65 0
  45 0010 0020     		movs	r0, #0
  46 0012 FFF7FEFF 		bl	IsrEnoUART_SetPriority
  66:Generated_Source\PSoC4/IsrEnoUART.c **** 
  67:Generated_Source\PSoC4/IsrEnoUART.c ****     /* Enable it. */
  68:Generated_Source\PSoC4/IsrEnoUART.c ****     IsrEnoUART_Enable();
ARM GAS  C:\Users\ELEASO~1\AppData\Local\Temp\cckUdMaf.s 			page 3


  47              		.loc 1 68 0
  48 0016 FFF7FEFF 		bl	IsrEnoUART_Enable
  69:Generated_Source\PSoC4/IsrEnoUART.c **** }
  49              		.loc 1 69 0
  50 001a C046     		nop
  51 001c BD46     		mov	sp, r7
  52              		@ sp needed
  53 001e 80BD     		pop	{r7, pc}
  54              	.L3:
  55              		.align	2
  56              	.L2:
  57 0020 00000000 		.word	IsrEnoUART_Interrupt
  58              		.cfi_endproc
  59              	.LFE2:
  60              		.size	IsrEnoUART_Start, .-IsrEnoUART_Start
  61              		.section	.text.IsrEnoUART_StartEx,"ax",%progbits
  62              		.align	2
  63              		.global	IsrEnoUART_StartEx
  64              		.code	16
  65              		.thumb_func
  66              		.type	IsrEnoUART_StartEx, %function
  67              	IsrEnoUART_StartEx:
  68              	.LFB3:
  70:Generated_Source\PSoC4/IsrEnoUART.c **** 
  71:Generated_Source\PSoC4/IsrEnoUART.c **** 
  72:Generated_Source\PSoC4/IsrEnoUART.c **** /*******************************************************************************
  73:Generated_Source\PSoC4/IsrEnoUART.c **** * Function Name: IsrEnoUART_StartEx
  74:Generated_Source\PSoC4/IsrEnoUART.c **** ********************************************************************************
  75:Generated_Source\PSoC4/IsrEnoUART.c **** *
  76:Generated_Source\PSoC4/IsrEnoUART.c **** * Summary:
  77:Generated_Source\PSoC4/IsrEnoUART.c **** *  Sets up the interrupt and enables it. This function disables the interrupt,
  78:Generated_Source\PSoC4/IsrEnoUART.c **** *  sets the interrupt vector based on the address passed in, sets the priority 
  79:Generated_Source\PSoC4/IsrEnoUART.c **** *  from the value in the Design Wide Resources Interrupt Editor, then enables 
  80:Generated_Source\PSoC4/IsrEnoUART.c **** *  the interrupt to the interrupt controller.
  81:Generated_Source\PSoC4/IsrEnoUART.c **** *  
  82:Generated_Source\PSoC4/IsrEnoUART.c **** *  When defining ISR functions, the CY_ISR and CY_ISR_PROTO macros should be 
  83:Generated_Source\PSoC4/IsrEnoUART.c **** *  used to provide consistent definition across compilers:
  84:Generated_Source\PSoC4/IsrEnoUART.c **** *  
  85:Generated_Source\PSoC4/IsrEnoUART.c **** *  Function definition example:
  86:Generated_Source\PSoC4/IsrEnoUART.c **** *   CY_ISR(MyISR)
  87:Generated_Source\PSoC4/IsrEnoUART.c **** *   {
  88:Generated_Source\PSoC4/IsrEnoUART.c **** *   }
  89:Generated_Source\PSoC4/IsrEnoUART.c **** *   Function prototype example:
  90:Generated_Source\PSoC4/IsrEnoUART.c **** *   CY_ISR_PROTO(MyISR);
  91:Generated_Source\PSoC4/IsrEnoUART.c **** *
  92:Generated_Source\PSoC4/IsrEnoUART.c **** * Parameters:  
  93:Generated_Source\PSoC4/IsrEnoUART.c **** *   address: Address of the ISR to set in the interrupt vector table.
  94:Generated_Source\PSoC4/IsrEnoUART.c **** *
  95:Generated_Source\PSoC4/IsrEnoUART.c **** * Return:
  96:Generated_Source\PSoC4/IsrEnoUART.c **** *   None
  97:Generated_Source\PSoC4/IsrEnoUART.c **** *
  98:Generated_Source\PSoC4/IsrEnoUART.c **** *******************************************************************************/
  99:Generated_Source\PSoC4/IsrEnoUART.c **** void IsrEnoUART_StartEx(cyisraddress address)
 100:Generated_Source\PSoC4/IsrEnoUART.c **** {
  69              		.loc 1 100 0
  70              		.cfi_startproc
  71              		@ args = 0, pretend = 0, frame = 8
ARM GAS  C:\Users\ELEASO~1\AppData\Local\Temp\cckUdMaf.s 			page 4


  72              		@ frame_needed = 1, uses_anonymous_args = 0
  73 0000 80B5     		push	{r7, lr}
  74              		.cfi_def_cfa_offset 8
  75              		.cfi_offset 7, -8
  76              		.cfi_offset 14, -4
  77 0002 82B0     		sub	sp, sp, #8
  78              		.cfi_def_cfa_offset 16
  79 0004 00AF     		add	r7, sp, #0
  80              		.cfi_def_cfa_register 7
  81 0006 7860     		str	r0, [r7, #4]
 101:Generated_Source\PSoC4/IsrEnoUART.c ****     /* For all we know the interrupt is active. */
 102:Generated_Source\PSoC4/IsrEnoUART.c ****     IsrEnoUART_Disable();
  82              		.loc 1 102 0
  83 0008 FFF7FEFF 		bl	IsrEnoUART_Disable
 103:Generated_Source\PSoC4/IsrEnoUART.c **** 
 104:Generated_Source\PSoC4/IsrEnoUART.c ****     /* Set the ISR to point to the IsrEnoUART Interrupt. */
 105:Generated_Source\PSoC4/IsrEnoUART.c ****     IsrEnoUART_SetVector(address);
  84              		.loc 1 105 0
  85 000c 7B68     		ldr	r3, [r7, #4]
  86 000e 1800     		movs	r0, r3
  87 0010 FFF7FEFF 		bl	IsrEnoUART_SetVector
 106:Generated_Source\PSoC4/IsrEnoUART.c **** 
 107:Generated_Source\PSoC4/IsrEnoUART.c ****     /* Set the priority. */
 108:Generated_Source\PSoC4/IsrEnoUART.c ****     IsrEnoUART_SetPriority((uint8)IsrEnoUART_INTC_PRIOR_NUMBER);
  88              		.loc 1 108 0
  89 0014 0020     		movs	r0, #0
  90 0016 FFF7FEFF 		bl	IsrEnoUART_SetPriority
 109:Generated_Source\PSoC4/IsrEnoUART.c **** 
 110:Generated_Source\PSoC4/IsrEnoUART.c ****     /* Enable it. */
 111:Generated_Source\PSoC4/IsrEnoUART.c ****     IsrEnoUART_Enable();
  91              		.loc 1 111 0
  92 001a FFF7FEFF 		bl	IsrEnoUART_Enable
 112:Generated_Source\PSoC4/IsrEnoUART.c **** }
  93              		.loc 1 112 0
  94 001e C046     		nop
  95 0020 BD46     		mov	sp, r7
  96 0022 02B0     		add	sp, sp, #8
  97              		@ sp needed
  98 0024 80BD     		pop	{r7, pc}
  99              		.cfi_endproc
 100              	.LFE3:
 101              		.size	IsrEnoUART_StartEx, .-IsrEnoUART_StartEx
 102 0026 C046     		.section	.text.IsrEnoUART_Stop,"ax",%progbits
 103              		.align	2
 104              		.global	IsrEnoUART_Stop
 105              		.code	16
 106              		.thumb_func
 107              		.type	IsrEnoUART_Stop, %function
 108              	IsrEnoUART_Stop:
 109              	.LFB4:
 113:Generated_Source\PSoC4/IsrEnoUART.c **** 
 114:Generated_Source\PSoC4/IsrEnoUART.c **** 
 115:Generated_Source\PSoC4/IsrEnoUART.c **** /*******************************************************************************
 116:Generated_Source\PSoC4/IsrEnoUART.c **** * Function Name: IsrEnoUART_Stop
 117:Generated_Source\PSoC4/IsrEnoUART.c **** ********************************************************************************
 118:Generated_Source\PSoC4/IsrEnoUART.c **** *
 119:Generated_Source\PSoC4/IsrEnoUART.c **** * Summary:
ARM GAS  C:\Users\ELEASO~1\AppData\Local\Temp\cckUdMaf.s 			page 5


 120:Generated_Source\PSoC4/IsrEnoUART.c **** *   Disables and removes the interrupt.
 121:Generated_Source\PSoC4/IsrEnoUART.c **** *
 122:Generated_Source\PSoC4/IsrEnoUART.c **** * Parameters:  
 123:Generated_Source\PSoC4/IsrEnoUART.c **** *   None
 124:Generated_Source\PSoC4/IsrEnoUART.c **** *
 125:Generated_Source\PSoC4/IsrEnoUART.c **** * Return:
 126:Generated_Source\PSoC4/IsrEnoUART.c **** *   None
 127:Generated_Source\PSoC4/IsrEnoUART.c **** *
 128:Generated_Source\PSoC4/IsrEnoUART.c **** *******************************************************************************/
 129:Generated_Source\PSoC4/IsrEnoUART.c **** void IsrEnoUART_Stop(void)
 130:Generated_Source\PSoC4/IsrEnoUART.c **** {
 110              		.loc 1 130 0
 111              		.cfi_startproc
 112              		@ args = 0, pretend = 0, frame = 0
 113              		@ frame_needed = 1, uses_anonymous_args = 0
 114 0000 80B5     		push	{r7, lr}
 115              		.cfi_def_cfa_offset 8
 116              		.cfi_offset 7, -8
 117              		.cfi_offset 14, -4
 118 0002 00AF     		add	r7, sp, #0
 119              		.cfi_def_cfa_register 7
 131:Generated_Source\PSoC4/IsrEnoUART.c ****     /* Disable this interrupt. */
 132:Generated_Source\PSoC4/IsrEnoUART.c ****     IsrEnoUART_Disable();
 120              		.loc 1 132 0
 121 0004 FFF7FEFF 		bl	IsrEnoUART_Disable
 133:Generated_Source\PSoC4/IsrEnoUART.c **** 
 134:Generated_Source\PSoC4/IsrEnoUART.c ****     /* Set the ISR to point to the passive one. */
 135:Generated_Source\PSoC4/IsrEnoUART.c ****     IsrEnoUART_SetVector(&IntDefaultHandler);
 122              		.loc 1 135 0
 123 0008 034B     		ldr	r3, .L6
 124 000a 1800     		movs	r0, r3
 125 000c FFF7FEFF 		bl	IsrEnoUART_SetVector
 136:Generated_Source\PSoC4/IsrEnoUART.c **** }
 126              		.loc 1 136 0
 127 0010 C046     		nop
 128 0012 BD46     		mov	sp, r7
 129              		@ sp needed
 130 0014 80BD     		pop	{r7, pc}
 131              	.L7:
 132 0016 C046     		.align	2
 133              	.L6:
 134 0018 00000000 		.word	IntDefaultHandler
 135              		.cfi_endproc
 136              	.LFE4:
 137              		.size	IsrEnoUART_Stop, .-IsrEnoUART_Stop
 138              		.section	.text.IsrEnoUART_Interrupt,"ax",%progbits
 139              		.align	2
 140              		.global	IsrEnoUART_Interrupt
 141              		.code	16
 142              		.thumb_func
 143              		.type	IsrEnoUART_Interrupt, %function
 144              	IsrEnoUART_Interrupt:
 145              	.LFB5:
 137:Generated_Source\PSoC4/IsrEnoUART.c **** 
 138:Generated_Source\PSoC4/IsrEnoUART.c **** 
 139:Generated_Source\PSoC4/IsrEnoUART.c **** /*******************************************************************************
 140:Generated_Source\PSoC4/IsrEnoUART.c **** * Function Name: IsrEnoUART_Interrupt
ARM GAS  C:\Users\ELEASO~1\AppData\Local\Temp\cckUdMaf.s 			page 6


 141:Generated_Source\PSoC4/IsrEnoUART.c **** ********************************************************************************
 142:Generated_Source\PSoC4/IsrEnoUART.c **** *
 143:Generated_Source\PSoC4/IsrEnoUART.c **** * Summary:
 144:Generated_Source\PSoC4/IsrEnoUART.c **** *   The default Interrupt Service Routine for IsrEnoUART.
 145:Generated_Source\PSoC4/IsrEnoUART.c **** *
 146:Generated_Source\PSoC4/IsrEnoUART.c **** *   Add custom code between the START and END comments to keep the next version
 147:Generated_Source\PSoC4/IsrEnoUART.c **** *   of this file from over-writing your code.
 148:Generated_Source\PSoC4/IsrEnoUART.c **** *
 149:Generated_Source\PSoC4/IsrEnoUART.c **** *   Note You may use either the default ISR by using this API, or you may define
 150:Generated_Source\PSoC4/IsrEnoUART.c **** *   your own separate ISR through ISR_StartEx().
 151:Generated_Source\PSoC4/IsrEnoUART.c **** *
 152:Generated_Source\PSoC4/IsrEnoUART.c **** * Parameters:  
 153:Generated_Source\PSoC4/IsrEnoUART.c **** *   None
 154:Generated_Source\PSoC4/IsrEnoUART.c **** *
 155:Generated_Source\PSoC4/IsrEnoUART.c **** * Return:
 156:Generated_Source\PSoC4/IsrEnoUART.c **** *   None
 157:Generated_Source\PSoC4/IsrEnoUART.c **** *
 158:Generated_Source\PSoC4/IsrEnoUART.c **** *******************************************************************************/
 159:Generated_Source\PSoC4/IsrEnoUART.c **** CY_ISR(IsrEnoUART_Interrupt)
 160:Generated_Source\PSoC4/IsrEnoUART.c **** {
 146              		.loc 1 160 0
 147              		.cfi_startproc
 148              		@ args = 0, pretend = 0, frame = 0
 149              		@ frame_needed = 1, uses_anonymous_args = 0
 150 0000 80B5     		push	{r7, lr}
 151              		.cfi_def_cfa_offset 8
 152              		.cfi_offset 7, -8
 153              		.cfi_offset 14, -4
 154 0002 00AF     		add	r7, sp, #0
 155              		.cfi_def_cfa_register 7
 161:Generated_Source\PSoC4/IsrEnoUART.c ****     #ifdef IsrEnoUART_INTERRUPT_INTERRUPT_CALLBACK
 162:Generated_Source\PSoC4/IsrEnoUART.c ****         IsrEnoUART_Interrupt_InterruptCallback();
 163:Generated_Source\PSoC4/IsrEnoUART.c ****     #endif /* IsrEnoUART_INTERRUPT_INTERRUPT_CALLBACK */ 
 164:Generated_Source\PSoC4/IsrEnoUART.c **** 
 165:Generated_Source\PSoC4/IsrEnoUART.c ****     /*  Place your Interrupt code here. */
 166:Generated_Source\PSoC4/IsrEnoUART.c ****     /* `#START IsrEnoUART_Interrupt` */
 167:Generated_Source\PSoC4/IsrEnoUART.c **** 
 168:Generated_Source\PSoC4/IsrEnoUART.c ****     /* `#END` */
 169:Generated_Source\PSoC4/IsrEnoUART.c **** }
 156              		.loc 1 169 0
 157 0004 C046     		nop
 158 0006 BD46     		mov	sp, r7
 159              		@ sp needed
 160 0008 80BD     		pop	{r7, pc}
 161              		.cfi_endproc
 162              	.LFE5:
 163              		.size	IsrEnoUART_Interrupt, .-IsrEnoUART_Interrupt
 164              		.section	.text.IsrEnoUART_SetVector,"ax",%progbits
 165              		.align	2
 166              		.global	IsrEnoUART_SetVector
 167              		.code	16
 168              		.thumb_func
 169              		.type	IsrEnoUART_SetVector, %function
 170              	IsrEnoUART_SetVector:
 171              	.LFB6:
 170:Generated_Source\PSoC4/IsrEnoUART.c **** 
 171:Generated_Source\PSoC4/IsrEnoUART.c **** 
ARM GAS  C:\Users\ELEASO~1\AppData\Local\Temp\cckUdMaf.s 			page 7


 172:Generated_Source\PSoC4/IsrEnoUART.c **** /*******************************************************************************
 173:Generated_Source\PSoC4/IsrEnoUART.c **** * Function Name: IsrEnoUART_SetVector
 174:Generated_Source\PSoC4/IsrEnoUART.c **** ********************************************************************************
 175:Generated_Source\PSoC4/IsrEnoUART.c **** *
 176:Generated_Source\PSoC4/IsrEnoUART.c **** * Summary:
 177:Generated_Source\PSoC4/IsrEnoUART.c **** *   Change the ISR vector for the Interrupt. Note calling IsrEnoUART_Start
 178:Generated_Source\PSoC4/IsrEnoUART.c **** *   will override any effect this method would have had. To set the vector 
 179:Generated_Source\PSoC4/IsrEnoUART.c **** *   before the component has been started use IsrEnoUART_StartEx instead.
 180:Generated_Source\PSoC4/IsrEnoUART.c **** * 
 181:Generated_Source\PSoC4/IsrEnoUART.c **** *   When defining ISR functions, the CY_ISR and CY_ISR_PROTO macros should be 
 182:Generated_Source\PSoC4/IsrEnoUART.c **** *   used to provide consistent definition across compilers:
 183:Generated_Source\PSoC4/IsrEnoUART.c **** *
 184:Generated_Source\PSoC4/IsrEnoUART.c **** *   Function definition example:
 185:Generated_Source\PSoC4/IsrEnoUART.c **** *   CY_ISR(MyISR)
 186:Generated_Source\PSoC4/IsrEnoUART.c **** *   {
 187:Generated_Source\PSoC4/IsrEnoUART.c **** *   }
 188:Generated_Source\PSoC4/IsrEnoUART.c **** *
 189:Generated_Source\PSoC4/IsrEnoUART.c **** *   Function prototype example:
 190:Generated_Source\PSoC4/IsrEnoUART.c **** *     CY_ISR_PROTO(MyISR);
 191:Generated_Source\PSoC4/IsrEnoUART.c **** *
 192:Generated_Source\PSoC4/IsrEnoUART.c **** * Parameters:
 193:Generated_Source\PSoC4/IsrEnoUART.c **** *   address: Address of the ISR to set in the interrupt vector table.
 194:Generated_Source\PSoC4/IsrEnoUART.c **** *
 195:Generated_Source\PSoC4/IsrEnoUART.c **** * Return:
 196:Generated_Source\PSoC4/IsrEnoUART.c **** *   None
 197:Generated_Source\PSoC4/IsrEnoUART.c **** *
 198:Generated_Source\PSoC4/IsrEnoUART.c **** *******************************************************************************/
 199:Generated_Source\PSoC4/IsrEnoUART.c **** void IsrEnoUART_SetVector(cyisraddress address)
 200:Generated_Source\PSoC4/IsrEnoUART.c **** {
 172              		.loc 1 200 0
 173              		.cfi_startproc
 174              		@ args = 0, pretend = 0, frame = 8
 175              		@ frame_needed = 1, uses_anonymous_args = 0
 176 0000 80B5     		push	{r7, lr}
 177              		.cfi_def_cfa_offset 8
 178              		.cfi_offset 7, -8
 179              		.cfi_offset 14, -4
 180 0002 82B0     		sub	sp, sp, #8
 181              		.cfi_def_cfa_offset 16
 182 0004 00AF     		add	r7, sp, #0
 183              		.cfi_def_cfa_register 7
 184 0006 7860     		str	r0, [r7, #4]
 201:Generated_Source\PSoC4/IsrEnoUART.c ****     CyRamVectors[CYINT_IRQ_BASE + IsrEnoUART__INTC_NUMBER] = address;
 185              		.loc 1 201 0
 186 0008 034B     		ldr	r3, .L10
 187 000a 7A68     		ldr	r2, [r7, #4]
 188 000c 9A66     		str	r2, [r3, #104]
 202:Generated_Source\PSoC4/IsrEnoUART.c **** }
 189              		.loc 1 202 0
 190 000e C046     		nop
 191 0010 BD46     		mov	sp, r7
 192 0012 02B0     		add	sp, sp, #8
 193              		@ sp needed
 194 0014 80BD     		pop	{r7, pc}
 195              	.L11:
 196 0016 C046     		.align	2
 197              	.L10:
ARM GAS  C:\Users\ELEASO~1\AppData\Local\Temp\cckUdMaf.s 			page 8


 198 0018 00000000 		.word	CyRamVectors
 199              		.cfi_endproc
 200              	.LFE6:
 201              		.size	IsrEnoUART_SetVector, .-IsrEnoUART_SetVector
 202              		.section	.text.IsrEnoUART_GetVector,"ax",%progbits
 203              		.align	2
 204              		.global	IsrEnoUART_GetVector
 205              		.code	16
 206              		.thumb_func
 207              		.type	IsrEnoUART_GetVector, %function
 208              	IsrEnoUART_GetVector:
 209              	.LFB7:
 203:Generated_Source\PSoC4/IsrEnoUART.c **** 
 204:Generated_Source\PSoC4/IsrEnoUART.c **** 
 205:Generated_Source\PSoC4/IsrEnoUART.c **** /*******************************************************************************
 206:Generated_Source\PSoC4/IsrEnoUART.c **** * Function Name: IsrEnoUART_GetVector
 207:Generated_Source\PSoC4/IsrEnoUART.c **** ********************************************************************************
 208:Generated_Source\PSoC4/IsrEnoUART.c **** *
 209:Generated_Source\PSoC4/IsrEnoUART.c **** * Summary:
 210:Generated_Source\PSoC4/IsrEnoUART.c **** *   Gets the "address" of the current ISR vector for the Interrupt.
 211:Generated_Source\PSoC4/IsrEnoUART.c **** *
 212:Generated_Source\PSoC4/IsrEnoUART.c **** * Parameters:
 213:Generated_Source\PSoC4/IsrEnoUART.c **** *   None
 214:Generated_Source\PSoC4/IsrEnoUART.c **** *
 215:Generated_Source\PSoC4/IsrEnoUART.c **** * Return:
 216:Generated_Source\PSoC4/IsrEnoUART.c **** *   Address of the ISR in the interrupt vector table.
 217:Generated_Source\PSoC4/IsrEnoUART.c **** *
 218:Generated_Source\PSoC4/IsrEnoUART.c **** *******************************************************************************/
 219:Generated_Source\PSoC4/IsrEnoUART.c **** cyisraddress IsrEnoUART_GetVector(void)
 220:Generated_Source\PSoC4/IsrEnoUART.c **** {
 210              		.loc 1 220 0
 211              		.cfi_startproc
 212              		@ args = 0, pretend = 0, frame = 0
 213              		@ frame_needed = 1, uses_anonymous_args = 0
 214 0000 80B5     		push	{r7, lr}
 215              		.cfi_def_cfa_offset 8
 216              		.cfi_offset 7, -8
 217              		.cfi_offset 14, -4
 218 0002 00AF     		add	r7, sp, #0
 219              		.cfi_def_cfa_register 7
 221:Generated_Source\PSoC4/IsrEnoUART.c ****     return CyRamVectors[CYINT_IRQ_BASE + IsrEnoUART__INTC_NUMBER];
 220              		.loc 1 221 0
 221 0004 024B     		ldr	r3, .L14
 222 0006 9B6E     		ldr	r3, [r3, #104]
 222:Generated_Source\PSoC4/IsrEnoUART.c **** }
 223              		.loc 1 222 0
 224 0008 1800     		movs	r0, r3
 225 000a BD46     		mov	sp, r7
 226              		@ sp needed
 227 000c 80BD     		pop	{r7, pc}
 228              	.L15:
 229 000e C046     		.align	2
 230              	.L14:
 231 0010 00000000 		.word	CyRamVectors
 232              		.cfi_endproc
 233              	.LFE7:
 234              		.size	IsrEnoUART_GetVector, .-IsrEnoUART_GetVector
ARM GAS  C:\Users\ELEASO~1\AppData\Local\Temp\cckUdMaf.s 			page 9


 235              		.section	.text.IsrEnoUART_SetPriority,"ax",%progbits
 236              		.align	2
 237              		.global	IsrEnoUART_SetPriority
 238              		.code	16
 239              		.thumb_func
 240              		.type	IsrEnoUART_SetPriority, %function
 241              	IsrEnoUART_SetPriority:
 242              	.LFB8:
 223:Generated_Source\PSoC4/IsrEnoUART.c **** 
 224:Generated_Source\PSoC4/IsrEnoUART.c **** 
 225:Generated_Source\PSoC4/IsrEnoUART.c **** /*******************************************************************************
 226:Generated_Source\PSoC4/IsrEnoUART.c **** * Function Name: IsrEnoUART_SetPriority
 227:Generated_Source\PSoC4/IsrEnoUART.c **** ********************************************************************************
 228:Generated_Source\PSoC4/IsrEnoUART.c **** *
 229:Generated_Source\PSoC4/IsrEnoUART.c **** * Summary:
 230:Generated_Source\PSoC4/IsrEnoUART.c **** *   Sets the Priority of the Interrupt. 
 231:Generated_Source\PSoC4/IsrEnoUART.c **** *
 232:Generated_Source\PSoC4/IsrEnoUART.c **** *   Note calling IsrEnoUART_Start or IsrEnoUART_StartEx will 
 233:Generated_Source\PSoC4/IsrEnoUART.c **** *   override any effect this API would have had. This API should only be called
 234:Generated_Source\PSoC4/IsrEnoUART.c **** *   after IsrEnoUART_Start or IsrEnoUART_StartEx has been called. 
 235:Generated_Source\PSoC4/IsrEnoUART.c **** *   To set the initial priority for the component, use the Design-Wide Resources
 236:Generated_Source\PSoC4/IsrEnoUART.c **** *   Interrupt Editor.
 237:Generated_Source\PSoC4/IsrEnoUART.c **** *
 238:Generated_Source\PSoC4/IsrEnoUART.c **** *   Note This API has no effect on Non-maskable interrupt NMI).
 239:Generated_Source\PSoC4/IsrEnoUART.c **** *
 240:Generated_Source\PSoC4/IsrEnoUART.c **** * Parameters:
 241:Generated_Source\PSoC4/IsrEnoUART.c **** *   priority: Priority of the interrupt, 0 being the highest priority
 242:Generated_Source\PSoC4/IsrEnoUART.c **** *             PSoC 3 and PSoC 5LP: Priority is from 0 to 7.
 243:Generated_Source\PSoC4/IsrEnoUART.c **** *             PSoC 4: Priority is from 0 to 3.
 244:Generated_Source\PSoC4/IsrEnoUART.c **** *
 245:Generated_Source\PSoC4/IsrEnoUART.c **** * Return:
 246:Generated_Source\PSoC4/IsrEnoUART.c **** *   None
 247:Generated_Source\PSoC4/IsrEnoUART.c **** *
 248:Generated_Source\PSoC4/IsrEnoUART.c **** *******************************************************************************/
 249:Generated_Source\PSoC4/IsrEnoUART.c **** void IsrEnoUART_SetPriority(uint8 priority)
 250:Generated_Source\PSoC4/IsrEnoUART.c **** {
 243              		.loc 1 250 0
 244              		.cfi_startproc
 245              		@ args = 0, pretend = 0, frame = 16
 246              		@ frame_needed = 1, uses_anonymous_args = 0
 247 0000 90B5     		push	{r4, r7, lr}
 248              		.cfi_def_cfa_offset 12
 249              		.cfi_offset 4, -12
 250              		.cfi_offset 7, -8
 251              		.cfi_offset 14, -4
 252 0002 85B0     		sub	sp, sp, #20
 253              		.cfi_def_cfa_offset 32
 254 0004 00AF     		add	r7, sp, #0
 255              		.cfi_def_cfa_register 7
 256 0006 0200     		movs	r2, r0
 257 0008 FB1D     		adds	r3, r7, #7
 258 000a 1A70     		strb	r2, [r3]
 251:Generated_Source\PSoC4/IsrEnoUART.c **** 	uint8 interruptState;
 252:Generated_Source\PSoC4/IsrEnoUART.c ****     uint32 priorityOffset = ((IsrEnoUART__INTC_NUMBER % 4u) * 8u) + 6u;
 259              		.loc 1 252 0
 260 000c 1623     		movs	r3, #22
 261 000e FB60     		str	r3, [r7, #12]
ARM GAS  C:\Users\ELEASO~1\AppData\Local\Temp\cckUdMaf.s 			page 10


 253:Generated_Source\PSoC4/IsrEnoUART.c ****     
 254:Generated_Source\PSoC4/IsrEnoUART.c **** 	interruptState = CyEnterCriticalSection();
 262              		.loc 1 254 0
 263 0010 0B23     		movs	r3, #11
 264 0012 FC18     		adds	r4, r7, r3
 265 0014 FFF7FEFF 		bl	CyEnterCriticalSection
 266 0018 0300     		movs	r3, r0
 267 001a 2370     		strb	r3, [r4]
 255:Generated_Source\PSoC4/IsrEnoUART.c ****     *IsrEnoUART_INTC_PRIOR = (*IsrEnoUART_INTC_PRIOR & (uint32)(~IsrEnoUART__INTC_PRIOR_MASK)) |
 268              		.loc 1 255 0
 269 001c 0A4B     		ldr	r3, .L17
 270 001e 0A4A     		ldr	r2, .L17
 271 0020 1268     		ldr	r2, [r2]
 272 0022 0A49     		ldr	r1, .L17+4
 273 0024 1140     		ands	r1, r2
 256:Generated_Source\PSoC4/IsrEnoUART.c ****                                     ((uint32)priority << priorityOffset);
 274              		.loc 1 256 0
 275 0026 FA1D     		adds	r2, r7, #7
 276 0028 1078     		ldrb	r0, [r2]
 277 002a FA68     		ldr	r2, [r7, #12]
 278 002c 9040     		lsls	r0, r0, r2
 279 002e 0200     		movs	r2, r0
 255:Generated_Source\PSoC4/IsrEnoUART.c ****     *IsrEnoUART_INTC_PRIOR = (*IsrEnoUART_INTC_PRIOR & (uint32)(~IsrEnoUART__INTC_PRIOR_MASK)) |
 280              		.loc 1 255 0
 281 0030 0A43     		orrs	r2, r1
 282 0032 1A60     		str	r2, [r3]
 257:Generated_Source\PSoC4/IsrEnoUART.c **** 	CyExitCriticalSection(interruptState);
 283              		.loc 1 257 0
 284 0034 0B23     		movs	r3, #11
 285 0036 FB18     		adds	r3, r7, r3
 286 0038 1B78     		ldrb	r3, [r3]
 287 003a 1800     		movs	r0, r3
 288 003c FFF7FEFF 		bl	CyExitCriticalSection
 258:Generated_Source\PSoC4/IsrEnoUART.c **** }
 289              		.loc 1 258 0
 290 0040 C046     		nop
 291 0042 BD46     		mov	sp, r7
 292 0044 05B0     		add	sp, sp, #20
 293              		@ sp needed
 294 0046 90BD     		pop	{r4, r7, pc}
 295              	.L18:
 296              		.align	2
 297              	.L17:
 298 0048 08E400E0 		.word	-536812536
 299 004c FFFF3FFF 		.word	-12582913
 300              		.cfi_endproc
 301              	.LFE8:
 302              		.size	IsrEnoUART_SetPriority, .-IsrEnoUART_SetPriority
 303              		.section	.text.IsrEnoUART_GetPriority,"ax",%progbits
 304              		.align	2
 305              		.global	IsrEnoUART_GetPriority
 306              		.code	16
 307              		.thumb_func
 308              		.type	IsrEnoUART_GetPriority, %function
 309              	IsrEnoUART_GetPriority:
 310              	.LFB9:
 259:Generated_Source\PSoC4/IsrEnoUART.c **** 
ARM GAS  C:\Users\ELEASO~1\AppData\Local\Temp\cckUdMaf.s 			page 11


 260:Generated_Source\PSoC4/IsrEnoUART.c **** 
 261:Generated_Source\PSoC4/IsrEnoUART.c **** /*******************************************************************************
 262:Generated_Source\PSoC4/IsrEnoUART.c **** * Function Name: IsrEnoUART_GetPriority
 263:Generated_Source\PSoC4/IsrEnoUART.c **** ********************************************************************************
 264:Generated_Source\PSoC4/IsrEnoUART.c **** *
 265:Generated_Source\PSoC4/IsrEnoUART.c **** * Summary:
 266:Generated_Source\PSoC4/IsrEnoUART.c **** *   Gets the Priority of the Interrupt.
 267:Generated_Source\PSoC4/IsrEnoUART.c **** *
 268:Generated_Source\PSoC4/IsrEnoUART.c **** * Parameters:
 269:Generated_Source\PSoC4/IsrEnoUART.c **** *   None
 270:Generated_Source\PSoC4/IsrEnoUART.c **** *
 271:Generated_Source\PSoC4/IsrEnoUART.c **** * Return:
 272:Generated_Source\PSoC4/IsrEnoUART.c **** *   Priority of the interrupt, 0 being the highest priority
 273:Generated_Source\PSoC4/IsrEnoUART.c **** *    PSoC 3 and PSoC 5LP: Priority is from 0 to 7.
 274:Generated_Source\PSoC4/IsrEnoUART.c **** *    PSoC 4: Priority is from 0 to 3.
 275:Generated_Source\PSoC4/IsrEnoUART.c **** *
 276:Generated_Source\PSoC4/IsrEnoUART.c **** *******************************************************************************/
 277:Generated_Source\PSoC4/IsrEnoUART.c **** uint8 IsrEnoUART_GetPriority(void)
 278:Generated_Source\PSoC4/IsrEnoUART.c **** {
 311              		.loc 1 278 0
 312              		.cfi_startproc
 313              		@ args = 0, pretend = 0, frame = 8
 314              		@ frame_needed = 1, uses_anonymous_args = 0
 315 0000 80B5     		push	{r7, lr}
 316              		.cfi_def_cfa_offset 8
 317              		.cfi_offset 7, -8
 318              		.cfi_offset 14, -4
 319 0002 82B0     		sub	sp, sp, #8
 320              		.cfi_def_cfa_offset 16
 321 0004 00AF     		add	r7, sp, #0
 322              		.cfi_def_cfa_register 7
 279:Generated_Source\PSoC4/IsrEnoUART.c ****     uint32 priority;
 280:Generated_Source\PSoC4/IsrEnoUART.c **** 	uint32 priorityOffset = ((IsrEnoUART__INTC_NUMBER % 4u) * 8u) + 6u;
 323              		.loc 1 280 0
 324 0006 1623     		movs	r3, #22
 325 0008 7B60     		str	r3, [r7, #4]
 281:Generated_Source\PSoC4/IsrEnoUART.c **** 
 282:Generated_Source\PSoC4/IsrEnoUART.c ****     priority = (*IsrEnoUART_INTC_PRIOR & IsrEnoUART__INTC_PRIOR_MASK) >> priorityOffset;
 326              		.loc 1 282 0
 327 000a 074B     		ldr	r3, .L21
 328 000c 1A68     		ldr	r2, [r3]
 329 000e C023     		movs	r3, #192
 330 0010 1B04     		lsls	r3, r3, #16
 331 0012 1A40     		ands	r2, r3
 332 0014 7B68     		ldr	r3, [r7, #4]
 333 0016 DA40     		lsrs	r2, r2, r3
 334 0018 1300     		movs	r3, r2
 335 001a 3B60     		str	r3, [r7]
 283:Generated_Source\PSoC4/IsrEnoUART.c **** 
 284:Generated_Source\PSoC4/IsrEnoUART.c ****     return (uint8)priority;
 336              		.loc 1 284 0
 337 001c 3B68     		ldr	r3, [r7]
 338 001e DBB2     		uxtb	r3, r3
 285:Generated_Source\PSoC4/IsrEnoUART.c **** }
 339              		.loc 1 285 0
 340 0020 1800     		movs	r0, r3
 341 0022 BD46     		mov	sp, r7
ARM GAS  C:\Users\ELEASO~1\AppData\Local\Temp\cckUdMaf.s 			page 12


 342 0024 02B0     		add	sp, sp, #8
 343              		@ sp needed
 344 0026 80BD     		pop	{r7, pc}
 345              	.L22:
 346              		.align	2
 347              	.L21:
 348 0028 08E400E0 		.word	-536812536
 349              		.cfi_endproc
 350              	.LFE9:
 351              		.size	IsrEnoUART_GetPriority, .-IsrEnoUART_GetPriority
 352              		.section	.text.IsrEnoUART_Enable,"ax",%progbits
 353              		.align	2
 354              		.global	IsrEnoUART_Enable
 355              		.code	16
 356              		.thumb_func
 357              		.type	IsrEnoUART_Enable, %function
 358              	IsrEnoUART_Enable:
 359              	.LFB10:
 286:Generated_Source\PSoC4/IsrEnoUART.c **** 
 287:Generated_Source\PSoC4/IsrEnoUART.c **** 
 288:Generated_Source\PSoC4/IsrEnoUART.c **** /*******************************************************************************
 289:Generated_Source\PSoC4/IsrEnoUART.c **** * Function Name: IsrEnoUART_Enable
 290:Generated_Source\PSoC4/IsrEnoUART.c **** ********************************************************************************
 291:Generated_Source\PSoC4/IsrEnoUART.c **** *
 292:Generated_Source\PSoC4/IsrEnoUART.c **** * Summary:
 293:Generated_Source\PSoC4/IsrEnoUART.c **** *   Enables the interrupt to the interrupt controller. Do not call this function
 294:Generated_Source\PSoC4/IsrEnoUART.c **** *   unless ISR_Start() has been called or the functionality of the ISR_Start() 
 295:Generated_Source\PSoC4/IsrEnoUART.c **** *   function, which sets the vector and the priority, has been called.
 296:Generated_Source\PSoC4/IsrEnoUART.c **** *
 297:Generated_Source\PSoC4/IsrEnoUART.c **** * Parameters:
 298:Generated_Source\PSoC4/IsrEnoUART.c **** *   None
 299:Generated_Source\PSoC4/IsrEnoUART.c **** *
 300:Generated_Source\PSoC4/IsrEnoUART.c **** * Return:
 301:Generated_Source\PSoC4/IsrEnoUART.c **** *   None
 302:Generated_Source\PSoC4/IsrEnoUART.c **** *
 303:Generated_Source\PSoC4/IsrEnoUART.c **** *******************************************************************************/
 304:Generated_Source\PSoC4/IsrEnoUART.c **** void IsrEnoUART_Enable(void)
 305:Generated_Source\PSoC4/IsrEnoUART.c **** {
 360              		.loc 1 305 0
 361              		.cfi_startproc
 362              		@ args = 0, pretend = 0, frame = 0
 363              		@ frame_needed = 1, uses_anonymous_args = 0
 364 0000 80B5     		push	{r7, lr}
 365              		.cfi_def_cfa_offset 8
 366              		.cfi_offset 7, -8
 367              		.cfi_offset 14, -4
 368 0002 00AF     		add	r7, sp, #0
 369              		.cfi_def_cfa_register 7
 306:Generated_Source\PSoC4/IsrEnoUART.c ****     /* Enable the general interrupt. */
 307:Generated_Source\PSoC4/IsrEnoUART.c ****     *IsrEnoUART_INTC_SET_EN = IsrEnoUART__INTC_MASK;
 370              		.loc 1 307 0
 371 0004 034B     		ldr	r3, .L24
 372 0006 8022     		movs	r2, #128
 373 0008 D200     		lsls	r2, r2, #3
 374 000a 1A60     		str	r2, [r3]
 308:Generated_Source\PSoC4/IsrEnoUART.c **** }
 375              		.loc 1 308 0
ARM GAS  C:\Users\ELEASO~1\AppData\Local\Temp\cckUdMaf.s 			page 13


 376 000c C046     		nop
 377 000e BD46     		mov	sp, r7
 378              		@ sp needed
 379 0010 80BD     		pop	{r7, pc}
 380              	.L25:
 381 0012 C046     		.align	2
 382              	.L24:
 383 0014 00E100E0 		.word	-536813312
 384              		.cfi_endproc
 385              	.LFE10:
 386              		.size	IsrEnoUART_Enable, .-IsrEnoUART_Enable
 387              		.section	.text.IsrEnoUART_GetState,"ax",%progbits
 388              		.align	2
 389              		.global	IsrEnoUART_GetState
 390              		.code	16
 391              		.thumb_func
 392              		.type	IsrEnoUART_GetState, %function
 393              	IsrEnoUART_GetState:
 394              	.LFB11:
 309:Generated_Source\PSoC4/IsrEnoUART.c **** 
 310:Generated_Source\PSoC4/IsrEnoUART.c **** 
 311:Generated_Source\PSoC4/IsrEnoUART.c **** /*******************************************************************************
 312:Generated_Source\PSoC4/IsrEnoUART.c **** * Function Name: IsrEnoUART_GetState
 313:Generated_Source\PSoC4/IsrEnoUART.c **** ********************************************************************************
 314:Generated_Source\PSoC4/IsrEnoUART.c **** *
 315:Generated_Source\PSoC4/IsrEnoUART.c **** * Summary:
 316:Generated_Source\PSoC4/IsrEnoUART.c **** *   Gets the state (enabled, disabled) of the Interrupt.
 317:Generated_Source\PSoC4/IsrEnoUART.c **** *
 318:Generated_Source\PSoC4/IsrEnoUART.c **** * Parameters:
 319:Generated_Source\PSoC4/IsrEnoUART.c **** *   None
 320:Generated_Source\PSoC4/IsrEnoUART.c **** *
 321:Generated_Source\PSoC4/IsrEnoUART.c **** * Return:
 322:Generated_Source\PSoC4/IsrEnoUART.c **** *   1 if enabled, 0 if disabled.
 323:Generated_Source\PSoC4/IsrEnoUART.c **** *
 324:Generated_Source\PSoC4/IsrEnoUART.c **** *******************************************************************************/
 325:Generated_Source\PSoC4/IsrEnoUART.c **** uint8 IsrEnoUART_GetState(void)
 326:Generated_Source\PSoC4/IsrEnoUART.c **** {
 395              		.loc 1 326 0
 396              		.cfi_startproc
 397              		@ args = 0, pretend = 0, frame = 0
 398              		@ frame_needed = 1, uses_anonymous_args = 0
 399 0000 80B5     		push	{r7, lr}
 400              		.cfi_def_cfa_offset 8
 401              		.cfi_offset 7, -8
 402              		.cfi_offset 14, -4
 403 0002 00AF     		add	r7, sp, #0
 404              		.cfi_def_cfa_register 7
 327:Generated_Source\PSoC4/IsrEnoUART.c ****     /* Get the state of the general interrupt. */
 328:Generated_Source\PSoC4/IsrEnoUART.c ****     return ((*IsrEnoUART_INTC_SET_EN & (uint32)IsrEnoUART__INTC_MASK) != 0u) ? 1u:0u;
 405              		.loc 1 328 0
 406 0004 054B     		ldr	r3, .L30
 407 0006 1A68     		ldr	r2, [r3]
 408 0008 8023     		movs	r3, #128
 409 000a DB00     		lsls	r3, r3, #3
 410 000c 1340     		ands	r3, r2
 411 000e 01D0     		beq	.L27
 412              		.loc 1 328 0 is_stmt 0 discriminator 1
ARM GAS  C:\Users\ELEASO~1\AppData\Local\Temp\cckUdMaf.s 			page 14


 413 0010 0123     		movs	r3, #1
 414 0012 00E0     		b	.L28
 415              	.L27:
 416              		.loc 1 328 0 discriminator 2
 417 0014 0023     		movs	r3, #0
 418              	.L28:
 329:Generated_Source\PSoC4/IsrEnoUART.c **** }
 419              		.loc 1 329 0 is_stmt 1 discriminator 4
 420 0016 1800     		movs	r0, r3
 421 0018 BD46     		mov	sp, r7
 422              		@ sp needed
 423 001a 80BD     		pop	{r7, pc}
 424              	.L31:
 425              		.align	2
 426              	.L30:
 427 001c 00E100E0 		.word	-536813312
 428              		.cfi_endproc
 429              	.LFE11:
 430              		.size	IsrEnoUART_GetState, .-IsrEnoUART_GetState
 431              		.section	.text.IsrEnoUART_Disable,"ax",%progbits
 432              		.align	2
 433              		.global	IsrEnoUART_Disable
 434              		.code	16
 435              		.thumb_func
 436              		.type	IsrEnoUART_Disable, %function
 437              	IsrEnoUART_Disable:
 438              	.LFB12:
 330:Generated_Source\PSoC4/IsrEnoUART.c **** 
 331:Generated_Source\PSoC4/IsrEnoUART.c **** 
 332:Generated_Source\PSoC4/IsrEnoUART.c **** /*******************************************************************************
 333:Generated_Source\PSoC4/IsrEnoUART.c **** * Function Name: IsrEnoUART_Disable
 334:Generated_Source\PSoC4/IsrEnoUART.c **** ********************************************************************************
 335:Generated_Source\PSoC4/IsrEnoUART.c **** *
 336:Generated_Source\PSoC4/IsrEnoUART.c **** * Summary:
 337:Generated_Source\PSoC4/IsrEnoUART.c **** *   Disables the Interrupt in the interrupt controller.
 338:Generated_Source\PSoC4/IsrEnoUART.c **** *
 339:Generated_Source\PSoC4/IsrEnoUART.c **** * Parameters:
 340:Generated_Source\PSoC4/IsrEnoUART.c **** *   None
 341:Generated_Source\PSoC4/IsrEnoUART.c **** *
 342:Generated_Source\PSoC4/IsrEnoUART.c **** * Return:
 343:Generated_Source\PSoC4/IsrEnoUART.c **** *   None
 344:Generated_Source\PSoC4/IsrEnoUART.c **** *
 345:Generated_Source\PSoC4/IsrEnoUART.c **** *******************************************************************************/
 346:Generated_Source\PSoC4/IsrEnoUART.c **** void IsrEnoUART_Disable(void)
 347:Generated_Source\PSoC4/IsrEnoUART.c **** {
 439              		.loc 1 347 0
 440              		.cfi_startproc
 441              		@ args = 0, pretend = 0, frame = 0
 442              		@ frame_needed = 1, uses_anonymous_args = 0
 443 0000 80B5     		push	{r7, lr}
 444              		.cfi_def_cfa_offset 8
 445              		.cfi_offset 7, -8
 446              		.cfi_offset 14, -4
 447 0002 00AF     		add	r7, sp, #0
 448              		.cfi_def_cfa_register 7
 348:Generated_Source\PSoC4/IsrEnoUART.c ****     /* Disable the general interrupt. */
 349:Generated_Source\PSoC4/IsrEnoUART.c ****     *IsrEnoUART_INTC_CLR_EN = IsrEnoUART__INTC_MASK;
ARM GAS  C:\Users\ELEASO~1\AppData\Local\Temp\cckUdMaf.s 			page 15


 449              		.loc 1 349 0
 450 0004 034B     		ldr	r3, .L33
 451 0006 8022     		movs	r2, #128
 452 0008 D200     		lsls	r2, r2, #3
 453 000a 1A60     		str	r2, [r3]
 350:Generated_Source\PSoC4/IsrEnoUART.c **** }
 454              		.loc 1 350 0
 455 000c C046     		nop
 456 000e BD46     		mov	sp, r7
 457              		@ sp needed
 458 0010 80BD     		pop	{r7, pc}
 459              	.L34:
 460 0012 C046     		.align	2
 461              	.L33:
 462 0014 80E100E0 		.word	-536813184
 463              		.cfi_endproc
 464              	.LFE12:
 465              		.size	IsrEnoUART_Disable, .-IsrEnoUART_Disable
 466              		.section	.text.IsrEnoUART_SetPending,"ax",%progbits
 467              		.align	2
 468              		.global	IsrEnoUART_SetPending
 469              		.code	16
 470              		.thumb_func
 471              		.type	IsrEnoUART_SetPending, %function
 472              	IsrEnoUART_SetPending:
 473              	.LFB13:
 351:Generated_Source\PSoC4/IsrEnoUART.c **** 
 352:Generated_Source\PSoC4/IsrEnoUART.c **** 
 353:Generated_Source\PSoC4/IsrEnoUART.c **** /*******************************************************************************
 354:Generated_Source\PSoC4/IsrEnoUART.c **** * Function Name: IsrEnoUART_SetPending
 355:Generated_Source\PSoC4/IsrEnoUART.c **** ********************************************************************************
 356:Generated_Source\PSoC4/IsrEnoUART.c **** *
 357:Generated_Source\PSoC4/IsrEnoUART.c **** * Summary:
 358:Generated_Source\PSoC4/IsrEnoUART.c **** *   Causes the Interrupt to enter the pending state, a software method of
 359:Generated_Source\PSoC4/IsrEnoUART.c **** *   generating the interrupt.
 360:Generated_Source\PSoC4/IsrEnoUART.c **** *
 361:Generated_Source\PSoC4/IsrEnoUART.c **** * Parameters:
 362:Generated_Source\PSoC4/IsrEnoUART.c **** *   None
 363:Generated_Source\PSoC4/IsrEnoUART.c **** *
 364:Generated_Source\PSoC4/IsrEnoUART.c **** * Return:
 365:Generated_Source\PSoC4/IsrEnoUART.c **** *   None
 366:Generated_Source\PSoC4/IsrEnoUART.c **** *
 367:Generated_Source\PSoC4/IsrEnoUART.c **** * Side Effects:
 368:Generated_Source\PSoC4/IsrEnoUART.c **** *   If interrupts are enabled and the interrupt is set up properly, the ISR is
 369:Generated_Source\PSoC4/IsrEnoUART.c **** *   entered (depending on the priority of this interrupt and other pending 
 370:Generated_Source\PSoC4/IsrEnoUART.c **** *   interrupts).
 371:Generated_Source\PSoC4/IsrEnoUART.c **** *
 372:Generated_Source\PSoC4/IsrEnoUART.c **** *******************************************************************************/
 373:Generated_Source\PSoC4/IsrEnoUART.c **** void IsrEnoUART_SetPending(void)
 374:Generated_Source\PSoC4/IsrEnoUART.c **** {
 474              		.loc 1 374 0
 475              		.cfi_startproc
 476              		@ args = 0, pretend = 0, frame = 0
 477              		@ frame_needed = 1, uses_anonymous_args = 0
 478 0000 80B5     		push	{r7, lr}
 479              		.cfi_def_cfa_offset 8
 480              		.cfi_offset 7, -8
ARM GAS  C:\Users\ELEASO~1\AppData\Local\Temp\cckUdMaf.s 			page 16


 481              		.cfi_offset 14, -4
 482 0002 00AF     		add	r7, sp, #0
 483              		.cfi_def_cfa_register 7
 375:Generated_Source\PSoC4/IsrEnoUART.c ****     *IsrEnoUART_INTC_SET_PD = IsrEnoUART__INTC_MASK;
 484              		.loc 1 375 0
 485 0004 034B     		ldr	r3, .L36
 486 0006 8022     		movs	r2, #128
 487 0008 D200     		lsls	r2, r2, #3
 488 000a 1A60     		str	r2, [r3]
 376:Generated_Source\PSoC4/IsrEnoUART.c **** }
 489              		.loc 1 376 0
 490 000c C046     		nop
 491 000e BD46     		mov	sp, r7
 492              		@ sp needed
 493 0010 80BD     		pop	{r7, pc}
 494              	.L37:
 495 0012 C046     		.align	2
 496              	.L36:
 497 0014 00E200E0 		.word	-536813056
 498              		.cfi_endproc
 499              	.LFE13:
 500              		.size	IsrEnoUART_SetPending, .-IsrEnoUART_SetPending
 501              		.section	.text.IsrEnoUART_ClearPending,"ax",%progbits
 502              		.align	2
 503              		.global	IsrEnoUART_ClearPending
 504              		.code	16
 505              		.thumb_func
 506              		.type	IsrEnoUART_ClearPending, %function
 507              	IsrEnoUART_ClearPending:
 508              	.LFB14:
 377:Generated_Source\PSoC4/IsrEnoUART.c **** 
 378:Generated_Source\PSoC4/IsrEnoUART.c **** 
 379:Generated_Source\PSoC4/IsrEnoUART.c **** /*******************************************************************************
 380:Generated_Source\PSoC4/IsrEnoUART.c **** * Function Name: IsrEnoUART_ClearPending
 381:Generated_Source\PSoC4/IsrEnoUART.c **** ********************************************************************************
 382:Generated_Source\PSoC4/IsrEnoUART.c **** *
 383:Generated_Source\PSoC4/IsrEnoUART.c **** * Summary:
 384:Generated_Source\PSoC4/IsrEnoUART.c **** *   Clears a pending interrupt in the interrupt controller.
 385:Generated_Source\PSoC4/IsrEnoUART.c **** *
 386:Generated_Source\PSoC4/IsrEnoUART.c **** *   Note Some interrupt sources are clear-on-read and require the block 
 387:Generated_Source\PSoC4/IsrEnoUART.c **** *   interrupt/status register to be read/cleared with the appropriate block API 
 388:Generated_Source\PSoC4/IsrEnoUART.c **** *   (GPIO, UART, and so on). Otherwise the ISR will continue to remain in 
 389:Generated_Source\PSoC4/IsrEnoUART.c **** *   pending state even though the interrupt itself is cleared using this API.
 390:Generated_Source\PSoC4/IsrEnoUART.c **** *
 391:Generated_Source\PSoC4/IsrEnoUART.c **** * Parameters:
 392:Generated_Source\PSoC4/IsrEnoUART.c **** *   None
 393:Generated_Source\PSoC4/IsrEnoUART.c **** *
 394:Generated_Source\PSoC4/IsrEnoUART.c **** * Return:
 395:Generated_Source\PSoC4/IsrEnoUART.c **** *   None
 396:Generated_Source\PSoC4/IsrEnoUART.c **** *
 397:Generated_Source\PSoC4/IsrEnoUART.c **** *******************************************************************************/
 398:Generated_Source\PSoC4/IsrEnoUART.c **** void IsrEnoUART_ClearPending(void)
 399:Generated_Source\PSoC4/IsrEnoUART.c **** {
 509              		.loc 1 399 0
 510              		.cfi_startproc
 511              		@ args = 0, pretend = 0, frame = 0
 512              		@ frame_needed = 1, uses_anonymous_args = 0
ARM GAS  C:\Users\ELEASO~1\AppData\Local\Temp\cckUdMaf.s 			page 17


 513 0000 80B5     		push	{r7, lr}
 514              		.cfi_def_cfa_offset 8
 515              		.cfi_offset 7, -8
 516              		.cfi_offset 14, -4
 517 0002 00AF     		add	r7, sp, #0
 518              		.cfi_def_cfa_register 7
 400:Generated_Source\PSoC4/IsrEnoUART.c ****     *IsrEnoUART_INTC_CLR_PD = IsrEnoUART__INTC_MASK;
 519              		.loc 1 400 0
 520 0004 034B     		ldr	r3, .L39
 521 0006 8022     		movs	r2, #128
 522 0008 D200     		lsls	r2, r2, #3
 523 000a 1A60     		str	r2, [r3]
 401:Generated_Source\PSoC4/IsrEnoUART.c **** }
 524              		.loc 1 401 0
 525 000c C046     		nop
 526 000e BD46     		mov	sp, r7
 527              		@ sp needed
 528 0010 80BD     		pop	{r7, pc}
 529              	.L40:
 530 0012 C046     		.align	2
 531              	.L39:
 532 0014 80E200E0 		.word	-536812928
 533              		.cfi_endproc
 534              	.LFE14:
 535              		.size	IsrEnoUART_ClearPending, .-IsrEnoUART_ClearPending
 536              		.text
 537              	.Letext0:
 538              		.file 2 "Generated_Source\\PSoC4/cytypes.h"
