ARM GAS  C:\Users\Alex\AppData\Local\Temp\ccBIvlSa.s 			page 1


   1              		.syntax unified
   2              		.cpu cortex-m0
   3              		.fpu softvfp
   4              		.eabi_attribute 20, 1
   5              		.eabi_attribute 21, 1
   6              		.eabi_attribute 23, 3
   7              		.eabi_attribute 24, 1
   8              		.eabi_attribute 25, 1
   9              		.eabi_attribute 26, 1
  10              		.eabi_attribute 30, 6
  11              		.eabi_attribute 34, 0
  12              		.eabi_attribute 18, 4
  13              		.thumb
  14              		.syntax unified
  15              		.file	"TCPWM_0_PM.c"
  16              		.text
  17              	.Ltext0:
  18              		.cfi_sections	.debug_frame
  19              		.bss
  20              		.align	2
  21              	TCPWM_0_backup:
  22 0000 00       		.space	1
  23              		.section	.text.TCPWM_0_SaveConfig,"ax",%progbits
  24              		.align	2
  25              		.global	TCPWM_0_SaveConfig
  26              		.code	16
  27              		.thumb_func
  28              		.type	TCPWM_0_SaveConfig, %function
  29              	TCPWM_0_SaveConfig:
  30              	.LFB2:
  31              		.file 1 "Generated_Source\\PSoC4\\TCPWM_0_PM.c"
   1:Generated_Source\PSoC4/TCPWM_0_PM.c **** /*******************************************************************************
   2:Generated_Source\PSoC4/TCPWM_0_PM.c **** * File Name: TCPWM_0_PM.c
   3:Generated_Source\PSoC4/TCPWM_0_PM.c **** * Version 2.10
   4:Generated_Source\PSoC4/TCPWM_0_PM.c **** *
   5:Generated_Source\PSoC4/TCPWM_0_PM.c **** * Description:
   6:Generated_Source\PSoC4/TCPWM_0_PM.c **** *  This file contains the setup, control, and status commands to support
   7:Generated_Source\PSoC4/TCPWM_0_PM.c **** *  the component operations in the low power mode.
   8:Generated_Source\PSoC4/TCPWM_0_PM.c **** *
   9:Generated_Source\PSoC4/TCPWM_0_PM.c **** * Note:
  10:Generated_Source\PSoC4/TCPWM_0_PM.c **** *  None
  11:Generated_Source\PSoC4/TCPWM_0_PM.c **** *
  12:Generated_Source\PSoC4/TCPWM_0_PM.c **** ********************************************************************************
  13:Generated_Source\PSoC4/TCPWM_0_PM.c **** * Copyright 2013-2015, Cypress Semiconductor Corporation.  All rights reserved.
  14:Generated_Source\PSoC4/TCPWM_0_PM.c **** * You may use this file only in accordance with the license, terms, conditions,
  15:Generated_Source\PSoC4/TCPWM_0_PM.c **** * disclaimers, and limitations in the end user license agreement accompanying
  16:Generated_Source\PSoC4/TCPWM_0_PM.c **** * the software package with which this file was provided.
  17:Generated_Source\PSoC4/TCPWM_0_PM.c **** *******************************************************************************/
  18:Generated_Source\PSoC4/TCPWM_0_PM.c **** 
  19:Generated_Source\PSoC4/TCPWM_0_PM.c **** #include "TCPWM_0.h"
  20:Generated_Source\PSoC4/TCPWM_0_PM.c **** 
  21:Generated_Source\PSoC4/TCPWM_0_PM.c **** static TCPWM_0_BACKUP_STRUCT TCPWM_0_backup;
  22:Generated_Source\PSoC4/TCPWM_0_PM.c **** 
  23:Generated_Source\PSoC4/TCPWM_0_PM.c **** 
  24:Generated_Source\PSoC4/TCPWM_0_PM.c **** /*******************************************************************************
  25:Generated_Source\PSoC4/TCPWM_0_PM.c **** * Function Name: TCPWM_0_SaveConfig
  26:Generated_Source\PSoC4/TCPWM_0_PM.c **** ********************************************************************************
ARM GAS  C:\Users\Alex\AppData\Local\Temp\ccBIvlSa.s 			page 2


  27:Generated_Source\PSoC4/TCPWM_0_PM.c **** *
  28:Generated_Source\PSoC4/TCPWM_0_PM.c **** * Summary:
  29:Generated_Source\PSoC4/TCPWM_0_PM.c **** *  All configuration registers are retention. Nothing to save here.
  30:Generated_Source\PSoC4/TCPWM_0_PM.c **** *
  31:Generated_Source\PSoC4/TCPWM_0_PM.c **** * Parameters:
  32:Generated_Source\PSoC4/TCPWM_0_PM.c **** *  None
  33:Generated_Source\PSoC4/TCPWM_0_PM.c **** *
  34:Generated_Source\PSoC4/TCPWM_0_PM.c **** * Return:
  35:Generated_Source\PSoC4/TCPWM_0_PM.c **** *  None
  36:Generated_Source\PSoC4/TCPWM_0_PM.c **** *
  37:Generated_Source\PSoC4/TCPWM_0_PM.c **** *******************************************************************************/
  38:Generated_Source\PSoC4/TCPWM_0_PM.c **** void TCPWM_0_SaveConfig(void)
  39:Generated_Source\PSoC4/TCPWM_0_PM.c **** {
  32              		.loc 1 39 0
  33              		.cfi_startproc
  34              		@ args = 0, pretend = 0, frame = 0
  35              		@ frame_needed = 1, uses_anonymous_args = 0
  36 0000 80B5     		push	{r7, lr}
  37              		.cfi_def_cfa_offset 8
  38              		.cfi_offset 7, -8
  39              		.cfi_offset 14, -4
  40 0002 00AF     		add	r7, sp, #0
  41              		.cfi_def_cfa_register 7
  40:Generated_Source\PSoC4/TCPWM_0_PM.c **** 
  41:Generated_Source\PSoC4/TCPWM_0_PM.c **** }
  42              		.loc 1 41 0
  43 0004 C046     		nop
  44 0006 BD46     		mov	sp, r7
  45              		@ sp needed
  46 0008 80BD     		pop	{r7, pc}
  47              		.cfi_endproc
  48              	.LFE2:
  49              		.size	TCPWM_0_SaveConfig, .-TCPWM_0_SaveConfig
  50 000a C046     		.section	.text.TCPWM_0_Sleep,"ax",%progbits
  51              		.align	2
  52              		.global	TCPWM_0_Sleep
  53              		.code	16
  54              		.thumb_func
  55              		.type	TCPWM_0_Sleep, %function
  56              	TCPWM_0_Sleep:
  57              	.LFB3:
  42:Generated_Source\PSoC4/TCPWM_0_PM.c **** 
  43:Generated_Source\PSoC4/TCPWM_0_PM.c **** 
  44:Generated_Source\PSoC4/TCPWM_0_PM.c **** /*******************************************************************************
  45:Generated_Source\PSoC4/TCPWM_0_PM.c **** * Function Name: TCPWM_0_Sleep
  46:Generated_Source\PSoC4/TCPWM_0_PM.c **** ********************************************************************************
  47:Generated_Source\PSoC4/TCPWM_0_PM.c **** *
  48:Generated_Source\PSoC4/TCPWM_0_PM.c **** * Summary:
  49:Generated_Source\PSoC4/TCPWM_0_PM.c **** *  Stops the component operation and saves the user configuration.
  50:Generated_Source\PSoC4/TCPWM_0_PM.c **** *
  51:Generated_Source\PSoC4/TCPWM_0_PM.c **** * Parameters:
  52:Generated_Source\PSoC4/TCPWM_0_PM.c **** *  None
  53:Generated_Source\PSoC4/TCPWM_0_PM.c **** *
  54:Generated_Source\PSoC4/TCPWM_0_PM.c **** * Return:
  55:Generated_Source\PSoC4/TCPWM_0_PM.c **** *  None
  56:Generated_Source\PSoC4/TCPWM_0_PM.c **** *
  57:Generated_Source\PSoC4/TCPWM_0_PM.c **** *******************************************************************************/
ARM GAS  C:\Users\Alex\AppData\Local\Temp\ccBIvlSa.s 			page 3


  58:Generated_Source\PSoC4/TCPWM_0_PM.c **** void TCPWM_0_Sleep(void)
  59:Generated_Source\PSoC4/TCPWM_0_PM.c **** {
  58              		.loc 1 59 0
  59              		.cfi_startproc
  60              		@ args = 0, pretend = 0, frame = 0
  61              		@ frame_needed = 1, uses_anonymous_args = 0
  62 0000 80B5     		push	{r7, lr}
  63              		.cfi_def_cfa_offset 8
  64              		.cfi_offset 7, -8
  65              		.cfi_offset 14, -4
  66 0002 00AF     		add	r7, sp, #0
  67              		.cfi_def_cfa_register 7
  60:Generated_Source\PSoC4/TCPWM_0_PM.c ****     if(0u != (TCPWM_0_BLOCK_CONTROL_REG & TCPWM_0_MASK))
  68              		.loc 1 60 0
  69 0004 094B     		ldr	r3, .L5
  70 0006 1B68     		ldr	r3, [r3]
  71 0008 0122     		movs	r2, #1
  72 000a 1340     		ands	r3, r2
  73 000c 03D0     		beq	.L3
  61:Generated_Source\PSoC4/TCPWM_0_PM.c ****     {
  62:Generated_Source\PSoC4/TCPWM_0_PM.c ****         TCPWM_0_backup.enableState = 1u;
  74              		.loc 1 62 0
  75 000e 084B     		ldr	r3, .L5+4
  76 0010 0122     		movs	r2, #1
  77 0012 1A70     		strb	r2, [r3]
  78 0014 02E0     		b	.L4
  79              	.L3:
  63:Generated_Source\PSoC4/TCPWM_0_PM.c ****     }
  64:Generated_Source\PSoC4/TCPWM_0_PM.c ****     else
  65:Generated_Source\PSoC4/TCPWM_0_PM.c ****     {
  66:Generated_Source\PSoC4/TCPWM_0_PM.c ****         TCPWM_0_backup.enableState = 0u;
  80              		.loc 1 66 0
  81 0016 064B     		ldr	r3, .L5+4
  82 0018 0022     		movs	r2, #0
  83 001a 1A70     		strb	r2, [r3]
  84              	.L4:
  67:Generated_Source\PSoC4/TCPWM_0_PM.c ****     }
  68:Generated_Source\PSoC4/TCPWM_0_PM.c **** 
  69:Generated_Source\PSoC4/TCPWM_0_PM.c ****     TCPWM_0_Stop();
  85              		.loc 1 69 0
  86 001c FFF7FEFF 		bl	TCPWM_0_Stop
  70:Generated_Source\PSoC4/TCPWM_0_PM.c ****     TCPWM_0_SaveConfig();
  87              		.loc 1 70 0
  88 0020 FFF7FEFF 		bl	TCPWM_0_SaveConfig
  71:Generated_Source\PSoC4/TCPWM_0_PM.c **** }
  89              		.loc 1 71 0
  90 0024 C046     		nop
  91 0026 BD46     		mov	sp, r7
  92              		@ sp needed
  93 0028 80BD     		pop	{r7, pc}
  94              	.L6:
  95 002a C046     		.align	2
  96              	.L5:
  97 002c 00002040 		.word	1075838976
  98 0030 00000000 		.word	TCPWM_0_backup
  99              		.cfi_endproc
 100              	.LFE3:
ARM GAS  C:\Users\Alex\AppData\Local\Temp\ccBIvlSa.s 			page 4


 101              		.size	TCPWM_0_Sleep, .-TCPWM_0_Sleep
 102              		.section	.text.TCPWM_0_RestoreConfig,"ax",%progbits
 103              		.align	2
 104              		.global	TCPWM_0_RestoreConfig
 105              		.code	16
 106              		.thumb_func
 107              		.type	TCPWM_0_RestoreConfig, %function
 108              	TCPWM_0_RestoreConfig:
 109              	.LFB4:
  72:Generated_Source\PSoC4/TCPWM_0_PM.c **** 
  73:Generated_Source\PSoC4/TCPWM_0_PM.c **** 
  74:Generated_Source\PSoC4/TCPWM_0_PM.c **** /*******************************************************************************
  75:Generated_Source\PSoC4/TCPWM_0_PM.c **** * Function Name: TCPWM_0_RestoreConfig
  76:Generated_Source\PSoC4/TCPWM_0_PM.c **** ********************************************************************************
  77:Generated_Source\PSoC4/TCPWM_0_PM.c **** *
  78:Generated_Source\PSoC4/TCPWM_0_PM.c **** * Summary:
  79:Generated_Source\PSoC4/TCPWM_0_PM.c **** *  All configuration registers are retention. Nothing to restore here.
  80:Generated_Source\PSoC4/TCPWM_0_PM.c **** *
  81:Generated_Source\PSoC4/TCPWM_0_PM.c **** * Parameters:
  82:Generated_Source\PSoC4/TCPWM_0_PM.c **** *  None
  83:Generated_Source\PSoC4/TCPWM_0_PM.c **** *
  84:Generated_Source\PSoC4/TCPWM_0_PM.c **** * Return:
  85:Generated_Source\PSoC4/TCPWM_0_PM.c **** *  None
  86:Generated_Source\PSoC4/TCPWM_0_PM.c **** *
  87:Generated_Source\PSoC4/TCPWM_0_PM.c **** *******************************************************************************/
  88:Generated_Source\PSoC4/TCPWM_0_PM.c **** void TCPWM_0_RestoreConfig(void)
  89:Generated_Source\PSoC4/TCPWM_0_PM.c **** {
 110              		.loc 1 89 0
 111              		.cfi_startproc
 112              		@ args = 0, pretend = 0, frame = 0
 113              		@ frame_needed = 1, uses_anonymous_args = 0
 114 0000 80B5     		push	{r7, lr}
 115              		.cfi_def_cfa_offset 8
 116              		.cfi_offset 7, -8
 117              		.cfi_offset 14, -4
 118 0002 00AF     		add	r7, sp, #0
 119              		.cfi_def_cfa_register 7
  90:Generated_Source\PSoC4/TCPWM_0_PM.c **** 
  91:Generated_Source\PSoC4/TCPWM_0_PM.c **** }
 120              		.loc 1 91 0
 121 0004 C046     		nop
 122 0006 BD46     		mov	sp, r7
 123              		@ sp needed
 124 0008 80BD     		pop	{r7, pc}
 125              		.cfi_endproc
 126              	.LFE4:
 127              		.size	TCPWM_0_RestoreConfig, .-TCPWM_0_RestoreConfig
 128              		.section	.text.TCPWM_0_Wakeup,"ax",%progbits
 129              		.align	2
 130              		.global	TCPWM_0_Wakeup
 131              		.code	16
 132              		.thumb_func
 133              		.type	TCPWM_0_Wakeup, %function
 134              	TCPWM_0_Wakeup:
 135              	.LFB5:
  92:Generated_Source\PSoC4/TCPWM_0_PM.c **** 
  93:Generated_Source\PSoC4/TCPWM_0_PM.c **** 
ARM GAS  C:\Users\Alex\AppData\Local\Temp\ccBIvlSa.s 			page 5


  94:Generated_Source\PSoC4/TCPWM_0_PM.c **** /*******************************************************************************
  95:Generated_Source\PSoC4/TCPWM_0_PM.c **** * Function Name: TCPWM_0_Wakeup
  96:Generated_Source\PSoC4/TCPWM_0_PM.c **** ********************************************************************************
  97:Generated_Source\PSoC4/TCPWM_0_PM.c **** *
  98:Generated_Source\PSoC4/TCPWM_0_PM.c **** * Summary:
  99:Generated_Source\PSoC4/TCPWM_0_PM.c **** *  Restores the user configuration and restores the enable state.
 100:Generated_Source\PSoC4/TCPWM_0_PM.c **** *
 101:Generated_Source\PSoC4/TCPWM_0_PM.c **** * Parameters:
 102:Generated_Source\PSoC4/TCPWM_0_PM.c **** *  None
 103:Generated_Source\PSoC4/TCPWM_0_PM.c **** *
 104:Generated_Source\PSoC4/TCPWM_0_PM.c **** * Return:
 105:Generated_Source\PSoC4/TCPWM_0_PM.c **** *  None
 106:Generated_Source\PSoC4/TCPWM_0_PM.c **** *
 107:Generated_Source\PSoC4/TCPWM_0_PM.c **** *******************************************************************************/
 108:Generated_Source\PSoC4/TCPWM_0_PM.c **** void TCPWM_0_Wakeup(void)
 109:Generated_Source\PSoC4/TCPWM_0_PM.c **** {
 136              		.loc 1 109 0
 137              		.cfi_startproc
 138              		@ args = 0, pretend = 0, frame = 0
 139              		@ frame_needed = 1, uses_anonymous_args = 0
 140 0000 80B5     		push	{r7, lr}
 141              		.cfi_def_cfa_offset 8
 142              		.cfi_offset 7, -8
 143              		.cfi_offset 14, -4
 144 0002 00AF     		add	r7, sp, #0
 145              		.cfi_def_cfa_register 7
 110:Generated_Source\PSoC4/TCPWM_0_PM.c ****     TCPWM_0_RestoreConfig();
 146              		.loc 1 110 0
 147 0004 FFF7FEFF 		bl	TCPWM_0_RestoreConfig
 111:Generated_Source\PSoC4/TCPWM_0_PM.c **** 
 112:Generated_Source\PSoC4/TCPWM_0_PM.c ****     if(0u != TCPWM_0_backup.enableState)
 148              		.loc 1 112 0
 149 0008 044B     		ldr	r3, .L11
 150 000a 1B78     		ldrb	r3, [r3]
 151 000c 002B     		cmp	r3, #0
 152 000e 01D0     		beq	.L10
 113:Generated_Source\PSoC4/TCPWM_0_PM.c ****     {
 114:Generated_Source\PSoC4/TCPWM_0_PM.c ****         TCPWM_0_Enable();
 153              		.loc 1 114 0
 154 0010 FFF7FEFF 		bl	TCPWM_0_Enable
 155              	.L10:
 115:Generated_Source\PSoC4/TCPWM_0_PM.c ****     }
 116:Generated_Source\PSoC4/TCPWM_0_PM.c **** }
 156              		.loc 1 116 0
 157 0014 C046     		nop
 158 0016 BD46     		mov	sp, r7
 159              		@ sp needed
 160 0018 80BD     		pop	{r7, pc}
 161              	.L12:
 162 001a C046     		.align	2
 163              	.L11:
 164 001c 00000000 		.word	TCPWM_0_backup
 165              		.cfi_endproc
 166              	.LFE5:
 167              		.size	TCPWM_0_Wakeup, .-TCPWM_0_Wakeup
 168              		.text
 169              	.Letext0:
ARM GAS  C:\Users\Alex\AppData\Local\Temp\ccBIvlSa.s 			page 6


 170              		.file 2 "Generated_Source\\PSoC4\\cytypes.h"
 171              		.file 3 "Generated_Source\\PSoC4\\TCPWM_0.h"
