ARM GAS  C:\Users\ELEASO~1\AppData\Local\Temp\cc1j55VZ.s 			page 1


   1              		.syntax unified
   2              		.cpu cortex-m0
   3              		.fpu softvfp
   4              		.eabi_attribute 20, 1
   5              		.eabi_attribute 21, 1
   6              		.eabi_attribute 23, 3
   7              		.eabi_attribute 24, 1
   8              		.eabi_attribute 25, 1
   9              		.eabi_attribute 26, 1
  10              		.eabi_attribute 30, 6
  11              		.eabi_attribute 34, 0
  12              		.eabi_attribute 18, 4
  13              		.thumb
  14              		.syntax unified
  15              		.file	"TIMER.c"
  16              		.text
  17              	.Ltext0:
  18              		.cfi_sections	.debug_frame
  19              		.global	TIMER_initVar
  20              		.bss
  21              		.type	TIMER_initVar, %object
  22              		.size	TIMER_initVar, 1
  23              	TIMER_initVar:
  24 0000 00       		.space	1
  25              		.section	.text.TIMER_Init,"ax",%progbits
  26              		.align	2
  27              		.global	TIMER_Init
  28              		.code	16
  29              		.thumb_func
  30              		.type	TIMER_Init, %function
  31              	TIMER_Init:
  32              	.LFB2:
  33              		.file 1 "Generated_Source\\PSoC4\\TIMER.c"
   1:Generated_Source\PSoC4/TIMER.c **** /*******************************************************************************
   2:Generated_Source\PSoC4/TIMER.c **** * File Name: TIMER.c
   3:Generated_Source\PSoC4/TIMER.c **** * Version 2.10
   4:Generated_Source\PSoC4/TIMER.c **** *
   5:Generated_Source\PSoC4/TIMER.c **** * Description:
   6:Generated_Source\PSoC4/TIMER.c **** *  This file provides the source code to the API for the TIMER
   7:Generated_Source\PSoC4/TIMER.c **** *  component
   8:Generated_Source\PSoC4/TIMER.c **** *
   9:Generated_Source\PSoC4/TIMER.c **** * Note:
  10:Generated_Source\PSoC4/TIMER.c **** *  None
  11:Generated_Source\PSoC4/TIMER.c **** *
  12:Generated_Source\PSoC4/TIMER.c **** ********************************************************************************
  13:Generated_Source\PSoC4/TIMER.c **** * Copyright 2013-2015, Cypress Semiconductor Corporation.  All rights reserved.
  14:Generated_Source\PSoC4/TIMER.c **** * You may use this file only in accordance with the license, terms, conditions,
  15:Generated_Source\PSoC4/TIMER.c **** * disclaimers, and limitations in the end user license agreement accompanying
  16:Generated_Source\PSoC4/TIMER.c **** * the software package with which this file was provided.
  17:Generated_Source\PSoC4/TIMER.c **** *******************************************************************************/
  18:Generated_Source\PSoC4/TIMER.c **** 
  19:Generated_Source\PSoC4/TIMER.c **** #include "TIMER.h"
  20:Generated_Source\PSoC4/TIMER.c **** 
  21:Generated_Source\PSoC4/TIMER.c **** uint8 TIMER_initVar = 0u;
  22:Generated_Source\PSoC4/TIMER.c **** 
  23:Generated_Source\PSoC4/TIMER.c **** 
  24:Generated_Source\PSoC4/TIMER.c **** /*******************************************************************************
ARM GAS  C:\Users\ELEASO~1\AppData\Local\Temp\cc1j55VZ.s 			page 2


  25:Generated_Source\PSoC4/TIMER.c **** * Function Name: TIMER_Init
  26:Generated_Source\PSoC4/TIMER.c **** ********************************************************************************
  27:Generated_Source\PSoC4/TIMER.c **** *
  28:Generated_Source\PSoC4/TIMER.c **** * Summary:
  29:Generated_Source\PSoC4/TIMER.c **** *  Initialize/Restore default TIMER configuration.
  30:Generated_Source\PSoC4/TIMER.c **** *
  31:Generated_Source\PSoC4/TIMER.c **** * Parameters:
  32:Generated_Source\PSoC4/TIMER.c **** *  None
  33:Generated_Source\PSoC4/TIMER.c **** *
  34:Generated_Source\PSoC4/TIMER.c **** * Return:
  35:Generated_Source\PSoC4/TIMER.c **** *  None
  36:Generated_Source\PSoC4/TIMER.c **** *
  37:Generated_Source\PSoC4/TIMER.c **** *******************************************************************************/
  38:Generated_Source\PSoC4/TIMER.c **** void TIMER_Init(void)
  39:Generated_Source\PSoC4/TIMER.c **** {
  34              		.loc 1 39 0
  35              		.cfi_startproc
  36              		@ args = 0, pretend = 0, frame = 0
  37              		@ frame_needed = 1, uses_anonymous_args = 0
  38 0000 80B5     		push	{r7, lr}
  39              		.cfi_def_cfa_offset 8
  40              		.cfi_offset 7, -8
  41              		.cfi_offset 14, -4
  42 0002 00AF     		add	r7, sp, #0
  43              		.cfi_def_cfa_register 7
  40:Generated_Source\PSoC4/TIMER.c **** 
  41:Generated_Source\PSoC4/TIMER.c ****     /* Set values from customizer to CTRL */
  42:Generated_Source\PSoC4/TIMER.c ****     #if (TIMER__QUAD == TIMER_CONFIG)
  43:Generated_Source\PSoC4/TIMER.c ****         TIMER_CONTROL_REG = TIMER_CTRL_QUAD_BASE_CONFIG;
  44:Generated_Source\PSoC4/TIMER.c ****         
  45:Generated_Source\PSoC4/TIMER.c ****         /* Set values from customizer to CTRL1 */
  46:Generated_Source\PSoC4/TIMER.c ****         TIMER_TRIG_CONTROL1_REG  = TIMER_QUAD_SIGNALS_MODES;
  47:Generated_Source\PSoC4/TIMER.c **** 
  48:Generated_Source\PSoC4/TIMER.c ****         /* Set values from customizer to INTR */
  49:Generated_Source\PSoC4/TIMER.c ****         TIMER_SetInterruptMode(TIMER_QUAD_INTERRUPT_MASK);
  50:Generated_Source\PSoC4/TIMER.c ****         
  51:Generated_Source\PSoC4/TIMER.c ****          /* Set other values */
  52:Generated_Source\PSoC4/TIMER.c ****         TIMER_SetCounterMode(TIMER_COUNT_DOWN);
  53:Generated_Source\PSoC4/TIMER.c ****         TIMER_WritePeriod(TIMER_QUAD_PERIOD_INIT_VALUE);
  54:Generated_Source\PSoC4/TIMER.c ****         TIMER_WriteCounter(TIMER_QUAD_PERIOD_INIT_VALUE);
  55:Generated_Source\PSoC4/TIMER.c ****     #endif  /* (TIMER__QUAD == TIMER_CONFIG) */
  56:Generated_Source\PSoC4/TIMER.c **** 
  57:Generated_Source\PSoC4/TIMER.c ****     #if (TIMER__TIMER == TIMER_CONFIG)
  58:Generated_Source\PSoC4/TIMER.c ****         TIMER_CONTROL_REG = TIMER_CTRL_TIMER_BASE_CONFIG;
  44              		.loc 1 58 0
  45 0004 094B     		ldr	r3, .L2
  46 0006 0A4A     		ldr	r2, .L2+4
  47 0008 1A60     		str	r2, [r3]
  59:Generated_Source\PSoC4/TIMER.c ****         
  60:Generated_Source\PSoC4/TIMER.c ****         /* Set values from customizer to CTRL1 */
  61:Generated_Source\PSoC4/TIMER.c ****         TIMER_TRIG_CONTROL1_REG  = TIMER_TIMER_SIGNALS_MODES;
  48              		.loc 1 61 0
  49 000a 0A4B     		ldr	r3, .L2+8
  50 000c 0C22     		movs	r2, #12
  51 000e 1A60     		str	r2, [r3]
  62:Generated_Source\PSoC4/TIMER.c ****     
  63:Generated_Source\PSoC4/TIMER.c ****         /* Set values from customizer to INTR */
ARM GAS  C:\Users\ELEASO~1\AppData\Local\Temp\cc1j55VZ.s 			page 3


  64:Generated_Source\PSoC4/TIMER.c ****         TIMER_SetInterruptMode(TIMER_TC_INTERRUPT_MASK);
  52              		.loc 1 64 0
  53 0010 0120     		movs	r0, #1
  54 0012 FFF7FEFF 		bl	TIMER_SetInterruptMode
  65:Generated_Source\PSoC4/TIMER.c ****         
  66:Generated_Source\PSoC4/TIMER.c ****         /* Set other values from customizer */
  67:Generated_Source\PSoC4/TIMER.c ****         TIMER_WritePeriod(TIMER_TC_PERIOD_VALUE );
  55              		.loc 1 67 0
  56 0016 084B     		ldr	r3, .L2+12
  57 0018 1800     		movs	r0, r3
  58 001a FFF7FEFF 		bl	TIMER_WritePeriod
  68:Generated_Source\PSoC4/TIMER.c **** 
  69:Generated_Source\PSoC4/TIMER.c ****         #if (TIMER__COMPARE == TIMER_TC_COMP_CAP_MODE)
  70:Generated_Source\PSoC4/TIMER.c ****             TIMER_WriteCompare(TIMER_TC_COMPARE_VALUE);
  71:Generated_Source\PSoC4/TIMER.c **** 
  72:Generated_Source\PSoC4/TIMER.c ****             #if (1u == TIMER_TC_COMPARE_SWAP)
  73:Generated_Source\PSoC4/TIMER.c ****                 TIMER_SetCompareSwap(1u);
  74:Generated_Source\PSoC4/TIMER.c ****                 TIMER_WriteCompareBuf(TIMER_TC_COMPARE_BUF_VALUE);
  75:Generated_Source\PSoC4/TIMER.c ****             #endif  /* (1u == TIMER_TC_COMPARE_SWAP) */
  76:Generated_Source\PSoC4/TIMER.c ****         #endif  /* (TIMER__COMPARE == TIMER_TC_COMP_CAP_MODE) */
  77:Generated_Source\PSoC4/TIMER.c **** 
  78:Generated_Source\PSoC4/TIMER.c ****         /* Initialize counter value */
  79:Generated_Source\PSoC4/TIMER.c ****         #if (TIMER_CY_TCPWM_V2 && TIMER_TIMER_UPDOWN_CNT_USED && !TIMER_CY_TCPWM_4000)
  80:Generated_Source\PSoC4/TIMER.c ****             TIMER_WriteCounter(1u);
  81:Generated_Source\PSoC4/TIMER.c ****         #elif(TIMER__COUNT_DOWN == TIMER_TC_COUNTER_MODE)
  82:Generated_Source\PSoC4/TIMER.c ****             TIMER_WriteCounter(TIMER_TC_PERIOD_VALUE);
  83:Generated_Source\PSoC4/TIMER.c ****         #else
  84:Generated_Source\PSoC4/TIMER.c ****             TIMER_WriteCounter(0u);
  59              		.loc 1 84 0
  60 001e 0020     		movs	r0, #0
  61 0020 FFF7FEFF 		bl	TIMER_WriteCounter
  85:Generated_Source\PSoC4/TIMER.c ****         #endif /* (TIMER_CY_TCPWM_V2 && TIMER_TIMER_UPDOWN_CNT_USED && !TIMER_CY_TCPWM_4000) */
  86:Generated_Source\PSoC4/TIMER.c ****     #endif  /* (TIMER__TIMER == TIMER_CONFIG) */
  87:Generated_Source\PSoC4/TIMER.c **** 
  88:Generated_Source\PSoC4/TIMER.c ****     #if (TIMER__PWM_SEL == TIMER_CONFIG)
  89:Generated_Source\PSoC4/TIMER.c ****         TIMER_CONTROL_REG = TIMER_CTRL_PWM_BASE_CONFIG;
  90:Generated_Source\PSoC4/TIMER.c **** 
  91:Generated_Source\PSoC4/TIMER.c ****         #if (TIMER__PWM_PR == TIMER_PWM_MODE)
  92:Generated_Source\PSoC4/TIMER.c ****             TIMER_CONTROL_REG |= TIMER_CTRL_PWM_RUN_MODE;
  93:Generated_Source\PSoC4/TIMER.c ****             TIMER_WriteCounter(TIMER_PWM_PR_INIT_VALUE);
  94:Generated_Source\PSoC4/TIMER.c ****         #else
  95:Generated_Source\PSoC4/TIMER.c ****             TIMER_CONTROL_REG |= TIMER_CTRL_PWM_ALIGN | TIMER_CTRL_PWM_KILL_EVENT;
  96:Generated_Source\PSoC4/TIMER.c ****             
  97:Generated_Source\PSoC4/TIMER.c ****             /* Initialize counter value */
  98:Generated_Source\PSoC4/TIMER.c ****             #if (TIMER_CY_TCPWM_V2 && TIMER_PWM_UPDOWN_CNT_USED && !TIMER_CY_TCPWM_4000)
  99:Generated_Source\PSoC4/TIMER.c ****                 TIMER_WriteCounter(1u);
 100:Generated_Source\PSoC4/TIMER.c ****             #elif (TIMER__RIGHT == TIMER_PWM_ALIGN)
 101:Generated_Source\PSoC4/TIMER.c ****                 TIMER_WriteCounter(TIMER_PWM_PERIOD_VALUE);
 102:Generated_Source\PSoC4/TIMER.c ****             #else 
 103:Generated_Source\PSoC4/TIMER.c ****                 TIMER_WriteCounter(0u);
 104:Generated_Source\PSoC4/TIMER.c ****             #endif  /* (TIMER_CY_TCPWM_V2 && TIMER_PWM_UPDOWN_CNT_USED && !TIMER_CY_TCPWM_4000) */
 105:Generated_Source\PSoC4/TIMER.c ****         #endif  /* (TIMER__PWM_PR == TIMER_PWM_MODE) */
 106:Generated_Source\PSoC4/TIMER.c **** 
 107:Generated_Source\PSoC4/TIMER.c ****         #if (TIMER__PWM_DT == TIMER_PWM_MODE)
 108:Generated_Source\PSoC4/TIMER.c ****             TIMER_CONTROL_REG |= TIMER_CTRL_PWM_DEAD_TIME_CYCLE;
 109:Generated_Source\PSoC4/TIMER.c ****         #endif  /* (TIMER__PWM_DT == TIMER_PWM_MODE) */
 110:Generated_Source\PSoC4/TIMER.c **** 
ARM GAS  C:\Users\ELEASO~1\AppData\Local\Temp\cc1j55VZ.s 			page 4


 111:Generated_Source\PSoC4/TIMER.c ****         #if (TIMER__PWM == TIMER_PWM_MODE)
 112:Generated_Source\PSoC4/TIMER.c ****             TIMER_CONTROL_REG |= TIMER_CTRL_PWM_PRESCALER;
 113:Generated_Source\PSoC4/TIMER.c ****         #endif  /* (TIMER__PWM == TIMER_PWM_MODE) */
 114:Generated_Source\PSoC4/TIMER.c **** 
 115:Generated_Source\PSoC4/TIMER.c ****         /* Set values from customizer to CTRL1 */
 116:Generated_Source\PSoC4/TIMER.c ****         TIMER_TRIG_CONTROL1_REG  = TIMER_PWM_SIGNALS_MODES;
 117:Generated_Source\PSoC4/TIMER.c ****     
 118:Generated_Source\PSoC4/TIMER.c ****         /* Set values from customizer to INTR */
 119:Generated_Source\PSoC4/TIMER.c ****         TIMER_SetInterruptMode(TIMER_PWM_INTERRUPT_MASK);
 120:Generated_Source\PSoC4/TIMER.c **** 
 121:Generated_Source\PSoC4/TIMER.c ****         /* Set values from customizer to CTRL2 */
 122:Generated_Source\PSoC4/TIMER.c ****         #if (TIMER__PWM_PR == TIMER_PWM_MODE)
 123:Generated_Source\PSoC4/TIMER.c ****             TIMER_TRIG_CONTROL2_REG =
 124:Generated_Source\PSoC4/TIMER.c ****                     (TIMER_CC_MATCH_NO_CHANGE    |
 125:Generated_Source\PSoC4/TIMER.c ****                     TIMER_OVERLOW_NO_CHANGE      |
 126:Generated_Source\PSoC4/TIMER.c ****                     TIMER_UNDERFLOW_NO_CHANGE);
 127:Generated_Source\PSoC4/TIMER.c ****         #else
 128:Generated_Source\PSoC4/TIMER.c ****             #if (TIMER__LEFT == TIMER_PWM_ALIGN)
 129:Generated_Source\PSoC4/TIMER.c ****                 TIMER_TRIG_CONTROL2_REG = TIMER_PWM_MODE_LEFT;
 130:Generated_Source\PSoC4/TIMER.c ****             #endif  /* ( TIMER_PWM_LEFT == TIMER_PWM_ALIGN) */
 131:Generated_Source\PSoC4/TIMER.c **** 
 132:Generated_Source\PSoC4/TIMER.c ****             #if (TIMER__RIGHT == TIMER_PWM_ALIGN)
 133:Generated_Source\PSoC4/TIMER.c ****                 TIMER_TRIG_CONTROL2_REG = TIMER_PWM_MODE_RIGHT;
 134:Generated_Source\PSoC4/TIMER.c ****             #endif  /* ( TIMER_PWM_RIGHT == TIMER_PWM_ALIGN) */
 135:Generated_Source\PSoC4/TIMER.c **** 
 136:Generated_Source\PSoC4/TIMER.c ****             #if (TIMER__CENTER == TIMER_PWM_ALIGN)
 137:Generated_Source\PSoC4/TIMER.c ****                 TIMER_TRIG_CONTROL2_REG = TIMER_PWM_MODE_CENTER;
 138:Generated_Source\PSoC4/TIMER.c ****             #endif  /* ( TIMER_PWM_CENTER == TIMER_PWM_ALIGN) */
 139:Generated_Source\PSoC4/TIMER.c **** 
 140:Generated_Source\PSoC4/TIMER.c ****             #if (TIMER__ASYMMETRIC == TIMER_PWM_ALIGN)
 141:Generated_Source\PSoC4/TIMER.c ****                 TIMER_TRIG_CONTROL2_REG = TIMER_PWM_MODE_ASYM;
 142:Generated_Source\PSoC4/TIMER.c ****             #endif  /* (TIMER__ASYMMETRIC == TIMER_PWM_ALIGN) */
 143:Generated_Source\PSoC4/TIMER.c ****         #endif  /* (TIMER__PWM_PR == TIMER_PWM_MODE) */
 144:Generated_Source\PSoC4/TIMER.c **** 
 145:Generated_Source\PSoC4/TIMER.c ****         /* Set other values from customizer */
 146:Generated_Source\PSoC4/TIMER.c ****         TIMER_WritePeriod(TIMER_PWM_PERIOD_VALUE );
 147:Generated_Source\PSoC4/TIMER.c ****         TIMER_WriteCompare(TIMER_PWM_COMPARE_VALUE);
 148:Generated_Source\PSoC4/TIMER.c **** 
 149:Generated_Source\PSoC4/TIMER.c ****         #if (1u == TIMER_PWM_COMPARE_SWAP)
 150:Generated_Source\PSoC4/TIMER.c ****             TIMER_SetCompareSwap(1u);
 151:Generated_Source\PSoC4/TIMER.c ****             TIMER_WriteCompareBuf(TIMER_PWM_COMPARE_BUF_VALUE);
 152:Generated_Source\PSoC4/TIMER.c ****         #endif  /* (1u == TIMER_PWM_COMPARE_SWAP) */
 153:Generated_Source\PSoC4/TIMER.c **** 
 154:Generated_Source\PSoC4/TIMER.c ****         #if (1u == TIMER_PWM_PERIOD_SWAP)
 155:Generated_Source\PSoC4/TIMER.c ****             TIMER_SetPeriodSwap(1u);
 156:Generated_Source\PSoC4/TIMER.c ****             TIMER_WritePeriodBuf(TIMER_PWM_PERIOD_BUF_VALUE);
 157:Generated_Source\PSoC4/TIMER.c ****         #endif  /* (1u == TIMER_PWM_PERIOD_SWAP) */
 158:Generated_Source\PSoC4/TIMER.c ****     #endif  /* (TIMER__PWM_SEL == TIMER_CONFIG) */
 159:Generated_Source\PSoC4/TIMER.c ****     
 160:Generated_Source\PSoC4/TIMER.c **** }
  62              		.loc 1 160 0
  63 0024 C046     		nop
  64 0026 BD46     		mov	sp, r7
  65              		@ sp needed
  66 0028 80BD     		pop	{r7, pc}
  67              	.L3:
  68 002a C046     		.align	2
ARM GAS  C:\Users\ELEASO~1\AppData\Local\Temp\cc1j55VZ.s 			page 5


  69              	.L2:
  70 002c 00012040 		.word	1075839232
  71 0030 00050002 		.word	33555712
  72 0034 24012040 		.word	1075839268
  73 0038 30750000 		.word	30000
  74              		.cfi_endproc
  75              	.LFE2:
  76              		.size	TIMER_Init, .-TIMER_Init
  77              		.section	.text.TIMER_Enable,"ax",%progbits
  78              		.align	2
  79              		.global	TIMER_Enable
  80              		.code	16
  81              		.thumb_func
  82              		.type	TIMER_Enable, %function
  83              	TIMER_Enable:
  84              	.LFB3:
 161:Generated_Source\PSoC4/TIMER.c **** 
 162:Generated_Source\PSoC4/TIMER.c **** 
 163:Generated_Source\PSoC4/TIMER.c **** /*******************************************************************************
 164:Generated_Source\PSoC4/TIMER.c **** * Function Name: TIMER_Enable
 165:Generated_Source\PSoC4/TIMER.c **** ********************************************************************************
 166:Generated_Source\PSoC4/TIMER.c **** *
 167:Generated_Source\PSoC4/TIMER.c **** * Summary:
 168:Generated_Source\PSoC4/TIMER.c **** *  Enables the TIMER.
 169:Generated_Source\PSoC4/TIMER.c **** *
 170:Generated_Source\PSoC4/TIMER.c **** * Parameters:
 171:Generated_Source\PSoC4/TIMER.c **** *  None
 172:Generated_Source\PSoC4/TIMER.c **** *
 173:Generated_Source\PSoC4/TIMER.c **** * Return:
 174:Generated_Source\PSoC4/TIMER.c **** *  None
 175:Generated_Source\PSoC4/TIMER.c **** *
 176:Generated_Source\PSoC4/TIMER.c **** *******************************************************************************/
 177:Generated_Source\PSoC4/TIMER.c **** void TIMER_Enable(void)
 178:Generated_Source\PSoC4/TIMER.c **** {
  85              		.loc 1 178 0
  86              		.cfi_startproc
  87              		@ args = 0, pretend = 0, frame = 8
  88              		@ frame_needed = 1, uses_anonymous_args = 0
  89 0000 90B5     		push	{r4, r7, lr}
  90              		.cfi_def_cfa_offset 12
  91              		.cfi_offset 4, -12
  92              		.cfi_offset 7, -8
  93              		.cfi_offset 14, -4
  94 0002 83B0     		sub	sp, sp, #12
  95              		.cfi_def_cfa_offset 24
  96 0004 00AF     		add	r7, sp, #0
  97              		.cfi_def_cfa_register 7
 179:Generated_Source\PSoC4/TIMER.c ****     uint8 enableInterrupts;
 180:Generated_Source\PSoC4/TIMER.c **** 
 181:Generated_Source\PSoC4/TIMER.c ****     enableInterrupts = CyEnterCriticalSection();
  98              		.loc 1 181 0
  99 0006 FC1D     		adds	r4, r7, #7
 100 0008 FFF7FEFF 		bl	CyEnterCriticalSection
 101 000c 0300     		movs	r3, r0
 102 000e 2370     		strb	r3, [r4]
 182:Generated_Source\PSoC4/TIMER.c ****     TIMER_BLOCK_CONTROL_REG |= TIMER_MASK;
 103              		.loc 1 182 0
ARM GAS  C:\Users\ELEASO~1\AppData\Local\Temp\cc1j55VZ.s 			page 6


 104 0010 094B     		ldr	r3, .L5
 105 0012 094A     		ldr	r2, .L5
 106 0014 1268     		ldr	r2, [r2]
 107 0016 0121     		movs	r1, #1
 108 0018 0A43     		orrs	r2, r1
 109 001a 1A60     		str	r2, [r3]
 183:Generated_Source\PSoC4/TIMER.c ****     CyExitCriticalSection(enableInterrupts);
 110              		.loc 1 183 0
 111 001c FB1D     		adds	r3, r7, #7
 112 001e 1B78     		ldrb	r3, [r3]
 113 0020 1800     		movs	r0, r3
 114 0022 FFF7FEFF 		bl	CyExitCriticalSection
 184:Generated_Source\PSoC4/TIMER.c **** 
 185:Generated_Source\PSoC4/TIMER.c ****     /* Start Timer or PWM if start input is absent */
 186:Generated_Source\PSoC4/TIMER.c ****     #if (TIMER__PWM_SEL == TIMER_CONFIG)
 187:Generated_Source\PSoC4/TIMER.c ****         #if (0u == TIMER_PWM_START_SIGNAL_PRESENT)
 188:Generated_Source\PSoC4/TIMER.c ****             TIMER_TriggerCommand(TIMER_MASK, TIMER_CMD_START);
 189:Generated_Source\PSoC4/TIMER.c ****         #endif /* (0u == TIMER_PWM_START_SIGNAL_PRESENT) */
 190:Generated_Source\PSoC4/TIMER.c ****     #endif /* (TIMER__PWM_SEL == TIMER_CONFIG) */
 191:Generated_Source\PSoC4/TIMER.c **** 
 192:Generated_Source\PSoC4/TIMER.c ****     #if (TIMER__TIMER == TIMER_CONFIG)
 193:Generated_Source\PSoC4/TIMER.c ****         #if (0u == TIMER_TC_START_SIGNAL_PRESENT)
 194:Generated_Source\PSoC4/TIMER.c ****             TIMER_TriggerCommand(TIMER_MASK, TIMER_CMD_START);
 115              		.loc 1 194 0
 116 0026 1821     		movs	r1, #24
 117 0028 0120     		movs	r0, #1
 118 002a FFF7FEFF 		bl	TIMER_TriggerCommand
 195:Generated_Source\PSoC4/TIMER.c ****         #endif /* (0u == TIMER_TC_START_SIGNAL_PRESENT) */
 196:Generated_Source\PSoC4/TIMER.c ****     #endif /* (TIMER__TIMER == TIMER_CONFIG) */
 197:Generated_Source\PSoC4/TIMER.c ****     
 198:Generated_Source\PSoC4/TIMER.c ****     #if (TIMER__QUAD == TIMER_CONFIG)
 199:Generated_Source\PSoC4/TIMER.c ****         #if (0u != TIMER_QUAD_AUTO_START)
 200:Generated_Source\PSoC4/TIMER.c ****             TIMER_TriggerCommand(TIMER_MASK, TIMER_CMD_RELOAD);
 201:Generated_Source\PSoC4/TIMER.c ****         #endif /* (0u != TIMER_QUAD_AUTO_START) */
 202:Generated_Source\PSoC4/TIMER.c ****     #endif  /* (TIMER__QUAD == TIMER_CONFIG) */
 203:Generated_Source\PSoC4/TIMER.c **** }
 119              		.loc 1 203 0
 120 002e C046     		nop
 121 0030 BD46     		mov	sp, r7
 122 0032 03B0     		add	sp, sp, #12
 123              		@ sp needed
 124 0034 90BD     		pop	{r4, r7, pc}
 125              	.L6:
 126 0036 C046     		.align	2
 127              	.L5:
 128 0038 00002040 		.word	1075838976
 129              		.cfi_endproc
 130              	.LFE3:
 131              		.size	TIMER_Enable, .-TIMER_Enable
 132              		.section	.text.TIMER_Start,"ax",%progbits
 133              		.align	2
 134              		.global	TIMER_Start
 135              		.code	16
 136              		.thumb_func
 137              		.type	TIMER_Start, %function
 138              	TIMER_Start:
 139              	.LFB4:
ARM GAS  C:\Users\ELEASO~1\AppData\Local\Temp\cc1j55VZ.s 			page 7


 204:Generated_Source\PSoC4/TIMER.c **** 
 205:Generated_Source\PSoC4/TIMER.c **** 
 206:Generated_Source\PSoC4/TIMER.c **** /*******************************************************************************
 207:Generated_Source\PSoC4/TIMER.c **** * Function Name: TIMER_Start
 208:Generated_Source\PSoC4/TIMER.c **** ********************************************************************************
 209:Generated_Source\PSoC4/TIMER.c **** *
 210:Generated_Source\PSoC4/TIMER.c **** * Summary:
 211:Generated_Source\PSoC4/TIMER.c **** *  Initializes the TIMER with default customizer
 212:Generated_Source\PSoC4/TIMER.c **** *  values when called the first time and enables the TIMER.
 213:Generated_Source\PSoC4/TIMER.c **** *  For subsequent calls the configuration is left unchanged and the component is
 214:Generated_Source\PSoC4/TIMER.c **** *  just enabled.
 215:Generated_Source\PSoC4/TIMER.c **** *
 216:Generated_Source\PSoC4/TIMER.c **** * Parameters:
 217:Generated_Source\PSoC4/TIMER.c **** *  None
 218:Generated_Source\PSoC4/TIMER.c **** *
 219:Generated_Source\PSoC4/TIMER.c **** * Return:
 220:Generated_Source\PSoC4/TIMER.c **** *  None
 221:Generated_Source\PSoC4/TIMER.c **** *
 222:Generated_Source\PSoC4/TIMER.c **** * Global variables:
 223:Generated_Source\PSoC4/TIMER.c **** *  TIMER_initVar: global variable is used to indicate initial
 224:Generated_Source\PSoC4/TIMER.c **** *  configuration of this component.  The variable is initialized to zero and set
 225:Generated_Source\PSoC4/TIMER.c **** *  to 1 the first time TIMER_Start() is called. This allows
 226:Generated_Source\PSoC4/TIMER.c **** *  enabling/disabling a component without re-initialization in all subsequent
 227:Generated_Source\PSoC4/TIMER.c **** *  calls to the TIMER_Start() routine.
 228:Generated_Source\PSoC4/TIMER.c **** *
 229:Generated_Source\PSoC4/TIMER.c **** *******************************************************************************/
 230:Generated_Source\PSoC4/TIMER.c **** void TIMER_Start(void)
 231:Generated_Source\PSoC4/TIMER.c **** {
 140              		.loc 1 231 0
 141              		.cfi_startproc
 142              		@ args = 0, pretend = 0, frame = 0
 143              		@ frame_needed = 1, uses_anonymous_args = 0
 144 0000 80B5     		push	{r7, lr}
 145              		.cfi_def_cfa_offset 8
 146              		.cfi_offset 7, -8
 147              		.cfi_offset 14, -4
 148 0002 00AF     		add	r7, sp, #0
 149              		.cfi_def_cfa_register 7
 232:Generated_Source\PSoC4/TIMER.c ****     if (0u == TIMER_initVar)
 150              		.loc 1 232 0
 151 0004 064B     		ldr	r3, .L9
 152 0006 1B78     		ldrb	r3, [r3]
 153 0008 002B     		cmp	r3, #0
 154 000a 04D1     		bne	.L8
 233:Generated_Source\PSoC4/TIMER.c ****     {
 234:Generated_Source\PSoC4/TIMER.c ****         TIMER_Init();
 155              		.loc 1 234 0
 156 000c FFF7FEFF 		bl	TIMER_Init
 235:Generated_Source\PSoC4/TIMER.c ****         TIMER_initVar = 1u;
 157              		.loc 1 235 0
 158 0010 034B     		ldr	r3, .L9
 159 0012 0122     		movs	r2, #1
 160 0014 1A70     		strb	r2, [r3]
 161              	.L8:
 236:Generated_Source\PSoC4/TIMER.c ****     }
 237:Generated_Source\PSoC4/TIMER.c **** 
 238:Generated_Source\PSoC4/TIMER.c ****     TIMER_Enable();
ARM GAS  C:\Users\ELEASO~1\AppData\Local\Temp\cc1j55VZ.s 			page 8


 162              		.loc 1 238 0
 163 0016 FFF7FEFF 		bl	TIMER_Enable
 239:Generated_Source\PSoC4/TIMER.c **** }
 164              		.loc 1 239 0
 165 001a C046     		nop
 166 001c BD46     		mov	sp, r7
 167              		@ sp needed
 168 001e 80BD     		pop	{r7, pc}
 169              	.L10:
 170              		.align	2
 171              	.L9:
 172 0020 00000000 		.word	TIMER_initVar
 173              		.cfi_endproc
 174              	.LFE4:
 175              		.size	TIMER_Start, .-TIMER_Start
 176              		.section	.text.TIMER_Stop,"ax",%progbits
 177              		.align	2
 178              		.global	TIMER_Stop
 179              		.code	16
 180              		.thumb_func
 181              		.type	TIMER_Stop, %function
 182              	TIMER_Stop:
 183              	.LFB5:
 240:Generated_Source\PSoC4/TIMER.c **** 
 241:Generated_Source\PSoC4/TIMER.c **** 
 242:Generated_Source\PSoC4/TIMER.c **** /*******************************************************************************
 243:Generated_Source\PSoC4/TIMER.c **** * Function Name: TIMER_Stop
 244:Generated_Source\PSoC4/TIMER.c **** ********************************************************************************
 245:Generated_Source\PSoC4/TIMER.c **** *
 246:Generated_Source\PSoC4/TIMER.c **** * Summary:
 247:Generated_Source\PSoC4/TIMER.c **** *  Disables the TIMER.
 248:Generated_Source\PSoC4/TIMER.c **** *
 249:Generated_Source\PSoC4/TIMER.c **** * Parameters:
 250:Generated_Source\PSoC4/TIMER.c **** *  None
 251:Generated_Source\PSoC4/TIMER.c **** *
 252:Generated_Source\PSoC4/TIMER.c **** * Return:
 253:Generated_Source\PSoC4/TIMER.c **** *  None
 254:Generated_Source\PSoC4/TIMER.c **** *
 255:Generated_Source\PSoC4/TIMER.c **** *******************************************************************************/
 256:Generated_Source\PSoC4/TIMER.c **** void TIMER_Stop(void)
 257:Generated_Source\PSoC4/TIMER.c **** {
 184              		.loc 1 257 0
 185              		.cfi_startproc
 186              		@ args = 0, pretend = 0, frame = 8
 187              		@ frame_needed = 1, uses_anonymous_args = 0
 188 0000 90B5     		push	{r4, r7, lr}
 189              		.cfi_def_cfa_offset 12
 190              		.cfi_offset 4, -12
 191              		.cfi_offset 7, -8
 192              		.cfi_offset 14, -4
 193 0002 83B0     		sub	sp, sp, #12
 194              		.cfi_def_cfa_offset 24
 195 0004 00AF     		add	r7, sp, #0
 196              		.cfi_def_cfa_register 7
 258:Generated_Source\PSoC4/TIMER.c ****     uint8 enableInterrupts;
 259:Generated_Source\PSoC4/TIMER.c **** 
 260:Generated_Source\PSoC4/TIMER.c ****     enableInterrupts = CyEnterCriticalSection();
ARM GAS  C:\Users\ELEASO~1\AppData\Local\Temp\cc1j55VZ.s 			page 9


 197              		.loc 1 260 0
 198 0006 FC1D     		adds	r4, r7, #7
 199 0008 FFF7FEFF 		bl	CyEnterCriticalSection
 200 000c 0300     		movs	r3, r0
 201 000e 2370     		strb	r3, [r4]
 261:Generated_Source\PSoC4/TIMER.c **** 
 262:Generated_Source\PSoC4/TIMER.c ****     TIMER_BLOCK_CONTROL_REG &= (uint32)~TIMER_MASK;
 202              		.loc 1 262 0
 203 0010 074B     		ldr	r3, .L12
 204 0012 074A     		ldr	r2, .L12
 205 0014 1268     		ldr	r2, [r2]
 206 0016 0121     		movs	r1, #1
 207 0018 8A43     		bics	r2, r1
 208 001a 1A60     		str	r2, [r3]
 263:Generated_Source\PSoC4/TIMER.c **** 
 264:Generated_Source\PSoC4/TIMER.c ****     CyExitCriticalSection(enableInterrupts);
 209              		.loc 1 264 0
 210 001c FB1D     		adds	r3, r7, #7
 211 001e 1B78     		ldrb	r3, [r3]
 212 0020 1800     		movs	r0, r3
 213 0022 FFF7FEFF 		bl	CyExitCriticalSection
 265:Generated_Source\PSoC4/TIMER.c **** }
 214              		.loc 1 265 0
 215 0026 C046     		nop
 216 0028 BD46     		mov	sp, r7
 217 002a 03B0     		add	sp, sp, #12
 218              		@ sp needed
 219 002c 90BD     		pop	{r4, r7, pc}
 220              	.L13:
 221 002e C046     		.align	2
 222              	.L12:
 223 0030 00002040 		.word	1075838976
 224              		.cfi_endproc
 225              	.LFE5:
 226              		.size	TIMER_Stop, .-TIMER_Stop
 227              		.section	.text.TIMER_SetMode,"ax",%progbits
 228              		.align	2
 229              		.global	TIMER_SetMode
 230              		.code	16
 231              		.thumb_func
 232              		.type	TIMER_SetMode, %function
 233              	TIMER_SetMode:
 234              	.LFB6:
 266:Generated_Source\PSoC4/TIMER.c **** 
 267:Generated_Source\PSoC4/TIMER.c **** 
 268:Generated_Source\PSoC4/TIMER.c **** /*******************************************************************************
 269:Generated_Source\PSoC4/TIMER.c **** * Function Name: TIMER_SetMode
 270:Generated_Source\PSoC4/TIMER.c **** ********************************************************************************
 271:Generated_Source\PSoC4/TIMER.c **** *
 272:Generated_Source\PSoC4/TIMER.c **** * Summary:
 273:Generated_Source\PSoC4/TIMER.c **** *  Sets the operation mode of the TIMER. This function is used when
 274:Generated_Source\PSoC4/TIMER.c **** *  configured as a generic TIMER and the actual mode of operation is
 275:Generated_Source\PSoC4/TIMER.c **** *  set at runtime. The mode must be set while the component is disabled.
 276:Generated_Source\PSoC4/TIMER.c **** *
 277:Generated_Source\PSoC4/TIMER.c **** * Parameters:
 278:Generated_Source\PSoC4/TIMER.c **** *  mode: Mode for the TIMER to operate in
 279:Generated_Source\PSoC4/TIMER.c **** *   Values:
ARM GAS  C:\Users\ELEASO~1\AppData\Local\Temp\cc1j55VZ.s 			page 10


 280:Generated_Source\PSoC4/TIMER.c **** *   - TIMER_MODE_TIMER_COMPARE - Timer / Counter with
 281:Generated_Source\PSoC4/TIMER.c **** *                                                 compare capability
 282:Generated_Source\PSoC4/TIMER.c **** *         - TIMER_MODE_TIMER_CAPTURE - Timer / Counter with
 283:Generated_Source\PSoC4/TIMER.c **** *                                                 capture capability
 284:Generated_Source\PSoC4/TIMER.c **** *         - TIMER_MODE_QUAD - Quadrature decoder
 285:Generated_Source\PSoC4/TIMER.c **** *         - TIMER_MODE_PWM - PWM
 286:Generated_Source\PSoC4/TIMER.c **** *         - TIMER_MODE_PWM_DT - PWM with dead time
 287:Generated_Source\PSoC4/TIMER.c **** *         - TIMER_MODE_PWM_PR - PWM with pseudo random capability
 288:Generated_Source\PSoC4/TIMER.c **** *
 289:Generated_Source\PSoC4/TIMER.c **** * Return:
 290:Generated_Source\PSoC4/TIMER.c **** *  None
 291:Generated_Source\PSoC4/TIMER.c **** *
 292:Generated_Source\PSoC4/TIMER.c **** *******************************************************************************/
 293:Generated_Source\PSoC4/TIMER.c **** void TIMER_SetMode(uint32 mode)
 294:Generated_Source\PSoC4/TIMER.c **** {
 235              		.loc 1 294 0
 236              		.cfi_startproc
 237              		@ args = 0, pretend = 0, frame = 16
 238              		@ frame_needed = 1, uses_anonymous_args = 0
 239 0000 90B5     		push	{r4, r7, lr}
 240              		.cfi_def_cfa_offset 12
 241              		.cfi_offset 4, -12
 242              		.cfi_offset 7, -8
 243              		.cfi_offset 14, -4
 244 0002 85B0     		sub	sp, sp, #20
 245              		.cfi_def_cfa_offset 32
 246 0004 00AF     		add	r7, sp, #0
 247              		.cfi_def_cfa_register 7
 248 0006 7860     		str	r0, [r7, #4]
 295:Generated_Source\PSoC4/TIMER.c ****     uint8 enableInterrupts;
 296:Generated_Source\PSoC4/TIMER.c **** 
 297:Generated_Source\PSoC4/TIMER.c ****     enableInterrupts = CyEnterCriticalSection();
 249              		.loc 1 297 0
 250 0008 0F23     		movs	r3, #15
 251 000a FC18     		adds	r4, r7, r3
 252 000c FFF7FEFF 		bl	CyEnterCriticalSection
 253 0010 0300     		movs	r3, r0
 254 0012 2370     		strb	r3, [r4]
 298:Generated_Source\PSoC4/TIMER.c **** 
 299:Generated_Source\PSoC4/TIMER.c ****     TIMER_CONTROL_REG &= (uint32)~TIMER_MODE_MASK;
 255              		.loc 1 299 0
 256 0014 0A4B     		ldr	r3, .L15
 257 0016 0A4A     		ldr	r2, .L15
 258 0018 1268     		ldr	r2, [r2]
 259 001a 0A49     		ldr	r1, .L15+4
 260 001c 0A40     		ands	r2, r1
 261 001e 1A60     		str	r2, [r3]
 300:Generated_Source\PSoC4/TIMER.c ****     TIMER_CONTROL_REG |= mode;
 262              		.loc 1 300 0
 263 0020 074B     		ldr	r3, .L15
 264 0022 074A     		ldr	r2, .L15
 265 0024 1168     		ldr	r1, [r2]
 266 0026 7A68     		ldr	r2, [r7, #4]
 267 0028 0A43     		orrs	r2, r1
 268 002a 1A60     		str	r2, [r3]
 301:Generated_Source\PSoC4/TIMER.c **** 
 302:Generated_Source\PSoC4/TIMER.c ****     CyExitCriticalSection(enableInterrupts);
ARM GAS  C:\Users\ELEASO~1\AppData\Local\Temp\cc1j55VZ.s 			page 11


 269              		.loc 1 302 0
 270 002c 0F23     		movs	r3, #15
 271 002e FB18     		adds	r3, r7, r3
 272 0030 1B78     		ldrb	r3, [r3]
 273 0032 1800     		movs	r0, r3
 274 0034 FFF7FEFF 		bl	CyExitCriticalSection
 303:Generated_Source\PSoC4/TIMER.c **** }
 275              		.loc 1 303 0
 276 0038 C046     		nop
 277 003a BD46     		mov	sp, r7
 278 003c 05B0     		add	sp, sp, #20
 279              		@ sp needed
 280 003e 90BD     		pop	{r4, r7, pc}
 281              	.L16:
 282              		.align	2
 283              	.L15:
 284 0040 00012040 		.word	1075839232
 285 0044 FFFFFFF8 		.word	-117440513
 286              		.cfi_endproc
 287              	.LFE6:
 288              		.size	TIMER_SetMode, .-TIMER_SetMode
 289              		.section	.text.TIMER_SetQDMode,"ax",%progbits
 290              		.align	2
 291              		.global	TIMER_SetQDMode
 292              		.code	16
 293              		.thumb_func
 294              		.type	TIMER_SetQDMode, %function
 295              	TIMER_SetQDMode:
 296              	.LFB7:
 304:Generated_Source\PSoC4/TIMER.c **** 
 305:Generated_Source\PSoC4/TIMER.c **** 
 306:Generated_Source\PSoC4/TIMER.c **** /*******************************************************************************
 307:Generated_Source\PSoC4/TIMER.c **** * Function Name: TIMER_SetQDMode
 308:Generated_Source\PSoC4/TIMER.c **** ********************************************************************************
 309:Generated_Source\PSoC4/TIMER.c **** *
 310:Generated_Source\PSoC4/TIMER.c **** * Summary:
 311:Generated_Source\PSoC4/TIMER.c **** *  Sets the the Quadrature Decoder to one of the 3 supported modes.
 312:Generated_Source\PSoC4/TIMER.c **** *  Its functionality is only applicable to Quadrature Decoder operation.
 313:Generated_Source\PSoC4/TIMER.c **** *
 314:Generated_Source\PSoC4/TIMER.c **** * Parameters:
 315:Generated_Source\PSoC4/TIMER.c **** *  qdMode: Quadrature Decoder mode
 316:Generated_Source\PSoC4/TIMER.c **** *   Values:
 317:Generated_Source\PSoC4/TIMER.c **** *         - TIMER_MODE_X1 - Counts on phi 1 rising
 318:Generated_Source\PSoC4/TIMER.c **** *         - TIMER_MODE_X2 - Counts on both edges of phi1 (2x faster)
 319:Generated_Source\PSoC4/TIMER.c **** *         - TIMER_MODE_X4 - Counts on both edges of phi1 and phi2
 320:Generated_Source\PSoC4/TIMER.c **** *                                        (4x faster)
 321:Generated_Source\PSoC4/TIMER.c **** *
 322:Generated_Source\PSoC4/TIMER.c **** * Return:
 323:Generated_Source\PSoC4/TIMER.c **** *  None
 324:Generated_Source\PSoC4/TIMER.c **** *
 325:Generated_Source\PSoC4/TIMER.c **** *******************************************************************************/
 326:Generated_Source\PSoC4/TIMER.c **** void TIMER_SetQDMode(uint32 qdMode)
 327:Generated_Source\PSoC4/TIMER.c **** {
 297              		.loc 1 327 0
 298              		.cfi_startproc
 299              		@ args = 0, pretend = 0, frame = 16
 300              		@ frame_needed = 1, uses_anonymous_args = 0
ARM GAS  C:\Users\ELEASO~1\AppData\Local\Temp\cc1j55VZ.s 			page 12


 301 0000 90B5     		push	{r4, r7, lr}
 302              		.cfi_def_cfa_offset 12
 303              		.cfi_offset 4, -12
 304              		.cfi_offset 7, -8
 305              		.cfi_offset 14, -4
 306 0002 85B0     		sub	sp, sp, #20
 307              		.cfi_def_cfa_offset 32
 308 0004 00AF     		add	r7, sp, #0
 309              		.cfi_def_cfa_register 7
 310 0006 7860     		str	r0, [r7, #4]
 328:Generated_Source\PSoC4/TIMER.c ****     uint8 enableInterrupts;
 329:Generated_Source\PSoC4/TIMER.c **** 
 330:Generated_Source\PSoC4/TIMER.c ****     enableInterrupts = CyEnterCriticalSection();
 311              		.loc 1 330 0
 312 0008 0F23     		movs	r3, #15
 313 000a FC18     		adds	r4, r7, r3
 314 000c FFF7FEFF 		bl	CyEnterCriticalSection
 315 0010 0300     		movs	r3, r0
 316 0012 2370     		strb	r3, [r4]
 331:Generated_Source\PSoC4/TIMER.c **** 
 332:Generated_Source\PSoC4/TIMER.c ****     TIMER_CONTROL_REG &= (uint32)~TIMER_QUAD_MODE_MASK;
 317              		.loc 1 332 0
 318 0014 0A4B     		ldr	r3, .L18
 319 0016 0A4A     		ldr	r2, .L18
 320 0018 1268     		ldr	r2, [r2]
 321 001a 0A49     		ldr	r1, .L18+4
 322 001c 0A40     		ands	r2, r1
 323 001e 1A60     		str	r2, [r3]
 333:Generated_Source\PSoC4/TIMER.c ****     TIMER_CONTROL_REG |= qdMode;
 324              		.loc 1 333 0
 325 0020 074B     		ldr	r3, .L18
 326 0022 074A     		ldr	r2, .L18
 327 0024 1168     		ldr	r1, [r2]
 328 0026 7A68     		ldr	r2, [r7, #4]
 329 0028 0A43     		orrs	r2, r1
 330 002a 1A60     		str	r2, [r3]
 334:Generated_Source\PSoC4/TIMER.c **** 
 335:Generated_Source\PSoC4/TIMER.c ****     CyExitCriticalSection(enableInterrupts);
 331              		.loc 1 335 0
 332 002c 0F23     		movs	r3, #15
 333 002e FB18     		adds	r3, r7, r3
 334 0030 1B78     		ldrb	r3, [r3]
 335 0032 1800     		movs	r0, r3
 336 0034 FFF7FEFF 		bl	CyExitCriticalSection
 336:Generated_Source\PSoC4/TIMER.c **** }
 337              		.loc 1 336 0
 338 0038 C046     		nop
 339 003a BD46     		mov	sp, r7
 340 003c 05B0     		add	sp, sp, #20
 341              		@ sp needed
 342 003e 90BD     		pop	{r4, r7, pc}
 343              	.L19:
 344              		.align	2
 345              	.L18:
 346 0040 00012040 		.word	1075839232
 347 0044 FFFF8FFF 		.word	-7340033
 348              		.cfi_endproc
ARM GAS  C:\Users\ELEASO~1\AppData\Local\Temp\cc1j55VZ.s 			page 13


 349              	.LFE7:
 350              		.size	TIMER_SetQDMode, .-TIMER_SetQDMode
 351              		.section	.text.TIMER_SetPrescaler,"ax",%progbits
 352              		.align	2
 353              		.global	TIMER_SetPrescaler
 354              		.code	16
 355              		.thumb_func
 356              		.type	TIMER_SetPrescaler, %function
 357              	TIMER_SetPrescaler:
 358              	.LFB8:
 337:Generated_Source\PSoC4/TIMER.c **** 
 338:Generated_Source\PSoC4/TIMER.c **** 
 339:Generated_Source\PSoC4/TIMER.c **** /*******************************************************************************
 340:Generated_Source\PSoC4/TIMER.c **** * Function Name: TIMER_SetPrescaler
 341:Generated_Source\PSoC4/TIMER.c **** ********************************************************************************
 342:Generated_Source\PSoC4/TIMER.c **** *
 343:Generated_Source\PSoC4/TIMER.c **** * Summary:
 344:Generated_Source\PSoC4/TIMER.c **** *  Sets the prescaler value that is applied to the clock input.  Not applicable
 345:Generated_Source\PSoC4/TIMER.c **** *  to a PWM with the dead time mode or Quadrature Decoder mode.
 346:Generated_Source\PSoC4/TIMER.c **** *
 347:Generated_Source\PSoC4/TIMER.c **** * Parameters:
 348:Generated_Source\PSoC4/TIMER.c **** *  prescaler: Prescaler divider value
 349:Generated_Source\PSoC4/TIMER.c **** *   Values:
 350:Generated_Source\PSoC4/TIMER.c **** *         - TIMER_PRESCALE_DIVBY1    - Divide by 1 (no prescaling)
 351:Generated_Source\PSoC4/TIMER.c **** *         - TIMER_PRESCALE_DIVBY2    - Divide by 2
 352:Generated_Source\PSoC4/TIMER.c **** *         - TIMER_PRESCALE_DIVBY4    - Divide by 4
 353:Generated_Source\PSoC4/TIMER.c **** *         - TIMER_PRESCALE_DIVBY8    - Divide by 8
 354:Generated_Source\PSoC4/TIMER.c **** *         - TIMER_PRESCALE_DIVBY16   - Divide by 16
 355:Generated_Source\PSoC4/TIMER.c **** *         - TIMER_PRESCALE_DIVBY32   - Divide by 32
 356:Generated_Source\PSoC4/TIMER.c **** *         - TIMER_PRESCALE_DIVBY64   - Divide by 64
 357:Generated_Source\PSoC4/TIMER.c **** *         - TIMER_PRESCALE_DIVBY128  - Divide by 128
 358:Generated_Source\PSoC4/TIMER.c **** *
 359:Generated_Source\PSoC4/TIMER.c **** * Return:
 360:Generated_Source\PSoC4/TIMER.c **** *  None
 361:Generated_Source\PSoC4/TIMER.c **** *
 362:Generated_Source\PSoC4/TIMER.c **** *******************************************************************************/
 363:Generated_Source\PSoC4/TIMER.c **** void TIMER_SetPrescaler(uint32 prescaler)
 364:Generated_Source\PSoC4/TIMER.c **** {
 359              		.loc 1 364 0
 360              		.cfi_startproc
 361              		@ args = 0, pretend = 0, frame = 16
 362              		@ frame_needed = 1, uses_anonymous_args = 0
 363 0000 90B5     		push	{r4, r7, lr}
 364              		.cfi_def_cfa_offset 12
 365              		.cfi_offset 4, -12
 366              		.cfi_offset 7, -8
 367              		.cfi_offset 14, -4
 368 0002 85B0     		sub	sp, sp, #20
 369              		.cfi_def_cfa_offset 32
 370 0004 00AF     		add	r7, sp, #0
 371              		.cfi_def_cfa_register 7
 372 0006 7860     		str	r0, [r7, #4]
 365:Generated_Source\PSoC4/TIMER.c ****     uint8 enableInterrupts;
 366:Generated_Source\PSoC4/TIMER.c **** 
 367:Generated_Source\PSoC4/TIMER.c ****     enableInterrupts = CyEnterCriticalSection();
 373              		.loc 1 367 0
 374 0008 0F23     		movs	r3, #15
ARM GAS  C:\Users\ELEASO~1\AppData\Local\Temp\cc1j55VZ.s 			page 14


 375 000a FC18     		adds	r4, r7, r3
 376 000c FFF7FEFF 		bl	CyEnterCriticalSection
 377 0010 0300     		movs	r3, r0
 378 0012 2370     		strb	r3, [r4]
 368:Generated_Source\PSoC4/TIMER.c **** 
 369:Generated_Source\PSoC4/TIMER.c ****     TIMER_CONTROL_REG &= (uint32)~TIMER_PRESCALER_MASK;
 379              		.loc 1 369 0
 380 0014 0A4B     		ldr	r3, .L21
 381 0016 0A4A     		ldr	r2, .L21
 382 0018 1268     		ldr	r2, [r2]
 383 001a 0A49     		ldr	r1, .L21+4
 384 001c 0A40     		ands	r2, r1
 385 001e 1A60     		str	r2, [r3]
 370:Generated_Source\PSoC4/TIMER.c ****     TIMER_CONTROL_REG |= prescaler;
 386              		.loc 1 370 0
 387 0020 074B     		ldr	r3, .L21
 388 0022 074A     		ldr	r2, .L21
 389 0024 1168     		ldr	r1, [r2]
 390 0026 7A68     		ldr	r2, [r7, #4]
 391 0028 0A43     		orrs	r2, r1
 392 002a 1A60     		str	r2, [r3]
 371:Generated_Source\PSoC4/TIMER.c **** 
 372:Generated_Source\PSoC4/TIMER.c ****     CyExitCriticalSection(enableInterrupts);
 393              		.loc 1 372 0
 394 002c 0F23     		movs	r3, #15
 395 002e FB18     		adds	r3, r7, r3
 396 0030 1B78     		ldrb	r3, [r3]
 397 0032 1800     		movs	r0, r3
 398 0034 FFF7FEFF 		bl	CyExitCriticalSection
 373:Generated_Source\PSoC4/TIMER.c **** }
 399              		.loc 1 373 0
 400 0038 C046     		nop
 401 003a BD46     		mov	sp, r7
 402 003c 05B0     		add	sp, sp, #20
 403              		@ sp needed
 404 003e 90BD     		pop	{r4, r7, pc}
 405              	.L22:
 406              		.align	2
 407              	.L21:
 408 0040 00012040 		.word	1075839232
 409 0044 FF00FFFF 		.word	-65281
 410              		.cfi_endproc
 411              	.LFE8:
 412              		.size	TIMER_SetPrescaler, .-TIMER_SetPrescaler
 413              		.section	.text.TIMER_SetOneShot,"ax",%progbits
 414              		.align	2
 415              		.global	TIMER_SetOneShot
 416              		.code	16
 417              		.thumb_func
 418              		.type	TIMER_SetOneShot, %function
 419              	TIMER_SetOneShot:
 420              	.LFB9:
 374:Generated_Source\PSoC4/TIMER.c **** 
 375:Generated_Source\PSoC4/TIMER.c **** 
 376:Generated_Source\PSoC4/TIMER.c **** /*******************************************************************************
 377:Generated_Source\PSoC4/TIMER.c **** * Function Name: TIMER_SetOneShot
 378:Generated_Source\PSoC4/TIMER.c **** ********************************************************************************
ARM GAS  C:\Users\ELEASO~1\AppData\Local\Temp\cc1j55VZ.s 			page 15


 379:Generated_Source\PSoC4/TIMER.c **** *
 380:Generated_Source\PSoC4/TIMER.c **** * Summary:
 381:Generated_Source\PSoC4/TIMER.c **** *  Writes the register that controls whether the TIMER runs
 382:Generated_Source\PSoC4/TIMER.c **** *  continuously or stops when terminal count is reached.  By default the
 383:Generated_Source\PSoC4/TIMER.c **** *  TIMER operates in the continuous mode.
 384:Generated_Source\PSoC4/TIMER.c **** *
 385:Generated_Source\PSoC4/TIMER.c **** * Parameters:
 386:Generated_Source\PSoC4/TIMER.c **** *  oneShotEnable
 387:Generated_Source\PSoC4/TIMER.c **** *   Values:
 388:Generated_Source\PSoC4/TIMER.c **** *     - 0 - Continuous
 389:Generated_Source\PSoC4/TIMER.c **** *     - 1 - Enable One Shot
 390:Generated_Source\PSoC4/TIMER.c **** *
 391:Generated_Source\PSoC4/TIMER.c **** * Return:
 392:Generated_Source\PSoC4/TIMER.c **** *  None
 393:Generated_Source\PSoC4/TIMER.c **** *
 394:Generated_Source\PSoC4/TIMER.c **** *******************************************************************************/
 395:Generated_Source\PSoC4/TIMER.c **** void TIMER_SetOneShot(uint32 oneShotEnable)
 396:Generated_Source\PSoC4/TIMER.c **** {
 421              		.loc 1 396 0
 422              		.cfi_startproc
 423              		@ args = 0, pretend = 0, frame = 16
 424              		@ frame_needed = 1, uses_anonymous_args = 0
 425 0000 90B5     		push	{r4, r7, lr}
 426              		.cfi_def_cfa_offset 12
 427              		.cfi_offset 4, -12
 428              		.cfi_offset 7, -8
 429              		.cfi_offset 14, -4
 430 0002 85B0     		sub	sp, sp, #20
 431              		.cfi_def_cfa_offset 32
 432 0004 00AF     		add	r7, sp, #0
 433              		.cfi_def_cfa_register 7
 434 0006 7860     		str	r0, [r7, #4]
 397:Generated_Source\PSoC4/TIMER.c ****     uint8 enableInterrupts;
 398:Generated_Source\PSoC4/TIMER.c **** 
 399:Generated_Source\PSoC4/TIMER.c ****     enableInterrupts = CyEnterCriticalSection();
 435              		.loc 1 399 0
 436 0008 0F23     		movs	r3, #15
 437 000a FC18     		adds	r4, r7, r3
 438 000c FFF7FEFF 		bl	CyEnterCriticalSection
 439 0010 0300     		movs	r3, r0
 440 0012 2370     		strb	r3, [r4]
 400:Generated_Source\PSoC4/TIMER.c **** 
 401:Generated_Source\PSoC4/TIMER.c ****     TIMER_CONTROL_REG &= (uint32)~TIMER_ONESHOT_MASK;
 441              		.loc 1 401 0
 442 0014 0C4B     		ldr	r3, .L24
 443 0016 0C4A     		ldr	r2, .L24
 444 0018 1268     		ldr	r2, [r2]
 445 001a 0C49     		ldr	r1, .L24+4
 446 001c 0A40     		ands	r2, r1
 447 001e 1A60     		str	r2, [r3]
 402:Generated_Source\PSoC4/TIMER.c ****     TIMER_CONTROL_REG |= ((uint32)((oneShotEnable & TIMER_1BIT_MASK) <<
 448              		.loc 1 402 0
 449 0020 094B     		ldr	r3, .L24
 450 0022 094A     		ldr	r2, .L24
 451 0024 1168     		ldr	r1, [r2]
 452 0026 7A68     		ldr	r2, [r7, #4]
 453 0028 9004     		lsls	r0, r2, #18
ARM GAS  C:\Users\ELEASO~1\AppData\Local\Temp\cc1j55VZ.s 			page 16


 454 002a 8022     		movs	r2, #128
 455 002c D202     		lsls	r2, r2, #11
 456 002e 0240     		ands	r2, r0
 457 0030 0A43     		orrs	r2, r1
 458 0032 1A60     		str	r2, [r3]
 403:Generated_Source\PSoC4/TIMER.c ****                                                                TIMER_ONESHOT_SHIFT));
 404:Generated_Source\PSoC4/TIMER.c **** 
 405:Generated_Source\PSoC4/TIMER.c ****     CyExitCriticalSection(enableInterrupts);
 459              		.loc 1 405 0
 460 0034 0F23     		movs	r3, #15
 461 0036 FB18     		adds	r3, r7, r3
 462 0038 1B78     		ldrb	r3, [r3]
 463 003a 1800     		movs	r0, r3
 464 003c FFF7FEFF 		bl	CyExitCriticalSection
 406:Generated_Source\PSoC4/TIMER.c **** }
 465              		.loc 1 406 0
 466 0040 C046     		nop
 467 0042 BD46     		mov	sp, r7
 468 0044 05B0     		add	sp, sp, #20
 469              		@ sp needed
 470 0046 90BD     		pop	{r4, r7, pc}
 471              	.L25:
 472              		.align	2
 473              	.L24:
 474 0048 00012040 		.word	1075839232
 475 004c FFFFFBFF 		.word	-262145
 476              		.cfi_endproc
 477              	.LFE9:
 478              		.size	TIMER_SetOneShot, .-TIMER_SetOneShot
 479              		.section	.text.TIMER_SetPWMMode,"ax",%progbits
 480              		.align	2
 481              		.global	TIMER_SetPWMMode
 482              		.code	16
 483              		.thumb_func
 484              		.type	TIMER_SetPWMMode, %function
 485              	TIMER_SetPWMMode:
 486              	.LFB10:
 407:Generated_Source\PSoC4/TIMER.c **** 
 408:Generated_Source\PSoC4/TIMER.c **** 
 409:Generated_Source\PSoC4/TIMER.c **** /*******************************************************************************
 410:Generated_Source\PSoC4/TIMER.c **** * Function Name: TIMER_SetPWMMode
 411:Generated_Source\PSoC4/TIMER.c **** ********************************************************************************
 412:Generated_Source\PSoC4/TIMER.c **** *
 413:Generated_Source\PSoC4/TIMER.c **** * Summary:
 414:Generated_Source\PSoC4/TIMER.c **** *  Writes the control register that determines what mode of operation the PWM
 415:Generated_Source\PSoC4/TIMER.c **** *  output lines are driven in.  There is a setting for what to do on a
 416:Generated_Source\PSoC4/TIMER.c **** *  comparison match (CC_MATCH), on an overflow (OVERFLOW) and on an underflow
 417:Generated_Source\PSoC4/TIMER.c **** *  (UNDERFLOW).  The value for each of the three must be ORed together to form
 418:Generated_Source\PSoC4/TIMER.c **** *  the mode.
 419:Generated_Source\PSoC4/TIMER.c **** *
 420:Generated_Source\PSoC4/TIMER.c **** * Parameters:
 421:Generated_Source\PSoC4/TIMER.c **** *  modeMask: A combination of three mode settings.  Mask must include a value
 422:Generated_Source\PSoC4/TIMER.c **** *  for each of the three or use one of the preconfigured PWM settings.
 423:Generated_Source\PSoC4/TIMER.c **** *   Values:
 424:Generated_Source\PSoC4/TIMER.c **** *     - CC_MATCH_SET        - Set on comparison match
 425:Generated_Source\PSoC4/TIMER.c **** *     - CC_MATCH_CLEAR      - Clear on comparison match
 426:Generated_Source\PSoC4/TIMER.c **** *     - CC_MATCH_INVERT     - Invert on comparison match
ARM GAS  C:\Users\ELEASO~1\AppData\Local\Temp\cc1j55VZ.s 			page 17


 427:Generated_Source\PSoC4/TIMER.c **** *     - CC_MATCH_NO_CHANGE  - No change on comparison match
 428:Generated_Source\PSoC4/TIMER.c **** *     - OVERLOW_SET         - Set on overflow
 429:Generated_Source\PSoC4/TIMER.c **** *     - OVERLOW_CLEAR       - Clear on  overflow
 430:Generated_Source\PSoC4/TIMER.c **** *     - OVERLOW_INVERT      - Invert on overflow
 431:Generated_Source\PSoC4/TIMER.c **** *     - OVERLOW_NO_CHANGE   - No change on overflow
 432:Generated_Source\PSoC4/TIMER.c **** *     - UNDERFLOW_SET       - Set on underflow
 433:Generated_Source\PSoC4/TIMER.c **** *     - UNDERFLOW_CLEAR     - Clear on underflow
 434:Generated_Source\PSoC4/TIMER.c **** *     - UNDERFLOW_INVERT    - Invert on underflow
 435:Generated_Source\PSoC4/TIMER.c **** *     - UNDERFLOW_NO_CHANGE - No change on underflow
 436:Generated_Source\PSoC4/TIMER.c **** *     - PWM_MODE_LEFT       - Setting for left aligned PWM.  Should be combined
 437:Generated_Source\PSoC4/TIMER.c **** *                             with up counting mode
 438:Generated_Source\PSoC4/TIMER.c **** *     - PWM_MODE_RIGHT      - Setting for right aligned PWM.  Should be combined
 439:Generated_Source\PSoC4/TIMER.c **** *                             with down counting mode
 440:Generated_Source\PSoC4/TIMER.c **** *     - PWM_MODE_CENTER     - Setting for center aligned PWM.  Should be
 441:Generated_Source\PSoC4/TIMER.c **** *                             combined with up/down 0 mode
 442:Generated_Source\PSoC4/TIMER.c **** *     - PWM_MODE_ASYM       - Setting for asymmetric PWM.  Should be combined
 443:Generated_Source\PSoC4/TIMER.c **** *                             with up/down 1 mode
 444:Generated_Source\PSoC4/TIMER.c **** *
 445:Generated_Source\PSoC4/TIMER.c **** * Return:
 446:Generated_Source\PSoC4/TIMER.c **** *  None
 447:Generated_Source\PSoC4/TIMER.c **** *
 448:Generated_Source\PSoC4/TIMER.c **** *******************************************************************************/
 449:Generated_Source\PSoC4/TIMER.c **** void TIMER_SetPWMMode(uint32 modeMask)
 450:Generated_Source\PSoC4/TIMER.c **** {
 487              		.loc 1 450 0
 488              		.cfi_startproc
 489              		@ args = 0, pretend = 0, frame = 8
 490              		@ frame_needed = 1, uses_anonymous_args = 0
 491 0000 80B5     		push	{r7, lr}
 492              		.cfi_def_cfa_offset 8
 493              		.cfi_offset 7, -8
 494              		.cfi_offset 14, -4
 495 0002 82B0     		sub	sp, sp, #8
 496              		.cfi_def_cfa_offset 16
 497 0004 00AF     		add	r7, sp, #0
 498              		.cfi_def_cfa_register 7
 499 0006 7860     		str	r0, [r7, #4]
 451:Generated_Source\PSoC4/TIMER.c ****     TIMER_TRIG_CONTROL2_REG = (modeMask & TIMER_6BIT_MASK);
 500              		.loc 1 451 0
 501 0008 044B     		ldr	r3, .L27
 502 000a 7A68     		ldr	r2, [r7, #4]
 503 000c 3F21     		movs	r1, #63
 504 000e 0A40     		ands	r2, r1
 505 0010 1A60     		str	r2, [r3]
 452:Generated_Source\PSoC4/TIMER.c **** }
 506              		.loc 1 452 0
 507 0012 C046     		nop
 508 0014 BD46     		mov	sp, r7
 509 0016 02B0     		add	sp, sp, #8
 510              		@ sp needed
 511 0018 80BD     		pop	{r7, pc}
 512              	.L28:
 513 001a C046     		.align	2
 514              	.L27:
 515 001c 28012040 		.word	1075839272
 516              		.cfi_endproc
 517              	.LFE10:
ARM GAS  C:\Users\ELEASO~1\AppData\Local\Temp\cc1j55VZ.s 			page 18


 518              		.size	TIMER_SetPWMMode, .-TIMER_SetPWMMode
 519              		.section	.text.TIMER_SetPWMSyncKill,"ax",%progbits
 520              		.align	2
 521              		.global	TIMER_SetPWMSyncKill
 522              		.code	16
 523              		.thumb_func
 524              		.type	TIMER_SetPWMSyncKill, %function
 525              	TIMER_SetPWMSyncKill:
 526              	.LFB11:
 453:Generated_Source\PSoC4/TIMER.c **** 
 454:Generated_Source\PSoC4/TIMER.c **** 
 455:Generated_Source\PSoC4/TIMER.c **** 
 456:Generated_Source\PSoC4/TIMER.c **** /*******************************************************************************
 457:Generated_Source\PSoC4/TIMER.c **** * Function Name: TIMER_SetPWMSyncKill
 458:Generated_Source\PSoC4/TIMER.c **** ********************************************************************************
 459:Generated_Source\PSoC4/TIMER.c **** *
 460:Generated_Source\PSoC4/TIMER.c **** * Summary:
 461:Generated_Source\PSoC4/TIMER.c **** *  Writes the register that controls whether the PWM kill signal (stop input)
 462:Generated_Source\PSoC4/TIMER.c **** *  causes asynchronous or synchronous kill operation.  By default the kill
 463:Generated_Source\PSoC4/TIMER.c **** *  operation is asynchronous.  This functionality is only applicable to the PWM
 464:Generated_Source\PSoC4/TIMER.c **** *  and PWM with dead time modes.
 465:Generated_Source\PSoC4/TIMER.c **** *
 466:Generated_Source\PSoC4/TIMER.c **** *  For Synchronous mode the kill signal disables both the line and line_n
 467:Generated_Source\PSoC4/TIMER.c **** *  signals until the next terminal count.
 468:Generated_Source\PSoC4/TIMER.c **** *
 469:Generated_Source\PSoC4/TIMER.c **** *  For Asynchronous mode the kill signal disables both the line and line_n
 470:Generated_Source\PSoC4/TIMER.c **** *  signals when the kill signal is present.  This mode should only be used
 471:Generated_Source\PSoC4/TIMER.c **** *  when the kill signal (stop input) is configured in the pass through mode
 472:Generated_Source\PSoC4/TIMER.c **** *  (Level sensitive signal).
 473:Generated_Source\PSoC4/TIMER.c **** 
 474:Generated_Source\PSoC4/TIMER.c **** *
 475:Generated_Source\PSoC4/TIMER.c **** * Parameters:
 476:Generated_Source\PSoC4/TIMER.c **** *  syncKillEnable
 477:Generated_Source\PSoC4/TIMER.c **** *   Values:
 478:Generated_Source\PSoC4/TIMER.c **** *     - 0 - Asynchronous
 479:Generated_Source\PSoC4/TIMER.c **** *     - 1 - Synchronous
 480:Generated_Source\PSoC4/TIMER.c **** *
 481:Generated_Source\PSoC4/TIMER.c **** * Return:
 482:Generated_Source\PSoC4/TIMER.c **** *  None
 483:Generated_Source\PSoC4/TIMER.c **** *
 484:Generated_Source\PSoC4/TIMER.c **** *******************************************************************************/
 485:Generated_Source\PSoC4/TIMER.c **** void TIMER_SetPWMSyncKill(uint32 syncKillEnable)
 486:Generated_Source\PSoC4/TIMER.c **** {
 527              		.loc 1 486 0
 528              		.cfi_startproc
 529              		@ args = 0, pretend = 0, frame = 16
 530              		@ frame_needed = 1, uses_anonymous_args = 0
 531 0000 90B5     		push	{r4, r7, lr}
 532              		.cfi_def_cfa_offset 12
 533              		.cfi_offset 4, -12
 534              		.cfi_offset 7, -8
 535              		.cfi_offset 14, -4
 536 0002 85B0     		sub	sp, sp, #20
 537              		.cfi_def_cfa_offset 32
 538 0004 00AF     		add	r7, sp, #0
 539              		.cfi_def_cfa_register 7
 540 0006 7860     		str	r0, [r7, #4]
ARM GAS  C:\Users\ELEASO~1\AppData\Local\Temp\cc1j55VZ.s 			page 19


 487:Generated_Source\PSoC4/TIMER.c ****     uint8 enableInterrupts;
 488:Generated_Source\PSoC4/TIMER.c **** 
 489:Generated_Source\PSoC4/TIMER.c ****     enableInterrupts = CyEnterCriticalSection();
 541              		.loc 1 489 0
 542 0008 0F23     		movs	r3, #15
 543 000a FC18     		adds	r4, r7, r3
 544 000c FFF7FEFF 		bl	CyEnterCriticalSection
 545 0010 0300     		movs	r3, r0
 546 0012 2370     		strb	r3, [r4]
 490:Generated_Source\PSoC4/TIMER.c **** 
 491:Generated_Source\PSoC4/TIMER.c ****     TIMER_CONTROL_REG &= (uint32)~TIMER_PWM_SYNC_KILL_MASK;
 547              		.loc 1 491 0
 548 0014 0C4B     		ldr	r3, .L30
 549 0016 0C4A     		ldr	r2, .L30
 550 0018 1268     		ldr	r2, [r2]
 551 001a 0421     		movs	r1, #4
 552 001c 8A43     		bics	r2, r1
 553 001e 1A60     		str	r2, [r3]
 492:Generated_Source\PSoC4/TIMER.c ****     TIMER_CONTROL_REG |= ((uint32)((syncKillEnable & TIMER_1BIT_MASK)  <<
 554              		.loc 1 492 0
 555 0020 094B     		ldr	r3, .L30
 556 0022 094A     		ldr	r2, .L30
 557 0024 1168     		ldr	r1, [r2]
 558 0026 7A68     		ldr	r2, [r7, #4]
 559 0028 9200     		lsls	r2, r2, #2
 560 002a 0420     		movs	r0, #4
 561 002c 0240     		ands	r2, r0
 562 002e 0A43     		orrs	r2, r1
 563 0030 1A60     		str	r2, [r3]
 493:Generated_Source\PSoC4/TIMER.c ****                                                TIMER_PWM_SYNC_KILL_SHIFT));
 494:Generated_Source\PSoC4/TIMER.c **** 
 495:Generated_Source\PSoC4/TIMER.c ****     CyExitCriticalSection(enableInterrupts);
 564              		.loc 1 495 0
 565 0032 0F23     		movs	r3, #15
 566 0034 FB18     		adds	r3, r7, r3
 567 0036 1B78     		ldrb	r3, [r3]
 568 0038 1800     		movs	r0, r3
 569 003a FFF7FEFF 		bl	CyExitCriticalSection
 496:Generated_Source\PSoC4/TIMER.c **** }
 570              		.loc 1 496 0
 571 003e C046     		nop
 572 0040 BD46     		mov	sp, r7
 573 0042 05B0     		add	sp, sp, #20
 574              		@ sp needed
 575 0044 90BD     		pop	{r4, r7, pc}
 576              	.L31:
 577 0046 C046     		.align	2
 578              	.L30:
 579 0048 00012040 		.word	1075839232
 580              		.cfi_endproc
 581              	.LFE11:
 582              		.size	TIMER_SetPWMSyncKill, .-TIMER_SetPWMSyncKill
 583              		.section	.text.TIMER_SetPWMStopOnKill,"ax",%progbits
 584              		.align	2
 585              		.global	TIMER_SetPWMStopOnKill
 586              		.code	16
 587              		.thumb_func
ARM GAS  C:\Users\ELEASO~1\AppData\Local\Temp\cc1j55VZ.s 			page 20


 588              		.type	TIMER_SetPWMStopOnKill, %function
 589              	TIMER_SetPWMStopOnKill:
 590              	.LFB12:
 497:Generated_Source\PSoC4/TIMER.c **** 
 498:Generated_Source\PSoC4/TIMER.c **** 
 499:Generated_Source\PSoC4/TIMER.c **** /*******************************************************************************
 500:Generated_Source\PSoC4/TIMER.c **** * Function Name: TIMER_SetPWMStopOnKill
 501:Generated_Source\PSoC4/TIMER.c **** ********************************************************************************
 502:Generated_Source\PSoC4/TIMER.c **** *
 503:Generated_Source\PSoC4/TIMER.c **** * Summary:
 504:Generated_Source\PSoC4/TIMER.c **** *  Writes the register that controls whether the PWM kill signal (stop input)
 505:Generated_Source\PSoC4/TIMER.c **** *  causes the PWM counter to stop.  By default the kill operation does not stop
 506:Generated_Source\PSoC4/TIMER.c **** *  the counter.  This functionality is only applicable to the three PWM modes.
 507:Generated_Source\PSoC4/TIMER.c **** *
 508:Generated_Source\PSoC4/TIMER.c **** *
 509:Generated_Source\PSoC4/TIMER.c **** * Parameters:
 510:Generated_Source\PSoC4/TIMER.c **** *  stopOnKillEnable
 511:Generated_Source\PSoC4/TIMER.c **** *   Values:
 512:Generated_Source\PSoC4/TIMER.c **** *     - 0 - Don't stop
 513:Generated_Source\PSoC4/TIMER.c **** *     - 1 - Stop
 514:Generated_Source\PSoC4/TIMER.c **** *
 515:Generated_Source\PSoC4/TIMER.c **** * Return:
 516:Generated_Source\PSoC4/TIMER.c **** *  None
 517:Generated_Source\PSoC4/TIMER.c **** *
 518:Generated_Source\PSoC4/TIMER.c **** *******************************************************************************/
 519:Generated_Source\PSoC4/TIMER.c **** void TIMER_SetPWMStopOnKill(uint32 stopOnKillEnable)
 520:Generated_Source\PSoC4/TIMER.c **** {
 591              		.loc 1 520 0
 592              		.cfi_startproc
 593              		@ args = 0, pretend = 0, frame = 16
 594              		@ frame_needed = 1, uses_anonymous_args = 0
 595 0000 90B5     		push	{r4, r7, lr}
 596              		.cfi_def_cfa_offset 12
 597              		.cfi_offset 4, -12
 598              		.cfi_offset 7, -8
 599              		.cfi_offset 14, -4
 600 0002 85B0     		sub	sp, sp, #20
 601              		.cfi_def_cfa_offset 32
 602 0004 00AF     		add	r7, sp, #0
 603              		.cfi_def_cfa_register 7
 604 0006 7860     		str	r0, [r7, #4]
 521:Generated_Source\PSoC4/TIMER.c ****     uint8 enableInterrupts;
 522:Generated_Source\PSoC4/TIMER.c **** 
 523:Generated_Source\PSoC4/TIMER.c ****     enableInterrupts = CyEnterCriticalSection();
 605              		.loc 1 523 0
 606 0008 0F23     		movs	r3, #15
 607 000a FC18     		adds	r4, r7, r3
 608 000c FFF7FEFF 		bl	CyEnterCriticalSection
 609 0010 0300     		movs	r3, r0
 610 0012 2370     		strb	r3, [r4]
 524:Generated_Source\PSoC4/TIMER.c **** 
 525:Generated_Source\PSoC4/TIMER.c ****     TIMER_CONTROL_REG &= (uint32)~TIMER_PWM_STOP_KILL_MASK;
 611              		.loc 1 525 0
 612 0014 0C4B     		ldr	r3, .L33
 613 0016 0C4A     		ldr	r2, .L33
 614 0018 1268     		ldr	r2, [r2]
 615 001a 0821     		movs	r1, #8
ARM GAS  C:\Users\ELEASO~1\AppData\Local\Temp\cc1j55VZ.s 			page 21


 616 001c 8A43     		bics	r2, r1
 617 001e 1A60     		str	r2, [r3]
 526:Generated_Source\PSoC4/TIMER.c ****     TIMER_CONTROL_REG |= ((uint32)((stopOnKillEnable & TIMER_1BIT_MASK)  <<
 618              		.loc 1 526 0
 619 0020 094B     		ldr	r3, .L33
 620 0022 094A     		ldr	r2, .L33
 621 0024 1168     		ldr	r1, [r2]
 622 0026 7A68     		ldr	r2, [r7, #4]
 623 0028 D200     		lsls	r2, r2, #3
 624 002a 0820     		movs	r0, #8
 625 002c 0240     		ands	r2, r0
 626 002e 0A43     		orrs	r2, r1
 627 0030 1A60     		str	r2, [r3]
 527:Generated_Source\PSoC4/TIMER.c ****                                                          TIMER_PWM_STOP_KILL_SHIFT));
 528:Generated_Source\PSoC4/TIMER.c **** 
 529:Generated_Source\PSoC4/TIMER.c ****     CyExitCriticalSection(enableInterrupts);
 628              		.loc 1 529 0
 629 0032 0F23     		movs	r3, #15
 630 0034 FB18     		adds	r3, r7, r3
 631 0036 1B78     		ldrb	r3, [r3]
 632 0038 1800     		movs	r0, r3
 633 003a FFF7FEFF 		bl	CyExitCriticalSection
 530:Generated_Source\PSoC4/TIMER.c **** }
 634              		.loc 1 530 0
 635 003e C046     		nop
 636 0040 BD46     		mov	sp, r7
 637 0042 05B0     		add	sp, sp, #20
 638              		@ sp needed
 639 0044 90BD     		pop	{r4, r7, pc}
 640              	.L34:
 641 0046 C046     		.align	2
 642              	.L33:
 643 0048 00012040 		.word	1075839232
 644              		.cfi_endproc
 645              	.LFE12:
 646              		.size	TIMER_SetPWMStopOnKill, .-TIMER_SetPWMStopOnKill
 647              		.section	.text.TIMER_SetPWMDeadTime,"ax",%progbits
 648              		.align	2
 649              		.global	TIMER_SetPWMDeadTime
 650              		.code	16
 651              		.thumb_func
 652              		.type	TIMER_SetPWMDeadTime, %function
 653              	TIMER_SetPWMDeadTime:
 654              	.LFB13:
 531:Generated_Source\PSoC4/TIMER.c **** 
 532:Generated_Source\PSoC4/TIMER.c **** 
 533:Generated_Source\PSoC4/TIMER.c **** /*******************************************************************************
 534:Generated_Source\PSoC4/TIMER.c **** * Function Name: TIMER_SetPWMDeadTime
 535:Generated_Source\PSoC4/TIMER.c **** ********************************************************************************
 536:Generated_Source\PSoC4/TIMER.c **** *
 537:Generated_Source\PSoC4/TIMER.c **** * Summary:
 538:Generated_Source\PSoC4/TIMER.c **** *  Writes the dead time control value.  This value delays the rising edge of
 539:Generated_Source\PSoC4/TIMER.c **** *  both the line and line_n signals the designated number of cycles resulting
 540:Generated_Source\PSoC4/TIMER.c **** *  in both signals being inactive for that many cycles.  This functionality is
 541:Generated_Source\PSoC4/TIMER.c **** *  only applicable to the PWM in the dead time mode.
 542:Generated_Source\PSoC4/TIMER.c **** 
 543:Generated_Source\PSoC4/TIMER.c **** *
ARM GAS  C:\Users\ELEASO~1\AppData\Local\Temp\cc1j55VZ.s 			page 22


 544:Generated_Source\PSoC4/TIMER.c **** * Parameters:
 545:Generated_Source\PSoC4/TIMER.c **** *  Dead time to insert
 546:Generated_Source\PSoC4/TIMER.c **** *   Values: 0 to 255
 547:Generated_Source\PSoC4/TIMER.c **** *
 548:Generated_Source\PSoC4/TIMER.c **** * Return:
 549:Generated_Source\PSoC4/TIMER.c **** *  None
 550:Generated_Source\PSoC4/TIMER.c **** *
 551:Generated_Source\PSoC4/TIMER.c **** *******************************************************************************/
 552:Generated_Source\PSoC4/TIMER.c **** void TIMER_SetPWMDeadTime(uint32 deadTime)
 553:Generated_Source\PSoC4/TIMER.c **** {
 655              		.loc 1 553 0
 656              		.cfi_startproc
 657              		@ args = 0, pretend = 0, frame = 16
 658              		@ frame_needed = 1, uses_anonymous_args = 0
 659 0000 90B5     		push	{r4, r7, lr}
 660              		.cfi_def_cfa_offset 12
 661              		.cfi_offset 4, -12
 662              		.cfi_offset 7, -8
 663              		.cfi_offset 14, -4
 664 0002 85B0     		sub	sp, sp, #20
 665              		.cfi_def_cfa_offset 32
 666 0004 00AF     		add	r7, sp, #0
 667              		.cfi_def_cfa_register 7
 668 0006 7860     		str	r0, [r7, #4]
 554:Generated_Source\PSoC4/TIMER.c ****     uint8 enableInterrupts;
 555:Generated_Source\PSoC4/TIMER.c **** 
 556:Generated_Source\PSoC4/TIMER.c ****     enableInterrupts = CyEnterCriticalSection();
 669              		.loc 1 556 0
 670 0008 0F23     		movs	r3, #15
 671 000a FC18     		adds	r4, r7, r3
 672 000c FFF7FEFF 		bl	CyEnterCriticalSection
 673 0010 0300     		movs	r3, r0
 674 0012 2370     		strb	r3, [r4]
 557:Generated_Source\PSoC4/TIMER.c **** 
 558:Generated_Source\PSoC4/TIMER.c ****     TIMER_CONTROL_REG &= (uint32)~TIMER_PRESCALER_MASK;
 675              		.loc 1 558 0
 676 0014 0C4B     		ldr	r3, .L36
 677 0016 0C4A     		ldr	r2, .L36
 678 0018 1268     		ldr	r2, [r2]
 679 001a 0C49     		ldr	r1, .L36+4
 680 001c 0A40     		ands	r2, r1
 681 001e 1A60     		str	r2, [r3]
 559:Generated_Source\PSoC4/TIMER.c ****     TIMER_CONTROL_REG |= ((uint32)((deadTime & TIMER_8BIT_MASK) <<
 682              		.loc 1 559 0
 683 0020 094B     		ldr	r3, .L36
 684 0022 094A     		ldr	r2, .L36
 685 0024 1168     		ldr	r1, [r2]
 686 0026 7A68     		ldr	r2, [r7, #4]
 687 0028 1202     		lsls	r2, r2, #8
 688 002a 1204     		lsls	r2, r2, #16
 689 002c 120C     		lsrs	r2, r2, #16
 690 002e 0A43     		orrs	r2, r1
 691 0030 1A60     		str	r2, [r3]
 560:Generated_Source\PSoC4/TIMER.c ****                                                           TIMER_PRESCALER_SHIFT));
 561:Generated_Source\PSoC4/TIMER.c **** 
 562:Generated_Source\PSoC4/TIMER.c ****     CyExitCriticalSection(enableInterrupts);
 692              		.loc 1 562 0
ARM GAS  C:\Users\ELEASO~1\AppData\Local\Temp\cc1j55VZ.s 			page 23


 693 0032 0F23     		movs	r3, #15
 694 0034 FB18     		adds	r3, r7, r3
 695 0036 1B78     		ldrb	r3, [r3]
 696 0038 1800     		movs	r0, r3
 697 003a FFF7FEFF 		bl	CyExitCriticalSection
 563:Generated_Source\PSoC4/TIMER.c **** }
 698              		.loc 1 563 0
 699 003e C046     		nop
 700 0040 BD46     		mov	sp, r7
 701 0042 05B0     		add	sp, sp, #20
 702              		@ sp needed
 703 0044 90BD     		pop	{r4, r7, pc}
 704              	.L37:
 705 0046 C046     		.align	2
 706              	.L36:
 707 0048 00012040 		.word	1075839232
 708 004c FF00FFFF 		.word	-65281
 709              		.cfi_endproc
 710              	.LFE13:
 711              		.size	TIMER_SetPWMDeadTime, .-TIMER_SetPWMDeadTime
 712              		.section	.text.TIMER_SetPWMInvert,"ax",%progbits
 713              		.align	2
 714              		.global	TIMER_SetPWMInvert
 715              		.code	16
 716              		.thumb_func
 717              		.type	TIMER_SetPWMInvert, %function
 718              	TIMER_SetPWMInvert:
 719              	.LFB14:
 564:Generated_Source\PSoC4/TIMER.c **** 
 565:Generated_Source\PSoC4/TIMER.c **** 
 566:Generated_Source\PSoC4/TIMER.c **** /*******************************************************************************
 567:Generated_Source\PSoC4/TIMER.c **** * Function Name: TIMER_SetPWMInvert
 568:Generated_Source\PSoC4/TIMER.c **** ********************************************************************************
 569:Generated_Source\PSoC4/TIMER.c **** *
 570:Generated_Source\PSoC4/TIMER.c **** * Summary:
 571:Generated_Source\PSoC4/TIMER.c **** *  Writes the bits that control whether the line and line_n outputs are
 572:Generated_Source\PSoC4/TIMER.c **** *  inverted from their normal output values.  This functionality is only
 573:Generated_Source\PSoC4/TIMER.c **** *  applicable to the three PWM modes.
 574:Generated_Source\PSoC4/TIMER.c **** *
 575:Generated_Source\PSoC4/TIMER.c **** * Parameters:
 576:Generated_Source\PSoC4/TIMER.c **** *  mask: Mask of outputs to invert.
 577:Generated_Source\PSoC4/TIMER.c **** *   Values:
 578:Generated_Source\PSoC4/TIMER.c **** *         - TIMER_INVERT_LINE   - Inverts the line output
 579:Generated_Source\PSoC4/TIMER.c **** *         - TIMER_INVERT_LINE_N - Inverts the line_n output
 580:Generated_Source\PSoC4/TIMER.c **** *
 581:Generated_Source\PSoC4/TIMER.c **** * Return:
 582:Generated_Source\PSoC4/TIMER.c **** *  None
 583:Generated_Source\PSoC4/TIMER.c **** *
 584:Generated_Source\PSoC4/TIMER.c **** *******************************************************************************/
 585:Generated_Source\PSoC4/TIMER.c **** void TIMER_SetPWMInvert(uint32 mask)
 586:Generated_Source\PSoC4/TIMER.c **** {
 720              		.loc 1 586 0
 721              		.cfi_startproc
 722              		@ args = 0, pretend = 0, frame = 16
 723              		@ frame_needed = 1, uses_anonymous_args = 0
 724 0000 90B5     		push	{r4, r7, lr}
 725              		.cfi_def_cfa_offset 12
ARM GAS  C:\Users\ELEASO~1\AppData\Local\Temp\cc1j55VZ.s 			page 24


 726              		.cfi_offset 4, -12
 727              		.cfi_offset 7, -8
 728              		.cfi_offset 14, -4
 729 0002 85B0     		sub	sp, sp, #20
 730              		.cfi_def_cfa_offset 32
 731 0004 00AF     		add	r7, sp, #0
 732              		.cfi_def_cfa_register 7
 733 0006 7860     		str	r0, [r7, #4]
 587:Generated_Source\PSoC4/TIMER.c ****     uint8 enableInterrupts;
 588:Generated_Source\PSoC4/TIMER.c **** 
 589:Generated_Source\PSoC4/TIMER.c ****     enableInterrupts = CyEnterCriticalSection();
 734              		.loc 1 589 0
 735 0008 0F23     		movs	r3, #15
 736 000a FC18     		adds	r4, r7, r3
 737 000c FFF7FEFF 		bl	CyEnterCriticalSection
 738 0010 0300     		movs	r3, r0
 739 0012 2370     		strb	r3, [r4]
 590:Generated_Source\PSoC4/TIMER.c **** 
 591:Generated_Source\PSoC4/TIMER.c ****     TIMER_CONTROL_REG &= (uint32)~TIMER_INV_OUT_MASK;
 740              		.loc 1 591 0
 741 0014 0A4B     		ldr	r3, .L39
 742 0016 0A4A     		ldr	r2, .L39
 743 0018 1268     		ldr	r2, [r2]
 744 001a 0A49     		ldr	r1, .L39+4
 745 001c 0A40     		ands	r2, r1
 746 001e 1A60     		str	r2, [r3]
 592:Generated_Source\PSoC4/TIMER.c ****     TIMER_CONTROL_REG |= mask;
 747              		.loc 1 592 0
 748 0020 074B     		ldr	r3, .L39
 749 0022 074A     		ldr	r2, .L39
 750 0024 1168     		ldr	r1, [r2]
 751 0026 7A68     		ldr	r2, [r7, #4]
 752 0028 0A43     		orrs	r2, r1
 753 002a 1A60     		str	r2, [r3]
 593:Generated_Source\PSoC4/TIMER.c **** 
 594:Generated_Source\PSoC4/TIMER.c ****     CyExitCriticalSection(enableInterrupts);
 754              		.loc 1 594 0
 755 002c 0F23     		movs	r3, #15
 756 002e FB18     		adds	r3, r7, r3
 757 0030 1B78     		ldrb	r3, [r3]
 758 0032 1800     		movs	r0, r3
 759 0034 FFF7FEFF 		bl	CyExitCriticalSection
 595:Generated_Source\PSoC4/TIMER.c **** }
 760              		.loc 1 595 0
 761 0038 C046     		nop
 762 003a BD46     		mov	sp, r7
 763 003c 05B0     		add	sp, sp, #20
 764              		@ sp needed
 765 003e 90BD     		pop	{r4, r7, pc}
 766              	.L40:
 767              		.align	2
 768              	.L39:
 769 0040 00012040 		.word	1075839232
 770 0044 FFFFCFFF 		.word	-3145729
 771              		.cfi_endproc
 772              	.LFE14:
 773              		.size	TIMER_SetPWMInvert, .-TIMER_SetPWMInvert
ARM GAS  C:\Users\ELEASO~1\AppData\Local\Temp\cc1j55VZ.s 			page 25


 774              		.section	.text.TIMER_WriteCounter,"ax",%progbits
 775              		.align	2
 776              		.global	TIMER_WriteCounter
 777              		.code	16
 778              		.thumb_func
 779              		.type	TIMER_WriteCounter, %function
 780              	TIMER_WriteCounter:
 781              	.LFB15:
 596:Generated_Source\PSoC4/TIMER.c **** 
 597:Generated_Source\PSoC4/TIMER.c **** 
 598:Generated_Source\PSoC4/TIMER.c **** 
 599:Generated_Source\PSoC4/TIMER.c **** /*******************************************************************************
 600:Generated_Source\PSoC4/TIMER.c **** * Function Name: TIMER_WriteCounter
 601:Generated_Source\PSoC4/TIMER.c **** ********************************************************************************
 602:Generated_Source\PSoC4/TIMER.c **** *
 603:Generated_Source\PSoC4/TIMER.c **** * Summary:
 604:Generated_Source\PSoC4/TIMER.c **** *  Writes a new 16bit counter value directly into the counter register, thus
 605:Generated_Source\PSoC4/TIMER.c **** *  setting the counter (not the period) to the value written. It is not
 606:Generated_Source\PSoC4/TIMER.c **** *  advised to write to this field when the counter is running.
 607:Generated_Source\PSoC4/TIMER.c **** *
 608:Generated_Source\PSoC4/TIMER.c **** * Parameters:
 609:Generated_Source\PSoC4/TIMER.c **** *  count: value to write
 610:Generated_Source\PSoC4/TIMER.c **** *
 611:Generated_Source\PSoC4/TIMER.c **** * Return:
 612:Generated_Source\PSoC4/TIMER.c **** *  None
 613:Generated_Source\PSoC4/TIMER.c **** *
 614:Generated_Source\PSoC4/TIMER.c **** *******************************************************************************/
 615:Generated_Source\PSoC4/TIMER.c **** void TIMER_WriteCounter(uint32 count)
 616:Generated_Source\PSoC4/TIMER.c **** {
 782              		.loc 1 616 0
 783              		.cfi_startproc
 784              		@ args = 0, pretend = 0, frame = 8
 785              		@ frame_needed = 1, uses_anonymous_args = 0
 786 0000 80B5     		push	{r7, lr}
 787              		.cfi_def_cfa_offset 8
 788              		.cfi_offset 7, -8
 789              		.cfi_offset 14, -4
 790 0002 82B0     		sub	sp, sp, #8
 791              		.cfi_def_cfa_offset 16
 792 0004 00AF     		add	r7, sp, #0
 793              		.cfi_def_cfa_register 7
 794 0006 7860     		str	r0, [r7, #4]
 617:Generated_Source\PSoC4/TIMER.c ****     TIMER_COUNTER_REG = (count & TIMER_16BIT_MASK);
 795              		.loc 1 617 0
 796 0008 044B     		ldr	r3, .L42
 797 000a 7A68     		ldr	r2, [r7, #4]
 798 000c 1204     		lsls	r2, r2, #16
 799 000e 120C     		lsrs	r2, r2, #16
 800 0010 1A60     		str	r2, [r3]
 618:Generated_Source\PSoC4/TIMER.c **** }
 801              		.loc 1 618 0
 802 0012 C046     		nop
 803 0014 BD46     		mov	sp, r7
 804 0016 02B0     		add	sp, sp, #8
 805              		@ sp needed
 806 0018 80BD     		pop	{r7, pc}
 807              	.L43:
ARM GAS  C:\Users\ELEASO~1\AppData\Local\Temp\cc1j55VZ.s 			page 26


 808 001a C046     		.align	2
 809              	.L42:
 810 001c 08012040 		.word	1075839240
 811              		.cfi_endproc
 812              	.LFE15:
 813              		.size	TIMER_WriteCounter, .-TIMER_WriteCounter
 814              		.section	.text.TIMER_ReadCounter,"ax",%progbits
 815              		.align	2
 816              		.global	TIMER_ReadCounter
 817              		.code	16
 818              		.thumb_func
 819              		.type	TIMER_ReadCounter, %function
 820              	TIMER_ReadCounter:
 821              	.LFB16:
 619:Generated_Source\PSoC4/TIMER.c **** 
 620:Generated_Source\PSoC4/TIMER.c **** 
 621:Generated_Source\PSoC4/TIMER.c **** /*******************************************************************************
 622:Generated_Source\PSoC4/TIMER.c **** * Function Name: TIMER_ReadCounter
 623:Generated_Source\PSoC4/TIMER.c **** ********************************************************************************
 624:Generated_Source\PSoC4/TIMER.c **** *
 625:Generated_Source\PSoC4/TIMER.c **** * Summary:
 626:Generated_Source\PSoC4/TIMER.c **** *  Reads the current counter value.
 627:Generated_Source\PSoC4/TIMER.c **** *
 628:Generated_Source\PSoC4/TIMER.c **** * Parameters:
 629:Generated_Source\PSoC4/TIMER.c **** *  None
 630:Generated_Source\PSoC4/TIMER.c **** *
 631:Generated_Source\PSoC4/TIMER.c **** * Return:
 632:Generated_Source\PSoC4/TIMER.c **** *  Current counter value
 633:Generated_Source\PSoC4/TIMER.c **** *
 634:Generated_Source\PSoC4/TIMER.c **** *******************************************************************************/
 635:Generated_Source\PSoC4/TIMER.c **** uint32 TIMER_ReadCounter(void)
 636:Generated_Source\PSoC4/TIMER.c **** {
 822              		.loc 1 636 0
 823              		.cfi_startproc
 824              		@ args = 0, pretend = 0, frame = 0
 825              		@ frame_needed = 1, uses_anonymous_args = 0
 826 0000 80B5     		push	{r7, lr}
 827              		.cfi_def_cfa_offset 8
 828              		.cfi_offset 7, -8
 829              		.cfi_offset 14, -4
 830 0002 00AF     		add	r7, sp, #0
 831              		.cfi_def_cfa_register 7
 637:Generated_Source\PSoC4/TIMER.c ****     return (TIMER_COUNTER_REG & TIMER_16BIT_MASK);
 832              		.loc 1 637 0
 833 0004 034B     		ldr	r3, .L46
 834 0006 1B68     		ldr	r3, [r3]
 835 0008 1B04     		lsls	r3, r3, #16
 836 000a 1B0C     		lsrs	r3, r3, #16
 638:Generated_Source\PSoC4/TIMER.c **** }
 837              		.loc 1 638 0
 838 000c 1800     		movs	r0, r3
 839 000e BD46     		mov	sp, r7
 840              		@ sp needed
 841 0010 80BD     		pop	{r7, pc}
 842              	.L47:
 843 0012 C046     		.align	2
 844              	.L46:
ARM GAS  C:\Users\ELEASO~1\AppData\Local\Temp\cc1j55VZ.s 			page 27


 845 0014 08012040 		.word	1075839240
 846              		.cfi_endproc
 847              	.LFE16:
 848              		.size	TIMER_ReadCounter, .-TIMER_ReadCounter
 849              		.section	.text.TIMER_SetCounterMode,"ax",%progbits
 850              		.align	2
 851              		.global	TIMER_SetCounterMode
 852              		.code	16
 853              		.thumb_func
 854              		.type	TIMER_SetCounterMode, %function
 855              	TIMER_SetCounterMode:
 856              	.LFB17:
 639:Generated_Source\PSoC4/TIMER.c **** 
 640:Generated_Source\PSoC4/TIMER.c **** 
 641:Generated_Source\PSoC4/TIMER.c **** /*******************************************************************************
 642:Generated_Source\PSoC4/TIMER.c **** * Function Name: TIMER_SetCounterMode
 643:Generated_Source\PSoC4/TIMER.c **** ********************************************************************************
 644:Generated_Source\PSoC4/TIMER.c **** *
 645:Generated_Source\PSoC4/TIMER.c **** * Summary:
 646:Generated_Source\PSoC4/TIMER.c **** *  Sets the counter mode.  Applicable to all modes except Quadrature Decoder
 647:Generated_Source\PSoC4/TIMER.c **** *  and the PWM with a pseudo random output.
 648:Generated_Source\PSoC4/TIMER.c **** *
 649:Generated_Source\PSoC4/TIMER.c **** * Parameters:
 650:Generated_Source\PSoC4/TIMER.c **** *  counterMode: Enumerated counter type values
 651:Generated_Source\PSoC4/TIMER.c **** *   Values:
 652:Generated_Source\PSoC4/TIMER.c **** *     - TIMER_COUNT_UP       - Counts up
 653:Generated_Source\PSoC4/TIMER.c **** *     - TIMER_COUNT_DOWN     - Counts down
 654:Generated_Source\PSoC4/TIMER.c **** *     - TIMER_COUNT_UPDOWN0  - Counts up and down. Terminal count
 655:Generated_Source\PSoC4/TIMER.c **** *                                         generated when counter reaches 0
 656:Generated_Source\PSoC4/TIMER.c **** *     - TIMER_COUNT_UPDOWN1  - Counts up and down. Terminal count
 657:Generated_Source\PSoC4/TIMER.c **** *                                         generated both when counter reaches 0
 658:Generated_Source\PSoC4/TIMER.c **** *                                         and period
 659:Generated_Source\PSoC4/TIMER.c **** *
 660:Generated_Source\PSoC4/TIMER.c **** * Return:
 661:Generated_Source\PSoC4/TIMER.c **** *  None
 662:Generated_Source\PSoC4/TIMER.c **** *
 663:Generated_Source\PSoC4/TIMER.c **** *******************************************************************************/
 664:Generated_Source\PSoC4/TIMER.c **** void TIMER_SetCounterMode(uint32 counterMode)
 665:Generated_Source\PSoC4/TIMER.c **** {
 857              		.loc 1 665 0
 858              		.cfi_startproc
 859              		@ args = 0, pretend = 0, frame = 16
 860              		@ frame_needed = 1, uses_anonymous_args = 0
 861 0000 90B5     		push	{r4, r7, lr}
 862              		.cfi_def_cfa_offset 12
 863              		.cfi_offset 4, -12
 864              		.cfi_offset 7, -8
 865              		.cfi_offset 14, -4
 866 0002 85B0     		sub	sp, sp, #20
 867              		.cfi_def_cfa_offset 32
 868 0004 00AF     		add	r7, sp, #0
 869              		.cfi_def_cfa_register 7
 870 0006 7860     		str	r0, [r7, #4]
 666:Generated_Source\PSoC4/TIMER.c ****     uint8 enableInterrupts;
 667:Generated_Source\PSoC4/TIMER.c **** 
 668:Generated_Source\PSoC4/TIMER.c ****     enableInterrupts = CyEnterCriticalSection();
 871              		.loc 1 668 0
ARM GAS  C:\Users\ELEASO~1\AppData\Local\Temp\cc1j55VZ.s 			page 28


 872 0008 0F23     		movs	r3, #15
 873 000a FC18     		adds	r4, r7, r3
 874 000c FFF7FEFF 		bl	CyEnterCriticalSection
 875 0010 0300     		movs	r3, r0
 876 0012 2370     		strb	r3, [r4]
 669:Generated_Source\PSoC4/TIMER.c **** 
 670:Generated_Source\PSoC4/TIMER.c ****     TIMER_CONTROL_REG &= (uint32)~TIMER_UPDOWN_MASK;
 877              		.loc 1 670 0
 878 0014 0A4B     		ldr	r3, .L49
 879 0016 0A4A     		ldr	r2, .L49
 880 0018 1268     		ldr	r2, [r2]
 881 001a 0A49     		ldr	r1, .L49+4
 882 001c 0A40     		ands	r2, r1
 883 001e 1A60     		str	r2, [r3]
 671:Generated_Source\PSoC4/TIMER.c ****     TIMER_CONTROL_REG |= counterMode;
 884              		.loc 1 671 0
 885 0020 074B     		ldr	r3, .L49
 886 0022 074A     		ldr	r2, .L49
 887 0024 1168     		ldr	r1, [r2]
 888 0026 7A68     		ldr	r2, [r7, #4]
 889 0028 0A43     		orrs	r2, r1
 890 002a 1A60     		str	r2, [r3]
 672:Generated_Source\PSoC4/TIMER.c **** 
 673:Generated_Source\PSoC4/TIMER.c ****     CyExitCriticalSection(enableInterrupts);
 891              		.loc 1 673 0
 892 002c 0F23     		movs	r3, #15
 893 002e FB18     		adds	r3, r7, r3
 894 0030 1B78     		ldrb	r3, [r3]
 895 0032 1800     		movs	r0, r3
 896 0034 FFF7FEFF 		bl	CyExitCriticalSection
 674:Generated_Source\PSoC4/TIMER.c **** }
 897              		.loc 1 674 0
 898 0038 C046     		nop
 899 003a BD46     		mov	sp, r7
 900 003c 05B0     		add	sp, sp, #20
 901              		@ sp needed
 902 003e 90BD     		pop	{r4, r7, pc}
 903              	.L50:
 904              		.align	2
 905              	.L49:
 906 0040 00012040 		.word	1075839232
 907 0044 FFFFFCFF 		.word	-196609
 908              		.cfi_endproc
 909              	.LFE17:
 910              		.size	TIMER_SetCounterMode, .-TIMER_SetCounterMode
 911              		.section	.text.TIMER_WritePeriod,"ax",%progbits
 912              		.align	2
 913              		.global	TIMER_WritePeriod
 914              		.code	16
 915              		.thumb_func
 916              		.type	TIMER_WritePeriod, %function
 917              	TIMER_WritePeriod:
 918              	.LFB18:
 675:Generated_Source\PSoC4/TIMER.c **** 
 676:Generated_Source\PSoC4/TIMER.c **** 
 677:Generated_Source\PSoC4/TIMER.c **** /*******************************************************************************
 678:Generated_Source\PSoC4/TIMER.c **** * Function Name: TIMER_WritePeriod
ARM GAS  C:\Users\ELEASO~1\AppData\Local\Temp\cc1j55VZ.s 			page 29


 679:Generated_Source\PSoC4/TIMER.c **** ********************************************************************************
 680:Generated_Source\PSoC4/TIMER.c **** *
 681:Generated_Source\PSoC4/TIMER.c **** * Summary:
 682:Generated_Source\PSoC4/TIMER.c **** *  Writes the 16 bit period register with the new period value.
 683:Generated_Source\PSoC4/TIMER.c **** *  To cause the counter to count for N cycles this register should be written
 684:Generated_Source\PSoC4/TIMER.c **** *  with N-1 (counts from 0 to period inclusive).
 685:Generated_Source\PSoC4/TIMER.c **** *
 686:Generated_Source\PSoC4/TIMER.c **** * Parameters:
 687:Generated_Source\PSoC4/TIMER.c **** *  period: Period value
 688:Generated_Source\PSoC4/TIMER.c **** *
 689:Generated_Source\PSoC4/TIMER.c **** * Return:
 690:Generated_Source\PSoC4/TIMER.c **** *  None
 691:Generated_Source\PSoC4/TIMER.c **** *
 692:Generated_Source\PSoC4/TIMER.c **** *******************************************************************************/
 693:Generated_Source\PSoC4/TIMER.c **** void TIMER_WritePeriod(uint32 period)
 694:Generated_Source\PSoC4/TIMER.c **** {
 919              		.loc 1 694 0
 920              		.cfi_startproc
 921              		@ args = 0, pretend = 0, frame = 8
 922              		@ frame_needed = 1, uses_anonymous_args = 0
 923 0000 80B5     		push	{r7, lr}
 924              		.cfi_def_cfa_offset 8
 925              		.cfi_offset 7, -8
 926              		.cfi_offset 14, -4
 927 0002 82B0     		sub	sp, sp, #8
 928              		.cfi_def_cfa_offset 16
 929 0004 00AF     		add	r7, sp, #0
 930              		.cfi_def_cfa_register 7
 931 0006 7860     		str	r0, [r7, #4]
 695:Generated_Source\PSoC4/TIMER.c ****     TIMER_PERIOD_REG = (period & TIMER_16BIT_MASK);
 932              		.loc 1 695 0
 933 0008 044B     		ldr	r3, .L52
 934 000a 7A68     		ldr	r2, [r7, #4]
 935 000c 1204     		lsls	r2, r2, #16
 936 000e 120C     		lsrs	r2, r2, #16
 937 0010 1A60     		str	r2, [r3]
 696:Generated_Source\PSoC4/TIMER.c **** }
 938              		.loc 1 696 0
 939 0012 C046     		nop
 940 0014 BD46     		mov	sp, r7
 941 0016 02B0     		add	sp, sp, #8
 942              		@ sp needed
 943 0018 80BD     		pop	{r7, pc}
 944              	.L53:
 945 001a C046     		.align	2
 946              	.L52:
 947 001c 14012040 		.word	1075839252
 948              		.cfi_endproc
 949              	.LFE18:
 950              		.size	TIMER_WritePeriod, .-TIMER_WritePeriod
 951              		.section	.text.TIMER_ReadPeriod,"ax",%progbits
 952              		.align	2
 953              		.global	TIMER_ReadPeriod
 954              		.code	16
 955              		.thumb_func
 956              		.type	TIMER_ReadPeriod, %function
 957              	TIMER_ReadPeriod:
ARM GAS  C:\Users\ELEASO~1\AppData\Local\Temp\cc1j55VZ.s 			page 30


 958              	.LFB19:
 697:Generated_Source\PSoC4/TIMER.c **** 
 698:Generated_Source\PSoC4/TIMER.c **** 
 699:Generated_Source\PSoC4/TIMER.c **** /*******************************************************************************
 700:Generated_Source\PSoC4/TIMER.c **** * Function Name: TIMER_ReadPeriod
 701:Generated_Source\PSoC4/TIMER.c **** ********************************************************************************
 702:Generated_Source\PSoC4/TIMER.c **** *
 703:Generated_Source\PSoC4/TIMER.c **** * Summary:
 704:Generated_Source\PSoC4/TIMER.c **** *  Reads the 16 bit period register.
 705:Generated_Source\PSoC4/TIMER.c **** *
 706:Generated_Source\PSoC4/TIMER.c **** * Parameters:
 707:Generated_Source\PSoC4/TIMER.c **** *  None
 708:Generated_Source\PSoC4/TIMER.c **** *
 709:Generated_Source\PSoC4/TIMER.c **** * Return:
 710:Generated_Source\PSoC4/TIMER.c **** *  Period value
 711:Generated_Source\PSoC4/TIMER.c **** *
 712:Generated_Source\PSoC4/TIMER.c **** *******************************************************************************/
 713:Generated_Source\PSoC4/TIMER.c **** uint32 TIMER_ReadPeriod(void)
 714:Generated_Source\PSoC4/TIMER.c **** {
 959              		.loc 1 714 0
 960              		.cfi_startproc
 961              		@ args = 0, pretend = 0, frame = 0
 962              		@ frame_needed = 1, uses_anonymous_args = 0
 963 0000 80B5     		push	{r7, lr}
 964              		.cfi_def_cfa_offset 8
 965              		.cfi_offset 7, -8
 966              		.cfi_offset 14, -4
 967 0002 00AF     		add	r7, sp, #0
 968              		.cfi_def_cfa_register 7
 715:Generated_Source\PSoC4/TIMER.c ****     return (TIMER_PERIOD_REG & TIMER_16BIT_MASK);
 969              		.loc 1 715 0
 970 0004 034B     		ldr	r3, .L56
 971 0006 1B68     		ldr	r3, [r3]
 972 0008 1B04     		lsls	r3, r3, #16
 973 000a 1B0C     		lsrs	r3, r3, #16
 716:Generated_Source\PSoC4/TIMER.c **** }
 974              		.loc 1 716 0
 975 000c 1800     		movs	r0, r3
 976 000e BD46     		mov	sp, r7
 977              		@ sp needed
 978 0010 80BD     		pop	{r7, pc}
 979              	.L57:
 980 0012 C046     		.align	2
 981              	.L56:
 982 0014 14012040 		.word	1075839252
 983              		.cfi_endproc
 984              	.LFE19:
 985              		.size	TIMER_ReadPeriod, .-TIMER_ReadPeriod
 986              		.section	.text.TIMER_SetCompareSwap,"ax",%progbits
 987              		.align	2
 988              		.global	TIMER_SetCompareSwap
 989              		.code	16
 990              		.thumb_func
 991              		.type	TIMER_SetCompareSwap, %function
 992              	TIMER_SetCompareSwap:
 993              	.LFB20:
 717:Generated_Source\PSoC4/TIMER.c **** 
ARM GAS  C:\Users\ELEASO~1\AppData\Local\Temp\cc1j55VZ.s 			page 31


 718:Generated_Source\PSoC4/TIMER.c **** 
 719:Generated_Source\PSoC4/TIMER.c **** /*******************************************************************************
 720:Generated_Source\PSoC4/TIMER.c **** * Function Name: TIMER_SetCompareSwap
 721:Generated_Source\PSoC4/TIMER.c **** ********************************************************************************
 722:Generated_Source\PSoC4/TIMER.c **** *
 723:Generated_Source\PSoC4/TIMER.c **** * Summary:
 724:Generated_Source\PSoC4/TIMER.c **** *  Writes the register that controls whether the compare registers are
 725:Generated_Source\PSoC4/TIMER.c **** *  swapped. When enabled in the Timer/Counter mode(without capture) the swap
 726:Generated_Source\PSoC4/TIMER.c **** *  occurs at a TC event. In the PWM mode the swap occurs at the next TC event
 727:Generated_Source\PSoC4/TIMER.c **** *  following a hardware switch event.
 728:Generated_Source\PSoC4/TIMER.c **** *
 729:Generated_Source\PSoC4/TIMER.c **** * Parameters:
 730:Generated_Source\PSoC4/TIMER.c **** *  swapEnable
 731:Generated_Source\PSoC4/TIMER.c **** *   Values:
 732:Generated_Source\PSoC4/TIMER.c **** *     - 0 - Disable swap
 733:Generated_Source\PSoC4/TIMER.c **** *     - 1 - Enable swap
 734:Generated_Source\PSoC4/TIMER.c **** *
 735:Generated_Source\PSoC4/TIMER.c **** * Return:
 736:Generated_Source\PSoC4/TIMER.c **** *  None
 737:Generated_Source\PSoC4/TIMER.c **** *
 738:Generated_Source\PSoC4/TIMER.c **** *******************************************************************************/
 739:Generated_Source\PSoC4/TIMER.c **** void TIMER_SetCompareSwap(uint32 swapEnable)
 740:Generated_Source\PSoC4/TIMER.c **** {
 994              		.loc 1 740 0
 995              		.cfi_startproc
 996              		@ args = 0, pretend = 0, frame = 16
 997              		@ frame_needed = 1, uses_anonymous_args = 0
 998 0000 90B5     		push	{r4, r7, lr}
 999              		.cfi_def_cfa_offset 12
 1000              		.cfi_offset 4, -12
 1001              		.cfi_offset 7, -8
 1002              		.cfi_offset 14, -4
 1003 0002 85B0     		sub	sp, sp, #20
 1004              		.cfi_def_cfa_offset 32
 1005 0004 00AF     		add	r7, sp, #0
 1006              		.cfi_def_cfa_register 7
 1007 0006 7860     		str	r0, [r7, #4]
 741:Generated_Source\PSoC4/TIMER.c ****     uint8 enableInterrupts;
 742:Generated_Source\PSoC4/TIMER.c **** 
 743:Generated_Source\PSoC4/TIMER.c ****     enableInterrupts = CyEnterCriticalSection();
 1008              		.loc 1 743 0
 1009 0008 0F23     		movs	r3, #15
 1010 000a FC18     		adds	r4, r7, r3
 1011 000c FFF7FEFF 		bl	CyEnterCriticalSection
 1012 0010 0300     		movs	r3, r0
 1013 0012 2370     		strb	r3, [r4]
 744:Generated_Source\PSoC4/TIMER.c **** 
 745:Generated_Source\PSoC4/TIMER.c ****     TIMER_CONTROL_REG &= (uint32)~TIMER_RELOAD_CC_MASK;
 1014              		.loc 1 745 0
 1015 0014 0B4B     		ldr	r3, .L59
 1016 0016 0B4A     		ldr	r2, .L59
 1017 0018 1268     		ldr	r2, [r2]
 1018 001a 0121     		movs	r1, #1
 1019 001c 8A43     		bics	r2, r1
 1020 001e 1A60     		str	r2, [r3]
 746:Generated_Source\PSoC4/TIMER.c ****     TIMER_CONTROL_REG |= (swapEnable & TIMER_1BIT_MASK);
 1021              		.loc 1 746 0
ARM GAS  C:\Users\ELEASO~1\AppData\Local\Temp\cc1j55VZ.s 			page 32


 1022 0020 084B     		ldr	r3, .L59
 1023 0022 084A     		ldr	r2, .L59
 1024 0024 1168     		ldr	r1, [r2]
 1025 0026 7A68     		ldr	r2, [r7, #4]
 1026 0028 0120     		movs	r0, #1
 1027 002a 0240     		ands	r2, r0
 1028 002c 0A43     		orrs	r2, r1
 1029 002e 1A60     		str	r2, [r3]
 747:Generated_Source\PSoC4/TIMER.c **** 
 748:Generated_Source\PSoC4/TIMER.c ****     CyExitCriticalSection(enableInterrupts);
 1030              		.loc 1 748 0
 1031 0030 0F23     		movs	r3, #15
 1032 0032 FB18     		adds	r3, r7, r3
 1033 0034 1B78     		ldrb	r3, [r3]
 1034 0036 1800     		movs	r0, r3
 1035 0038 FFF7FEFF 		bl	CyExitCriticalSection
 749:Generated_Source\PSoC4/TIMER.c **** }
 1036              		.loc 1 749 0
 1037 003c C046     		nop
 1038 003e BD46     		mov	sp, r7
 1039 0040 05B0     		add	sp, sp, #20
 1040              		@ sp needed
 1041 0042 90BD     		pop	{r4, r7, pc}
 1042              	.L60:
 1043              		.align	2
 1044              	.L59:
 1045 0044 00012040 		.word	1075839232
 1046              		.cfi_endproc
 1047              	.LFE20:
 1048              		.size	TIMER_SetCompareSwap, .-TIMER_SetCompareSwap
 1049              		.section	.text.TIMER_WritePeriodBuf,"ax",%progbits
 1050              		.align	2
 1051              		.global	TIMER_WritePeriodBuf
 1052              		.code	16
 1053              		.thumb_func
 1054              		.type	TIMER_WritePeriodBuf, %function
 1055              	TIMER_WritePeriodBuf:
 1056              	.LFB21:
 750:Generated_Source\PSoC4/TIMER.c **** 
 751:Generated_Source\PSoC4/TIMER.c **** 
 752:Generated_Source\PSoC4/TIMER.c **** /*******************************************************************************
 753:Generated_Source\PSoC4/TIMER.c **** * Function Name: TIMER_WritePeriodBuf
 754:Generated_Source\PSoC4/TIMER.c **** ********************************************************************************
 755:Generated_Source\PSoC4/TIMER.c **** *
 756:Generated_Source\PSoC4/TIMER.c **** * Summary:
 757:Generated_Source\PSoC4/TIMER.c **** *  Writes the 16 bit period buf register with the new period value.
 758:Generated_Source\PSoC4/TIMER.c **** *
 759:Generated_Source\PSoC4/TIMER.c **** * Parameters:
 760:Generated_Source\PSoC4/TIMER.c **** *  periodBuf: Period value
 761:Generated_Source\PSoC4/TIMER.c **** *
 762:Generated_Source\PSoC4/TIMER.c **** * Return:
 763:Generated_Source\PSoC4/TIMER.c **** *  None
 764:Generated_Source\PSoC4/TIMER.c **** *
 765:Generated_Source\PSoC4/TIMER.c **** *******************************************************************************/
 766:Generated_Source\PSoC4/TIMER.c **** void TIMER_WritePeriodBuf(uint32 periodBuf)
 767:Generated_Source\PSoC4/TIMER.c **** {
 1057              		.loc 1 767 0
ARM GAS  C:\Users\ELEASO~1\AppData\Local\Temp\cc1j55VZ.s 			page 33


 1058              		.cfi_startproc
 1059              		@ args = 0, pretend = 0, frame = 8
 1060              		@ frame_needed = 1, uses_anonymous_args = 0
 1061 0000 80B5     		push	{r7, lr}
 1062              		.cfi_def_cfa_offset 8
 1063              		.cfi_offset 7, -8
 1064              		.cfi_offset 14, -4
 1065 0002 82B0     		sub	sp, sp, #8
 1066              		.cfi_def_cfa_offset 16
 1067 0004 00AF     		add	r7, sp, #0
 1068              		.cfi_def_cfa_register 7
 1069 0006 7860     		str	r0, [r7, #4]
 768:Generated_Source\PSoC4/TIMER.c ****     TIMER_PERIOD_BUF_REG = (periodBuf & TIMER_16BIT_MASK);
 1070              		.loc 1 768 0
 1071 0008 044B     		ldr	r3, .L62
 1072 000a 7A68     		ldr	r2, [r7, #4]
 1073 000c 1204     		lsls	r2, r2, #16
 1074 000e 120C     		lsrs	r2, r2, #16
 1075 0010 1A60     		str	r2, [r3]
 769:Generated_Source\PSoC4/TIMER.c **** }
 1076              		.loc 1 769 0
 1077 0012 C046     		nop
 1078 0014 BD46     		mov	sp, r7
 1079 0016 02B0     		add	sp, sp, #8
 1080              		@ sp needed
 1081 0018 80BD     		pop	{r7, pc}
 1082              	.L63:
 1083 001a C046     		.align	2
 1084              	.L62:
 1085 001c 18012040 		.word	1075839256
 1086              		.cfi_endproc
 1087              	.LFE21:
 1088              		.size	TIMER_WritePeriodBuf, .-TIMER_WritePeriodBuf
 1089              		.section	.text.TIMER_ReadPeriodBuf,"ax",%progbits
 1090              		.align	2
 1091              		.global	TIMER_ReadPeriodBuf
 1092              		.code	16
 1093              		.thumb_func
 1094              		.type	TIMER_ReadPeriodBuf, %function
 1095              	TIMER_ReadPeriodBuf:
 1096              	.LFB22:
 770:Generated_Source\PSoC4/TIMER.c **** 
 771:Generated_Source\PSoC4/TIMER.c **** 
 772:Generated_Source\PSoC4/TIMER.c **** /*******************************************************************************
 773:Generated_Source\PSoC4/TIMER.c **** * Function Name: TIMER_ReadPeriodBuf
 774:Generated_Source\PSoC4/TIMER.c **** ********************************************************************************
 775:Generated_Source\PSoC4/TIMER.c **** *
 776:Generated_Source\PSoC4/TIMER.c **** * Summary:
 777:Generated_Source\PSoC4/TIMER.c **** *  Reads the 16 bit period buf register.
 778:Generated_Source\PSoC4/TIMER.c **** *
 779:Generated_Source\PSoC4/TIMER.c **** * Parameters:
 780:Generated_Source\PSoC4/TIMER.c **** *  None
 781:Generated_Source\PSoC4/TIMER.c **** *
 782:Generated_Source\PSoC4/TIMER.c **** * Return:
 783:Generated_Source\PSoC4/TIMER.c **** *  Period value
 784:Generated_Source\PSoC4/TIMER.c **** *
 785:Generated_Source\PSoC4/TIMER.c **** *******************************************************************************/
ARM GAS  C:\Users\ELEASO~1\AppData\Local\Temp\cc1j55VZ.s 			page 34


 786:Generated_Source\PSoC4/TIMER.c **** uint32 TIMER_ReadPeriodBuf(void)
 787:Generated_Source\PSoC4/TIMER.c **** {
 1097              		.loc 1 787 0
 1098              		.cfi_startproc
 1099              		@ args = 0, pretend = 0, frame = 0
 1100              		@ frame_needed = 1, uses_anonymous_args = 0
 1101 0000 80B5     		push	{r7, lr}
 1102              		.cfi_def_cfa_offset 8
 1103              		.cfi_offset 7, -8
 1104              		.cfi_offset 14, -4
 1105 0002 00AF     		add	r7, sp, #0
 1106              		.cfi_def_cfa_register 7
 788:Generated_Source\PSoC4/TIMER.c ****     return (TIMER_PERIOD_BUF_REG & TIMER_16BIT_MASK);
 1107              		.loc 1 788 0
 1108 0004 034B     		ldr	r3, .L66
 1109 0006 1B68     		ldr	r3, [r3]
 1110 0008 1B04     		lsls	r3, r3, #16
 1111 000a 1B0C     		lsrs	r3, r3, #16
 789:Generated_Source\PSoC4/TIMER.c **** }
 1112              		.loc 1 789 0
 1113 000c 1800     		movs	r0, r3
 1114 000e BD46     		mov	sp, r7
 1115              		@ sp needed
 1116 0010 80BD     		pop	{r7, pc}
 1117              	.L67:
 1118 0012 C046     		.align	2
 1119              	.L66:
 1120 0014 18012040 		.word	1075839256
 1121              		.cfi_endproc
 1122              	.LFE22:
 1123              		.size	TIMER_ReadPeriodBuf, .-TIMER_ReadPeriodBuf
 1124              		.section	.text.TIMER_SetPeriodSwap,"ax",%progbits
 1125              		.align	2
 1126              		.global	TIMER_SetPeriodSwap
 1127              		.code	16
 1128              		.thumb_func
 1129              		.type	TIMER_SetPeriodSwap, %function
 1130              	TIMER_SetPeriodSwap:
 1131              	.LFB23:
 790:Generated_Source\PSoC4/TIMER.c **** 
 791:Generated_Source\PSoC4/TIMER.c **** 
 792:Generated_Source\PSoC4/TIMER.c **** /*******************************************************************************
 793:Generated_Source\PSoC4/TIMER.c **** * Function Name: TIMER_SetPeriodSwap
 794:Generated_Source\PSoC4/TIMER.c **** ********************************************************************************
 795:Generated_Source\PSoC4/TIMER.c **** *
 796:Generated_Source\PSoC4/TIMER.c **** * Summary:
 797:Generated_Source\PSoC4/TIMER.c **** *  Writes the register that controls whether the period registers are
 798:Generated_Source\PSoC4/TIMER.c **** *  swapped. When enabled in Timer/Counter mode the swap occurs at a TC event.
 799:Generated_Source\PSoC4/TIMER.c **** *  In the PWM mode the swap occurs at the next TC event following a hardware
 800:Generated_Source\PSoC4/TIMER.c **** *  switch event.
 801:Generated_Source\PSoC4/TIMER.c **** *
 802:Generated_Source\PSoC4/TIMER.c **** * Parameters:
 803:Generated_Source\PSoC4/TIMER.c **** *  swapEnable
 804:Generated_Source\PSoC4/TIMER.c **** *   Values:
 805:Generated_Source\PSoC4/TIMER.c **** *     - 0 - Disable swap
 806:Generated_Source\PSoC4/TIMER.c **** *     - 1 - Enable swap
 807:Generated_Source\PSoC4/TIMER.c **** *
ARM GAS  C:\Users\ELEASO~1\AppData\Local\Temp\cc1j55VZ.s 			page 35


 808:Generated_Source\PSoC4/TIMER.c **** * Return:
 809:Generated_Source\PSoC4/TIMER.c **** *  None
 810:Generated_Source\PSoC4/TIMER.c **** *
 811:Generated_Source\PSoC4/TIMER.c **** *******************************************************************************/
 812:Generated_Source\PSoC4/TIMER.c **** void TIMER_SetPeriodSwap(uint32 swapEnable)
 813:Generated_Source\PSoC4/TIMER.c **** {
 1132              		.loc 1 813 0
 1133              		.cfi_startproc
 1134              		@ args = 0, pretend = 0, frame = 16
 1135              		@ frame_needed = 1, uses_anonymous_args = 0
 1136 0000 90B5     		push	{r4, r7, lr}
 1137              		.cfi_def_cfa_offset 12
 1138              		.cfi_offset 4, -12
 1139              		.cfi_offset 7, -8
 1140              		.cfi_offset 14, -4
 1141 0002 85B0     		sub	sp, sp, #20
 1142              		.cfi_def_cfa_offset 32
 1143 0004 00AF     		add	r7, sp, #0
 1144              		.cfi_def_cfa_register 7
 1145 0006 7860     		str	r0, [r7, #4]
 814:Generated_Source\PSoC4/TIMER.c ****     uint8 enableInterrupts;
 815:Generated_Source\PSoC4/TIMER.c **** 
 816:Generated_Source\PSoC4/TIMER.c ****     enableInterrupts = CyEnterCriticalSection();
 1146              		.loc 1 816 0
 1147 0008 0F23     		movs	r3, #15
 1148 000a FC18     		adds	r4, r7, r3
 1149 000c FFF7FEFF 		bl	CyEnterCriticalSection
 1150 0010 0300     		movs	r3, r0
 1151 0012 2370     		strb	r3, [r4]
 817:Generated_Source\PSoC4/TIMER.c **** 
 818:Generated_Source\PSoC4/TIMER.c ****     TIMER_CONTROL_REG &= (uint32)~TIMER_RELOAD_PERIOD_MASK;
 1152              		.loc 1 818 0
 1153 0014 0C4B     		ldr	r3, .L69
 1154 0016 0C4A     		ldr	r2, .L69
 1155 0018 1268     		ldr	r2, [r2]
 1156 001a 0221     		movs	r1, #2
 1157 001c 8A43     		bics	r2, r1
 1158 001e 1A60     		str	r2, [r3]
 819:Generated_Source\PSoC4/TIMER.c ****     TIMER_CONTROL_REG |= ((uint32)((swapEnable & TIMER_1BIT_MASK) <<
 1159              		.loc 1 819 0
 1160 0020 094B     		ldr	r3, .L69
 1161 0022 094A     		ldr	r2, .L69
 1162 0024 1168     		ldr	r1, [r2]
 1163 0026 7A68     		ldr	r2, [r7, #4]
 1164 0028 5200     		lsls	r2, r2, #1
 1165 002a 0220     		movs	r0, #2
 1166 002c 0240     		ands	r2, r0
 1167 002e 0A43     		orrs	r2, r1
 1168 0030 1A60     		str	r2, [r3]
 820:Generated_Source\PSoC4/TIMER.c ****                                                             TIMER_RELOAD_PERIOD_SHIFT));
 821:Generated_Source\PSoC4/TIMER.c **** 
 822:Generated_Source\PSoC4/TIMER.c ****     CyExitCriticalSection(enableInterrupts);
 1169              		.loc 1 822 0
 1170 0032 0F23     		movs	r3, #15
 1171 0034 FB18     		adds	r3, r7, r3
 1172 0036 1B78     		ldrb	r3, [r3]
 1173 0038 1800     		movs	r0, r3
ARM GAS  C:\Users\ELEASO~1\AppData\Local\Temp\cc1j55VZ.s 			page 36


 1174 003a FFF7FEFF 		bl	CyExitCriticalSection
 823:Generated_Source\PSoC4/TIMER.c **** }
 1175              		.loc 1 823 0
 1176 003e C046     		nop
 1177 0040 BD46     		mov	sp, r7
 1178 0042 05B0     		add	sp, sp, #20
 1179              		@ sp needed
 1180 0044 90BD     		pop	{r4, r7, pc}
 1181              	.L70:
 1182 0046 C046     		.align	2
 1183              	.L69:
 1184 0048 00012040 		.word	1075839232
 1185              		.cfi_endproc
 1186              	.LFE23:
 1187              		.size	TIMER_SetPeriodSwap, .-TIMER_SetPeriodSwap
 1188              		.section	.text.TIMER_WriteCompare,"ax",%progbits
 1189              		.align	2
 1190              		.global	TIMER_WriteCompare
 1191              		.code	16
 1192              		.thumb_func
 1193              		.type	TIMER_WriteCompare, %function
 1194              	TIMER_WriteCompare:
 1195              	.LFB24:
 824:Generated_Source\PSoC4/TIMER.c **** 
 825:Generated_Source\PSoC4/TIMER.c **** 
 826:Generated_Source\PSoC4/TIMER.c **** /*******************************************************************************
 827:Generated_Source\PSoC4/TIMER.c **** * Function Name: TIMER_WriteCompare
 828:Generated_Source\PSoC4/TIMER.c **** ********************************************************************************
 829:Generated_Source\PSoC4/TIMER.c **** *
 830:Generated_Source\PSoC4/TIMER.c **** * Summary:
 831:Generated_Source\PSoC4/TIMER.c **** *  Writes the 16 bit compare register with the new compare value. Not
 832:Generated_Source\PSoC4/TIMER.c **** *  applicable for Timer/Counter with Capture or in Quadrature Decoder modes.
 833:Generated_Source\PSoC4/TIMER.c **** *
 834:Generated_Source\PSoC4/TIMER.c **** * Parameters:
 835:Generated_Source\PSoC4/TIMER.c **** *  compare: Compare value
 836:Generated_Source\PSoC4/TIMER.c **** *
 837:Generated_Source\PSoC4/TIMER.c **** * Return:
 838:Generated_Source\PSoC4/TIMER.c **** *  None
 839:Generated_Source\PSoC4/TIMER.c **** *
 840:Generated_Source\PSoC4/TIMER.c **** * Note:
 841:Generated_Source\PSoC4/TIMER.c **** *  It is not recommended to use the value equal to "0" or equal to 
 842:Generated_Source\PSoC4/TIMER.c **** *  "period value" in Center or Asymmetric align PWM modes on the 
 843:Generated_Source\PSoC4/TIMER.c **** *  PSoC 4100/PSoC 4200 devices.
 844:Generated_Source\PSoC4/TIMER.c **** *  PSoC 4000 devices write the 16 bit compare register with the decremented 
 845:Generated_Source\PSoC4/TIMER.c **** *  compare value in the Up counting mode (except 0x0u), and the incremented 
 846:Generated_Source\PSoC4/TIMER.c **** *  compare value in the Down counting mode (except 0xFFFFu).
 847:Generated_Source\PSoC4/TIMER.c **** *
 848:Generated_Source\PSoC4/TIMER.c **** *******************************************************************************/
 849:Generated_Source\PSoC4/TIMER.c **** void TIMER_WriteCompare(uint32 compare)
 850:Generated_Source\PSoC4/TIMER.c **** {
 1196              		.loc 1 850 0
 1197              		.cfi_startproc
 1198              		@ args = 0, pretend = 0, frame = 8
 1199              		@ frame_needed = 1, uses_anonymous_args = 0
 1200 0000 80B5     		push	{r7, lr}
 1201              		.cfi_def_cfa_offset 8
 1202              		.cfi_offset 7, -8
ARM GAS  C:\Users\ELEASO~1\AppData\Local\Temp\cc1j55VZ.s 			page 37


 1203              		.cfi_offset 14, -4
 1204 0002 82B0     		sub	sp, sp, #8
 1205              		.cfi_def_cfa_offset 16
 1206 0004 00AF     		add	r7, sp, #0
 1207              		.cfi_def_cfa_register 7
 1208 0006 7860     		str	r0, [r7, #4]
 851:Generated_Source\PSoC4/TIMER.c ****     #if (TIMER_CY_TCPWM_4000)
 852:Generated_Source\PSoC4/TIMER.c ****         uint32 currentMode;
 853:Generated_Source\PSoC4/TIMER.c ****     #endif /* (TIMER_CY_TCPWM_4000) */
 854:Generated_Source\PSoC4/TIMER.c **** 
 855:Generated_Source\PSoC4/TIMER.c ****     #if (TIMER_CY_TCPWM_4000)
 856:Generated_Source\PSoC4/TIMER.c ****         currentMode = ((TIMER_CONTROL_REG & TIMER_UPDOWN_MASK) >> TIMER_UPDOWN_SHIFT);
 857:Generated_Source\PSoC4/TIMER.c **** 
 858:Generated_Source\PSoC4/TIMER.c ****         if (((uint32)TIMER__COUNT_DOWN == currentMode) && (0xFFFFu != compare))
 859:Generated_Source\PSoC4/TIMER.c ****         {
 860:Generated_Source\PSoC4/TIMER.c ****             compare++;
 861:Generated_Source\PSoC4/TIMER.c ****         }
 862:Generated_Source\PSoC4/TIMER.c ****         else if (((uint32)TIMER__COUNT_UP == currentMode) && (0u != compare))
 863:Generated_Source\PSoC4/TIMER.c ****         {
 864:Generated_Source\PSoC4/TIMER.c ****             compare--;
 865:Generated_Source\PSoC4/TIMER.c ****         }
 866:Generated_Source\PSoC4/TIMER.c ****         else
 867:Generated_Source\PSoC4/TIMER.c ****         {
 868:Generated_Source\PSoC4/TIMER.c ****         }
 869:Generated_Source\PSoC4/TIMER.c ****         
 870:Generated_Source\PSoC4/TIMER.c ****     
 871:Generated_Source\PSoC4/TIMER.c ****     #endif /* (TIMER_CY_TCPWM_4000) */
 872:Generated_Source\PSoC4/TIMER.c ****     
 873:Generated_Source\PSoC4/TIMER.c ****     TIMER_COMP_CAP_REG = (compare & TIMER_16BIT_MASK);
 1209              		.loc 1 873 0
 1210 0008 044B     		ldr	r3, .L72
 1211 000a 7A68     		ldr	r2, [r7, #4]
 1212 000c 1204     		lsls	r2, r2, #16
 1213 000e 120C     		lsrs	r2, r2, #16
 1214 0010 1A60     		str	r2, [r3]
 874:Generated_Source\PSoC4/TIMER.c **** }
 1215              		.loc 1 874 0
 1216 0012 C046     		nop
 1217 0014 BD46     		mov	sp, r7
 1218 0016 02B0     		add	sp, sp, #8
 1219              		@ sp needed
 1220 0018 80BD     		pop	{r7, pc}
 1221              	.L73:
 1222 001a C046     		.align	2
 1223              	.L72:
 1224 001c 0C012040 		.word	1075839244
 1225              		.cfi_endproc
 1226              	.LFE24:
 1227              		.size	TIMER_WriteCompare, .-TIMER_WriteCompare
 1228              		.section	.text.TIMER_ReadCompare,"ax",%progbits
 1229              		.align	2
 1230              		.global	TIMER_ReadCompare
 1231              		.code	16
 1232              		.thumb_func
 1233              		.type	TIMER_ReadCompare, %function
 1234              	TIMER_ReadCompare:
 1235              	.LFB25:
ARM GAS  C:\Users\ELEASO~1\AppData\Local\Temp\cc1j55VZ.s 			page 38


 875:Generated_Source\PSoC4/TIMER.c **** 
 876:Generated_Source\PSoC4/TIMER.c **** 
 877:Generated_Source\PSoC4/TIMER.c **** /*******************************************************************************
 878:Generated_Source\PSoC4/TIMER.c **** * Function Name: TIMER_ReadCompare
 879:Generated_Source\PSoC4/TIMER.c **** ********************************************************************************
 880:Generated_Source\PSoC4/TIMER.c **** *
 881:Generated_Source\PSoC4/TIMER.c **** * Summary:
 882:Generated_Source\PSoC4/TIMER.c **** *  Reads the compare register. Not applicable for Timer/Counter with Capture
 883:Generated_Source\PSoC4/TIMER.c **** *  or in Quadrature Decoder modes.
 884:Generated_Source\PSoC4/TIMER.c **** *  PSoC 4000 devices read the incremented compare register value in the 
 885:Generated_Source\PSoC4/TIMER.c **** *  Up counting mode (except 0xFFFFu), and the decremented value in the 
 886:Generated_Source\PSoC4/TIMER.c **** *  Down counting mode (except 0x0u).
 887:Generated_Source\PSoC4/TIMER.c **** *
 888:Generated_Source\PSoC4/TIMER.c **** * Parameters:
 889:Generated_Source\PSoC4/TIMER.c **** *  None
 890:Generated_Source\PSoC4/TIMER.c **** *
 891:Generated_Source\PSoC4/TIMER.c **** * Return:
 892:Generated_Source\PSoC4/TIMER.c **** *  Compare value
 893:Generated_Source\PSoC4/TIMER.c **** *
 894:Generated_Source\PSoC4/TIMER.c **** * Note:
 895:Generated_Source\PSoC4/TIMER.c **** *  PSoC 4000 devices read the incremented compare register value in the 
 896:Generated_Source\PSoC4/TIMER.c **** *  Up counting mode (except 0xFFFFu), and the decremented value in the 
 897:Generated_Source\PSoC4/TIMER.c **** *  Down counting mode (except 0x0u).
 898:Generated_Source\PSoC4/TIMER.c **** *
 899:Generated_Source\PSoC4/TIMER.c **** *******************************************************************************/
 900:Generated_Source\PSoC4/TIMER.c **** uint32 TIMER_ReadCompare(void)
 901:Generated_Source\PSoC4/TIMER.c **** {
 1236              		.loc 1 901 0
 1237              		.cfi_startproc
 1238              		@ args = 0, pretend = 0, frame = 0
 1239              		@ frame_needed = 1, uses_anonymous_args = 0
 1240 0000 80B5     		push	{r7, lr}
 1241              		.cfi_def_cfa_offset 8
 1242              		.cfi_offset 7, -8
 1243              		.cfi_offset 14, -4
 1244 0002 00AF     		add	r7, sp, #0
 1245              		.cfi_def_cfa_register 7
 902:Generated_Source\PSoC4/TIMER.c ****     #if (TIMER_CY_TCPWM_4000)
 903:Generated_Source\PSoC4/TIMER.c ****         uint32 currentMode;
 904:Generated_Source\PSoC4/TIMER.c ****         uint32 regVal;
 905:Generated_Source\PSoC4/TIMER.c ****     #endif /* (TIMER_CY_TCPWM_4000) */
 906:Generated_Source\PSoC4/TIMER.c **** 
 907:Generated_Source\PSoC4/TIMER.c ****     #if (TIMER_CY_TCPWM_4000)
 908:Generated_Source\PSoC4/TIMER.c ****         currentMode = ((TIMER_CONTROL_REG & TIMER_UPDOWN_MASK) >> TIMER_UPDOWN_SHIFT);
 909:Generated_Source\PSoC4/TIMER.c ****         
 910:Generated_Source\PSoC4/TIMER.c ****         regVal = TIMER_COMP_CAP_REG;
 911:Generated_Source\PSoC4/TIMER.c ****         
 912:Generated_Source\PSoC4/TIMER.c ****         if (((uint32)TIMER__COUNT_DOWN == currentMode) && (0u != regVal))
 913:Generated_Source\PSoC4/TIMER.c ****         {
 914:Generated_Source\PSoC4/TIMER.c ****             regVal--;
 915:Generated_Source\PSoC4/TIMER.c ****         }
 916:Generated_Source\PSoC4/TIMER.c ****         else if (((uint32)TIMER__COUNT_UP == currentMode) && (0xFFFFu != regVal))
 917:Generated_Source\PSoC4/TIMER.c ****         {
 918:Generated_Source\PSoC4/TIMER.c ****             regVal++;
 919:Generated_Source\PSoC4/TIMER.c ****         }
 920:Generated_Source\PSoC4/TIMER.c ****         else
 921:Generated_Source\PSoC4/TIMER.c ****         {
ARM GAS  C:\Users\ELEASO~1\AppData\Local\Temp\cc1j55VZ.s 			page 39


 922:Generated_Source\PSoC4/TIMER.c ****         }
 923:Generated_Source\PSoC4/TIMER.c **** 
 924:Generated_Source\PSoC4/TIMER.c ****         return (regVal & TIMER_16BIT_MASK);
 925:Generated_Source\PSoC4/TIMER.c ****     #else
 926:Generated_Source\PSoC4/TIMER.c ****         return (TIMER_COMP_CAP_REG & TIMER_16BIT_MASK);
 1246              		.loc 1 926 0
 1247 0004 034B     		ldr	r3, .L76
 1248 0006 1B68     		ldr	r3, [r3]
 1249 0008 1B04     		lsls	r3, r3, #16
 1250 000a 1B0C     		lsrs	r3, r3, #16
 927:Generated_Source\PSoC4/TIMER.c ****     #endif /* (TIMER_CY_TCPWM_4000) */
 928:Generated_Source\PSoC4/TIMER.c **** }
 1251              		.loc 1 928 0
 1252 000c 1800     		movs	r0, r3
 1253 000e BD46     		mov	sp, r7
 1254              		@ sp needed
 1255 0010 80BD     		pop	{r7, pc}
 1256              	.L77:
 1257 0012 C046     		.align	2
 1258              	.L76:
 1259 0014 0C012040 		.word	1075839244
 1260              		.cfi_endproc
 1261              	.LFE25:
 1262              		.size	TIMER_ReadCompare, .-TIMER_ReadCompare
 1263              		.section	.text.TIMER_WriteCompareBuf,"ax",%progbits
 1264              		.align	2
 1265              		.global	TIMER_WriteCompareBuf
 1266              		.code	16
 1267              		.thumb_func
 1268              		.type	TIMER_WriteCompareBuf, %function
 1269              	TIMER_WriteCompareBuf:
 1270              	.LFB26:
 929:Generated_Source\PSoC4/TIMER.c **** 
 930:Generated_Source\PSoC4/TIMER.c **** 
 931:Generated_Source\PSoC4/TIMER.c **** /*******************************************************************************
 932:Generated_Source\PSoC4/TIMER.c **** * Function Name: TIMER_WriteCompareBuf
 933:Generated_Source\PSoC4/TIMER.c **** ********************************************************************************
 934:Generated_Source\PSoC4/TIMER.c **** *
 935:Generated_Source\PSoC4/TIMER.c **** * Summary:
 936:Generated_Source\PSoC4/TIMER.c **** *  Writes the 16 bit compare buffer register with the new compare value. Not
 937:Generated_Source\PSoC4/TIMER.c **** *  applicable for Timer/Counter with Capture or in Quadrature Decoder modes.
 938:Generated_Source\PSoC4/TIMER.c **** *
 939:Generated_Source\PSoC4/TIMER.c **** * Parameters:
 940:Generated_Source\PSoC4/TIMER.c **** *  compareBuf: Compare value
 941:Generated_Source\PSoC4/TIMER.c **** *
 942:Generated_Source\PSoC4/TIMER.c **** * Return:
 943:Generated_Source\PSoC4/TIMER.c **** *  None
 944:Generated_Source\PSoC4/TIMER.c **** *
 945:Generated_Source\PSoC4/TIMER.c **** * Note:
 946:Generated_Source\PSoC4/TIMER.c **** *  It is not recommended to use the value equal to "0" or equal to 
 947:Generated_Source\PSoC4/TIMER.c **** *  "period value" in Center or Asymmetric align PWM modes on the 
 948:Generated_Source\PSoC4/TIMER.c **** *  PSoC 4100/PSoC 4200 devices.
 949:Generated_Source\PSoC4/TIMER.c **** *  PSoC 4000 devices write the 16 bit compare register with the decremented 
 950:Generated_Source\PSoC4/TIMER.c **** *  compare value in the Up counting mode (except 0x0u), and the incremented 
 951:Generated_Source\PSoC4/TIMER.c **** *  compare value in the Down counting mode (except 0xFFFFu).
 952:Generated_Source\PSoC4/TIMER.c **** *
 953:Generated_Source\PSoC4/TIMER.c **** *******************************************************************************/
ARM GAS  C:\Users\ELEASO~1\AppData\Local\Temp\cc1j55VZ.s 			page 40


 954:Generated_Source\PSoC4/TIMER.c **** void TIMER_WriteCompareBuf(uint32 compareBuf)
 955:Generated_Source\PSoC4/TIMER.c **** {
 1271              		.loc 1 955 0
 1272              		.cfi_startproc
 1273              		@ args = 0, pretend = 0, frame = 8
 1274              		@ frame_needed = 1, uses_anonymous_args = 0
 1275 0000 80B5     		push	{r7, lr}
 1276              		.cfi_def_cfa_offset 8
 1277              		.cfi_offset 7, -8
 1278              		.cfi_offset 14, -4
 1279 0002 82B0     		sub	sp, sp, #8
 1280              		.cfi_def_cfa_offset 16
 1281 0004 00AF     		add	r7, sp, #0
 1282              		.cfi_def_cfa_register 7
 1283 0006 7860     		str	r0, [r7, #4]
 956:Generated_Source\PSoC4/TIMER.c ****     #if (TIMER_CY_TCPWM_4000)
 957:Generated_Source\PSoC4/TIMER.c ****         uint32 currentMode;
 958:Generated_Source\PSoC4/TIMER.c ****     #endif /* (TIMER_CY_TCPWM_4000) */
 959:Generated_Source\PSoC4/TIMER.c **** 
 960:Generated_Source\PSoC4/TIMER.c ****     #if (TIMER_CY_TCPWM_4000)
 961:Generated_Source\PSoC4/TIMER.c ****         currentMode = ((TIMER_CONTROL_REG & TIMER_UPDOWN_MASK) >> TIMER_UPDOWN_SHIFT);
 962:Generated_Source\PSoC4/TIMER.c **** 
 963:Generated_Source\PSoC4/TIMER.c ****         if (((uint32)TIMER__COUNT_DOWN == currentMode) && (0xFFFFu != compareBuf))
 964:Generated_Source\PSoC4/TIMER.c ****         {
 965:Generated_Source\PSoC4/TIMER.c ****             compareBuf++;
 966:Generated_Source\PSoC4/TIMER.c ****         }
 967:Generated_Source\PSoC4/TIMER.c ****         else if (((uint32)TIMER__COUNT_UP == currentMode) && (0u != compareBuf))
 968:Generated_Source\PSoC4/TIMER.c ****         {
 969:Generated_Source\PSoC4/TIMER.c ****             compareBuf --;
 970:Generated_Source\PSoC4/TIMER.c ****         }
 971:Generated_Source\PSoC4/TIMER.c ****         else
 972:Generated_Source\PSoC4/TIMER.c ****         {
 973:Generated_Source\PSoC4/TIMER.c ****         }
 974:Generated_Source\PSoC4/TIMER.c ****     #endif /* (TIMER_CY_TCPWM_4000) */
 975:Generated_Source\PSoC4/TIMER.c ****     
 976:Generated_Source\PSoC4/TIMER.c ****     TIMER_COMP_CAP_BUF_REG = (compareBuf & TIMER_16BIT_MASK);
 1284              		.loc 1 976 0
 1285 0008 044B     		ldr	r3, .L79
 1286 000a 7A68     		ldr	r2, [r7, #4]
 1287 000c 1204     		lsls	r2, r2, #16
 1288 000e 120C     		lsrs	r2, r2, #16
 1289 0010 1A60     		str	r2, [r3]
 977:Generated_Source\PSoC4/TIMER.c **** }
 1290              		.loc 1 977 0
 1291 0012 C046     		nop
 1292 0014 BD46     		mov	sp, r7
 1293 0016 02B0     		add	sp, sp, #8
 1294              		@ sp needed
 1295 0018 80BD     		pop	{r7, pc}
 1296              	.L80:
 1297 001a C046     		.align	2
 1298              	.L79:
 1299 001c 10012040 		.word	1075839248
 1300              		.cfi_endproc
 1301              	.LFE26:
 1302              		.size	TIMER_WriteCompareBuf, .-TIMER_WriteCompareBuf
 1303              		.section	.text.TIMER_ReadCompareBuf,"ax",%progbits
ARM GAS  C:\Users\ELEASO~1\AppData\Local\Temp\cc1j55VZ.s 			page 41


 1304              		.align	2
 1305              		.global	TIMER_ReadCompareBuf
 1306              		.code	16
 1307              		.thumb_func
 1308              		.type	TIMER_ReadCompareBuf, %function
 1309              	TIMER_ReadCompareBuf:
 1310              	.LFB27:
 978:Generated_Source\PSoC4/TIMER.c **** 
 979:Generated_Source\PSoC4/TIMER.c **** 
 980:Generated_Source\PSoC4/TIMER.c **** /*******************************************************************************
 981:Generated_Source\PSoC4/TIMER.c **** * Function Name: TIMER_ReadCompareBuf
 982:Generated_Source\PSoC4/TIMER.c **** ********************************************************************************
 983:Generated_Source\PSoC4/TIMER.c **** *
 984:Generated_Source\PSoC4/TIMER.c **** * Summary:
 985:Generated_Source\PSoC4/TIMER.c **** *  Reads the compare buffer register. Not applicable for Timer/Counter with
 986:Generated_Source\PSoC4/TIMER.c **** *  Capture or in Quadrature Decoder modes.
 987:Generated_Source\PSoC4/TIMER.c **** *
 988:Generated_Source\PSoC4/TIMER.c **** * Parameters:
 989:Generated_Source\PSoC4/TIMER.c **** *  None
 990:Generated_Source\PSoC4/TIMER.c **** *
 991:Generated_Source\PSoC4/TIMER.c **** * Return:
 992:Generated_Source\PSoC4/TIMER.c **** *  Compare buffer value
 993:Generated_Source\PSoC4/TIMER.c **** *
 994:Generated_Source\PSoC4/TIMER.c **** * Note:
 995:Generated_Source\PSoC4/TIMER.c **** *  PSoC 4000 devices read the incremented compare register value in the 
 996:Generated_Source\PSoC4/TIMER.c **** *  Up counting mode (except 0xFFFFu), and the decremented value in the 
 997:Generated_Source\PSoC4/TIMER.c **** *  Down counting mode (except 0x0u).
 998:Generated_Source\PSoC4/TIMER.c **** *
 999:Generated_Source\PSoC4/TIMER.c **** *******************************************************************************/
1000:Generated_Source\PSoC4/TIMER.c **** uint32 TIMER_ReadCompareBuf(void)
1001:Generated_Source\PSoC4/TIMER.c **** {
 1311              		.loc 1 1001 0
 1312              		.cfi_startproc
 1313              		@ args = 0, pretend = 0, frame = 0
 1314              		@ frame_needed = 1, uses_anonymous_args = 0
 1315 0000 80B5     		push	{r7, lr}
 1316              		.cfi_def_cfa_offset 8
 1317              		.cfi_offset 7, -8
 1318              		.cfi_offset 14, -4
 1319 0002 00AF     		add	r7, sp, #0
 1320              		.cfi_def_cfa_register 7
1002:Generated_Source\PSoC4/TIMER.c ****     #if (TIMER_CY_TCPWM_4000)
1003:Generated_Source\PSoC4/TIMER.c ****         uint32 currentMode;
1004:Generated_Source\PSoC4/TIMER.c ****         uint32 regVal;
1005:Generated_Source\PSoC4/TIMER.c ****     #endif /* (TIMER_CY_TCPWM_4000) */
1006:Generated_Source\PSoC4/TIMER.c **** 
1007:Generated_Source\PSoC4/TIMER.c ****     #if (TIMER_CY_TCPWM_4000)
1008:Generated_Source\PSoC4/TIMER.c ****         currentMode = ((TIMER_CONTROL_REG & TIMER_UPDOWN_MASK) >> TIMER_UPDOWN_SHIFT);
1009:Generated_Source\PSoC4/TIMER.c **** 
1010:Generated_Source\PSoC4/TIMER.c ****         regVal = TIMER_COMP_CAP_BUF_REG;
1011:Generated_Source\PSoC4/TIMER.c ****         
1012:Generated_Source\PSoC4/TIMER.c ****         if (((uint32)TIMER__COUNT_DOWN == currentMode) && (0u != regVal))
1013:Generated_Source\PSoC4/TIMER.c ****         {
1014:Generated_Source\PSoC4/TIMER.c ****             regVal--;
1015:Generated_Source\PSoC4/TIMER.c ****         }
1016:Generated_Source\PSoC4/TIMER.c ****         else if (((uint32)TIMER__COUNT_UP == currentMode) && (0xFFFFu != regVal))
1017:Generated_Source\PSoC4/TIMER.c ****         {
ARM GAS  C:\Users\ELEASO~1\AppData\Local\Temp\cc1j55VZ.s 			page 42


1018:Generated_Source\PSoC4/TIMER.c ****             regVal++;
1019:Generated_Source\PSoC4/TIMER.c ****         }
1020:Generated_Source\PSoC4/TIMER.c ****         else
1021:Generated_Source\PSoC4/TIMER.c ****         {
1022:Generated_Source\PSoC4/TIMER.c ****         }
1023:Generated_Source\PSoC4/TIMER.c **** 
1024:Generated_Source\PSoC4/TIMER.c ****         return (regVal & TIMER_16BIT_MASK);
1025:Generated_Source\PSoC4/TIMER.c ****     #else
1026:Generated_Source\PSoC4/TIMER.c ****         return (TIMER_COMP_CAP_BUF_REG & TIMER_16BIT_MASK);
 1321              		.loc 1 1026 0
 1322 0004 034B     		ldr	r3, .L83
 1323 0006 1B68     		ldr	r3, [r3]
 1324 0008 1B04     		lsls	r3, r3, #16
 1325 000a 1B0C     		lsrs	r3, r3, #16
1027:Generated_Source\PSoC4/TIMER.c ****     #endif /* (TIMER_CY_TCPWM_4000) */
1028:Generated_Source\PSoC4/TIMER.c **** }
 1326              		.loc 1 1028 0
 1327 000c 1800     		movs	r0, r3
 1328 000e BD46     		mov	sp, r7
 1329              		@ sp needed
 1330 0010 80BD     		pop	{r7, pc}
 1331              	.L84:
 1332 0012 C046     		.align	2
 1333              	.L83:
 1334 0014 10012040 		.word	1075839248
 1335              		.cfi_endproc
 1336              	.LFE27:
 1337              		.size	TIMER_ReadCompareBuf, .-TIMER_ReadCompareBuf
 1338              		.section	.text.TIMER_ReadCapture,"ax",%progbits
 1339              		.align	2
 1340              		.global	TIMER_ReadCapture
 1341              		.code	16
 1342              		.thumb_func
 1343              		.type	TIMER_ReadCapture, %function
 1344              	TIMER_ReadCapture:
 1345              	.LFB28:
1029:Generated_Source\PSoC4/TIMER.c **** 
1030:Generated_Source\PSoC4/TIMER.c **** 
1031:Generated_Source\PSoC4/TIMER.c **** /*******************************************************************************
1032:Generated_Source\PSoC4/TIMER.c **** * Function Name: TIMER_ReadCapture
1033:Generated_Source\PSoC4/TIMER.c **** ********************************************************************************
1034:Generated_Source\PSoC4/TIMER.c **** *
1035:Generated_Source\PSoC4/TIMER.c **** * Summary:
1036:Generated_Source\PSoC4/TIMER.c **** *  Reads the captured counter value. This API is applicable only for
1037:Generated_Source\PSoC4/TIMER.c **** *  Timer/Counter with the capture mode and Quadrature Decoder modes.
1038:Generated_Source\PSoC4/TIMER.c **** *
1039:Generated_Source\PSoC4/TIMER.c **** * Parameters:
1040:Generated_Source\PSoC4/TIMER.c **** *  None
1041:Generated_Source\PSoC4/TIMER.c **** *
1042:Generated_Source\PSoC4/TIMER.c **** * Return:
1043:Generated_Source\PSoC4/TIMER.c **** *  Capture value
1044:Generated_Source\PSoC4/TIMER.c **** *
1045:Generated_Source\PSoC4/TIMER.c **** *******************************************************************************/
1046:Generated_Source\PSoC4/TIMER.c **** uint32 TIMER_ReadCapture(void)
1047:Generated_Source\PSoC4/TIMER.c **** {
 1346              		.loc 1 1047 0
 1347              		.cfi_startproc
ARM GAS  C:\Users\ELEASO~1\AppData\Local\Temp\cc1j55VZ.s 			page 43


 1348              		@ args = 0, pretend = 0, frame = 0
 1349              		@ frame_needed = 1, uses_anonymous_args = 0
 1350 0000 80B5     		push	{r7, lr}
 1351              		.cfi_def_cfa_offset 8
 1352              		.cfi_offset 7, -8
 1353              		.cfi_offset 14, -4
 1354 0002 00AF     		add	r7, sp, #0
 1355              		.cfi_def_cfa_register 7
1048:Generated_Source\PSoC4/TIMER.c ****     return (TIMER_COMP_CAP_REG & TIMER_16BIT_MASK);
 1356              		.loc 1 1048 0
 1357 0004 034B     		ldr	r3, .L87
 1358 0006 1B68     		ldr	r3, [r3]
 1359 0008 1B04     		lsls	r3, r3, #16
 1360 000a 1B0C     		lsrs	r3, r3, #16
1049:Generated_Source\PSoC4/TIMER.c **** }
 1361              		.loc 1 1049 0
 1362 000c 1800     		movs	r0, r3
 1363 000e BD46     		mov	sp, r7
 1364              		@ sp needed
 1365 0010 80BD     		pop	{r7, pc}
 1366              	.L88:
 1367 0012 C046     		.align	2
 1368              	.L87:
 1369 0014 0C012040 		.word	1075839244
 1370              		.cfi_endproc
 1371              	.LFE28:
 1372              		.size	TIMER_ReadCapture, .-TIMER_ReadCapture
 1373              		.section	.text.TIMER_ReadCaptureBuf,"ax",%progbits
 1374              		.align	2
 1375              		.global	TIMER_ReadCaptureBuf
 1376              		.code	16
 1377              		.thumb_func
 1378              		.type	TIMER_ReadCaptureBuf, %function
 1379              	TIMER_ReadCaptureBuf:
 1380              	.LFB29:
1050:Generated_Source\PSoC4/TIMER.c **** 
1051:Generated_Source\PSoC4/TIMER.c **** 
1052:Generated_Source\PSoC4/TIMER.c **** /*******************************************************************************
1053:Generated_Source\PSoC4/TIMER.c **** * Function Name: TIMER_ReadCaptureBuf
1054:Generated_Source\PSoC4/TIMER.c **** ********************************************************************************
1055:Generated_Source\PSoC4/TIMER.c **** *
1056:Generated_Source\PSoC4/TIMER.c **** * Summary:
1057:Generated_Source\PSoC4/TIMER.c **** *  Reads the capture buffer register. This API is applicable only for
1058:Generated_Source\PSoC4/TIMER.c **** *  Timer/Counter with the capture mode and Quadrature Decoder modes.
1059:Generated_Source\PSoC4/TIMER.c **** *
1060:Generated_Source\PSoC4/TIMER.c **** * Parameters:
1061:Generated_Source\PSoC4/TIMER.c **** *  None
1062:Generated_Source\PSoC4/TIMER.c **** *
1063:Generated_Source\PSoC4/TIMER.c **** * Return:
1064:Generated_Source\PSoC4/TIMER.c **** *  Capture buffer value
1065:Generated_Source\PSoC4/TIMER.c **** *
1066:Generated_Source\PSoC4/TIMER.c **** *******************************************************************************/
1067:Generated_Source\PSoC4/TIMER.c **** uint32 TIMER_ReadCaptureBuf(void)
1068:Generated_Source\PSoC4/TIMER.c **** {
 1381              		.loc 1 1068 0
 1382              		.cfi_startproc
 1383              		@ args = 0, pretend = 0, frame = 0
ARM GAS  C:\Users\ELEASO~1\AppData\Local\Temp\cc1j55VZ.s 			page 44


 1384              		@ frame_needed = 1, uses_anonymous_args = 0
 1385 0000 80B5     		push	{r7, lr}
 1386              		.cfi_def_cfa_offset 8
 1387              		.cfi_offset 7, -8
 1388              		.cfi_offset 14, -4
 1389 0002 00AF     		add	r7, sp, #0
 1390              		.cfi_def_cfa_register 7
1069:Generated_Source\PSoC4/TIMER.c ****     return (TIMER_COMP_CAP_BUF_REG & TIMER_16BIT_MASK);
 1391              		.loc 1 1069 0
 1392 0004 034B     		ldr	r3, .L91
 1393 0006 1B68     		ldr	r3, [r3]
 1394 0008 1B04     		lsls	r3, r3, #16
 1395 000a 1B0C     		lsrs	r3, r3, #16
1070:Generated_Source\PSoC4/TIMER.c **** }
 1396              		.loc 1 1070 0
 1397 000c 1800     		movs	r0, r3
 1398 000e BD46     		mov	sp, r7
 1399              		@ sp needed
 1400 0010 80BD     		pop	{r7, pc}
 1401              	.L92:
 1402 0012 C046     		.align	2
 1403              	.L91:
 1404 0014 10012040 		.word	1075839248
 1405              		.cfi_endproc
 1406              	.LFE29:
 1407              		.size	TIMER_ReadCaptureBuf, .-TIMER_ReadCaptureBuf
 1408              		.section	.text.TIMER_SetCaptureMode,"ax",%progbits
 1409              		.align	2
 1410              		.global	TIMER_SetCaptureMode
 1411              		.code	16
 1412              		.thumb_func
 1413              		.type	TIMER_SetCaptureMode, %function
 1414              	TIMER_SetCaptureMode:
 1415              	.LFB30:
1071:Generated_Source\PSoC4/TIMER.c **** 
1072:Generated_Source\PSoC4/TIMER.c **** 
1073:Generated_Source\PSoC4/TIMER.c **** /*******************************************************************************
1074:Generated_Source\PSoC4/TIMER.c **** * Function Name: TIMER_SetCaptureMode
1075:Generated_Source\PSoC4/TIMER.c **** ********************************************************************************
1076:Generated_Source\PSoC4/TIMER.c **** *
1077:Generated_Source\PSoC4/TIMER.c **** * Summary:
1078:Generated_Source\PSoC4/TIMER.c **** *  Sets the capture trigger mode. For PWM mode this is the switch input.
1079:Generated_Source\PSoC4/TIMER.c **** *  This input is not applicable to the Timer/Counter without Capture and
1080:Generated_Source\PSoC4/TIMER.c **** *  Quadrature Decoder modes.
1081:Generated_Source\PSoC4/TIMER.c **** *
1082:Generated_Source\PSoC4/TIMER.c **** * Parameters:
1083:Generated_Source\PSoC4/TIMER.c **** *  triggerMode: Enumerated trigger mode value
1084:Generated_Source\PSoC4/TIMER.c **** *   Values:
1085:Generated_Source\PSoC4/TIMER.c **** *     - TIMER_TRIG_LEVEL     - Level
1086:Generated_Source\PSoC4/TIMER.c **** *     - TIMER_TRIG_RISING    - Rising edge
1087:Generated_Source\PSoC4/TIMER.c **** *     - TIMER_TRIG_FALLING   - Falling edge
1088:Generated_Source\PSoC4/TIMER.c **** *     - TIMER_TRIG_BOTH      - Both rising and falling edge
1089:Generated_Source\PSoC4/TIMER.c **** *
1090:Generated_Source\PSoC4/TIMER.c **** * Return:
1091:Generated_Source\PSoC4/TIMER.c **** *  None
1092:Generated_Source\PSoC4/TIMER.c **** *
1093:Generated_Source\PSoC4/TIMER.c **** *******************************************************************************/
ARM GAS  C:\Users\ELEASO~1\AppData\Local\Temp\cc1j55VZ.s 			page 45


1094:Generated_Source\PSoC4/TIMER.c **** void TIMER_SetCaptureMode(uint32 triggerMode)
1095:Generated_Source\PSoC4/TIMER.c **** {
 1416              		.loc 1 1095 0
 1417              		.cfi_startproc
 1418              		@ args = 0, pretend = 0, frame = 16
 1419              		@ frame_needed = 1, uses_anonymous_args = 0
 1420 0000 90B5     		push	{r4, r7, lr}
 1421              		.cfi_def_cfa_offset 12
 1422              		.cfi_offset 4, -12
 1423              		.cfi_offset 7, -8
 1424              		.cfi_offset 14, -4
 1425 0002 85B0     		sub	sp, sp, #20
 1426              		.cfi_def_cfa_offset 32
 1427 0004 00AF     		add	r7, sp, #0
 1428              		.cfi_def_cfa_register 7
 1429 0006 7860     		str	r0, [r7, #4]
1096:Generated_Source\PSoC4/TIMER.c ****     uint8 enableInterrupts;
1097:Generated_Source\PSoC4/TIMER.c **** 
1098:Generated_Source\PSoC4/TIMER.c ****     enableInterrupts = CyEnterCriticalSection();
 1430              		.loc 1 1098 0
 1431 0008 0F23     		movs	r3, #15
 1432 000a FC18     		adds	r4, r7, r3
 1433 000c FFF7FEFF 		bl	CyEnterCriticalSection
 1434 0010 0300     		movs	r3, r0
 1435 0012 2370     		strb	r3, [r4]
1099:Generated_Source\PSoC4/TIMER.c **** 
1100:Generated_Source\PSoC4/TIMER.c ****     TIMER_TRIG_CONTROL1_REG &= (uint32)~TIMER_CAPTURE_MASK;
 1436              		.loc 1 1100 0
 1437 0014 0A4B     		ldr	r3, .L94
 1438 0016 0A4A     		ldr	r2, .L94
 1439 0018 1268     		ldr	r2, [r2]
 1440 001a 0321     		movs	r1, #3
 1441 001c 8A43     		bics	r2, r1
 1442 001e 1A60     		str	r2, [r3]
1101:Generated_Source\PSoC4/TIMER.c ****     TIMER_TRIG_CONTROL1_REG |= triggerMode;
 1443              		.loc 1 1101 0
 1444 0020 074B     		ldr	r3, .L94
 1445 0022 074A     		ldr	r2, .L94
 1446 0024 1168     		ldr	r1, [r2]
 1447 0026 7A68     		ldr	r2, [r7, #4]
 1448 0028 0A43     		orrs	r2, r1
 1449 002a 1A60     		str	r2, [r3]
1102:Generated_Source\PSoC4/TIMER.c **** 
1103:Generated_Source\PSoC4/TIMER.c ****     CyExitCriticalSection(enableInterrupts);
 1450              		.loc 1 1103 0
 1451 002c 0F23     		movs	r3, #15
 1452 002e FB18     		adds	r3, r7, r3
 1453 0030 1B78     		ldrb	r3, [r3]
 1454 0032 1800     		movs	r0, r3
 1455 0034 FFF7FEFF 		bl	CyExitCriticalSection
1104:Generated_Source\PSoC4/TIMER.c **** }
 1456              		.loc 1 1104 0
 1457 0038 C046     		nop
 1458 003a BD46     		mov	sp, r7
 1459 003c 05B0     		add	sp, sp, #20
 1460              		@ sp needed
 1461 003e 90BD     		pop	{r4, r7, pc}
ARM GAS  C:\Users\ELEASO~1\AppData\Local\Temp\cc1j55VZ.s 			page 46


 1462              	.L95:
 1463              		.align	2
 1464              	.L94:
 1465 0040 24012040 		.word	1075839268
 1466              		.cfi_endproc
 1467              	.LFE30:
 1468              		.size	TIMER_SetCaptureMode, .-TIMER_SetCaptureMode
 1469              		.section	.text.TIMER_SetReloadMode,"ax",%progbits
 1470              		.align	2
 1471              		.global	TIMER_SetReloadMode
 1472              		.code	16
 1473              		.thumb_func
 1474              		.type	TIMER_SetReloadMode, %function
 1475              	TIMER_SetReloadMode:
 1476              	.LFB31:
1105:Generated_Source\PSoC4/TIMER.c **** 
1106:Generated_Source\PSoC4/TIMER.c **** 
1107:Generated_Source\PSoC4/TIMER.c **** /*******************************************************************************
1108:Generated_Source\PSoC4/TIMER.c **** * Function Name: TIMER_SetReloadMode
1109:Generated_Source\PSoC4/TIMER.c **** ********************************************************************************
1110:Generated_Source\PSoC4/TIMER.c **** *
1111:Generated_Source\PSoC4/TIMER.c **** * Summary:
1112:Generated_Source\PSoC4/TIMER.c **** *  Sets the reload trigger mode. For Quadrature Decoder mode this is the index
1113:Generated_Source\PSoC4/TIMER.c **** *  input.
1114:Generated_Source\PSoC4/TIMER.c **** *
1115:Generated_Source\PSoC4/TIMER.c **** * Parameters:
1116:Generated_Source\PSoC4/TIMER.c **** *  triggerMode: Enumerated trigger mode value
1117:Generated_Source\PSoC4/TIMER.c **** *   Values:
1118:Generated_Source\PSoC4/TIMER.c **** *     - TIMER_TRIG_LEVEL     - Level
1119:Generated_Source\PSoC4/TIMER.c **** *     - TIMER_TRIG_RISING    - Rising edge
1120:Generated_Source\PSoC4/TIMER.c **** *     - TIMER_TRIG_FALLING   - Falling edge
1121:Generated_Source\PSoC4/TIMER.c **** *     - TIMER_TRIG_BOTH      - Both rising and falling edge
1122:Generated_Source\PSoC4/TIMER.c **** *
1123:Generated_Source\PSoC4/TIMER.c **** * Return:
1124:Generated_Source\PSoC4/TIMER.c **** *  None
1125:Generated_Source\PSoC4/TIMER.c **** *
1126:Generated_Source\PSoC4/TIMER.c **** *******************************************************************************/
1127:Generated_Source\PSoC4/TIMER.c **** void TIMER_SetReloadMode(uint32 triggerMode)
1128:Generated_Source\PSoC4/TIMER.c **** {
 1477              		.loc 1 1128 0
 1478              		.cfi_startproc
 1479              		@ args = 0, pretend = 0, frame = 16
 1480              		@ frame_needed = 1, uses_anonymous_args = 0
 1481 0000 90B5     		push	{r4, r7, lr}
 1482              		.cfi_def_cfa_offset 12
 1483              		.cfi_offset 4, -12
 1484              		.cfi_offset 7, -8
 1485              		.cfi_offset 14, -4
 1486 0002 85B0     		sub	sp, sp, #20
 1487              		.cfi_def_cfa_offset 32
 1488 0004 00AF     		add	r7, sp, #0
 1489              		.cfi_def_cfa_register 7
 1490 0006 7860     		str	r0, [r7, #4]
1129:Generated_Source\PSoC4/TIMER.c ****     uint8 enableInterrupts;
1130:Generated_Source\PSoC4/TIMER.c **** 
1131:Generated_Source\PSoC4/TIMER.c ****     enableInterrupts = CyEnterCriticalSection();
 1491              		.loc 1 1131 0
ARM GAS  C:\Users\ELEASO~1\AppData\Local\Temp\cc1j55VZ.s 			page 47


 1492 0008 0F23     		movs	r3, #15
 1493 000a FC18     		adds	r4, r7, r3
 1494 000c FFF7FEFF 		bl	CyEnterCriticalSection
 1495 0010 0300     		movs	r3, r0
 1496 0012 2370     		strb	r3, [r4]
1132:Generated_Source\PSoC4/TIMER.c **** 
1133:Generated_Source\PSoC4/TIMER.c ****     TIMER_TRIG_CONTROL1_REG &= (uint32)~TIMER_RELOAD_MASK;
 1497              		.loc 1 1133 0
 1498 0014 0B4B     		ldr	r3, .L97
 1499 0016 0B4A     		ldr	r2, .L97
 1500 0018 1268     		ldr	r2, [r2]
 1501 001a 3021     		movs	r1, #48
 1502 001c 8A43     		bics	r2, r1
 1503 001e 1A60     		str	r2, [r3]
1134:Generated_Source\PSoC4/TIMER.c ****     TIMER_TRIG_CONTROL1_REG |= ((uint32)(triggerMode << TIMER_RELOAD_SHIFT));
 1504              		.loc 1 1134 0
 1505 0020 084B     		ldr	r3, .L97
 1506 0022 084A     		ldr	r2, .L97
 1507 0024 1168     		ldr	r1, [r2]
 1508 0026 7A68     		ldr	r2, [r7, #4]
 1509 0028 1201     		lsls	r2, r2, #4
 1510 002a 0A43     		orrs	r2, r1
 1511 002c 1A60     		str	r2, [r3]
1135:Generated_Source\PSoC4/TIMER.c **** 
1136:Generated_Source\PSoC4/TIMER.c ****     CyExitCriticalSection(enableInterrupts);
 1512              		.loc 1 1136 0
 1513 002e 0F23     		movs	r3, #15
 1514 0030 FB18     		adds	r3, r7, r3
 1515 0032 1B78     		ldrb	r3, [r3]
 1516 0034 1800     		movs	r0, r3
 1517 0036 FFF7FEFF 		bl	CyExitCriticalSection
1137:Generated_Source\PSoC4/TIMER.c **** }
 1518              		.loc 1 1137 0
 1519 003a C046     		nop
 1520 003c BD46     		mov	sp, r7
 1521 003e 05B0     		add	sp, sp, #20
 1522              		@ sp needed
 1523 0040 90BD     		pop	{r4, r7, pc}
 1524              	.L98:
 1525 0042 C046     		.align	2
 1526              	.L97:
 1527 0044 24012040 		.word	1075839268
 1528              		.cfi_endproc
 1529              	.LFE31:
 1530              		.size	TIMER_SetReloadMode, .-TIMER_SetReloadMode
 1531              		.section	.text.TIMER_SetStartMode,"ax",%progbits
 1532              		.align	2
 1533              		.global	TIMER_SetStartMode
 1534              		.code	16
 1535              		.thumb_func
 1536              		.type	TIMER_SetStartMode, %function
 1537              	TIMER_SetStartMode:
 1538              	.LFB32:
1138:Generated_Source\PSoC4/TIMER.c **** 
1139:Generated_Source\PSoC4/TIMER.c **** 
1140:Generated_Source\PSoC4/TIMER.c **** /*******************************************************************************
1141:Generated_Source\PSoC4/TIMER.c **** * Function Name: TIMER_SetStartMode
ARM GAS  C:\Users\ELEASO~1\AppData\Local\Temp\cc1j55VZ.s 			page 48


1142:Generated_Source\PSoC4/TIMER.c **** ********************************************************************************
1143:Generated_Source\PSoC4/TIMER.c **** *
1144:Generated_Source\PSoC4/TIMER.c **** * Summary:
1145:Generated_Source\PSoC4/TIMER.c **** *  Sets the start trigger mode. For Quadrature Decoder mode this is the
1146:Generated_Source\PSoC4/TIMER.c **** *  phiB input.
1147:Generated_Source\PSoC4/TIMER.c **** *
1148:Generated_Source\PSoC4/TIMER.c **** * Parameters:
1149:Generated_Source\PSoC4/TIMER.c **** *  triggerMode: Enumerated trigger mode value
1150:Generated_Source\PSoC4/TIMER.c **** *   Values:
1151:Generated_Source\PSoC4/TIMER.c **** *     - TIMER_TRIG_LEVEL     - Level
1152:Generated_Source\PSoC4/TIMER.c **** *     - TIMER_TRIG_RISING    - Rising edge
1153:Generated_Source\PSoC4/TIMER.c **** *     - TIMER_TRIG_FALLING   - Falling edge
1154:Generated_Source\PSoC4/TIMER.c **** *     - TIMER_TRIG_BOTH      - Both rising and falling edge
1155:Generated_Source\PSoC4/TIMER.c **** *
1156:Generated_Source\PSoC4/TIMER.c **** * Return:
1157:Generated_Source\PSoC4/TIMER.c **** *  None
1158:Generated_Source\PSoC4/TIMER.c **** *
1159:Generated_Source\PSoC4/TIMER.c **** *******************************************************************************/
1160:Generated_Source\PSoC4/TIMER.c **** void TIMER_SetStartMode(uint32 triggerMode)
1161:Generated_Source\PSoC4/TIMER.c **** {
 1539              		.loc 1 1161 0
 1540              		.cfi_startproc
 1541              		@ args = 0, pretend = 0, frame = 16
 1542              		@ frame_needed = 1, uses_anonymous_args = 0
 1543 0000 90B5     		push	{r4, r7, lr}
 1544              		.cfi_def_cfa_offset 12
 1545              		.cfi_offset 4, -12
 1546              		.cfi_offset 7, -8
 1547              		.cfi_offset 14, -4
 1548 0002 85B0     		sub	sp, sp, #20
 1549              		.cfi_def_cfa_offset 32
 1550 0004 00AF     		add	r7, sp, #0
 1551              		.cfi_def_cfa_register 7
 1552 0006 7860     		str	r0, [r7, #4]
1162:Generated_Source\PSoC4/TIMER.c ****     uint8 enableInterrupts;
1163:Generated_Source\PSoC4/TIMER.c **** 
1164:Generated_Source\PSoC4/TIMER.c ****     enableInterrupts = CyEnterCriticalSection();
 1553              		.loc 1 1164 0
 1554 0008 0F23     		movs	r3, #15
 1555 000a FC18     		adds	r4, r7, r3
 1556 000c FFF7FEFF 		bl	CyEnterCriticalSection
 1557 0010 0300     		movs	r3, r0
 1558 0012 2370     		strb	r3, [r4]
1165:Generated_Source\PSoC4/TIMER.c **** 
1166:Generated_Source\PSoC4/TIMER.c ****     TIMER_TRIG_CONTROL1_REG &= (uint32)~TIMER_START_MASK;
 1559              		.loc 1 1166 0
 1560 0014 0B4B     		ldr	r3, .L100
 1561 0016 0B4A     		ldr	r2, .L100
 1562 0018 1268     		ldr	r2, [r2]
 1563 001a 0B49     		ldr	r1, .L100+4
 1564 001c 0A40     		ands	r2, r1
 1565 001e 1A60     		str	r2, [r3]
1167:Generated_Source\PSoC4/TIMER.c ****     TIMER_TRIG_CONTROL1_REG |= ((uint32)(triggerMode << TIMER_START_SHIFT));
 1566              		.loc 1 1167 0
 1567 0020 084B     		ldr	r3, .L100
 1568 0022 084A     		ldr	r2, .L100
 1569 0024 1168     		ldr	r1, [r2]
ARM GAS  C:\Users\ELEASO~1\AppData\Local\Temp\cc1j55VZ.s 			page 49


 1570 0026 7A68     		ldr	r2, [r7, #4]
 1571 0028 1202     		lsls	r2, r2, #8
 1572 002a 0A43     		orrs	r2, r1
 1573 002c 1A60     		str	r2, [r3]
1168:Generated_Source\PSoC4/TIMER.c **** 
1169:Generated_Source\PSoC4/TIMER.c ****     CyExitCriticalSection(enableInterrupts);
 1574              		.loc 1 1169 0
 1575 002e 0F23     		movs	r3, #15
 1576 0030 FB18     		adds	r3, r7, r3
 1577 0032 1B78     		ldrb	r3, [r3]
 1578 0034 1800     		movs	r0, r3
 1579 0036 FFF7FEFF 		bl	CyExitCriticalSection
1170:Generated_Source\PSoC4/TIMER.c **** }
 1580              		.loc 1 1170 0
 1581 003a C046     		nop
 1582 003c BD46     		mov	sp, r7
 1583 003e 05B0     		add	sp, sp, #20
 1584              		@ sp needed
 1585 0040 90BD     		pop	{r4, r7, pc}
 1586              	.L101:
 1587 0042 C046     		.align	2
 1588              	.L100:
 1589 0044 24012040 		.word	1075839268
 1590 0048 FFFCFFFF 		.word	-769
 1591              		.cfi_endproc
 1592              	.LFE32:
 1593              		.size	TIMER_SetStartMode, .-TIMER_SetStartMode
 1594              		.section	.text.TIMER_SetStopMode,"ax",%progbits
 1595              		.align	2
 1596              		.global	TIMER_SetStopMode
 1597              		.code	16
 1598              		.thumb_func
 1599              		.type	TIMER_SetStopMode, %function
 1600              	TIMER_SetStopMode:
 1601              	.LFB33:
1171:Generated_Source\PSoC4/TIMER.c **** 
1172:Generated_Source\PSoC4/TIMER.c **** 
1173:Generated_Source\PSoC4/TIMER.c **** /*******************************************************************************
1174:Generated_Source\PSoC4/TIMER.c **** * Function Name: TIMER_SetStopMode
1175:Generated_Source\PSoC4/TIMER.c **** ********************************************************************************
1176:Generated_Source\PSoC4/TIMER.c **** *
1177:Generated_Source\PSoC4/TIMER.c **** * Summary:
1178:Generated_Source\PSoC4/TIMER.c **** *  Sets the stop trigger mode. For PWM mode this is the kill input.
1179:Generated_Source\PSoC4/TIMER.c **** *
1180:Generated_Source\PSoC4/TIMER.c **** * Parameters:
1181:Generated_Source\PSoC4/TIMER.c **** *  triggerMode: Enumerated trigger mode value
1182:Generated_Source\PSoC4/TIMER.c **** *   Values:
1183:Generated_Source\PSoC4/TIMER.c **** *     - TIMER_TRIG_LEVEL     - Level
1184:Generated_Source\PSoC4/TIMER.c **** *     - TIMER_TRIG_RISING    - Rising edge
1185:Generated_Source\PSoC4/TIMER.c **** *     - TIMER_TRIG_FALLING   - Falling edge
1186:Generated_Source\PSoC4/TIMER.c **** *     - TIMER_TRIG_BOTH      - Both rising and falling edge
1187:Generated_Source\PSoC4/TIMER.c **** *
1188:Generated_Source\PSoC4/TIMER.c **** * Return:
1189:Generated_Source\PSoC4/TIMER.c **** *  None
1190:Generated_Source\PSoC4/TIMER.c **** *
1191:Generated_Source\PSoC4/TIMER.c **** *******************************************************************************/
1192:Generated_Source\PSoC4/TIMER.c **** void TIMER_SetStopMode(uint32 triggerMode)
ARM GAS  C:\Users\ELEASO~1\AppData\Local\Temp\cc1j55VZ.s 			page 50


1193:Generated_Source\PSoC4/TIMER.c **** {
 1602              		.loc 1 1193 0
 1603              		.cfi_startproc
 1604              		@ args = 0, pretend = 0, frame = 16
 1605              		@ frame_needed = 1, uses_anonymous_args = 0
 1606 0000 90B5     		push	{r4, r7, lr}
 1607              		.cfi_def_cfa_offset 12
 1608              		.cfi_offset 4, -12
 1609              		.cfi_offset 7, -8
 1610              		.cfi_offset 14, -4
 1611 0002 85B0     		sub	sp, sp, #20
 1612              		.cfi_def_cfa_offset 32
 1613 0004 00AF     		add	r7, sp, #0
 1614              		.cfi_def_cfa_register 7
 1615 0006 7860     		str	r0, [r7, #4]
1194:Generated_Source\PSoC4/TIMER.c ****     uint8 enableInterrupts;
1195:Generated_Source\PSoC4/TIMER.c **** 
1196:Generated_Source\PSoC4/TIMER.c ****     enableInterrupts = CyEnterCriticalSection();
 1616              		.loc 1 1196 0
 1617 0008 0F23     		movs	r3, #15
 1618 000a FC18     		adds	r4, r7, r3
 1619 000c FFF7FEFF 		bl	CyEnterCriticalSection
 1620 0010 0300     		movs	r3, r0
 1621 0012 2370     		strb	r3, [r4]
1197:Generated_Source\PSoC4/TIMER.c **** 
1198:Generated_Source\PSoC4/TIMER.c ****     TIMER_TRIG_CONTROL1_REG &= (uint32)~TIMER_STOP_MASK;
 1622              		.loc 1 1198 0
 1623 0014 0B4B     		ldr	r3, .L103
 1624 0016 0B4A     		ldr	r2, .L103
 1625 0018 1268     		ldr	r2, [r2]
 1626 001a C021     		movs	r1, #192
 1627 001c 8A43     		bics	r2, r1
 1628 001e 1A60     		str	r2, [r3]
1199:Generated_Source\PSoC4/TIMER.c ****     TIMER_TRIG_CONTROL1_REG |= ((uint32)(triggerMode << TIMER_STOP_SHIFT));
 1629              		.loc 1 1199 0
 1630 0020 084B     		ldr	r3, .L103
 1631 0022 084A     		ldr	r2, .L103
 1632 0024 1168     		ldr	r1, [r2]
 1633 0026 7A68     		ldr	r2, [r7, #4]
 1634 0028 9201     		lsls	r2, r2, #6
 1635 002a 0A43     		orrs	r2, r1
 1636 002c 1A60     		str	r2, [r3]
1200:Generated_Source\PSoC4/TIMER.c **** 
1201:Generated_Source\PSoC4/TIMER.c ****     CyExitCriticalSection(enableInterrupts);
 1637              		.loc 1 1201 0
 1638 002e 0F23     		movs	r3, #15
 1639 0030 FB18     		adds	r3, r7, r3
 1640 0032 1B78     		ldrb	r3, [r3]
 1641 0034 1800     		movs	r0, r3
 1642 0036 FFF7FEFF 		bl	CyExitCriticalSection
1202:Generated_Source\PSoC4/TIMER.c **** }
 1643              		.loc 1 1202 0
 1644 003a C046     		nop
 1645 003c BD46     		mov	sp, r7
 1646 003e 05B0     		add	sp, sp, #20
 1647              		@ sp needed
 1648 0040 90BD     		pop	{r4, r7, pc}
ARM GAS  C:\Users\ELEASO~1\AppData\Local\Temp\cc1j55VZ.s 			page 51


 1649              	.L104:
 1650 0042 C046     		.align	2
 1651              	.L103:
 1652 0044 24012040 		.word	1075839268
 1653              		.cfi_endproc
 1654              	.LFE33:
 1655              		.size	TIMER_SetStopMode, .-TIMER_SetStopMode
 1656              		.section	.text.TIMER_SetCountMode,"ax",%progbits
 1657              		.align	2
 1658              		.global	TIMER_SetCountMode
 1659              		.code	16
 1660              		.thumb_func
 1661              		.type	TIMER_SetCountMode, %function
 1662              	TIMER_SetCountMode:
 1663              	.LFB34:
1203:Generated_Source\PSoC4/TIMER.c **** 
1204:Generated_Source\PSoC4/TIMER.c **** 
1205:Generated_Source\PSoC4/TIMER.c **** /*******************************************************************************
1206:Generated_Source\PSoC4/TIMER.c **** * Function Name: TIMER_SetCountMode
1207:Generated_Source\PSoC4/TIMER.c **** ********************************************************************************
1208:Generated_Source\PSoC4/TIMER.c **** *
1209:Generated_Source\PSoC4/TIMER.c **** * Summary:
1210:Generated_Source\PSoC4/TIMER.c **** *  Sets the count trigger mode. For Quadrature Decoder mode this is the phiA
1211:Generated_Source\PSoC4/TIMER.c **** *  input.
1212:Generated_Source\PSoC4/TIMER.c **** *
1213:Generated_Source\PSoC4/TIMER.c **** * Parameters:
1214:Generated_Source\PSoC4/TIMER.c **** *  triggerMode: Enumerated trigger mode value
1215:Generated_Source\PSoC4/TIMER.c **** *   Values:
1216:Generated_Source\PSoC4/TIMER.c **** *     - TIMER_TRIG_LEVEL     - Level
1217:Generated_Source\PSoC4/TIMER.c **** *     - TIMER_TRIG_RISING    - Rising edge
1218:Generated_Source\PSoC4/TIMER.c **** *     - TIMER_TRIG_FALLING   - Falling edge
1219:Generated_Source\PSoC4/TIMER.c **** *     - TIMER_TRIG_BOTH      - Both rising and falling edge
1220:Generated_Source\PSoC4/TIMER.c **** *
1221:Generated_Source\PSoC4/TIMER.c **** * Return:
1222:Generated_Source\PSoC4/TIMER.c **** *  None
1223:Generated_Source\PSoC4/TIMER.c **** *
1224:Generated_Source\PSoC4/TIMER.c **** *******************************************************************************/
1225:Generated_Source\PSoC4/TIMER.c **** void TIMER_SetCountMode(uint32 triggerMode)
1226:Generated_Source\PSoC4/TIMER.c **** {
 1664              		.loc 1 1226 0
 1665              		.cfi_startproc
 1666              		@ args = 0, pretend = 0, frame = 16
 1667              		@ frame_needed = 1, uses_anonymous_args = 0
 1668 0000 90B5     		push	{r4, r7, lr}
 1669              		.cfi_def_cfa_offset 12
 1670              		.cfi_offset 4, -12
 1671              		.cfi_offset 7, -8
 1672              		.cfi_offset 14, -4
 1673 0002 85B0     		sub	sp, sp, #20
 1674              		.cfi_def_cfa_offset 32
 1675 0004 00AF     		add	r7, sp, #0
 1676              		.cfi_def_cfa_register 7
 1677 0006 7860     		str	r0, [r7, #4]
1227:Generated_Source\PSoC4/TIMER.c ****     uint8 enableInterrupts;
1228:Generated_Source\PSoC4/TIMER.c **** 
1229:Generated_Source\PSoC4/TIMER.c ****     enableInterrupts = CyEnterCriticalSection();
 1678              		.loc 1 1229 0
ARM GAS  C:\Users\ELEASO~1\AppData\Local\Temp\cc1j55VZ.s 			page 52


 1679 0008 0F23     		movs	r3, #15
 1680 000a FC18     		adds	r4, r7, r3
 1681 000c FFF7FEFF 		bl	CyEnterCriticalSection
 1682 0010 0300     		movs	r3, r0
 1683 0012 2370     		strb	r3, [r4]
1230:Generated_Source\PSoC4/TIMER.c **** 
1231:Generated_Source\PSoC4/TIMER.c ****     TIMER_TRIG_CONTROL1_REG &= (uint32)~TIMER_COUNT_MASK;
 1684              		.loc 1 1231 0
 1685 0014 0B4B     		ldr	r3, .L106
 1686 0016 0B4A     		ldr	r2, .L106
 1687 0018 1268     		ldr	r2, [r2]
 1688 001a 0C21     		movs	r1, #12
 1689 001c 8A43     		bics	r2, r1
 1690 001e 1A60     		str	r2, [r3]
1232:Generated_Source\PSoC4/TIMER.c ****     TIMER_TRIG_CONTROL1_REG |= ((uint32)(triggerMode << TIMER_COUNT_SHIFT));
 1691              		.loc 1 1232 0
 1692 0020 084B     		ldr	r3, .L106
 1693 0022 084A     		ldr	r2, .L106
 1694 0024 1168     		ldr	r1, [r2]
 1695 0026 7A68     		ldr	r2, [r7, #4]
 1696 0028 9200     		lsls	r2, r2, #2
 1697 002a 0A43     		orrs	r2, r1
 1698 002c 1A60     		str	r2, [r3]
1233:Generated_Source\PSoC4/TIMER.c **** 
1234:Generated_Source\PSoC4/TIMER.c ****     CyExitCriticalSection(enableInterrupts);
 1699              		.loc 1 1234 0
 1700 002e 0F23     		movs	r3, #15
 1701 0030 FB18     		adds	r3, r7, r3
 1702 0032 1B78     		ldrb	r3, [r3]
 1703 0034 1800     		movs	r0, r3
 1704 0036 FFF7FEFF 		bl	CyExitCriticalSection
1235:Generated_Source\PSoC4/TIMER.c **** }
 1705              		.loc 1 1235 0
 1706 003a C046     		nop
 1707 003c BD46     		mov	sp, r7
 1708 003e 05B0     		add	sp, sp, #20
 1709              		@ sp needed
 1710 0040 90BD     		pop	{r4, r7, pc}
 1711              	.L107:
 1712 0042 C046     		.align	2
 1713              	.L106:
 1714 0044 24012040 		.word	1075839268
 1715              		.cfi_endproc
 1716              	.LFE34:
 1717              		.size	TIMER_SetCountMode, .-TIMER_SetCountMode
 1718              		.section	.text.TIMER_TriggerCommand,"ax",%progbits
 1719              		.align	2
 1720              		.global	TIMER_TriggerCommand
 1721              		.code	16
 1722              		.thumb_func
 1723              		.type	TIMER_TriggerCommand, %function
 1724              	TIMER_TriggerCommand:
 1725              	.LFB35:
1236:Generated_Source\PSoC4/TIMER.c **** 
1237:Generated_Source\PSoC4/TIMER.c **** 
1238:Generated_Source\PSoC4/TIMER.c **** /*******************************************************************************
1239:Generated_Source\PSoC4/TIMER.c **** * Function Name: TIMER_TriggerCommand
ARM GAS  C:\Users\ELEASO~1\AppData\Local\Temp\cc1j55VZ.s 			page 53


1240:Generated_Source\PSoC4/TIMER.c **** ********************************************************************************
1241:Generated_Source\PSoC4/TIMER.c **** *
1242:Generated_Source\PSoC4/TIMER.c **** * Summary:
1243:Generated_Source\PSoC4/TIMER.c **** *  Triggers the designated command to occur on the designated TCPWM instances.
1244:Generated_Source\PSoC4/TIMER.c **** *  The mask can be used to apply this command simultaneously to more than one
1245:Generated_Source\PSoC4/TIMER.c **** *  instance.  This allows multiple TCPWM instances to be synchronized.
1246:Generated_Source\PSoC4/TIMER.c **** *
1247:Generated_Source\PSoC4/TIMER.c **** * Parameters:
1248:Generated_Source\PSoC4/TIMER.c **** *  mask: A combination of mask bits for each instance of the TCPWM that the
1249:Generated_Source\PSoC4/TIMER.c **** *        command should apply to.  This function from one instance can be used
1250:Generated_Source\PSoC4/TIMER.c **** *        to apply the command to any of the instances in the design.
1251:Generated_Source\PSoC4/TIMER.c **** *        The mask value for a specific instance is available with the MASK
1252:Generated_Source\PSoC4/TIMER.c **** *        define.
1253:Generated_Source\PSoC4/TIMER.c **** *  command: Enumerated command values. Capture command only applicable for
1254:Generated_Source\PSoC4/TIMER.c **** *           Timer/Counter with Capture and PWM modes.
1255:Generated_Source\PSoC4/TIMER.c **** *   Values:
1256:Generated_Source\PSoC4/TIMER.c **** *     - TIMER_CMD_CAPTURE    - Trigger Capture/Switch command
1257:Generated_Source\PSoC4/TIMER.c **** *     - TIMER_CMD_RELOAD     - Trigger Reload/Index command
1258:Generated_Source\PSoC4/TIMER.c **** *     - TIMER_CMD_STOP       - Trigger Stop/Kill command
1259:Generated_Source\PSoC4/TIMER.c **** *     - TIMER_CMD_START      - Trigger Start/phiB command
1260:Generated_Source\PSoC4/TIMER.c **** *
1261:Generated_Source\PSoC4/TIMER.c **** * Return:
1262:Generated_Source\PSoC4/TIMER.c **** *  None
1263:Generated_Source\PSoC4/TIMER.c **** *
1264:Generated_Source\PSoC4/TIMER.c **** *******************************************************************************/
1265:Generated_Source\PSoC4/TIMER.c **** void TIMER_TriggerCommand(uint32 mask, uint32 command)
1266:Generated_Source\PSoC4/TIMER.c **** {
 1726              		.loc 1 1266 0
 1727              		.cfi_startproc
 1728              		@ args = 0, pretend = 0, frame = 16
 1729              		@ frame_needed = 1, uses_anonymous_args = 0
 1730 0000 90B5     		push	{r4, r7, lr}
 1731              		.cfi_def_cfa_offset 12
 1732              		.cfi_offset 4, -12
 1733              		.cfi_offset 7, -8
 1734              		.cfi_offset 14, -4
 1735 0002 85B0     		sub	sp, sp, #20
 1736              		.cfi_def_cfa_offset 32
 1737 0004 00AF     		add	r7, sp, #0
 1738              		.cfi_def_cfa_register 7
 1739 0006 7860     		str	r0, [r7, #4]
 1740 0008 3960     		str	r1, [r7]
1267:Generated_Source\PSoC4/TIMER.c ****     uint8 enableInterrupts;
1268:Generated_Source\PSoC4/TIMER.c **** 
1269:Generated_Source\PSoC4/TIMER.c ****     enableInterrupts = CyEnterCriticalSection();
 1741              		.loc 1 1269 0
 1742 000a 0F23     		movs	r3, #15
 1743 000c FC18     		adds	r4, r7, r3
 1744 000e FFF7FEFF 		bl	CyEnterCriticalSection
 1745 0012 0300     		movs	r3, r0
 1746 0014 2370     		strb	r3, [r4]
1270:Generated_Source\PSoC4/TIMER.c **** 
1271:Generated_Source\PSoC4/TIMER.c ****     TIMER_COMMAND_REG = ((uint32)(mask << command));
 1747              		.loc 1 1271 0
 1748 0016 084B     		ldr	r3, .L109
 1749 0018 7968     		ldr	r1, [r7, #4]
 1750 001a 3A68     		ldr	r2, [r7]
ARM GAS  C:\Users\ELEASO~1\AppData\Local\Temp\cc1j55VZ.s 			page 54


 1751 001c 9140     		lsls	r1, r1, r2
 1752 001e 0A00     		movs	r2, r1
 1753 0020 1A60     		str	r2, [r3]
1272:Generated_Source\PSoC4/TIMER.c **** 
1273:Generated_Source\PSoC4/TIMER.c ****     CyExitCriticalSection(enableInterrupts);
 1754              		.loc 1 1273 0
 1755 0022 0F23     		movs	r3, #15
 1756 0024 FB18     		adds	r3, r7, r3
 1757 0026 1B78     		ldrb	r3, [r3]
 1758 0028 1800     		movs	r0, r3
 1759 002a FFF7FEFF 		bl	CyExitCriticalSection
1274:Generated_Source\PSoC4/TIMER.c **** }
 1760              		.loc 1 1274 0
 1761 002e C046     		nop
 1762 0030 BD46     		mov	sp, r7
 1763 0032 05B0     		add	sp, sp, #20
 1764              		@ sp needed
 1765 0034 90BD     		pop	{r4, r7, pc}
 1766              	.L110:
 1767 0036 C046     		.align	2
 1768              	.L109:
 1769 0038 08002040 		.word	1075838984
 1770              		.cfi_endproc
 1771              	.LFE35:
 1772              		.size	TIMER_TriggerCommand, .-TIMER_TriggerCommand
 1773              		.section	.text.TIMER_ReadStatus,"ax",%progbits
 1774              		.align	2
 1775              		.global	TIMER_ReadStatus
 1776              		.code	16
 1777              		.thumb_func
 1778              		.type	TIMER_ReadStatus, %function
 1779              	TIMER_ReadStatus:
 1780              	.LFB36:
1275:Generated_Source\PSoC4/TIMER.c **** 
1276:Generated_Source\PSoC4/TIMER.c **** 
1277:Generated_Source\PSoC4/TIMER.c **** /*******************************************************************************
1278:Generated_Source\PSoC4/TIMER.c **** * Function Name: TIMER_ReadStatus
1279:Generated_Source\PSoC4/TIMER.c **** ********************************************************************************
1280:Generated_Source\PSoC4/TIMER.c **** *
1281:Generated_Source\PSoC4/TIMER.c **** * Summary:
1282:Generated_Source\PSoC4/TIMER.c **** *  Reads the status of the TIMER.
1283:Generated_Source\PSoC4/TIMER.c **** *
1284:Generated_Source\PSoC4/TIMER.c **** * Parameters:
1285:Generated_Source\PSoC4/TIMER.c **** *  None
1286:Generated_Source\PSoC4/TIMER.c **** *
1287:Generated_Source\PSoC4/TIMER.c **** * Return:
1288:Generated_Source\PSoC4/TIMER.c **** *  Status
1289:Generated_Source\PSoC4/TIMER.c **** *   Values:
1290:Generated_Source\PSoC4/TIMER.c **** *     - TIMER_STATUS_DOWN    - Set if counting down
1291:Generated_Source\PSoC4/TIMER.c **** *     - TIMER_STATUS_RUNNING - Set if counter is running
1292:Generated_Source\PSoC4/TIMER.c **** *
1293:Generated_Source\PSoC4/TIMER.c **** *******************************************************************************/
1294:Generated_Source\PSoC4/TIMER.c **** uint32 TIMER_ReadStatus(void)
1295:Generated_Source\PSoC4/TIMER.c **** {
 1781              		.loc 1 1295 0
 1782              		.cfi_startproc
 1783              		@ args = 0, pretend = 0, frame = 0
ARM GAS  C:\Users\ELEASO~1\AppData\Local\Temp\cc1j55VZ.s 			page 55


 1784              		@ frame_needed = 1, uses_anonymous_args = 0
 1785 0000 80B5     		push	{r7, lr}
 1786              		.cfi_def_cfa_offset 8
 1787              		.cfi_offset 7, -8
 1788              		.cfi_offset 14, -4
 1789 0002 00AF     		add	r7, sp, #0
 1790              		.cfi_def_cfa_register 7
1296:Generated_Source\PSoC4/TIMER.c ****     return ((TIMER_STATUS_REG >> TIMER_RUNNING_STATUS_SHIFT) |
 1791              		.loc 1 1296 0
 1792 0004 054B     		ldr	r3, .L113
 1793 0006 1B68     		ldr	r3, [r3]
 1794 0008 9A0F     		lsrs	r2, r3, #30
1297:Generated_Source\PSoC4/TIMER.c ****             (TIMER_STATUS_REG & TIMER_STATUS_DOWN));
 1795              		.loc 1 1297 0
 1796 000a 044B     		ldr	r3, .L113
 1797 000c 1B68     		ldr	r3, [r3]
 1798 000e 0121     		movs	r1, #1
 1799 0010 0B40     		ands	r3, r1
1296:Generated_Source\PSoC4/TIMER.c ****     return ((TIMER_STATUS_REG >> TIMER_RUNNING_STATUS_SHIFT) |
 1800              		.loc 1 1296 0
 1801 0012 1343     		orrs	r3, r2
1298:Generated_Source\PSoC4/TIMER.c **** }
 1802              		.loc 1 1298 0
 1803 0014 1800     		movs	r0, r3
 1804 0016 BD46     		mov	sp, r7
 1805              		@ sp needed
 1806 0018 80BD     		pop	{r7, pc}
 1807              	.L114:
 1808 001a C046     		.align	2
 1809              	.L113:
 1810 001c 04012040 		.word	1075839236
 1811              		.cfi_endproc
 1812              	.LFE36:
 1813              		.size	TIMER_ReadStatus, .-TIMER_ReadStatus
 1814              		.section	.text.TIMER_SetInterruptMode,"ax",%progbits
 1815              		.align	2
 1816              		.global	TIMER_SetInterruptMode
 1817              		.code	16
 1818              		.thumb_func
 1819              		.type	TIMER_SetInterruptMode, %function
 1820              	TIMER_SetInterruptMode:
 1821              	.LFB37:
1299:Generated_Source\PSoC4/TIMER.c **** 
1300:Generated_Source\PSoC4/TIMER.c **** 
1301:Generated_Source\PSoC4/TIMER.c **** /*******************************************************************************
1302:Generated_Source\PSoC4/TIMER.c **** * Function Name: TIMER_SetInterruptMode
1303:Generated_Source\PSoC4/TIMER.c **** ********************************************************************************
1304:Generated_Source\PSoC4/TIMER.c **** *
1305:Generated_Source\PSoC4/TIMER.c **** * Summary:
1306:Generated_Source\PSoC4/TIMER.c **** *  Sets the interrupt mask to control which interrupt
1307:Generated_Source\PSoC4/TIMER.c **** *  requests generate the interrupt signal.
1308:Generated_Source\PSoC4/TIMER.c **** *
1309:Generated_Source\PSoC4/TIMER.c **** * Parameters:
1310:Generated_Source\PSoC4/TIMER.c **** *   interruptMask: Mask of bits to be enabled
1311:Generated_Source\PSoC4/TIMER.c **** *   Values:
1312:Generated_Source\PSoC4/TIMER.c **** *     - TIMER_INTR_MASK_TC       - Terminal count mask
1313:Generated_Source\PSoC4/TIMER.c **** *     - TIMER_INTR_MASK_CC_MATCH - Compare count / capture mask
ARM GAS  C:\Users\ELEASO~1\AppData\Local\Temp\cc1j55VZ.s 			page 56


1314:Generated_Source\PSoC4/TIMER.c **** *
1315:Generated_Source\PSoC4/TIMER.c **** * Return:
1316:Generated_Source\PSoC4/TIMER.c **** *  None
1317:Generated_Source\PSoC4/TIMER.c **** *
1318:Generated_Source\PSoC4/TIMER.c **** *******************************************************************************/
1319:Generated_Source\PSoC4/TIMER.c **** void TIMER_SetInterruptMode(uint32 interruptMask)
1320:Generated_Source\PSoC4/TIMER.c **** {
 1822              		.loc 1 1320 0
 1823              		.cfi_startproc
 1824              		@ args = 0, pretend = 0, frame = 8
 1825              		@ frame_needed = 1, uses_anonymous_args = 0
 1826 0000 80B5     		push	{r7, lr}
 1827              		.cfi_def_cfa_offset 8
 1828              		.cfi_offset 7, -8
 1829              		.cfi_offset 14, -4
 1830 0002 82B0     		sub	sp, sp, #8
 1831              		.cfi_def_cfa_offset 16
 1832 0004 00AF     		add	r7, sp, #0
 1833              		.cfi_def_cfa_register 7
 1834 0006 7860     		str	r0, [r7, #4]
1321:Generated_Source\PSoC4/TIMER.c ****     TIMER_INTERRUPT_MASK_REG =  interruptMask;
 1835              		.loc 1 1321 0
 1836 0008 034B     		ldr	r3, .L116
 1837 000a 7A68     		ldr	r2, [r7, #4]
 1838 000c 1A60     		str	r2, [r3]
1322:Generated_Source\PSoC4/TIMER.c **** }
 1839              		.loc 1 1322 0
 1840 000e C046     		nop
 1841 0010 BD46     		mov	sp, r7
 1842 0012 02B0     		add	sp, sp, #8
 1843              		@ sp needed
 1844 0014 80BD     		pop	{r7, pc}
 1845              	.L117:
 1846 0016 C046     		.align	2
 1847              	.L116:
 1848 0018 38012040 		.word	1075839288
 1849              		.cfi_endproc
 1850              	.LFE37:
 1851              		.size	TIMER_SetInterruptMode, .-TIMER_SetInterruptMode
 1852              		.section	.text.TIMER_GetInterruptSourceMasked,"ax",%progbits
 1853              		.align	2
 1854              		.global	TIMER_GetInterruptSourceMasked
 1855              		.code	16
 1856              		.thumb_func
 1857              		.type	TIMER_GetInterruptSourceMasked, %function
 1858              	TIMER_GetInterruptSourceMasked:
 1859              	.LFB38:
1323:Generated_Source\PSoC4/TIMER.c **** 
1324:Generated_Source\PSoC4/TIMER.c **** 
1325:Generated_Source\PSoC4/TIMER.c **** /*******************************************************************************
1326:Generated_Source\PSoC4/TIMER.c **** * Function Name: TIMER_GetInterruptSourceMasked
1327:Generated_Source\PSoC4/TIMER.c **** ********************************************************************************
1328:Generated_Source\PSoC4/TIMER.c **** *
1329:Generated_Source\PSoC4/TIMER.c **** * Summary:
1330:Generated_Source\PSoC4/TIMER.c **** *  Gets the interrupt requests masked by the interrupt mask.
1331:Generated_Source\PSoC4/TIMER.c **** *
1332:Generated_Source\PSoC4/TIMER.c **** * Parameters:
ARM GAS  C:\Users\ELEASO~1\AppData\Local\Temp\cc1j55VZ.s 			page 57


1333:Generated_Source\PSoC4/TIMER.c **** *   None
1334:Generated_Source\PSoC4/TIMER.c **** *
1335:Generated_Source\PSoC4/TIMER.c **** * Return:
1336:Generated_Source\PSoC4/TIMER.c **** *  Masked interrupt source
1337:Generated_Source\PSoC4/TIMER.c **** *   Values:
1338:Generated_Source\PSoC4/TIMER.c **** *     - TIMER_INTR_MASK_TC       - Terminal count mask
1339:Generated_Source\PSoC4/TIMER.c **** *     - TIMER_INTR_MASK_CC_MATCH - Compare count / capture mask
1340:Generated_Source\PSoC4/TIMER.c **** *
1341:Generated_Source\PSoC4/TIMER.c **** *******************************************************************************/
1342:Generated_Source\PSoC4/TIMER.c **** uint32 TIMER_GetInterruptSourceMasked(void)
1343:Generated_Source\PSoC4/TIMER.c **** {
 1860              		.loc 1 1343 0
 1861              		.cfi_startproc
 1862              		@ args = 0, pretend = 0, frame = 0
 1863              		@ frame_needed = 1, uses_anonymous_args = 0
 1864 0000 80B5     		push	{r7, lr}
 1865              		.cfi_def_cfa_offset 8
 1866              		.cfi_offset 7, -8
 1867              		.cfi_offset 14, -4
 1868 0002 00AF     		add	r7, sp, #0
 1869              		.cfi_def_cfa_register 7
1344:Generated_Source\PSoC4/TIMER.c ****     return (TIMER_INTERRUPT_MASKED_REG);
 1870              		.loc 1 1344 0
 1871 0004 024B     		ldr	r3, .L120
 1872 0006 1B68     		ldr	r3, [r3]
1345:Generated_Source\PSoC4/TIMER.c **** }
 1873              		.loc 1 1345 0
 1874 0008 1800     		movs	r0, r3
 1875 000a BD46     		mov	sp, r7
 1876              		@ sp needed
 1877 000c 80BD     		pop	{r7, pc}
 1878              	.L121:
 1879 000e C046     		.align	2
 1880              	.L120:
 1881 0010 3C012040 		.word	1075839292
 1882              		.cfi_endproc
 1883              	.LFE38:
 1884              		.size	TIMER_GetInterruptSourceMasked, .-TIMER_GetInterruptSourceMasked
 1885              		.section	.text.TIMER_GetInterruptSource,"ax",%progbits
 1886              		.align	2
 1887              		.global	TIMER_GetInterruptSource
 1888              		.code	16
 1889              		.thumb_func
 1890              		.type	TIMER_GetInterruptSource, %function
 1891              	TIMER_GetInterruptSource:
 1892              	.LFB39:
1346:Generated_Source\PSoC4/TIMER.c **** 
1347:Generated_Source\PSoC4/TIMER.c **** 
1348:Generated_Source\PSoC4/TIMER.c **** /*******************************************************************************
1349:Generated_Source\PSoC4/TIMER.c **** * Function Name: TIMER_GetInterruptSource
1350:Generated_Source\PSoC4/TIMER.c **** ********************************************************************************
1351:Generated_Source\PSoC4/TIMER.c **** *
1352:Generated_Source\PSoC4/TIMER.c **** * Summary:
1353:Generated_Source\PSoC4/TIMER.c **** *  Gets the interrupt requests (without masking).
1354:Generated_Source\PSoC4/TIMER.c **** *
1355:Generated_Source\PSoC4/TIMER.c **** * Parameters:
1356:Generated_Source\PSoC4/TIMER.c **** *  None
ARM GAS  C:\Users\ELEASO~1\AppData\Local\Temp\cc1j55VZ.s 			page 58


1357:Generated_Source\PSoC4/TIMER.c **** *
1358:Generated_Source\PSoC4/TIMER.c **** * Return:
1359:Generated_Source\PSoC4/TIMER.c **** *  Interrupt request value
1360:Generated_Source\PSoC4/TIMER.c **** *   Values:
1361:Generated_Source\PSoC4/TIMER.c **** *     - TIMER_INTR_MASK_TC       - Terminal count mask
1362:Generated_Source\PSoC4/TIMER.c **** *     - TIMER_INTR_MASK_CC_MATCH - Compare count / capture mask
1363:Generated_Source\PSoC4/TIMER.c **** *
1364:Generated_Source\PSoC4/TIMER.c **** *******************************************************************************/
1365:Generated_Source\PSoC4/TIMER.c **** uint32 TIMER_GetInterruptSource(void)
1366:Generated_Source\PSoC4/TIMER.c **** {
 1893              		.loc 1 1366 0
 1894              		.cfi_startproc
 1895              		@ args = 0, pretend = 0, frame = 0
 1896              		@ frame_needed = 1, uses_anonymous_args = 0
 1897 0000 80B5     		push	{r7, lr}
 1898              		.cfi_def_cfa_offset 8
 1899              		.cfi_offset 7, -8
 1900              		.cfi_offset 14, -4
 1901 0002 00AF     		add	r7, sp, #0
 1902              		.cfi_def_cfa_register 7
1367:Generated_Source\PSoC4/TIMER.c ****     return (TIMER_INTERRUPT_REQ_REG);
 1903              		.loc 1 1367 0
 1904 0004 024B     		ldr	r3, .L124
 1905 0006 1B68     		ldr	r3, [r3]
1368:Generated_Source\PSoC4/TIMER.c **** }
 1906              		.loc 1 1368 0
 1907 0008 1800     		movs	r0, r3
 1908 000a BD46     		mov	sp, r7
 1909              		@ sp needed
 1910 000c 80BD     		pop	{r7, pc}
 1911              	.L125:
 1912 000e C046     		.align	2
 1913              	.L124:
 1914 0010 30012040 		.word	1075839280
 1915              		.cfi_endproc
 1916              	.LFE39:
 1917              		.size	TIMER_GetInterruptSource, .-TIMER_GetInterruptSource
 1918              		.section	.text.TIMER_ClearInterrupt,"ax",%progbits
 1919              		.align	2
 1920              		.global	TIMER_ClearInterrupt
 1921              		.code	16
 1922              		.thumb_func
 1923              		.type	TIMER_ClearInterrupt, %function
 1924              	TIMER_ClearInterrupt:
 1925              	.LFB40:
1369:Generated_Source\PSoC4/TIMER.c **** 
1370:Generated_Source\PSoC4/TIMER.c **** 
1371:Generated_Source\PSoC4/TIMER.c **** /*******************************************************************************
1372:Generated_Source\PSoC4/TIMER.c **** * Function Name: TIMER_ClearInterrupt
1373:Generated_Source\PSoC4/TIMER.c **** ********************************************************************************
1374:Generated_Source\PSoC4/TIMER.c **** *
1375:Generated_Source\PSoC4/TIMER.c **** * Summary:
1376:Generated_Source\PSoC4/TIMER.c **** *  Clears the interrupt request.
1377:Generated_Source\PSoC4/TIMER.c **** *
1378:Generated_Source\PSoC4/TIMER.c **** * Parameters:
1379:Generated_Source\PSoC4/TIMER.c **** *   interruptMask: Mask of interrupts to clear
1380:Generated_Source\PSoC4/TIMER.c **** *   Values:
ARM GAS  C:\Users\ELEASO~1\AppData\Local\Temp\cc1j55VZ.s 			page 59


1381:Generated_Source\PSoC4/TIMER.c **** *     - TIMER_INTR_MASK_TC       - Terminal count mask
1382:Generated_Source\PSoC4/TIMER.c **** *     - TIMER_INTR_MASK_CC_MATCH - Compare count / capture mask
1383:Generated_Source\PSoC4/TIMER.c **** *
1384:Generated_Source\PSoC4/TIMER.c **** * Return:
1385:Generated_Source\PSoC4/TIMER.c **** *  None
1386:Generated_Source\PSoC4/TIMER.c **** *
1387:Generated_Source\PSoC4/TIMER.c **** *******************************************************************************/
1388:Generated_Source\PSoC4/TIMER.c **** void TIMER_ClearInterrupt(uint32 interruptMask)
1389:Generated_Source\PSoC4/TIMER.c **** {
 1926              		.loc 1 1389 0
 1927              		.cfi_startproc
 1928              		@ args = 0, pretend = 0, frame = 8
 1929              		@ frame_needed = 1, uses_anonymous_args = 0
 1930 0000 80B5     		push	{r7, lr}
 1931              		.cfi_def_cfa_offset 8
 1932              		.cfi_offset 7, -8
 1933              		.cfi_offset 14, -4
 1934 0002 82B0     		sub	sp, sp, #8
 1935              		.cfi_def_cfa_offset 16
 1936 0004 00AF     		add	r7, sp, #0
 1937              		.cfi_def_cfa_register 7
 1938 0006 7860     		str	r0, [r7, #4]
1390:Generated_Source\PSoC4/TIMER.c ****     TIMER_INTERRUPT_REQ_REG = interruptMask;
 1939              		.loc 1 1390 0
 1940 0008 034B     		ldr	r3, .L127
 1941 000a 7A68     		ldr	r2, [r7, #4]
 1942 000c 1A60     		str	r2, [r3]
1391:Generated_Source\PSoC4/TIMER.c **** }
 1943              		.loc 1 1391 0
 1944 000e C046     		nop
 1945 0010 BD46     		mov	sp, r7
 1946 0012 02B0     		add	sp, sp, #8
 1947              		@ sp needed
 1948 0014 80BD     		pop	{r7, pc}
 1949              	.L128:
 1950 0016 C046     		.align	2
 1951              	.L127:
 1952 0018 30012040 		.word	1075839280
 1953              		.cfi_endproc
 1954              	.LFE40:
 1955              		.size	TIMER_ClearInterrupt, .-TIMER_ClearInterrupt
 1956              		.section	.text.TIMER_SetInterrupt,"ax",%progbits
 1957              		.align	2
 1958              		.global	TIMER_SetInterrupt
 1959              		.code	16
 1960              		.thumb_func
 1961              		.type	TIMER_SetInterrupt, %function
 1962              	TIMER_SetInterrupt:
 1963              	.LFB41:
1392:Generated_Source\PSoC4/TIMER.c **** 
1393:Generated_Source\PSoC4/TIMER.c **** 
1394:Generated_Source\PSoC4/TIMER.c **** /*******************************************************************************
1395:Generated_Source\PSoC4/TIMER.c **** * Function Name: TIMER_SetInterrupt
1396:Generated_Source\PSoC4/TIMER.c **** ********************************************************************************
1397:Generated_Source\PSoC4/TIMER.c **** *
1398:Generated_Source\PSoC4/TIMER.c **** * Summary:
1399:Generated_Source\PSoC4/TIMER.c **** *  Sets a software interrupt request.
ARM GAS  C:\Users\ELEASO~1\AppData\Local\Temp\cc1j55VZ.s 			page 60


1400:Generated_Source\PSoC4/TIMER.c **** *
1401:Generated_Source\PSoC4/TIMER.c **** * Parameters:
1402:Generated_Source\PSoC4/TIMER.c **** *   interruptMask: Mask of interrupts to set
1403:Generated_Source\PSoC4/TIMER.c **** *   Values:
1404:Generated_Source\PSoC4/TIMER.c **** *     - TIMER_INTR_MASK_TC       - Terminal count mask
1405:Generated_Source\PSoC4/TIMER.c **** *     - TIMER_INTR_MASK_CC_MATCH - Compare count / capture mask
1406:Generated_Source\PSoC4/TIMER.c **** *
1407:Generated_Source\PSoC4/TIMER.c **** * Return:
1408:Generated_Source\PSoC4/TIMER.c **** *  None
1409:Generated_Source\PSoC4/TIMER.c **** *
1410:Generated_Source\PSoC4/TIMER.c **** *******************************************************************************/
1411:Generated_Source\PSoC4/TIMER.c **** void TIMER_SetInterrupt(uint32 interruptMask)
1412:Generated_Source\PSoC4/TIMER.c **** {
 1964              		.loc 1 1412 0
 1965              		.cfi_startproc
 1966              		@ args = 0, pretend = 0, frame = 8
 1967              		@ frame_needed = 1, uses_anonymous_args = 0
 1968 0000 80B5     		push	{r7, lr}
 1969              		.cfi_def_cfa_offset 8
 1970              		.cfi_offset 7, -8
 1971              		.cfi_offset 14, -4
 1972 0002 82B0     		sub	sp, sp, #8
 1973              		.cfi_def_cfa_offset 16
 1974 0004 00AF     		add	r7, sp, #0
 1975              		.cfi_def_cfa_register 7
 1976 0006 7860     		str	r0, [r7, #4]
1413:Generated_Source\PSoC4/TIMER.c ****     TIMER_INTERRUPT_SET_REG = interruptMask;
 1977              		.loc 1 1413 0
 1978 0008 034B     		ldr	r3, .L130
 1979 000a 7A68     		ldr	r2, [r7, #4]
 1980 000c 1A60     		str	r2, [r3]
1414:Generated_Source\PSoC4/TIMER.c **** }
 1981              		.loc 1 1414 0
 1982 000e C046     		nop
 1983 0010 BD46     		mov	sp, r7
 1984 0012 02B0     		add	sp, sp, #8
 1985              		@ sp needed
 1986 0014 80BD     		pop	{r7, pc}
 1987              	.L131:
 1988 0016 C046     		.align	2
 1989              	.L130:
 1990 0018 34012040 		.word	1075839284
 1991              		.cfi_endproc
 1992              	.LFE41:
 1993              		.size	TIMER_SetInterrupt, .-TIMER_SetInterrupt
 1994              		.text
 1995              	.Letext0:
 1996              		.file 2 "Generated_Source\\PSoC4\\cytypes.h"
